{
	"libraries/operators.sol": {
		"operations": {
			"abi": [
				{
					"inputs": [
						{
							"internalType": "uint256",
							"name": "a",
							"type": "uint256"
						},
						{
							"internalType": "uint256",
							"name": "b",
							"type": "uint256"
						}
					],
					"name": "add",
					"outputs": [
						{
							"internalType": "uint256",
							"name": "",
							"type": "uint256"
						}
					],
					"stateMutability": "pure",
					"type": "function"
				},
				{
					"inputs": [
						{
							"internalType": "uint256[]",
							"name": "arr",
							"type": "uint256[]"
						}
					],
					"name": "add_arr",
					"outputs": [
						{
							"internalType": "uint256",
							"name": "",
							"type": "uint256"
						}
					],
					"stateMutability": "pure",
					"type": "function"
				},
				{
					"inputs": [
						{
							"internalType": "uint256",
							"name": "a",
							"type": "uint256"
						},
						{
							"internalType": "uint256",
							"name": "b",
							"type": "uint256"
						}
					],
					"name": "div",
					"outputs": [
						{
							"internalType": "uint256",
							"name": "",
							"type": "uint256"
						}
					],
					"stateMutability": "pure",
					"type": "function"
				},
				{
					"inputs": [
						{
							"internalType": "uint256",
							"name": "a",
							"type": "uint256"
						},
						{
							"internalType": "uint256",
							"name": "b",
							"type": "uint256"
						}
					],
					"name": "exp",
					"outputs": [
						{
							"internalType": "uint256",
							"name": "",
							"type": "uint256"
						}
					],
					"stateMutability": "pure",
					"type": "function"
				},
				{
					"inputs": [
						{
							"internalType": "uint256",
							"name": "a",
							"type": "uint256"
						},
						{
							"internalType": "uint256",
							"name": "b",
							"type": "uint256"
						}
					],
					"name": "mul",
					"outputs": [
						{
							"internalType": "uint256",
							"name": "",
							"type": "uint256"
						}
					],
					"stateMutability": "pure",
					"type": "function"
				},
				{
					"inputs": [
						{
							"internalType": "uint256[]",
							"name": "arr",
							"type": "uint256[]"
						}
					],
					"name": "mul_arr",
					"outputs": [
						{
							"internalType": "uint256",
							"name": "",
							"type": "uint256"
						}
					],
					"stateMutability": "pure",
					"type": "function"
				},
				{
					"inputs": [
						{
							"internalType": "uint256",
							"name": "a",
							"type": "uint256"
						},
						{
							"internalType": "uint256",
							"name": "b",
							"type": "uint256"
						}
					],
					"name": "sub",
					"outputs": [
						{
							"internalType": "uint256",
							"name": "",
							"type": "uint256"
						}
					],
					"stateMutability": "pure",
					"type": "function"
				}
			],
			"devdoc": {
				"kind": "dev",
				"methods": {},
				"version": 1
			},
			"evm": {
				"assembly": "    /* \"libraries/operators.sol\":76:1516  library operations... */\n  dataSize(sub_0)\n  dataOffset(sub_0)\n  0x0b\n  dup3\n  dup3\n  dup3\n  codecopy\n  dup1\n  mload\n  0x00\n  byte\n  0x73\n  eq\n  tag_1\n  jumpi\n  mstore(0x00, 0x4e487b7100000000000000000000000000000000000000000000000000000000)\n  mstore(0x04, 0x00)\n  revert(0x00, 0x24)\ntag_1:\n  mstore(0x00, address)\n  0x73\n  dup2\n  mstore8\n  dup3\n  dup2\n  return\nstop\n\nsub_0: assembly {\n        /* \"libraries/operators.sol\":76:1516  library operations... */\n      eq(address, deployTimeAddress())\n      mstore(0x40, 0x80)\n      jumpi(tag_1, lt(calldatasize, 0x04))\n      shr(0xe0, calldataload(0x00))\n      dup1\n      0xc8a4ac9c\n      gt\n      tag_9\n      jumpi\n      dup1\n      0xc8a4ac9c\n      eq\n      tag_5\n      jumpi\n      dup1\n      0xcea07138\n      eq\n      tag_6\n      jumpi\n      dup1\n      0xe35e8354\n      eq\n      tag_7\n      jumpi\n      dup1\n      0xf5f565f8\n      eq\n      tag_8\n      jumpi\n      jump(tag_1)\n    tag_9:\n      dup1\n      0x771602f7\n      eq\n      tag_2\n      jumpi\n      dup1\n      0xa391c15b\n      eq\n      tag_3\n      jumpi\n      dup1\n      0xb67d77c5\n      eq\n      tag_4\n      jumpi\n    tag_1:\n      0x00\n      dup1\n      revert\n        /* \"libraries/operators.sol\":103:223  function add(uint a, uint b) public pure returns(uint)... */\n    tag_2:\n      tag_10\n      0x04\n      dup1\n      calldatasize\n      sub\n      dup2\n      add\n      swap1\n      tag_11\n      swap2\n      swap1\n      tag_12\n      jump\t// in\n    tag_11:\n      tag_13\n      jump\t// in\n    tag_10:\n      mload(0x40)\n      tag_14\n      swap2\n      swap1\n      tag_15\n      jump\t// in\n    tag_14:\n      mload(0x40)\n      dup1\n      swap2\n      sub\n      swap1\n      return\n        /* \"libraries/operators.sol\":722:846  function div(uint a, uint b) public pure returns(uint)... */\n    tag_3:\n      tag_16\n      0x04\n      dup1\n      calldatasize\n      sub\n      dup2\n      add\n      swap1\n      tag_17\n      swap2\n      swap1\n      tag_12\n      jump\t// in\n    tag_17:\n      tag_18\n      jump\t// in\n    tag_16:\n      mload(0x40)\n      tag_19\n      swap2\n      swap1\n      tag_15\n      jump\t// in\n    tag_19:\n      mload(0x40)\n      dup1\n      swap2\n      sub\n      swap1\n      return\n        /* \"libraries/operators.sol\":231:448  function sub(uint a, uint b) public pure returns(uint)... */\n    tag_4:\n      tag_20\n      0x04\n      dup1\n      calldatasize\n      sub\n      dup2\n      add\n      swap1\n      tag_21\n      swap2\n      swap1\n      tag_12\n      jump\t// in\n    tag_21:\n      tag_22\n      jump\t// in\n    tag_20:\n      mload(0x40)\n      tag_23\n      swap2\n      swap1\n      tag_15\n      jump\t// in\n    tag_23:\n      mload(0x40)\n      dup1\n      swap2\n      sub\n      swap1\n      return\n        /* \"libraries/operators.sol\":456:656  function mul(uint a, uint b) public pure returns(uint)... */\n    tag_5:\n      tag_24\n      0x04\n      dup1\n      calldatasize\n      sub\n      dup2\n      add\n      swap1\n      tag_25\n      swap2\n      swap1\n      tag_12\n      jump\t// in\n    tag_25:\n      tag_26\n      jump\t// in\n    tag_24:\n      mload(0x40)\n      tag_27\n      swap2\n      swap1\n      tag_15\n      jump\t// in\n    tag_27:\n      mload(0x40)\n      dup1\n      swap2\n      sub\n      swap1\n      return\n        /* \"libraries/operators.sol\":1070:1289  function add_arr(uint[] memory arr) public pure returns(uint)... */\n    tag_6:\n      tag_28\n      0x04\n      dup1\n      calldatasize\n      sub\n      dup2\n      add\n      swap1\n      tag_29\n      swap2\n      swap1\n      tag_30\n      jump\t// in\n    tag_29:\n      tag_31\n      jump\t// in\n    tag_28:\n      mload(0x40)\n      tag_32\n      swap2\n      swap1\n      tag_15\n      jump\t// in\n    tag_32:\n      mload(0x40)\n      dup1\n      swap2\n      sub\n      swap1\n      return\n        /* \"libraries/operators.sol\":1297:1513  function mul_arr(uint[] memory arr) public pure returns(uint)... */\n    tag_7:\n      tag_33\n      0x04\n      dup1\n      calldatasize\n      sub\n      dup2\n      add\n      swap1\n      tag_34\n      swap2\n      swap1\n      tag_30\n      jump\t// in\n    tag_34:\n      tag_35\n      jump\t// in\n    tag_33:\n      mload(0x40)\n      tag_36\n      swap2\n      swap1\n      tag_15\n      jump\t// in\n    tag_36:\n      mload(0x40)\n      dup1\n      swap2\n      sub\n      swap1\n      return\n        /* \"libraries/operators.sol\":854:1056  function exp(uint a, uint b) public pure returns(uint)... */\n    tag_8:\n      tag_37\n      0x04\n      dup1\n      calldatasize\n      sub\n      dup2\n      add\n      swap1\n      tag_38\n      swap2\n      swap1\n      tag_12\n      jump\t// in\n    tag_38:\n      tag_39\n      jump\t// in\n    tag_37:\n      mload(0x40)\n      tag_40\n      swap2\n      swap1\n      tag_15\n      jump\t// in\n    tag_40:\n      mload(0x40)\n      dup1\n      swap2\n      sub\n      swap1\n      return\n        /* \"libraries/operators.sol\":103:223  function add(uint a, uint b) public pure returns(uint)... */\n    tag_13:\n        /* \"libraries/operators.sol\":152:156  uint */\n      0x00\n        /* \"libraries/operators.sol\":174:184  uint total */\n      dup1\n        /* \"libraries/operators.sol\":191:192  b */\n      dup3\n        /* \"libraries/operators.sol\":187:188  a */\n      dup5\n        /* \"libraries/operators.sol\":187:192  a + b */\n      tag_42\n      swap2\n      swap1\n      tag_43\n      jump\t// in\n    tag_42:\n        /* \"libraries/operators.sol\":174:192  uint total = a + b */\n      swap1\n      pop\n        /* \"libraries/operators.sol\":210:215  total */\n      dup1\n        /* \"libraries/operators.sol\":203:215  return total */\n      swap2\n      pop\n      pop\n        /* \"libraries/operators.sol\":103:223  function add(uint a, uint b) public pure returns(uint)... */\n      swap3\n      swap2\n      pop\n      pop\n      jump\t// out\n        /* \"libraries/operators.sol\":722:846  function div(uint a, uint b) public pure returns(uint)... */\n    tag_18:\n        /* \"libraries/operators.sol\":771:775  uint */\n      0x00\n        /* \"libraries/operators.sol\":793:801  uint rem */\n      dup1\n        /* \"libraries/operators.sol\":816:817  b */\n      dup3\n        /* \"libraries/operators.sol\":809:812  100 */\n      0x64\n        /* \"libraries/operators.sol\":805:806  a */\n      dup6\n        /* \"libraries/operators.sol\":805:812  a * 100 */\n      tag_45\n      swap2\n      swap1\n      tag_46\n      jump\t// in\n    tag_45:\n        /* \"libraries/operators.sol\":804:817  (a * 100) / b */\n      tag_47\n      swap2\n      swap1\n      tag_48\n      jump\t// in\n    tag_47:\n        /* \"libraries/operators.sol\":793:817  uint rem = (a * 100) / b */\n      swap1\n      pop\n        /* \"libraries/operators.sol\":835:838  rem */\n      dup1\n        /* \"libraries/operators.sol\":828:838  return rem */\n      swap2\n      pop\n      pop\n        /* \"libraries/operators.sol\":722:846  function div(uint a, uint b) public pure returns(uint)... */\n      swap3\n      swap2\n      pop\n      pop\n      jump\t// out\n        /* \"libraries/operators.sol\":231:448  function sub(uint a, uint b) public pure returns(uint)... */\n    tag_22:\n        /* \"libraries/operators.sol\":280:284  uint */\n      0x00\n        /* \"libraries/operators.sol\":315:316  b */\n      dup2\n        /* \"libraries/operators.sol\":310:311  a */\n      dup4\n        /* \"libraries/operators.sol\":310:316  a >= b */\n      lt\n      iszero\n        /* \"libraries/operators.sol\":302:390  require(a >= b, \"Library error: Second parameter should be less or equal to the first.\") */\n      tag_50\n      jumpi\n      mload(0x40)\n      0x08c379a000000000000000000000000000000000000000000000000000000000\n      dup2\n      mstore\n      0x04\n      add\n      tag_51\n      swap1\n      tag_52\n      jump\t// in\n    tag_51:\n      mload(0x40)\n      dup1\n      swap2\n      sub\n      swap1\n      revert\n    tag_50:\n        /* \"libraries/operators.sol\":401:410  uint left */\n      0x00\n        /* \"libraries/operators.sol\":417:418  b */\n      dup3\n        /* \"libraries/operators.sol\":413:414  a */\n      dup5\n        /* \"libraries/operators.sol\":413:418  a - b */\n      tag_53\n      swap2\n      swap1\n      tag_54\n      jump\t// in\n    tag_53:\n        /* \"libraries/operators.sol\":401:418  uint left = a - b */\n      swap1\n      pop\n        /* \"libraries/operators.sol\":436:440  left */\n      dup1\n        /* \"libraries/operators.sol\":429:440  return left */\n      swap2\n      pop\n      pop\n        /* \"libraries/operators.sol\":231:448  function sub(uint a, uint b) public pure returns(uint)... */\n      swap3\n      swap2\n      pop\n      pop\n      jump\t// out\n        /* \"libraries/operators.sol\":456:656  function mul(uint a, uint b) public pure returns(uint)... */\n    tag_26:\n        /* \"libraries/operators.sol\":505:509  uint */\n      0x00\n        /* \"libraries/operators.sol\":547:561  (2 ** 256) - 1 */\n      0xffffffffffffffffffffffffffffffffffffffffffffffffffffffffffffffff\n        /* \"libraries/operators.sol\":540:541  b */\n      dup3\n        /* \"libraries/operators.sol\":536:537  a */\n      dup5\n        /* \"libraries/operators.sol\":536:541  a * b */\n      tag_56\n      swap2\n      swap1\n      tag_46\n      jump\t// in\n    tag_56:\n        /* \"libraries/operators.sol\":535:562  (a * b) <= ((2 ** 256) - 1) */\n      gt\n      iszero\n        /* \"libraries/operators.sol\":527:598  require((a * b) <= ((2 ** 256) - 1), \"Library Error, Number overflow.\") */\n      tag_57\n      jumpi\n      mload(0x40)\n      0x08c379a000000000000000000000000000000000000000000000000000000000\n      dup2\n      mstore\n      0x04\n      add\n      tag_58\n      swap1\n      tag_59\n      jump\t// in\n    tag_58:\n      mload(0x40)\n      dup1\n      swap2\n      sub\n      swap1\n      revert\n    tag_57:\n        /* \"libraries/operators.sol\":609:618  uint prod */\n      0x00\n        /* \"libraries/operators.sol\":625:626  b */\n      dup3\n        /* \"libraries/operators.sol\":621:622  a */\n      dup5\n        /* \"libraries/operators.sol\":621:626  a * b */\n      tag_60\n      swap2\n      swap1\n      tag_46\n      jump\t// in\n    tag_60:\n        /* \"libraries/operators.sol\":609:626  uint prod = a * b */\n      swap1\n      pop\n        /* \"libraries/operators.sol\":644:648  prod */\n      dup1\n        /* \"libraries/operators.sol\":637:648  return prod */\n      swap2\n      pop\n      pop\n        /* \"libraries/operators.sol\":456:656  function mul(uint a, uint b) public pure returns(uint)... */\n      swap3\n      swap2\n      pop\n      pop\n      jump\t// out\n        /* \"libraries/operators.sol\":1070:1289  function add_arr(uint[] memory arr) public pure returns(uint)... */\n    tag_31:\n        /* \"libraries/operators.sol\":1126:1130  uint */\n      0x00\n        /* \"libraries/operators.sol\":1148:1158  uint total */\n      dup1\n        /* \"libraries/operators.sol\":1161:1162  0 */\n      0x00\n        /* \"libraries/operators.sol\":1148:1162  uint total = 0 */\n      swap1\n      pop\n        /* \"libraries/operators.sol\":1178:1184  uint i */\n      0x00\n        /* \"libraries/operators.sol\":1173:1257  for (uint i = 0; i < arr.length; i++)... */\n    tag_62:\n        /* \"libraries/operators.sol\":1194:1197  arr */\n      dup4\n        /* \"libraries/operators.sol\":1194:1204  arr.length */\n      mload\n        /* \"libraries/operators.sol\":1190:1191  i */\n      dup2\n        /* \"libraries/operators.sol\":1190:1204  i < arr.length */\n      lt\n        /* \"libraries/operators.sol\":1173:1257  for (uint i = 0; i < arr.length; i++)... */\n      iszero\n      tag_63\n      jumpi\n        /* \"libraries/operators.sol\":1244:1245  i */\n      dup1\n        /* \"libraries/operators.sol\":1235:1245  total += i */\n      dup3\n      tag_65\n      swap2\n      swap1\n      tag_43\n      jump\t// in\n    tag_65:\n      swap2\n      pop\n        /* \"libraries/operators.sol\":1206:1209  i++ */\n      dup1\n      dup1\n      tag_66\n      swap1\n      tag_67\n      jump\t// in\n    tag_66:\n      swap2\n      pop\n      pop\n        /* \"libraries/operators.sol\":1173:1257  for (uint i = 0; i < arr.length; i++)... */\n      jump(tag_62)\n    tag_63:\n      pop\n        /* \"libraries/operators.sol\":1276:1281  total */\n      dup1\n        /* \"libraries/operators.sol\":1269:1281  return total */\n      swap2\n      pop\n      pop\n        /* \"libraries/operators.sol\":1070:1289  function add_arr(uint[] memory arr) public pure returns(uint)... */\n      swap2\n      swap1\n      pop\n      jump\t// out\n        /* \"libraries/operators.sol\":1297:1513  function mul_arr(uint[] memory arr) public pure returns(uint)... */\n    tag_35:\n        /* \"libraries/operators.sol\":1353:1357  uint */\n      0x00\n        /* \"libraries/operators.sol\":1375:1384  uint prod */\n      dup1\n        /* \"libraries/operators.sol\":1387:1388  1 */\n      0x01\n        /* \"libraries/operators.sol\":1375:1388  uint prod = 1 */\n      swap1\n      pop\n        /* \"libraries/operators.sol\":1404:1410  uint i */\n      0x00\n        /* \"libraries/operators.sol\":1399:1482  for (uint i = 0; i < arr.length; i++)... */\n    tag_69:\n        /* \"libraries/operators.sol\":1420:1423  arr */\n      dup4\n        /* \"libraries/operators.sol\":1420:1430  arr.length */\n      mload\n        /* \"libraries/operators.sol\":1416:1417  i */\n      dup2\n        /* \"libraries/operators.sol\":1416:1430  i < arr.length */\n      lt\n        /* \"libraries/operators.sol\":1399:1482  for (uint i = 0; i < arr.length; i++)... */\n      iszero\n      tag_70\n      jumpi\n        /* \"libraries/operators.sol\":1469:1470  i */\n      dup1\n        /* \"libraries/operators.sol\":1461:1470  prod *= i */\n      dup3\n      tag_72\n      swap2\n      swap1\n      tag_46\n      jump\t// in\n    tag_72:\n      swap2\n      pop\n        /* \"libraries/operators.sol\":1432:1435  i++ */\n      dup1\n      dup1\n      tag_73\n      swap1\n      tag_67\n      jump\t// in\n    tag_73:\n      swap2\n      pop\n      pop\n        /* \"libraries/operators.sol\":1399:1482  for (uint i = 0; i < arr.length; i++)... */\n      jump(tag_69)\n    tag_70:\n      pop\n        /* \"libraries/operators.sol\":1501:1505  prod */\n      dup1\n        /* \"libraries/operators.sol\":1494:1505  return prod */\n      swap2\n      pop\n      pop\n        /* \"libraries/operators.sol\":1297:1513  function mul_arr(uint[] memory arr) public pure returns(uint)... */\n      swap2\n      swap1\n      pop\n      jump\t// out\n        /* \"libraries/operators.sol\":854:1056  function exp(uint a, uint b) public pure returns(uint)... */\n    tag_39:\n        /* \"libraries/operators.sol\":903:907  uint */\n      0x00\n        /* \"libraries/operators.sol\":946:960  (2 ** 256) - 1 */\n      0xffffffffffffffffffffffffffffffffffffffffffffffffffffffffffffffff\n        /* \"libraries/operators.sol\":939:940  b */\n      dup3\n        /* \"libraries/operators.sol\":934:935  a */\n      dup5\n        /* \"libraries/operators.sol\":934:940  a ** b */\n      tag_75\n      swap2\n      swap1\n      tag_76\n      jump\t// in\n    tag_75:\n        /* \"libraries/operators.sol\":933:961  (a ** b) <= ((2 ** 256) - 1) */\n      gt\n      iszero\n        /* \"libraries/operators.sol\":925:997  require((a ** b) <= ((2 ** 256) - 1), \"Library Error, Number overflow.\") */\n      tag_77\n      jumpi\n      mload(0x40)\n      0x08c379a000000000000000000000000000000000000000000000000000000000\n      dup2\n      mstore\n      0x04\n      add\n      tag_78\n      swap1\n      tag_59\n      jump\t// in\n    tag_78:\n      mload(0x40)\n      dup1\n      swap2\n      sub\n      swap1\n      revert\n    tag_77:\n        /* \"libraries/operators.sol\":1008:1017  uint prod */\n      0x00\n        /* \"libraries/operators.sol\":1025:1026  b */\n      dup3\n        /* \"libraries/operators.sol\":1020:1021  a */\n      dup5\n        /* \"libraries/operators.sol\":1020:1026  a ** b */\n      tag_79\n      swap2\n      swap1\n      tag_76\n      jump\t// in\n    tag_79:\n        /* \"libraries/operators.sol\":1008:1026  uint prod = a ** b */\n      swap1\n      pop\n        /* \"libraries/operators.sol\":1044:1048  prod */\n      dup1\n        /* \"libraries/operators.sol\":1037:1048  return prod */\n      swap2\n      pop\n      pop\n        /* \"libraries/operators.sol\":854:1056  function exp(uint a, uint b) public pure returns(uint)... */\n      swap3\n      swap2\n      pop\n      pop\n      jump\t// out\n        /* \"#utility.yul\":7:82   */\n    tag_80:\n        /* \"#utility.yul\":40:46   */\n      0x00\n        /* \"#utility.yul\":73:75   */\n      0x40\n        /* \"#utility.yul\":67:76   */\n      mload\n        /* \"#utility.yul\":57:76   */\n      swap1\n      pop\n        /* \"#utility.yul\":7:82   */\n      swap1\n      jump\t// out\n        /* \"#utility.yul\":88:205   */\n    tag_81:\n        /* \"#utility.yul\":197:198   */\n      0x00\n        /* \"#utility.yul\":194:195   */\n      dup1\n        /* \"#utility.yul\":187:199   */\n      revert\n        /* \"#utility.yul\":211:328   */\n    tag_82:\n        /* \"#utility.yul\":320:321   */\n      0x00\n        /* \"#utility.yul\":317:318   */\n      dup1\n        /* \"#utility.yul\":310:322   */\n      revert\n        /* \"#utility.yul\":334:411   */\n    tag_83:\n        /* \"#utility.yul\":371:378   */\n      0x00\n        /* \"#utility.yul\":400:405   */\n      dup2\n        /* \"#utility.yul\":389:405   */\n      swap1\n      pop\n        /* \"#utility.yul\":334:411   */\n      swap2\n      swap1\n      pop\n      jump\t// out\n        /* \"#utility.yul\":417:539   */\n    tag_84:\n        /* \"#utility.yul\":490:514   */\n      tag_112\n        /* \"#utility.yul\":508:513   */\n      dup2\n        /* \"#utility.yul\":490:514   */\n      tag_83\n      jump\t// in\n    tag_112:\n        /* \"#utility.yul\":483:488   */\n      dup2\n        /* \"#utility.yul\":480:515   */\n      eq\n        /* \"#utility.yul\":470:533   */\n      tag_113\n      jumpi\n        /* \"#utility.yul\":529:530   */\n      0x00\n        /* \"#utility.yul\":526:527   */\n      dup1\n        /* \"#utility.yul\":519:531   */\n      revert\n        /* \"#utility.yul\":470:533   */\n    tag_113:\n        /* \"#utility.yul\":417:539   */\n      pop\n      jump\t// out\n        /* \"#utility.yul\":545:684   */\n    tag_85:\n        /* \"#utility.yul\":591:596   */\n      0x00\n        /* \"#utility.yul\":629:635   */\n      dup2\n        /* \"#utility.yul\":616:636   */\n      calldataload\n        /* \"#utility.yul\":607:636   */\n      swap1\n      pop\n        /* \"#utility.yul\":645:678   */\n      tag_115\n        /* \"#utility.yul\":672:677   */\n      dup2\n        /* \"#utility.yul\":645:678   */\n      tag_84\n      jump\t// in\n    tag_115:\n        /* \"#utility.yul\":545:684   */\n      swap3\n      swap2\n      pop\n      pop\n      jump\t// out\n        /* \"#utility.yul\":690:1164   */\n    tag_12:\n        /* \"#utility.yul\":758:764   */\n      0x00\n        /* \"#utility.yul\":766:772   */\n      dup1\n        /* \"#utility.yul\":815:817   */\n      0x40\n        /* \"#utility.yul\":803:812   */\n      dup4\n        /* \"#utility.yul\":794:801   */\n      dup6\n        /* \"#utility.yul\":790:813   */\n      sub\n        /* \"#utility.yul\":786:818   */\n      slt\n        /* \"#utility.yul\":783:902   */\n      iszero\n      tag_117\n      jumpi\n        /* \"#utility.yul\":821:900   */\n      tag_118\n      tag_81\n      jump\t// in\n    tag_118:\n        /* \"#utility.yul\":783:902   */\n    tag_117:\n        /* \"#utility.yul\":941:942   */\n      0x00\n        /* \"#utility.yul\":966:1019   */\n      tag_119\n        /* \"#utility.yul\":1011:1018   */\n      dup6\n        /* \"#utility.yul\":1002:1008   */\n      dup3\n        /* \"#utility.yul\":991:1000   */\n      dup7\n        /* \"#utility.yul\":987:1009   */\n      add\n        /* \"#utility.yul\":966:1019   */\n      tag_85\n      jump\t// in\n    tag_119:\n        /* \"#utility.yul\":956:1019   */\n      swap3\n      pop\n        /* \"#utility.yul\":912:1029   */\n      pop\n        /* \"#utility.yul\":1068:1070   */\n      0x20\n        /* \"#utility.yul\":1094:1147   */\n      tag_120\n        /* \"#utility.yul\":1139:1146   */\n      dup6\n        /* \"#utility.yul\":1130:1136   */\n      dup3\n        /* \"#utility.yul\":1119:1128   */\n      dup7\n        /* \"#utility.yul\":1115:1137   */\n      add\n        /* \"#utility.yul\":1094:1147   */\n      tag_85\n      jump\t// in\n    tag_120:\n        /* \"#utility.yul\":1084:1147   */\n      swap2\n      pop\n        /* \"#utility.yul\":1039:1157   */\n      pop\n        /* \"#utility.yul\":690:1164   */\n      swap3\n      pop\n      swap3\n      swap1\n      pop\n      jump\t// out\n        /* \"#utility.yul\":1170:1296   */\n    tag_86:\n        /* \"#utility.yul\":1265:1289   */\n      tag_122\n        /* \"#utility.yul\":1283:1288   */\n      dup2\n        /* \"#utility.yul\":1265:1289   */\n      tag_83\n      jump\t// in\n    tag_122:\n        /* \"#utility.yul\":1260:1263   */\n      dup3\n        /* \"#utility.yul\":1253:1290   */\n      mstore\n        /* \"#utility.yul\":1170:1296   */\n      pop\n      pop\n      jump\t// out\n        /* \"#utility.yul\":1302:1540   */\n    tag_15:\n        /* \"#utility.yul\":1403:1407   */\n      0x00\n        /* \"#utility.yul\":1441:1443   */\n      0x20\n        /* \"#utility.yul\":1430:1439   */\n      dup3\n        /* \"#utility.yul\":1426:1444   */\n      add\n        /* \"#utility.yul\":1418:1444   */\n      swap1\n      pop\n        /* \"#utility.yul\":1454:1533   */\n      tag_124\n        /* \"#utility.yul\":1530:1531   */\n      0x00\n        /* \"#utility.yul\":1519:1528   */\n      dup4\n        /* \"#utility.yul\":1515:1532   */\n      add\n        /* \"#utility.yul\":1506:1512   */\n      dup5\n        /* \"#utility.yul\":1454:1533   */\n      tag_86\n      jump\t// in\n    tag_124:\n        /* \"#utility.yul\":1302:1540   */\n      swap3\n      swap2\n      pop\n      pop\n      jump\t// out\n        /* \"#utility.yul\":1546:1663   */\n    tag_87:\n        /* \"#utility.yul\":1655:1656   */\n      0x00\n        /* \"#utility.yul\":1652:1653   */\n      dup1\n        /* \"#utility.yul\":1645:1657   */\n      revert\n        /* \"#utility.yul\":1669:1771   */\n    tag_88:\n        /* \"#utility.yul\":1710:1716   */\n      0x00\n        /* \"#utility.yul\":1761:1763   */\n      0x1f\n        /* \"#utility.yul\":1757:1764   */\n      not\n        /* \"#utility.yul\":1752:1754   */\n      0x1f\n        /* \"#utility.yul\":1745:1750   */\n      dup4\n        /* \"#utility.yul\":1741:1755   */\n      add\n        /* \"#utility.yul\":1737:1765   */\n      and\n        /* \"#utility.yul\":1727:1765   */\n      swap1\n      pop\n        /* \"#utility.yul\":1669:1771   */\n      swap2\n      swap1\n      pop\n      jump\t// out\n        /* \"#utility.yul\":1777:1957   */\n    tag_89:\n        /* \"#utility.yul\":1825:1902   */\n      0x4e487b7100000000000000000000000000000000000000000000000000000000\n        /* \"#utility.yul\":1822:1823   */\n      0x00\n        /* \"#utility.yul\":1815:1903   */\n      mstore\n        /* \"#utility.yul\":1922:1926   */\n      0x41\n        /* \"#utility.yul\":1919:1920   */\n      0x04\n        /* \"#utility.yul\":1912:1927   */\n      mstore\n        /* \"#utility.yul\":1946:1950   */\n      0x24\n        /* \"#utility.yul\":1943:1944   */\n      0x00\n        /* \"#utility.yul\":1936:1951   */\n      revert\n        /* \"#utility.yul\":1963:2244   */\n    tag_90:\n        /* \"#utility.yul\":2046:2073   */\n      tag_129\n        /* \"#utility.yul\":2068:2072   */\n      dup3\n        /* \"#utility.yul\":2046:2073   */\n      tag_88\n      jump\t// in\n    tag_129:\n        /* \"#utility.yul\":2038:2044   */\n      dup2\n        /* \"#utility.yul\":2034:2074   */\n      add\n        /* \"#utility.yul\":2176:2182   */\n      dup2\n        /* \"#utility.yul\":2164:2174   */\n      dup2\n        /* \"#utility.yul\":2161:2183   */\n      lt\n        /* \"#utility.yul\":2140:2158   */\n      0xffffffffffffffff\n        /* \"#utility.yul\":2128:2138   */\n      dup3\n        /* \"#utility.yul\":2125:2159   */\n      gt\n        /* \"#utility.yul\":2122:2184   */\n      or\n        /* \"#utility.yul\":2119:2207   */\n      iszero\n      tag_130\n      jumpi\n        /* \"#utility.yul\":2187:2205   */\n      tag_131\n      tag_89\n      jump\t// in\n    tag_131:\n        /* \"#utility.yul\":2119:2207   */\n    tag_130:\n        /* \"#utility.yul\":2227:2237   */\n      dup1\n        /* \"#utility.yul\":2223:2225   */\n      0x40\n        /* \"#utility.yul\":2216:2238   */\n      mstore\n        /* \"#utility.yul\":2006:2244   */\n      pop\n        /* \"#utility.yul\":1963:2244   */\n      pop\n      pop\n      jump\t// out\n        /* \"#utility.yul\":2250:2379   */\n    tag_91:\n        /* \"#utility.yul\":2284:2290   */\n      0x00\n        /* \"#utility.yul\":2311:2331   */\n      tag_133\n      tag_80\n      jump\t// in\n    tag_133:\n        /* \"#utility.yul\":2301:2331   */\n      swap1\n      pop\n        /* \"#utility.yul\":2340:2373   */\n      tag_134\n        /* \"#utility.yul\":2368:2372   */\n      dup3\n        /* \"#utility.yul\":2360:2366   */\n      dup3\n        /* \"#utility.yul\":2340:2373   */\n      tag_90\n      jump\t// in\n    tag_134:\n        /* \"#utility.yul\":2250:2379   */\n      swap2\n      swap1\n      pop\n      jump\t// out\n        /* \"#utility.yul\":2385:2696   */\n    tag_92:\n        /* \"#utility.yul\":2462:2466   */\n      0x00\n        /* \"#utility.yul\":2552:2570   */\n      0xffffffffffffffff\n        /* \"#utility.yul\":2544:2550   */\n      dup3\n        /* \"#utility.yul\":2541:2571   */\n      gt\n        /* \"#utility.yul\":2538:2594   */\n      iszero\n      tag_136\n      jumpi\n        /* \"#utility.yul\":2574:2592   */\n      tag_137\n      tag_89\n      jump\t// in\n    tag_137:\n        /* \"#utility.yul\":2538:2594   */\n    tag_136:\n        /* \"#utility.yul\":2624:2628   */\n      0x20\n        /* \"#utility.yul\":2616:2622   */\n      dup3\n        /* \"#utility.yul\":2612:2629   */\n      mul\n        /* \"#utility.yul\":2604:2629   */\n      swap1\n      pop\n        /* \"#utility.yul\":2684:2688   */\n      0x20\n        /* \"#utility.yul\":2678:2682   */\n      dup2\n        /* \"#utility.yul\":2674:2689   */\n      add\n        /* \"#utility.yul\":2666:2689   */\n      swap1\n      pop\n        /* \"#utility.yul\":2385:2696   */\n      swap2\n      swap1\n      pop\n      jump\t// out\n        /* \"#utility.yul\":2702:2819   */\n    tag_93:\n        /* \"#utility.yul\":2811:2812   */\n      0x00\n        /* \"#utility.yul\":2808:2809   */\n      dup1\n        /* \"#utility.yul\":2801:2813   */\n      revert\n        /* \"#utility.yul\":2842:3552   */\n    tag_94:\n        /* \"#utility.yul\":2938:2943   */\n      0x00\n        /* \"#utility.yul\":2963:3044   */\n      tag_140\n        /* \"#utility.yul\":2979:3043   */\n      tag_141\n        /* \"#utility.yul\":3036:3042   */\n      dup5\n        /* \"#utility.yul\":2979:3043   */\n      tag_92\n      jump\t// in\n    tag_141:\n        /* \"#utility.yul\":2963:3044   */\n      tag_91\n      jump\t// in\n    tag_140:\n        /* \"#utility.yul\":2954:3044   */\n      swap1\n      pop\n        /* \"#utility.yul\":3064:3069   */\n      dup1\n        /* \"#utility.yul\":3093:3099   */\n      dup4\n        /* \"#utility.yul\":3086:3091   */\n      dup3\n        /* \"#utility.yul\":3079:3100   */\n      mstore\n        /* \"#utility.yul\":3127:3131   */\n      0x20\n        /* \"#utility.yul\":3120:3125   */\n      dup3\n        /* \"#utility.yul\":3116:3132   */\n      add\n        /* \"#utility.yul\":3109:3132   */\n      swap1\n      pop\n        /* \"#utility.yul\":3180:3184   */\n      0x20\n        /* \"#utility.yul\":3172:3178   */\n      dup5\n        /* \"#utility.yul\":3168:3185   */\n      mul\n        /* \"#utility.yul\":3160:3166   */\n      dup4\n        /* \"#utility.yul\":3156:3186   */\n      add\n        /* \"#utility.yul\":3209:3212   */\n      dup6\n        /* \"#utility.yul\":3201:3207   */\n      dup2\n        /* \"#utility.yul\":3198:3213   */\n      gt\n        /* \"#utility.yul\":3195:3317   */\n      iszero\n      tag_142\n      jumpi\n        /* \"#utility.yul\":3228:3307   */\n      tag_143\n      tag_93\n      jump\t// in\n    tag_143:\n        /* \"#utility.yul\":3195:3317   */\n    tag_142:\n        /* \"#utility.yul\":3343:3349   */\n      dup4\n        /* \"#utility.yul\":3326:3546   */\n    tag_144:\n        /* \"#utility.yul\":3360:3366   */\n      dup2\n        /* \"#utility.yul\":3355:3358   */\n      dup2\n        /* \"#utility.yul\":3352:3367   */\n      lt\n        /* \"#utility.yul\":3326:3546   */\n      iszero\n      tag_146\n      jumpi\n        /* \"#utility.yul\":3435:3438   */\n      dup1\n        /* \"#utility.yul\":3464:3501   */\n      tag_147\n        /* \"#utility.yul\":3497:3500   */\n      dup9\n        /* \"#utility.yul\":3485:3495   */\n      dup3\n        /* \"#utility.yul\":3464:3501   */\n      tag_85\n      jump\t// in\n    tag_147:\n        /* \"#utility.yul\":3459:3462   */\n      dup5\n        /* \"#utility.yul\":3452:3502   */\n      mstore\n        /* \"#utility.yul\":3531:3535   */\n      0x20\n        /* \"#utility.yul\":3526:3529   */\n      dup5\n        /* \"#utility.yul\":3522:3536   */\n      add\n        /* \"#utility.yul\":3515:3536   */\n      swap4\n      pop\n        /* \"#utility.yul\":3402:3546   */\n      pop\n        /* \"#utility.yul\":3386:3390   */\n      0x20\n        /* \"#utility.yul\":3381:3384   */\n      dup2\n        /* \"#utility.yul\":3377:3391   */\n      add\n        /* \"#utility.yul\":3370:3391   */\n      swap1\n      pop\n        /* \"#utility.yul\":3326:3546   */\n      jump(tag_144)\n    tag_146:\n        /* \"#utility.yul\":3330:3351   */\n      pop\n        /* \"#utility.yul\":2944:3552   */\n      pop\n      pop\n        /* \"#utility.yul\":2842:3552   */\n      swap4\n      swap3\n      pop\n      pop\n      pop\n      jump\t// out\n        /* \"#utility.yul\":3575:3945   */\n    tag_95:\n        /* \"#utility.yul\":3646:3651   */\n      0x00\n        /* \"#utility.yul\":3695:3698   */\n      dup3\n        /* \"#utility.yul\":3688:3692   */\n      0x1f\n        /* \"#utility.yul\":3680:3686   */\n      dup4\n        /* \"#utility.yul\":3676:3693   */\n      add\n        /* \"#utility.yul\":3672:3699   */\n      slt\n        /* \"#utility.yul\":3662:3784   */\n      tag_149\n      jumpi\n        /* \"#utility.yul\":3703:3782   */\n      tag_150\n      tag_87\n      jump\t// in\n    tag_150:\n        /* \"#utility.yul\":3662:3784   */\n    tag_149:\n        /* \"#utility.yul\":3820:3826   */\n      dup2\n        /* \"#utility.yul\":3807:3827   */\n      calldataload\n        /* \"#utility.yul\":3845:3939   */\n      tag_151\n        /* \"#utility.yul\":3935:3938   */\n      dup5\n        /* \"#utility.yul\":3927:3933   */\n      dup3\n        /* \"#utility.yul\":3920:3924   */\n      0x20\n        /* \"#utility.yul\":3912:3918   */\n      dup7\n        /* \"#utility.yul\":3908:3925   */\n      add\n        /* \"#utility.yul\":3845:3939   */\n      tag_94\n      jump\t// in\n    tag_151:\n        /* \"#utility.yul\":3836:3939   */\n      swap2\n      pop\n        /* \"#utility.yul\":3652:3945   */\n      pop\n        /* \"#utility.yul\":3575:3945   */\n      swap3\n      swap2\n      pop\n      pop\n      jump\t// out\n        /* \"#utility.yul\":3951:4490   */\n    tag_30:\n        /* \"#utility.yul\":4035:4041   */\n      0x00\n        /* \"#utility.yul\":4084:4086   */\n      0x20\n        /* \"#utility.yul\":4072:4081   */\n      dup3\n        /* \"#utility.yul\":4063:4070   */\n      dup5\n        /* \"#utility.yul\":4059:4082   */\n      sub\n        /* \"#utility.yul\":4055:4087   */\n      slt\n        /* \"#utility.yul\":4052:4171   */\n      iszero\n      tag_153\n      jumpi\n        /* \"#utility.yul\":4090:4169   */\n      tag_154\n      tag_81\n      jump\t// in\n    tag_154:\n        /* \"#utility.yul\":4052:4171   */\n    tag_153:\n        /* \"#utility.yul\":4238:4239   */\n      0x00\n        /* \"#utility.yul\":4227:4236   */\n      dup3\n        /* \"#utility.yul\":4223:4240   */\n      add\n        /* \"#utility.yul\":4210:4241   */\n      calldataload\n        /* \"#utility.yul\":4268:4286   */\n      0xffffffffffffffff\n        /* \"#utility.yul\":4260:4266   */\n      dup2\n        /* \"#utility.yul\":4257:4287   */\n      gt\n        /* \"#utility.yul\":4254:4371   */\n      iszero\n      tag_155\n      jumpi\n        /* \"#utility.yul\":4290:4369   */\n      tag_156\n      tag_82\n      jump\t// in\n    tag_156:\n        /* \"#utility.yul\":4254:4371   */\n    tag_155:\n        /* \"#utility.yul\":4395:4473   */\n      tag_157\n        /* \"#utility.yul\":4465:4472   */\n      dup5\n        /* \"#utility.yul\":4456:4462   */\n      dup3\n        /* \"#utility.yul\":4445:4454   */\n      dup6\n        /* \"#utility.yul\":4441:4463   */\n      add\n        /* \"#utility.yul\":4395:4473   */\n      tag_95\n      jump\t// in\n    tag_157:\n        /* \"#utility.yul\":4385:4473   */\n      swap2\n      pop\n        /* \"#utility.yul\":4181:4483   */\n      pop\n        /* \"#utility.yul\":3951:4490   */\n      swap3\n      swap2\n      pop\n      pop\n      jump\t// out\n        /* \"#utility.yul\":4496:4676   */\n    tag_96:\n        /* \"#utility.yul\":4544:4621   */\n      0x4e487b7100000000000000000000000000000000000000000000000000000000\n        /* \"#utility.yul\":4541:4542   */\n      0x00\n        /* \"#utility.yul\":4534:4622   */\n      mstore\n        /* \"#utility.yul\":4641:4645   */\n      0x11\n        /* \"#utility.yul\":4638:4639   */\n      0x04\n        /* \"#utility.yul\":4631:4646   */\n      mstore\n        /* \"#utility.yul\":4665:4669   */\n      0x24\n        /* \"#utility.yul\":4662:4663   */\n      0x00\n        /* \"#utility.yul\":4655:4670   */\n      revert\n        /* \"#utility.yul\":4682:4987   */\n    tag_43:\n        /* \"#utility.yul\":4722:4725   */\n      0x00\n        /* \"#utility.yul\":4741:4761   */\n      tag_160\n        /* \"#utility.yul\":4759:4760   */\n      dup3\n        /* \"#utility.yul\":4741:4761   */\n      tag_83\n      jump\t// in\n    tag_160:\n        /* \"#utility.yul\":4736:4761   */\n      swap2\n      pop\n        /* \"#utility.yul\":4775:4795   */\n      tag_161\n        /* \"#utility.yul\":4793:4794   */\n      dup4\n        /* \"#utility.yul\":4775:4795   */\n      tag_83\n      jump\t// in\n    tag_161:\n        /* \"#utility.yul\":4770:4795   */\n      swap3\n      pop\n        /* \"#utility.yul\":4929:4930   */\n      dup3\n        /* \"#utility.yul\":4861:4927   */\n      0xffffffffffffffffffffffffffffffffffffffffffffffffffffffffffffffff\n        /* \"#utility.yul\":4857:4931   */\n      sub\n        /* \"#utility.yul\":4854:4855   */\n      dup3\n        /* \"#utility.yul\":4851:4932   */\n      gt\n        /* \"#utility.yul\":4848:4955   */\n      iszero\n      tag_162\n      jumpi\n        /* \"#utility.yul\":4935:4953   */\n      tag_163\n      tag_96\n      jump\t// in\n    tag_163:\n        /* \"#utility.yul\":4848:4955   */\n    tag_162:\n        /* \"#utility.yul\":4979:4980   */\n      dup3\n        /* \"#utility.yul\":4976:4977   */\n      dup3\n        /* \"#utility.yul\":4972:4981   */\n      add\n        /* \"#utility.yul\":4965:4981   */\n      swap1\n      pop\n        /* \"#utility.yul\":4682:4987   */\n      swap3\n      swap2\n      pop\n      pop\n      jump\t// out\n        /* \"#utility.yul\":4993:5341   */\n    tag_46:\n        /* \"#utility.yul\":5033:5040   */\n      0x00\n        /* \"#utility.yul\":5056:5076   */\n      tag_165\n        /* \"#utility.yul\":5074:5075   */\n      dup3\n        /* \"#utility.yul\":5056:5076   */\n      tag_83\n      jump\t// in\n    tag_165:\n        /* \"#utility.yul\":5051:5076   */\n      swap2\n      pop\n        /* \"#utility.yul\":5090:5110   */\n      tag_166\n        /* \"#utility.yul\":5108:5109   */\n      dup4\n        /* \"#utility.yul\":5090:5110   */\n      tag_83\n      jump\t// in\n    tag_166:\n        /* \"#utility.yul\":5085:5110   */\n      swap3\n      pop\n        /* \"#utility.yul\":5278:5279   */\n      dup2\n        /* \"#utility.yul\":5210:5276   */\n      0xffffffffffffffffffffffffffffffffffffffffffffffffffffffffffffffff\n        /* \"#utility.yul\":5206:5280   */\n      div\n        /* \"#utility.yul\":5203:5204   */\n      dup4\n        /* \"#utility.yul\":5200:5281   */\n      gt\n        /* \"#utility.yul\":5195:5196   */\n      dup3\n        /* \"#utility.yul\":5188:5197   */\n      iszero\n        /* \"#utility.yul\":5181:5198   */\n      iszero\n        /* \"#utility.yul\":5177:5282   */\n      and\n        /* \"#utility.yul\":5174:5305   */\n      iszero\n      tag_167\n      jumpi\n        /* \"#utility.yul\":5285:5303   */\n      tag_168\n      tag_96\n      jump\t// in\n    tag_168:\n        /* \"#utility.yul\":5174:5305   */\n    tag_167:\n        /* \"#utility.yul\":5333:5334   */\n      dup3\n        /* \"#utility.yul\":5330:5331   */\n      dup3\n        /* \"#utility.yul\":5326:5335   */\n      mul\n        /* \"#utility.yul\":5315:5335   */\n      swap1\n      pop\n        /* \"#utility.yul\":4993:5341   */\n      swap3\n      swap2\n      pop\n      pop\n      jump\t// out\n        /* \"#utility.yul\":5347:5527   */\n    tag_97:\n        /* \"#utility.yul\":5395:5472   */\n      0x4e487b7100000000000000000000000000000000000000000000000000000000\n        /* \"#utility.yul\":5392:5393   */\n      0x00\n        /* \"#utility.yul\":5385:5473   */\n      mstore\n        /* \"#utility.yul\":5492:5496   */\n      0x12\n        /* \"#utility.yul\":5489:5490   */\n      0x04\n        /* \"#utility.yul\":5482:5497   */\n      mstore\n        /* \"#utility.yul\":5516:5520   */\n      0x24\n        /* \"#utility.yul\":5513:5514   */\n      0x00\n        /* \"#utility.yul\":5506:5521   */\n      revert\n        /* \"#utility.yul\":5533:5718   */\n    tag_48:\n        /* \"#utility.yul\":5573:5574   */\n      0x00\n        /* \"#utility.yul\":5590:5610   */\n      tag_171\n        /* \"#utility.yul\":5608:5609   */\n      dup3\n        /* \"#utility.yul\":5590:5610   */\n      tag_83\n      jump\t// in\n    tag_171:\n        /* \"#utility.yul\":5585:5610   */\n      swap2\n      pop\n        /* \"#utility.yul\":5624:5644   */\n      tag_172\n        /* \"#utility.yul\":5642:5643   */\n      dup4\n        /* \"#utility.yul\":5624:5644   */\n      tag_83\n      jump\t// in\n    tag_172:\n        /* \"#utility.yul\":5619:5644   */\n      swap3\n      pop\n        /* \"#utility.yul\":5663:5664   */\n      dup3\n        /* \"#utility.yul\":5653:5688   */\n      tag_173\n      jumpi\n        /* \"#utility.yul\":5668:5686   */\n      tag_174\n      tag_97\n      jump\t// in\n    tag_174:\n        /* \"#utility.yul\":5653:5688   */\n    tag_173:\n        /* \"#utility.yul\":5710:5711   */\n      dup3\n        /* \"#utility.yul\":5707:5708   */\n      dup3\n        /* \"#utility.yul\":5703:5712   */\n      div\n        /* \"#utility.yul\":5698:5712   */\n      swap1\n      pop\n        /* \"#utility.yul\":5533:5718   */\n      swap3\n      swap2\n      pop\n      pop\n      jump\t// out\n        /* \"#utility.yul\":5724:5893   */\n    tag_98:\n        /* \"#utility.yul\":5808:5819   */\n      0x00\n        /* \"#utility.yul\":5842:5848   */\n      dup3\n        /* \"#utility.yul\":5837:5840   */\n      dup3\n        /* \"#utility.yul\":5830:5849   */\n      mstore\n        /* \"#utility.yul\":5882:5886   */\n      0x20\n        /* \"#utility.yul\":5877:5880   */\n      dup3\n        /* \"#utility.yul\":5873:5887   */\n      add\n        /* \"#utility.yul\":5858:5887   */\n      swap1\n      pop\n        /* \"#utility.yul\":5724:5893   */\n      swap3\n      swap2\n      pop\n      pop\n      jump\t// out\n        /* \"#utility.yul\":5899:6192   */\n    tag_99:\n        /* \"#utility.yul\":6039:6073   */\n      0x4c696272617279206572726f723a205365636f6e6420706172616d6574657220\n        /* \"#utility.yul\":6035:6036   */\n      0x00\n        /* \"#utility.yul\":6027:6033   */\n      dup3\n        /* \"#utility.yul\":6023:6037   */\n      add\n        /* \"#utility.yul\":6016:6074   */\n      mstore\n        /* \"#utility.yul\":6108:6142   */\n      0x73686f756c64206265206c657373206f7220657175616c20746f207468652066\n        /* \"#utility.yul\":6103:6105   */\n      0x20\n        /* \"#utility.yul\":6095:6101   */\n      dup3\n        /* \"#utility.yul\":6091:6106   */\n      add\n        /* \"#utility.yul\":6084:6143   */\n      mstore\n        /* \"#utility.yul\":6177:6184   */\n      0x697273742e000000000000000000000000000000000000000000000000000000\n        /* \"#utility.yul\":6172:6174   */\n      0x40\n        /* \"#utility.yul\":6164:6170   */\n      dup3\n        /* \"#utility.yul\":6160:6175   */\n      add\n        /* \"#utility.yul\":6153:6185   */\n      mstore\n        /* \"#utility.yul\":5899:6192   */\n      pop\n      jump\t// out\n        /* \"#utility.yul\":6198:6564   */\n    tag_100:\n        /* \"#utility.yul\":6340:6343   */\n      0x00\n        /* \"#utility.yul\":6361:6428   */\n      tag_178\n        /* \"#utility.yul\":6425:6427   */\n      0x45\n        /* \"#utility.yul\":6420:6423   */\n      dup4\n        /* \"#utility.yul\":6361:6428   */\n      tag_98\n      jump\t// in\n    tag_178:\n        /* \"#utility.yul\":6354:6428   */\n      swap2\n      pop\n        /* \"#utility.yul\":6437:6530   */\n      tag_179\n        /* \"#utility.yul\":6526:6529   */\n      dup3\n        /* \"#utility.yul\":6437:6530   */\n      tag_99\n      jump\t// in\n    tag_179:\n        /* \"#utility.yul\":6555:6557   */\n      0x60\n        /* \"#utility.yul\":6550:6553   */\n      dup3\n        /* \"#utility.yul\":6546:6558   */\n      add\n        /* \"#utility.yul\":6539:6558   */\n      swap1\n      pop\n        /* \"#utility.yul\":6198:6564   */\n      swap2\n      swap1\n      pop\n      jump\t// out\n        /* \"#utility.yul\":6570:6989   */\n    tag_52:\n        /* \"#utility.yul\":6736:6740   */\n      0x00\n        /* \"#utility.yul\":6774:6776   */\n      0x20\n        /* \"#utility.yul\":6763:6772   */\n      dup3\n        /* \"#utility.yul\":6759:6777   */\n      add\n        /* \"#utility.yul\":6751:6777   */\n      swap1\n      pop\n        /* \"#utility.yul\":6823:6832   */\n      dup2\n        /* \"#utility.yul\":6817:6821   */\n      dup2\n        /* \"#utility.yul\":6813:6833   */\n      sub\n        /* \"#utility.yul\":6809:6810   */\n      0x00\n        /* \"#utility.yul\":6798:6807   */\n      dup4\n        /* \"#utility.yul\":6794:6811   */\n      add\n        /* \"#utility.yul\":6787:6834   */\n      mstore\n        /* \"#utility.yul\":6851:6982   */\n      tag_181\n        /* \"#utility.yul\":6977:6981   */\n      dup2\n        /* \"#utility.yul\":6851:6982   */\n      tag_100\n      jump\t// in\n    tag_181:\n        /* \"#utility.yul\":6843:6982   */\n      swap1\n      pop\n        /* \"#utility.yul\":6570:6989   */\n      swap2\n      swap1\n      pop\n      jump\t// out\n        /* \"#utility.yul\":6995:7186   */\n    tag_54:\n        /* \"#utility.yul\":7035:7039   */\n      0x00\n        /* \"#utility.yul\":7055:7075   */\n      tag_183\n        /* \"#utility.yul\":7073:7074   */\n      dup3\n        /* \"#utility.yul\":7055:7075   */\n      tag_83\n      jump\t// in\n    tag_183:\n        /* \"#utility.yul\":7050:7075   */\n      swap2\n      pop\n        /* \"#utility.yul\":7089:7109   */\n      tag_184\n        /* \"#utility.yul\":7107:7108   */\n      dup4\n        /* \"#utility.yul\":7089:7109   */\n      tag_83\n      jump\t// in\n    tag_184:\n        /* \"#utility.yul\":7084:7109   */\n      swap3\n      pop\n        /* \"#utility.yul\":7128:7129   */\n      dup3\n        /* \"#utility.yul\":7125:7126   */\n      dup3\n        /* \"#utility.yul\":7122:7130   */\n      lt\n        /* \"#utility.yul\":7119:7153   */\n      iszero\n      tag_185\n      jumpi\n        /* \"#utility.yul\":7133:7151   */\n      tag_186\n      tag_96\n      jump\t// in\n    tag_186:\n        /* \"#utility.yul\":7119:7153   */\n    tag_185:\n        /* \"#utility.yul\":7178:7179   */\n      dup3\n        /* \"#utility.yul\":7175:7176   */\n      dup3\n        /* \"#utility.yul\":7171:7180   */\n      sub\n        /* \"#utility.yul\":7163:7180   */\n      swap1\n      pop\n        /* \"#utility.yul\":6995:7186   */\n      swap3\n      swap2\n      pop\n      pop\n      jump\t// out\n        /* \"#utility.yul\":7192:7373   */\n    tag_101:\n        /* \"#utility.yul\":7332:7365   */\n      0x4c696272617279204572726f722c204e756d626572206f766572666c6f772e00\n        /* \"#utility.yul\":7328:7329   */\n      0x00\n        /* \"#utility.yul\":7320:7326   */\n      dup3\n        /* \"#utility.yul\":7316:7330   */\n      add\n        /* \"#utility.yul\":7309:7366   */\n      mstore\n        /* \"#utility.yul\":7192:7373   */\n      pop\n      jump\t// out\n        /* \"#utility.yul\":7379:7745   */\n    tag_102:\n        /* \"#utility.yul\":7521:7524   */\n      0x00\n        /* \"#utility.yul\":7542:7609   */\n      tag_189\n        /* \"#utility.yul\":7606:7608   */\n      0x1f\n        /* \"#utility.yul\":7601:7604   */\n      dup4\n        /* \"#utility.yul\":7542:7609   */\n      tag_98\n      jump\t// in\n    tag_189:\n        /* \"#utility.yul\":7535:7609   */\n      swap2\n      pop\n        /* \"#utility.yul\":7618:7711   */\n      tag_190\n        /* \"#utility.yul\":7707:7710   */\n      dup3\n        /* \"#utility.yul\":7618:7711   */\n      tag_101\n      jump\t// in\n    tag_190:\n        /* \"#utility.yul\":7736:7738   */\n      0x20\n        /* \"#utility.yul\":7731:7734   */\n      dup3\n        /* \"#utility.yul\":7727:7739   */\n      add\n        /* \"#utility.yul\":7720:7739   */\n      swap1\n      pop\n        /* \"#utility.yul\":7379:7745   */\n      swap2\n      swap1\n      pop\n      jump\t// out\n        /* \"#utility.yul\":7751:8170   */\n    tag_59:\n        /* \"#utility.yul\":7917:7921   */\n      0x00\n        /* \"#utility.yul\":7955:7957   */\n      0x20\n        /* \"#utility.yul\":7944:7953   */\n      dup3\n        /* \"#utility.yul\":7940:7958   */\n      add\n        /* \"#utility.yul\":7932:7958   */\n      swap1\n      pop\n        /* \"#utility.yul\":8004:8013   */\n      dup2\n        /* \"#utility.yul\":7998:8002   */\n      dup2\n        /* \"#utility.yul\":7994:8014   */\n      sub\n        /* \"#utility.yul\":7990:7991   */\n      0x00\n        /* \"#utility.yul\":7979:7988   */\n      dup4\n        /* \"#utility.yul\":7975:7992   */\n      add\n        /* \"#utility.yul\":7968:8015   */\n      mstore\n        /* \"#utility.yul\":8032:8163   */\n      tag_192\n        /* \"#utility.yul\":8158:8162   */\n      dup2\n        /* \"#utility.yul\":8032:8163   */\n      tag_102\n      jump\t// in\n    tag_192:\n        /* \"#utility.yul\":8024:8163   */\n      swap1\n      pop\n        /* \"#utility.yul\":7751:8170   */\n      swap2\n      swap1\n      pop\n      jump\t// out\n        /* \"#utility.yul\":8176:8409   */\n    tag_67:\n        /* \"#utility.yul\":8215:8218   */\n      0x00\n        /* \"#utility.yul\":8238:8262   */\n      tag_194\n        /* \"#utility.yul\":8256:8261   */\n      dup3\n        /* \"#utility.yul\":8238:8262   */\n      tag_83\n      jump\t// in\n    tag_194:\n        /* \"#utility.yul\":8229:8262   */\n      swap2\n      pop\n        /* \"#utility.yul\":8284:8350   */\n      0xffffffffffffffffffffffffffffffffffffffffffffffffffffffffffffffff\n        /* \"#utility.yul\":8277:8282   */\n      dup3\n        /* \"#utility.yul\":8274:8351   */\n      sub\n        /* \"#utility.yul\":8271:8374   */\n      tag_195\n      jumpi\n        /* \"#utility.yul\":8354:8372   */\n      tag_196\n      tag_96\n      jump\t// in\n    tag_196:\n        /* \"#utility.yul\":8271:8374   */\n    tag_195:\n        /* \"#utility.yul\":8401:8402   */\n      0x01\n        /* \"#utility.yul\":8394:8399   */\n      dup3\n        /* \"#utility.yul\":8390:8403   */\n      add\n        /* \"#utility.yul\":8383:8403   */\n      swap1\n      pop\n        /* \"#utility.yul\":8176:8409   */\n      swap2\n      swap1\n      pop\n      jump\t// out\n        /* \"#utility.yul\":8415:8517   */\n    tag_103:\n        /* \"#utility.yul\":8457:8465   */\n      0x00\n        /* \"#utility.yul\":8504:8509   */\n      dup2\n        /* \"#utility.yul\":8501:8502   */\n      0x01\n        /* \"#utility.yul\":8497:8510   */\n      shr\n        /* \"#utility.yul\":8476:8510   */\n      swap1\n      pop\n        /* \"#utility.yul\":8415:8517   */\n      swap2\n      swap1\n      pop\n      jump\t// out\n        /* \"#utility.yul\":8523:9371   */\n    tag_104:\n        /* \"#utility.yul\":8584:8589   */\n      0x00\n        /* \"#utility.yul\":8591:8595   */\n      dup1\n        /* \"#utility.yul\":8615:8621   */\n      dup3\n        /* \"#utility.yul\":8606:8621   */\n      swap2\n      pop\n        /* \"#utility.yul\":8639:8644   */\n      dup4\n        /* \"#utility.yul\":8630:8644   */\n      swap1\n      pop\n        /* \"#utility.yul\":8653:9365   */\n    tag_199:\n        /* \"#utility.yul\":8674:8675   */\n      0x01\n        /* \"#utility.yul\":8664:8672   */\n      dup6\n        /* \"#utility.yul\":8661:8676   */\n      gt\n        /* \"#utility.yul\":8653:9365   */\n      iszero\n      tag_201\n      jumpi\n        /* \"#utility.yul\":8769:8773   */\n      dup1\n        /* \"#utility.yul\":8764:8767   */\n      dup7\n        /* \"#utility.yul\":8760:8774   */\n      div\n        /* \"#utility.yul\":8754:8758   */\n      dup2\n        /* \"#utility.yul\":8751:8775   */\n      gt\n        /* \"#utility.yul\":8748:8798   */\n      iszero\n      tag_202\n      jumpi\n        /* \"#utility.yul\":8778:8796   */\n      tag_203\n      tag_96\n      jump\t// in\n    tag_203:\n        /* \"#utility.yul\":8748:8798   */\n    tag_202:\n        /* \"#utility.yul\":8828:8829   */\n      0x01\n        /* \"#utility.yul\":8818:8826   */\n      dup6\n        /* \"#utility.yul\":8814:8830   */\n      and\n        /* \"#utility.yul\":8811:9262   */\n      iszero\n      tag_204\n      jumpi\n        /* \"#utility.yul\":9243:9247   */\n      dup1\n        /* \"#utility.yul\":9236:9241   */\n      dup3\n        /* \"#utility.yul\":9232:9248   */\n      mul\n        /* \"#utility.yul\":9223:9248   */\n      swap2\n      pop\n        /* \"#utility.yul\":8811:9262   */\n    tag_204:\n        /* \"#utility.yul\":9293:9297   */\n      dup1\n        /* \"#utility.yul\":9287:9291   */\n      dup2\n        /* \"#utility.yul\":9283:9298   */\n      mul\n        /* \"#utility.yul\":9275:9298   */\n      swap1\n      pop\n        /* \"#utility.yul\":9323:9355   */\n      tag_205\n        /* \"#utility.yul\":9346:9354   */\n      dup6\n        /* \"#utility.yul\":9323:9355   */\n      tag_103\n      jump\t// in\n    tag_205:\n        /* \"#utility.yul\":9311:9355   */\n      swap5\n      pop\n        /* \"#utility.yul\":8653:9365   */\n      jump(tag_199)\n    tag_201:\n        /* \"#utility.yul\":8523:9371   */\n      swap5\n      pop\n      swap5\n      swap3\n      pop\n      pop\n      pop\n      jump\t// out\n        /* \"#utility.yul\":9377:10450   */\n    tag_105:\n        /* \"#utility.yul\":9431:9436   */\n      0x00\n        /* \"#utility.yul\":9622:9630   */\n      dup3\n        /* \"#utility.yul\":9612:9652   */\n      tag_207\n      jumpi\n        /* \"#utility.yul\":9643:9644   */\n      0x01\n        /* \"#utility.yul\":9634:9644   */\n      swap1\n      pop\n        /* \"#utility.yul\":9645:9650   */\n      jump(tag_206)\n        /* \"#utility.yul\":9612:9652   */\n    tag_207:\n        /* \"#utility.yul\":9671:9675   */\n      dup2\n        /* \"#utility.yul\":9661:9697   */\n      tag_208\n      jumpi\n        /* \"#utility.yul\":9688:9689   */\n      0x00\n        /* \"#utility.yul\":9679:9689   */\n      swap1\n      pop\n        /* \"#utility.yul\":9690:9695   */\n      jump(tag_206)\n        /* \"#utility.yul\":9661:9697   */\n    tag_208:\n        /* \"#utility.yul\":9757:9761   */\n      dup2\n        /* \"#utility.yul\":9805:9806   */\n      0x01\n        /* \"#utility.yul\":9800:9827   */\n      dup2\n      eq\n      tag_210\n      jumpi\n        /* \"#utility.yul\":9841:9842   */\n      0x02\n        /* \"#utility.yul\":9836:10027   */\n      dup2\n      eq\n      tag_211\n      jumpi\n        /* \"#utility.yul\":9750:10027   */\n      jump(tag_209)\n        /* \"#utility.yul\":9800:9827   */\n    tag_210:\n        /* \"#utility.yul\":9818:9819   */\n      0x01\n        /* \"#utility.yul\":9809:9819   */\n      swap2\n      pop\n        /* \"#utility.yul\":9820:9825   */\n      pop\n      jump(tag_206)\n        /* \"#utility.yul\":9836:10027   */\n    tag_211:\n        /* \"#utility.yul\":9881:9884   */\n      0xff\n        /* \"#utility.yul\":9871:9879   */\n      dup5\n        /* \"#utility.yul\":9868:9885   */\n      gt\n        /* \"#utility.yul\":9865:9908   */\n      iszero\n      tag_212\n      jumpi\n        /* \"#utility.yul\":9888:9906   */\n      tag_213\n      tag_96\n      jump\t// in\n    tag_213:\n        /* \"#utility.yul\":9865:9908   */\n    tag_212:\n        /* \"#utility.yul\":9937:9945   */\n      dup4\n        /* \"#utility.yul\":9934:9935   */\n      0x02\n        /* \"#utility.yul\":9930:9946   */\n      exp\n        /* \"#utility.yul\":9921:9946   */\n      swap2\n      pop\n        /* \"#utility.yul\":9972:9975   */\n      dup5\n        /* \"#utility.yul\":9965:9970   */\n      dup3\n        /* \"#utility.yul\":9962:9976   */\n      gt\n        /* \"#utility.yul\":9959:9999   */\n      iszero\n      tag_214\n      jumpi\n        /* \"#utility.yul\":9979:9997   */\n      tag_215\n      tag_96\n      jump\t// in\n    tag_215:\n        /* \"#utility.yul\":9959:9999   */\n    tag_214:\n        /* \"#utility.yul\":10012:10017   */\n      pop\n      jump(tag_206)\n        /* \"#utility.yul\":9750:10027   */\n    tag_209:\n      pop\n        /* \"#utility.yul\":10136:10138   */\n      0x20\n        /* \"#utility.yul\":10126:10134   */\n      dup4\n        /* \"#utility.yul\":10123:10139   */\n      lt\n        /* \"#utility.yul\":10117:10120   */\n      0x0133\n        /* \"#utility.yul\":10111:10115   */\n      dup4\n        /* \"#utility.yul\":10108:10121   */\n      lt\n        /* \"#utility.yul\":10104:10140   */\n      and\n        /* \"#utility.yul\":10086:10088   */\n      0x4e\n        /* \"#utility.yul\":10076:10084   */\n      dup5\n        /* \"#utility.yul\":10073:10089   */\n      lt\n        /* \"#utility.yul\":10068:10070   */\n      0x0b\n        /* \"#utility.yul\":10062:10066   */\n      dup5\n        /* \"#utility.yul\":10059:10071   */\n      lt\n        /* \"#utility.yul\":10055:10090   */\n      and\n        /* \"#utility.yul\":10039:10150   */\n      or\n        /* \"#utility.yul\":10036:10282   */\n      iszero\n      tag_216\n      jumpi\n        /* \"#utility.yul\":10192:10200   */\n      dup3\n        /* \"#utility.yul\":10186:10190   */\n      dup3\n        /* \"#utility.yul\":10182:10201   */\n      exp\n        /* \"#utility.yul\":10173:10201   */\n      swap1\n      pop\n        /* \"#utility.yul\":10227:10230   */\n      dup4\n        /* \"#utility.yul\":10220:10225   */\n      dup2\n        /* \"#utility.yul\":10217:10231   */\n      gt\n        /* \"#utility.yul\":10214:10254   */\n      iszero\n      tag_217\n      jumpi\n        /* \"#utility.yul\":10234:10252   */\n      tag_218\n      tag_96\n      jump\t// in\n    tag_218:\n        /* \"#utility.yul\":10214:10254   */\n    tag_217:\n        /* \"#utility.yul\":10267:10272   */\n      jump(tag_206)\n        /* \"#utility.yul\":10036:10282   */\n    tag_216:\n        /* \"#utility.yul\":10307:10349   */\n      tag_219\n        /* \"#utility.yul\":10345:10348   */\n      dup5\n        /* \"#utility.yul\":10335:10343   */\n      dup5\n        /* \"#utility.yul\":10329:10333   */\n      dup5\n        /* \"#utility.yul\":10326:10327   */\n      0x01\n        /* \"#utility.yul\":10307:10349   */\n      tag_104\n      jump\t// in\n    tag_219:\n        /* \"#utility.yul\":10292:10349   */\n      swap3\n      pop\n      swap1\n      pop\n        /* \"#utility.yul\":10381:10385   */\n      dup2\n        /* \"#utility.yul\":10376:10379   */\n      dup5\n        /* \"#utility.yul\":10372:10386   */\n      div\n        /* \"#utility.yul\":10365:10370   */\n      dup2\n        /* \"#utility.yul\":10362:10387   */\n      gt\n        /* \"#utility.yul\":10359:10410   */\n      iszero\n      tag_220\n      jumpi\n        /* \"#utility.yul\":10390:10408   */\n      tag_221\n      tag_96\n      jump\t// in\n    tag_221:\n        /* \"#utility.yul\":10359:10410   */\n    tag_220:\n        /* \"#utility.yul\":10439:10443   */\n      dup2\n        /* \"#utility.yul\":10432:10437   */\n      dup2\n        /* \"#utility.yul\":10428:10444   */\n      mul\n        /* \"#utility.yul\":10419:10444   */\n      swap1\n      pop\n        /* \"#utility.yul\":9377:10450   */\n    tag_206:\n      swap4\n      swap3\n      pop\n      pop\n      pop\n      jump\t// out\n        /* \"#utility.yul\":10456:10741   */\n    tag_76:\n        /* \"#utility.yul\":10516:10521   */\n      0x00\n        /* \"#utility.yul\":10540:10563   */\n      tag_223\n        /* \"#utility.yul\":10558:10562   */\n      dup3\n        /* \"#utility.yul\":10540:10563   */\n      tag_83\n      jump\t// in\n    tag_223:\n        /* \"#utility.yul\":10532:10563   */\n      swap2\n      pop\n        /* \"#utility.yul\":10584:10611   */\n      tag_224\n        /* \"#utility.yul\":10602:10610   */\n      dup4\n        /* \"#utility.yul\":10584:10611   */\n      tag_83\n      jump\t// in\n    tag_224:\n        /* \"#utility.yul\":10572:10611   */\n      swap3\n      pop\n        /* \"#utility.yul\":10630:10734   */\n      tag_225\n        /* \"#utility.yul\":10667:10733   */\n      0xffffffffffffffffffffffffffffffffffffffffffffffffffffffffffffffff\n        /* \"#utility.yul\":10657:10665   */\n      dup5\n        /* \"#utility.yul\":10651:10655   */\n      dup5\n        /* \"#utility.yul\":10630:10734   */\n      tag_105\n      jump\t// in\n    tag_225:\n        /* \"#utility.yul\":10621:10734   */\n      swap1\n      pop\n        /* \"#utility.yul\":10456:10741   */\n      swap3\n      swap2\n      pop\n      pop\n      jump\t// out\n\n    auxdata: 0xa26469706673582212206d375b61c872fdaadd98340d8f096547be92a62bf1f617e99fc45e6903be6d4d64736f6c634300080d0033\n}\n",
				"bytecode": {
					"linkReferences": {},
					"object": "610b07610053600b82828239805160001a607314610046577f4e487b7100000000000000000000000000000000000000000000000000000000600052600060045260246000fd5b30600052607381538281f3fe73000000000000000000000000000000000000000030146080604052600436106100875760003560e01c8063c8a4ac9c11610065578063c8a4ac9c1461011c578063cea071381461014c578063e35e83541461017c578063f5f565f8146101ac57610087565b8063771602f71461008c578063a391c15b146100bc578063b67d77c5146100ec575b600080fd5b6100a660048036038101906100a19190610457565b6101dc565b6040516100b391906104a6565b60405180910390f35b6100d660048036038101906100d19190610457565b6101f7565b6040516100e391906104a6565b60405180910390f35b61010660048036038101906101019190610457565b61021e565b60405161011391906104a6565b60405180910390f35b61013660048036038101906101319190610457565b61027d565b60405161014391906104a6565b60405180910390f35b6101666004803603810190610161919061061a565b610307565b60405161017391906104a6565b60405180910390f35b6101966004803603810190610191919061061a565b610345565b6040516101a391906104a6565b60405180910390f35b6101c660048036038101906101c19190610457565b610383565b6040516101d391906104a6565b60405180910390f35b60008082846101eb9190610692565b90508091505092915050565b6000808260648561020891906106e8565b6102129190610771565b90508091505092915050565b600081831015610263576040517f08c379a000000000000000000000000000000000000000000000000000000000815260040161025a9061084b565b60405180910390fd5b60008284610271919061086b565b90508091505092915050565b60007fffffffffffffffffffffffffffffffffffffffffffffffffffffffffffffffff82846102ac91906106e8565b11156102ed576040517f08c379a00000000000000000000000000000000000000000000000000000000081526004016102e4906108eb565b60405180910390fd5b600082846102fb91906106e8565b90508091505092915050565b6000806000905060005b835181101561033b5780826103269190610692565b915080806103339061090b565b915050610311565b5080915050919050565b6000806001905060005b835181101561037957808261036491906106e8565b915080806103719061090b565b91505061034f565b5080915050919050565b60007fffffffffffffffffffffffffffffffffffffffffffffffffffffffffffffffff82846103b29190610a86565b11156103f3576040517f08c379a00000000000000000000000000000000000000000000000000000000081526004016103ea906108eb565b60405180910390fd5b600082846104019190610a86565b90508091505092915050565b6000604051905090565b600080fd5b600080fd5b6000819050919050565b61043481610421565b811461043f57600080fd5b50565b6000813590506104518161042b565b92915050565b6000806040838503121561046e5761046d610417565b5b600061047c85828601610442565b925050602061048d85828601610442565b9150509250929050565b6104a081610421565b82525050565b60006020820190506104bb6000830184610497565b92915050565b600080fd5b6000601f19601f8301169050919050565b7f4e487b7100000000000000000000000000000000000000000000000000000000600052604160045260246000fd5b61050f826104c6565b810181811067ffffffffffffffff8211171561052e5761052d6104d7565b5b80604052505050565b600061054161040d565b905061054d8282610506565b919050565b600067ffffffffffffffff82111561056d5761056c6104d7565b5b602082029050602081019050919050565b600080fd5b600061059661059184610552565b610537565b905080838252602082019050602084028301858111156105b9576105b861057e565b5b835b818110156105e257806105ce8882610442565b8452602084019350506020810190506105bb565b5050509392505050565b600082601f830112610601576106006104c1565b5b8135610611848260208601610583565b91505092915050565b6000602082840312156106305761062f610417565b5b600082013567ffffffffffffffff81111561064e5761064d61041c565b5b61065a848285016105ec565b91505092915050565b7f4e487b7100000000000000000000000000000000000000000000000000000000600052601160045260246000fd5b600061069d82610421565b91506106a883610421565b9250827fffffffffffffffffffffffffffffffffffffffffffffffffffffffffffffffff038211156106dd576106dc610663565b5b828201905092915050565b60006106f382610421565b91506106fe83610421565b9250817fffffffffffffffffffffffffffffffffffffffffffffffffffffffffffffffff048311821515161561073757610736610663565b5b828202905092915050565b7f4e487b7100000000000000000000000000000000000000000000000000000000600052601260045260246000fd5b600061077c82610421565b915061078783610421565b92508261079757610796610742565b5b828204905092915050565b600082825260208201905092915050565b7f4c696272617279206572726f723a205365636f6e6420706172616d657465722060008201527f73686f756c64206265206c657373206f7220657175616c20746f20746865206660208201527f697273742e000000000000000000000000000000000000000000000000000000604082015250565b60006108356045836107a2565b9150610840826107b3565b606082019050919050565b6000602082019050818103600083015261086481610828565b9050919050565b600061087682610421565b915061088183610421565b92508282101561089457610893610663565b5b828203905092915050565b7f4c696272617279204572726f722c204e756d626572206f766572666c6f772e00600082015250565b60006108d5601f836107a2565b91506108e08261089f565b602082019050919050565b60006020820190508181036000830152610904816108c8565b9050919050565b600061091682610421565b91507fffffffffffffffffffffffffffffffffffffffffffffffffffffffffffffffff820361094857610947610663565b5b600182019050919050565b60008160011c9050919050565b6000808291508390505b60018511156109aa5780860481111561098657610985610663565b5b60018516156109955780820291505b80810290506109a385610953565b945061096a565b94509492505050565b6000826109c35760019050610a7f565b816109d15760009050610a7f565b81600181146109e757600281146109f157610a20565b6001915050610a7f565b60ff841115610a0357610a02610663565b5b8360020a915084821115610a1a57610a19610663565b5b50610a7f565b5060208310610133831016604e8410600b8410161715610a555782820a905083811115610a5057610a4f610663565b5b610a7f565b610a628484846001610960565b92509050818404811115610a7957610a78610663565b5b81810290505b9392505050565b6000610a9182610421565b9150610a9c83610421565b9250610ac97fffffffffffffffffffffffffffffffffffffffffffffffffffffffffffffffff84846109b3565b90509291505056fea26469706673582212206d375b61c872fdaadd98340d8f096547be92a62bf1f617e99fc45e6903be6d4d64736f6c634300080d0033",
					"opcodes": "PUSH2 0xB07 PUSH2 0x53 PUSH1 0xB DUP3 DUP3 DUP3 CODECOPY DUP1 MLOAD PUSH1 0x0 BYTE PUSH1 0x73 EQ PUSH2 0x46 JUMPI PUSH32 0x4E487B7100000000000000000000000000000000000000000000000000000000 PUSH1 0x0 MSTORE PUSH1 0x0 PUSH1 0x4 MSTORE PUSH1 0x24 PUSH1 0x0 REVERT JUMPDEST ADDRESS PUSH1 0x0 MSTORE PUSH1 0x73 DUP2 MSTORE8 DUP3 DUP2 RETURN INVALID PUSH20 0x0 ADDRESS EQ PUSH1 0x80 PUSH1 0x40 MSTORE PUSH1 0x4 CALLDATASIZE LT PUSH2 0x87 JUMPI PUSH1 0x0 CALLDATALOAD PUSH1 0xE0 SHR DUP1 PUSH4 0xC8A4AC9C GT PUSH2 0x65 JUMPI DUP1 PUSH4 0xC8A4AC9C EQ PUSH2 0x11C JUMPI DUP1 PUSH4 0xCEA07138 EQ PUSH2 0x14C JUMPI DUP1 PUSH4 0xE35E8354 EQ PUSH2 0x17C JUMPI DUP1 PUSH4 0xF5F565F8 EQ PUSH2 0x1AC JUMPI PUSH2 0x87 JUMP JUMPDEST DUP1 PUSH4 0x771602F7 EQ PUSH2 0x8C JUMPI DUP1 PUSH4 0xA391C15B EQ PUSH2 0xBC JUMPI DUP1 PUSH4 0xB67D77C5 EQ PUSH2 0xEC JUMPI JUMPDEST PUSH1 0x0 DUP1 REVERT JUMPDEST PUSH2 0xA6 PUSH1 0x4 DUP1 CALLDATASIZE SUB DUP2 ADD SWAP1 PUSH2 0xA1 SWAP2 SWAP1 PUSH2 0x457 JUMP JUMPDEST PUSH2 0x1DC JUMP JUMPDEST PUSH1 0x40 MLOAD PUSH2 0xB3 SWAP2 SWAP1 PUSH2 0x4A6 JUMP JUMPDEST PUSH1 0x40 MLOAD DUP1 SWAP2 SUB SWAP1 RETURN JUMPDEST PUSH2 0xD6 PUSH1 0x4 DUP1 CALLDATASIZE SUB DUP2 ADD SWAP1 PUSH2 0xD1 SWAP2 SWAP1 PUSH2 0x457 JUMP JUMPDEST PUSH2 0x1F7 JUMP JUMPDEST PUSH1 0x40 MLOAD PUSH2 0xE3 SWAP2 SWAP1 PUSH2 0x4A6 JUMP JUMPDEST PUSH1 0x40 MLOAD DUP1 SWAP2 SUB SWAP1 RETURN JUMPDEST PUSH2 0x106 PUSH1 0x4 DUP1 CALLDATASIZE SUB DUP2 ADD SWAP1 PUSH2 0x101 SWAP2 SWAP1 PUSH2 0x457 JUMP JUMPDEST PUSH2 0x21E JUMP JUMPDEST PUSH1 0x40 MLOAD PUSH2 0x113 SWAP2 SWAP1 PUSH2 0x4A6 JUMP JUMPDEST PUSH1 0x40 MLOAD DUP1 SWAP2 SUB SWAP1 RETURN JUMPDEST PUSH2 0x136 PUSH1 0x4 DUP1 CALLDATASIZE SUB DUP2 ADD SWAP1 PUSH2 0x131 SWAP2 SWAP1 PUSH2 0x457 JUMP JUMPDEST PUSH2 0x27D JUMP JUMPDEST PUSH1 0x40 MLOAD PUSH2 0x143 SWAP2 SWAP1 PUSH2 0x4A6 JUMP JUMPDEST PUSH1 0x40 MLOAD DUP1 SWAP2 SUB SWAP1 RETURN JUMPDEST PUSH2 0x166 PUSH1 0x4 DUP1 CALLDATASIZE SUB DUP2 ADD SWAP1 PUSH2 0x161 SWAP2 SWAP1 PUSH2 0x61A JUMP JUMPDEST PUSH2 0x307 JUMP JUMPDEST PUSH1 0x40 MLOAD PUSH2 0x173 SWAP2 SWAP1 PUSH2 0x4A6 JUMP JUMPDEST PUSH1 0x40 MLOAD DUP1 SWAP2 SUB SWAP1 RETURN JUMPDEST PUSH2 0x196 PUSH1 0x4 DUP1 CALLDATASIZE SUB DUP2 ADD SWAP1 PUSH2 0x191 SWAP2 SWAP1 PUSH2 0x61A JUMP JUMPDEST PUSH2 0x345 JUMP JUMPDEST PUSH1 0x40 MLOAD PUSH2 0x1A3 SWAP2 SWAP1 PUSH2 0x4A6 JUMP JUMPDEST PUSH1 0x40 MLOAD DUP1 SWAP2 SUB SWAP1 RETURN JUMPDEST PUSH2 0x1C6 PUSH1 0x4 DUP1 CALLDATASIZE SUB DUP2 ADD SWAP1 PUSH2 0x1C1 SWAP2 SWAP1 PUSH2 0x457 JUMP JUMPDEST PUSH2 0x383 JUMP JUMPDEST PUSH1 0x40 MLOAD PUSH2 0x1D3 SWAP2 SWAP1 PUSH2 0x4A6 JUMP JUMPDEST PUSH1 0x40 MLOAD DUP1 SWAP2 SUB SWAP1 RETURN JUMPDEST PUSH1 0x0 DUP1 DUP3 DUP5 PUSH2 0x1EB SWAP2 SWAP1 PUSH2 0x692 JUMP JUMPDEST SWAP1 POP DUP1 SWAP2 POP POP SWAP3 SWAP2 POP POP JUMP JUMPDEST PUSH1 0x0 DUP1 DUP3 PUSH1 0x64 DUP6 PUSH2 0x208 SWAP2 SWAP1 PUSH2 0x6E8 JUMP JUMPDEST PUSH2 0x212 SWAP2 SWAP1 PUSH2 0x771 JUMP JUMPDEST SWAP1 POP DUP1 SWAP2 POP POP SWAP3 SWAP2 POP POP JUMP JUMPDEST PUSH1 0x0 DUP2 DUP4 LT ISZERO PUSH2 0x263 JUMPI PUSH1 0x40 MLOAD PUSH32 0x8C379A000000000000000000000000000000000000000000000000000000000 DUP2 MSTORE PUSH1 0x4 ADD PUSH2 0x25A SWAP1 PUSH2 0x84B JUMP JUMPDEST PUSH1 0x40 MLOAD DUP1 SWAP2 SUB SWAP1 REVERT JUMPDEST PUSH1 0x0 DUP3 DUP5 PUSH2 0x271 SWAP2 SWAP1 PUSH2 0x86B JUMP JUMPDEST SWAP1 POP DUP1 SWAP2 POP POP SWAP3 SWAP2 POP POP JUMP JUMPDEST PUSH1 0x0 PUSH32 0xFFFFFFFFFFFFFFFFFFFFFFFFFFFFFFFFFFFFFFFFFFFFFFFFFFFFFFFFFFFFFFFF DUP3 DUP5 PUSH2 0x2AC SWAP2 SWAP1 PUSH2 0x6E8 JUMP JUMPDEST GT ISZERO PUSH2 0x2ED JUMPI PUSH1 0x40 MLOAD PUSH32 0x8C379A000000000000000000000000000000000000000000000000000000000 DUP2 MSTORE PUSH1 0x4 ADD PUSH2 0x2E4 SWAP1 PUSH2 0x8EB JUMP JUMPDEST PUSH1 0x40 MLOAD DUP1 SWAP2 SUB SWAP1 REVERT JUMPDEST PUSH1 0x0 DUP3 DUP5 PUSH2 0x2FB SWAP2 SWAP1 PUSH2 0x6E8 JUMP JUMPDEST SWAP1 POP DUP1 SWAP2 POP POP SWAP3 SWAP2 POP POP JUMP JUMPDEST PUSH1 0x0 DUP1 PUSH1 0x0 SWAP1 POP PUSH1 0x0 JUMPDEST DUP4 MLOAD DUP2 LT ISZERO PUSH2 0x33B JUMPI DUP1 DUP3 PUSH2 0x326 SWAP2 SWAP1 PUSH2 0x692 JUMP JUMPDEST SWAP2 POP DUP1 DUP1 PUSH2 0x333 SWAP1 PUSH2 0x90B JUMP JUMPDEST SWAP2 POP POP PUSH2 0x311 JUMP JUMPDEST POP DUP1 SWAP2 POP POP SWAP2 SWAP1 POP JUMP JUMPDEST PUSH1 0x0 DUP1 PUSH1 0x1 SWAP1 POP PUSH1 0x0 JUMPDEST DUP4 MLOAD DUP2 LT ISZERO PUSH2 0x379 JUMPI DUP1 DUP3 PUSH2 0x364 SWAP2 SWAP1 PUSH2 0x6E8 JUMP JUMPDEST SWAP2 POP DUP1 DUP1 PUSH2 0x371 SWAP1 PUSH2 0x90B JUMP JUMPDEST SWAP2 POP POP PUSH2 0x34F JUMP JUMPDEST POP DUP1 SWAP2 POP POP SWAP2 SWAP1 POP JUMP JUMPDEST PUSH1 0x0 PUSH32 0xFFFFFFFFFFFFFFFFFFFFFFFFFFFFFFFFFFFFFFFFFFFFFFFFFFFFFFFFFFFFFFFF DUP3 DUP5 PUSH2 0x3B2 SWAP2 SWAP1 PUSH2 0xA86 JUMP JUMPDEST GT ISZERO PUSH2 0x3F3 JUMPI PUSH1 0x40 MLOAD PUSH32 0x8C379A000000000000000000000000000000000000000000000000000000000 DUP2 MSTORE PUSH1 0x4 ADD PUSH2 0x3EA SWAP1 PUSH2 0x8EB JUMP JUMPDEST PUSH1 0x40 MLOAD DUP1 SWAP2 SUB SWAP1 REVERT JUMPDEST PUSH1 0x0 DUP3 DUP5 PUSH2 0x401 SWAP2 SWAP1 PUSH2 0xA86 JUMP JUMPDEST SWAP1 POP DUP1 SWAP2 POP POP SWAP3 SWAP2 POP POP JUMP JUMPDEST PUSH1 0x0 PUSH1 0x40 MLOAD SWAP1 POP SWAP1 JUMP JUMPDEST PUSH1 0x0 DUP1 REVERT JUMPDEST PUSH1 0x0 DUP1 REVERT JUMPDEST PUSH1 0x0 DUP2 SWAP1 POP SWAP2 SWAP1 POP JUMP JUMPDEST PUSH2 0x434 DUP2 PUSH2 0x421 JUMP JUMPDEST DUP2 EQ PUSH2 0x43F JUMPI PUSH1 0x0 DUP1 REVERT JUMPDEST POP JUMP JUMPDEST PUSH1 0x0 DUP2 CALLDATALOAD SWAP1 POP PUSH2 0x451 DUP2 PUSH2 0x42B JUMP JUMPDEST SWAP3 SWAP2 POP POP JUMP JUMPDEST PUSH1 0x0 DUP1 PUSH1 0x40 DUP4 DUP6 SUB SLT ISZERO PUSH2 0x46E JUMPI PUSH2 0x46D PUSH2 0x417 JUMP JUMPDEST JUMPDEST PUSH1 0x0 PUSH2 0x47C DUP6 DUP3 DUP7 ADD PUSH2 0x442 JUMP JUMPDEST SWAP3 POP POP PUSH1 0x20 PUSH2 0x48D DUP6 DUP3 DUP7 ADD PUSH2 0x442 JUMP JUMPDEST SWAP2 POP POP SWAP3 POP SWAP3 SWAP1 POP JUMP JUMPDEST PUSH2 0x4A0 DUP2 PUSH2 0x421 JUMP JUMPDEST DUP3 MSTORE POP POP JUMP JUMPDEST PUSH1 0x0 PUSH1 0x20 DUP3 ADD SWAP1 POP PUSH2 0x4BB PUSH1 0x0 DUP4 ADD DUP5 PUSH2 0x497 JUMP JUMPDEST SWAP3 SWAP2 POP POP JUMP JUMPDEST PUSH1 0x0 DUP1 REVERT JUMPDEST PUSH1 0x0 PUSH1 0x1F NOT PUSH1 0x1F DUP4 ADD AND SWAP1 POP SWAP2 SWAP1 POP JUMP JUMPDEST PUSH32 0x4E487B7100000000000000000000000000000000000000000000000000000000 PUSH1 0x0 MSTORE PUSH1 0x41 PUSH1 0x4 MSTORE PUSH1 0x24 PUSH1 0x0 REVERT JUMPDEST PUSH2 0x50F DUP3 PUSH2 0x4C6 JUMP JUMPDEST DUP2 ADD DUP2 DUP2 LT PUSH8 0xFFFFFFFFFFFFFFFF DUP3 GT OR ISZERO PUSH2 0x52E JUMPI PUSH2 0x52D PUSH2 0x4D7 JUMP JUMPDEST JUMPDEST DUP1 PUSH1 0x40 MSTORE POP POP POP JUMP JUMPDEST PUSH1 0x0 PUSH2 0x541 PUSH2 0x40D JUMP JUMPDEST SWAP1 POP PUSH2 0x54D DUP3 DUP3 PUSH2 0x506 JUMP JUMPDEST SWAP2 SWAP1 POP JUMP JUMPDEST PUSH1 0x0 PUSH8 0xFFFFFFFFFFFFFFFF DUP3 GT ISZERO PUSH2 0x56D JUMPI PUSH2 0x56C PUSH2 0x4D7 JUMP JUMPDEST JUMPDEST PUSH1 0x20 DUP3 MUL SWAP1 POP PUSH1 0x20 DUP2 ADD SWAP1 POP SWAP2 SWAP1 POP JUMP JUMPDEST PUSH1 0x0 DUP1 REVERT JUMPDEST PUSH1 0x0 PUSH2 0x596 PUSH2 0x591 DUP5 PUSH2 0x552 JUMP JUMPDEST PUSH2 0x537 JUMP JUMPDEST SWAP1 POP DUP1 DUP4 DUP3 MSTORE PUSH1 0x20 DUP3 ADD SWAP1 POP PUSH1 0x20 DUP5 MUL DUP4 ADD DUP6 DUP2 GT ISZERO PUSH2 0x5B9 JUMPI PUSH2 0x5B8 PUSH2 0x57E JUMP JUMPDEST JUMPDEST DUP4 JUMPDEST DUP2 DUP2 LT ISZERO PUSH2 0x5E2 JUMPI DUP1 PUSH2 0x5CE DUP9 DUP3 PUSH2 0x442 JUMP JUMPDEST DUP5 MSTORE PUSH1 0x20 DUP5 ADD SWAP4 POP POP PUSH1 0x20 DUP2 ADD SWAP1 POP PUSH2 0x5BB JUMP JUMPDEST POP POP POP SWAP4 SWAP3 POP POP POP JUMP JUMPDEST PUSH1 0x0 DUP3 PUSH1 0x1F DUP4 ADD SLT PUSH2 0x601 JUMPI PUSH2 0x600 PUSH2 0x4C1 JUMP JUMPDEST JUMPDEST DUP2 CALLDATALOAD PUSH2 0x611 DUP5 DUP3 PUSH1 0x20 DUP7 ADD PUSH2 0x583 JUMP JUMPDEST SWAP2 POP POP SWAP3 SWAP2 POP POP JUMP JUMPDEST PUSH1 0x0 PUSH1 0x20 DUP3 DUP5 SUB SLT ISZERO PUSH2 0x630 JUMPI PUSH2 0x62F PUSH2 0x417 JUMP JUMPDEST JUMPDEST PUSH1 0x0 DUP3 ADD CALLDATALOAD PUSH8 0xFFFFFFFFFFFFFFFF DUP2 GT ISZERO PUSH2 0x64E JUMPI PUSH2 0x64D PUSH2 0x41C JUMP JUMPDEST JUMPDEST PUSH2 0x65A DUP5 DUP3 DUP6 ADD PUSH2 0x5EC JUMP JUMPDEST SWAP2 POP POP SWAP3 SWAP2 POP POP JUMP JUMPDEST PUSH32 0x4E487B7100000000000000000000000000000000000000000000000000000000 PUSH1 0x0 MSTORE PUSH1 0x11 PUSH1 0x4 MSTORE PUSH1 0x24 PUSH1 0x0 REVERT JUMPDEST PUSH1 0x0 PUSH2 0x69D DUP3 PUSH2 0x421 JUMP JUMPDEST SWAP2 POP PUSH2 0x6A8 DUP4 PUSH2 0x421 JUMP JUMPDEST SWAP3 POP DUP3 PUSH32 0xFFFFFFFFFFFFFFFFFFFFFFFFFFFFFFFFFFFFFFFFFFFFFFFFFFFFFFFFFFFFFFFF SUB DUP3 GT ISZERO PUSH2 0x6DD JUMPI PUSH2 0x6DC PUSH2 0x663 JUMP JUMPDEST JUMPDEST DUP3 DUP3 ADD SWAP1 POP SWAP3 SWAP2 POP POP JUMP JUMPDEST PUSH1 0x0 PUSH2 0x6F3 DUP3 PUSH2 0x421 JUMP JUMPDEST SWAP2 POP PUSH2 0x6FE DUP4 PUSH2 0x421 JUMP JUMPDEST SWAP3 POP DUP2 PUSH32 0xFFFFFFFFFFFFFFFFFFFFFFFFFFFFFFFFFFFFFFFFFFFFFFFFFFFFFFFFFFFFFFFF DIV DUP4 GT DUP3 ISZERO ISZERO AND ISZERO PUSH2 0x737 JUMPI PUSH2 0x736 PUSH2 0x663 JUMP JUMPDEST JUMPDEST DUP3 DUP3 MUL SWAP1 POP SWAP3 SWAP2 POP POP JUMP JUMPDEST PUSH32 0x4E487B7100000000000000000000000000000000000000000000000000000000 PUSH1 0x0 MSTORE PUSH1 0x12 PUSH1 0x4 MSTORE PUSH1 0x24 PUSH1 0x0 REVERT JUMPDEST PUSH1 0x0 PUSH2 0x77C DUP3 PUSH2 0x421 JUMP JUMPDEST SWAP2 POP PUSH2 0x787 DUP4 PUSH2 0x421 JUMP JUMPDEST SWAP3 POP DUP3 PUSH2 0x797 JUMPI PUSH2 0x796 PUSH2 0x742 JUMP JUMPDEST JUMPDEST DUP3 DUP3 DIV SWAP1 POP SWAP3 SWAP2 POP POP JUMP JUMPDEST PUSH1 0x0 DUP3 DUP3 MSTORE PUSH1 0x20 DUP3 ADD SWAP1 POP SWAP3 SWAP2 POP POP JUMP JUMPDEST PUSH32 0x4C696272617279206572726F723A205365636F6E6420706172616D6574657220 PUSH1 0x0 DUP3 ADD MSTORE PUSH32 0x73686F756C64206265206C657373206F7220657175616C20746F207468652066 PUSH1 0x20 DUP3 ADD MSTORE PUSH32 0x697273742E000000000000000000000000000000000000000000000000000000 PUSH1 0x40 DUP3 ADD MSTORE POP JUMP JUMPDEST PUSH1 0x0 PUSH2 0x835 PUSH1 0x45 DUP4 PUSH2 0x7A2 JUMP JUMPDEST SWAP2 POP PUSH2 0x840 DUP3 PUSH2 0x7B3 JUMP JUMPDEST PUSH1 0x60 DUP3 ADD SWAP1 POP SWAP2 SWAP1 POP JUMP JUMPDEST PUSH1 0x0 PUSH1 0x20 DUP3 ADD SWAP1 POP DUP2 DUP2 SUB PUSH1 0x0 DUP4 ADD MSTORE PUSH2 0x864 DUP2 PUSH2 0x828 JUMP JUMPDEST SWAP1 POP SWAP2 SWAP1 POP JUMP JUMPDEST PUSH1 0x0 PUSH2 0x876 DUP3 PUSH2 0x421 JUMP JUMPDEST SWAP2 POP PUSH2 0x881 DUP4 PUSH2 0x421 JUMP JUMPDEST SWAP3 POP DUP3 DUP3 LT ISZERO PUSH2 0x894 JUMPI PUSH2 0x893 PUSH2 0x663 JUMP JUMPDEST JUMPDEST DUP3 DUP3 SUB SWAP1 POP SWAP3 SWAP2 POP POP JUMP JUMPDEST PUSH32 0x4C696272617279204572726F722C204E756D626572206F766572666C6F772E00 PUSH1 0x0 DUP3 ADD MSTORE POP JUMP JUMPDEST PUSH1 0x0 PUSH2 0x8D5 PUSH1 0x1F DUP4 PUSH2 0x7A2 JUMP JUMPDEST SWAP2 POP PUSH2 0x8E0 DUP3 PUSH2 0x89F JUMP JUMPDEST PUSH1 0x20 DUP3 ADD SWAP1 POP SWAP2 SWAP1 POP JUMP JUMPDEST PUSH1 0x0 PUSH1 0x20 DUP3 ADD SWAP1 POP DUP2 DUP2 SUB PUSH1 0x0 DUP4 ADD MSTORE PUSH2 0x904 DUP2 PUSH2 0x8C8 JUMP JUMPDEST SWAP1 POP SWAP2 SWAP1 POP JUMP JUMPDEST PUSH1 0x0 PUSH2 0x916 DUP3 PUSH2 0x421 JUMP JUMPDEST SWAP2 POP PUSH32 0xFFFFFFFFFFFFFFFFFFFFFFFFFFFFFFFFFFFFFFFFFFFFFFFFFFFFFFFFFFFFFFFF DUP3 SUB PUSH2 0x948 JUMPI PUSH2 0x947 PUSH2 0x663 JUMP JUMPDEST JUMPDEST PUSH1 0x1 DUP3 ADD SWAP1 POP SWAP2 SWAP1 POP JUMP JUMPDEST PUSH1 0x0 DUP2 PUSH1 0x1 SHR SWAP1 POP SWAP2 SWAP1 POP JUMP JUMPDEST PUSH1 0x0 DUP1 DUP3 SWAP2 POP DUP4 SWAP1 POP JUMPDEST PUSH1 0x1 DUP6 GT ISZERO PUSH2 0x9AA JUMPI DUP1 DUP7 DIV DUP2 GT ISZERO PUSH2 0x986 JUMPI PUSH2 0x985 PUSH2 0x663 JUMP JUMPDEST JUMPDEST PUSH1 0x1 DUP6 AND ISZERO PUSH2 0x995 JUMPI DUP1 DUP3 MUL SWAP2 POP JUMPDEST DUP1 DUP2 MUL SWAP1 POP PUSH2 0x9A3 DUP6 PUSH2 0x953 JUMP JUMPDEST SWAP5 POP PUSH2 0x96A JUMP JUMPDEST SWAP5 POP SWAP5 SWAP3 POP POP POP JUMP JUMPDEST PUSH1 0x0 DUP3 PUSH2 0x9C3 JUMPI PUSH1 0x1 SWAP1 POP PUSH2 0xA7F JUMP JUMPDEST DUP2 PUSH2 0x9D1 JUMPI PUSH1 0x0 SWAP1 POP PUSH2 0xA7F JUMP JUMPDEST DUP2 PUSH1 0x1 DUP2 EQ PUSH2 0x9E7 JUMPI PUSH1 0x2 DUP2 EQ PUSH2 0x9F1 JUMPI PUSH2 0xA20 JUMP JUMPDEST PUSH1 0x1 SWAP2 POP POP PUSH2 0xA7F JUMP JUMPDEST PUSH1 0xFF DUP5 GT ISZERO PUSH2 0xA03 JUMPI PUSH2 0xA02 PUSH2 0x663 JUMP JUMPDEST JUMPDEST DUP4 PUSH1 0x2 EXP SWAP2 POP DUP5 DUP3 GT ISZERO PUSH2 0xA1A JUMPI PUSH2 0xA19 PUSH2 0x663 JUMP JUMPDEST JUMPDEST POP PUSH2 0xA7F JUMP JUMPDEST POP PUSH1 0x20 DUP4 LT PUSH2 0x133 DUP4 LT AND PUSH1 0x4E DUP5 LT PUSH1 0xB DUP5 LT AND OR ISZERO PUSH2 0xA55 JUMPI DUP3 DUP3 EXP SWAP1 POP DUP4 DUP2 GT ISZERO PUSH2 0xA50 JUMPI PUSH2 0xA4F PUSH2 0x663 JUMP JUMPDEST JUMPDEST PUSH2 0xA7F JUMP JUMPDEST PUSH2 0xA62 DUP5 DUP5 DUP5 PUSH1 0x1 PUSH2 0x960 JUMP JUMPDEST SWAP3 POP SWAP1 POP DUP2 DUP5 DIV DUP2 GT ISZERO PUSH2 0xA79 JUMPI PUSH2 0xA78 PUSH2 0x663 JUMP JUMPDEST JUMPDEST DUP2 DUP2 MUL SWAP1 POP JUMPDEST SWAP4 SWAP3 POP POP POP JUMP JUMPDEST PUSH1 0x0 PUSH2 0xA91 DUP3 PUSH2 0x421 JUMP JUMPDEST SWAP2 POP PUSH2 0xA9C DUP4 PUSH2 0x421 JUMP JUMPDEST SWAP3 POP PUSH2 0xAC9 PUSH32 0xFFFFFFFFFFFFFFFFFFFFFFFFFFFFFFFFFFFFFFFFFFFFFFFFFFFFFFFFFFFFFFFF DUP5 DUP5 PUSH2 0x9B3 JUMP JUMPDEST SWAP1 POP SWAP3 SWAP2 POP POP JUMP INVALID LOG2 PUSH5 0x6970667358 0x22 SLT KECCAK256 PUSH14 0x375B61C872FDAADD98340D8F0965 SELFBALANCE 0xBE SWAP3 0xA6 0x2B CALL 0xF6 OR 0xE9 SWAP16 0xC4 0x5E PUSH10 0x3BE6D4D64736F6C6343 STOP ADDMOD 0xD STOP CALLER "
				},
				"gasEstimates": {
					"creation": {
						"codeDepositCost": "564600",
						"executionCost": "625",
						"totalCost": "565225"
					},
					"external": {
						"add(uint256,uint256)": "infinite",
						"add_arr(uint256[])": "infinite",
						"div(uint256,uint256)": "infinite",
						"exp(uint256,uint256)": "infinite",
						"mul(uint256,uint256)": "infinite",
						"mul_arr(uint256[])": "infinite",
						"sub(uint256,uint256)": "infinite"
					}
				},
				"methodIdentifiers": {
					"add(uint256,uint256)": "771602f7",
					"add_arr(uint256[])": "cea07138",
					"div(uint256,uint256)": "a391c15b",
					"exp(uint256,uint256)": "f5f565f8",
					"mul(uint256,uint256)": "c8a4ac9c",
					"mul_arr(uint256[])": "e35e8354",
					"sub(uint256,uint256)": "b67d77c5"
				}
			},
			"userdoc": {
				"kind": "user",
				"methods": {},
				"version": 1
			}
		}
	}
}