{
	"operation.sol": {
		"J": {
			"abi": [
				{
					"inputs": [],
					"name": "multiply",
					"outputs": [
						{
							"internalType": "uint256",
							"name": "",
							"type": "uint256"
						}
					],
					"stateMutability": "pure",
					"type": "function"
				}
			],
			"devdoc": {
				"kind": "dev",
				"methods": {},
				"version": 1
			},
			"evm": {
				"assembly": "    /* \"operation.sol\":113:234  contract J... */\n  mstore(0x40, 0x80)\n  callvalue\n  dup1\n  iszero\n  tag_1\n  jumpi\n  0x00\n  dup1\n  revert\ntag_1:\n  pop\n  dataSize(sub_0)\n  dup1\n  dataOffset(sub_0)\n  0x00\n  codecopy\n  0x00\n  return\nstop\n\nsub_0: assembly {\n        /* \"operation.sol\":113:234  contract J... */\n      mstore(0x40, 0x80)\n      callvalue\n      dup1\n      iszero\n      tag_1\n      jumpi\n      0x00\n      dup1\n      revert\n    tag_1:\n      pop\n      jumpi(tag_2, lt(calldatasize, 0x04))\n      shr(0xe0, calldataload(0x00))\n      dup1\n      0xf3593cd0\n      eq\n      tag_3\n      jumpi\n    tag_2:\n      0x00\n      dup1\n      revert\n        /* \"operation.sol\":132:231  function multiply() public pure returns(uint)... */\n    tag_3:\n      tag_4\n      tag_5\n      jump\t// in\n    tag_4:\n      mload(0x40)\n      tag_6\n      swap2\n      swap1\n      tag_7\n      jump\t// in\n    tag_6:\n      mload(0x40)\n      dup1\n      swap2\n      sub\n      swap1\n      return\n    tag_5:\n        /* \"operation.sol\":172:176  uint */\n      0x00\n        /* \"operation.sol\":201:223  operations.mul(67, 90) */\n      tag_9\n        /* \"operation.sol\":216:218  67 */\n      0x43\n        /* \"operation.sol\":220:222  90 */\n      0x5a\n        /* \"operation.sol\":201:215  operations.mul */\n      tag_10\n        /* \"operation.sol\":201:223  operations.mul(67, 90) */\n      jump\t// in\n    tag_9:\n        /* \"operation.sol\":194:223  return operations.mul(67, 90) */\n      swap1\n      pop\n        /* \"operation.sol\":132:231  function multiply() public pure returns(uint)... */\n      swap1\n      jump\t// out\n        /* \"libraries/operators.sol\":2011:2213  function mul(uint a, uint b) internal pure returns(uint)... */\n    tag_10:\n        /* \"libraries/operators.sol\":2062:2066  uint */\n      0x00\n        /* \"libraries/operators.sol\":2104:2118  (2 ** 256) - 1 */\n      0xffffffffffffffffffffffffffffffffffffffffffffffffffffffffffffffff\n        /* \"libraries/operators.sol\":2097:2098  b */\n      dup3\n        /* \"libraries/operators.sol\":2093:2094  a */\n      dup5\n        /* \"libraries/operators.sol\":2093:2098  a * b */\n      tag_12\n      swap2\n      swap1\n      tag_13\n      jump\t// in\n    tag_12:\n        /* \"libraries/operators.sol\":2092:2119  (a * b) <= ((2 ** 256) - 1) */\n      gt\n      iszero\n        /* \"libraries/operators.sol\":2084:2155  require((a * b) <= ((2 ** 256) - 1), \"Library Error, Number overflow.\") */\n      tag_14\n      jumpi\n      mload(0x40)\n      0x08c379a000000000000000000000000000000000000000000000000000000000\n      dup2\n      mstore\n      0x04\n      add\n      tag_15\n      swap1\n      tag_16\n      jump\t// in\n    tag_15:\n      mload(0x40)\n      dup1\n      swap2\n      sub\n      swap1\n      revert\n    tag_14:\n        /* \"libraries/operators.sol\":2166:2175  uint prod */\n      0x00\n        /* \"libraries/operators.sol\":2182:2183  b */\n      dup3\n        /* \"libraries/operators.sol\":2178:2179  a */\n      dup5\n        /* \"libraries/operators.sol\":2178:2183  a * b */\n      tag_17\n      swap2\n      swap1\n      tag_13\n      jump\t// in\n    tag_17:\n        /* \"libraries/operators.sol\":2166:2183  uint prod = a * b */\n      swap1\n      pop\n        /* \"libraries/operators.sol\":2201:2205  prod */\n      dup1\n        /* \"libraries/operators.sol\":2194:2205  return prod */\n      swap2\n      pop\n      pop\n        /* \"libraries/operators.sol\":2011:2213  function mul(uint a, uint b) internal pure returns(uint)... */\n      swap3\n      swap2\n      pop\n      pop\n      jump\t// out\n        /* \"#utility.yul\":7:84   */\n    tag_18:\n        /* \"#utility.yul\":44:51   */\n      0x00\n        /* \"#utility.yul\":73:78   */\n      dup2\n        /* \"#utility.yul\":62:78   */\n      swap1\n      pop\n        /* \"#utility.yul\":7:84   */\n      swap2\n      swap1\n      pop\n      jump\t// out\n        /* \"#utility.yul\":90:208   */\n    tag_19:\n        /* \"#utility.yul\":177:201   */\n      tag_27\n        /* \"#utility.yul\":195:200   */\n      dup2\n        /* \"#utility.yul\":177:201   */\n      tag_18\n      jump\t// in\n    tag_27:\n        /* \"#utility.yul\":172:175   */\n      dup3\n        /* \"#utility.yul\":165:202   */\n      mstore\n        /* \"#utility.yul\":90:208   */\n      pop\n      pop\n      jump\t// out\n        /* \"#utility.yul\":214:436   */\n    tag_7:\n        /* \"#utility.yul\":307:311   */\n      0x00\n        /* \"#utility.yul\":345:347   */\n      0x20\n        /* \"#utility.yul\":334:343   */\n      dup3\n        /* \"#utility.yul\":330:348   */\n      add\n        /* \"#utility.yul\":322:348   */\n      swap1\n      pop\n        /* \"#utility.yul\":358:429   */\n      tag_29\n        /* \"#utility.yul\":426:427   */\n      0x00\n        /* \"#utility.yul\":415:424   */\n      dup4\n        /* \"#utility.yul\":411:428   */\n      add\n        /* \"#utility.yul\":402:408   */\n      dup5\n        /* \"#utility.yul\":358:429   */\n      tag_19\n      jump\t// in\n    tag_29:\n        /* \"#utility.yul\":214:436   */\n      swap3\n      swap2\n      pop\n      pop\n      jump\t// out\n        /* \"#utility.yul\":442:622   */\n    tag_20:\n        /* \"#utility.yul\":490:567   */\n      0x4e487b7100000000000000000000000000000000000000000000000000000000\n        /* \"#utility.yul\":487:488   */\n      0x00\n        /* \"#utility.yul\":480:568   */\n      mstore\n        /* \"#utility.yul\":587:591   */\n      0x11\n        /* \"#utility.yul\":584:585   */\n      0x04\n        /* \"#utility.yul\":577:592   */\n      mstore\n        /* \"#utility.yul\":611:615   */\n      0x24\n        /* \"#utility.yul\":608:609   */\n      0x00\n        /* \"#utility.yul\":601:616   */\n      revert\n        /* \"#utility.yul\":628:976   */\n    tag_13:\n        /* \"#utility.yul\":668:675   */\n      0x00\n        /* \"#utility.yul\":691:711   */\n      tag_32\n        /* \"#utility.yul\":709:710   */\n      dup3\n        /* \"#utility.yul\":691:711   */\n      tag_18\n      jump\t// in\n    tag_32:\n        /* \"#utility.yul\":686:711   */\n      swap2\n      pop\n        /* \"#utility.yul\":725:745   */\n      tag_33\n        /* \"#utility.yul\":743:744   */\n      dup4\n        /* \"#utility.yul\":725:745   */\n      tag_18\n      jump\t// in\n    tag_33:\n        /* \"#utility.yul\":720:745   */\n      swap3\n      pop\n        /* \"#utility.yul\":913:914   */\n      dup2\n        /* \"#utility.yul\":845:911   */\n      0xffffffffffffffffffffffffffffffffffffffffffffffffffffffffffffffff\n        /* \"#utility.yul\":841:915   */\n      div\n        /* \"#utility.yul\":838:839   */\n      dup4\n        /* \"#utility.yul\":835:916   */\n      gt\n        /* \"#utility.yul\":830:831   */\n      dup3\n        /* \"#utility.yul\":823:832   */\n      iszero\n        /* \"#utility.yul\":816:833   */\n      iszero\n        /* \"#utility.yul\":812:917   */\n      and\n        /* \"#utility.yul\":809:940   */\n      iszero\n      tag_34\n      jumpi\n        /* \"#utility.yul\":920:938   */\n      tag_35\n      tag_20\n      jump\t// in\n    tag_35:\n        /* \"#utility.yul\":809:940   */\n    tag_34:\n        /* \"#utility.yul\":968:969   */\n      dup3\n        /* \"#utility.yul\":965:966   */\n      dup3\n        /* \"#utility.yul\":961:970   */\n      mul\n        /* \"#utility.yul\":950:970   */\n      swap1\n      pop\n        /* \"#utility.yul\":628:976   */\n      swap3\n      swap2\n      pop\n      pop\n      jump\t// out\n        /* \"#utility.yul\":982:1151   */\n    tag_21:\n        /* \"#utility.yul\":1066:1077   */\n      0x00\n        /* \"#utility.yul\":1100:1106   */\n      dup3\n        /* \"#utility.yul\":1095:1098   */\n      dup3\n        /* \"#utility.yul\":1088:1107   */\n      mstore\n        /* \"#utility.yul\":1140:1144   */\n      0x20\n        /* \"#utility.yul\":1135:1138   */\n      dup3\n        /* \"#utility.yul\":1131:1145   */\n      add\n        /* \"#utility.yul\":1116:1145   */\n      swap1\n      pop\n        /* \"#utility.yul\":982:1151   */\n      swap3\n      swap2\n      pop\n      pop\n      jump\t// out\n        /* \"#utility.yul\":1157:1338   */\n    tag_22:\n        /* \"#utility.yul\":1297:1330   */\n      0x4c696272617279204572726f722c204e756d626572206f766572666c6f772e00\n        /* \"#utility.yul\":1293:1294   */\n      0x00\n        /* \"#utility.yul\":1285:1291   */\n      dup3\n        /* \"#utility.yul\":1281:1295   */\n      add\n        /* \"#utility.yul\":1274:1331   */\n      mstore\n        /* \"#utility.yul\":1157:1338   */\n      pop\n      jump\t// out\n        /* \"#utility.yul\":1344:1710   */\n    tag_23:\n        /* \"#utility.yul\":1486:1489   */\n      0x00\n        /* \"#utility.yul\":1507:1574   */\n      tag_39\n        /* \"#utility.yul\":1571:1573   */\n      0x1f\n        /* \"#utility.yul\":1566:1569   */\n      dup4\n        /* \"#utility.yul\":1507:1574   */\n      tag_21\n      jump\t// in\n    tag_39:\n        /* \"#utility.yul\":1500:1574   */\n      swap2\n      pop\n        /* \"#utility.yul\":1583:1676   */\n      tag_40\n        /* \"#utility.yul\":1672:1675   */\n      dup3\n        /* \"#utility.yul\":1583:1676   */\n      tag_22\n      jump\t// in\n    tag_40:\n        /* \"#utility.yul\":1701:1703   */\n      0x20\n        /* \"#utility.yul\":1696:1699   */\n      dup3\n        /* \"#utility.yul\":1692:1704   */\n      add\n        /* \"#utility.yul\":1685:1704   */\n      swap1\n      pop\n        /* \"#utility.yul\":1344:1710   */\n      swap2\n      swap1\n      pop\n      jump\t// out\n        /* \"#utility.yul\":1716:2135   */\n    tag_16:\n        /* \"#utility.yul\":1882:1886   */\n      0x00\n        /* \"#utility.yul\":1920:1922   */\n      0x20\n        /* \"#utility.yul\":1909:1918   */\n      dup3\n        /* \"#utility.yul\":1905:1923   */\n      add\n        /* \"#utility.yul\":1897:1923   */\n      swap1\n      pop\n        /* \"#utility.yul\":1969:1978   */\n      dup2\n        /* \"#utility.yul\":1963:1967   */\n      dup2\n        /* \"#utility.yul\":1959:1979   */\n      sub\n        /* \"#utility.yul\":1955:1956   */\n      0x00\n        /* \"#utility.yul\":1944:1953   */\n      dup4\n        /* \"#utility.yul\":1940:1957   */\n      add\n        /* \"#utility.yul\":1933:1980   */\n      mstore\n        /* \"#utility.yul\":1997:2128   */\n      tag_42\n        /* \"#utility.yul\":2123:2127   */\n      dup2\n        /* \"#utility.yul\":1997:2128   */\n      tag_23\n      jump\t// in\n    tag_42:\n        /* \"#utility.yul\":1989:2128   */\n      swap1\n      pop\n        /* \"#utility.yul\":1716:2135   */\n      swap2\n      swap1\n      pop\n      jump\t// out\n\n    auxdata: 0xa2646970667358221220cb3b0a281eedf062a895e3b51a1caf64937e10226b85b53c8b9735929a6e9f9d64736f6c634300080d0033\n}\n",
				"bytecode": {
					"linkReferences": {},
					"object": "608060405234801561001057600080fd5b5061025b806100206000396000f3fe608060405234801561001057600080fd5b506004361061002b5760003560e01c8063f3593cd014610030575b600080fd5b61003861004e565b6040516100459190610104565b60405180910390f35b600061005c6043605a610061565b905090565b60007fffffffffffffffffffffffffffffffffffffffffffffffffffffffffffffffff8284610090919061014e565b11156100d1576040517f08c379a00000000000000000000000000000000000000000000000000000000081526004016100c890610205565b60405180910390fd5b600082846100df919061014e565b90508091505092915050565b6000819050919050565b6100fe816100eb565b82525050565b600060208201905061011960008301846100f5565b92915050565b7f4e487b7100000000000000000000000000000000000000000000000000000000600052601160045260246000fd5b6000610159826100eb565b9150610164836100eb565b9250817fffffffffffffffffffffffffffffffffffffffffffffffffffffffffffffffff048311821515161561019d5761019c61011f565b5b828202905092915050565b600082825260208201905092915050565b7f4c696272617279204572726f722c204e756d626572206f766572666c6f772e00600082015250565b60006101ef601f836101a8565b91506101fa826101b9565b602082019050919050565b6000602082019050818103600083015261021e816101e2565b905091905056fea2646970667358221220cb3b0a281eedf062a895e3b51a1caf64937e10226b85b53c8b9735929a6e9f9d64736f6c634300080d0033",
					"opcodes": "PUSH1 0x80 PUSH1 0x40 MSTORE CALLVALUE DUP1 ISZERO PUSH2 0x10 JUMPI PUSH1 0x0 DUP1 REVERT JUMPDEST POP PUSH2 0x25B DUP1 PUSH2 0x20 PUSH1 0x0 CODECOPY PUSH1 0x0 RETURN INVALID PUSH1 0x80 PUSH1 0x40 MSTORE CALLVALUE DUP1 ISZERO PUSH2 0x10 JUMPI PUSH1 0x0 DUP1 REVERT JUMPDEST POP PUSH1 0x4 CALLDATASIZE LT PUSH2 0x2B JUMPI PUSH1 0x0 CALLDATALOAD PUSH1 0xE0 SHR DUP1 PUSH4 0xF3593CD0 EQ PUSH2 0x30 JUMPI JUMPDEST PUSH1 0x0 DUP1 REVERT JUMPDEST PUSH2 0x38 PUSH2 0x4E JUMP JUMPDEST PUSH1 0x40 MLOAD PUSH2 0x45 SWAP2 SWAP1 PUSH2 0x104 JUMP JUMPDEST PUSH1 0x40 MLOAD DUP1 SWAP2 SUB SWAP1 RETURN JUMPDEST PUSH1 0x0 PUSH2 0x5C PUSH1 0x43 PUSH1 0x5A PUSH2 0x61 JUMP JUMPDEST SWAP1 POP SWAP1 JUMP JUMPDEST PUSH1 0x0 PUSH32 0xFFFFFFFFFFFFFFFFFFFFFFFFFFFFFFFFFFFFFFFFFFFFFFFFFFFFFFFFFFFFFFFF DUP3 DUP5 PUSH2 0x90 SWAP2 SWAP1 PUSH2 0x14E JUMP JUMPDEST GT ISZERO PUSH2 0xD1 JUMPI PUSH1 0x40 MLOAD PUSH32 0x8C379A000000000000000000000000000000000000000000000000000000000 DUP2 MSTORE PUSH1 0x4 ADD PUSH2 0xC8 SWAP1 PUSH2 0x205 JUMP JUMPDEST PUSH1 0x40 MLOAD DUP1 SWAP2 SUB SWAP1 REVERT JUMPDEST PUSH1 0x0 DUP3 DUP5 PUSH2 0xDF SWAP2 SWAP1 PUSH2 0x14E JUMP JUMPDEST SWAP1 POP DUP1 SWAP2 POP POP SWAP3 SWAP2 POP POP JUMP JUMPDEST PUSH1 0x0 DUP2 SWAP1 POP SWAP2 SWAP1 POP JUMP JUMPDEST PUSH2 0xFE DUP2 PUSH2 0xEB JUMP JUMPDEST DUP3 MSTORE POP POP JUMP JUMPDEST PUSH1 0x0 PUSH1 0x20 DUP3 ADD SWAP1 POP PUSH2 0x119 PUSH1 0x0 DUP4 ADD DUP5 PUSH2 0xF5 JUMP JUMPDEST SWAP3 SWAP2 POP POP JUMP JUMPDEST PUSH32 0x4E487B7100000000000000000000000000000000000000000000000000000000 PUSH1 0x0 MSTORE PUSH1 0x11 PUSH1 0x4 MSTORE PUSH1 0x24 PUSH1 0x0 REVERT JUMPDEST PUSH1 0x0 PUSH2 0x159 DUP3 PUSH2 0xEB JUMP JUMPDEST SWAP2 POP PUSH2 0x164 DUP4 PUSH2 0xEB JUMP JUMPDEST SWAP3 POP DUP2 PUSH32 0xFFFFFFFFFFFFFFFFFFFFFFFFFFFFFFFFFFFFFFFFFFFFFFFFFFFFFFFFFFFFFFFF DIV DUP4 GT DUP3 ISZERO ISZERO AND ISZERO PUSH2 0x19D JUMPI PUSH2 0x19C PUSH2 0x11F JUMP JUMPDEST JUMPDEST DUP3 DUP3 MUL SWAP1 POP SWAP3 SWAP2 POP POP JUMP JUMPDEST PUSH1 0x0 DUP3 DUP3 MSTORE PUSH1 0x20 DUP3 ADD SWAP1 POP SWAP3 SWAP2 POP POP JUMP JUMPDEST PUSH32 0x4C696272617279204572726F722C204E756D626572206F766572666C6F772E00 PUSH1 0x0 DUP3 ADD MSTORE POP JUMP JUMPDEST PUSH1 0x0 PUSH2 0x1EF PUSH1 0x1F DUP4 PUSH2 0x1A8 JUMP JUMPDEST SWAP2 POP PUSH2 0x1FA DUP3 PUSH2 0x1B9 JUMP JUMPDEST PUSH1 0x20 DUP3 ADD SWAP1 POP SWAP2 SWAP1 POP JUMP JUMPDEST PUSH1 0x0 PUSH1 0x20 DUP3 ADD SWAP1 POP DUP2 DUP2 SUB PUSH1 0x0 DUP4 ADD MSTORE PUSH2 0x21E DUP2 PUSH2 0x1E2 JUMP JUMPDEST SWAP1 POP SWAP2 SWAP1 POP JUMP INVALID LOG2 PUSH5 0x6970667358 0x22 SLT KECCAK256 0xCB EXTCODESIZE EXP 0x28 0x1E 0xED CREATE PUSH3 0xA895E3 0xB5 BYTE SHR 0xAF PUSH5 0x937E10226B DUP6 0xB5 EXTCODECOPY DUP12 SWAP8 CALLDATALOAD SWAP3 SWAP11 PUSH15 0x9F9D64736F6C634300080D00330000 "
				},
				"gasEstimates": {
					"creation": {
						"codeDepositCost": "120600",
						"executionCost": "165",
						"totalCost": "120765"
					},
					"external": {
						"multiply()": "infinite"
					}
				},
				"methodIdentifiers": {
					"multiply()": "f3593cd0"
				}
			},
			"userdoc": {
				"kind": "user",
				"methods": {},
				"version": 1
			}
		}
	}
}