{"abi":[{"inputs":[{"internalType":"address","name":"_nft_address","type":"address"},{"internalType":"uint256","name":"_nft_id","type":"uint256"}],"stateMutability":"payable","type":"constructor","name":"constructor"},{"stateMutability":"payable","type":"fallback"},{"inputs":[],"name":"bid","outputs":[],"stateMutability":"payable","type":"function"},{"inputs":[],"name":"end","outputs":[],"stateMutability":"payable","type":"function"},{"inputs":[],"name":"withdraw","outputs":[],"stateMutability":"payable","type":"function"},{"stateMutability":"payable","type":"receive"}],"bytecode":"60806040819052600180546001600160401b03191662093a801790556108723881900390819083398101604081905261003791610088565b600580546001600160a01b039093166001600160a01b0319938416179055600655346007556008805490911633179055426000556001805460ff60401b1916680100000000000000001790556100c2565b6000806040838503121561009b57600080fd5b82516001600160a01b03811681146100b257600080fd5b6020939093015192949293505050565b6107a1806100d16000396000f3fe6080604052600436106100355760003560e01c80631998aeef1461003e5780633ccfd60b14610046578063efbe1c1c1461004e57005b3661003c57005b005b61003c610056565b61003c6102f3565b61003c610533565b3361007c5760405162461bcd60e51b8152600401610073906106e6565b60405180910390fd5b600154600160481b900460ff16156100a65760405162461bcd60e51b81526004016100739061071d565b6001805460ff60481b198116600160481b17909155600054429167ffffffffffffffff166100d48183610745565b83106100ed576001805468ff0000000000000000191690555b6100f78183610745565b83106101385760405162461bcd60e51b815260206004820152601060248201526f20bab1ba34b7b71032bc3834b932b21760811b6044820152606401610073565b60015468010000000000000000900460ff166101895760405162461bcd60e51b815260206004820152601060248201526f20bab1ba34b7b71032bc3834b932b21760811b6044820152606401610073565b6008546007546001600160a01b0390911690338214156101eb5760405162461bcd60e51b815260206004820152601760248201527f596f752063616e27742062696420796f7572206e66742e0000000000000000006044820152606401610073565b8034101561023b5760405162461bcd60e51b815260206004820152601d60248201527f5072696365206c6f776572207468616e206d696e696d756d206269642e0000006044820152606401610073565b346000818152600360205260409020546001600160a01b0316156102a15760405162461bcd60e51b815260206004820152601d60248201527f4269642074616b656e2c206d616b65206120756e69717565206269642e0000006044820152606401610073565b6002548111156102b15760028190555b600081815260036020908152604080832080546001600160a01b031916339081179091558352600490915290205550506001805460ff60481b19169055505050565b336103105760405162461bcd60e51b8152600401610073906106e6565b600154600160481b900460ff161561033a5760405162461bcd60e51b81526004016100739061071d565b6001805460ff60481b1916600160481b1790556008546001600160a01b0316806103613390565b6001600160a01b031614156103c45760405162461bcd60e51b815260206004820152602360248201527f596f752063616e2774207769746864726177206f722062696420796f7572206e604482015262333a1760e91b6064820152608401610073565b336000908152600460205260409020546104205760405162461bcd60e51b815260206004820152601860248201527f596f752068617665206e6f74206d6164652061206269642e00000000000000006044820152606401610073565b336001600160a01b03166003600061043760025490565b81526020810191909152604001600020546001600160a01b031614156104b85760405162461bcd60e51b815260206004820152603060248201527f596f7520617265207468652068696768657374206269646465722c20796f752060448201526f31b0b73737ba103bb4ba34323930bb9760811b6064820152608401610073565b33600081815260046020526040808220549051909183916108fc84150291849190818181858888f193505050501580156104f6573d6000803e3d6000fd5b50336000908152600460209081526040808320839055928252600390522080546001600160a01b031916905550506001805460ff60481b19169055565b336105505760405162461bcd60e51b8152600401610073906106e6565b600154600160481b900460ff161561057a5760405162461bcd60e51b81526004016100739061071d565b6001805460ff60481b1916600160481b1790556008546001600160a01b0316806105a13390565b6001600160a01b0316146105f75760405162461bcd60e51b815260206004820152601e60248201527f596f752063616e6e6f742063616c6c20746869732066756e6374696f6e2e00006044820152606401610073565b600061060260025490565b90506000811161064b5760405162461bcd60e51b815260206004820152601460248201527327379037b732903134b2103cb7bab91037333a1760611b6044820152606401610073565b60008181526003602052604090819020546005546006549251632142170760e11b81526001600160a01b0386811660048301529283166024820181905260448201949094529116906342842e0e90606401600060405180830381600087803b1580156106b657600080fd5b505af11580156106ca573d6000803e3d6000fd5b50506001805469ffff0000000000000000191690555050505050565b60208082526018908201527f496e76616c69642063616c6c696e6720616464726573732e0000000000000000604082015260600190565b6020808252600e908201526d4e6f2072652d656e7472616e637960901b604082015260600190565b6000821982111561076657634e487b7160e01b600052601160045260246000fd5b50019056fea2646970667358221220601fd4d815f20e705a3c89fa7f2df5e3e1985daa2537afa994d00354624fe4a364736f6c634300080c0033","bytecodeSha1":"11d3eda0fd3ad73355ad455e90d91cff2174e5d6","compiler":{"evm_version":"istanbul","optimizer":{"enabled":true,"runs":200},"version":"0.8.12+commit.f00d7308"},"contractName":"MyAuction","language":"Solidity","natspec":{"kind":"dev","methods":{},"version":1},"opcodes":"PUSH1 0x80 PUSH1 0x40 MSTORE PUSH1 0x4 CALLDATASIZE LT PUSH2 0x35 JUMPI PUSH1 0x0 CALLDATALOAD PUSH1 0xE0 SHR DUP1 PUSH4 0x1998AEEF EQ PUSH2 0x3E JUMPI DUP1 PUSH4 0x3CCFD60B EQ PUSH2 0x46 JUMPI DUP1 PUSH4 0xEFBE1C1C EQ PUSH2 0x4E JUMPI STOP JUMPDEST CALLDATASIZE PUSH2 0x3C JUMPI STOP JUMPDEST STOP JUMPDEST PUSH2 0x3C PUSH2 0x56 JUMP JUMPDEST PUSH2 0x3C PUSH2 0x2F3 JUMP JUMPDEST PUSH2 0x3C PUSH2 0x533 JUMP JUMPDEST CALLER PUSH2 0x7C JUMPI PUSH1 0x40 MLOAD PUSH3 0x461BCD PUSH1 0xE5 SHL DUP2 MSTORE PUSH1 0x4 ADD PUSH2 0x73 SWAP1 PUSH2 0x6E6 JUMP JUMPDEST PUSH1 0x40 MLOAD DUP1 SWAP2 SUB SWAP1 REVERT JUMPDEST PUSH1 0x1 SLOAD PUSH1 0x1 PUSH1 0x48 SHL SWAP1 DIV PUSH1 0xFF AND ISZERO PUSH2 0xA6 JUMPI PUSH1 0x40 MLOAD PUSH3 0x461BCD PUSH1 0xE5 SHL DUP2 MSTORE PUSH1 0x4 ADD PUSH2 0x73 SWAP1 PUSH2 0x71D JUMP JUMPDEST PUSH1 0x1 DUP1 SLOAD PUSH1 0xFF PUSH1 0x48 SHL NOT DUP2 AND PUSH1 0x1 PUSH1 0x48 SHL OR SWAP1 SWAP2 SSTORE PUSH1 0x0 SLOAD TIMESTAMP SWAP2 PUSH8 0xFFFFFFFFFFFFFFFF AND PUSH2 0xD4 DUP2 DUP4 PUSH2 0x745 JUMP JUMPDEST DUP4 LT PUSH2 0xED JUMPI PUSH1 0x1 DUP1 SLOAD PUSH9 0xFF0000000000000000 NOT AND SWAP1 SSTORE JUMPDEST PUSH2 0xF7 DUP2 DUP4 PUSH2 0x745 JUMP JUMPDEST DUP4 LT PUSH2 0x138 JUMPI PUSH1 0x40 MLOAD PUSH3 0x461BCD PUSH1 0xE5 SHL DUP2 MSTORE PUSH1 0x20 PUSH1 0x4 DUP3 ADD MSTORE PUSH1 0x10 PUSH1 0x24 DUP3 ADD MSTORE PUSH16 0x20BAB1BA34B7B71032BC3834B932B217 PUSH1 0x81 SHL PUSH1 0x44 DUP3 ADD MSTORE PUSH1 0x64 ADD PUSH2 0x73 JUMP JUMPDEST PUSH1 0x1 SLOAD PUSH9 0x10000000000000000 SWAP1 DIV PUSH1 0xFF AND PUSH2 0x189 JUMPI PUSH1 0x40 MLOAD PUSH3 0x461BCD PUSH1 0xE5 SHL DUP2 MSTORE PUSH1 0x20 PUSH1 0x4 DUP3 ADD MSTORE PUSH1 0x10 PUSH1 0x24 DUP3 ADD MSTORE PUSH16 0x20BAB1BA34B7B71032BC3834B932B217 PUSH1 0x81 SHL PUSH1 0x44 DUP3 ADD MSTORE PUSH1 0x64 ADD PUSH2 0x73 JUMP JUMPDEST PUSH1 0x8 SLOAD PUSH1 0x7 SLOAD PUSH1 0x1 PUSH1 0x1 PUSH1 0xA0 SHL SUB SWAP1 SWAP2 AND SWAP1 CALLER DUP3 EQ ISZERO PUSH2 0x1EB JUMPI PUSH1 0x40 MLOAD PUSH3 0x461BCD PUSH1 0xE5 SHL DUP2 MSTORE PUSH1 0x20 PUSH1 0x4 DUP3 ADD MSTORE PUSH1 0x17 PUSH1 0x24 DUP3 ADD MSTORE PUSH32 0x596F752063616E27742062696420796F7572206E66742E000000000000000000 PUSH1 0x44 DUP3 ADD MSTORE PUSH1 0x64 ADD PUSH2 0x73 JUMP JUMPDEST DUP1 CALLVALUE LT ISZERO PUSH2 0x23B JUMPI PUSH1 0x40 MLOAD PUSH3 0x461BCD PUSH1 0xE5 SHL DUP2 MSTORE PUSH1 0x20 PUSH1 0x4 DUP3 ADD MSTORE PUSH1 0x1D PUSH1 0x24 DUP3 ADD MSTORE PUSH32 0x5072696365206C6F776572207468616E206D696E696D756D206269642E000000 PUSH1 0x44 DUP3 ADD MSTORE PUSH1 0x64 ADD PUSH2 0x73 JUMP JUMPDEST CALLVALUE PUSH1 0x0 DUP2 DUP2 MSTORE PUSH1 0x3 PUSH1 0x20 MSTORE PUSH1 0x40 SWAP1 KECCAK256 SLOAD PUSH1 0x1 PUSH1 0x1 PUSH1 0xA0 SHL SUB AND ISZERO PUSH2 0x2A1 JUMPI PUSH1 0x40 MLOAD PUSH3 0x461BCD PUSH1 0xE5 SHL DUP2 MSTORE PUSH1 0x20 PUSH1 0x4 DUP3 ADD MSTORE PUSH1 0x1D PUSH1 0x24 DUP3 ADD MSTORE PUSH32 0x4269642074616B656E2C206D616B65206120756E69717565206269642E000000 PUSH1 0x44 DUP3 ADD MSTORE PUSH1 0x64 ADD PUSH2 0x73 JUMP JUMPDEST PUSH1 0x2 SLOAD DUP2 GT ISZERO PUSH2 0x2B1 JUMPI PUSH1 0x2 DUP2 SWAP1 SSTORE JUMPDEST PUSH1 0x0 DUP2 DUP2 MSTORE PUSH1 0x3 PUSH1 0x20 SWAP1 DUP2 MSTORE PUSH1 0x40 DUP1 DUP4 KECCAK256 DUP1 SLOAD PUSH1 0x1 PUSH1 0x1 PUSH1 0xA0 SHL SUB NOT AND CALLER SWAP1 DUP2 OR SWAP1 SWAP2 SSTORE DUP4 MSTORE PUSH1 0x4 SWAP1 SWAP2 MSTORE SWAP1 KECCAK256 SSTORE POP POP PUSH1 0x1 DUP1 SLOAD PUSH1 0xFF PUSH1 0x48 SHL NOT AND SWAP1 SSTORE POP POP POP JUMP JUMPDEST CALLER PUSH2 0x310 JUMPI PUSH1 0x40 MLOAD PUSH3 0x461BCD PUSH1 0xE5 SHL DUP2 MSTORE PUSH1 0x4 ADD PUSH2 0x73 SWAP1 PUSH2 0x6E6 JUMP JUMPDEST PUSH1 0x1 SLOAD PUSH1 0x1 PUSH1 0x48 SHL SWAP1 DIV PUSH1 0xFF AND ISZERO PUSH2 0x33A JUMPI PUSH1 0x40 MLOAD PUSH3 0x461BCD PUSH1 0xE5 SHL DUP2 MSTORE PUSH1 0x4 ADD PUSH2 0x73 SWAP1 PUSH2 0x71D JUMP JUMPDEST PUSH1 0x1 DUP1 SLOAD PUSH1 0xFF PUSH1 0x48 SHL NOT AND PUSH1 0x1 PUSH1 0x48 SHL OR SWAP1 SSTORE PUSH1 0x8 SLOAD PUSH1 0x1 PUSH1 0x1 PUSH1 0xA0 SHL SUB AND DUP1 PUSH2 0x361 CALLER SWAP1 JUMP JUMPDEST PUSH1 0x1 PUSH1 0x1 PUSH1 0xA0 SHL SUB AND EQ ISZERO PUSH2 0x3C4 JUMPI PUSH1 0x40 MLOAD PUSH3 0x461BCD PUSH1 0xE5 SHL DUP2 MSTORE PUSH1 0x20 PUSH1 0x4 DUP3 ADD MSTORE PUSH1 0x23 PUSH1 0x24 DUP3 ADD MSTORE PUSH32 0x596F752063616E2774207769746864726177206F722062696420796F7572206E PUSH1 0x44 DUP3 ADD MSTORE PUSH3 0x333A17 PUSH1 0xE9 SHL PUSH1 0x64 DUP3 ADD MSTORE PUSH1 0x84 ADD PUSH2 0x73 JUMP JUMPDEST CALLER PUSH1 0x0 SWAP1 DUP2 MSTORE PUSH1 0x4 PUSH1 0x20 MSTORE PUSH1 0x40 SWAP1 KECCAK256 SLOAD PUSH2 0x420 JUMPI PUSH1 0x40 MLOAD PUSH3 0x461BCD PUSH1 0xE5 SHL DUP2 MSTORE PUSH1 0x20 PUSH1 0x4 DUP3 ADD MSTORE PUSH1 0x18 PUSH1 0x24 DUP3 ADD MSTORE PUSH32 0x596F752068617665206E6F74206D6164652061206269642E0000000000000000 PUSH1 0x44 DUP3 ADD MSTORE PUSH1 0x64 ADD PUSH2 0x73 JUMP JUMPDEST CALLER PUSH1 0x1 PUSH1 0x1 PUSH1 0xA0 SHL SUB AND PUSH1 0x3 PUSH1 0x0 PUSH2 0x437 PUSH1 0x2 SLOAD SWAP1 JUMP JUMPDEST DUP2 MSTORE PUSH1 0x20 DUP2 ADD SWAP2 SWAP1 SWAP2 MSTORE PUSH1 0x40 ADD PUSH1 0x0 KECCAK256 SLOAD PUSH1 0x1 PUSH1 0x1 PUSH1 0xA0 SHL SUB AND EQ ISZERO PUSH2 0x4B8 JUMPI PUSH1 0x40 MLOAD PUSH3 0x461BCD PUSH1 0xE5 SHL DUP2 MSTORE PUSH1 0x20 PUSH1 0x4 DUP3 ADD MSTORE PUSH1 0x30 PUSH1 0x24 DUP3 ADD MSTORE PUSH32 0x596F7520617265207468652068696768657374206269646465722C20796F7520 PUSH1 0x44 DUP3 ADD MSTORE PUSH16 0x31B0B73737BA103BB4BA34323930BB97 PUSH1 0x81 SHL PUSH1 0x64 DUP3 ADD MSTORE PUSH1 0x84 ADD PUSH2 0x73 JUMP JUMPDEST CALLER PUSH1 0x0 DUP2 DUP2 MSTORE PUSH1 0x4 PUSH1 0x20 MSTORE PUSH1 0x40 DUP1 DUP3 KECCAK256 SLOAD SWAP1 MLOAD SWAP1 SWAP2 DUP4 SWAP2 PUSH2 0x8FC DUP5 ISZERO MUL SWAP2 DUP5 SWAP2 SWAP1 DUP2 DUP2 DUP2 DUP6 DUP9 DUP9 CALL SWAP4 POP POP POP POP ISZERO DUP1 ISZERO PUSH2 0x4F6 JUMPI RETURNDATASIZE PUSH1 0x0 DUP1 RETURNDATACOPY RETURNDATASIZE PUSH1 0x0 REVERT JUMPDEST POP CALLER PUSH1 0x0 SWAP1 DUP2 MSTORE PUSH1 0x4 PUSH1 0x20 SWAP1 DUP2 MSTORE PUSH1 0x40 DUP1 DUP4 KECCAK256 DUP4 SWAP1 SSTORE SWAP3 DUP3 MSTORE PUSH1 0x3 SWAP1 MSTORE KECCAK256 DUP1 SLOAD PUSH1 0x1 PUSH1 0x1 PUSH1 0xA0 SHL SUB NOT AND SWAP1 SSTORE POP POP PUSH1 0x1 DUP1 SLOAD PUSH1 0xFF PUSH1 0x48 SHL NOT AND SWAP1 SSTORE JUMP JUMPDEST CALLER PUSH2 0x550 JUMPI PUSH1 0x40 MLOAD PUSH3 0x461BCD PUSH1 0xE5 SHL DUP2 MSTORE PUSH1 0x4 ADD PUSH2 0x73 SWAP1 PUSH2 0x6E6 JUMP JUMPDEST PUSH1 0x1 SLOAD PUSH1 0x1 PUSH1 0x48 SHL SWAP1 DIV PUSH1 0xFF AND ISZERO PUSH2 0x57A JUMPI PUSH1 0x40 MLOAD PUSH3 0x461BCD PUSH1 0xE5 SHL DUP2 MSTORE PUSH1 0x4 ADD PUSH2 0x73 SWAP1 PUSH2 0x71D JUMP JUMPDEST PUSH1 0x1 DUP1 SLOAD PUSH1 0xFF PUSH1 0x48 SHL NOT AND PUSH1 0x1 PUSH1 0x48 SHL OR SWAP1 SSTORE PUSH1 0x8 SLOAD PUSH1 0x1 PUSH1 0x1 PUSH1 0xA0 SHL SUB AND DUP1 PUSH2 0x5A1 CALLER SWAP1 JUMP JUMPDEST PUSH1 0x1 PUSH1 0x1 PUSH1 0xA0 SHL SUB AND EQ PUSH2 0x5F7 JUMPI PUSH1 0x40 MLOAD PUSH3 0x461BCD PUSH1 0xE5 SHL DUP2 MSTORE PUSH1 0x20 PUSH1 0x4 DUP3 ADD MSTORE PUSH1 0x1E PUSH1 0x24 DUP3 ADD MSTORE PUSH32 0x596F752063616E6E6F742063616C6C20746869732066756E6374696F6E2E0000 PUSH1 0x44 DUP3 ADD MSTORE PUSH1 0x64 ADD PUSH2 0x73 JUMP JUMPDEST PUSH1 0x0 PUSH2 0x602 PUSH1 0x2 SLOAD SWAP1 JUMP JUMPDEST SWAP1 POP PUSH1 0x0 DUP2 GT PUSH2 0x64B JUMPI PUSH1 0x40 MLOAD PUSH3 0x461BCD PUSH1 0xE5 SHL DUP2 MSTORE PUSH1 0x20 PUSH1 0x4 DUP3 ADD MSTORE PUSH1 0x14 PUSH1 0x24 DUP3 ADD MSTORE PUSH20 0x27379037B732903134B2103CB7BAB91037333A17 PUSH1 0x61 SHL PUSH1 0x44 DUP3 ADD MSTORE PUSH1 0x64 ADD PUSH2 0x73 JUMP JUMPDEST PUSH1 0x0 DUP2 DUP2 MSTORE PUSH1 0x3 PUSH1 0x20 MSTORE PUSH1 0x40 SWAP1 DUP2 SWAP1 KECCAK256 SLOAD PUSH1 0x5 SLOAD PUSH1 0x6 SLOAD SWAP3 MLOAD PUSH4 0x21421707 PUSH1 0xE1 SHL DUP2 MSTORE PUSH1 0x1 PUSH1 0x1 PUSH1 0xA0 SHL SUB DUP7 DUP2 AND PUSH1 0x4 DUP4 ADD MSTORE SWAP3 DUP4 AND PUSH1 0x24 DUP3 ADD DUP2 SWAP1 MSTORE PUSH1 0x44 DUP3 ADD SWAP5 SWAP1 SWAP5 MSTORE SWAP2 AND SWAP1 PUSH4 0x42842E0E SWAP1 PUSH1 0x64 ADD PUSH1 0x0 PUSH1 0x40 MLOAD DUP1 DUP4 SUB DUP2 PUSH1 0x0 DUP8 DUP1 EXTCODESIZE ISZERO DUP1 ISZERO PUSH2 0x6B6 JUMPI PUSH1 0x0 DUP1 REVERT JUMPDEST POP GAS CALL ISZERO DUP1 ISZERO PUSH2 0x6CA JUMPI RETURNDATASIZE PUSH1 0x0 DUP1 RETURNDATACOPY RETURNDATASIZE PUSH1 0x0 REVERT JUMPDEST POP POP PUSH1 0x1 DUP1 SLOAD PUSH10 0xFFFF0000000000000000 NOT AND SWAP1 SSTORE POP POP POP POP POP JUMP JUMPDEST PUSH1 0x20 DUP1 DUP3 MSTORE PUSH1 0x18 SWAP1 DUP3 ADD MSTORE PUSH32 0x496E76616C69642063616C6C696E6720616464726573732E0000000000000000 PUSH1 0x40 DUP3 ADD MSTORE PUSH1 0x60 ADD SWAP1 JUMP JUMPDEST PUSH1 0x20 DUP1 DUP3 MSTORE PUSH1 0xE SWAP1 DUP3 ADD MSTORE PUSH14 0x4E6F2072652D656E7472616E6379 PUSH1 0x90 SHL PUSH1 0x40 DUP3 ADD MSTORE PUSH1 0x60 ADD SWAP1 JUMP JUMPDEST PUSH1 0x0 DUP3 NOT DUP3 GT ISZERO PUSH2 0x766 JUMPI PUSH4 0x4E487B71 PUSH1 0xE0 SHL PUSH1 0x0 MSTORE PUSH1 0x11 PUSH1 0x4 MSTORE PUSH1 0x24 PUSH1 0x0 REVERT JUMPDEST POP ADD SWAP1 JUMP INVALID LOG2 PUSH5 0x6970667358 0x22 SLT KECCAK256 PUSH1 0x1F 0xD4 0xD8 ISZERO CALLCODE 0xE PUSH17 0x5A3C89FA7F2DF5E3E1985DAA2537AFA994 0xD0 SUB SLOAD PUSH3 0x4FE4A3 PUSH5 0x736F6C6343 STOP ADDMOD 0xC STOP CALLER ","sha1":"89e9ff5ffeebbe214b1cc9bce000b24a0396d946","source":"// SPDX-License-Identifier: MIT\npragma solidity >0.6.0;\n\nimport \"./Interfaces/IERC721.sol\";\n\n/*\n * @title: Auction Smart Contract.\n * @author: Anthony (fps) https://github.com/fps8k .\n * @dev: Reference [README.md].\n*/\n\ncontract MyAuction\n{\n    // Creating necessary state variables.\n    // Time of deployment and time span of the bidding.\n\n    uint256 private deploy_time;\n    uint64 private bid_time_span = 7 days;\n    bool private still_bidding;\n    bool locked;\n\n\n    // Highest bidder price.\n\n    uint256 private highest_bid;\n    \n    \n    // Mapping amount bidded to address.\n\n    mapping(uint256 => address) private price_to_bidder;    // No two bidders can have the same bid.\n    mapping(address => uint256) private bidder_to_price;    // No two bidders can have the same bid.\n\n\n    // NFT Details for constructor.\n\n    IERC721 private nft;\n    uint256 private nft_id;\n    uint256 private starting_bid;\n    address private seller;\n\n\n    constructor(address _nft_address, uint256 _nft_id) payable\n    {\n        nft = IERC721(_nft_address);\n        nft_id = _nft_id;\n        starting_bid = msg.value;\n        seller = msg.sender;\n\n        deploy_time = block.timestamp;\n        still_bidding = true;\n    }\n\n    fallback() payable external {}\n    receive() payable external {}\n\n\n\n\n    // Getter functions and modifiers.\n    // Returns whoever called a function.\n\n    function getMessageSender() private view returns(address)\n    {\n        address _msg_sender = msg.sender;\n        return _msg_sender;\n    }\n\n\n    // Validates that the caller is a valid adress.\n\n    modifier isValidCaller()\n    {\n        require(getMessageSender() != address(0), \"Invalid calling address.\");\n        _;\n    }\n\n\n    // Protects from re-entrancy hack.\n\n    modifier noReEntrance()\n    {\n        require(!locked, \"No re-entrancy\");\n        locked = true;\n        _;\n        locked = false;\n    }\n\n\n    // Checks if the bid was made within time, also if the time is over 7 days, it sets `still_bidding` to false, stopping any new bids.\n    \n    modifier withinTime()\n    {\n        uint256 time_now = block.timestamp;\n        uint256 _deploy_time = deploy_time;\n        uint256 _bid_time_span = bid_time_span;\n\n        if((time_now >= (_deploy_time + _bid_time_span)))\n        {\n            still_bidding = false;\n        }\n\n        require((time_now < (_deploy_time + _bid_time_span)), \"Auction expired.\");\n        _;\n    }\n\n\n    // Checks if the bidding is still ongoing or ended.\n\n    modifier stillBidding()\n    {\n        require(still_bidding, \"Auction expired.\");\n        _;\n    }\n\n\n    // Returns the highest bid.\n\n    function getHighestBid() private view returns(uint256)\n    {\n        uint256 _highest_bid = highest_bid;\n        return _highest_bid;\n    }\n\n\n    // Checks to make sure that the price is unique and no two persons can bid the same thing.\n\n    function isUniquePrice(uint256 price) private view returns(bool)\n    {\n        // Returns true if the address with the price is empty.\n        bool is_unique_price = price_to_bidder[price] == address(0);        // Returns true if the address with the price is empty.\n        return is_unique_price;\n    }\n\n\n    // Prevents the user from bidding twice.\n\n    function hasMadeABid() private view returns (bool)\n    {\n        // Returns true if the amount associated with the address is != 0.\n        bool has_made_bid = bidder_to_price[getMessageSender()] != 0;\n        return has_made_bid;\n    }\n\n\n\n\n    /* \n    * @dev:\n    * {bid()} function allows the caller to make a fresh bid.\n    *\n    * Conditions:\n    * - Caller cannot be a 0 address.\n    * - Caller cannot be the `seller` of the token.\n    * - `msg.value` must be greater than the `starting_bid`.\n    * - It must still be within time of bid.\n    * - It must be still the validity of the bid.\n    * - `msg.value` sent for the bid, must be unique.\n    *\n    * - If the new bid is higher than the current highest bid, then, it replaces the value.\n    */\n\n    function bid() public payable isValidCaller() noReEntrance() withinTime() stillBidding()\n    {\n        address _seller = seller;\n        uint256 _starting_bid = starting_bid;\n        require(getMessageSender() != _seller, \"You can't bid your nft.\");\n        require(msg.value >= _starting_bid, \"Price lower than minimum bid.\"); // Price must be >= starting bid;\n        uint256 bid_price = msg.value;\n        require(isUniquePrice(bid_price), \"Bid taken, make a unique bid.\");\n\n        if(bid_price > getHighestBid())\n        {\n            highest_bid = bid_price;\n        }\n\n        price_to_bidder[bid_price] = getMessageSender();\n        bidder_to_price[getMessageSender()] = bid_price;\n    }\n\n\n\n\n    /* \n    * @dev:\n    * {withdraw()} function allows anyone who is not the highest bidder to withdraw his funds.\n    *\n    * Conditions:\n    * - Caller cannot be a 0 address.\n    * - Caller cannot be the `seller` of the token.\n    * - Caller cannot be the highest bidder.\n    *\n    * - After paying, deletes the relevant records for the caller.\n    */\n\n    function withdraw() public payable isValidCaller() noReEntrance()\n    {\n        address _seller = seller;\n        require(getMessageSender() != _seller, \"You can't withdraw or bid your nft.\");\n        require(hasMadeABid(), \"You have not made a bid.\");\n        require(price_to_bidder[getHighestBid()] != getMessageSender(), \"You are the highest bidder, you cannot withdraw.\");\n\n        address payto_address = getMessageSender();\n        uint256 _bid_return_price = bidder_to_price[payto_address];\n        payable(payto_address).transfer(_bid_return_price);\n\n        delete bidder_to_price[getMessageSender()];\n        delete price_to_bidder[_bid_return_price];\n    }\n\n\n\n\n    /* \n    * @dev:\n    * {end()} function allows the seller to end the auction and send the nft to the highest bidder.\n    *\n    * Conditions:\n    * - Caller cannot be a 0 address.\n    * - Caller must be the `seller` of the token.\n    * - Highest bid cannot be 0.\n    *\n    * - It sets `still_bidding` to false, stopping any new bids.\n    */\n\n    function end() public payable isValidCaller() noReEntrance()\n    {\n        address _seller = seller;\n        require(getMessageSender() == _seller, \"You cannot call this function.\");\n        uint256 __highest_bid = getHighestBid();\n        require(__highest_bid > 0, \"No one bid your nft.\");\n        address _winner = price_to_bidder[__highest_bid];\n\n        nft.safeTransferFrom(_seller, _winner, nft_id);\n        still_bidding = false;\n    }\n\n}","sourcePath":"contracts/Auction.sol","type":"contract","deployment":{"address":"0xD2ff545E6E5B95DddA1795BA779C5ad866C2032C","chainid":"4","blockHeight":10507456}}