{
  "abi": [
    {
      "inputs": [],
      "stateMutability": "nonpayable",
      "type": "constructor"
    },
    {
      "inputs": [],
      "name": "Get_Merke_Length",
      "outputs": [
        {
          "internalType": "uint256",
          "name": "",
          "type": "uint256"
        }
      ],
      "stateMutability": "view",
      "type": "function"
    },
    {
      "inputs": [],
      "name": "Get_TX_Length",
      "outputs": [
        {
          "internalType": "uint256",
          "name": "",
          "type": "uint256"
        }
      ],
      "stateMutability": "view",
      "type": "function"
    },
    {
      "inputs": [
        {
          "internalType": "address",
          "name": "receiver",
          "type": "address"
        },
        {
          "internalType": "uint256",
          "name": "amount",
          "type": "uint256"
        }
      ],
      "name": "Make_Transaction",
      "outputs": [],
      "stateMutability": "payable",
      "type": "function"
    },
    {
      "inputs": [],
      "name": "See_Merkle_Root_Hash",
      "outputs": [
        {
          "internalType": "bytes32",
          "name": "",
          "type": "bytes32"
        }
      ],
      "stateMutability": "view",
      "type": "function"
    },
    {
      "inputs": [],
      "name": "Start_Merkle",
      "outputs": [],
      "stateMutability": "nonpayable",
      "type": "function"
    }
  ],
  "bytecode": "608060405234801561001057600080fd5b50600080546001600160a01b031916331790556105c6806100326000396000f3fe60806040526004361061004a5760003560e01c80632140b5f71461004f5780633a9bcc7d1461007257806342efd7ff146100895780636e8acf601461009e578063aba10691146100b3575b600080fd5b34801561005b57600080fd5b506001545b60405190815260200160405180910390f35b34801561007e57600080fd5b506100876100c6565b005b34801561009557600080fd5b50600254610060565b3480156100aa57600080fd5b506100606102ad565b6100876100c13660046104e4565b6102fc565b600154156100da576100da60016000610428565b600254600181116101585760405162461bcd60e51b815260206004820152603a60248201527f43616e6e6f7420636f6d70757465206d65726b6c65206c656e67746820666f7260448201527f2074686973207472616e73616374696f6e207265636f7264732e00000000000060648201526084015b60405180910390fd5b600381106101c65760405162461bcd60e51b815260206004820152603560248201527f5472616e73616374696f6e207265636f726420746f6f206c6f6e6720666f7220604482015274309036b2b935b6329031b7b6b83aba30ba34b7b71760591b606482015260840161014f565b60008167ffffffffffffffff8111156101e1576101e161051c565b60405190808252806020026020018201604052801561020a578160200160208202803683370190505b50905060005b82811015610265576002818154811061022b5761022b610532565b906000526020600020015482828151811061024857610248610532565b60209081029190910101528061025d8161055e565b915050610210565b5060018054808201825560009190915281516102a8917fb10e2d527612073b26eecdfd717e6a320cf44b4afac2b0732d9fcbe2b7fa0cf601906020840190610449565b505050565b60018054600091906102c0908290610579565b815481106102d0576102d0610532565b906000526020600020016000815481106102ec576102ec610532565b9060005260206000200154905090565b600054600160a01b900460ff16156103565760405162461bcd60e51b815260206004820152601b60248201527f596f752063616e7420726570656174207468697320616374696f6e0000000000604482015260640161014f565b6000805460ff60a01b1916600160a01b1781556040516001600160a01b0384169183919081818185875af1925050503d80600081146103b1576040519150601f19603f3d011682016040523d82523d6000602084013e6103b6565b606091505b50506040516bffffffffffffffffffffffff1933606090811b8216602084015285901b166034820152604881018390526002915060680160408051601f1981840301815291905280516020918201208254600181018455600093845291832090910155805460ff60a01b191690555050565b50805460008255906000526020600020908101906104469190610494565b50565b828054828255906000526020600020908101928215610484579160200282015b82811115610484578251825591602001919060010190610469565b506104909291506104b1565b5090565b808211156104905760006104a882826104c6565b50600101610494565b5b8082111561049057600081556001016104b2565b508054600082559060005260206000209081019061044691906104b1565b600080604083850312156104f757600080fd5b82356001600160a01b038116811461050e57600080fd5b946020939093013593505050565b634e487b7160e01b600052604160045260246000fd5b634e487b7160e01b600052603260045260246000fd5b634e487b7160e01b600052601160045260246000fd5b600060001982141561057257610572610548565b5060010190565b60008282101561058b5761058b610548565b50039056fea2646970667358221220bd1b44205f9d0c13cf3d753c8c1de70dd1d0239ff0d0230d265b28c28c5356c664736f6c634300080c0033",
  "bytecodeSha1": "ed490a0c8e7e7240cbc2e2f16f6e325ca3770146",
  "compiler": {
    "evm_version": "istanbul",
    "optimizer": {
      "enabled": true,
      "runs": 200
    },
    "version": "0.8.12+commit.f00d7308"
  },
  "contractName": "MerkleTree",
  "language": "Solidity",
  "natspec": {
    "kind": "dev",
    "methods": {},
    "notice": "I believe youve gone through the description.md file to know what a Merkle Tree is all about. Its pretty big innit?",
    "version": 1
  },
  "opcodes": "PUSH1 0x80 PUSH1 0x40 MSTORE PUSH1 0x4 CALLDATASIZE LT PUSH2 0x4A JUMPI PUSH1 0x0 CALLDATALOAD PUSH1 0xE0 SHR DUP1 PUSH4 0x2140B5F7 EQ PUSH2 0x4F JUMPI DUP1 PUSH4 0x3A9BCC7D EQ PUSH2 0x72 JUMPI DUP1 PUSH4 0x42EFD7FF EQ PUSH2 0x89 JUMPI DUP1 PUSH4 0x6E8ACF60 EQ PUSH2 0x9E JUMPI DUP1 PUSH4 0xABA10691 EQ PUSH2 0xB3 JUMPI JUMPDEST PUSH1 0x0 DUP1 REVERT JUMPDEST CALLVALUE DUP1 ISZERO PUSH2 0x5B JUMPI PUSH1 0x0 DUP1 REVERT JUMPDEST POP PUSH1 0x1 SLOAD JUMPDEST PUSH1 0x40 MLOAD SWAP1 DUP2 MSTORE PUSH1 0x20 ADD PUSH1 0x40 MLOAD DUP1 SWAP2 SUB SWAP1 RETURN JUMPDEST CALLVALUE DUP1 ISZERO PUSH2 0x7E JUMPI PUSH1 0x0 DUP1 REVERT JUMPDEST POP PUSH2 0x87 PUSH2 0xC6 JUMP JUMPDEST STOP JUMPDEST CALLVALUE DUP1 ISZERO PUSH2 0x95 JUMPI PUSH1 0x0 DUP1 REVERT JUMPDEST POP PUSH1 0x2 SLOAD PUSH2 0x60 JUMP JUMPDEST CALLVALUE DUP1 ISZERO PUSH2 0xAA JUMPI PUSH1 0x0 DUP1 REVERT JUMPDEST POP PUSH2 0x60 PUSH2 0x2AD JUMP JUMPDEST PUSH2 0x87 PUSH2 0xC1 CALLDATASIZE PUSH1 0x4 PUSH2 0x4E4 JUMP JUMPDEST PUSH2 0x2FC JUMP JUMPDEST PUSH1 0x1 SLOAD ISZERO PUSH2 0xDA JUMPI PUSH2 0xDA PUSH1 0x1 PUSH1 0x0 PUSH2 0x428 JUMP JUMPDEST PUSH1 0x2 SLOAD PUSH1 0x1 DUP2 GT PUSH2 0x158 JUMPI PUSH1 0x40 MLOAD PUSH3 0x461BCD PUSH1 0xE5 SHL DUP2 MSTORE PUSH1 0x20 PUSH1 0x4 DUP3 ADD MSTORE PUSH1 0x3A PUSH1 0x24 DUP3 ADD MSTORE PUSH32 0x43616E6E6F7420636F6D70757465206D65726B6C65206C656E67746820666F72 PUSH1 0x44 DUP3 ADD MSTORE PUSH32 0x2074686973207472616E73616374696F6E207265636F7264732E000000000000 PUSH1 0x64 DUP3 ADD MSTORE PUSH1 0x84 ADD JUMPDEST PUSH1 0x40 MLOAD DUP1 SWAP2 SUB SWAP1 REVERT JUMPDEST PUSH1 0x3 DUP2 LT PUSH2 0x1C6 JUMPI PUSH1 0x40 MLOAD PUSH3 0x461BCD PUSH1 0xE5 SHL DUP2 MSTORE PUSH1 0x20 PUSH1 0x4 DUP3 ADD MSTORE PUSH1 0x35 PUSH1 0x24 DUP3 ADD MSTORE PUSH32 0x5472616E73616374696F6E207265636F726420746F6F206C6F6E6720666F7220 PUSH1 0x44 DUP3 ADD MSTORE PUSH21 0x309036B2B935B6329031B7B6B83ABA30BA34B7B717 PUSH1 0x59 SHL PUSH1 0x64 DUP3 ADD MSTORE PUSH1 0x84 ADD PUSH2 0x14F JUMP JUMPDEST PUSH1 0x0 DUP2 PUSH8 0xFFFFFFFFFFFFFFFF DUP2 GT ISZERO PUSH2 0x1E1 JUMPI PUSH2 0x1E1 PUSH2 0x51C JUMP JUMPDEST PUSH1 0x40 MLOAD SWAP1 DUP1 DUP3 MSTORE DUP1 PUSH1 0x20 MUL PUSH1 0x20 ADD DUP3 ADD PUSH1 0x40 MSTORE DUP1 ISZERO PUSH2 0x20A JUMPI DUP2 PUSH1 0x20 ADD PUSH1 0x20 DUP3 MUL DUP1 CALLDATASIZE DUP4 CALLDATACOPY ADD SWAP1 POP JUMPDEST POP SWAP1 POP PUSH1 0x0 JUMPDEST DUP3 DUP2 LT ISZERO PUSH2 0x265 JUMPI PUSH1 0x2 DUP2 DUP2 SLOAD DUP2 LT PUSH2 0x22B JUMPI PUSH2 0x22B PUSH2 0x532 JUMP JUMPDEST SWAP1 PUSH1 0x0 MSTORE PUSH1 0x20 PUSH1 0x0 KECCAK256 ADD SLOAD DUP3 DUP3 DUP2 MLOAD DUP2 LT PUSH2 0x248 JUMPI PUSH2 0x248 PUSH2 0x532 JUMP JUMPDEST PUSH1 0x20 SWAP1 DUP2 MUL SWAP2 SWAP1 SWAP2 ADD ADD MSTORE DUP1 PUSH2 0x25D DUP2 PUSH2 0x55E JUMP JUMPDEST SWAP2 POP POP PUSH2 0x210 JUMP JUMPDEST POP PUSH1 0x1 DUP1 SLOAD DUP1 DUP3 ADD DUP3 SSTORE PUSH1 0x0 SWAP2 SWAP1 SWAP2 MSTORE DUP2 MLOAD PUSH2 0x2A8 SWAP2 PUSH32 0xB10E2D527612073B26EECDFD717E6A320CF44B4AFAC2B0732D9FCBE2B7FA0CF6 ADD SWAP1 PUSH1 0x20 DUP5 ADD SWAP1 PUSH2 0x449 JUMP JUMPDEST POP POP POP JUMP JUMPDEST PUSH1 0x1 DUP1 SLOAD PUSH1 0x0 SWAP2 SWAP1 PUSH2 0x2C0 SWAP1 DUP3 SWAP1 PUSH2 0x579 JUMP JUMPDEST DUP2 SLOAD DUP2 LT PUSH2 0x2D0 JUMPI PUSH2 0x2D0 PUSH2 0x532 JUMP JUMPDEST SWAP1 PUSH1 0x0 MSTORE PUSH1 0x20 PUSH1 0x0 KECCAK256 ADD PUSH1 0x0 DUP2 SLOAD DUP2 LT PUSH2 0x2EC JUMPI PUSH2 0x2EC PUSH2 0x532 JUMP JUMPDEST SWAP1 PUSH1 0x0 MSTORE PUSH1 0x20 PUSH1 0x0 KECCAK256 ADD SLOAD SWAP1 POP SWAP1 JUMP JUMPDEST PUSH1 0x0 SLOAD PUSH1 0x1 PUSH1 0xA0 SHL SWAP1 DIV PUSH1 0xFF AND ISZERO PUSH2 0x356 JUMPI PUSH1 0x40 MLOAD PUSH3 0x461BCD PUSH1 0xE5 SHL DUP2 MSTORE PUSH1 0x20 PUSH1 0x4 DUP3 ADD MSTORE PUSH1 0x1B PUSH1 0x24 DUP3 ADD MSTORE PUSH32 0x596F752063616E7420726570656174207468697320616374696F6E0000000000 PUSH1 0x44 DUP3 ADD MSTORE PUSH1 0x64 ADD PUSH2 0x14F JUMP JUMPDEST PUSH1 0x0 DUP1 SLOAD PUSH1 0xFF PUSH1 0xA0 SHL NOT AND PUSH1 0x1 PUSH1 0xA0 SHL OR DUP2 SSTORE PUSH1 0x40 MLOAD PUSH1 0x1 PUSH1 0x1 PUSH1 0xA0 SHL SUB DUP5 AND SWAP2 DUP4 SWAP2 SWAP1 DUP2 DUP2 DUP2 DUP6 DUP8 GAS CALL SWAP3 POP POP POP RETURNDATASIZE DUP1 PUSH1 0x0 DUP2 EQ PUSH2 0x3B1 JUMPI PUSH1 0x40 MLOAD SWAP2 POP PUSH1 0x1F NOT PUSH1 0x3F RETURNDATASIZE ADD AND DUP3 ADD PUSH1 0x40 MSTORE RETURNDATASIZE DUP3 MSTORE RETURNDATASIZE PUSH1 0x0 PUSH1 0x20 DUP5 ADD RETURNDATACOPY PUSH2 0x3B6 JUMP JUMPDEST PUSH1 0x60 SWAP2 POP JUMPDEST POP POP PUSH1 0x40 MLOAD PUSH12 0xFFFFFFFFFFFFFFFFFFFFFFFF NOT CALLER PUSH1 0x60 SWAP1 DUP2 SHL DUP3 AND PUSH1 0x20 DUP5 ADD MSTORE DUP6 SWAP1 SHL AND PUSH1 0x34 DUP3 ADD MSTORE PUSH1 0x48 DUP2 ADD DUP4 SWAP1 MSTORE PUSH1 0x2 SWAP2 POP PUSH1 0x68 ADD PUSH1 0x40 DUP1 MLOAD PUSH1 0x1F NOT DUP2 DUP5 SUB ADD DUP2 MSTORE SWAP2 SWAP1 MSTORE DUP1 MLOAD PUSH1 0x20 SWAP2 DUP3 ADD KECCAK256 DUP3 SLOAD PUSH1 0x1 DUP2 ADD DUP5 SSTORE PUSH1 0x0 SWAP4 DUP5 MSTORE SWAP2 DUP4 KECCAK256 SWAP1 SWAP2 ADD SSTORE DUP1 SLOAD PUSH1 0xFF PUSH1 0xA0 SHL NOT AND SWAP1 SSTORE POP POP JUMP JUMPDEST POP DUP1 SLOAD PUSH1 0x0 DUP3 SSTORE SWAP1 PUSH1 0x0 MSTORE PUSH1 0x20 PUSH1 0x0 KECCAK256 SWAP1 DUP2 ADD SWAP1 PUSH2 0x446 SWAP2 SWAP1 PUSH2 0x494 JUMP JUMPDEST POP JUMP JUMPDEST DUP3 DUP1 SLOAD DUP3 DUP3 SSTORE SWAP1 PUSH1 0x0 MSTORE PUSH1 0x20 PUSH1 0x0 KECCAK256 SWAP1 DUP2 ADD SWAP3 DUP3 ISZERO PUSH2 0x484 JUMPI SWAP2 PUSH1 0x20 MUL DUP3 ADD JUMPDEST DUP3 DUP2 GT ISZERO PUSH2 0x484 JUMPI DUP3 MLOAD DUP3 SSTORE SWAP2 PUSH1 0x20 ADD SWAP2 SWAP1 PUSH1 0x1 ADD SWAP1 PUSH2 0x469 JUMP JUMPDEST POP PUSH2 0x490 SWAP3 SWAP2 POP PUSH2 0x4B1 JUMP JUMPDEST POP SWAP1 JUMP JUMPDEST DUP1 DUP3 GT ISZERO PUSH2 0x490 JUMPI PUSH1 0x0 PUSH2 0x4A8 DUP3 DUP3 PUSH2 0x4C6 JUMP JUMPDEST POP PUSH1 0x1 ADD PUSH2 0x494 JUMP JUMPDEST JUMPDEST DUP1 DUP3 GT ISZERO PUSH2 0x490 JUMPI PUSH1 0x0 DUP2 SSTORE PUSH1 0x1 ADD PUSH2 0x4B2 JUMP JUMPDEST POP DUP1 SLOAD PUSH1 0x0 DUP3 SSTORE SWAP1 PUSH1 0x0 MSTORE PUSH1 0x20 PUSH1 0x0 KECCAK256 SWAP1 DUP2 ADD SWAP1 PUSH2 0x446 SWAP2 SWAP1 PUSH2 0x4B1 JUMP JUMPDEST PUSH1 0x0 DUP1 PUSH1 0x40 DUP4 DUP6 SUB SLT ISZERO PUSH2 0x4F7 JUMPI PUSH1 0x0 DUP1 REVERT JUMPDEST DUP3 CALLDATALOAD PUSH1 0x1 PUSH1 0x1 PUSH1 0xA0 SHL SUB DUP2 AND DUP2 EQ PUSH2 0x50E JUMPI PUSH1 0x0 DUP1 REVERT JUMPDEST SWAP5 PUSH1 0x20 SWAP4 SWAP1 SWAP4 ADD CALLDATALOAD SWAP4 POP POP POP JUMP JUMPDEST PUSH4 0x4E487B71 PUSH1 0xE0 SHL PUSH1 0x0 MSTORE PUSH1 0x41 PUSH1 0x4 MSTORE PUSH1 0x24 PUSH1 0x0 REVERT JUMPDEST PUSH4 0x4E487B71 PUSH1 0xE0 SHL PUSH1 0x0 MSTORE PUSH1 0x32 PUSH1 0x4 MSTORE PUSH1 0x24 PUSH1 0x0 REVERT JUMPDEST PUSH4 0x4E487B71 PUSH1 0xE0 SHL PUSH1 0x0 MSTORE PUSH1 0x11 PUSH1 0x4 MSTORE PUSH1 0x24 PUSH1 0x0 REVERT JUMPDEST PUSH1 0x0 PUSH1 0x0 NOT DUP3 EQ ISZERO PUSH2 0x572 JUMPI PUSH2 0x572 PUSH2 0x548 JUMP JUMPDEST POP PUSH1 0x1 ADD SWAP1 JUMP JUMPDEST PUSH1 0x0 DUP3 DUP3 LT ISZERO PUSH2 0x58B JUMPI PUSH2 0x58B PUSH2 0x548 JUMP JUMPDEST POP SUB SWAP1 JUMP INVALID LOG2 PUSH5 0x6970667358 0x22 SLT KECCAK256 0xBD SHL DIFFICULTY KECCAK256 0x5F SWAP14 0xC SGT 0xCF RETURNDATASIZE PUSH22 0x3C8C1DE70DD1D0239FF0D0230D265B28C28C5356C664 PUSH20 0x6F6C634300080C00330000000000000000000000 ",
  "sha1": "1b9571e434f7a4cd18efd82a5ba9efd490ec34cf",
  "source": "// SPDX-License-Identifier: MIT\n\npragma solidity >0.6.0;\n\n/**\n    I believe youve gone through the description.md file to know what a Merkle Tree is all about. Its pretty big innit?\n*/\n\ncontract MerkleTree\n{\n    /**\n        I will be needing some public functions, and i will avoid verification like i did on multi sig wallet\n\n        Function 1 (Make_Transaction):\n\n        - Make a transaction.\n        - Hash the transaction.\n        - Adds the hashed transaction to a list.\n\n\n\n        Function 2 (Start_Merkle):\n\n        - Performs the act explained in description.md\n\n\n        Function 3 (Verify_Transaction (tx_hash)):\n\n        -\n    */\n\n\n    address payable owner;\n\n    // for reentrancy\n    bool locked;\n\n    // This array will be useful when we want to compute out merkle tree\n    bytes32[][] merkle;\n\n    // This array will be a storage for all our transactions\n    bytes32[] all_transactions;\n\n\n    constructor()\n    {\n        // first I will need to assign the owner to myself. ðŸ˜Œ\n        owner = payable(msg.sender);\n    }\n\n    modifier No_Reentrancy()\n    {\n        require(!locked, \"You cant repeat this action\");\n        locked = true;\n        _;\n        locked =  false;\n    }\n\n    // I will have a function that allows us to make a transaction and will add the transaction to an array;\n    function Make_Transaction(address receiver, uint amount) payable public No_Reentrancy\n    {\n        // payable(receiver).transfer(amount);\n        payable(receiver).call{value: amount}(\"\");\n\n        \n        // This string(abi.encodePacked(a, b, c)) will stringify all the actions done and add them to an array \"all_transactions\"\n        all_transactions.push(keccak256(abi.encodePacked(msg.sender, receiver, amount)));\n    }\n\n    function Compute_Merkle() internal\n    {\n        // The most important thing, getting the length of the last array in the merkle\n        bytes32[] memory this_merkle = merkle[merkle.length - 1];\n\n        uint len_last_merkle_list = this_merkle.length;\n\n        // if the length is one then it should stop\n        if(len_last_merkle_list == 1)\n        {\n            // do nothing\n        }\n        else\n        {\n            // if the length is greater than one, then some calculations would be needed.\n            // We need to group them in twos and duplicate the last on if its odd\n            // Then update the merkle list\n\n            uint even_or_odd = len_last_merkle_list % 2;\n            if(even_or_odd == 1)\n            {\n                uint new_length = (len_last_merkle_list / 2) + 1;\n                bytes32[] memory append = new bytes32[](new_length);\n                //  if its odd\n\n                // Here we will consider the last list in the merkle because we are going to duplicate it.\n                // if the index is not the last index of this_merkle\n\n                for (uint x = 0; x < len_last_merkle_list; x+=2)\n                {\n                    // if x is not the last inde\n                    if(x == (len_last_merkle_list - 1))\n                    {\n                        // this is the last one so should be hashed twice.\n                        append[x] = keccak256(abi.encodePacked(this_merkle[x], this_merkle[x]));\n                    }\n                    else\n                    {\n                         // it should group them in twos and hash.\n                        append[x] = keccak256(abi.encodePacked(this_merkle[x], this_merkle[x+1]));\n                    }\n                }\n\n                merkle.push(append);\n            }\n            else\n            {\n                // if the merkle length is even\n\n                // develop the length of the new array from the length of the initial one i.e initial / 2;\n                uint new_length = len_last_merkle_list / 2;\n\n                // create a new array\n                bytes32[] memory append = new bytes32[](new_length);\n\n                // loop and group them into twos and hash\n                for (uint x = 0; x < len_last_merkle_list; x+=2)\n                {\n                    // it should group them in twos and hash.\n                    append[x] = keccak256(abi.encodePacked(this_merkle[x], this_merkle[x+1]));\n                }\n                merkle.push(append);\n            }\n\n            Compute_Merkle();\n        }\n    }\n\n    function See_Merkle_Root_Hash() public view returns(bytes32)\n    {\n        return merkle[merkle.length - 1][0];\n    }\n\n    function Start_Merkle() public\n    {\n        if(merkle.length > 0)\n        {\n            delete merkle;\n        }\n\n        // merkle computation starts here\n        // first, we need to get the length of the transaction array and do a loop that calls a function.\n        uint tx_length = all_transactions.length;\n        \n        require(tx_length > 1, \"Cannot compute merkle length for this transaction records.\");\n        require(tx_length < 3, \"Transaction record too long for a merkle computation.\");\n        \n        // first we loop through the all_transactions array to add them to the merkle as the base ot leafs.\n        // this will generate the first array in out merkle array.\n\n        // declare a new memory uint\n        bytes32[] memory mem = new bytes32[](tx_length);\n        for (uint i = 0; i < tx_length; i++)\n        {\n            mem[i] = all_transactions[i];\n        }\n\n        merkle.push(mem);\n        // Compute_Merkle();\n    }\n\n    function Get_TX_Length() public view returns(uint)\n    {\n        return all_transactions.length;\n    }\n\n    function Get_Merke_Length() public view returns(uint)\n    {\n        return merkle.length;\n    }\n}",
  "sourcePath": "contracts/MerkleTree.sol",
  "type": "contract"
}