{
  "abi": [
    {
      "inputs": [],
      "stateMutability": "nonpayable",
      "type": "constructor"
    },
    {
      "anonymous": false,
      "inputs": [
        {
          "indexed": false,
          "internalType": "address",
          "name": "",
          "type": "address"
        },
        {
          "indexed": false,
          "internalType": "uint256",
          "name": "",
          "type": "uint256"
        }
      ],
      "name": "Deployed",
      "type": "event"
    },
    {
      "anonymous": false,
      "inputs": [
        {
          "indexed": false,
          "internalType": "address",
          "name": "",
          "type": "address"
        },
        {
          "indexed": false,
          "internalType": "uint256",
          "name": "",
          "type": "uint256"
        }
      ],
      "name": "Funded",
      "type": "event"
    },
    {
      "anonymous": false,
      "inputs": [
        {
          "indexed": false,
          "internalType": "address",
          "name": "",
          "type": "address"
        },
        {
          "indexed": false,
          "internalType": "uint256",
          "name": "",
          "type": "uint256"
        }
      ],
      "name": "Withdraw",
      "type": "event"
    },
    {
      "inputs": [],
      "name": "fund",
      "outputs": [],
      "stateMutability": "payable",
      "type": "function"
    },
    {
      "inputs": [],
      "name": "viewFunds",
      "outputs": [
        {
          "internalType": "uint256",
          "name": "balance",
          "type": "uint256"
        }
      ],
      "stateMutability": "view",
      "type": "function"
    },
    {
      "inputs": [],
      "name": "withdrawFunds",
      "outputs": [],
      "stateMutability": "payable",
      "type": "function"
    }
  ],
  "bytecode": "608060405234801561001057600080fd5b50600080546001600160a01b031916339081179091554260018190556002805460ff191690556040805192835260208301919091527fb03c53b28e78a88e31607a27e1fa48234dce28d5d9d9ec7b295aeb02e674a1e1910160405180910390a16103538061007f6000396000f3fe6080604052600436106100345760003560e01c806324600fc314610039578063379b249514610043578063b60d42881461006a575b600080fd5b610041610072565b005b34801561004f57600080fd5b506100586101a7565b60405190815260200160405180910390f35b6100416101f0565b600254610100900460ff16156100cf5760405162461bcd60e51b815260206004820152601c60248201527f596f752063616e6e6f74207265646f207468697320616374696f6e2e0000000060448201526064015b60405180910390fd5b6002805461ff001916610100179055600054336001600160a01b03909116146101235760405162461bcd60e51b815260206004820152600660248201526510a7bbb732b960d11b60448201526064016100c6565b6000805460405147926001600160a01b03909216914780156108fc02929091818181858888f1935050505015801561015f573d6000803e3d6000fd5b5060408051338152602081018390527f884edad9ce6fa2440d8a54cc123490eb96d2768479d49ff9c7366125a9424364910160405180910390a1506002805461ff0019169055565b600080546001600160a01b031633146101eb5760405162461bcd60e51b815260206004820152600660248201526510a7bbb732b960d11b60448201526064016100c6565b504790565b600254610100900460ff16156102485760405162461bcd60e51b815260206004820152601c60248201527f596f752063616e6e6f74207265646f207468697320616374696f6e2e0000000060448201526064016100c6565b6002805461ff0019166101001790553361028f5760405162461bcd60e51b8152602060048201526008602482015267214164647265737360c01b60448201526064016100c6565b6000546001600160a01b03163314156102d85760405162461bcd60e51b815260206004820152600b60248201526a13dddb995c880854d95b9960aa1b60448201526064016100c6565b604080513381523460208201527f5af8184bef8e4b45eb9f6ed7734d04da38ced226495548f46e0c8ff8d7d9a524910160405180910390a16002805461ff001916905556fea2646970667358221220b0dc2ac79ba3dc1eb3b2adbc689ad73c937485d403c9e6e7766b3c4accc64c2f64736f6c634300080c0033",
  "bytecodeSha1": "e094e266a5529f2f14d68448399e05a13c36dc73",
  "compiler": {
    "evm_version": "istanbul",
    "optimizer": {
      "enabled": true,
      "runs": 200
    },
    "version": "0.8.12+commit.f00d7308"
  },
  "contractName": "EtherWallet",
  "language": "Solidity",
  "natspec": {
    "kind": "dev",
    "methods": {},
    "version": 1
  },
  "opcodes": "PUSH1 0x80 PUSH1 0x40 MSTORE PUSH1 0x4 CALLDATASIZE LT PUSH2 0x34 JUMPI PUSH1 0x0 CALLDATALOAD PUSH1 0xE0 SHR DUP1 PUSH4 0x24600FC3 EQ PUSH2 0x39 JUMPI DUP1 PUSH4 0x379B2495 EQ PUSH2 0x43 JUMPI DUP1 PUSH4 0xB60D4288 EQ PUSH2 0x6A JUMPI JUMPDEST PUSH1 0x0 DUP1 REVERT JUMPDEST PUSH2 0x41 PUSH2 0x72 JUMP JUMPDEST STOP JUMPDEST CALLVALUE DUP1 ISZERO PUSH2 0x4F JUMPI PUSH1 0x0 DUP1 REVERT JUMPDEST POP PUSH2 0x58 PUSH2 0x1A7 JUMP JUMPDEST PUSH1 0x40 MLOAD SWAP1 DUP2 MSTORE PUSH1 0x20 ADD PUSH1 0x40 MLOAD DUP1 SWAP2 SUB SWAP1 RETURN JUMPDEST PUSH2 0x41 PUSH2 0x1F0 JUMP JUMPDEST PUSH1 0x2 SLOAD PUSH2 0x100 SWAP1 DIV PUSH1 0xFF AND ISZERO PUSH2 0xCF JUMPI PUSH1 0x40 MLOAD PUSH3 0x461BCD PUSH1 0xE5 SHL DUP2 MSTORE PUSH1 0x20 PUSH1 0x4 DUP3 ADD MSTORE PUSH1 0x1C PUSH1 0x24 DUP3 ADD MSTORE PUSH32 0x596F752063616E6E6F74207265646F207468697320616374696F6E2E00000000 PUSH1 0x44 DUP3 ADD MSTORE PUSH1 0x64 ADD JUMPDEST PUSH1 0x40 MLOAD DUP1 SWAP2 SUB SWAP1 REVERT JUMPDEST PUSH1 0x2 DUP1 SLOAD PUSH2 0xFF00 NOT AND PUSH2 0x100 OR SWAP1 SSTORE PUSH1 0x0 SLOAD CALLER PUSH1 0x1 PUSH1 0x1 PUSH1 0xA0 SHL SUB SWAP1 SWAP2 AND EQ PUSH2 0x123 JUMPI PUSH1 0x40 MLOAD PUSH3 0x461BCD PUSH1 0xE5 SHL DUP2 MSTORE PUSH1 0x20 PUSH1 0x4 DUP3 ADD MSTORE PUSH1 0x6 PUSH1 0x24 DUP3 ADD MSTORE PUSH6 0x10A7BBB732B9 PUSH1 0xD1 SHL PUSH1 0x44 DUP3 ADD MSTORE PUSH1 0x64 ADD PUSH2 0xC6 JUMP JUMPDEST PUSH1 0x0 DUP1 SLOAD PUSH1 0x40 MLOAD SELFBALANCE SWAP3 PUSH1 0x1 PUSH1 0x1 PUSH1 0xA0 SHL SUB SWAP1 SWAP3 AND SWAP2 SELFBALANCE DUP1 ISZERO PUSH2 0x8FC MUL SWAP3 SWAP1 SWAP2 DUP2 DUP2 DUP2 DUP6 DUP9 DUP9 CALL SWAP4 POP POP POP POP ISZERO DUP1 ISZERO PUSH2 0x15F JUMPI RETURNDATASIZE PUSH1 0x0 DUP1 RETURNDATACOPY RETURNDATASIZE PUSH1 0x0 REVERT JUMPDEST POP PUSH1 0x40 DUP1 MLOAD CALLER DUP2 MSTORE PUSH1 0x20 DUP2 ADD DUP4 SWAP1 MSTORE PUSH32 0x884EDAD9CE6FA2440D8A54CC123490EB96D2768479D49FF9C7366125A9424364 SWAP2 ADD PUSH1 0x40 MLOAD DUP1 SWAP2 SUB SWAP1 LOG1 POP PUSH1 0x2 DUP1 SLOAD PUSH2 0xFF00 NOT AND SWAP1 SSTORE JUMP JUMPDEST PUSH1 0x0 DUP1 SLOAD PUSH1 0x1 PUSH1 0x1 PUSH1 0xA0 SHL SUB AND CALLER EQ PUSH2 0x1EB JUMPI PUSH1 0x40 MLOAD PUSH3 0x461BCD PUSH1 0xE5 SHL DUP2 MSTORE PUSH1 0x20 PUSH1 0x4 DUP3 ADD MSTORE PUSH1 0x6 PUSH1 0x24 DUP3 ADD MSTORE PUSH6 0x10A7BBB732B9 PUSH1 0xD1 SHL PUSH1 0x44 DUP3 ADD MSTORE PUSH1 0x64 ADD PUSH2 0xC6 JUMP JUMPDEST POP SELFBALANCE SWAP1 JUMP JUMPDEST PUSH1 0x2 SLOAD PUSH2 0x100 SWAP1 DIV PUSH1 0xFF AND ISZERO PUSH2 0x248 JUMPI PUSH1 0x40 MLOAD PUSH3 0x461BCD PUSH1 0xE5 SHL DUP2 MSTORE PUSH1 0x20 PUSH1 0x4 DUP3 ADD MSTORE PUSH1 0x1C PUSH1 0x24 DUP3 ADD MSTORE PUSH32 0x596F752063616E6E6F74207265646F207468697320616374696F6E2E00000000 PUSH1 0x44 DUP3 ADD MSTORE PUSH1 0x64 ADD PUSH2 0xC6 JUMP JUMPDEST PUSH1 0x2 DUP1 SLOAD PUSH2 0xFF00 NOT AND PUSH2 0x100 OR SWAP1 SSTORE CALLER PUSH2 0x28F JUMPI PUSH1 0x40 MLOAD PUSH3 0x461BCD PUSH1 0xE5 SHL DUP2 MSTORE PUSH1 0x20 PUSH1 0x4 DUP3 ADD MSTORE PUSH1 0x8 PUSH1 0x24 DUP3 ADD MSTORE PUSH8 0x2141646472657373 PUSH1 0xC0 SHL PUSH1 0x44 DUP3 ADD MSTORE PUSH1 0x64 ADD PUSH2 0xC6 JUMP JUMPDEST PUSH1 0x0 SLOAD PUSH1 0x1 PUSH1 0x1 PUSH1 0xA0 SHL SUB AND CALLER EQ ISZERO PUSH2 0x2D8 JUMPI PUSH1 0x40 MLOAD PUSH3 0x461BCD PUSH1 0xE5 SHL DUP2 MSTORE PUSH1 0x20 PUSH1 0x4 DUP3 ADD MSTORE PUSH1 0xB PUSH1 0x24 DUP3 ADD MSTORE PUSH11 0x13DDDB995C880854D95B99 PUSH1 0xAA SHL PUSH1 0x44 DUP3 ADD MSTORE PUSH1 0x64 ADD PUSH2 0xC6 JUMP JUMPDEST PUSH1 0x40 DUP1 MLOAD CALLER DUP2 MSTORE CALLVALUE PUSH1 0x20 DUP3 ADD MSTORE PUSH32 0x5AF8184BEF8E4B45EB9F6ED7734D04DA38CED226495548F46E0C8FF8D7D9A524 SWAP2 ADD PUSH1 0x40 MLOAD DUP1 SWAP2 SUB SWAP1 LOG1 PUSH1 0x2 DUP1 SLOAD PUSH2 0xFF00 NOT AND SWAP1 SSTORE JUMP INVALID LOG2 PUSH5 0x6970667358 0x22 SLT KECCAK256 0xB0 0xDC 0x2A 0xC7 SWAP12 LOG3 0xDC 0x1E 0xB3 0xB2 0xAD 0xBC PUSH9 0x9AD73C937485D403C9 0xE6 0xE7 PUSH23 0x6B3C4ACCC64C2F64736F6C634300080C00330000000000 ",
  "sha1": "a2a0f0839123a3aa1c407bb86a85757eeca6c47f",
  "source": "// SPDX-License-Identifier: MIT\npragma solidity >0.6.0;\n\n/*\n * @title: EtherWallet, a crowdfunding smart contract.\n * @author: Anthony (fps) https://github.com/fps8k .\n * @dev: Ether Wallet: https://github.com/fps8k/my-solidity/tree/main/ether_wallet\n * This is a simple Solidity program that allows anyone to send ether to a wallet then allowing only the owner to withdraw.\n*/\n\ncontract EtherWallet\n{\n    // Declare owner, deploy time, ended, and locking.\n\n    address owner;\n    uint256 deploy_time;\n    bool ended;\n    bool locked;\n\n\n    // Events.\n\n    event Deployed(address, uint256);           // owner, deploy_time.\n    event Funded(address, uint256);             // msg.sender, msg.value.\n    event Withdraw(address, uint256);           // owner, address(this).balance.\n\n\n    constructor()\n    {\n        owner = msg.sender;             // Set the owner of the contract to the deployer.\n        deploy_time = block.timestamp;  // Set time of deployment.\n        ended = false;                  // Ended to control the funding.\n\n        emit Deployed(owner, deploy_time);\n    }\n\n\n\n\n    modifier NoReentrance()\n    {\n        require(!locked, \"You cannot redo this action.\");\n        locked = true;\n        _;\n        locked = false;\n    }\n\n\n\n\n    function fund() public payable NoReentrance\n    {\n        require(msg.sender != address(0), \"!Address\");\n        require(msg.sender != owner, \"Owner !Send\");\n\n        emit Funded(msg.sender, msg.value);\n    }\n\n\n\n\n    function viewFunds() public view returns(uint256 balance)\n    {\n        require(msg.sender == owner, \"!Owner\");\n        balance = address(this).balance;\n    }\n\n\n\n\n    function withdrawFunds() public payable NoReentrance\n    {\n        require(msg.sender == owner, \"!Owner\");\n        uint256 bal = address(this).balance;\n        payable(owner).transfer(address(this).balance);\n        \n        emit Withdraw(msg.sender, bal);\n    }\n}",
  "sourcePath": "contracts/EtherWallet.sol",
  "type": "contract"
}