{
  "abi": [
    {
      "inputs": [],
      "stateMutability": "nonpayable",
      "type": "constructor"
    },
    {
      "inputs": [],
      "name": "Deposit",
      "outputs": [],
      "stateMutability": "payable",
      "type": "function"
    },
    {
      "inputs": [],
      "name": "Withdraw",
      "outputs": [],
      "stateMutability": "payable",
      "type": "function"
    },
    {
      "inputs": [],
      "name": "amount",
      "outputs": [
        {
          "internalType": "uint256",
          "name": "",
          "type": "uint256"
        }
      ],
      "stateMutability": "view",
      "type": "function"
    }
  ],
  "bytecode": "608060405234801561001057600080fd5b50600080546001600160a01b031916331790556102dc806100326000396000f3fe6080604052600436106100345760003560e01c806357ea89b614610039578063aa8c217c14610043578063ed21248c1461006b575b600080fd5b610041610073565b005b34801561004f57600080fd5b5061005960015481565b60405190815260200160405180910390f35b610041610243565b60005433906001600160a01b031681146100e35760405162461bcd60e51b815260206004820152602660248201527f4f6e6c7920746865206f776e657220697320616c6c6f77656420746f2077697460448201526534323930bb9760d11b60648201526084015b60405180910390fd5b60025460ff16156101365760405162461bcd60e51b815260206004820152601c60248201527f596f752063616e6e6f74207265646f207468697320616374696f6e2e0000000060448201526064016100da565b6002805460ff191660011790554761019f5760405162461bcd60e51b815260206004820152602660248201527f596f752068617665206e6f7468696e6720796574206f6e207468697320636f6e6044820152653a3930b1ba1760d11b60648201526084016100da565b604051600090339047908381818185875af1925050503d80600081146101e1576040519150601f19603f3d011682016040523d82523d6000602084013e6101e6565b606091505b505060006001559050806102355760405162461bcd60e51b81526020600482015260166024820152752a34329036b7b732bc903bb0b9b713ba1039b2b73a1760511b60448201526064016100da565b50506002805460ff19169055565b34600160008282546102559190610280565b90915550503360009081526003602052604081208054349290610279908490610280565b9091555050565b600082198211156102a157634e487b7160e01b600052601160045260246000fd5b50019056fea2646970667358221220512c6a704f14062384bc215df067f7a34b49699946f0a7551fc0deac61e5024b64736f6c634300080c0033",
  "bytecodeSha1": "c9893531b906458cbb0ed9d894ee00842d7db0f8",
  "compiler": {
    "evm_version": "istanbul",
    "optimizer": {
      "enabled": true,
      "runs": 200
    },
    "version": "0.8.12+commit.f00d7308"
  },
  "contractName": "EtherWallet",
  "language": "Solidity",
  "natspec": {
    "kind": "dev",
    "methods": {},
    "version": 1
  },
  "opcodes": "PUSH1 0x80 PUSH1 0x40 MSTORE PUSH1 0x4 CALLDATASIZE LT PUSH2 0x34 JUMPI PUSH1 0x0 CALLDATALOAD PUSH1 0xE0 SHR DUP1 PUSH4 0x57EA89B6 EQ PUSH2 0x39 JUMPI DUP1 PUSH4 0xAA8C217C EQ PUSH2 0x43 JUMPI DUP1 PUSH4 0xED21248C EQ PUSH2 0x6B JUMPI JUMPDEST PUSH1 0x0 DUP1 REVERT JUMPDEST PUSH2 0x41 PUSH2 0x73 JUMP JUMPDEST STOP JUMPDEST CALLVALUE DUP1 ISZERO PUSH2 0x4F JUMPI PUSH1 0x0 DUP1 REVERT JUMPDEST POP PUSH2 0x59 PUSH1 0x1 SLOAD DUP2 JUMP JUMPDEST PUSH1 0x40 MLOAD SWAP1 DUP2 MSTORE PUSH1 0x20 ADD PUSH1 0x40 MLOAD DUP1 SWAP2 SUB SWAP1 RETURN JUMPDEST PUSH2 0x41 PUSH2 0x243 JUMP JUMPDEST PUSH1 0x0 SLOAD CALLER SWAP1 PUSH1 0x1 PUSH1 0x1 PUSH1 0xA0 SHL SUB AND DUP2 EQ PUSH2 0xE3 JUMPI PUSH1 0x40 MLOAD PUSH3 0x461BCD PUSH1 0xE5 SHL DUP2 MSTORE PUSH1 0x20 PUSH1 0x4 DUP3 ADD MSTORE PUSH1 0x26 PUSH1 0x24 DUP3 ADD MSTORE PUSH32 0x4F6E6C7920746865206F776E657220697320616C6C6F77656420746F20776974 PUSH1 0x44 DUP3 ADD MSTORE PUSH6 0x34323930BB97 PUSH1 0xD1 SHL PUSH1 0x64 DUP3 ADD MSTORE PUSH1 0x84 ADD JUMPDEST PUSH1 0x40 MLOAD DUP1 SWAP2 SUB SWAP1 REVERT JUMPDEST PUSH1 0x2 SLOAD PUSH1 0xFF AND ISZERO PUSH2 0x136 JUMPI PUSH1 0x40 MLOAD PUSH3 0x461BCD PUSH1 0xE5 SHL DUP2 MSTORE PUSH1 0x20 PUSH1 0x4 DUP3 ADD MSTORE PUSH1 0x1C PUSH1 0x24 DUP3 ADD MSTORE PUSH32 0x596F752063616E6E6F74207265646F207468697320616374696F6E2E00000000 PUSH1 0x44 DUP3 ADD MSTORE PUSH1 0x64 ADD PUSH2 0xDA JUMP JUMPDEST PUSH1 0x2 DUP1 SLOAD PUSH1 0xFF NOT AND PUSH1 0x1 OR SWAP1 SSTORE SELFBALANCE PUSH2 0x19F JUMPI PUSH1 0x40 MLOAD PUSH3 0x461BCD PUSH1 0xE5 SHL DUP2 MSTORE PUSH1 0x20 PUSH1 0x4 DUP3 ADD MSTORE PUSH1 0x26 PUSH1 0x24 DUP3 ADD MSTORE PUSH32 0x596F752068617665206E6F7468696E6720796574206F6E207468697320636F6E PUSH1 0x44 DUP3 ADD MSTORE PUSH6 0x3A3930B1BA17 PUSH1 0xD1 SHL PUSH1 0x64 DUP3 ADD MSTORE PUSH1 0x84 ADD PUSH2 0xDA JUMP JUMPDEST PUSH1 0x40 MLOAD PUSH1 0x0 SWAP1 CALLER SWAP1 SELFBALANCE SWAP1 DUP4 DUP2 DUP2 DUP2 DUP6 DUP8 GAS CALL SWAP3 POP POP POP RETURNDATASIZE DUP1 PUSH1 0x0 DUP2 EQ PUSH2 0x1E1 JUMPI PUSH1 0x40 MLOAD SWAP2 POP PUSH1 0x1F NOT PUSH1 0x3F RETURNDATASIZE ADD AND DUP3 ADD PUSH1 0x40 MSTORE RETURNDATASIZE DUP3 MSTORE RETURNDATASIZE PUSH1 0x0 PUSH1 0x20 DUP5 ADD RETURNDATACOPY PUSH2 0x1E6 JUMP JUMPDEST PUSH1 0x60 SWAP2 POP JUMPDEST POP POP PUSH1 0x0 PUSH1 0x1 SSTORE SWAP1 POP DUP1 PUSH2 0x235 JUMPI PUSH1 0x40 MLOAD PUSH3 0x461BCD PUSH1 0xE5 SHL DUP2 MSTORE PUSH1 0x20 PUSH1 0x4 DUP3 ADD MSTORE PUSH1 0x16 PUSH1 0x24 DUP3 ADD MSTORE PUSH22 0x2A34329036B7B732BC903BB0B9B713BA1039B2B73A17 PUSH1 0x51 SHL PUSH1 0x44 DUP3 ADD MSTORE PUSH1 0x64 ADD PUSH2 0xDA JUMP JUMPDEST POP POP PUSH1 0x2 DUP1 SLOAD PUSH1 0xFF NOT AND SWAP1 SSTORE JUMP JUMPDEST CALLVALUE PUSH1 0x1 PUSH1 0x0 DUP3 DUP3 SLOAD PUSH2 0x255 SWAP2 SWAP1 PUSH2 0x280 JUMP JUMPDEST SWAP1 SWAP2 SSTORE POP POP CALLER PUSH1 0x0 SWAP1 DUP2 MSTORE PUSH1 0x3 PUSH1 0x20 MSTORE PUSH1 0x40 DUP2 KECCAK256 DUP1 SLOAD CALLVALUE SWAP3 SWAP1 PUSH2 0x279 SWAP1 DUP5 SWAP1 PUSH2 0x280 JUMP JUMPDEST SWAP1 SWAP2 SSTORE POP POP JUMP JUMPDEST PUSH1 0x0 DUP3 NOT DUP3 GT ISZERO PUSH2 0x2A1 JUMPI PUSH4 0x4E487B71 PUSH1 0xE0 SHL PUSH1 0x0 MSTORE PUSH1 0x11 PUSH1 0x4 MSTORE PUSH1 0x24 PUSH1 0x0 REVERT JUMPDEST POP ADD SWAP1 JUMP INVALID LOG2 PUSH5 0x6970667358 0x22 SLT KECCAK256 MLOAD 0x2C PUSH11 0x704F14062384BC215DF067 0xF7 LOG3 0x4B 0x49 PUSH10 0x9946F0A7551FC0DEAC61 0xE5 MUL 0x4B PUSH5 0x736F6C6343 STOP ADDMOD 0xC STOP CALLER ",
  "sha1": "93bb3b98f0ea5f4faf83eb0cc62f6b2238197e7b",
  "source": "// SPDX-License-Identifier: MIT\n\npragma solidity >0.6.0;\n\n// A solidity program that functions as a crowdsourcing code.\n// Anyone can pay in money into the code, but only the owner can withdraw\n\ncontract EtherWallet\n{\n    // Initialize an address for the owner of the contract\n    address payable owner;\n\n    // Also initialize the amount we have in our contract so as to keep record of the funding\n    uint public amount;\n\n    // setting locked = false for check in reentrance\n    bool locked;\n\n    // I would love to keep accounts of all that have contributed money to this contract\n    // I am going to map each address to a value sent\n    mapping(address => uint) donors;\n\n    // Constructor, makes the deployer the owner of the contract by default.\n    // This should run on a successful deploy\n    constructor()\n    {\n        owner = payable(msg.sender);\n    }\n\n\n    // Declaring two modifiers\n    // 1. One making sure to correct the reentrancyhack\n    // 2. One to make sure that the owner can withdraw\n\n    modifier OnlyOwnerCanWithdraw(address withdrawer)\n    {\n        require(withdrawer == owner, \"Only the owner is allowed to withdraw.\");\n        _;\n    }\n\n    modifier NoReentrance()\n    {\n        require(!locked, \"You cannot redo this action.\");\n        locked = true;\n        _;\n        locked = false;\n    }\n\n\n\n    // A function that deposits money into the wallet\n    function Deposit() public payable\n    {\n        amount += msg.value;\n        donors[msg.sender] += msg.value;\n    }\n\n\n    // withdrawa function\n    function Withdraw() public payable OnlyOwnerCanWithdraw(msg.sender) NoReentrance\n    {\n        // check for the total balances\n        require(address(this).balance > 0, \"You have nothing yet on this contract.\");\n        (bool sent, ) = payable(msg.sender).call{value: address(this).balance}(\"\");\n        amount = 0;\n        // payable(msg.sender).transfer(address(this).balance);\n        \n        require(sent, \"The money wasn't sent.\");\n    }\n}",
  "sourcePath": "contracts/EtherWallet.sol",
  "type": "contract"
}