{"abi":[{"inputs":[],"stateMutability":"nonpayable","type":"constructor","name":"constructor"},{"anonymous":false,"inputs":[{"indexed":true,"internalType":"address","name":"owner","type":"address"},{"indexed":true,"internalType":"address","name":"spender","type":"address"},{"indexed":false,"internalType":"uint256","name":"value","type":"uint256"}],"name":"Approval","type":"event"},{"anonymous":false,"inputs":[{"indexed":false,"internalType":"address","name":"","type":"address"},{"indexed":false,"internalType":"uint256","name":"","type":"uint256"},{"indexed":false,"internalType":"uint256","name":"","type":"uint256"}],"name":"Burn","type":"event"},{"anonymous":false,"inputs":[{"indexed":false,"internalType":"address","name":"","type":"address"},{"indexed":false,"internalType":"uint256","name":"","type":"uint256"},{"indexed":false,"internalType":"address","name":"","type":"address"}],"name":"Change","type":"event"},{"anonymous":false,"inputs":[{"indexed":false,"internalType":"address","name":"","type":"address"},{"indexed":false,"internalType":"uint256","name":"","type":"uint256"},{"indexed":false,"internalType":"string","name":"","type":"string"},{"indexed":false,"internalType":"uint256","name":"","type":"uint256"}],"name":"Create","type":"event"},{"anonymous":false,"inputs":[{"indexed":false,"internalType":"address","name":"","type":"address"},{"indexed":false,"internalType":"uint256","name":"","type":"uint256"},{"indexed":false,"internalType":"uint256","name":"","type":"uint256"}],"name":"Mint","type":"event"},{"anonymous":false,"inputs":[{"indexed":true,"internalType":"address","name":"from","type":"address"},{"indexed":true,"internalType":"address","name":"to","type":"address"},{"indexed":false,"internalType":"uint256","name":"value","type":"uint256"}],"name":"Transfer","type":"event"},{"inputs":[{"internalType":"address","name":"owner","type":"address"},{"internalType":"address","name":"spender","type":"address"}],"name":"allowance","outputs":[{"internalType":"uint256","name":"","type":"uint256"}],"stateMutability":"view","type":"function"},{"inputs":[{"internalType":"address","name":"spender","type":"address"},{"internalType":"uint256","name":"amount","type":"uint256"}],"name":"approve","outputs":[{"internalType":"bool","name":"","type":"bool"}],"stateMutability":"nonpayable","type":"function"},{"inputs":[{"internalType":"address","name":"account","type":"address"}],"name":"balanceOf","outputs":[{"internalType":"uint256","name":"","type":"uint256"}],"stateMutability":"view","type":"function"},{"inputs":[{"internalType":"uint256","name":"amount","type":"uint256"}],"name":"burn","outputs":[],"stateMutability":"nonpayable","type":"function"},{"inputs":[{"internalType":"address","name":"new_owner","type":"address"}],"name":"changeOwner","outputs":[],"stateMutability":"nonpayable","type":"function"},{"inputs":[],"name":"decimals","outputs":[{"internalType":"uint8","name":"__decimals","type":"uint8"}],"stateMutability":"view","type":"function"},{"inputs":[{"internalType":"uint256","name":"amount","type":"uint256"}],"name":"mint","outputs":[],"stateMutability":"nonpayable","type":"function"},{"inputs":[],"name":"name","outputs":[{"internalType":"string","name":"__name","type":"string"}],"stateMutability":"view","type":"function"},{"inputs":[],"name":"symbol","outputs":[{"internalType":"string","name":"__symbol","type":"string"}],"stateMutability":"view","type":"function"},{"inputs":[],"name":"totalSupply","outputs":[{"internalType":"uint256","name":"__totalSupply","type":"uint256"}],"stateMutability":"view","type":"function"},{"inputs":[{"internalType":"address","name":"to","type":"address"},{"internalType":"uint256","name":"amount","type":"uint256"}],"name":"transfer","outputs":[{"internalType":"bool","name":"","type":"bool"}],"stateMutability":"nonpayable","type":"function"},{"inputs":[{"internalType":"address","name":"from","type":"address"},{"internalType":"address","name":"to","type":"address"},{"internalType":"uint256","name":"amount","type":"uint256"}],"name":"transferFrom","outputs":[{"internalType":"bool","name":"","type":"bool"}],"stateMutability":"nonpayable","type":"function"}],"bytecode":"608060405260038054610100600160a81b031916745e078e6b545cf88abd5bb58d27488ef8be0d2593001790553480156200003957600080fd5b50604080518082019091526009808252680416775696120322e360bc1b60209092019182526200006c916000916200015f565b50604080518082019091526004808252632441475560e01b60209092019182526200009a916001916200015f565b506003805460ff19166012908117909155620000b890600a6200031a565b620000c890633b9aca0062000332565b6002818155600380546001600160a01b0361010091829004811660009081526005602090815260408083209790975584548490048316825260049052858120805460ff191660011790559254935494517fd22703eb7e5fcd6571599f2fabdcd1fe74d9ad3a748b1ce6235b2376a9bcfcbc95620001519593909304909116924292909162000391565b60405180910390a162000464565b8280546200016d9062000354565b90600052602060002090601f016020900481019282620001915760008555620001dc565b82601f10620001ac57805160ff1916838001178555620001dc565b82800160010185558215620001dc579182015b82811115620001dc578251825591602001919060010190620001bf565b50620001ea929150620001ee565b5090565b5b80821115620001ea5760008155600101620001ef565b634e487b7160e01b600052601160045260246000fd5b600181815b808511156200025c57816000190482111562000240576200024062000205565b808516156200024e57918102915b93841c939080029062000220565b509250929050565b600082620002755750600162000314565b81620002845750600062000314565b81600181146200029d5760028114620002a857620002c8565b600191505062000314565b60ff841115620002bc57620002bc62000205565b50506001821b62000314565b5060208310610133831016604e8410600b8410161715620002ed575081810a62000314565b620002f983836200021b565b806000190482111562000310576200031062000205565b0290505b92915050565b60006200032b60ff84168362000264565b9392505050565b60008160001904831182151516156200034f576200034f62000205565b500290565b600181811c908216806200036957607f821691505b602082108114156200038b57634e487b7160e01b600052602260045260246000fd5b50919050565b6001600160a01b03851681526020808201859052608060408301528354600091908290600181811c9082811680620003ca57607f831692505b858310811415620003e957634e487b7160e01b85526022600452602485fd5b6080880183905260a088018180156200040b57600181146200041d576200044a565b60ff198616825287820196506200044a565b60008c81526020902060005b86811015620004445781548482015290850190890162000429565b83019750505b505050505050809250505082606083015295945050505050565b61109480620004746000396000f3fe608060405234801561001057600080fd5b50600436106100b45760003560e01c806370a082311161007157806370a082311461014957806395d89b411461015c578063a0712d6814610164578063a6f9dae114610177578063a9059cbb1461018a578063dd62ed3e1461019d57600080fd5b806306fdde03146100b9578063095ea7b3146100d757806318160ddd146100fa57806323b872dd1461010c578063313ce5671461011f57806342966c6814610134575b600080fd5b6100c16101b0565b6040516100ce9190610d2a565b60405180910390f35b6100ea6100e5366004610d9b565b610242565b60405190151581526020016100ce565b6002545b6040519081526020016100ce565b6100ea61011a366004610dc5565b6103f9565b60035460405160ff90911681526020016100ce565b610147610142366004610e01565b610676565b005b6100fe610157366004610e1a565b61071b565b6100c1610780565b610147610172366004610e01565b61078f565b610147610185366004610e1a565b61082c565b6100ea610198366004610d9b565b610921565b6100fe6101ab366004610e35565b610b10565b6060600080546101bf90610e68565b80601f01602080910402602001604051908101604052809291908181526020018280546101eb90610e68565b80156102385780601f1061020d57610100808354040283529160200191610238565b820191906000526020600020905b81548152906001019060200180831161021b57829003601f168201915b5050505050905090565b60003361026a5760405162461bcd60e51b815260040161026190610ea3565b60405180910390fd5b6001600160a01b0383166102905760405162461bcd60e51b815260040161026190610ec5565b61029933610c3d565b6102d75760405162461bcd60e51b815260206004820152600f60248201526e214163636f756e742045786973747360881b6044820152606401610261565b336001600160a01b03841614156103245760405162461bcd60e51b815260206004820152601160248201527021b0b63632b9101e9e9029b832b73232b960791b6044820152606401610261565b336000908152600560205260409020548211156103765760405162461bcd60e51b815260206004820152601060248201526f10985b185b98d9480f08105b5bdd5b9d60821b6044820152606401610261565b3360009081526006602090815260408083206001600160a01b0387168452909152812080548492906103a9908490610efd565b90915550506040518281526001600160a01b0384169033907f8c5be1e5ebec7d5bd14f71427d1e84f3dd0314c0f7b2291e5b200ac8c7c3b925906020015b60405180910390a35060015b92915050565b6000336104185760405162461bcd60e51b815260040161026190610ea3565b6001600160a01b0384166104565760405162461bcd60e51b81526020600482015260056024820152642146726f6d60d81b6044820152606401610261565b6001600160a01b0383166104925760405162461bcd60e51b815260206004820152600360248201526221546f60e81b6044820152606401610261565b61049b84610c3d565b6104d65760405162461bcd60e51b815260206004820152600c60248201526b46726f6d202145786973747360a01b6044820152606401610261565b6104df83610c3d565b6105185760405162461bcd60e51b815260206004820152600a602482015269546f202145786973747360b01b6044820152606401610261565b6001600160a01b038416600090815260066020908152604080832033845290915290205482111561057e5760405162461bcd60e51b815260206004820152601060248201526f10985b185b98d9480f08105b5bdd5b9d60821b6044820152606401610261565b6001600160a01b0384166000908152600560205260409020546105a19083610c5b565b6001600160a01b0380861660009081526005602052604080822093909355908516815220546105d09083610cf5565b6001600160a01b03808516600090815260056020908152604080832094909455918716815260068252828120338252909152205461060e9083610c5b565b6001600160a01b03858116600081815260066020908152604080832033845282529182902094909455518581529186169290917fddf252ad1be2c89b69c2b068fc378daa952ba7f163c4a11628f55a4df523b3ef910160405180910390a35060019392505050565b60035461010090046001600160a01b031633146106a55760405162461bcd60e51b815260040161026190610f15565b6003546000906106b99060ff16600a611019565b6106c39083611028565b6002549091506106d39082610c5b565b600255604080513381524260208201529081018290527f49995e5dd6158cf69ad3e9777c46755a1a826a446c6416992167462dad033b2a906060015b60405180910390a15050565b600061072682610c3d565b6107645760405162461bcd60e51b815260206004820152600f60248201526e4163636f756e74202145786973747360881b6044820152606401610261565b506001600160a01b031660009081526005602052604090205490565b6060600180546101bf90610e68565b60035461010090046001600160a01b031633146107be5760405162461bcd60e51b815260040161026190610f15565b6003546000906107d29060ff16600a611019565b6107dc9083611028565b6002549091506107ec9082610cf5565b600255604080513381524260208201529081018290527f4c209b5fc8ad50758f13e2e1088ba56a560dff690a1c6fef26394f4c03821c4f9060600161070f565b60035461010090046001600160a01b0316331461085b5760405162461bcd60e51b815260040161026190610f15565b6003546001600160a01b038281166101009092041614156108b75760405162461bcd60e51b81526020600482015260166024820152752732bb9027bbb732b9101e9e9027b6321037bbb732b960511b6044820152606401610261565b60038054610100600160a81b0319166101006001600160a01b0384169081029190911790915560408051338152426020820152908101919091527f7ed2eaabf2d858a79ae8c0881d58b360eebe77621f84572492270446725e6be19060600160405180910390a150565b6000336109405760405162461bcd60e51b815260040161026190610ea3565b61094933610c3d565b6109875760405162461bcd60e51b815260206004820152600f60248201526e4163636f756e74202145786973747360881b6044820152606401610261565b6001600160a01b0383166109d15760405162461bcd60e51b8152602060048201526011602482015270526563656976657220214164647265737360781b6044820152606401610261565b60008211610a0f5760405162461bcd60e51b815260206004820152600b60248201526a0416d6f756e74203d3d20360ac1b6044820152606401610261565b33600090815260056020526040902054821115610a665760405162461bcd60e51b815260206004820152601560248201527415d85b1b195d08199d5b991cc80f08185b5bdd5b9d605a1b6044820152606401610261565b33600090815260056020526040902054610a809083610c5b565b33600090815260056020526040808220929092556001600160a01b03851681522054610aac9083610cf5565b6001600160a01b03841660008181526005602090815260408083209490945560049052829020805460ff19166001179055905133907fddf252ad1be2c89b69c2b068fc378daa952ba7f163c4a11628f55a4df523b3ef906103e79086815260200190565b600033610b2f5760405162461bcd60e51b815260040161026190610ea3565b6001600160a01b038316610b555760405162461bcd60e51b815260040161026190610f15565b6001600160a01b038216610b7b5760405162461bcd60e51b815260040161026190610ec5565b610b8483610c3d565b610ba05760405162461bcd60e51b815260040161026190610f15565b610ba982610c3d565b610bc55760405162461bcd60e51b815260040161026190610ec5565b610bcf8383610d02565b610c115760405162461bcd60e51b8152602060048201526013602482015272214f776e657220262620215370656e6465722960681b6044820152606401610261565b506001600160a01b03918216600090815260066020908152604080832093909416825291909152205490565b6001600160a01b031660009081526004602052604090205460ff1690565b600081831015610ce15760405162461bcd60e51b815260206004820152604560248201527f4c696272617279206572726f723a205365636f6e6420706172616d657465722060448201527f73686f756c64206265206c657373206f7220657175616c20746f20746865206660648201526434b939ba1760d91b608482015260a401610261565b6000610ced8385611047565b949350505050565b600080610ced8385610efd565b6000336001600160a01b0384161480610d235750336001600160a01b038316145b9392505050565b600060208083528351808285015260005b81811015610d5757858101830151858201604001528201610d3b565b81811115610d69576000604083870101525b50601f01601f1916929092016040019392505050565b80356001600160a01b0381168114610d9657600080fd5b919050565b60008060408385031215610dae57600080fd5b610db783610d7f565b946020939093013593505050565b600080600060608486031215610dda57600080fd5b610de384610d7f565b9250610df160208501610d7f565b9150604084013590509250925092565b600060208284031215610e1357600080fd5b5035919050565b600060208284031215610e2c57600080fd5b610d2382610d7f565b60008060408385031215610e4857600080fd5b610e5183610d7f565b9150610e5f60208401610d7f565b90509250929050565b600181811c90821680610e7c57607f821691505b60208210811415610e9d57634e487b7160e01b600052602260045260246000fd5b50919050565b602080825260089082015267214164647265737360c01b604082015260600190565b60208082526008908201526710a9b832b73232b960c11b604082015260600190565b634e487b7160e01b600052601160045260246000fd5b60008219821115610f1057610f10610ee7565b500190565b60208082526006908201526510a7bbb732b960d11b604082015260600190565b600181815b80851115610f70578160001904821115610f5657610f56610ee7565b80851615610f6357918102915b93841c9390800290610f3a565b509250929050565b600082610f87575060016103f3565b81610f94575060006103f3565b8160018114610faa5760028114610fb457610fd0565b60019150506103f3565b60ff841115610fc557610fc5610ee7565b50506001821b6103f3565b5060208310610133831016604e8410600b8410161715610ff3575081810a6103f3565b610ffd8383610f35565b806000190482111561101157611011610ee7565b029392505050565b6000610d2360ff841683610f78565b600081600019048311821515161561104257611042610ee7565b500290565b60008282101561105957611059610ee7565b50039056fea264697066735822122013bbdda85c706945c19e1ab3aa741fac8df101dd6971f13358bb9604744beae764736f6c634300080c0033","bytecodeSha1":"39b80929185f74c1fcc0180aa1f8998c71b210c9","compiler":{"evm_version":"istanbul","optimizer":{"enabled":true,"runs":200},"version":"0.8.12+commit.f00d7308"},"contractName":"Aguia","language":"Solidity","natspec":{"kind":"dev","methods":{"allowance(address,address)":{"details":"Returns the remaining number of tokens that `spender` will be allowed to spend on behalf of `owner` through {transferFrom}. This is zero by default. This value changes when {approve} or {transferFrom} are called."},"approve(address,uint256)":{"details":"Sets `amount` as the allowance of `spender` over the caller's tokens. Returns a boolean value indicating whether the operation succeeded. IMPORTANT: Beware that changing an allowance with this method brings the risk that someone may use both the old and the new allowance by unfortunate transaction ordering. One possible solution to mitigate this race condition is to first reduce the spender's allowance to 0 and set the desired value afterwards: https://github.com/ethereum/EIPs/issues/20#issuecomment-263524729 Emits an {Approval} event."},"balanceOf(address)":{"details":"Returns the amount of tokens owned by `account`."},"totalSupply()":{"details":"Returns the amount of tokens in existence."},"transfer(address,uint256)":{"details":"Moves `amount` tokens from the caller's account to `to`. Returns a boolean value indicating whether the operation succeeded. Emits a {Transfer} event."},"transferFrom(address,address,uint256)":{"details":"Moves `amount` tokens from `from` to `to` using the allowance mechanism. `amount` is then deducted from the caller's allowance. Returns a boolean value indicating whether the operation succeeded. The person calling transferFrom doesn't need to own tokens. Emits a {Transfer} event."}},"version":1},"opcodes":"PUSH1 0x80 PUSH1 0x40 MSTORE CALLVALUE DUP1 ISZERO PUSH2 0x10 JUMPI PUSH1 0x0 DUP1 REVERT JUMPDEST POP PUSH1 0x4 CALLDATASIZE LT PUSH2 0xB4 JUMPI PUSH1 0x0 CALLDATALOAD PUSH1 0xE0 SHR DUP1 PUSH4 0x70A08231 GT PUSH2 0x71 JUMPI DUP1 PUSH4 0x70A08231 EQ PUSH2 0x149 JUMPI DUP1 PUSH4 0x95D89B41 EQ PUSH2 0x15C JUMPI DUP1 PUSH4 0xA0712D68 EQ PUSH2 0x164 JUMPI DUP1 PUSH4 0xA6F9DAE1 EQ PUSH2 0x177 JUMPI DUP1 PUSH4 0xA9059CBB EQ PUSH2 0x18A JUMPI DUP1 PUSH4 0xDD62ED3E EQ PUSH2 0x19D JUMPI PUSH1 0x0 DUP1 REVERT JUMPDEST DUP1 PUSH4 0x6FDDE03 EQ PUSH2 0xB9 JUMPI DUP1 PUSH4 0x95EA7B3 EQ PUSH2 0xD7 JUMPI DUP1 PUSH4 0x18160DDD EQ PUSH2 0xFA JUMPI DUP1 PUSH4 0x23B872DD EQ PUSH2 0x10C JUMPI DUP1 PUSH4 0x313CE567 EQ PUSH2 0x11F JUMPI DUP1 PUSH4 0x42966C68 EQ PUSH2 0x134 JUMPI JUMPDEST PUSH1 0x0 DUP1 REVERT JUMPDEST PUSH2 0xC1 PUSH2 0x1B0 JUMP JUMPDEST PUSH1 0x40 MLOAD PUSH2 0xCE SWAP2 SWAP1 PUSH2 0xD2A JUMP JUMPDEST PUSH1 0x40 MLOAD DUP1 SWAP2 SUB SWAP1 RETURN JUMPDEST PUSH2 0xEA PUSH2 0xE5 CALLDATASIZE PUSH1 0x4 PUSH2 0xD9B JUMP JUMPDEST PUSH2 0x242 JUMP JUMPDEST PUSH1 0x40 MLOAD SWAP1 ISZERO ISZERO DUP2 MSTORE PUSH1 0x20 ADD PUSH2 0xCE JUMP JUMPDEST PUSH1 0x2 SLOAD JUMPDEST PUSH1 0x40 MLOAD SWAP1 DUP2 MSTORE PUSH1 0x20 ADD PUSH2 0xCE JUMP JUMPDEST PUSH2 0xEA PUSH2 0x11A CALLDATASIZE PUSH1 0x4 PUSH2 0xDC5 JUMP JUMPDEST PUSH2 0x3F9 JUMP JUMPDEST PUSH1 0x3 SLOAD PUSH1 0x40 MLOAD PUSH1 0xFF SWAP1 SWAP2 AND DUP2 MSTORE PUSH1 0x20 ADD PUSH2 0xCE JUMP JUMPDEST PUSH2 0x147 PUSH2 0x142 CALLDATASIZE PUSH1 0x4 PUSH2 0xE01 JUMP JUMPDEST PUSH2 0x676 JUMP JUMPDEST STOP JUMPDEST PUSH2 0xFE PUSH2 0x157 CALLDATASIZE PUSH1 0x4 PUSH2 0xE1A JUMP JUMPDEST PUSH2 0x71B JUMP JUMPDEST PUSH2 0xC1 PUSH2 0x780 JUMP JUMPDEST PUSH2 0x147 PUSH2 0x172 CALLDATASIZE PUSH1 0x4 PUSH2 0xE01 JUMP JUMPDEST PUSH2 0x78F JUMP JUMPDEST PUSH2 0x147 PUSH2 0x185 CALLDATASIZE PUSH1 0x4 PUSH2 0xE1A JUMP JUMPDEST PUSH2 0x82C JUMP JUMPDEST PUSH2 0xEA PUSH2 0x198 CALLDATASIZE PUSH1 0x4 PUSH2 0xD9B JUMP JUMPDEST PUSH2 0x921 JUMP JUMPDEST PUSH2 0xFE PUSH2 0x1AB CALLDATASIZE PUSH1 0x4 PUSH2 0xE35 JUMP JUMPDEST PUSH2 0xB10 JUMP JUMPDEST PUSH1 0x60 PUSH1 0x0 DUP1 SLOAD PUSH2 0x1BF SWAP1 PUSH2 0xE68 JUMP JUMPDEST DUP1 PUSH1 0x1F ADD PUSH1 0x20 DUP1 SWAP2 DIV MUL PUSH1 0x20 ADD PUSH1 0x40 MLOAD SWAP1 DUP2 ADD PUSH1 0x40 MSTORE DUP1 SWAP3 SWAP2 SWAP1 DUP2 DUP2 MSTORE PUSH1 0x20 ADD DUP3 DUP1 SLOAD PUSH2 0x1EB SWAP1 PUSH2 0xE68 JUMP JUMPDEST DUP1 ISZERO PUSH2 0x238 JUMPI DUP1 PUSH1 0x1F LT PUSH2 0x20D JUMPI PUSH2 0x100 DUP1 DUP4 SLOAD DIV MUL DUP4 MSTORE SWAP2 PUSH1 0x20 ADD SWAP2 PUSH2 0x238 JUMP JUMPDEST DUP3 ADD SWAP2 SWAP1 PUSH1 0x0 MSTORE PUSH1 0x20 PUSH1 0x0 KECCAK256 SWAP1 JUMPDEST DUP2 SLOAD DUP2 MSTORE SWAP1 PUSH1 0x1 ADD SWAP1 PUSH1 0x20 ADD DUP1 DUP4 GT PUSH2 0x21B JUMPI DUP3 SWAP1 SUB PUSH1 0x1F AND DUP3 ADD SWAP2 JUMPDEST POP POP POP POP POP SWAP1 POP SWAP1 JUMP JUMPDEST PUSH1 0x0 CALLER PUSH2 0x26A JUMPI PUSH1 0x40 MLOAD PUSH3 0x461BCD PUSH1 0xE5 SHL DUP2 MSTORE PUSH1 0x4 ADD PUSH2 0x261 SWAP1 PUSH2 0xEA3 JUMP JUMPDEST PUSH1 0x40 MLOAD DUP1 SWAP2 SUB SWAP1 REVERT JUMPDEST PUSH1 0x1 PUSH1 0x1 PUSH1 0xA0 SHL SUB DUP4 AND PUSH2 0x290 JUMPI PUSH1 0x40 MLOAD PUSH3 0x461BCD PUSH1 0xE5 SHL DUP2 MSTORE PUSH1 0x4 ADD PUSH2 0x261 SWAP1 PUSH2 0xEC5 JUMP JUMPDEST PUSH2 0x299 CALLER PUSH2 0xC3D JUMP JUMPDEST PUSH2 0x2D7 JUMPI PUSH1 0x40 MLOAD PUSH3 0x461BCD PUSH1 0xE5 SHL DUP2 MSTORE PUSH1 0x20 PUSH1 0x4 DUP3 ADD MSTORE PUSH1 0xF PUSH1 0x24 DUP3 ADD MSTORE PUSH15 0x214163636F756E7420457869737473 PUSH1 0x88 SHL PUSH1 0x44 DUP3 ADD MSTORE PUSH1 0x64 ADD PUSH2 0x261 JUMP JUMPDEST CALLER PUSH1 0x1 PUSH1 0x1 PUSH1 0xA0 SHL SUB DUP5 AND EQ ISZERO PUSH2 0x324 JUMPI PUSH1 0x40 MLOAD PUSH3 0x461BCD PUSH1 0xE5 SHL DUP2 MSTORE PUSH1 0x20 PUSH1 0x4 DUP3 ADD MSTORE PUSH1 0x11 PUSH1 0x24 DUP3 ADD MSTORE PUSH17 0x21B0B63632B9101E9E9029B832B73232B9 PUSH1 0x79 SHL PUSH1 0x44 DUP3 ADD MSTORE PUSH1 0x64 ADD PUSH2 0x261 JUMP JUMPDEST CALLER PUSH1 0x0 SWAP1 DUP2 MSTORE PUSH1 0x5 PUSH1 0x20 MSTORE PUSH1 0x40 SWAP1 KECCAK256 SLOAD DUP3 GT ISZERO PUSH2 0x376 JUMPI PUSH1 0x40 MLOAD PUSH3 0x461BCD PUSH1 0xE5 SHL DUP2 MSTORE PUSH1 0x20 PUSH1 0x4 DUP3 ADD MSTORE PUSH1 0x10 PUSH1 0x24 DUP3 ADD MSTORE PUSH16 0x10985B185B98D9480F08105B5BDD5B9D PUSH1 0x82 SHL PUSH1 0x44 DUP3 ADD MSTORE PUSH1 0x64 ADD PUSH2 0x261 JUMP JUMPDEST CALLER PUSH1 0x0 SWAP1 DUP2 MSTORE PUSH1 0x6 PUSH1 0x20 SWAP1 DUP2 MSTORE PUSH1 0x40 DUP1 DUP4 KECCAK256 PUSH1 0x1 PUSH1 0x1 PUSH1 0xA0 SHL SUB DUP8 AND DUP5 MSTORE SWAP1 SWAP2 MSTORE DUP2 KECCAK256 DUP1 SLOAD DUP5 SWAP3 SWAP1 PUSH2 0x3A9 SWAP1 DUP5 SWAP1 PUSH2 0xEFD JUMP JUMPDEST SWAP1 SWAP2 SSTORE POP POP PUSH1 0x40 MLOAD DUP3 DUP2 MSTORE PUSH1 0x1 PUSH1 0x1 PUSH1 0xA0 SHL SUB DUP5 AND SWAP1 CALLER SWAP1 PUSH32 0x8C5BE1E5EBEC7D5BD14F71427D1E84F3DD0314C0F7B2291E5B200AC8C7C3B925 SWAP1 PUSH1 0x20 ADD JUMPDEST PUSH1 0x40 MLOAD DUP1 SWAP2 SUB SWAP1 LOG3 POP PUSH1 0x1 JUMPDEST SWAP3 SWAP2 POP POP JUMP JUMPDEST PUSH1 0x0 CALLER PUSH2 0x418 JUMPI PUSH1 0x40 MLOAD PUSH3 0x461BCD PUSH1 0xE5 SHL DUP2 MSTORE PUSH1 0x4 ADD PUSH2 0x261 SWAP1 PUSH2 0xEA3 JUMP JUMPDEST PUSH1 0x1 PUSH1 0x1 PUSH1 0xA0 SHL SUB DUP5 AND PUSH2 0x456 JUMPI PUSH1 0x40 MLOAD PUSH3 0x461BCD PUSH1 0xE5 SHL DUP2 MSTORE PUSH1 0x20 PUSH1 0x4 DUP3 ADD MSTORE PUSH1 0x5 PUSH1 0x24 DUP3 ADD MSTORE PUSH5 0x2146726F6D PUSH1 0xD8 SHL PUSH1 0x44 DUP3 ADD MSTORE PUSH1 0x64 ADD PUSH2 0x261 JUMP JUMPDEST PUSH1 0x1 PUSH1 0x1 PUSH1 0xA0 SHL SUB DUP4 AND PUSH2 0x492 JUMPI PUSH1 0x40 MLOAD PUSH3 0x461BCD PUSH1 0xE5 SHL DUP2 MSTORE PUSH1 0x20 PUSH1 0x4 DUP3 ADD MSTORE PUSH1 0x3 PUSH1 0x24 DUP3 ADD MSTORE PUSH3 0x21546F PUSH1 0xE8 SHL PUSH1 0x44 DUP3 ADD MSTORE PUSH1 0x64 ADD PUSH2 0x261 JUMP JUMPDEST PUSH2 0x49B DUP5 PUSH2 0xC3D JUMP JUMPDEST PUSH2 0x4D6 JUMPI PUSH1 0x40 MLOAD PUSH3 0x461BCD PUSH1 0xE5 SHL DUP2 MSTORE PUSH1 0x20 PUSH1 0x4 DUP3 ADD MSTORE PUSH1 0xC PUSH1 0x24 DUP3 ADD MSTORE PUSH12 0x46726F6D2021457869737473 PUSH1 0xA0 SHL PUSH1 0x44 DUP3 ADD MSTORE PUSH1 0x64 ADD PUSH2 0x261 JUMP JUMPDEST PUSH2 0x4DF DUP4 PUSH2 0xC3D JUMP JUMPDEST PUSH2 0x518 JUMPI PUSH1 0x40 MLOAD PUSH3 0x461BCD PUSH1 0xE5 SHL DUP2 MSTORE PUSH1 0x20 PUSH1 0x4 DUP3 ADD MSTORE PUSH1 0xA PUSH1 0x24 DUP3 ADD MSTORE PUSH10 0x546F2021457869737473 PUSH1 0xB0 SHL PUSH1 0x44 DUP3 ADD MSTORE PUSH1 0x64 ADD PUSH2 0x261 JUMP JUMPDEST PUSH1 0x1 PUSH1 0x1 PUSH1 0xA0 SHL SUB DUP5 AND PUSH1 0x0 SWAP1 DUP2 MSTORE PUSH1 0x6 PUSH1 0x20 SWAP1 DUP2 MSTORE PUSH1 0x40 DUP1 DUP4 KECCAK256 CALLER DUP5 MSTORE SWAP1 SWAP2 MSTORE SWAP1 KECCAK256 SLOAD DUP3 GT ISZERO PUSH2 0x57E JUMPI PUSH1 0x40 MLOAD PUSH3 0x461BCD PUSH1 0xE5 SHL DUP2 MSTORE PUSH1 0x20 PUSH1 0x4 DUP3 ADD MSTORE PUSH1 0x10 PUSH1 0x24 DUP3 ADD MSTORE PUSH16 0x10985B185B98D9480F08105B5BDD5B9D PUSH1 0x82 SHL PUSH1 0x44 DUP3 ADD MSTORE PUSH1 0x64 ADD PUSH2 0x261 JUMP JUMPDEST PUSH1 0x1 PUSH1 0x1 PUSH1 0xA0 SHL SUB DUP5 AND PUSH1 0x0 SWAP1 DUP2 MSTORE PUSH1 0x5 PUSH1 0x20 MSTORE PUSH1 0x40 SWAP1 KECCAK256 SLOAD PUSH2 0x5A1 SWAP1 DUP4 PUSH2 0xC5B JUMP JUMPDEST PUSH1 0x1 PUSH1 0x1 PUSH1 0xA0 SHL SUB DUP1 DUP7 AND PUSH1 0x0 SWAP1 DUP2 MSTORE PUSH1 0x5 PUSH1 0x20 MSTORE PUSH1 0x40 DUP1 DUP3 KECCAK256 SWAP4 SWAP1 SWAP4 SSTORE SWAP1 DUP6 AND DUP2 MSTORE KECCAK256 SLOAD PUSH2 0x5D0 SWAP1 DUP4 PUSH2 0xCF5 JUMP JUMPDEST PUSH1 0x1 PUSH1 0x1 PUSH1 0xA0 SHL SUB DUP1 DUP6 AND PUSH1 0x0 SWAP1 DUP2 MSTORE PUSH1 0x5 PUSH1 0x20 SWAP1 DUP2 MSTORE PUSH1 0x40 DUP1 DUP4 KECCAK256 SWAP5 SWAP1 SWAP5 SSTORE SWAP2 DUP8 AND DUP2 MSTORE PUSH1 0x6 DUP3 MSTORE DUP3 DUP2 KECCAK256 CALLER DUP3 MSTORE SWAP1 SWAP2 MSTORE KECCAK256 SLOAD PUSH2 0x60E SWAP1 DUP4 PUSH2 0xC5B JUMP JUMPDEST PUSH1 0x1 PUSH1 0x1 PUSH1 0xA0 SHL SUB DUP6 DUP2 AND PUSH1 0x0 DUP2 DUP2 MSTORE PUSH1 0x6 PUSH1 0x20 SWAP1 DUP2 MSTORE PUSH1 0x40 DUP1 DUP4 KECCAK256 CALLER DUP5 MSTORE DUP3 MSTORE SWAP2 DUP3 SWAP1 KECCAK256 SWAP5 SWAP1 SWAP5 SSTORE MLOAD DUP6 DUP2 MSTORE SWAP2 DUP7 AND SWAP3 SWAP1 SWAP2 PUSH32 0xDDF252AD1BE2C89B69C2B068FC378DAA952BA7F163C4A11628F55A4DF523B3EF SWAP2 ADD PUSH1 0x40 MLOAD DUP1 SWAP2 SUB SWAP1 LOG3 POP PUSH1 0x1 SWAP4 SWAP3 POP POP POP JUMP JUMPDEST PUSH1 0x3 SLOAD PUSH2 0x100 SWAP1 DIV PUSH1 0x1 PUSH1 0x1 PUSH1 0xA0 SHL SUB AND CALLER EQ PUSH2 0x6A5 JUMPI PUSH1 0x40 MLOAD PUSH3 0x461BCD PUSH1 0xE5 SHL DUP2 MSTORE PUSH1 0x4 ADD PUSH2 0x261 SWAP1 PUSH2 0xF15 JUMP JUMPDEST PUSH1 0x3 SLOAD PUSH1 0x0 SWAP1 PUSH2 0x6B9 SWAP1 PUSH1 0xFF AND PUSH1 0xA PUSH2 0x1019 JUMP JUMPDEST PUSH2 0x6C3 SWAP1 DUP4 PUSH2 0x1028 JUMP JUMPDEST PUSH1 0x2 SLOAD SWAP1 SWAP2 POP PUSH2 0x6D3 SWAP1 DUP3 PUSH2 0xC5B JUMP JUMPDEST PUSH1 0x2 SSTORE PUSH1 0x40 DUP1 MLOAD CALLER DUP2 MSTORE TIMESTAMP PUSH1 0x20 DUP3 ADD MSTORE SWAP1 DUP2 ADD DUP3 SWAP1 MSTORE PUSH32 0x49995E5DD6158CF69AD3E9777C46755A1A826A446C6416992167462DAD033B2A SWAP1 PUSH1 0x60 ADD JUMPDEST PUSH1 0x40 MLOAD DUP1 SWAP2 SUB SWAP1 LOG1 POP POP JUMP JUMPDEST PUSH1 0x0 PUSH2 0x726 DUP3 PUSH2 0xC3D JUMP JUMPDEST PUSH2 0x764 JUMPI PUSH1 0x40 MLOAD PUSH3 0x461BCD PUSH1 0xE5 SHL DUP2 MSTORE PUSH1 0x20 PUSH1 0x4 DUP3 ADD MSTORE PUSH1 0xF PUSH1 0x24 DUP3 ADD MSTORE PUSH15 0x4163636F756E742021457869737473 PUSH1 0x88 SHL PUSH1 0x44 DUP3 ADD MSTORE PUSH1 0x64 ADD PUSH2 0x261 JUMP JUMPDEST POP PUSH1 0x1 PUSH1 0x1 PUSH1 0xA0 SHL SUB AND PUSH1 0x0 SWAP1 DUP2 MSTORE PUSH1 0x5 PUSH1 0x20 MSTORE PUSH1 0x40 SWAP1 KECCAK256 SLOAD SWAP1 JUMP JUMPDEST PUSH1 0x60 PUSH1 0x1 DUP1 SLOAD PUSH2 0x1BF SWAP1 PUSH2 0xE68 JUMP JUMPDEST PUSH1 0x3 SLOAD PUSH2 0x100 SWAP1 DIV PUSH1 0x1 PUSH1 0x1 PUSH1 0xA0 SHL SUB AND CALLER EQ PUSH2 0x7BE JUMPI PUSH1 0x40 MLOAD PUSH3 0x461BCD PUSH1 0xE5 SHL DUP2 MSTORE PUSH1 0x4 ADD PUSH2 0x261 SWAP1 PUSH2 0xF15 JUMP JUMPDEST PUSH1 0x3 SLOAD PUSH1 0x0 SWAP1 PUSH2 0x7D2 SWAP1 PUSH1 0xFF AND PUSH1 0xA PUSH2 0x1019 JUMP JUMPDEST PUSH2 0x7DC SWAP1 DUP4 PUSH2 0x1028 JUMP JUMPDEST PUSH1 0x2 SLOAD SWAP1 SWAP2 POP PUSH2 0x7EC SWAP1 DUP3 PUSH2 0xCF5 JUMP JUMPDEST PUSH1 0x2 SSTORE PUSH1 0x40 DUP1 MLOAD CALLER DUP2 MSTORE TIMESTAMP PUSH1 0x20 DUP3 ADD MSTORE SWAP1 DUP2 ADD DUP3 SWAP1 MSTORE PUSH32 0x4C209B5FC8AD50758F13E2E1088BA56A560DFF690A1C6FEF26394F4C03821C4F SWAP1 PUSH1 0x60 ADD PUSH2 0x70F JUMP JUMPDEST PUSH1 0x3 SLOAD PUSH2 0x100 SWAP1 DIV PUSH1 0x1 PUSH1 0x1 PUSH1 0xA0 SHL SUB AND CALLER EQ PUSH2 0x85B JUMPI PUSH1 0x40 MLOAD PUSH3 0x461BCD PUSH1 0xE5 SHL DUP2 MSTORE PUSH1 0x4 ADD PUSH2 0x261 SWAP1 PUSH2 0xF15 JUMP JUMPDEST PUSH1 0x3 SLOAD PUSH1 0x1 PUSH1 0x1 PUSH1 0xA0 SHL SUB DUP3 DUP2 AND PUSH2 0x100 SWAP1 SWAP3 DIV AND EQ ISZERO PUSH2 0x8B7 JUMPI PUSH1 0x40 MLOAD PUSH3 0x461BCD PUSH1 0xE5 SHL DUP2 MSTORE PUSH1 0x20 PUSH1 0x4 DUP3 ADD MSTORE PUSH1 0x16 PUSH1 0x24 DUP3 ADD MSTORE PUSH22 0x2732BB9027BBB732B9101E9E9027B6321037BBB732B9 PUSH1 0x51 SHL PUSH1 0x44 DUP3 ADD MSTORE PUSH1 0x64 ADD PUSH2 0x261 JUMP JUMPDEST PUSH1 0x3 DUP1 SLOAD PUSH2 0x100 PUSH1 0x1 PUSH1 0xA8 SHL SUB NOT AND PUSH2 0x100 PUSH1 0x1 PUSH1 0x1 PUSH1 0xA0 SHL SUB DUP5 AND SWAP1 DUP2 MUL SWAP2 SWAP1 SWAP2 OR SWAP1 SWAP2 SSTORE PUSH1 0x40 DUP1 MLOAD CALLER DUP2 MSTORE TIMESTAMP PUSH1 0x20 DUP3 ADD MSTORE SWAP1 DUP2 ADD SWAP2 SWAP1 SWAP2 MSTORE PUSH32 0x7ED2EAABF2D858A79AE8C0881D58B360EEBE77621F84572492270446725E6BE1 SWAP1 PUSH1 0x60 ADD PUSH1 0x40 MLOAD DUP1 SWAP2 SUB SWAP1 LOG1 POP JUMP JUMPDEST PUSH1 0x0 CALLER PUSH2 0x940 JUMPI PUSH1 0x40 MLOAD PUSH3 0x461BCD PUSH1 0xE5 SHL DUP2 MSTORE PUSH1 0x4 ADD PUSH2 0x261 SWAP1 PUSH2 0xEA3 JUMP JUMPDEST PUSH2 0x949 CALLER PUSH2 0xC3D JUMP JUMPDEST PUSH2 0x987 JUMPI PUSH1 0x40 MLOAD PUSH3 0x461BCD PUSH1 0xE5 SHL DUP2 MSTORE PUSH1 0x20 PUSH1 0x4 DUP3 ADD MSTORE PUSH1 0xF PUSH1 0x24 DUP3 ADD MSTORE PUSH15 0x4163636F756E742021457869737473 PUSH1 0x88 SHL PUSH1 0x44 DUP3 ADD MSTORE PUSH1 0x64 ADD PUSH2 0x261 JUMP JUMPDEST PUSH1 0x1 PUSH1 0x1 PUSH1 0xA0 SHL SUB DUP4 AND PUSH2 0x9D1 JUMPI PUSH1 0x40 MLOAD PUSH3 0x461BCD PUSH1 0xE5 SHL DUP2 MSTORE PUSH1 0x20 PUSH1 0x4 DUP3 ADD MSTORE PUSH1 0x11 PUSH1 0x24 DUP3 ADD MSTORE PUSH17 0x5265636569766572202141646472657373 PUSH1 0x78 SHL PUSH1 0x44 DUP3 ADD MSTORE PUSH1 0x64 ADD PUSH2 0x261 JUMP JUMPDEST PUSH1 0x0 DUP3 GT PUSH2 0xA0F JUMPI PUSH1 0x40 MLOAD PUSH3 0x461BCD PUSH1 0xE5 SHL DUP2 MSTORE PUSH1 0x20 PUSH1 0x4 DUP3 ADD MSTORE PUSH1 0xB PUSH1 0x24 DUP3 ADD MSTORE PUSH11 0x416D6F756E74203D3D203 PUSH1 0xAC SHL PUSH1 0x44 DUP3 ADD MSTORE PUSH1 0x64 ADD PUSH2 0x261 JUMP JUMPDEST CALLER PUSH1 0x0 SWAP1 DUP2 MSTORE PUSH1 0x5 PUSH1 0x20 MSTORE PUSH1 0x40 SWAP1 KECCAK256 SLOAD DUP3 GT ISZERO PUSH2 0xA66 JUMPI PUSH1 0x40 MLOAD PUSH3 0x461BCD PUSH1 0xE5 SHL DUP2 MSTORE PUSH1 0x20 PUSH1 0x4 DUP3 ADD MSTORE PUSH1 0x15 PUSH1 0x24 DUP3 ADD MSTORE PUSH21 0x15D85B1B195D08199D5B991CC80F08185B5BDD5B9D PUSH1 0x5A SHL PUSH1 0x44 DUP3 ADD MSTORE PUSH1 0x64 ADD PUSH2 0x261 JUMP JUMPDEST CALLER PUSH1 0x0 SWAP1 DUP2 MSTORE PUSH1 0x5 PUSH1 0x20 MSTORE PUSH1 0x40 SWAP1 KECCAK256 SLOAD PUSH2 0xA80 SWAP1 DUP4 PUSH2 0xC5B JUMP JUMPDEST CALLER PUSH1 0x0 SWAP1 DUP2 MSTORE PUSH1 0x5 PUSH1 0x20 MSTORE PUSH1 0x40 DUP1 DUP3 KECCAK256 SWAP3 SWAP1 SWAP3 SSTORE PUSH1 0x1 PUSH1 0x1 PUSH1 0xA0 SHL SUB DUP6 AND DUP2 MSTORE KECCAK256 SLOAD PUSH2 0xAAC SWAP1 DUP4 PUSH2 0xCF5 JUMP JUMPDEST PUSH1 0x1 PUSH1 0x1 PUSH1 0xA0 SHL SUB DUP5 AND PUSH1 0x0 DUP2 DUP2 MSTORE PUSH1 0x5 PUSH1 0x20 SWAP1 DUP2 MSTORE PUSH1 0x40 DUP1 DUP4 KECCAK256 SWAP5 SWAP1 SWAP5 SSTORE PUSH1 0x4 SWAP1 MSTORE DUP3 SWAP1 KECCAK256 DUP1 SLOAD PUSH1 0xFF NOT AND PUSH1 0x1 OR SWAP1 SSTORE SWAP1 MLOAD CALLER SWAP1 PUSH32 0xDDF252AD1BE2C89B69C2B068FC378DAA952BA7F163C4A11628F55A4DF523B3EF SWAP1 PUSH2 0x3E7 SWAP1 DUP7 DUP2 MSTORE PUSH1 0x20 ADD SWAP1 JUMP JUMPDEST PUSH1 0x0 CALLER PUSH2 0xB2F JUMPI PUSH1 0x40 MLOAD PUSH3 0x461BCD PUSH1 0xE5 SHL DUP2 MSTORE PUSH1 0x4 ADD PUSH2 0x261 SWAP1 PUSH2 0xEA3 JUMP JUMPDEST PUSH1 0x1 PUSH1 0x1 PUSH1 0xA0 SHL SUB DUP4 AND PUSH2 0xB55 JUMPI PUSH1 0x40 MLOAD PUSH3 0x461BCD PUSH1 0xE5 SHL DUP2 MSTORE PUSH1 0x4 ADD PUSH2 0x261 SWAP1 PUSH2 0xF15 JUMP JUMPDEST PUSH1 0x1 PUSH1 0x1 PUSH1 0xA0 SHL SUB DUP3 AND PUSH2 0xB7B JUMPI PUSH1 0x40 MLOAD PUSH3 0x461BCD PUSH1 0xE5 SHL DUP2 MSTORE PUSH1 0x4 ADD PUSH2 0x261 SWAP1 PUSH2 0xEC5 JUMP JUMPDEST PUSH2 0xB84 DUP4 PUSH2 0xC3D JUMP JUMPDEST PUSH2 0xBA0 JUMPI PUSH1 0x40 MLOAD PUSH3 0x461BCD PUSH1 0xE5 SHL DUP2 MSTORE PUSH1 0x4 ADD PUSH2 0x261 SWAP1 PUSH2 0xF15 JUMP JUMPDEST PUSH2 0xBA9 DUP3 PUSH2 0xC3D JUMP JUMPDEST PUSH2 0xBC5 JUMPI PUSH1 0x40 MLOAD PUSH3 0x461BCD PUSH1 0xE5 SHL DUP2 MSTORE PUSH1 0x4 ADD PUSH2 0x261 SWAP1 PUSH2 0xEC5 JUMP JUMPDEST PUSH2 0xBCF DUP4 DUP4 PUSH2 0xD02 JUMP JUMPDEST PUSH2 0xC11 JUMPI PUSH1 0x40 MLOAD PUSH3 0x461BCD PUSH1 0xE5 SHL DUP2 MSTORE PUSH1 0x20 PUSH1 0x4 DUP3 ADD MSTORE PUSH1 0x13 PUSH1 0x24 DUP3 ADD MSTORE PUSH19 0x214F776E657220262620215370656E64657229 PUSH1 0x68 SHL PUSH1 0x44 DUP3 ADD MSTORE PUSH1 0x64 ADD PUSH2 0x261 JUMP JUMPDEST POP PUSH1 0x1 PUSH1 0x1 PUSH1 0xA0 SHL SUB SWAP2 DUP3 AND PUSH1 0x0 SWAP1 DUP2 MSTORE PUSH1 0x6 PUSH1 0x20 SWAP1 DUP2 MSTORE PUSH1 0x40 DUP1 DUP4 KECCAK256 SWAP4 SWAP1 SWAP5 AND DUP3 MSTORE SWAP2 SWAP1 SWAP2 MSTORE KECCAK256 SLOAD SWAP1 JUMP JUMPDEST PUSH1 0x1 PUSH1 0x1 PUSH1 0xA0 SHL SUB AND PUSH1 0x0 SWAP1 DUP2 MSTORE PUSH1 0x4 PUSH1 0x20 MSTORE PUSH1 0x40 SWAP1 KECCAK256 SLOAD PUSH1 0xFF AND SWAP1 JUMP JUMPDEST PUSH1 0x0 DUP2 DUP4 LT ISZERO PUSH2 0xCE1 JUMPI PUSH1 0x40 MLOAD PUSH3 0x461BCD PUSH1 0xE5 SHL DUP2 MSTORE PUSH1 0x20 PUSH1 0x4 DUP3 ADD MSTORE PUSH1 0x45 PUSH1 0x24 DUP3 ADD MSTORE PUSH32 0x4C696272617279206572726F723A205365636F6E6420706172616D6574657220 PUSH1 0x44 DUP3 ADD MSTORE PUSH32 0x73686F756C64206265206C657373206F7220657175616C20746F207468652066 PUSH1 0x64 DUP3 ADD MSTORE PUSH5 0x34B939BA17 PUSH1 0xD9 SHL PUSH1 0x84 DUP3 ADD MSTORE PUSH1 0xA4 ADD PUSH2 0x261 JUMP JUMPDEST PUSH1 0x0 PUSH2 0xCED DUP4 DUP6 PUSH2 0x1047 JUMP JUMPDEST SWAP5 SWAP4 POP POP POP POP JUMP JUMPDEST PUSH1 0x0 DUP1 PUSH2 0xCED DUP4 DUP6 PUSH2 0xEFD JUMP JUMPDEST PUSH1 0x0 CALLER PUSH1 0x1 PUSH1 0x1 PUSH1 0xA0 SHL SUB DUP5 AND EQ DUP1 PUSH2 0xD23 JUMPI POP CALLER PUSH1 0x1 PUSH1 0x1 PUSH1 0xA0 SHL SUB DUP4 AND EQ JUMPDEST SWAP4 SWAP3 POP POP POP JUMP JUMPDEST PUSH1 0x0 PUSH1 0x20 DUP1 DUP4 MSTORE DUP4 MLOAD DUP1 DUP3 DUP6 ADD MSTORE PUSH1 0x0 JUMPDEST DUP2 DUP2 LT ISZERO PUSH2 0xD57 JUMPI DUP6 DUP2 ADD DUP4 ADD MLOAD DUP6 DUP3 ADD PUSH1 0x40 ADD MSTORE DUP3 ADD PUSH2 0xD3B JUMP JUMPDEST DUP2 DUP2 GT ISZERO PUSH2 0xD69 JUMPI PUSH1 0x0 PUSH1 0x40 DUP4 DUP8 ADD ADD MSTORE JUMPDEST POP PUSH1 0x1F ADD PUSH1 0x1F NOT AND SWAP3 SWAP1 SWAP3 ADD PUSH1 0x40 ADD SWAP4 SWAP3 POP POP POP JUMP JUMPDEST DUP1 CALLDATALOAD PUSH1 0x1 PUSH1 0x1 PUSH1 0xA0 SHL SUB DUP2 AND DUP2 EQ PUSH2 0xD96 JUMPI PUSH1 0x0 DUP1 REVERT JUMPDEST SWAP2 SWAP1 POP JUMP JUMPDEST PUSH1 0x0 DUP1 PUSH1 0x40 DUP4 DUP6 SUB SLT ISZERO PUSH2 0xDAE JUMPI PUSH1 0x0 DUP1 REVERT JUMPDEST PUSH2 0xDB7 DUP4 PUSH2 0xD7F JUMP JUMPDEST SWAP5 PUSH1 0x20 SWAP4 SWAP1 SWAP4 ADD CALLDATALOAD SWAP4 POP POP POP JUMP JUMPDEST PUSH1 0x0 DUP1 PUSH1 0x0 PUSH1 0x60 DUP5 DUP7 SUB SLT ISZERO PUSH2 0xDDA JUMPI PUSH1 0x0 DUP1 REVERT JUMPDEST PUSH2 0xDE3 DUP5 PUSH2 0xD7F JUMP JUMPDEST SWAP3 POP PUSH2 0xDF1 PUSH1 0x20 DUP6 ADD PUSH2 0xD7F JUMP JUMPDEST SWAP2 POP PUSH1 0x40 DUP5 ADD CALLDATALOAD SWAP1 POP SWAP3 POP SWAP3 POP SWAP3 JUMP JUMPDEST PUSH1 0x0 PUSH1 0x20 DUP3 DUP5 SUB SLT ISZERO PUSH2 0xE13 JUMPI PUSH1 0x0 DUP1 REVERT JUMPDEST POP CALLDATALOAD SWAP2 SWAP1 POP JUMP JUMPDEST PUSH1 0x0 PUSH1 0x20 DUP3 DUP5 SUB SLT ISZERO PUSH2 0xE2C JUMPI PUSH1 0x0 DUP1 REVERT JUMPDEST PUSH2 0xD23 DUP3 PUSH2 0xD7F JUMP JUMPDEST PUSH1 0x0 DUP1 PUSH1 0x40 DUP4 DUP6 SUB SLT ISZERO PUSH2 0xE48 JUMPI PUSH1 0x0 DUP1 REVERT JUMPDEST PUSH2 0xE51 DUP4 PUSH2 0xD7F JUMP JUMPDEST SWAP2 POP PUSH2 0xE5F PUSH1 0x20 DUP5 ADD PUSH2 0xD7F JUMP JUMPDEST SWAP1 POP SWAP3 POP SWAP3 SWAP1 POP JUMP JUMPDEST PUSH1 0x1 DUP2 DUP2 SHR SWAP1 DUP3 AND DUP1 PUSH2 0xE7C JUMPI PUSH1 0x7F DUP3 AND SWAP2 POP JUMPDEST PUSH1 0x20 DUP3 LT DUP2 EQ ISZERO PUSH2 0xE9D JUMPI PUSH4 0x4E487B71 PUSH1 0xE0 SHL PUSH1 0x0 MSTORE PUSH1 0x22 PUSH1 0x4 MSTORE PUSH1 0x24 PUSH1 0x0 REVERT JUMPDEST POP SWAP2 SWAP1 POP JUMP JUMPDEST PUSH1 0x20 DUP1 DUP3 MSTORE PUSH1 0x8 SWAP1 DUP3 ADD MSTORE PUSH8 0x2141646472657373 PUSH1 0xC0 SHL PUSH1 0x40 DUP3 ADD MSTORE PUSH1 0x60 ADD SWAP1 JUMP JUMPDEST PUSH1 0x20 DUP1 DUP3 MSTORE PUSH1 0x8 SWAP1 DUP3 ADD MSTORE PUSH8 0x10A9B832B73232B9 PUSH1 0xC1 SHL PUSH1 0x40 DUP3 ADD MSTORE PUSH1 0x60 ADD SWAP1 JUMP JUMPDEST PUSH4 0x4E487B71 PUSH1 0xE0 SHL PUSH1 0x0 MSTORE PUSH1 0x11 PUSH1 0x4 MSTORE PUSH1 0x24 PUSH1 0x0 REVERT JUMPDEST PUSH1 0x0 DUP3 NOT DUP3 GT ISZERO PUSH2 0xF10 JUMPI PUSH2 0xF10 PUSH2 0xEE7 JUMP JUMPDEST POP ADD SWAP1 JUMP JUMPDEST PUSH1 0x20 DUP1 DUP3 MSTORE PUSH1 0x6 SWAP1 DUP3 ADD MSTORE PUSH6 0x10A7BBB732B9 PUSH1 0xD1 SHL PUSH1 0x40 DUP3 ADD MSTORE PUSH1 0x60 ADD SWAP1 JUMP JUMPDEST PUSH1 0x1 DUP2 DUP2 JUMPDEST DUP1 DUP6 GT ISZERO PUSH2 0xF70 JUMPI DUP2 PUSH1 0x0 NOT DIV DUP3 GT ISZERO PUSH2 0xF56 JUMPI PUSH2 0xF56 PUSH2 0xEE7 JUMP JUMPDEST DUP1 DUP6 AND ISZERO PUSH2 0xF63 JUMPI SWAP2 DUP2 MUL SWAP2 JUMPDEST SWAP4 DUP5 SHR SWAP4 SWAP1 DUP1 MUL SWAP1 PUSH2 0xF3A JUMP JUMPDEST POP SWAP3 POP SWAP3 SWAP1 POP JUMP JUMPDEST PUSH1 0x0 DUP3 PUSH2 0xF87 JUMPI POP PUSH1 0x1 PUSH2 0x3F3 JUMP JUMPDEST DUP2 PUSH2 0xF94 JUMPI POP PUSH1 0x0 PUSH2 0x3F3 JUMP JUMPDEST DUP2 PUSH1 0x1 DUP2 EQ PUSH2 0xFAA JUMPI PUSH1 0x2 DUP2 EQ PUSH2 0xFB4 JUMPI PUSH2 0xFD0 JUMP JUMPDEST PUSH1 0x1 SWAP2 POP POP PUSH2 0x3F3 JUMP JUMPDEST PUSH1 0xFF DUP5 GT ISZERO PUSH2 0xFC5 JUMPI PUSH2 0xFC5 PUSH2 0xEE7 JUMP JUMPDEST POP POP PUSH1 0x1 DUP3 SHL PUSH2 0x3F3 JUMP JUMPDEST POP PUSH1 0x20 DUP4 LT PUSH2 0x133 DUP4 LT AND PUSH1 0x4E DUP5 LT PUSH1 0xB DUP5 LT AND OR ISZERO PUSH2 0xFF3 JUMPI POP DUP2 DUP2 EXP PUSH2 0x3F3 JUMP JUMPDEST PUSH2 0xFFD DUP4 DUP4 PUSH2 0xF35 JUMP JUMPDEST DUP1 PUSH1 0x0 NOT DIV DUP3 GT ISZERO PUSH2 0x1011 JUMPI PUSH2 0x1011 PUSH2 0xEE7 JUMP JUMPDEST MUL SWAP4 SWAP3 POP POP POP JUMP JUMPDEST PUSH1 0x0 PUSH2 0xD23 PUSH1 0xFF DUP5 AND DUP4 PUSH2 0xF78 JUMP JUMPDEST PUSH1 0x0 DUP2 PUSH1 0x0 NOT DIV DUP4 GT DUP3 ISZERO ISZERO AND ISZERO PUSH2 0x1042 JUMPI PUSH2 0x1042 PUSH2 0xEE7 JUMP JUMPDEST POP MUL SWAP1 JUMP JUMPDEST PUSH1 0x0 DUP3 DUP3 LT ISZERO PUSH2 0x1059 JUMPI PUSH2 0x1059 PUSH2 0xEE7 JUMP JUMPDEST POP SUB SWAP1 JUMP INVALID LOG2 PUSH5 0x6970667358 0x22 SLT KECCAK256 SGT 0xBB 0xDD 0xA8 0x5C PUSH17 0x6945C19E1AB3AA741FAC8DF101DD6971F1 CALLER PC 0xBB SWAP7 DIV PUSH21 0x4BEAE764736F6C634300080C003300000000000000 ","sha1":"00efd3675d730dd95f8b2b6da041344c696a9b11","source":"// SPDX-License-Identifier: MIT\npragma solidity >0.6.0;\n\nimport \"./Interfaces/IERC20.sol\";\nimport \"./Libraries/PureMath.sol\";\n\n/*\n * @title: Aguia 2.0 ($AGU) An re-write of the ERC-20 token, $AGU ref[https://github.com/fps8k/my-solidity/tree/Aguia-2.0/erc20%20-%20%24AGU].\n * @author: Anthony (fps) https://github.com/fps8k .\n * @dev: \n*/\n\n\ncontract Aguia is IERC20\n{\n    using PureMath for uint256;\n\n\n    // Token data.\n\n    string private _name;                                                               // Aguia 2.\n    string private _symbol;                                                             // $AGU.\n    uint256 private _totalSupply;                                                      // 1_000_000.\n    uint8 private _decimals;                                                            // 18.\n\n\n    // Owner address and a mapping of owners that can perform actions with the token.\n\n    address private _owner = 0x5e078E6b545cF88aBD5BB58d27488eF8BE0D2593;            \t  // My Ethereum wallet address for production.\n    // address private _owner = 0x5B38Da6a701c568545dCfcB03FcB875f56beddC4;               // My Fake Remix wallet address for development.\n    \n    mapping(address => bool) private _approved_owners;\n\n\n    // Token holders and allowances.\n\n    mapping(address => uint256) private _balances;                                       // Change to private on production.\n    \n    mapping(address => mapping(address => uint256)) private _allowances;\n\n\n    // Events\n\n    event Create(address, uint256, string, uint256);                                    // Address, time, name, supply.\n    event Mint(address, uint256, uint256);                                              // Address, time, supply.\n    event Burn(address, uint256, uint256);                                              // Address, time, supply.\n    event Change(address, uint256, address);                                            // Old address, time, new address.\n\n\n\n\n    // Constructor\n\n    constructor()\n    {\n        _name = \"Aguia 2.0\";\n        _symbol = \"$AGU\";\n        _decimals = 18;\n        _totalSupply = 1000000000 * (10 ** _decimals);\n\n\n        // Give the owner all the token.\n\n        _balances[_owner] = _totalSupply;\n        _approved_owners[_owner] = true;\n\n        emit Create(_owner, block.timestamp, _name, _totalSupply);\n    }\n\n\n\n\n    function name() public view returns (string memory __name)\n    {\n        __name = _name;\n    }\n\n\n\n\n    function symbol() public view returns(string memory __symbol)\n    {\n        __symbol = _symbol;\n    }\n\n\n\n\n    function decimals() public view returns(uint8 __decimals)\n    {\n        __decimals = _decimals;\n    }\n\n\n\n\n    function totalSupply() public view override returns(uint256 __totalSupply)\n    {\n        __totalSupply = _totalSupply;\n    }\n\n\n\n\n    function exists(address _account) private view returns(bool)\n    {\n        return _approved_owners[_account];\n    }\n\n\n\n\n    /*\n    * @dev Returns the amount of tokens owned by `account`.\n    */\n\n    function balanceOf(address account) public view override returns(uint256)\n    {\n        // require(msg.sender != address(0), \"!Address\");\n        require(exists(account), \"Account !Exists\");\n\n        uint256 _balance_of = _balances[account];\n        return _balance_of;\n    }\n\n\n\n\n    function isOneOfTheTwo(address __owner, address __spender) private view returns(bool)\n    {\n        return((msg.sender == __owner) || msg.sender == __spender);\n    }\n\n\n\n\n\n    /**\n    * @dev Moves `amount` tokens from the caller's account to `to`.\n    *\n    * Returns a boolean value indicating whether the operation succeeded.\n    *\n    * Emits a {Transfer} event.\n    */\n\n    function transfer(address to, uint256 amount) public override returns(bool)\n    {\n        require(msg.sender != address(0), \"!Address\");                              // Sender's address is not 0 address.\n        require(exists(msg.sender), \"Account !Exists\");                             // Sender exists in the records, even if he has 0 tokens.\n        require(to != address(0), \"Receiver !Address\");                             // Receiver isn't 0 address.\n        require(amount > 0, \"Amount == 0\");                                         // Can't send empty token.\n        require(_balances[msg.sender] >= amount, \"Wallet funds < amount\");          // Sender has more than he can send.\n\n        _balances[msg.sender] = _balances[msg.sender].sub(amount);                  // Subtract from sender.\n        _balances[to] = _balances[to].add(amount);                                  // Add to receiver.\n\n        _approved_owners[to] = true;\n\n        emit Transfer(msg.sender, to, amount);\n\n        return true;\n    }\n\n\n\n\n    /**\n    * @dev Returns the remaining number of tokens that `spender` will be\n    * allowed to spend on behalf of `owner` through {transferFrom}. This is\n    * zero by default.\n    *\n    * This value changes when {approve} or {transferFrom} are called.\n    */\n\n    function allowance(address owner, address spender) public view override returns(uint256)\n    {\n        require(msg.sender != address(0), \"!Address\");\n        require(owner != address(0), \"!Owner\");\n        require(spender != address(0), \"!Spender\");\n        require(exists(owner), \"!Owner\");\n        require(exists(spender), \"!Spender\");\n        require(isOneOfTheTwo(owner, spender), \"!Owner && !Spender)\");\n\n        uint256 _allowance = _allowances[owner][spender];\n        return _allowance;\n    }\n\n\n\n\n    /**\n    * @dev Sets `amount` as the allowance of `spender` over the caller's tokens.\n    *\n    * Returns a boolean value indicating whether the operation succeeded.\n    *\n    * IMPORTANT: Beware that changing an allowance with this method brings the risk\n    * that someone may use both the old and the new allowance by unfortunate\n    * transaction ordering. One possible solution to mitigate this race\n    * condition is to first reduce the spender's allowance to 0 and set the\n    * desired value afterwards:\n    * https://github.com/ethereum/EIPs/issues/20#issuecomment-263524729\n    *\n    * Emits an {Approval} event.\n    */\n\n    function approve(address spender, uint256 amount) public override returns(bool)\n    {\n        // msg.sender == the address of the caller.\n\n        require(msg.sender != address(0), \"!Address\");\n        require(spender != address(0), \"!Spender\");\n        require(exists(msg.sender), \"!Account Exists\");\n        require(msg.sender != spender, \"Caller == Spender\");\n        require(_balances[msg.sender] >= amount, \"Balance < Amount\");\n\n        _allowances[msg.sender][spender] += amount;\n\n        emit Approval(msg.sender, spender, amount);\n\n        return true;\n    }\n\n\n\n\n\n    /**\n    * @dev Moves `amount` tokens from `from` to `to` using the\n    * allowance mechanism. `amount` is then deducted from the caller's\n    * allowance.\n    *\n    * Returns a boolean value indicating whether the operation succeeded.\n    *\n    * The person calling transferFrom doesn't need to own tokens.\n    *\n    * Emits a {Transfer} event.\n    */\n\n    function transferFrom(address from, address to, uint256 amount) public override returns(bool)\n    {\n        require(msg.sender != address(0), \"!Address\");\n        require(from != address(0), \"!From\");\n        require(to != address(0), \"!To\");\n        require(exists(from), \"From !Exists\");\n        require(exists(to), \"To !Exists\");\n        require(_allowances[from][msg.sender] >= amount, \"Balance < Amount\");\n\n        _balances[from] = _balances[from].sub(amount);\n        _balances[to] = _balances[to].add(amount);\n        _allowances[from][msg.sender] = _allowances[from][msg.sender].sub(amount);\n\n        emit Transfer(from, to, amount);\n\n        return true;\n    }\n\n\n\n\n    /*\n    * @dev: {mint()} adds more tokens to the `_totalSupply`.\n    */\n\n    function mint(uint256 amount) public\n    {\n        require(msg.sender == _owner, \"!Owner\");\n        uint256 _supply = amount * (10 ** _decimals);\n\n        _totalSupply = _totalSupply.add(_supply);\n\n        emit Mint(msg.sender, block.timestamp, _supply);\n    }\n\n\n\n\n    /*\n    * @dev: burn() removes from the token\n    */\n\n    function burn(uint256 amount) public\n    {\n        require(msg.sender == _owner, \"!Owner\");\n        uint256 _supply = amount * (10 ** _decimals);\n\n        _totalSupply = _totalSupply.sub(_supply);\n\n        emit Burn(msg.sender, block.timestamp, _supply);\n    }\n\n\n\n\n    /*\n    * @dev: {changeOwner()} changes owner of token\n    */\n\n    function changeOwner(address new_owner) public\n    {\n        require(msg.sender == _owner, \"!Owner\");\n        require(new_owner != _owner, \"New Owner == Old owner\");\n\n        _owner = new_owner;\n\n        emit Change(msg.sender, block.timestamp, new_owner);\n    }\n}","sourcePath":"contracts/Aguia.sol","type":"contract","deployment":{"address":"0x183A9aA20E1596669BD81EacCDCe17E6705449f5","chainid":"4","blockHeight":10542011}}