{
  "abi": [
    {
      "inputs": [
        {
          "internalType": "address",
          "name": "_txn_maker",
          "type": "address"
        }
      ],
      "name": "confirmTransaction",
      "outputs": [],
      "stateMutability": "nonpayable",
      "type": "function"
    },
    {
      "inputs": [
        {
          "internalType": "address",
          "name": "_creator",
          "type": "address"
        }
      ],
      "name": "createWallet",
      "outputs": [],
      "stateMutability": "payable",
      "type": "function"
    },
    {
      "inputs": [
        {
          "internalType": "address",
          "name": "_txn_maker",
          "type": "address"
        }
      ],
      "name": "finishTransaction",
      "outputs": [],
      "stateMutability": "payable",
      "type": "function"
    },
    {
      "inputs": [],
      "name": "fundWallet",
      "outputs": [],
      "stateMutability": "payable",
      "type": "function"
    },
    {
      "inputs": [
        {
          "internalType": "address",
          "name": "_receiver",
          "type": "address"
        },
        {
          "internalType": "uint256",
          "name": "_amount",
          "type": "uint256"
        }
      ],
      "name": "makeTransaction",
      "outputs": [],
      "stateMutability": "nonpayable",
      "type": "function"
    },
    {
      "inputs": [
        {
          "internalType": "address",
          "name": "_txn_maker",
          "type": "address"
        }
      ],
      "name": "revokeTransaction",
      "outputs": [],
      "stateMutability": "nonpayable",
      "type": "function"
    },
    {
      "inputs": [],
      "name": "wallets",
      "outputs": [
        {
          "internalType": "uint256",
          "name": "",
          "type": "uint256"
        }
      ],
      "stateMutability": "view",
      "type": "function"
    }
  ],
  "bytecode": "608060405234801561001057600080fd5b50610c4b806100206000396000f3fe6080604052600436106100705760003560e01c8063787205121161004e57806378720512146100b2578063b054a9e8146100d2578063d2f4a50a146100e5578063e6beded81461010d57600080fd5b806334cc9e41146100755780634b7b2ed11461008a578063664a1ad6146100aa575b600080fd5b610088610083366004610a4d565b61012d565b005b34801561009657600080fd5b506100886100a5366004610a4d565b61030f565b61008861045b565b3480156100be57600080fd5b506100886100cd366004610a4d565b6104d7565b6100886100e0366004610a4d565b61061a565b3480156100f157600080fd5b506100fb60015481565b60405190815260200160405180910390f35b34801561011957600080fd5b50610088610128366004610a6f565b6107ca565b336101535760405162461bcd60e51b815260040161014a90610a99565b60405180910390fd5b6001600160a01b038181166000908152602081905260409020541661018a5760405162461bcd60e51b815260040161014a90610abb565b6001600160a01b038181166000908152602081905260409020541633146101dd5760405162461bcd60e51b81526020600482015260076024820152660428cd2dcd2e6d60cb1b604482015260640161014a565b6001600160a01b03818116600090815260208190526040902060030154166102175760405162461bcd60e51b815260040161014a90610ae4565b60026001546102269190610b29565b6001600160a01b038216600090815260208190526040902060040154136102835760405162461bcd60e51b81526020600482015260116024820152702737ba1030b8383937bb32b2103cb2ba1760791b604482015260640161014a565b6001600160a01b038082166000908152602081905260408082206002810154600390910154915190939190911691829184156108fc0291859190818181858888f193505050501580156102da573d6000803e3d6000fd5b5050506001600160a01b03166000908152602081905260408120600281019190915560030180546001600160a01b0319169055565b3361032c5760405162461bcd60e51b815260040161014a90610a99565b336000908152602081905260409020546001600160a01b03166103615760405162461bcd60e51b815260040161014a90610abb565b6001600160a01b03818116600090815260208190526040902054163314156103b65760405162461bcd60e51b815260206004820152600860248201526721417070726f766560c01b604482015260640161014a565b6001600160a01b03818116600090815260208190526040902054166103ed5760405162461bcd60e51b815260040161014a90610abb565b6001600160a01b03818116600090815260208190526040902060030154166104275760405162461bcd60e51b815260040161014a90610ae4565b6001600160a01b0381166000908152602081905260408120600401805460019290610453908490610b4b565b909155505050565b336104785760405162461bcd60e51b815260040161014a90610a99565b336000818152602081905260409020546001600160a01b0316146104ae5760405162461bcd60e51b815260040161014a90610abb565b33600090815260208190526040812060010180543492906104d0908490610b8c565b9091555050565b336104f45760405162461bcd60e51b815260040161014a90610a99565b336000908152602081905260409020546001600160a01b03166105295760405162461bcd60e51b815260040161014a90610abb565b6001600160a01b03818116600090815260208190526040902054166105605760405162461bcd60e51b815260040161014a90610abb565b6001600160a01b03818116600090815260208190526040902054163314156105b45760405162461bcd60e51b8152602060048201526007602482015266215265766f6b6560c81b604482015260640161014a565b6001600160a01b03818116600090815260208190526040902060030154166105ee5760405162461bcd60e51b815260040161014a90610ae4565b6001600160a01b0381166000908152602081905260408120600401805460019290610453908490610ba4565b336106375760405162461bcd60e51b815260040161014a90610a99565b6001600160a01b0381166106805760405162461bcd60e51b815260206004820152601060248201526f2143726561746f72204164647265737360801b604482015260640161014a565b6001600160a01b0381811660009081526020819052604090205416156106e85760405162461bcd60e51b815260206004820152601760248201527f57616c6c6574206372656174656420616c72656164792e000000000000000000604482015260640161014a565b6000341161072d5760405162461bcd60e51b815260206004820152601260248201527104372656174696f6e2066756e64203d3d20360741b604482015260640161014a565b6040805160a0810182526001600160a01b038084168083523460208085019182526000858701818152606087018281526080880183815295835292829052968120955186549086166001600160a01b031991821617875592516001808801919091559651600287015590516003860180549190951692169190911790925551600490920191909155815491906107c283610be3565b919050555050565b336107e75760405162461bcd60e51b815260040161014a90610a99565b6001600160a01b0382166108315760405162461bcd60e51b8152602060048201526011602482015270215265636569766572204164647265737360781b604482015260640161014a565b6001600160a01b03821633141561087e5760405162461bcd60e51b815260206004820152601160248201527029b2b73232b91010902932b1b2b4bb32b960791b604482015260640161014a565b336000908152602081905260409020546001600160a01b03166108b35760405162461bcd60e51b815260040161014a90610abb565b336000908152602081905260409020600301546001600160a01b0316156109155760405162461bcd60e51b81526020600482015260166024820152752a3432b9329034b99030903832b73234b733903a3c3760511b604482015260640161014a565b6001600160a01b03828116600090815260208190526040902054166109715760405162461bcd60e51b81526020600482015260126024820152712932b1b2b4bb32b91010b1b932b0ba32b21760711b604482015260640161014a565b3360009081526020819052604090206001015481106109c25760405162461bcd60e51b815260206004820152600d60248201526c46756e6473203c2076616c756560981b604482015260640161014a565b3360009081526020819052604081206003810180546001600160a01b0319166001600160a01b0386161790556001018054839290610a01908490610bfe565b90915550503360009081526020819052604081206002018054839290610a28908490610b8c565b90915550505050565b80356001600160a01b0381168114610a4857600080fd5b919050565b600060208284031215610a5f57600080fd5b610a6882610a31565b9392505050565b60008060408385031215610a8257600080fd5b610a8b83610a31565b946020939093013593505050565b602080825260089082015267214164647265737360c01b604082015260600190565b6020808252600f908201526e15d85b1b195d080850dc99585d1959608a1b604082015260600190565b60208082526015908201527410a932b1b2b4bb32b91034b7103a3434b9903a3c3760591b604082015260600190565b634e487b7160e01b600052601160045260246000fd5b600082610b4657634e487b7160e01b600052601260045260246000fd5b500490565b600080821280156001600160ff1b0384900385131615610b6d57610b6d610b13565b600160ff1b8390038412811615610b8657610b86610b13565b50500190565b60008219821115610b9f57610b9f610b13565b500190565b60008083128015600160ff1b850184121615610bc257610bc2610b13565b6001600160ff1b0384018313811615610bdd57610bdd610b13565b50500390565b6000600019821415610bf757610bf7610b13565b5060010190565b600082821015610c1057610c10610b13565b50039056fea264697066735822122040f897d0f89d92767c079a4a0138a0af4f83a3b8b37de6ad0569fe6ade7cef7f64736f6c634300080c0033",
  "bytecodeSha1": "d140d961557d83e635665aea13f8443e8a54c69a",
  "compiler": {
    "evm_version": "istanbul",
    "optimizer": {
      "enabled": true,
      "runs": 200
    },
    "version": "0.8.12+commit.f00d7308"
  },
  "contractName": "MultiSigWallet",
  "language": "Solidity",
  "natspec": {
    "kind": "dev",
    "methods": {},
    "notice": "D E S C R I P T I O N A basic solidity program that allows the creation of a wallet in the contract. Wallet owners can: 1. Submit a transaction. 2. Approve and revoke a pending transaction. 3. Anyone can execute a transaction after enough owners has approved it.",
    "version": 1
  },
  "opcodes": "PUSH1 0x80 PUSH1 0x40 MSTORE PUSH1 0x4 CALLDATASIZE LT PUSH2 0x70 JUMPI PUSH1 0x0 CALLDATALOAD PUSH1 0xE0 SHR DUP1 PUSH4 0x78720512 GT PUSH2 0x4E JUMPI DUP1 PUSH4 0x78720512 EQ PUSH2 0xB2 JUMPI DUP1 PUSH4 0xB054A9E8 EQ PUSH2 0xD2 JUMPI DUP1 PUSH4 0xD2F4A50A EQ PUSH2 0xE5 JUMPI DUP1 PUSH4 0xE6BEDED8 EQ PUSH2 0x10D JUMPI PUSH1 0x0 DUP1 REVERT JUMPDEST DUP1 PUSH4 0x34CC9E41 EQ PUSH2 0x75 JUMPI DUP1 PUSH4 0x4B7B2ED1 EQ PUSH2 0x8A JUMPI DUP1 PUSH4 0x664A1AD6 EQ PUSH2 0xAA JUMPI JUMPDEST PUSH1 0x0 DUP1 REVERT JUMPDEST PUSH2 0x88 PUSH2 0x83 CALLDATASIZE PUSH1 0x4 PUSH2 0xA4D JUMP JUMPDEST PUSH2 0x12D JUMP JUMPDEST STOP JUMPDEST CALLVALUE DUP1 ISZERO PUSH2 0x96 JUMPI PUSH1 0x0 DUP1 REVERT JUMPDEST POP PUSH2 0x88 PUSH2 0xA5 CALLDATASIZE PUSH1 0x4 PUSH2 0xA4D JUMP JUMPDEST PUSH2 0x30F JUMP JUMPDEST PUSH2 0x88 PUSH2 0x45B JUMP JUMPDEST CALLVALUE DUP1 ISZERO PUSH2 0xBE JUMPI PUSH1 0x0 DUP1 REVERT JUMPDEST POP PUSH2 0x88 PUSH2 0xCD CALLDATASIZE PUSH1 0x4 PUSH2 0xA4D JUMP JUMPDEST PUSH2 0x4D7 JUMP JUMPDEST PUSH2 0x88 PUSH2 0xE0 CALLDATASIZE PUSH1 0x4 PUSH2 0xA4D JUMP JUMPDEST PUSH2 0x61A JUMP JUMPDEST CALLVALUE DUP1 ISZERO PUSH2 0xF1 JUMPI PUSH1 0x0 DUP1 REVERT JUMPDEST POP PUSH2 0xFB PUSH1 0x1 SLOAD DUP2 JUMP JUMPDEST PUSH1 0x40 MLOAD SWAP1 DUP2 MSTORE PUSH1 0x20 ADD PUSH1 0x40 MLOAD DUP1 SWAP2 SUB SWAP1 RETURN JUMPDEST CALLVALUE DUP1 ISZERO PUSH2 0x119 JUMPI PUSH1 0x0 DUP1 REVERT JUMPDEST POP PUSH2 0x88 PUSH2 0x128 CALLDATASIZE PUSH1 0x4 PUSH2 0xA6F JUMP JUMPDEST PUSH2 0x7CA JUMP JUMPDEST CALLER PUSH2 0x153 JUMPI PUSH1 0x40 MLOAD PUSH3 0x461BCD PUSH1 0xE5 SHL DUP2 MSTORE PUSH1 0x4 ADD PUSH2 0x14A SWAP1 PUSH2 0xA99 JUMP JUMPDEST PUSH1 0x40 MLOAD DUP1 SWAP2 SUB SWAP1 REVERT JUMPDEST PUSH1 0x1 PUSH1 0x1 PUSH1 0xA0 SHL SUB DUP2 DUP2 AND PUSH1 0x0 SWAP1 DUP2 MSTORE PUSH1 0x20 DUP2 SWAP1 MSTORE PUSH1 0x40 SWAP1 KECCAK256 SLOAD AND PUSH2 0x18A JUMPI PUSH1 0x40 MLOAD PUSH3 0x461BCD PUSH1 0xE5 SHL DUP2 MSTORE PUSH1 0x4 ADD PUSH2 0x14A SWAP1 PUSH2 0xABB JUMP JUMPDEST PUSH1 0x1 PUSH1 0x1 PUSH1 0xA0 SHL SUB DUP2 DUP2 AND PUSH1 0x0 SWAP1 DUP2 MSTORE PUSH1 0x20 DUP2 SWAP1 MSTORE PUSH1 0x40 SWAP1 KECCAK256 SLOAD AND CALLER EQ PUSH2 0x1DD JUMPI PUSH1 0x40 MLOAD PUSH3 0x461BCD PUSH1 0xE5 SHL DUP2 MSTORE PUSH1 0x20 PUSH1 0x4 DUP3 ADD MSTORE PUSH1 0x7 PUSH1 0x24 DUP3 ADD MSTORE PUSH7 0x428CD2DCD2E6D PUSH1 0xCB SHL PUSH1 0x44 DUP3 ADD MSTORE PUSH1 0x64 ADD PUSH2 0x14A JUMP JUMPDEST PUSH1 0x1 PUSH1 0x1 PUSH1 0xA0 SHL SUB DUP2 DUP2 AND PUSH1 0x0 SWAP1 DUP2 MSTORE PUSH1 0x20 DUP2 SWAP1 MSTORE PUSH1 0x40 SWAP1 KECCAK256 PUSH1 0x3 ADD SLOAD AND PUSH2 0x217 JUMPI PUSH1 0x40 MLOAD PUSH3 0x461BCD PUSH1 0xE5 SHL DUP2 MSTORE PUSH1 0x4 ADD PUSH2 0x14A SWAP1 PUSH2 0xAE4 JUMP JUMPDEST PUSH1 0x2 PUSH1 0x1 SLOAD PUSH2 0x226 SWAP2 SWAP1 PUSH2 0xB29 JUMP JUMPDEST PUSH1 0x1 PUSH1 0x1 PUSH1 0xA0 SHL SUB DUP3 AND PUSH1 0x0 SWAP1 DUP2 MSTORE PUSH1 0x20 DUP2 SWAP1 MSTORE PUSH1 0x40 SWAP1 KECCAK256 PUSH1 0x4 ADD SLOAD SGT PUSH2 0x283 JUMPI PUSH1 0x40 MLOAD PUSH3 0x461BCD PUSH1 0xE5 SHL DUP2 MSTORE PUSH1 0x20 PUSH1 0x4 DUP3 ADD MSTORE PUSH1 0x11 PUSH1 0x24 DUP3 ADD MSTORE PUSH17 0x2737BA1030B8383937BB32B2103CB2BA17 PUSH1 0x79 SHL PUSH1 0x44 DUP3 ADD MSTORE PUSH1 0x64 ADD PUSH2 0x14A JUMP JUMPDEST PUSH1 0x1 PUSH1 0x1 PUSH1 0xA0 SHL SUB DUP1 DUP3 AND PUSH1 0x0 SWAP1 DUP2 MSTORE PUSH1 0x20 DUP2 SWAP1 MSTORE PUSH1 0x40 DUP1 DUP3 KECCAK256 PUSH1 0x2 DUP2 ADD SLOAD PUSH1 0x3 SWAP1 SWAP2 ADD SLOAD SWAP2 MLOAD SWAP1 SWAP4 SWAP2 SWAP1 SWAP2 AND SWAP2 DUP3 SWAP2 DUP5 ISZERO PUSH2 0x8FC MUL SWAP2 DUP6 SWAP2 SWAP1 DUP2 DUP2 DUP2 DUP6 DUP9 DUP9 CALL SWAP4 POP POP POP POP ISZERO DUP1 ISZERO PUSH2 0x2DA JUMPI RETURNDATASIZE PUSH1 0x0 DUP1 RETURNDATACOPY RETURNDATASIZE PUSH1 0x0 REVERT JUMPDEST POP POP POP PUSH1 0x1 PUSH1 0x1 PUSH1 0xA0 SHL SUB AND PUSH1 0x0 SWAP1 DUP2 MSTORE PUSH1 0x20 DUP2 SWAP1 MSTORE PUSH1 0x40 DUP2 KECCAK256 PUSH1 0x2 DUP2 ADD SWAP2 SWAP1 SWAP2 SSTORE PUSH1 0x3 ADD DUP1 SLOAD PUSH1 0x1 PUSH1 0x1 PUSH1 0xA0 SHL SUB NOT AND SWAP1 SSTORE JUMP JUMPDEST CALLER PUSH2 0x32C JUMPI PUSH1 0x40 MLOAD PUSH3 0x461BCD PUSH1 0xE5 SHL DUP2 MSTORE PUSH1 0x4 ADD PUSH2 0x14A SWAP1 PUSH2 0xA99 JUMP JUMPDEST CALLER PUSH1 0x0 SWAP1 DUP2 MSTORE PUSH1 0x20 DUP2 SWAP1 MSTORE PUSH1 0x40 SWAP1 KECCAK256 SLOAD PUSH1 0x1 PUSH1 0x1 PUSH1 0xA0 SHL SUB AND PUSH2 0x361 JUMPI PUSH1 0x40 MLOAD PUSH3 0x461BCD PUSH1 0xE5 SHL DUP2 MSTORE PUSH1 0x4 ADD PUSH2 0x14A SWAP1 PUSH2 0xABB JUMP JUMPDEST PUSH1 0x1 PUSH1 0x1 PUSH1 0xA0 SHL SUB DUP2 DUP2 AND PUSH1 0x0 SWAP1 DUP2 MSTORE PUSH1 0x20 DUP2 SWAP1 MSTORE PUSH1 0x40 SWAP1 KECCAK256 SLOAD AND CALLER EQ ISZERO PUSH2 0x3B6 JUMPI PUSH1 0x40 MLOAD PUSH3 0x461BCD PUSH1 0xE5 SHL DUP2 MSTORE PUSH1 0x20 PUSH1 0x4 DUP3 ADD MSTORE PUSH1 0x8 PUSH1 0x24 DUP3 ADD MSTORE PUSH8 0x21417070726F7665 PUSH1 0xC0 SHL PUSH1 0x44 DUP3 ADD MSTORE PUSH1 0x64 ADD PUSH2 0x14A JUMP JUMPDEST PUSH1 0x1 PUSH1 0x1 PUSH1 0xA0 SHL SUB DUP2 DUP2 AND PUSH1 0x0 SWAP1 DUP2 MSTORE PUSH1 0x20 DUP2 SWAP1 MSTORE PUSH1 0x40 SWAP1 KECCAK256 SLOAD AND PUSH2 0x3ED JUMPI PUSH1 0x40 MLOAD PUSH3 0x461BCD PUSH1 0xE5 SHL DUP2 MSTORE PUSH1 0x4 ADD PUSH2 0x14A SWAP1 PUSH2 0xABB JUMP JUMPDEST PUSH1 0x1 PUSH1 0x1 PUSH1 0xA0 SHL SUB DUP2 DUP2 AND PUSH1 0x0 SWAP1 DUP2 MSTORE PUSH1 0x20 DUP2 SWAP1 MSTORE PUSH1 0x40 SWAP1 KECCAK256 PUSH1 0x3 ADD SLOAD AND PUSH2 0x427 JUMPI PUSH1 0x40 MLOAD PUSH3 0x461BCD PUSH1 0xE5 SHL DUP2 MSTORE PUSH1 0x4 ADD PUSH2 0x14A SWAP1 PUSH2 0xAE4 JUMP JUMPDEST PUSH1 0x1 PUSH1 0x1 PUSH1 0xA0 SHL SUB DUP2 AND PUSH1 0x0 SWAP1 DUP2 MSTORE PUSH1 0x20 DUP2 SWAP1 MSTORE PUSH1 0x40 DUP2 KECCAK256 PUSH1 0x4 ADD DUP1 SLOAD PUSH1 0x1 SWAP3 SWAP1 PUSH2 0x453 SWAP1 DUP5 SWAP1 PUSH2 0xB4B JUMP JUMPDEST SWAP1 SWAP2 SSTORE POP POP POP JUMP JUMPDEST CALLER PUSH2 0x478 JUMPI PUSH1 0x40 MLOAD PUSH3 0x461BCD PUSH1 0xE5 SHL DUP2 MSTORE PUSH1 0x4 ADD PUSH2 0x14A SWAP1 PUSH2 0xA99 JUMP JUMPDEST CALLER PUSH1 0x0 DUP2 DUP2 MSTORE PUSH1 0x20 DUP2 SWAP1 MSTORE PUSH1 0x40 SWAP1 KECCAK256 SLOAD PUSH1 0x1 PUSH1 0x1 PUSH1 0xA0 SHL SUB AND EQ PUSH2 0x4AE JUMPI PUSH1 0x40 MLOAD PUSH3 0x461BCD PUSH1 0xE5 SHL DUP2 MSTORE PUSH1 0x4 ADD PUSH2 0x14A SWAP1 PUSH2 0xABB JUMP JUMPDEST CALLER PUSH1 0x0 SWAP1 DUP2 MSTORE PUSH1 0x20 DUP2 SWAP1 MSTORE PUSH1 0x40 DUP2 KECCAK256 PUSH1 0x1 ADD DUP1 SLOAD CALLVALUE SWAP3 SWAP1 PUSH2 0x4D0 SWAP1 DUP5 SWAP1 PUSH2 0xB8C JUMP JUMPDEST SWAP1 SWAP2 SSTORE POP POP JUMP JUMPDEST CALLER PUSH2 0x4F4 JUMPI PUSH1 0x40 MLOAD PUSH3 0x461BCD PUSH1 0xE5 SHL DUP2 MSTORE PUSH1 0x4 ADD PUSH2 0x14A SWAP1 PUSH2 0xA99 JUMP JUMPDEST CALLER PUSH1 0x0 SWAP1 DUP2 MSTORE PUSH1 0x20 DUP2 SWAP1 MSTORE PUSH1 0x40 SWAP1 KECCAK256 SLOAD PUSH1 0x1 PUSH1 0x1 PUSH1 0xA0 SHL SUB AND PUSH2 0x529 JUMPI PUSH1 0x40 MLOAD PUSH3 0x461BCD PUSH1 0xE5 SHL DUP2 MSTORE PUSH1 0x4 ADD PUSH2 0x14A SWAP1 PUSH2 0xABB JUMP JUMPDEST PUSH1 0x1 PUSH1 0x1 PUSH1 0xA0 SHL SUB DUP2 DUP2 AND PUSH1 0x0 SWAP1 DUP2 MSTORE PUSH1 0x20 DUP2 SWAP1 MSTORE PUSH1 0x40 SWAP1 KECCAK256 SLOAD AND PUSH2 0x560 JUMPI PUSH1 0x40 MLOAD PUSH3 0x461BCD PUSH1 0xE5 SHL DUP2 MSTORE PUSH1 0x4 ADD PUSH2 0x14A SWAP1 PUSH2 0xABB JUMP JUMPDEST PUSH1 0x1 PUSH1 0x1 PUSH1 0xA0 SHL SUB DUP2 DUP2 AND PUSH1 0x0 SWAP1 DUP2 MSTORE PUSH1 0x20 DUP2 SWAP1 MSTORE PUSH1 0x40 SWAP1 KECCAK256 SLOAD AND CALLER EQ ISZERO PUSH2 0x5B4 JUMPI PUSH1 0x40 MLOAD PUSH3 0x461BCD PUSH1 0xE5 SHL DUP2 MSTORE PUSH1 0x20 PUSH1 0x4 DUP3 ADD MSTORE PUSH1 0x7 PUSH1 0x24 DUP3 ADD MSTORE PUSH7 0x215265766F6B65 PUSH1 0xC8 SHL PUSH1 0x44 DUP3 ADD MSTORE PUSH1 0x64 ADD PUSH2 0x14A JUMP JUMPDEST PUSH1 0x1 PUSH1 0x1 PUSH1 0xA0 SHL SUB DUP2 DUP2 AND PUSH1 0x0 SWAP1 DUP2 MSTORE PUSH1 0x20 DUP2 SWAP1 MSTORE PUSH1 0x40 SWAP1 KECCAK256 PUSH1 0x3 ADD SLOAD AND PUSH2 0x5EE JUMPI PUSH1 0x40 MLOAD PUSH3 0x461BCD PUSH1 0xE5 SHL DUP2 MSTORE PUSH1 0x4 ADD PUSH2 0x14A SWAP1 PUSH2 0xAE4 JUMP JUMPDEST PUSH1 0x1 PUSH1 0x1 PUSH1 0xA0 SHL SUB DUP2 AND PUSH1 0x0 SWAP1 DUP2 MSTORE PUSH1 0x20 DUP2 SWAP1 MSTORE PUSH1 0x40 DUP2 KECCAK256 PUSH1 0x4 ADD DUP1 SLOAD PUSH1 0x1 SWAP3 SWAP1 PUSH2 0x453 SWAP1 DUP5 SWAP1 PUSH2 0xBA4 JUMP JUMPDEST CALLER PUSH2 0x637 JUMPI PUSH1 0x40 MLOAD PUSH3 0x461BCD PUSH1 0xE5 SHL DUP2 MSTORE PUSH1 0x4 ADD PUSH2 0x14A SWAP1 PUSH2 0xA99 JUMP JUMPDEST PUSH1 0x1 PUSH1 0x1 PUSH1 0xA0 SHL SUB DUP2 AND PUSH2 0x680 JUMPI PUSH1 0x40 MLOAD PUSH3 0x461BCD PUSH1 0xE5 SHL DUP2 MSTORE PUSH1 0x20 PUSH1 0x4 DUP3 ADD MSTORE PUSH1 0x10 PUSH1 0x24 DUP3 ADD MSTORE PUSH16 0x2143726561746F722041646472657373 PUSH1 0x80 SHL PUSH1 0x44 DUP3 ADD MSTORE PUSH1 0x64 ADD PUSH2 0x14A JUMP JUMPDEST PUSH1 0x1 PUSH1 0x1 PUSH1 0xA0 SHL SUB DUP2 DUP2 AND PUSH1 0x0 SWAP1 DUP2 MSTORE PUSH1 0x20 DUP2 SWAP1 MSTORE PUSH1 0x40 SWAP1 KECCAK256 SLOAD AND ISZERO PUSH2 0x6E8 JUMPI PUSH1 0x40 MLOAD PUSH3 0x461BCD PUSH1 0xE5 SHL DUP2 MSTORE PUSH1 0x20 PUSH1 0x4 DUP3 ADD MSTORE PUSH1 0x17 PUSH1 0x24 DUP3 ADD MSTORE PUSH32 0x57616C6C6574206372656174656420616C72656164792E000000000000000000 PUSH1 0x44 DUP3 ADD MSTORE PUSH1 0x64 ADD PUSH2 0x14A JUMP JUMPDEST PUSH1 0x0 CALLVALUE GT PUSH2 0x72D JUMPI PUSH1 0x40 MLOAD PUSH3 0x461BCD PUSH1 0xE5 SHL DUP2 MSTORE PUSH1 0x20 PUSH1 0x4 DUP3 ADD MSTORE PUSH1 0x12 PUSH1 0x24 DUP3 ADD MSTORE PUSH18 0x4372656174696F6E2066756E64203D3D203 PUSH1 0x74 SHL PUSH1 0x44 DUP3 ADD MSTORE PUSH1 0x64 ADD PUSH2 0x14A JUMP JUMPDEST PUSH1 0x40 DUP1 MLOAD PUSH1 0xA0 DUP2 ADD DUP3 MSTORE PUSH1 0x1 PUSH1 0x1 PUSH1 0xA0 SHL SUB DUP1 DUP5 AND DUP1 DUP4 MSTORE CALLVALUE PUSH1 0x20 DUP1 DUP6 ADD SWAP2 DUP3 MSTORE PUSH1 0x0 DUP6 DUP8 ADD DUP2 DUP2 MSTORE PUSH1 0x60 DUP8 ADD DUP3 DUP2 MSTORE PUSH1 0x80 DUP9 ADD DUP4 DUP2 MSTORE SWAP6 DUP4 MSTORE SWAP3 DUP3 SWAP1 MSTORE SWAP7 DUP2 KECCAK256 SWAP6 MLOAD DUP7 SLOAD SWAP1 DUP7 AND PUSH1 0x1 PUSH1 0x1 PUSH1 0xA0 SHL SUB NOT SWAP2 DUP3 AND OR DUP8 SSTORE SWAP3 MLOAD PUSH1 0x1 DUP1 DUP9 ADD SWAP2 SWAP1 SWAP2 SSTORE SWAP7 MLOAD PUSH1 0x2 DUP8 ADD SSTORE SWAP1 MLOAD PUSH1 0x3 DUP7 ADD DUP1 SLOAD SWAP2 SWAP1 SWAP6 AND SWAP3 AND SWAP2 SWAP1 SWAP2 OR SWAP1 SWAP3 SSTORE MLOAD PUSH1 0x4 SWAP1 SWAP3 ADD SWAP2 SWAP1 SWAP2 SSTORE DUP2 SLOAD SWAP2 SWAP1 PUSH2 0x7C2 DUP4 PUSH2 0xBE3 JUMP JUMPDEST SWAP2 SWAP1 POP SSTORE POP POP JUMP JUMPDEST CALLER PUSH2 0x7E7 JUMPI PUSH1 0x40 MLOAD PUSH3 0x461BCD PUSH1 0xE5 SHL DUP2 MSTORE PUSH1 0x4 ADD PUSH2 0x14A SWAP1 PUSH2 0xA99 JUMP JUMPDEST PUSH1 0x1 PUSH1 0x1 PUSH1 0xA0 SHL SUB DUP3 AND PUSH2 0x831 JUMPI PUSH1 0x40 MLOAD PUSH3 0x461BCD PUSH1 0xE5 SHL DUP2 MSTORE PUSH1 0x20 PUSH1 0x4 DUP3 ADD MSTORE PUSH1 0x11 PUSH1 0x24 DUP3 ADD MSTORE PUSH17 0x2152656365697665722041646472657373 PUSH1 0x78 SHL PUSH1 0x44 DUP3 ADD MSTORE PUSH1 0x64 ADD PUSH2 0x14A JUMP JUMPDEST PUSH1 0x1 PUSH1 0x1 PUSH1 0xA0 SHL SUB DUP3 AND CALLER EQ ISZERO PUSH2 0x87E JUMPI PUSH1 0x40 MLOAD PUSH3 0x461BCD PUSH1 0xE5 SHL DUP2 MSTORE PUSH1 0x20 PUSH1 0x4 DUP3 ADD MSTORE PUSH1 0x11 PUSH1 0x24 DUP3 ADD MSTORE PUSH17 0x29B2B73232B91010902932B1B2B4BB32B9 PUSH1 0x79 SHL PUSH1 0x44 DUP3 ADD MSTORE PUSH1 0x64 ADD PUSH2 0x14A JUMP JUMPDEST CALLER PUSH1 0x0 SWAP1 DUP2 MSTORE PUSH1 0x20 DUP2 SWAP1 MSTORE PUSH1 0x40 SWAP1 KECCAK256 SLOAD PUSH1 0x1 PUSH1 0x1 PUSH1 0xA0 SHL SUB AND PUSH2 0x8B3 JUMPI PUSH1 0x40 MLOAD PUSH3 0x461BCD PUSH1 0xE5 SHL DUP2 MSTORE PUSH1 0x4 ADD PUSH2 0x14A SWAP1 PUSH2 0xABB JUMP JUMPDEST CALLER PUSH1 0x0 SWAP1 DUP2 MSTORE PUSH1 0x20 DUP2 SWAP1 MSTORE PUSH1 0x40 SWAP1 KECCAK256 PUSH1 0x3 ADD SLOAD PUSH1 0x1 PUSH1 0x1 PUSH1 0xA0 SHL SUB AND ISZERO PUSH2 0x915 JUMPI PUSH1 0x40 MLOAD PUSH3 0x461BCD PUSH1 0xE5 SHL DUP2 MSTORE PUSH1 0x20 PUSH1 0x4 DUP3 ADD MSTORE PUSH1 0x16 PUSH1 0x24 DUP3 ADD MSTORE PUSH22 0x2A3432B9329034B99030903832B73234B733903A3C37 PUSH1 0x51 SHL PUSH1 0x44 DUP3 ADD MSTORE PUSH1 0x64 ADD PUSH2 0x14A JUMP JUMPDEST PUSH1 0x1 PUSH1 0x1 PUSH1 0xA0 SHL SUB DUP3 DUP2 AND PUSH1 0x0 SWAP1 DUP2 MSTORE PUSH1 0x20 DUP2 SWAP1 MSTORE PUSH1 0x40 SWAP1 KECCAK256 SLOAD AND PUSH2 0x971 JUMPI PUSH1 0x40 MLOAD PUSH3 0x461BCD PUSH1 0xE5 SHL DUP2 MSTORE PUSH1 0x20 PUSH1 0x4 DUP3 ADD MSTORE PUSH1 0x12 PUSH1 0x24 DUP3 ADD MSTORE PUSH18 0x2932B1B2B4BB32B91010B1B932B0BA32B217 PUSH1 0x71 SHL PUSH1 0x44 DUP3 ADD MSTORE PUSH1 0x64 ADD PUSH2 0x14A JUMP JUMPDEST CALLER PUSH1 0x0 SWAP1 DUP2 MSTORE PUSH1 0x20 DUP2 SWAP1 MSTORE PUSH1 0x40 SWAP1 KECCAK256 PUSH1 0x1 ADD SLOAD DUP2 LT PUSH2 0x9C2 JUMPI PUSH1 0x40 MLOAD PUSH3 0x461BCD PUSH1 0xE5 SHL DUP2 MSTORE PUSH1 0x20 PUSH1 0x4 DUP3 ADD MSTORE PUSH1 0xD PUSH1 0x24 DUP3 ADD MSTORE PUSH13 0x46756E6473203C2076616C7565 PUSH1 0x98 SHL PUSH1 0x44 DUP3 ADD MSTORE PUSH1 0x64 ADD PUSH2 0x14A JUMP JUMPDEST CALLER PUSH1 0x0 SWAP1 DUP2 MSTORE PUSH1 0x20 DUP2 SWAP1 MSTORE PUSH1 0x40 DUP2 KECCAK256 PUSH1 0x3 DUP2 ADD DUP1 SLOAD PUSH1 0x1 PUSH1 0x1 PUSH1 0xA0 SHL SUB NOT AND PUSH1 0x1 PUSH1 0x1 PUSH1 0xA0 SHL SUB DUP7 AND OR SWAP1 SSTORE PUSH1 0x1 ADD DUP1 SLOAD DUP4 SWAP3 SWAP1 PUSH2 0xA01 SWAP1 DUP5 SWAP1 PUSH2 0xBFE JUMP JUMPDEST SWAP1 SWAP2 SSTORE POP POP CALLER PUSH1 0x0 SWAP1 DUP2 MSTORE PUSH1 0x20 DUP2 SWAP1 MSTORE PUSH1 0x40 DUP2 KECCAK256 PUSH1 0x2 ADD DUP1 SLOAD DUP4 SWAP3 SWAP1 PUSH2 0xA28 SWAP1 DUP5 SWAP1 PUSH2 0xB8C JUMP JUMPDEST SWAP1 SWAP2 SSTORE POP POP POP POP JUMP JUMPDEST DUP1 CALLDATALOAD PUSH1 0x1 PUSH1 0x1 PUSH1 0xA0 SHL SUB DUP2 AND DUP2 EQ PUSH2 0xA48 JUMPI PUSH1 0x0 DUP1 REVERT JUMPDEST SWAP2 SWAP1 POP JUMP JUMPDEST PUSH1 0x0 PUSH1 0x20 DUP3 DUP5 SUB SLT ISZERO PUSH2 0xA5F JUMPI PUSH1 0x0 DUP1 REVERT JUMPDEST PUSH2 0xA68 DUP3 PUSH2 0xA31 JUMP JUMPDEST SWAP4 SWAP3 POP POP POP JUMP JUMPDEST PUSH1 0x0 DUP1 PUSH1 0x40 DUP4 DUP6 SUB SLT ISZERO PUSH2 0xA82 JUMPI PUSH1 0x0 DUP1 REVERT JUMPDEST PUSH2 0xA8B DUP4 PUSH2 0xA31 JUMP JUMPDEST SWAP5 PUSH1 0x20 SWAP4 SWAP1 SWAP4 ADD CALLDATALOAD SWAP4 POP POP POP JUMP JUMPDEST PUSH1 0x20 DUP1 DUP3 MSTORE PUSH1 0x8 SWAP1 DUP3 ADD MSTORE PUSH8 0x2141646472657373 PUSH1 0xC0 SHL PUSH1 0x40 DUP3 ADD MSTORE PUSH1 0x60 ADD SWAP1 JUMP JUMPDEST PUSH1 0x20 DUP1 DUP3 MSTORE PUSH1 0xF SWAP1 DUP3 ADD MSTORE PUSH15 0x15D85B1B195D080850DC99585D1959 PUSH1 0x8A SHL PUSH1 0x40 DUP3 ADD MSTORE PUSH1 0x60 ADD SWAP1 JUMP JUMPDEST PUSH1 0x20 DUP1 DUP3 MSTORE PUSH1 0x15 SWAP1 DUP3 ADD MSTORE PUSH21 0x10A932B1B2B4BB32B91034B7103A3434B9903A3C37 PUSH1 0x59 SHL PUSH1 0x40 DUP3 ADD MSTORE PUSH1 0x60 ADD SWAP1 JUMP JUMPDEST PUSH4 0x4E487B71 PUSH1 0xE0 SHL PUSH1 0x0 MSTORE PUSH1 0x11 PUSH1 0x4 MSTORE PUSH1 0x24 PUSH1 0x0 REVERT JUMPDEST PUSH1 0x0 DUP3 PUSH2 0xB46 JUMPI PUSH4 0x4E487B71 PUSH1 0xE0 SHL PUSH1 0x0 MSTORE PUSH1 0x12 PUSH1 0x4 MSTORE PUSH1 0x24 PUSH1 0x0 REVERT JUMPDEST POP DIV SWAP1 JUMP JUMPDEST PUSH1 0x0 DUP1 DUP3 SLT DUP1 ISZERO PUSH1 0x1 PUSH1 0x1 PUSH1 0xFF SHL SUB DUP5 SWAP1 SUB DUP6 SGT AND ISZERO PUSH2 0xB6D JUMPI PUSH2 0xB6D PUSH2 0xB13 JUMP JUMPDEST PUSH1 0x1 PUSH1 0xFF SHL DUP4 SWAP1 SUB DUP5 SLT DUP2 AND ISZERO PUSH2 0xB86 JUMPI PUSH2 0xB86 PUSH2 0xB13 JUMP JUMPDEST POP POP ADD SWAP1 JUMP JUMPDEST PUSH1 0x0 DUP3 NOT DUP3 GT ISZERO PUSH2 0xB9F JUMPI PUSH2 0xB9F PUSH2 0xB13 JUMP JUMPDEST POP ADD SWAP1 JUMP JUMPDEST PUSH1 0x0 DUP1 DUP4 SLT DUP1 ISZERO PUSH1 0x1 PUSH1 0xFF SHL DUP6 ADD DUP5 SLT AND ISZERO PUSH2 0xBC2 JUMPI PUSH2 0xBC2 PUSH2 0xB13 JUMP JUMPDEST PUSH1 0x1 PUSH1 0x1 PUSH1 0xFF SHL SUB DUP5 ADD DUP4 SGT DUP2 AND ISZERO PUSH2 0xBDD JUMPI PUSH2 0xBDD PUSH2 0xB13 JUMP JUMPDEST POP POP SUB SWAP1 JUMP JUMPDEST PUSH1 0x0 PUSH1 0x0 NOT DUP3 EQ ISZERO PUSH2 0xBF7 JUMPI PUSH2 0xBF7 PUSH2 0xB13 JUMP JUMPDEST POP PUSH1 0x1 ADD SWAP1 JUMP JUMPDEST PUSH1 0x0 DUP3 DUP3 LT ISZERO PUSH2 0xC10 JUMPI PUSH2 0xC10 PUSH2 0xB13 JUMP JUMPDEST POP SUB SWAP1 JUMP INVALID LOG2 PUSH5 0x6970667358 0x22 SLT KECCAK256 BLOCKHASH 0xF8 SWAP8 0xD0 0xF8 SWAP14 SWAP3 PUSH23 0x7C079A4A0138A0AF4F83A3B8B37DE6AD0569FE6ADE7CEF PUSH32 0x64736F6C634300080C0033000000000000000000000000000000000000000000 ",
  "sha1": "45564c50d2869e4f30e201115d71b07ebb4628e7",
  "source": "// SPDX-License-Identifier: MIT\n\npragma solidity >0.6.0;\n\n/**\n    D E S C R I P T I O N\n\n    A basic solidity program that allows the creation of a wallet in the contract.\n\n    Wallet owners can:\n    \n    1. Submit a transaction.\n    2. Approve and revoke a pending transaction.\n    3. Anyone can execute a transaction after enough owners has approved it.\n\n*/\n\ncontract MultiSigWallet\n{\n    struct Data\n    {\n        address wallet_owner;\n        uint256 funds;\n        uint256 deposit_to_receiver;\n        address receiver;\n        int256 approve_count;\n    }\n\n\n    mapping(address => Data) private owners;\n    uint256 public wallets;\n\n\n\n\n    function createWallet(address _creator) public payable\n    {\n        require(msg.sender != address(0), \"!Address\");\n        require(_creator != address(0), \"!Creator Address\");\n\n        require(owners[_creator].wallet_owner == address(0), \"Wallet created already.\");\n        require(msg.value > 0, \"Creation fund == 0\");\n\n        owners[_creator] = Data(_creator, msg.value, 0, address(0), 0);\n        wallets ++;\n    }\n\n\n\n\n    function getFunds(address acc) private view returns(uint funds)\n    {\n        funds = owners[acc].funds;\n    }\n\n\n\n\n    function fundWallet() public payable\n    {\n        require(msg.sender != address(0), \"!Address\"); // Valid address.\n        require(owners[msg.sender].wallet_owner == msg.sender, \"Wallet !Created\");\n\n        owners[msg.sender].funds += msg.value;\n        \n        // Funds the contract on his behalf but has a record of how much he has deposited.\n    }\n\n\n\n\n    function makeTransaction(address _receiver, uint _amount) public\n    {\n        require(msg.sender != address(0), \"!Address\"); // Valid address.\n        require(_receiver != address(0), \"!Receiver Address\"); // Valid receiver.\n        require(_receiver != msg.sender, \"Sender ! Receiver\");\n        require(owners[msg.sender].wallet_owner != address(0), \"Wallet !Created\");\n        require(owners[msg.sender].receiver == address(0), \"There is a pending txn\"); // There is no pending transaction.\n        require(owners[_receiver].wallet_owner != address(0), \"Receiver !created.\");\n        require(getFunds(msg.sender) > _amount, \"Funds < value\");\n\n        owners[msg.sender].receiver = _receiver;\n        owners[msg.sender].funds -= _amount;\n        owners[msg.sender].deposit_to_receiver += _amount;\n    }\n\n\n\n\n    function confirmTransaction(address _txn_maker) public\n    {\n        require(msg.sender != address(0), \"!Address\"); // Valid address.\n        require(owners[msg.sender].wallet_owner != address(0), \"Wallet !Created\");\n        require(msg.sender != owners[_txn_maker].wallet_owner, \"!Approve\");\n        require(owners[_txn_maker].wallet_owner != address(0), \"Wallet !Created\");\n        require(owners[_txn_maker].receiver != address(0), \"!Receiver in this txn\");\n\n        owners[_txn_maker].approve_count += 1;\n    }\n\n\n\n\n    function revokeTransaction(address _txn_maker) public\n    {\n        require(msg.sender != address(0), \"!Address\"); // Valid address.\n        require(owners[msg.sender].wallet_owner != address(0), \"Wallet !Created\");\n        require(owners[_txn_maker].wallet_owner != address(0), \"Wallet !Created\");\n        require(msg.sender != owners[_txn_maker].wallet_owner, \"!Revoke\");\n        require(owners[_txn_maker].receiver != address(0), \"!Receiver in this txn\");\n\n        owners[_txn_maker].approve_count -= 1;\n    }\n\n\n\n\n    function finishTransaction(address _txn_maker) public payable\n    {\n        require(msg.sender != address(0), \"!Address\"); // Valid address.\n        require(owners[_txn_maker].wallet_owner != address(0), \"Wallet !Created\");\n        require(msg.sender == owners[_txn_maker].wallet_owner, \"!Finish\");\n        require(owners[_txn_maker].receiver != address(0), \"!Receiver in this txn\");\n        \n        require(owners[_txn_maker].approve_count > int256(wallets / 2), \"Not approved yet.\");\n\n        uint256 temp_bal = owners[_txn_maker].deposit_to_receiver;\n        address _receiver_wallet = owners[_txn_maker].receiver;\n\n        payable(_receiver_wallet).transfer(temp_bal);\n\n        owners[_txn_maker].deposit_to_receiver = 0;\n        delete owners[_txn_maker].receiver;\n    }\n}",
  "sourcePath": "contracts/MultiSigWallet.sol",
  "type": "contract"
}