{
  "abi": [
    {
      "inputs": [],
      "stateMutability": "nonpayable",
      "type": "constructor"
    },
    {
      "anonymous": false,
      "inputs": [
        {
          "indexed": true,
          "internalType": "address",
          "name": "owner",
          "type": "address"
        },
        {
          "indexed": true,
          "internalType": "address",
          "name": "spender",
          "type": "address"
        },
        {
          "indexed": false,
          "internalType": "uint256",
          "name": "value",
          "type": "uint256"
        }
      ],
      "name": "Approval",
      "type": "event"
    },
    {
      "anonymous": false,
      "inputs": [
        {
          "indexed": true,
          "internalType": "address",
          "name": "previousOwner",
          "type": "address"
        },
        {
          "indexed": true,
          "internalType": "address",
          "name": "newOwner",
          "type": "address"
        }
      ],
      "name": "OwnershipTransferred",
      "type": "event"
    },
    {
      "anonymous": false,
      "inputs": [
        {
          "indexed": true,
          "internalType": "address",
          "name": "from",
          "type": "address"
        },
        {
          "indexed": true,
          "internalType": "address",
          "name": "to",
          "type": "address"
        },
        {
          "indexed": false,
          "internalType": "uint256",
          "name": "value",
          "type": "uint256"
        }
      ],
      "name": "Transfer",
      "type": "event"
    },
    {
      "inputs": [],
      "name": "_decimals",
      "outputs": [
        {
          "internalType": "uint8",
          "name": "",
          "type": "uint8"
        }
      ],
      "stateMutability": "view",
      "type": "function"
    },
    {
      "inputs": [],
      "name": "_name",
      "outputs": [
        {
          "internalType": "string",
          "name": "",
          "type": "string"
        }
      ],
      "stateMutability": "view",
      "type": "function"
    },
    {
      "inputs": [],
      "name": "_symbol",
      "outputs": [
        {
          "internalType": "string",
          "name": "",
          "type": "string"
        }
      ],
      "stateMutability": "view",
      "type": "function"
    },
    {
      "inputs": [
        {
          "internalType": "address",
          "name": "owner",
          "type": "address"
        },
        {
          "internalType": "address",
          "name": "spender",
          "type": "address"
        }
      ],
      "name": "allowance",
      "outputs": [
        {
          "internalType": "uint256",
          "name": "",
          "type": "uint256"
        }
      ],
      "stateMutability": "view",
      "type": "function"
    },
    {
      "inputs": [
        {
          "internalType": "address",
          "name": "spender",
          "type": "address"
        },
        {
          "internalType": "uint256",
          "name": "amount",
          "type": "uint256"
        }
      ],
      "name": "approve",
      "outputs": [
        {
          "internalType": "bool",
          "name": "",
          "type": "bool"
        }
      ],
      "stateMutability": "nonpayable",
      "type": "function"
    },
    {
      "inputs": [
        {
          "internalType": "address",
          "name": "account",
          "type": "address"
        }
      ],
      "name": "balanceOf",
      "outputs": [
        {
          "internalType": "uint256",
          "name": "",
          "type": "uint256"
        }
      ],
      "stateMutability": "view",
      "type": "function"
    },
    {
      "inputs": [
        {
          "internalType": "uint256",
          "name": "amount",
          "type": "uint256"
        }
      ],
      "name": "burn",
      "outputs": [
        {
          "internalType": "bool",
          "name": "",
          "type": "bool"
        }
      ],
      "stateMutability": "nonpayable",
      "type": "function"
    },
    {
      "inputs": [],
      "name": "decimals",
      "outputs": [
        {
          "internalType": "uint8",
          "name": "",
          "type": "uint8"
        }
      ],
      "stateMutability": "view",
      "type": "function"
    },
    {
      "inputs": [
        {
          "internalType": "address",
          "name": "spender",
          "type": "address"
        },
        {
          "internalType": "uint256",
          "name": "subtractedValue",
          "type": "uint256"
        }
      ],
      "name": "decreaseAllowance",
      "outputs": [
        {
          "internalType": "bool",
          "name": "",
          "type": "bool"
        }
      ],
      "stateMutability": "nonpayable",
      "type": "function"
    },
    {
      "inputs": [],
      "name": "getOwner",
      "outputs": [
        {
          "internalType": "address",
          "name": "",
          "type": "address"
        }
      ],
      "stateMutability": "view",
      "type": "function"
    },
    {
      "inputs": [
        {
          "internalType": "address",
          "name": "spender",
          "type": "address"
        },
        {
          "internalType": "uint256",
          "name": "addedValue",
          "type": "uint256"
        }
      ],
      "name": "increaseAllowance",
      "outputs": [
        {
          "internalType": "bool",
          "name": "",
          "type": "bool"
        }
      ],
      "stateMutability": "nonpayable",
      "type": "function"
    },
    {
      "inputs": [
        {
          "internalType": "uint256",
          "name": "amount",
          "type": "uint256"
        }
      ],
      "name": "mint",
      "outputs": [
        {
          "internalType": "bool",
          "name": "",
          "type": "bool"
        }
      ],
      "stateMutability": "nonpayable",
      "type": "function"
    },
    {
      "inputs": [],
      "name": "name",
      "outputs": [
        {
          "internalType": "string",
          "name": "",
          "type": "string"
        }
      ],
      "stateMutability": "view",
      "type": "function"
    },
    {
      "inputs": [],
      "name": "owner",
      "outputs": [
        {
          "internalType": "address",
          "name": "",
          "type": "address"
        }
      ],
      "stateMutability": "view",
      "type": "function"
    },
    {
      "inputs": [],
      "name": "renounceOwnership",
      "outputs": [],
      "stateMutability": "nonpayable",
      "type": "function"
    },
    {
      "inputs": [],
      "name": "symbol",
      "outputs": [
        {
          "internalType": "string",
          "name": "",
          "type": "string"
        }
      ],
      "stateMutability": "view",
      "type": "function"
    },
    {
      "inputs": [],
      "name": "totalSupply",
      "outputs": [
        {
          "internalType": "uint256",
          "name": "",
          "type": "uint256"
        }
      ],
      "stateMutability": "view",
      "type": "function"
    },
    {
      "inputs": [
        {
          "internalType": "address",
          "name": "recipient",
          "type": "address"
        },
        {
          "internalType": "uint256",
          "name": "amount",
          "type": "uint256"
        }
      ],
      "name": "transfer",
      "outputs": [
        {
          "internalType": "bool",
          "name": "",
          "type": "bool"
        }
      ],
      "stateMutability": "nonpayable",
      "type": "function"
    },
    {
      "inputs": [
        {
          "internalType": "address",
          "name": "sender",
          "type": "address"
        },
        {
          "internalType": "address",
          "name": "recipient",
          "type": "address"
        },
        {
          "internalType": "uint256",
          "name": "amount",
          "type": "uint256"
        }
      ],
      "name": "transferFrom",
      "outputs": [
        {
          "internalType": "bool",
          "name": "",
          "type": "bool"
        }
      ],
      "stateMutability": "nonpayable",
      "type": "function"
    },
    {
      "inputs": [
        {
          "internalType": "address",
          "name": "newOwner",
          "type": "address"
        }
      ],
      "name": "transferOwnership",
      "outputs": [],
      "stateMutability": "nonpayable",
      "type": "function"
    }
  ],
  "bytecode": "60806040523480156200001157600080fd5b50600080546001600160a01b031916339081178255604051909182917f8be0079c531659141344cd1fd0a4f28419497f9722a3daafe3b4186f6b6457e0908290a35060408051808201909152600a8082526915195d1a195c881554d160b21b602090920191825262000086916006916200016c565b50604080518082019091526004808252631554d11560e21b6020909201918252620000b4916005916200016c565b506004805460ff19166012908117909155620000d290600a62000327565b620000e2906311e1a3006200033f565b6003819055735e078e6b545cf88abd5bb58d27488ef8be0d2593600090815260016020527fadd9fccae793cff62670e3cd482ed148d304058cb4d12e32c2c29862c9c87f5f82905560405133927fddf252ad1be2c89b69c2b068fc378daa952ba7f163c4a11628f55a4df523b3ef916200015e91815260200190565b60405180910390a36200039e565b8280546200017a9062000361565b90600052602060002090601f0160209004810192826200019e5760008555620001e9565b82601f10620001b957805160ff1916838001178555620001e9565b82800160010185558215620001e9579182015b82811115620001e9578251825591602001919060010190620001cc565b50620001f7929150620001fb565b5090565b5b80821115620001f75760008155600101620001fc565b634e487b7160e01b600052601160045260246000fd5b600181815b80851115620002695781600019048211156200024d576200024d62000212565b808516156200025b57918102915b93841c93908002906200022d565b509250929050565b600082620002825750600162000321565b81620002915750600062000321565b8160018114620002aa5760028114620002b557620002d5565b600191505062000321565b60ff841115620002c957620002c962000212565b50506001821b62000321565b5060208310610133831016604e8410600b8410161715620002fa575081810a62000321565b62000306838362000228565b80600019048211156200031d576200031d62000212565b0290505b92915050565b60006200033860ff84168362000271565b9392505050565b60008160001904831182151516156200035c576200035c62000212565b500290565b600181811c908216806200037657607f821691505b602082108114156200039857634e487b7160e01b600052602260045260246000fd5b50919050565b610f9a80620003ae6000396000f3fe608060405234801561001057600080fd5b506004361061012c5760003560e01c8063893d20e8116100ad578063a9059cbb11610071578063a9059cbb1461027a578063b09f12661461028d578063d28d885214610295578063dd62ed3e1461029d578063f2fde38b146102d657600080fd5b8063893d20e8146102165780638da5cb5b1461023b57806395d89b411461024c578063a0712d6814610254578063a457c2d71461026757600080fd5b806332424aa3116100f457806332424aa3146101b057806339509351146101bd57806342966c68146101d057806370a08231146101e3578063715018a61461020c57600080fd5b806306fdde0314610131578063095ea7b31461014f57806318160ddd1461017257806323b872dd14610184578063313ce56714610197575b600080fd5b6101396102e9565b6040516101469190610ce1565b60405180910390f35b61016261015d366004610d4d565b61037b565b6040519015158152602001610146565b6003545b604051908152602001610146565b610162610192366004610d77565b610391565b60045460ff165b60405160ff9091168152602001610146565b60045461019e9060ff1681565b6101626101cb366004610d4d565b6103fa565b6101626101de366004610db3565b610430565b6101766101f1366004610dcc565b6001600160a01b031660009081526001602052604090205490565b610214610444565b005b6000546001600160a01b03165b6040516001600160a01b039091168152602001610146565b6000546001600160a01b0316610223565b6101396104c1565b610162610262366004610db3565b6104d0565b610162610275366004610d4d565b61050a565b610162610288366004610d4d565b610559565b610139610566565b6101396105f4565b6101766102ab366004610de7565b6001600160a01b03918216600090815260026020908152604080832093909416825291909152205490565b6102146102e4366004610dcc565b610601565b6060600680546102f890610e1a565b80601f016020809104026020016040519081016040528092919081815260200182805461032490610e1a565b80156103715780601f1061034657610100808354040283529160200191610371565b820191906000526020600020905b81548152906001019060200180831161035457829003601f168201915b5050505050905090565b6000610388338484610637565b50600192915050565b600061039e84848461075c565b6103f084336103eb85604051806060016040528060288152602001610ed0602891396001600160a01b038a1660009081526002602090815260408083203384529091529020549190610959565b610637565b5060019392505050565b3360008181526002602090815260408083206001600160a01b038716845290915281205490916103889185906103eb9086610993565b600061043c33836109f9565b506001919050565b6000546001600160a01b031633146104775760405162461bcd60e51b815260040161046e90610e55565b60405180910390fd5b600080546040516001600160a01b03909116907f8be0079c531659141344cd1fd0a4f28419497f9722a3daafe3b4186f6b6457e0908390a3600080546001600160a01b0319169055565b6060600580546102f890610e1a565b600080546001600160a01b031633146104fb5760405162461bcd60e51b815260040161046e90610e55565b61043c3383610b05565b919050565b600061038833846103eb85604051806060016040528060258152602001610f1e602591393360009081526002602090815260408083206001600160a01b038d1684529091529020549190610959565b600061038833848461075c565b6005805461057390610e1a565b80601f016020809104026020016040519081016040528092919081815260200182805461059f90610e1a565b80156105ec5780601f106105c1576101008083540402835291602001916105ec565b820191906000526020600020905b8154815290600101906020018083116105cf57829003601f168201915b505050505081565b6006805461057390610e1a565b6000546001600160a01b0316331461062b5760405162461bcd60e51b815260040161046e90610e55565b61063481610bdf565b50565b6001600160a01b0383166106995760405162461bcd60e51b8152602060048201526024808201527f42455032303a20617070726f76652066726f6d20746865207a65726f206164646044820152637265737360e01b606482015260840161046e565b6001600160a01b0382166106fa5760405162461bcd60e51b815260206004820152602260248201527f42455032303a20617070726f766520746f20746865207a65726f206164647265604482015261737360f01b606482015260840161046e565b6001600160a01b0383811660008181526002602090815260408083209487168084529482529182902085905590518481527f8c5be1e5ebec7d5bd14f71427d1e84f3dd0314c0f7b2291e5b200ac8c7c3b92591015b60405180910390a3505050565b6001600160a01b0383166107c05760405162461bcd60e51b815260206004820152602560248201527f42455032303a207472616e736665722066726f6d20746865207a65726f206164604482015264647265737360d81b606482015260840161046e565b6001600160a01b0382166108225760405162461bcd60e51b815260206004820152602360248201527f42455032303a207472616e7366657220746f20746865207a65726f206164647260448201526265737360e81b606482015260840161046e565b6001600160a01b0383166000908152600160205260409020548111156108995760405162461bcd60e51b815260206004820152602660248201527f42455032303a207472616e7366657220616d6f756e7420657863656564732062604482015265616c616e636560d01b606482015260840161046e565b6108d681604051806060016040528060268152602001610ef8602691396001600160a01b0386166000908152600160205260409020549190610959565b6001600160a01b0380851660009081526001602052604080822093909355908416815220546109059082610993565b6001600160a01b0380841660008181526001602052604090819020939093559151908516907fddf252ad1be2c89b69c2b068fc378daa952ba7f163c4a11628f55a4df523b3ef9061074f9085815260200190565b6000818484111561097d5760405162461bcd60e51b815260040161046e9190610ce1565b50600061098a8486610ea0565b95945050505050565b6000806109a08385610eb7565b9050838110156109f25760405162461bcd60e51b815260206004820152601b60248201527f536166654d6174683a206164646974696f6e206f766572666c6f770000000000604482015260640161046e565b9392505050565b6001600160a01b038216610a595760405162461bcd60e51b815260206004820152602160248201527f42455032303a206275726e2066726f6d20746865207a65726f206164647265736044820152607360f81b606482015260840161046e565b610a9681604051806060016040528060228152602001610f43602291396001600160a01b0385166000908152600160205260409020549190610959565b6001600160a01b038316600090815260016020526040902055600354610abc9082610c9f565b6003556040518181526000906001600160a01b038416907fddf252ad1be2c89b69c2b068fc378daa952ba7f163c4a11628f55a4df523b3ef906020015b60405180910390a35050565b6001600160a01b038216610b5b5760405162461bcd60e51b815260206004820152601f60248201527f42455032303a206d696e7420746f20746865207a65726f206164647265737300604482015260640161046e565b600354610b689082610993565b6003556001600160a01b038216600090815260016020526040902054610b8e9082610993565b6001600160a01b0383166000818152600160205260408082209390935591519091907fddf252ad1be2c89b69c2b068fc378daa952ba7f163c4a11628f55a4df523b3ef90610af99085815260200190565b6001600160a01b038116610c445760405162461bcd60e51b815260206004820152602660248201527f4f776e61626c653a206e6577206f776e657220697320746865207a65726f206160448201526564647265737360d01b606482015260840161046e565b600080546040516001600160a01b03808516939216917f8be0079c531659141344cd1fd0a4f28419497f9722a3daafe3b4186f6b6457e091a3600080546001600160a01b0319166001600160a01b0392909216919091179055565b60006109f283836040518060400160405280601e81526020017f536166654d6174683a207375627472616374696f6e206f766572666c6f770000815250610959565b600060208083528351808285015260005b81811015610d0e57858101830151858201604001528201610cf2565b81811115610d20576000604083870101525b50601f01601f1916929092016040019392505050565b80356001600160a01b038116811461050557600080fd5b60008060408385031215610d6057600080fd5b610d6983610d36565b946020939093013593505050565b600080600060608486031215610d8c57600080fd5b610d9584610d36565b9250610da360208501610d36565b9150604084013590509250925092565b600060208284031215610dc557600080fd5b5035919050565b600060208284031215610dde57600080fd5b6109f282610d36565b60008060408385031215610dfa57600080fd5b610e0383610d36565b9150610e1160208401610d36565b90509250929050565b600181811c90821680610e2e57607f821691505b60208210811415610e4f57634e487b7160e01b600052602260045260246000fd5b50919050565b6020808252818101527f4f776e61626c653a2063616c6c6572206973206e6f7420746865206f776e6572604082015260600190565b634e487b7160e01b600052601160045260246000fd5b600082821015610eb257610eb2610e8a565b500390565b60008219821115610eca57610eca610e8a565b50019056fe42455032303a207472616e7366657220616d6f756e74206578636565647320616c6c6f77616e636542455032303a207472616e7366657220616d6f756e7420657863656564732062616c616e636542455032303a2064656372656173656420616c6c6f77616e63652062656c6f77207a65726f42455032303a206275726e20616d6f756e7420657863656564732062616c616e6365a2646970667358221220474a88ce2f58c80c5db5c1f755426040541cdd8fde26c1033c85b07b9ed557e264736f6c634300080c0033",
  "bytecodeSha1": "8318294dae694655764d0171e726024b6351a40e",
  "compiler": {
    "evm_version": "istanbul",
    "optimizer": {
      "enabled": true,
      "runs": 200
    },
    "version": "0.8.12+commit.f00d7308"
  },
  "contractName": "USDT",
  "language": "Solidity",
  "natspec": {
    "kind": "dev",
    "methods": {
      "allowance(address,address)": {
        "details": "See {BEP20-allowance}."
      },
      "approve(address,uint256)": {
        "details": "See {BEP20-approve}. Requirements: - `spender` cannot be the zero address."
      },
      "balanceOf(address)": {
        "details": "See {BEP20-balanceOf}."
      },
      "burn(uint256)": {
        "details": "Burn `amount` tokens and decreasing the total supply."
      },
      "decimals()": {
        "details": "Returns the token decimals."
      },
      "decreaseAllowance(address,uint256)": {
        "details": "Atomically decreases the allowance granted to `spender` by the caller. This is an alternative to {approve} that can be used as a mitigation for problems described in {BEP20-approve}. Emits an {Approval} event indicating the updated allowance. Requirements: - `spender` cannot be the zero address. - `spender` must have allowance for the caller of at least `subtractedValue`."
      },
      "getOwner()": {
        "details": "Returns the bep token owner."
      },
      "increaseAllowance(address,uint256)": {
        "details": "Atomically increases the allowance granted to `spender` by the caller. This is an alternative to {approve} that can be used as a mitigation for problems described in {BEP20-approve}. Emits an {Approval} event indicating the updated allowance. Requirements: - `spender` cannot be the zero address."
      },
      "mint(uint256)": {
        "details": "Creates `amount` tokens and assigns them to `msg.sender`, increasing the total supply. Requirements - `msg.sender` must be the token owner"
      },
      "name()": {
        "details": "Returns the token name."
      },
      "owner()": {
        "details": "Returns the address of the current owner."
      },
      "renounceOwnership()": {
        "details": "Leaves the contract without owner. It will not be possible to call `onlyOwner` functions anymore. Can only be called by the current owner. NOTE: Renouncing ownership will leave the contract without an owner, thereby removing any functionality that is only available to the owner."
      },
      "symbol()": {
        "details": "Returns the token symbol."
      },
      "totalSupply()": {
        "details": "See {BEP20-totalSupply}."
      },
      "transfer(address,uint256)": {
        "details": "See {BEP20-transfer}. Requirements: - `recipient` cannot be the zero address. - the caller must have a balance of at least `amount`."
      },
      "transferFrom(address,address,uint256)": {
        "details": "See {BEP20-transferFrom}. Emits an {Approval} event indicating the updated allowance. This is not required by the EIP. See the note at the beginning of {BEP20}; Requirements: - `sender` and `recipient` cannot be the zero address. - `sender` must have a balance of at least `amount`. - the caller must have allowance for `sender`'s tokens of at least `amount`."
      },
      "transferOwnership(address)": {
        "details": "Transfers ownership of the contract to a new account (`newOwner`). Can only be called by the current owner."
      }
    },
    "version": 1
  },
  "opcodes": "PUSH1 0x80 PUSH1 0x40 MSTORE CALLVALUE DUP1 ISZERO PUSH2 0x10 JUMPI PUSH1 0x0 DUP1 REVERT JUMPDEST POP PUSH1 0x4 CALLDATASIZE LT PUSH2 0x12C JUMPI PUSH1 0x0 CALLDATALOAD PUSH1 0xE0 SHR DUP1 PUSH4 0x893D20E8 GT PUSH2 0xAD JUMPI DUP1 PUSH4 0xA9059CBB GT PUSH2 0x71 JUMPI DUP1 PUSH4 0xA9059CBB EQ PUSH2 0x27A JUMPI DUP1 PUSH4 0xB09F1266 EQ PUSH2 0x28D JUMPI DUP1 PUSH4 0xD28D8852 EQ PUSH2 0x295 JUMPI DUP1 PUSH4 0xDD62ED3E EQ PUSH2 0x29D JUMPI DUP1 PUSH4 0xF2FDE38B EQ PUSH2 0x2D6 JUMPI PUSH1 0x0 DUP1 REVERT JUMPDEST DUP1 PUSH4 0x893D20E8 EQ PUSH2 0x216 JUMPI DUP1 PUSH4 0x8DA5CB5B EQ PUSH2 0x23B JUMPI DUP1 PUSH4 0x95D89B41 EQ PUSH2 0x24C JUMPI DUP1 PUSH4 0xA0712D68 EQ PUSH2 0x254 JUMPI DUP1 PUSH4 0xA457C2D7 EQ PUSH2 0x267 JUMPI PUSH1 0x0 DUP1 REVERT JUMPDEST DUP1 PUSH4 0x32424AA3 GT PUSH2 0xF4 JUMPI DUP1 PUSH4 0x32424AA3 EQ PUSH2 0x1B0 JUMPI DUP1 PUSH4 0x39509351 EQ PUSH2 0x1BD JUMPI DUP1 PUSH4 0x42966C68 EQ PUSH2 0x1D0 JUMPI DUP1 PUSH4 0x70A08231 EQ PUSH2 0x1E3 JUMPI DUP1 PUSH4 0x715018A6 EQ PUSH2 0x20C JUMPI PUSH1 0x0 DUP1 REVERT JUMPDEST DUP1 PUSH4 0x6FDDE03 EQ PUSH2 0x131 JUMPI DUP1 PUSH4 0x95EA7B3 EQ PUSH2 0x14F JUMPI DUP1 PUSH4 0x18160DDD EQ PUSH2 0x172 JUMPI DUP1 PUSH4 0x23B872DD EQ PUSH2 0x184 JUMPI DUP1 PUSH4 0x313CE567 EQ PUSH2 0x197 JUMPI JUMPDEST PUSH1 0x0 DUP1 REVERT JUMPDEST PUSH2 0x139 PUSH2 0x2E9 JUMP JUMPDEST PUSH1 0x40 MLOAD PUSH2 0x146 SWAP2 SWAP1 PUSH2 0xCE1 JUMP JUMPDEST PUSH1 0x40 MLOAD DUP1 SWAP2 SUB SWAP1 RETURN JUMPDEST PUSH2 0x162 PUSH2 0x15D CALLDATASIZE PUSH1 0x4 PUSH2 0xD4D JUMP JUMPDEST PUSH2 0x37B JUMP JUMPDEST PUSH1 0x40 MLOAD SWAP1 ISZERO ISZERO DUP2 MSTORE PUSH1 0x20 ADD PUSH2 0x146 JUMP JUMPDEST PUSH1 0x3 SLOAD JUMPDEST PUSH1 0x40 MLOAD SWAP1 DUP2 MSTORE PUSH1 0x20 ADD PUSH2 0x146 JUMP JUMPDEST PUSH2 0x162 PUSH2 0x192 CALLDATASIZE PUSH1 0x4 PUSH2 0xD77 JUMP JUMPDEST PUSH2 0x391 JUMP JUMPDEST PUSH1 0x4 SLOAD PUSH1 0xFF AND JUMPDEST PUSH1 0x40 MLOAD PUSH1 0xFF SWAP1 SWAP2 AND DUP2 MSTORE PUSH1 0x20 ADD PUSH2 0x146 JUMP JUMPDEST PUSH1 0x4 SLOAD PUSH2 0x19E SWAP1 PUSH1 0xFF AND DUP2 JUMP JUMPDEST PUSH2 0x162 PUSH2 0x1CB CALLDATASIZE PUSH1 0x4 PUSH2 0xD4D JUMP JUMPDEST PUSH2 0x3FA JUMP JUMPDEST PUSH2 0x162 PUSH2 0x1DE CALLDATASIZE PUSH1 0x4 PUSH2 0xDB3 JUMP JUMPDEST PUSH2 0x430 JUMP JUMPDEST PUSH2 0x176 PUSH2 0x1F1 CALLDATASIZE PUSH1 0x4 PUSH2 0xDCC JUMP JUMPDEST PUSH1 0x1 PUSH1 0x1 PUSH1 0xA0 SHL SUB AND PUSH1 0x0 SWAP1 DUP2 MSTORE PUSH1 0x1 PUSH1 0x20 MSTORE PUSH1 0x40 SWAP1 KECCAK256 SLOAD SWAP1 JUMP JUMPDEST PUSH2 0x214 PUSH2 0x444 JUMP JUMPDEST STOP JUMPDEST PUSH1 0x0 SLOAD PUSH1 0x1 PUSH1 0x1 PUSH1 0xA0 SHL SUB AND JUMPDEST PUSH1 0x40 MLOAD PUSH1 0x1 PUSH1 0x1 PUSH1 0xA0 SHL SUB SWAP1 SWAP2 AND DUP2 MSTORE PUSH1 0x20 ADD PUSH2 0x146 JUMP JUMPDEST PUSH1 0x0 SLOAD PUSH1 0x1 PUSH1 0x1 PUSH1 0xA0 SHL SUB AND PUSH2 0x223 JUMP JUMPDEST PUSH2 0x139 PUSH2 0x4C1 JUMP JUMPDEST PUSH2 0x162 PUSH2 0x262 CALLDATASIZE PUSH1 0x4 PUSH2 0xDB3 JUMP JUMPDEST PUSH2 0x4D0 JUMP JUMPDEST PUSH2 0x162 PUSH2 0x275 CALLDATASIZE PUSH1 0x4 PUSH2 0xD4D JUMP JUMPDEST PUSH2 0x50A JUMP JUMPDEST PUSH2 0x162 PUSH2 0x288 CALLDATASIZE PUSH1 0x4 PUSH2 0xD4D JUMP JUMPDEST PUSH2 0x559 JUMP JUMPDEST PUSH2 0x139 PUSH2 0x566 JUMP JUMPDEST PUSH2 0x139 PUSH2 0x5F4 JUMP JUMPDEST PUSH2 0x176 PUSH2 0x2AB CALLDATASIZE PUSH1 0x4 PUSH2 0xDE7 JUMP JUMPDEST PUSH1 0x1 PUSH1 0x1 PUSH1 0xA0 SHL SUB SWAP2 DUP3 AND PUSH1 0x0 SWAP1 DUP2 MSTORE PUSH1 0x2 PUSH1 0x20 SWAP1 DUP2 MSTORE PUSH1 0x40 DUP1 DUP4 KECCAK256 SWAP4 SWAP1 SWAP5 AND DUP3 MSTORE SWAP2 SWAP1 SWAP2 MSTORE KECCAK256 SLOAD SWAP1 JUMP JUMPDEST PUSH2 0x214 PUSH2 0x2E4 CALLDATASIZE PUSH1 0x4 PUSH2 0xDCC JUMP JUMPDEST PUSH2 0x601 JUMP JUMPDEST PUSH1 0x60 PUSH1 0x6 DUP1 SLOAD PUSH2 0x2F8 SWAP1 PUSH2 0xE1A JUMP JUMPDEST DUP1 PUSH1 0x1F ADD PUSH1 0x20 DUP1 SWAP2 DIV MUL PUSH1 0x20 ADD PUSH1 0x40 MLOAD SWAP1 DUP2 ADD PUSH1 0x40 MSTORE DUP1 SWAP3 SWAP2 SWAP1 DUP2 DUP2 MSTORE PUSH1 0x20 ADD DUP3 DUP1 SLOAD PUSH2 0x324 SWAP1 PUSH2 0xE1A JUMP JUMPDEST DUP1 ISZERO PUSH2 0x371 JUMPI DUP1 PUSH1 0x1F LT PUSH2 0x346 JUMPI PUSH2 0x100 DUP1 DUP4 SLOAD DIV MUL DUP4 MSTORE SWAP2 PUSH1 0x20 ADD SWAP2 PUSH2 0x371 JUMP JUMPDEST DUP3 ADD SWAP2 SWAP1 PUSH1 0x0 MSTORE PUSH1 0x20 PUSH1 0x0 KECCAK256 SWAP1 JUMPDEST DUP2 SLOAD DUP2 MSTORE SWAP1 PUSH1 0x1 ADD SWAP1 PUSH1 0x20 ADD DUP1 DUP4 GT PUSH2 0x354 JUMPI DUP3 SWAP1 SUB PUSH1 0x1F AND DUP3 ADD SWAP2 JUMPDEST POP POP POP POP POP SWAP1 POP SWAP1 JUMP JUMPDEST PUSH1 0x0 PUSH2 0x388 CALLER DUP5 DUP5 PUSH2 0x637 JUMP JUMPDEST POP PUSH1 0x1 SWAP3 SWAP2 POP POP JUMP JUMPDEST PUSH1 0x0 PUSH2 0x39E DUP5 DUP5 DUP5 PUSH2 0x75C JUMP JUMPDEST PUSH2 0x3F0 DUP5 CALLER PUSH2 0x3EB DUP6 PUSH1 0x40 MLOAD DUP1 PUSH1 0x60 ADD PUSH1 0x40 MSTORE DUP1 PUSH1 0x28 DUP2 MSTORE PUSH1 0x20 ADD PUSH2 0xED0 PUSH1 0x28 SWAP2 CODECOPY PUSH1 0x1 PUSH1 0x1 PUSH1 0xA0 SHL SUB DUP11 AND PUSH1 0x0 SWAP1 DUP2 MSTORE PUSH1 0x2 PUSH1 0x20 SWAP1 DUP2 MSTORE PUSH1 0x40 DUP1 DUP4 KECCAK256 CALLER DUP5 MSTORE SWAP1 SWAP2 MSTORE SWAP1 KECCAK256 SLOAD SWAP2 SWAP1 PUSH2 0x959 JUMP JUMPDEST PUSH2 0x637 JUMP JUMPDEST POP PUSH1 0x1 SWAP4 SWAP3 POP POP POP JUMP JUMPDEST CALLER PUSH1 0x0 DUP2 DUP2 MSTORE PUSH1 0x2 PUSH1 0x20 SWAP1 DUP2 MSTORE PUSH1 0x40 DUP1 DUP4 KECCAK256 PUSH1 0x1 PUSH1 0x1 PUSH1 0xA0 SHL SUB DUP8 AND DUP5 MSTORE SWAP1 SWAP2 MSTORE DUP2 KECCAK256 SLOAD SWAP1 SWAP2 PUSH2 0x388 SWAP2 DUP6 SWAP1 PUSH2 0x3EB SWAP1 DUP7 PUSH2 0x993 JUMP JUMPDEST PUSH1 0x0 PUSH2 0x43C CALLER DUP4 PUSH2 0x9F9 JUMP JUMPDEST POP PUSH1 0x1 SWAP2 SWAP1 POP JUMP JUMPDEST PUSH1 0x0 SLOAD PUSH1 0x1 PUSH1 0x1 PUSH1 0xA0 SHL SUB AND CALLER EQ PUSH2 0x477 JUMPI PUSH1 0x40 MLOAD PUSH3 0x461BCD PUSH1 0xE5 SHL DUP2 MSTORE PUSH1 0x4 ADD PUSH2 0x46E SWAP1 PUSH2 0xE55 JUMP JUMPDEST PUSH1 0x40 MLOAD DUP1 SWAP2 SUB SWAP1 REVERT JUMPDEST PUSH1 0x0 DUP1 SLOAD PUSH1 0x40 MLOAD PUSH1 0x1 PUSH1 0x1 PUSH1 0xA0 SHL SUB SWAP1 SWAP2 AND SWAP1 PUSH32 0x8BE0079C531659141344CD1FD0A4F28419497F9722A3DAAFE3B4186F6B6457E0 SWAP1 DUP4 SWAP1 LOG3 PUSH1 0x0 DUP1 SLOAD PUSH1 0x1 PUSH1 0x1 PUSH1 0xA0 SHL SUB NOT AND SWAP1 SSTORE JUMP JUMPDEST PUSH1 0x60 PUSH1 0x5 DUP1 SLOAD PUSH2 0x2F8 SWAP1 PUSH2 0xE1A JUMP JUMPDEST PUSH1 0x0 DUP1 SLOAD PUSH1 0x1 PUSH1 0x1 PUSH1 0xA0 SHL SUB AND CALLER EQ PUSH2 0x4FB JUMPI PUSH1 0x40 MLOAD PUSH3 0x461BCD PUSH1 0xE5 SHL DUP2 MSTORE PUSH1 0x4 ADD PUSH2 0x46E SWAP1 PUSH2 0xE55 JUMP JUMPDEST PUSH2 0x43C CALLER DUP4 PUSH2 0xB05 JUMP JUMPDEST SWAP2 SWAP1 POP JUMP JUMPDEST PUSH1 0x0 PUSH2 0x388 CALLER DUP5 PUSH2 0x3EB DUP6 PUSH1 0x40 MLOAD DUP1 PUSH1 0x60 ADD PUSH1 0x40 MSTORE DUP1 PUSH1 0x25 DUP2 MSTORE PUSH1 0x20 ADD PUSH2 0xF1E PUSH1 0x25 SWAP2 CODECOPY CALLER PUSH1 0x0 SWAP1 DUP2 MSTORE PUSH1 0x2 PUSH1 0x20 SWAP1 DUP2 MSTORE PUSH1 0x40 DUP1 DUP4 KECCAK256 PUSH1 0x1 PUSH1 0x1 PUSH1 0xA0 SHL SUB DUP14 AND DUP5 MSTORE SWAP1 SWAP2 MSTORE SWAP1 KECCAK256 SLOAD SWAP2 SWAP1 PUSH2 0x959 JUMP JUMPDEST PUSH1 0x0 PUSH2 0x388 CALLER DUP5 DUP5 PUSH2 0x75C JUMP JUMPDEST PUSH1 0x5 DUP1 SLOAD PUSH2 0x573 SWAP1 PUSH2 0xE1A JUMP JUMPDEST DUP1 PUSH1 0x1F ADD PUSH1 0x20 DUP1 SWAP2 DIV MUL PUSH1 0x20 ADD PUSH1 0x40 MLOAD SWAP1 DUP2 ADD PUSH1 0x40 MSTORE DUP1 SWAP3 SWAP2 SWAP1 DUP2 DUP2 MSTORE PUSH1 0x20 ADD DUP3 DUP1 SLOAD PUSH2 0x59F SWAP1 PUSH2 0xE1A JUMP JUMPDEST DUP1 ISZERO PUSH2 0x5EC JUMPI DUP1 PUSH1 0x1F LT PUSH2 0x5C1 JUMPI PUSH2 0x100 DUP1 DUP4 SLOAD DIV MUL DUP4 MSTORE SWAP2 PUSH1 0x20 ADD SWAP2 PUSH2 0x5EC JUMP JUMPDEST DUP3 ADD SWAP2 SWAP1 PUSH1 0x0 MSTORE PUSH1 0x20 PUSH1 0x0 KECCAK256 SWAP1 JUMPDEST DUP2 SLOAD DUP2 MSTORE SWAP1 PUSH1 0x1 ADD SWAP1 PUSH1 0x20 ADD DUP1 DUP4 GT PUSH2 0x5CF JUMPI DUP3 SWAP1 SUB PUSH1 0x1F AND DUP3 ADD SWAP2 JUMPDEST POP POP POP POP POP DUP2 JUMP JUMPDEST PUSH1 0x6 DUP1 SLOAD PUSH2 0x573 SWAP1 PUSH2 0xE1A JUMP JUMPDEST PUSH1 0x0 SLOAD PUSH1 0x1 PUSH1 0x1 PUSH1 0xA0 SHL SUB AND CALLER EQ PUSH2 0x62B JUMPI PUSH1 0x40 MLOAD PUSH3 0x461BCD PUSH1 0xE5 SHL DUP2 MSTORE PUSH1 0x4 ADD PUSH2 0x46E SWAP1 PUSH2 0xE55 JUMP JUMPDEST PUSH2 0x634 DUP2 PUSH2 0xBDF JUMP JUMPDEST POP JUMP JUMPDEST PUSH1 0x1 PUSH1 0x1 PUSH1 0xA0 SHL SUB DUP4 AND PUSH2 0x699 JUMPI PUSH1 0x40 MLOAD PUSH3 0x461BCD PUSH1 0xE5 SHL DUP2 MSTORE PUSH1 0x20 PUSH1 0x4 DUP3 ADD MSTORE PUSH1 0x24 DUP1 DUP3 ADD MSTORE PUSH32 0x42455032303A20617070726F76652066726F6D20746865207A65726F20616464 PUSH1 0x44 DUP3 ADD MSTORE PUSH4 0x72657373 PUSH1 0xE0 SHL PUSH1 0x64 DUP3 ADD MSTORE PUSH1 0x84 ADD PUSH2 0x46E JUMP JUMPDEST PUSH1 0x1 PUSH1 0x1 PUSH1 0xA0 SHL SUB DUP3 AND PUSH2 0x6FA JUMPI PUSH1 0x40 MLOAD PUSH3 0x461BCD PUSH1 0xE5 SHL DUP2 MSTORE PUSH1 0x20 PUSH1 0x4 DUP3 ADD MSTORE PUSH1 0x22 PUSH1 0x24 DUP3 ADD MSTORE PUSH32 0x42455032303A20617070726F766520746F20746865207A65726F206164647265 PUSH1 0x44 DUP3 ADD MSTORE PUSH2 0x7373 PUSH1 0xF0 SHL PUSH1 0x64 DUP3 ADD MSTORE PUSH1 0x84 ADD PUSH2 0x46E JUMP JUMPDEST PUSH1 0x1 PUSH1 0x1 PUSH1 0xA0 SHL SUB DUP4 DUP2 AND PUSH1 0x0 DUP2 DUP2 MSTORE PUSH1 0x2 PUSH1 0x20 SWAP1 DUP2 MSTORE PUSH1 0x40 DUP1 DUP4 KECCAK256 SWAP5 DUP8 AND DUP1 DUP5 MSTORE SWAP5 DUP3 MSTORE SWAP2 DUP3 SWAP1 KECCAK256 DUP6 SWAP1 SSTORE SWAP1 MLOAD DUP5 DUP2 MSTORE PUSH32 0x8C5BE1E5EBEC7D5BD14F71427D1E84F3DD0314C0F7B2291E5B200AC8C7C3B925 SWAP2 ADD JUMPDEST PUSH1 0x40 MLOAD DUP1 SWAP2 SUB SWAP1 LOG3 POP POP POP JUMP JUMPDEST PUSH1 0x1 PUSH1 0x1 PUSH1 0xA0 SHL SUB DUP4 AND PUSH2 0x7C0 JUMPI PUSH1 0x40 MLOAD PUSH3 0x461BCD PUSH1 0xE5 SHL DUP2 MSTORE PUSH1 0x20 PUSH1 0x4 DUP3 ADD MSTORE PUSH1 0x25 PUSH1 0x24 DUP3 ADD MSTORE PUSH32 0x42455032303A207472616E736665722066726F6D20746865207A65726F206164 PUSH1 0x44 DUP3 ADD MSTORE PUSH5 0x6472657373 PUSH1 0xD8 SHL PUSH1 0x64 DUP3 ADD MSTORE PUSH1 0x84 ADD PUSH2 0x46E JUMP JUMPDEST PUSH1 0x1 PUSH1 0x1 PUSH1 0xA0 SHL SUB DUP3 AND PUSH2 0x822 JUMPI PUSH1 0x40 MLOAD PUSH3 0x461BCD PUSH1 0xE5 SHL DUP2 MSTORE PUSH1 0x20 PUSH1 0x4 DUP3 ADD MSTORE PUSH1 0x23 PUSH1 0x24 DUP3 ADD MSTORE PUSH32 0x42455032303A207472616E7366657220746F20746865207A65726F2061646472 PUSH1 0x44 DUP3 ADD MSTORE PUSH3 0x657373 PUSH1 0xE8 SHL PUSH1 0x64 DUP3 ADD MSTORE PUSH1 0x84 ADD PUSH2 0x46E JUMP JUMPDEST PUSH1 0x1 PUSH1 0x1 PUSH1 0xA0 SHL SUB DUP4 AND PUSH1 0x0 SWAP1 DUP2 MSTORE PUSH1 0x1 PUSH1 0x20 MSTORE PUSH1 0x40 SWAP1 KECCAK256 SLOAD DUP2 GT ISZERO PUSH2 0x899 JUMPI PUSH1 0x40 MLOAD PUSH3 0x461BCD PUSH1 0xE5 SHL DUP2 MSTORE PUSH1 0x20 PUSH1 0x4 DUP3 ADD MSTORE PUSH1 0x26 PUSH1 0x24 DUP3 ADD MSTORE PUSH32 0x42455032303A207472616E7366657220616D6F756E7420657863656564732062 PUSH1 0x44 DUP3 ADD MSTORE PUSH6 0x616C616E6365 PUSH1 0xD0 SHL PUSH1 0x64 DUP3 ADD MSTORE PUSH1 0x84 ADD PUSH2 0x46E JUMP JUMPDEST PUSH2 0x8D6 DUP2 PUSH1 0x40 MLOAD DUP1 PUSH1 0x60 ADD PUSH1 0x40 MSTORE DUP1 PUSH1 0x26 DUP2 MSTORE PUSH1 0x20 ADD PUSH2 0xEF8 PUSH1 0x26 SWAP2 CODECOPY PUSH1 0x1 PUSH1 0x1 PUSH1 0xA0 SHL SUB DUP7 AND PUSH1 0x0 SWAP1 DUP2 MSTORE PUSH1 0x1 PUSH1 0x20 MSTORE PUSH1 0x40 SWAP1 KECCAK256 SLOAD SWAP2 SWAP1 PUSH2 0x959 JUMP JUMPDEST PUSH1 0x1 PUSH1 0x1 PUSH1 0xA0 SHL SUB DUP1 DUP6 AND PUSH1 0x0 SWAP1 DUP2 MSTORE PUSH1 0x1 PUSH1 0x20 MSTORE PUSH1 0x40 DUP1 DUP3 KECCAK256 SWAP4 SWAP1 SWAP4 SSTORE SWAP1 DUP5 AND DUP2 MSTORE KECCAK256 SLOAD PUSH2 0x905 SWAP1 DUP3 PUSH2 0x993 JUMP JUMPDEST PUSH1 0x1 PUSH1 0x1 PUSH1 0xA0 SHL SUB DUP1 DUP5 AND PUSH1 0x0 DUP2 DUP2 MSTORE PUSH1 0x1 PUSH1 0x20 MSTORE PUSH1 0x40 SWAP1 DUP2 SWAP1 KECCAK256 SWAP4 SWAP1 SWAP4 SSTORE SWAP2 MLOAD SWAP1 DUP6 AND SWAP1 PUSH32 0xDDF252AD1BE2C89B69C2B068FC378DAA952BA7F163C4A11628F55A4DF523B3EF SWAP1 PUSH2 0x74F SWAP1 DUP6 DUP2 MSTORE PUSH1 0x20 ADD SWAP1 JUMP JUMPDEST PUSH1 0x0 DUP2 DUP5 DUP5 GT ISZERO PUSH2 0x97D JUMPI PUSH1 0x40 MLOAD PUSH3 0x461BCD PUSH1 0xE5 SHL DUP2 MSTORE PUSH1 0x4 ADD PUSH2 0x46E SWAP2 SWAP1 PUSH2 0xCE1 JUMP JUMPDEST POP PUSH1 0x0 PUSH2 0x98A DUP5 DUP7 PUSH2 0xEA0 JUMP JUMPDEST SWAP6 SWAP5 POP POP POP POP POP JUMP JUMPDEST PUSH1 0x0 DUP1 PUSH2 0x9A0 DUP4 DUP6 PUSH2 0xEB7 JUMP JUMPDEST SWAP1 POP DUP4 DUP2 LT ISZERO PUSH2 0x9F2 JUMPI PUSH1 0x40 MLOAD PUSH3 0x461BCD PUSH1 0xE5 SHL DUP2 MSTORE PUSH1 0x20 PUSH1 0x4 DUP3 ADD MSTORE PUSH1 0x1B PUSH1 0x24 DUP3 ADD MSTORE PUSH32 0x536166654D6174683A206164646974696F6E206F766572666C6F770000000000 PUSH1 0x44 DUP3 ADD MSTORE PUSH1 0x64 ADD PUSH2 0x46E JUMP JUMPDEST SWAP4 SWAP3 POP POP POP JUMP JUMPDEST PUSH1 0x1 PUSH1 0x1 PUSH1 0xA0 SHL SUB DUP3 AND PUSH2 0xA59 JUMPI PUSH1 0x40 MLOAD PUSH3 0x461BCD PUSH1 0xE5 SHL DUP2 MSTORE PUSH1 0x20 PUSH1 0x4 DUP3 ADD MSTORE PUSH1 0x21 PUSH1 0x24 DUP3 ADD MSTORE PUSH32 0x42455032303A206275726E2066726F6D20746865207A65726F20616464726573 PUSH1 0x44 DUP3 ADD MSTORE PUSH1 0x73 PUSH1 0xF8 SHL PUSH1 0x64 DUP3 ADD MSTORE PUSH1 0x84 ADD PUSH2 0x46E JUMP JUMPDEST PUSH2 0xA96 DUP2 PUSH1 0x40 MLOAD DUP1 PUSH1 0x60 ADD PUSH1 0x40 MSTORE DUP1 PUSH1 0x22 DUP2 MSTORE PUSH1 0x20 ADD PUSH2 0xF43 PUSH1 0x22 SWAP2 CODECOPY PUSH1 0x1 PUSH1 0x1 PUSH1 0xA0 SHL SUB DUP6 AND PUSH1 0x0 SWAP1 DUP2 MSTORE PUSH1 0x1 PUSH1 0x20 MSTORE PUSH1 0x40 SWAP1 KECCAK256 SLOAD SWAP2 SWAP1 PUSH2 0x959 JUMP JUMPDEST PUSH1 0x1 PUSH1 0x1 PUSH1 0xA0 SHL SUB DUP4 AND PUSH1 0x0 SWAP1 DUP2 MSTORE PUSH1 0x1 PUSH1 0x20 MSTORE PUSH1 0x40 SWAP1 KECCAK256 SSTORE PUSH1 0x3 SLOAD PUSH2 0xABC SWAP1 DUP3 PUSH2 0xC9F JUMP JUMPDEST PUSH1 0x3 SSTORE PUSH1 0x40 MLOAD DUP2 DUP2 MSTORE PUSH1 0x0 SWAP1 PUSH1 0x1 PUSH1 0x1 PUSH1 0xA0 SHL SUB DUP5 AND SWAP1 PUSH32 0xDDF252AD1BE2C89B69C2B068FC378DAA952BA7F163C4A11628F55A4DF523B3EF SWAP1 PUSH1 0x20 ADD JUMPDEST PUSH1 0x40 MLOAD DUP1 SWAP2 SUB SWAP1 LOG3 POP POP JUMP JUMPDEST PUSH1 0x1 PUSH1 0x1 PUSH1 0xA0 SHL SUB DUP3 AND PUSH2 0xB5B JUMPI PUSH1 0x40 MLOAD PUSH3 0x461BCD PUSH1 0xE5 SHL DUP2 MSTORE PUSH1 0x20 PUSH1 0x4 DUP3 ADD MSTORE PUSH1 0x1F PUSH1 0x24 DUP3 ADD MSTORE PUSH32 0x42455032303A206D696E7420746F20746865207A65726F206164647265737300 PUSH1 0x44 DUP3 ADD MSTORE PUSH1 0x64 ADD PUSH2 0x46E JUMP JUMPDEST PUSH1 0x3 SLOAD PUSH2 0xB68 SWAP1 DUP3 PUSH2 0x993 JUMP JUMPDEST PUSH1 0x3 SSTORE PUSH1 0x1 PUSH1 0x1 PUSH1 0xA0 SHL SUB DUP3 AND PUSH1 0x0 SWAP1 DUP2 MSTORE PUSH1 0x1 PUSH1 0x20 MSTORE PUSH1 0x40 SWAP1 KECCAK256 SLOAD PUSH2 0xB8E SWAP1 DUP3 PUSH2 0x993 JUMP JUMPDEST PUSH1 0x1 PUSH1 0x1 PUSH1 0xA0 SHL SUB DUP4 AND PUSH1 0x0 DUP2 DUP2 MSTORE PUSH1 0x1 PUSH1 0x20 MSTORE PUSH1 0x40 DUP1 DUP3 KECCAK256 SWAP4 SWAP1 SWAP4 SSTORE SWAP2 MLOAD SWAP1 SWAP2 SWAP1 PUSH32 0xDDF252AD1BE2C89B69C2B068FC378DAA952BA7F163C4A11628F55A4DF523B3EF SWAP1 PUSH2 0xAF9 SWAP1 DUP6 DUP2 MSTORE PUSH1 0x20 ADD SWAP1 JUMP JUMPDEST PUSH1 0x1 PUSH1 0x1 PUSH1 0xA0 SHL SUB DUP2 AND PUSH2 0xC44 JUMPI PUSH1 0x40 MLOAD PUSH3 0x461BCD PUSH1 0xE5 SHL DUP2 MSTORE PUSH1 0x20 PUSH1 0x4 DUP3 ADD MSTORE PUSH1 0x26 PUSH1 0x24 DUP3 ADD MSTORE PUSH32 0x4F776E61626C653A206E6577206F776E657220697320746865207A65726F2061 PUSH1 0x44 DUP3 ADD MSTORE PUSH6 0x646472657373 PUSH1 0xD0 SHL PUSH1 0x64 DUP3 ADD MSTORE PUSH1 0x84 ADD PUSH2 0x46E JUMP JUMPDEST PUSH1 0x0 DUP1 SLOAD PUSH1 0x40 MLOAD PUSH1 0x1 PUSH1 0x1 PUSH1 0xA0 SHL SUB DUP1 DUP6 AND SWAP4 SWAP3 AND SWAP2 PUSH32 0x8BE0079C531659141344CD1FD0A4F28419497F9722A3DAAFE3B4186F6B6457E0 SWAP2 LOG3 PUSH1 0x0 DUP1 SLOAD PUSH1 0x1 PUSH1 0x1 PUSH1 0xA0 SHL SUB NOT AND PUSH1 0x1 PUSH1 0x1 PUSH1 0xA0 SHL SUB SWAP3 SWAP1 SWAP3 AND SWAP2 SWAP1 SWAP2 OR SWAP1 SSTORE JUMP JUMPDEST PUSH1 0x0 PUSH2 0x9F2 DUP4 DUP4 PUSH1 0x40 MLOAD DUP1 PUSH1 0x40 ADD PUSH1 0x40 MSTORE DUP1 PUSH1 0x1E DUP2 MSTORE PUSH1 0x20 ADD PUSH32 0x536166654D6174683A207375627472616374696F6E206F766572666C6F770000 DUP2 MSTORE POP PUSH2 0x959 JUMP JUMPDEST PUSH1 0x0 PUSH1 0x20 DUP1 DUP4 MSTORE DUP4 MLOAD DUP1 DUP3 DUP6 ADD MSTORE PUSH1 0x0 JUMPDEST DUP2 DUP2 LT ISZERO PUSH2 0xD0E JUMPI DUP6 DUP2 ADD DUP4 ADD MLOAD DUP6 DUP3 ADD PUSH1 0x40 ADD MSTORE DUP3 ADD PUSH2 0xCF2 JUMP JUMPDEST DUP2 DUP2 GT ISZERO PUSH2 0xD20 JUMPI PUSH1 0x0 PUSH1 0x40 DUP4 DUP8 ADD ADD MSTORE JUMPDEST POP PUSH1 0x1F ADD PUSH1 0x1F NOT AND SWAP3 SWAP1 SWAP3 ADD PUSH1 0x40 ADD SWAP4 SWAP3 POP POP POP JUMP JUMPDEST DUP1 CALLDATALOAD PUSH1 0x1 PUSH1 0x1 PUSH1 0xA0 SHL SUB DUP2 AND DUP2 EQ PUSH2 0x505 JUMPI PUSH1 0x0 DUP1 REVERT JUMPDEST PUSH1 0x0 DUP1 PUSH1 0x40 DUP4 DUP6 SUB SLT ISZERO PUSH2 0xD60 JUMPI PUSH1 0x0 DUP1 REVERT JUMPDEST PUSH2 0xD69 DUP4 PUSH2 0xD36 JUMP JUMPDEST SWAP5 PUSH1 0x20 SWAP4 SWAP1 SWAP4 ADD CALLDATALOAD SWAP4 POP POP POP JUMP JUMPDEST PUSH1 0x0 DUP1 PUSH1 0x0 PUSH1 0x60 DUP5 DUP7 SUB SLT ISZERO PUSH2 0xD8C JUMPI PUSH1 0x0 DUP1 REVERT JUMPDEST PUSH2 0xD95 DUP5 PUSH2 0xD36 JUMP JUMPDEST SWAP3 POP PUSH2 0xDA3 PUSH1 0x20 DUP6 ADD PUSH2 0xD36 JUMP JUMPDEST SWAP2 POP PUSH1 0x40 DUP5 ADD CALLDATALOAD SWAP1 POP SWAP3 POP SWAP3 POP SWAP3 JUMP JUMPDEST PUSH1 0x0 PUSH1 0x20 DUP3 DUP5 SUB SLT ISZERO PUSH2 0xDC5 JUMPI PUSH1 0x0 DUP1 REVERT JUMPDEST POP CALLDATALOAD SWAP2 SWAP1 POP JUMP JUMPDEST PUSH1 0x0 PUSH1 0x20 DUP3 DUP5 SUB SLT ISZERO PUSH2 0xDDE JUMPI PUSH1 0x0 DUP1 REVERT JUMPDEST PUSH2 0x9F2 DUP3 PUSH2 0xD36 JUMP JUMPDEST PUSH1 0x0 DUP1 PUSH1 0x40 DUP4 DUP6 SUB SLT ISZERO PUSH2 0xDFA JUMPI PUSH1 0x0 DUP1 REVERT JUMPDEST PUSH2 0xE03 DUP4 PUSH2 0xD36 JUMP JUMPDEST SWAP2 POP PUSH2 0xE11 PUSH1 0x20 DUP5 ADD PUSH2 0xD36 JUMP JUMPDEST SWAP1 POP SWAP3 POP SWAP3 SWAP1 POP JUMP JUMPDEST PUSH1 0x1 DUP2 DUP2 SHR SWAP1 DUP3 AND DUP1 PUSH2 0xE2E JUMPI PUSH1 0x7F DUP3 AND SWAP2 POP JUMPDEST PUSH1 0x20 DUP3 LT DUP2 EQ ISZERO PUSH2 0xE4F JUMPI PUSH4 0x4E487B71 PUSH1 0xE0 SHL PUSH1 0x0 MSTORE PUSH1 0x22 PUSH1 0x4 MSTORE PUSH1 0x24 PUSH1 0x0 REVERT JUMPDEST POP SWAP2 SWAP1 POP JUMP JUMPDEST PUSH1 0x20 DUP1 DUP3 MSTORE DUP2 DUP2 ADD MSTORE PUSH32 0x4F776E61626C653A2063616C6C6572206973206E6F7420746865206F776E6572 PUSH1 0x40 DUP3 ADD MSTORE PUSH1 0x60 ADD SWAP1 JUMP JUMPDEST PUSH4 0x4E487B71 PUSH1 0xE0 SHL PUSH1 0x0 MSTORE PUSH1 0x11 PUSH1 0x4 MSTORE PUSH1 0x24 PUSH1 0x0 REVERT JUMPDEST PUSH1 0x0 DUP3 DUP3 LT ISZERO PUSH2 0xEB2 JUMPI PUSH2 0xEB2 PUSH2 0xE8A JUMP JUMPDEST POP SUB SWAP1 JUMP JUMPDEST PUSH1 0x0 DUP3 NOT DUP3 GT ISZERO PUSH2 0xECA JUMPI PUSH2 0xECA PUSH2 0xE8A JUMP JUMPDEST POP ADD SWAP1 JUMP INVALID TIMESTAMP GASLIMIT POP ORIGIN ADDRESS GASPRICE KECCAK256 PUSH21 0x72616E7366657220616D6F756E7420657863656564 PUSH20 0x20616C6C6F77616E636542455032303A20747261 PUSH15 0x7366657220616D6F756E7420657863 PUSH6 0x656473206261 PUSH13 0x616E636542455032303A206465 PUSH4 0x72656173 PUSH6 0x6420616C6C6F PUSH24 0x616E63652062656C6F77207A65726F42455032303A206275 PUSH19 0x6E20616D6F756E742065786365656473206261 PUSH13 0x616E6365A26469706673582212 KECCAK256 SELFBALANCE 0x4A DUP9 0xCE 0x2F PC 0xC8 0xC 0x5D 0xB5 0xC1 0xF7 SSTORE TIMESTAMP PUSH1 0x40 SLOAD SHR 0xDD DUP16 0xDE 0x26 0xC1 SUB EXTCODECOPY DUP6 0xB0 PUSH28 0x9ED557E264736F6C634300080C003300000000000000000000000000 ",
  "sha1": "705fedcb426a39f680ac14181e77904cb5051c59",
  "source": "/**\n *Submitted for verification at BscScan.com on 2020-09-04\n*/\n// SPDX-License-Identifier: MIT\npragma solidity >0.6.0;\n\ninterface IBEP20 {\n  /**\n   * @dev Returns the amount of tokens in existence.\n   */\n  function totalSupply() external view returns (uint256);\n\n  /**\n   * @dev Returns the token decimals.\n   */\n  function decimals() external view returns (uint8);\n\n  /**\n   * @dev Returns the token symbol.\n   */\n  function symbol() external view returns (string memory);\n\n  /**\n  * @dev Returns the token name.\n  */\n  function name() external view returns (string memory);\n\n  /**\n   * @dev Returns the bep token owner.\n   */\n  function getOwner() external view returns (address);\n\n  /**\n   * @dev Returns the amount of tokens owned by `account`.\n   */\n  function balanceOf(address account) external view returns (uint256);\n\n  /**\n   * @dev Moves `amount` tokens from the caller's account to `recipient`.\n   *\n   * Returns a boolean value indicating whether the operation succeeded.\n   *\n   * Emits a {Transfer} event.\n   */\n  function transfer(address recipient, uint256 amount) external returns (bool);\n\n  /**\n   * @dev Returns the remaining number of tokens that `spender` will be\n   * allowed to spend on behalf of `owner` through {transferFrom}. This is\n   * zero by default.\n   *\n   * This value changes when {approve} or {transferFrom} are called.\n   */\n  function allowance(address _owner, address spender) external view returns (uint256);\n\n  /**\n   * @dev Sets `amount` as the allowance of `spender` over the caller's tokens.\n   *\n   * Returns a boolean value indicating whether the operation succeeded.\n   *\n   * IMPORTANT: Beware that changing an allowance with this method brings the risk\n   * that someone may use both the old and the new allowance by unfortunate\n   * transaction ordering. One possible solution to mitigate this race\n   * condition is to first reduce the spender's allowance to 0 and set the\n   * desired value afterwards:\n   * https://github.com/ethereum/EIPs/issues/20#issuecomment-263524729\n   *\n   * Emits an {Approval} event.\n   */\n  function approve(address spender, uint256 amount) external returns (bool);\n\n  /**\n   * @dev Moves `amount` tokens from `sender` to `recipient` using the\n   * allowance mechanism. `amount` is then deducted from the caller's\n   * allowance.\n   *\n   * Returns a boolean value indicating whether the operation succeeded.\n   *\n   * Emits a {Transfer} event.\n   */\n  function transferFrom(address sender, address recipient, uint256 amount) external returns (bool);\n\n  /**\n   * @dev Emitted when `value` tokens are moved from one account (`from`) to\n   * another (`to`).\n   *\n   * Note that `value` may be zero.\n   */\n  event Transfer(address indexed from, address indexed to, uint256 value);\n\n  /**\n   * @dev Emitted when the allowance of a `spender` for an `owner` is set by\n   * a call to {approve}. `value` is the new allowance.\n   */\n  event Approval(address indexed owner, address indexed spender, uint256 value);\n}\n\n/*\n * @dev Provides information about the current execution context, including the\n * sender of the transaction and its data. While these are generally available\n * via msg.sender and msg.data, they should not be accessed in such a direct\n * manner, since when dealing with GSN meta-transactions the account sending and\n * paying for execution may not be the actual sender (as far as an application\n * is concerned).\n *\n * This contract is only required for intermediate, library-like contracts.\n */\ncontract Context {\n  // Empty internal constructor, to prevent people from mistakenly deploying\n  // an instance of this contract, which should be used via inheritance.\n  constructor ()  { }\n\n  function _msgSender() internal view returns (address) {\n    return payable(msg.sender);\n  }\n\n  function _msgData() internal view returns (bytes memory) {\n    this; // silence state mutability warning without generating bytecode - see https://github.com/ethereum/solidity/issues/2691\n    return msg.data;\n  }\n}\n\n/**\n * @dev Wrappers over Solidity's arithmetic operations with added overflow\n * checks.\n *\n * Arithmetic operations in Solidity wrap on overflow. This can easily result\n * in bugs, because programmers usually assume that an overflow raises an\n * error, which is the standard behavior in high level programming languages.\n * `SafeMath` restores this intuition by reverting the transaction when an\n * operation overflows.\n *\n * Using this library instead of the unchecked operations eliminates an entire\n * class of bugs, so it's recommended to use it always.\n */\nlibrary SafeMath {\n  /**\n   * @dev Returns the addition of two unsigned integers, reverting on\n   * overflow.\n   *\n   * Counterpart to Solidity's `+` operator.\n   *\n   * Requirements:\n   * - Addition cannot overflow.\n   */\n  function add(uint256 a, uint256 b) internal pure returns (uint256) {\n    uint256 c = a + b;\n    require(c >= a, \"SafeMath: addition overflow\");\n\n    return c;\n  }\n\n  /**\n   * @dev Returns the subtraction of two unsigned integers, reverting on\n   * overflow (when the result is negative).\n   *\n   * Counterpart to Solidity's `-` operator.\n   *\n   * Requirements:\n   * - Subtraction cannot overflow.\n   */\n  function sub(uint256 a, uint256 b) internal pure returns (uint256) {\n    return sub(a, b, \"SafeMath: subtraction overflow\");\n  }\n\n  /**\n   * @dev Returns the subtraction of two unsigned integers, reverting with custom message on\n   * overflow (when the result is negative).\n   *\n   * Counterpart to Solidity's `-` operator.\n   *\n   * Requirements:\n   * - Subtraction cannot overflow.\n   */\n  function sub(uint256 a, uint256 b, string memory errorMessage) internal pure returns (uint256) {\n    require(b <= a, errorMessage);\n    uint256 c = a - b;\n\n    return c;\n  }\n\n  /**\n   * @dev Returns the multiplication of two unsigned integers, reverting on\n   * overflow.\n   *\n   * Counterpart to Solidity's `*` operator.\n   *\n   * Requirements:\n   * - Multiplication cannot overflow.\n   */\n  function mul(uint256 a, uint256 b) internal pure returns (uint256) {\n    // Gas optimization: this is cheaper than requiring 'a' not being zero, but the\n    // benefit is lost if 'b' is also tested.\n    // See: https://github.com/OpenZeppelin/openzeppelin-contracts/pull/522\n    if (a == 0) {\n      return 0;\n    }\n\n    uint256 c = a * b;\n    require(c / a == b, \"SafeMath: multiplication overflow\");\n\n    return c;\n  }\n\n  /**\n   * @dev Returns the integer division of two unsigned integers. Reverts on\n   * division by zero. The result is rounded towards zero.\n   *\n   * Counterpart to Solidity's `/` operator. Note: this function uses a\n   * `revert` opcode (which leaves remaining gas untouched) while Solidity\n   * uses an invalid opcode to revert (consuming all remaining gas).\n   *\n   * Requirements:\n   * - The divisor cannot be zero.\n   */\n  function div(uint256 a, uint256 b) internal pure returns (uint256) {\n    return div(a, b, \"SafeMath: division by zero\");\n  }\n\n  /**\n   * @dev Returns the integer division of two unsigned integers. Reverts with custom message on\n   * division by zero. The result is rounded towards zero.\n   *\n   * Counterpart to Solidity's `/` operator. Note: this function uses a\n   * `revert` opcode (which leaves remaining gas untouched) while Solidity\n   * uses an invalid opcode to revert (consuming all remaining gas).\n   *\n   * Requirements:\n   * - The divisor cannot be zero.\n   */\n  function div(uint256 a, uint256 b, string memory errorMessage) internal pure returns (uint256) {\n    // Solidity only automatically asserts when dividing by 0\n    require(b > 0, errorMessage);\n    uint256 c = a / b;\n    // assert(a == b * c + a % b); // There is no case in which this doesn't hold\n\n    return c;\n  }\n\n  /**\n   * @dev Returns the remainder of dividing two unsigned integers. (unsigned integer modulo),\n   * Reverts when dividing by zero.\n   *\n   * Counterpart to Solidity's `%` operator. This function uses a `revert`\n   * opcode (which leaves remaining gas untouched) while Solidity uses an\n   * invalid opcode to revert (consuming all remaining gas).\n   *\n   * Requirements:\n   * - The divisor cannot be zero.\n   */\n  function mod(uint256 a, uint256 b) internal pure returns (uint256) {\n    return mod(a, b, \"SafeMath: modulo by zero\");\n  }\n\n  /**\n   * @dev Returns the remainder of dividing two unsigned integers. (unsigned integer modulo),\n   * Reverts with custom message when dividing by zero.\n   *\n   * Counterpart to Solidity's `%` operator. This function uses a `revert`\n   * opcode (which leaves remaining gas untouched) while Solidity uses an\n   * invalid opcode to revert (consuming all remaining gas).\n   *\n   * Requirements:\n   * - The divisor cannot be zero.\n   */\n  function mod(uint256 a, uint256 b, string memory errorMessage) internal pure returns (uint256) {\n    require(b != 0, errorMessage);\n    return a % b;\n  }\n}\n\n/**\n * @dev Contract module which provides a basic access control mechanism, where\n * there is an account (an owner) that can be granted exclusive access to\n * specific functions.\n *\n * By default, the owner account will be the one that deploys the contract. This\n * can later be changed with {transferOwnership}.\n *\n * This module is used through inheritance. It will make available the modifier\n * `onlyOwner`, which can be applied to your functions to restrict their use to\n * the owner.\n */\ncontract Ownable is Context {\n  address private _owner;\n\n  event OwnershipTransferred(address indexed previousOwner, address indexed newOwner);\n\n  /**\n   * @dev Initializes the contract setting the deployer as the initial owner.\n   */\n  constructor () {\n    address msgSender = _msgSender();\n    _owner = msgSender;\n    emit OwnershipTransferred(address(0), msgSender);\n  }\n\n  /**\n   * @dev Returns the address of the current owner.\n   */\n  function owner() public view returns (address) {\n    return _owner;\n  }\n\n  /**\n   * @dev Throws if called by any account other than the owner.\n   */\n  modifier onlyOwner() {\n    require(_owner == _msgSender(), \"Ownable: caller is not the owner\");\n    _;\n  }\n\n  /**\n   * @dev Leaves the contract without owner. It will not be possible to call\n   * `onlyOwner` functions anymore. Can only be called by the current owner.\n   *\n   * NOTE: Renouncing ownership will leave the contract without an owner,\n   * thereby removing any functionality that is only available to the owner.\n   */\n  function renounceOwnership() public onlyOwner {\n    emit OwnershipTransferred(_owner, address(0));\n    _owner = address(0);\n  }\n\n  /**\n   * @dev Transfers ownership of the contract to a new account (`newOwner`).\n   * Can only be called by the current owner.\n   */\n  function transferOwnership(address newOwner) public onlyOwner {\n    _transferOwnership(newOwner);\n  }\n\n  /**\n   * @dev Transfers ownership of the contract to a new account (`newOwner`).\n   */\n  function _transferOwnership(address newOwner) internal {\n    require(newOwner != address(0), \"Ownable: new owner is the zero address\");\n    emit OwnershipTransferred(_owner, newOwner);\n    _owner = newOwner;\n  }\n}\n\ncontract USDT is Context, IBEP20, Ownable {\n  using SafeMath for uint256;\n\n  mapping (address => uint256) private _balances;\n\n  mapping (address => mapping (address => uint256)) private _allowances;\n\n  uint256 private _totalSupply;\n  uint8 public _decimals;\n  string public _symbol;\n  string public _name;\n\n  constructor() {\n    _name = \"Tether USD\";\n    _symbol = \"USDT\";\n    _decimals = 18;\n    // TOMI TEST ONLY\n    _totalSupply = 300_000_000 * (10 ** _decimals);\n    _balances[0x5e078E6b545cF88aBD5BB58d27488eF8BE0D2593] = _totalSupply; // Deploy the Madcoin token first then get the address and paste it here.\n\n    emit Transfer(address(0), msg.sender, _totalSupply);\n  }\n\n  /**\n   * @dev Returns the bep token owner.\n   */\n  function getOwner() override external view returns (address) {\n    return owner();\n  }\n\n  /**\n   * @dev Returns the token decimals.\n   */\n  function decimals() override external view returns (uint8) {\n    return _decimals;\n  }\n\n  /**\n   * @dev Returns the token symbol.\n   */\n  function symbol() override external view returns (string memory) {\n    return _symbol;\n  }\n\n  /**\n  * @dev Returns the token name.\n  */\n  function name() override external view returns (string memory) {\n    return _name;\n  }\n\n  /**\n   * @dev See {BEP20-totalSupply}.\n   */\n  function totalSupply() override external view returns (uint256) {\n    return _totalSupply;\n  }\n\n  /**\n   * @dev See {BEP20-balanceOf}.\n   */\n  function balanceOf(address account) override external view returns (uint256) {\n    return _balances[account];\n  }\n\n  /**\n   * @dev See {BEP20-transfer}.\n   *\n   * Requirements:\n   *\n   * - `recipient` cannot be the zero address.\n   * - the caller must have a balance of at least `amount`.\n   */\n  function transfer(address recipient, uint256 amount) override external returns (bool) {\n    _transfer(_msgSender(), recipient, amount);\n    return true;\n  }\n\n  /**\n   * @dev See {BEP20-allowance}.\n   */\n  function allowance(address owner, address spender) override external view returns (uint256) {\n    return _allowances[owner][spender];\n  }\n\n  /**\n   * @dev See {BEP20-approve}.\n   *\n   * Requirements:\n   *\n   * - `spender` cannot be the zero address.\n   */\n  function approve(address spender, uint256 amount) override external returns (bool) {\n    _approve(_msgSender(), spender, amount);\n    return true;\n  }\n\n  /**\n   * @dev See {BEP20-transferFrom}.\n   *\n   * Emits an {Approval} event indicating the updated allowance. This is not\n   * required by the EIP. See the note at the beginning of {BEP20};\n   *\n   * Requirements:\n   * - `sender` and `recipient` cannot be the zero address.\n   * - `sender` must have a balance of at least `amount`.\n   * - the caller must have allowance for `sender`'s tokens of at least\n   * `amount`.\n   */\n  function transferFrom(address sender, address recipient, uint256 amount) override external returns (bool) {\n    _transfer(sender, recipient, amount);\n    _approve(sender, _msgSender(), _allowances[sender][_msgSender()].sub(amount, \"BEP20: transfer amount exceeds allowance\"));\n    return true;\n  }\n\n  /**\n   * @dev Atomically increases the allowance granted to `spender` by the caller.\n   *\n   * This is an alternative to {approve} that can be used as a mitigation for\n   * problems described in {BEP20-approve}.\n   *\n   * Emits an {Approval} event indicating the updated allowance.\n   *\n   * Requirements:\n   *\n   * - `spender` cannot be the zero address.\n   */\n  function increaseAllowance(address spender, uint256 addedValue) public returns (bool) {\n    _approve(_msgSender(), spender, _allowances[_msgSender()][spender].add(addedValue));\n    return true;\n  }\n\n  /**\n   * @dev Atomically decreases the allowance granted to `spender` by the caller.\n   *\n   * This is an alternative to {approve} that can be used as a mitigation for\n   * problems described in {BEP20-approve}.\n   *\n   * Emits an {Approval} event indicating the updated allowance.\n   *\n   * Requirements:\n   *\n   * - `spender` cannot be the zero address.\n   * - `spender` must have allowance for the caller of at least\n   * `subtractedValue`.\n   */\n  function decreaseAllowance(address spender, uint256 subtractedValue) public returns (bool) {\n    _approve(_msgSender(), spender, _allowances[_msgSender()][spender].sub(subtractedValue, \"BEP20: decreased allowance below zero\"));\n    return true;\n  }\n\n  /**\n   * @dev Creates `amount` tokens and assigns them to `msg.sender`, increasing\n   * the total supply.\n   *\n   * Requirements\n   *\n   * - `msg.sender` must be the token owner\n   */\n  function mint(uint256 amount) public onlyOwner returns (bool) {\n    _mint(_msgSender(), amount);\n    return true;\n  }\n\n  /**\n   * @dev Burn `amount` tokens and decreasing the total supply.\n   */\n  function burn(uint256 amount) public returns (bool) {\n    _burn(_msgSender(), amount);\n    return true;\n  }\n\n  /**\n   * @dev Moves tokens `amount` from `sender` to `recipient`.\n   *\n   * This is internal function is equivalent to {transfer}, and can be used to\n   * e.g. implement automatic token fees, slashing mechanisms, etc.\n   *\n   * Emits a {Transfer} event.\n   *\n   * Requirements:\n   *\n   * - `sender` cannot be the zero address.\n   * - `recipient` cannot be the zero address.\n   * - `sender` must have a balance of at least `amount`.\n   */\n  function _transfer(address sender, address recipient, uint256 amount) internal {\n    require(sender != address(0), \"BEP20: transfer from the zero address\");\n    require(recipient != address(0), \"BEP20: transfer to the zero address\");\n    require(_balances[sender] >= amount, \"BEP20: transfer amount exceeds balance\");\n\n    _balances[sender] = _balances[sender].sub(amount, \"BEP20: transfer amount exceeds balance\");\n    _balances[recipient] = _balances[recipient].add(amount);\n    emit Transfer(sender, recipient, amount);\n  }\n\n  /** @dev Creates `amount` tokens and assigns them to `account`, increasing\n   * the total supply.\n   *\n   * Emits a {Transfer} event with `from` set to the zero address.\n   *\n   * Requirements\n   *\n   * - `to` cannot be the zero address.\n   */\n  function _mint(address account, uint256 amount) internal {\n    require(account != address(0), \"BEP20: mint to the zero address\");\n\n    _totalSupply = _totalSupply.add(amount);\n    _balances[account] = _balances[account].add(amount);\n    emit Transfer(address(0), account, amount);\n  }\n\n  /**\n   * @dev Destroys `amount` tokens from `account`, reducing the\n   * total supply.\n   *\n   * Emits a {Transfer} event with `to` set to the zero address.\n   *\n   * Requirements\n   *\n   * - `account` cannot be the zero address.\n   * - `account` must have at least `amount` tokens.\n   */\n  function _burn(address account, uint256 amount) internal {\n    require(account != address(0), \"BEP20: burn from the zero address\");\n\n    _balances[account] = _balances[account].sub(amount, \"BEP20: burn amount exceeds balance\");\n    _totalSupply = _totalSupply.sub(amount);\n    emit Transfer(account, address(0), amount);\n  }\n\n  /**\n   * @dev Sets `amount` as the allowance of `spender` over the `owner`s tokens.\n   *\n   * This is internal function is equivalent to `approve`, and can be used to\n   * e.g. set automatic allowances for certain subsystems, etc.\n   *\n   * Emits an {Approval} event.\n   *\n   * Requirements:\n   *\n   * - `owner` cannot be the zero address.\n   * - `spender` cannot be the zero address.\n   */\n  function _approve(address owner, address spender, uint256 amount) internal {\n    require(owner != address(0), \"BEP20: approve from the zero address\");\n    require(spender != address(0), \"BEP20: approve to the zero address\");\n\n    _allowances[owner][spender] = amount;\n    emit Approval(owner, spender, amount);\n  }\n\n  /**\n   * @dev Destroys `amount` tokens from `account`.`amount` is then deducted\n   * from the caller's allowance.\n   *\n   * See {_burn} and {_approve}.\n   */\n  function _burnFrom(address account, uint256 amount) internal {\n    _burn(account, amount);\n    _approve(account, _msgSender(), _allowances[account][_msgSender()].sub(amount, \"BEP20: burn amount exceeds allowance\"));\n  }\n}",
  "sourcePath": "contracts/USDT.sol",
  "type": "contract"
}