{
  "abi": [
    {
      "inputs": [
        {
          "internalType": "address",
          "name": "_nft_address",
          "type": "address"
        },
        {
          "internalType": "uint256",
          "name": "_nft_id",
          "type": "uint256"
        }
      ],
      "stateMutability": "payable",
      "type": "constructor"
    },
    {
      "stateMutability": "payable",
      "type": "fallback"
    },
    {
      "inputs": [],
      "name": "buy",
      "outputs": [],
      "stateMutability": "payable",
      "type": "function"
    },
    {
      "stateMutability": "payable",
      "type": "receive"
    }
  ],
  "bytecode": "60806040819052600180546001600160401b03191662093a8017905561041138819003908190833981016040819052610037916100a8565b600580546001600160a01b0390931661010002610100600160a81b03199093169290921790915560065534600755600880546001600160a01b0319163317905566038d7ea4c680006009554260038190556000556001805460ff60401b1916680100000000000000001790556100e2565b600080604083850312156100bb57600080fd5b82516001600160a01b03811681146100d257600080fd5b6020939093015192949293505050565b610320806100f16000396000f3fe60806040526004361061001f5760003560e01c8063a6f2ae3a1461002857005b3661002657005b005b61002660015468010000000000000000900460ff1661007b5760405162461bcd60e51b815260206004820152600a602482015269109a590818db1bdcd95960b21b60448201526064015b60405180910390fd5b60006100856101f6565b905061008f61025b565b6100db5760405162461bcd60e51b815260206004820181905260248201527f4269642063616e74206265206d616465206279207468697320616464726573736044820152606401610072565b803410156101215760405162461bcd60e51b81526020600482015260136024820152722134b2101e1029ba30b93a34b733903134b21760691b6044820152606401610072565b6005546008546006546040516323b872dd60e01b81526001600160a01b039283166004820152336024820152604481019190915261010090920416906323b872dd90606401600060405180830381600087803b15801561018057600080fd5b505af1158015610194573d6000803e3d6000fd5b50505050600081346101a69190610292565b905080156101dd57604051339082156108fc029083906000818181858888f193505050501580156101db573d6000803e3d6000fd5b505b5050600880546001600160a01b03191690556000600655565b600080600354426102079190610292565b90506002548161021791906102a9565b60095461022491906102cb565b60048190556007541161023b57600060075561024f565b60045460075461024b9190610292565b6007555b50504260035560045490565b6000331580159061027757506008546001600160a01b03163314155b905090565b634e487b7160e01b600052601160045260246000fd5b6000828210156102a4576102a461027c565b500390565b6000826102c657634e487b7160e01b600052601260045260246000fd5b500490565b60008160001904831182151516156102e5576102e561027c565b50029056fea264697066735822122089856e498a020486367f4312785da5b31460330d1e305699a257902d2df264a964736f6c634300080c0033",
  "bytecodeSha1": "159579a260ddb9a590d79138b6dcaa760d77a5d7",
  "compiler": {
    "evm_version": "istanbul",
    "optimizer": {
      "enabled": true,
      "runs": 200
    },
    "version": "0.8.12+commit.f00d7308"
  },
  "contractName": "DutchAuction",
  "language": "Solidity",
  "natspec": {
    "kind": "dev",
    "methods": {},
    "version": 1
  },
  "opcodes": "PUSH1 0x80 PUSH1 0x40 MSTORE PUSH1 0x4 CALLDATASIZE LT PUSH2 0x1F JUMPI PUSH1 0x0 CALLDATALOAD PUSH1 0xE0 SHR DUP1 PUSH4 0xA6F2AE3A EQ PUSH2 0x28 JUMPI STOP JUMPDEST CALLDATASIZE PUSH2 0x26 JUMPI STOP JUMPDEST STOP JUMPDEST PUSH2 0x26 PUSH1 0x1 SLOAD PUSH9 0x10000000000000000 SWAP1 DIV PUSH1 0xFF AND PUSH2 0x7B JUMPI PUSH1 0x40 MLOAD PUSH3 0x461BCD PUSH1 0xE5 SHL DUP2 MSTORE PUSH1 0x20 PUSH1 0x4 DUP3 ADD MSTORE PUSH1 0xA PUSH1 0x24 DUP3 ADD MSTORE PUSH10 0x109A590818DB1BDCD959 PUSH1 0xB2 SHL PUSH1 0x44 DUP3 ADD MSTORE PUSH1 0x64 ADD JUMPDEST PUSH1 0x40 MLOAD DUP1 SWAP2 SUB SWAP1 REVERT JUMPDEST PUSH1 0x0 PUSH2 0x85 PUSH2 0x1F6 JUMP JUMPDEST SWAP1 POP PUSH2 0x8F PUSH2 0x25B JUMP JUMPDEST PUSH2 0xDB JUMPI PUSH1 0x40 MLOAD PUSH3 0x461BCD PUSH1 0xE5 SHL DUP2 MSTORE PUSH1 0x20 PUSH1 0x4 DUP3 ADD DUP2 SWAP1 MSTORE PUSH1 0x24 DUP3 ADD MSTORE PUSH32 0x4269642063616E74206265206D61646520627920746869732061646472657373 PUSH1 0x44 DUP3 ADD MSTORE PUSH1 0x64 ADD PUSH2 0x72 JUMP JUMPDEST DUP1 CALLVALUE LT ISZERO PUSH2 0x121 JUMPI PUSH1 0x40 MLOAD PUSH3 0x461BCD PUSH1 0xE5 SHL DUP2 MSTORE PUSH1 0x20 PUSH1 0x4 DUP3 ADD MSTORE PUSH1 0x13 PUSH1 0x24 DUP3 ADD MSTORE PUSH19 0x2134B2101E1029BA30B93A34B733903134B217 PUSH1 0x69 SHL PUSH1 0x44 DUP3 ADD MSTORE PUSH1 0x64 ADD PUSH2 0x72 JUMP JUMPDEST PUSH1 0x5 SLOAD PUSH1 0x8 SLOAD PUSH1 0x6 SLOAD PUSH1 0x40 MLOAD PUSH4 0x23B872DD PUSH1 0xE0 SHL DUP2 MSTORE PUSH1 0x1 PUSH1 0x1 PUSH1 0xA0 SHL SUB SWAP3 DUP4 AND PUSH1 0x4 DUP3 ADD MSTORE CALLER PUSH1 0x24 DUP3 ADD MSTORE PUSH1 0x44 DUP2 ADD SWAP2 SWAP1 SWAP2 MSTORE PUSH2 0x100 SWAP1 SWAP3 DIV AND SWAP1 PUSH4 0x23B872DD SWAP1 PUSH1 0x64 ADD PUSH1 0x0 PUSH1 0x40 MLOAD DUP1 DUP4 SUB DUP2 PUSH1 0x0 DUP8 DUP1 EXTCODESIZE ISZERO DUP1 ISZERO PUSH2 0x180 JUMPI PUSH1 0x0 DUP1 REVERT JUMPDEST POP GAS CALL ISZERO DUP1 ISZERO PUSH2 0x194 JUMPI RETURNDATASIZE PUSH1 0x0 DUP1 RETURNDATACOPY RETURNDATASIZE PUSH1 0x0 REVERT JUMPDEST POP POP POP POP PUSH1 0x0 DUP2 CALLVALUE PUSH2 0x1A6 SWAP2 SWAP1 PUSH2 0x292 JUMP JUMPDEST SWAP1 POP DUP1 ISZERO PUSH2 0x1DD JUMPI PUSH1 0x40 MLOAD CALLER SWAP1 DUP3 ISZERO PUSH2 0x8FC MUL SWAP1 DUP4 SWAP1 PUSH1 0x0 DUP2 DUP2 DUP2 DUP6 DUP9 DUP9 CALL SWAP4 POP POP POP POP ISZERO DUP1 ISZERO PUSH2 0x1DB JUMPI RETURNDATASIZE PUSH1 0x0 DUP1 RETURNDATACOPY RETURNDATASIZE PUSH1 0x0 REVERT JUMPDEST POP JUMPDEST POP POP PUSH1 0x8 DUP1 SLOAD PUSH1 0x1 PUSH1 0x1 PUSH1 0xA0 SHL SUB NOT AND SWAP1 SSTORE PUSH1 0x0 PUSH1 0x6 SSTORE JUMP JUMPDEST PUSH1 0x0 DUP1 PUSH1 0x3 SLOAD TIMESTAMP PUSH2 0x207 SWAP2 SWAP1 PUSH2 0x292 JUMP JUMPDEST SWAP1 POP PUSH1 0x2 SLOAD DUP2 PUSH2 0x217 SWAP2 SWAP1 PUSH2 0x2A9 JUMP JUMPDEST PUSH1 0x9 SLOAD PUSH2 0x224 SWAP2 SWAP1 PUSH2 0x2CB JUMP JUMPDEST PUSH1 0x4 DUP2 SWAP1 SSTORE PUSH1 0x7 SLOAD GT PUSH2 0x23B JUMPI PUSH1 0x0 PUSH1 0x7 SSTORE PUSH2 0x24F JUMP JUMPDEST PUSH1 0x4 SLOAD PUSH1 0x7 SLOAD PUSH2 0x24B SWAP2 SWAP1 PUSH2 0x292 JUMP JUMPDEST PUSH1 0x7 SSTORE JUMPDEST POP POP TIMESTAMP PUSH1 0x3 SSTORE PUSH1 0x4 SLOAD SWAP1 JUMP JUMPDEST PUSH1 0x0 CALLER ISZERO DUP1 ISZERO SWAP1 PUSH2 0x277 JUMPI POP PUSH1 0x8 SLOAD PUSH1 0x1 PUSH1 0x1 PUSH1 0xA0 SHL SUB AND CALLER EQ ISZERO JUMPDEST SWAP1 POP SWAP1 JUMP JUMPDEST PUSH4 0x4E487B71 PUSH1 0xE0 SHL PUSH1 0x0 MSTORE PUSH1 0x11 PUSH1 0x4 MSTORE PUSH1 0x24 PUSH1 0x0 REVERT JUMPDEST PUSH1 0x0 DUP3 DUP3 LT ISZERO PUSH2 0x2A4 JUMPI PUSH2 0x2A4 PUSH2 0x27C JUMP JUMPDEST POP SUB SWAP1 JUMP JUMPDEST PUSH1 0x0 DUP3 PUSH2 0x2C6 JUMPI PUSH4 0x4E487B71 PUSH1 0xE0 SHL PUSH1 0x0 MSTORE PUSH1 0x12 PUSH1 0x4 MSTORE PUSH1 0x24 PUSH1 0x0 REVERT JUMPDEST POP DIV SWAP1 JUMP JUMPDEST PUSH1 0x0 DUP2 PUSH1 0x0 NOT DIV DUP4 GT DUP3 ISZERO ISZERO AND ISZERO PUSH2 0x2E5 JUMPI PUSH2 0x2E5 PUSH2 0x27C JUMP JUMPDEST POP MUL SWAP1 JUMP INVALID LOG2 PUSH5 0x6970667358 0x22 SLT KECCAK256 DUP10 DUP6 PUSH15 0x498A020486367F4312785DA5B31460 CALLER 0xD 0x1E ADDRESS JUMP SWAP10 LOG2 JUMPI SWAP1 0x2D 0x2D CALLCODE PUSH5 0xA964736F6C PUSH4 0x4300080C STOP CALLER ",
  "sha1": "4cf06a0340b598554c69d95db591b94e84e9d699",
  "source": "// SPDX-License-Identifier: MIT\npragma solidity >0.6.0;\n\nimport \"./Interfaces/IERC721.sol\";\nimport \"./Interfaces/SafeMath.sol\";\n\n/*\n * @title: DutchAuction Smart Contract.\n * @author: Anthony (fps) https://github.com/fps8k .\n * @dev: Reference [README.md].\n * @notice: Same as Auction [reference ./ Auction/Auction.sol] but with some differences.\n*/\n\ncontract DutchAuction\n{\n    using SafeMath for uint256;\n\n    // Creating necessary state variables.\n    // Time of deployment and time span of the bidding and the time of the last depreciation.\n\n    uint256 private deploy_time;\n    uint64 private bid_time_span = 7 days;\n    bool private still_bidding;\n    uint private interval_for_depreciation;\n    uint private last_depreciation;\n    uint private price_gone;\n    bool locked;\n    \n\n\n    // NFT Details for constructor.\n\n    IERC721 private nft;\n    uint256 private nft_id;\n    uint256 private starting_bid;\n    address private seller;\n    uint private depreciation;\n\n\n    constructor(address _nft_address, uint256 _nft_id) payable\n    {\n        nft = IERC721(_nft_address);\n        nft_id = _nft_id;\n        starting_bid = msg.value;\n        seller = msg.sender;\n        depreciation = 1_000_000 gwei;\n        // interval_for_depreciation = 1 days;\n        last_depreciation = block.timestamp;\n\n        deploy_time = block.timestamp;\n        still_bidding = true;\n    }\n\n    fallback() payable external {}\n    receive() payable external {}\n\n\n    /* \n    * @dev:\n    * {bid()} function allows the caller to make a fresh bid.\n    *\n    * Conditions:\n    * - Caller cannot be a 0 address.\n    * - Caller cannot be the `seller` of the token.\n    * - `msg.value` must be greater than the `starting_bid`.\n    * - It must be still the validity of the bid.\n    * - `msg.value` sent for the bid, must be unique.\n    *\n    * - If the new bid is higher than the current highest bid, then, it replaces the value.\n    */\n    // 0x5B38Da6a701c568545dCfcB03FcB875f56beddC4, 34\n\n    function checkAddress() internal view returns(bool)\n    {\n        return (msg.sender != address(0)) && ((msg.sender != seller));\n    }\n\n    \n    function getPrice() internal returns(uint256)\n    {\n        uint time_gone = block.timestamp - last_depreciation;\n\n        price_gone = depreciation * (time_gone / interval_for_depreciation); // 10 gwei * (100secs/10secs)\n\n        if(price_gone >= starting_bid)\n        {\n            starting_bid = 0;\n        }\n        else\n        {\n            starting_bid = starting_bid - price_gone;\n        }\n\n        last_depreciation = block.timestamp;\n        \n        return price_gone;\n    }\n    \n\n    function buy() public payable\n    {\n        \n        require(still_bidding, \"Bid closed\");\n\n        uint price = getPrice(); // to renew prices;\n\n        require(checkAddress(), \"Bid cant be made by this address\");\n        require(msg.value >= price, \"Bid < Starting bid.\");\n\n        nft.transferFrom(seller, msg.sender, nft_id);\n\n        uint refund = msg.value - price;\n\n        if(refund > 0)\n        {\n            payable(msg.sender).transfer(refund);\n        }\n\n        seller = address(0);\n        nft_id = 0;\n    }\n}",
  "sourcePath": "contracts/DutchAuction.sol",
  "type": "contract"
}