{"abi":[{"inputs":[],"stateMutability":"nonpayable","type":"constructor","name":"constructor"},{"anonymous":false,"inputs":[{"indexed":true,"internalType":"address","name":"owner","type":"address"},{"indexed":true,"internalType":"address","name":"approved","type":"address"},{"indexed":true,"internalType":"uint256","name":"tokenId","type":"uint256"}],"name":"Approval","type":"event"},{"anonymous":false,"inputs":[{"indexed":true,"internalType":"address","name":"owner","type":"address"},{"indexed":true,"internalType":"address","name":"operator","type":"address"},{"indexed":false,"internalType":"bool","name":"approved","type":"bool"}],"name":"ApprovalForAll","type":"event"},{"anonymous":false,"inputs":[{"indexed":true,"internalType":"address","name":"from","type":"address"},{"indexed":true,"internalType":"address","name":"to","type":"address"},{"indexed":true,"internalType":"uint256","name":"tokenId","type":"uint256"}],"name":"Transfer","type":"event"},{"inputs":[{"internalType":"address","name":"to","type":"address"},{"internalType":"uint256","name":"tokenId","type":"uint256"}],"name":"approve","outputs":[],"stateMutability":"nonpayable","type":"function"},{"inputs":[{"internalType":"address","name":"owner","type":"address"}],"name":"balanceOf","outputs":[{"internalType":"uint256","name":"","type":"uint256"}],"stateMutability":"view","type":"function"},{"inputs":[{"internalType":"uint256","name":"tokenId","type":"uint256"}],"name":"burn","outputs":[],"stateMutability":"nonpayable","type":"function"},{"inputs":[{"internalType":"uint256","name":"tokenId","type":"uint256"}],"name":"getApproved","outputs":[{"internalType":"address","name":"","type":"address"}],"stateMutability":"view","type":"function"},{"inputs":[{"internalType":"uint256","name":"tokenId","type":"uint256"}],"name":"getURL","outputs":[{"internalType":"string","name":"","type":"string"}],"stateMutability":"view","type":"function"},{"inputs":[{"internalType":"address","name":"owner","type":"address"},{"internalType":"address","name":"operator","type":"address"}],"name":"isApprovedForAll","outputs":[{"internalType":"bool","name":"","type":"bool"}],"stateMutability":"view","type":"function"},{"inputs":[{"internalType":"uint256","name":"tokenId","type":"uint256"}],"name":"mint","outputs":[],"stateMutability":"nonpayable","type":"function"},{"inputs":[],"name":"name","outputs":[{"internalType":"string","name":"","type":"string"}],"stateMutability":"view","type":"function"},{"inputs":[{"internalType":"address","name":"operator","type":"address"},{"internalType":"address","name":"from","type":"address"},{"internalType":"uint256","name":"tokenId","type":"uint256"},{"internalType":"bytes","name":"data","type":"bytes"}],"name":"onERC721Received","outputs":[{"internalType":"bytes4","name":"","type":"bytes4"}],"stateMutability":"nonpayable","type":"function"},{"inputs":[{"internalType":"uint256","name":"tokenId","type":"uint256"}],"name":"ownerOf","outputs":[{"internalType":"address","name":"","type":"address"}],"stateMutability":"view","type":"function"},{"inputs":[{"internalType":"address","name":"from","type":"address"},{"internalType":"address","name":"to","type":"address"},{"internalType":"uint256","name":"tokenId","type":"uint256"}],"name":"safeTransferFrom","outputs":[],"stateMutability":"nonpayable","type":"function"},{"inputs":[{"internalType":"address","name":"from","type":"address"},{"internalType":"address","name":"to","type":"address"},{"internalType":"uint256","name":"tokenId","type":"uint256"},{"internalType":"bytes","name":"data","type":"bytes"}],"name":"safeTransferFrom","outputs":[],"stateMutability":"nonpayable","type":"function"},{"inputs":[{"internalType":"address","name":"operator","type":"address"},{"internalType":"bool","name":"_approved","type":"bool"}],"name":"setApprovalForAll","outputs":[],"stateMutability":"nonpayable","type":"function"},{"inputs":[{"internalType":"bytes4","name":"interfaceId","type":"bytes4"}],"name":"supportsInterface","outputs":[{"internalType":"bool","name":"","type":"bool"}],"stateMutability":"pure","type":"function"},{"inputs":[],"name":"symbol","outputs":[{"internalType":"string","name":"","type":"string"}],"stateMutability":"view","type":"function"},{"inputs":[{"internalType":"address","name":"from","type":"address"},{"internalType":"address","name":"to","type":"address"},{"internalType":"uint256","name":"tokenId","type":"uint256"}],"name":"transferFrom","outputs":[],"stateMutability":"nonpayable","type":"function"}],"bytecode":"60806040523480156200001157600080fd5b50604080518082019091526005808252644c6567696f60d81b602090920191825262000040916004916200009a565b50604080518082019091526005808252644c4547494f60d81b60209092019182526200006d91816200009a565b50600680546001600160a01b031916735e078e6b545cf88abd5bb58d27488ef8be0d25931790556200017d565b828054620000a89062000140565b90600052602060002090601f016020900481019282620000cc576000855562000117565b82601f10620000e757805160ff191683800117855562000117565b8280016001018555821562000117579182015b8281111562000117578251825591602001919060010190620000fa565b506200012592915062000129565b5090565b5b808211156200012557600081556001016200012a565b600181811c908216806200015557607f821691505b602082108114156200017757634e487b7160e01b600052602260045260246000fd5b50919050565b611355806200018d6000396000f3fe608060405234801561001057600080fd5b50600436106101005760003560e01c80636352211e11610097578063a0712d6811610066578063a0712d681461023d578063a22cb46514610250578063b88d4fde14610263578063e985e9c51461027857600080fd5b80636352211e146101ee57806370a082311461020157806385d4755b1461022257806395d89b411461023557600080fd5b8063150b7a02116100d3578063150b7a021461018357806323b872dd146101b557806342842e0e146101c857806342966c68146101db57600080fd5b806301ffc9a71461010557806306fdde031461012e578063081812fc14610143578063095ea7b31461016e575b600080fd5b610119610113366004610ef4565b50600190565b60405190151581526020015b60405180910390f35b61013661028b565b6040516101259190610f6d565b610156610151366004610f80565b61031d565b6040516001600160a01b039091168152602001610125565b61018161017c366004610fb5565b61038c565b005b61019c610191366004610fdf565b600095945050505050565b6040516001600160e01b03199091168152602001610125565b6101816101c336600461107a565b505050565b6101816101d636600461107a565b610535565b6101816101e9366004610f80565b610779565b6101566101fc366004610f80565b6108aa565b61021461020f3660046110b6565b61092c565b604051908152602001610125565b610136610230366004610f80565b610972565b610136610a01565b61018161024b366004610f80565b610a10565b61018161025e3660046110d1565b610aca565b610181610271366004610fdf565b5050505050565b61011961028636600461110d565b610bd6565b60606004805461029a90611140565b80601f01602080910402602001604051908101604052809291908181526020018280546102c690611140565b80156103135780601f106102e857610100808354040283529160200191610313565b820191906000526020600020905b8154815290600101906020018083116102f657829003601f168201915b5050505050905090565b600033806103465760405162461bcd60e51b815260040161033d90611175565b60405180910390fd5b61034f83610c76565b61036b5760405162461bcd60e51b815260040161033d9061119f565b6000838152600260205260409020546001600160a01b031691505b50919050565b33806103aa5760405162461bcd60e51b815260040161033d90611175565b826001600160a01b0381166103d15760405162461bcd60e51b815260040161033d90611175565b6103da83610c76565b6103f65760405162461bcd60e51b815260040161033d9061119f565b6000838152602081905260409020546001600160a01b0316331461045c5760405162461bcd60e51b815260206004820152601a60248201527f596f7520646f206e6f74206f776e207468697320746f6b656e2e000000000000604482015260640161033d565b6000838152600260205260409020546001600160a01b0316156104da5760405162461bcd60e51b815260206004820152603060248201527f596f7520686176652061737369676e6564207468697320746f6b656e2e20446960448201526f39b83937bb329034ba103334b939ba1760811b606482015260840161033d565b60008381526002602052604080822080546001600160a01b0319166001600160a01b0388169081179091559051859233917f8c5be1e5ebec7d5bd14f71427d1e84f3dd0314c0f7b2291e5b200ac8c7c3b9259190a450505050565b33806105535760405162461bcd60e51b815260040161033d90611175565b836001600160a01b03811661057a5760405162461bcd60e51b815260040161033d90611175565b836001600160a01b0381166105a15760405162461bcd60e51b815260040161033d90611175565b6105aa84610c76565b6105c65760405162461bcd60e51b815260040161033d9061119f565b336001600160a01b03871614806105f357506000848152600260205260409020546001600160a01b031633145b8061062157506001600160a01b038616600090815260036020908152604080832033845290915290205460ff165b61066d5760405162461bcd60e51b815260206004820152601d60248201527f596f752063616e6e6f74206d616e616765207468697320746f6b656e2e000000604482015260640161033d565b60008481526020818152604080832080546001600160a01b0319166001600160a01b038a8116919091179091558916835260019182905282208054919290916106b79084906111e2565b90915550506001600160a01b038516600090815260016020819052604082208054919290916106e79084906111f9565b9091555050600084815260026020908152604080832080546001600160a01b0319166001600160a01b038a161790558051918201905290815261072f90879087908790610c93565b5083856001600160a01b0316876001600160a01b03167fddf252ad1be2c89b69c2b068fc378daa952ba7f163c4a11628f55a4df523b3ef60405160405180910390a4505050505050565b33806107975760405162461bcd60e51b815260040161033d90611175565b6107a082610c76565b6107e05760405162461bcd60e51b81526020600482015260116024820152702a37b5b2b71034b732bc34b9ba32b73a1760791b604482015260640161033d565b6006546000838152602081905260409020546001600160a01b0390811691161461084c5760405162461bcd60e51b815260206004820152601760248201527f546f6b656e206f776e656420627920616e6f746865722e000000000000000000604482015260640161033d565b60008281526020818152604080832080546001600160a01b031990811690915560028352818420805490911690556006546001600160a01b0316835260019182905282208054919290916108a19084906111e2565b90915550505050565b600033806108ca5760405162461bcd60e51b815260040161033d90611175565b6000838152602081905260409020546001600160a01b0316806109255760405162461bcd60e51b81526020600482015260136024820152722a37b5b2b71034b9903737ba1037bbb732b21760691b604482015260640161033d565b9392505050565b6000816001600160a01b0381166109555760405162461bcd60e51b815260040161033d90611175565b50506001600160a01b031660009081526001602052604090205490565b606033806109925760405162461bcd60e51b815260040161033d90611175565b61099b83610c76565b6109b75760405162461bcd60e51b815260040161033d9061119f565b604080516020810190915260008082526109d085610ddd565b9050600082826040516020016109e7929190611211565b60408051808303601f190181529190529695505050505050565b60606005805461029a90611140565b3380610a2e5760405162461bcd60e51b815260040161033d90611175565b610a3782610c76565b15610a7c5760405162461bcd60e51b81526020600482015260156024820152742a37b5b2b71030b63932b0b23c9032bc34b9ba399760591b604482015260640161033d565b6006805460008481526020818152604080832080546001600160a01b0319166001600160a01b03958616179055935490921681526001918290529182208054919290916108a19084906111f9565b3380610ae85760405162461bcd60e51b815260040161033d90611175565b826001600160a01b038116610b0f5760405162461bcd60e51b815260040161033d90611175565b6001600160a01b038416331415610b685760405162461bcd60e51b815260206004820152601c60248201527f596f752063616e6e6f7420617070726f766520796f757273656c662e00000000604482015260640161033d565b3360008181526003602090815260408083206001600160a01b03891680855290835292819020805460ff191688151590811790915590519081529192917f17307eab39ab6107e8899845ad3d59bd9653f200f220920489ca2b5937696c31910160405180910390a350505050565b60003380610bf65760405162461bcd60e51b815260040161033d90611175565b836001600160a01b038116610c1d5760405162461bcd60e51b815260040161033d90611175565b836001600160a01b038116610c445760405162461bcd60e51b815260040161033d90611175565b505050506001600160a01b03918216600090815260036020908152604080832093909416825291909152205460ff1690565b6000908152602081905260409020546001600160a01b0316151590565b60006001600160a01b0384163b15610dd157604051630a85bd0160e11b81526001600160a01b0385169063150b7a0290610cd7903390899088908890600401611240565b6020604051808303816000875af1925050508015610d12575060408051601f3d908101601f19168201909252610d0f9181019061127d565b60015b610db7573d808015610d40576040519150601f19603f3d011682016040523d82523d6000602084013e610d45565b606091505b508051610daf5760405162461bcd60e51b815260206004820152603260248201527f4552433732313a207472616e7366657220746f206e6f6e20455243373231526560448201527131b2b4bb32b91034b6b83632b6b2b73a32b960711b606482015260840161033d565b805181602001fd5b6001600160e01b031916630a85bd0160e11b149050610dd5565b5060015b949350505050565b606081610e015750506040805180820190915260018152600360fc1b602082015290565b8160005b8115610e2b5780610e158161129a565b9150610e249050600a836112cb565b9150610e05565b60008167ffffffffffffffff811115610e4657610e466112df565b6040519080825280601f01601f191660200182016040528015610e70576020820181803683370190505b5090505b8415610dd557610e856001836111e2565b9150610e92600a866112f5565b610e9d9060306111f9565b60f81b818381518110610eb257610eb2611309565b60200101906001600160f81b031916908160001a905350610ed4600a866112cb565b9450610e74565b6001600160e01b031981168114610ef157600080fd5b50565b600060208284031215610f0657600080fd5b813561092581610edb565b60005b83811015610f2c578181015183820152602001610f14565b83811115610f3b576000848401525b50505050565b60008151808452610f59816020860160208601610f11565b601f01601f19169290920160200192915050565b6020815260006109256020830184610f41565b600060208284031215610f9257600080fd5b5035919050565b80356001600160a01b0381168114610fb057600080fd5b919050565b60008060408385031215610fc857600080fd5b610fd183610f99565b946020939093013593505050565b600080600080600060808688031215610ff757600080fd5b61100086610f99565b945061100e60208701610f99565b935060408601359250606086013567ffffffffffffffff8082111561103257600080fd5b818801915088601f83011261104657600080fd5b81358181111561105557600080fd5b89602082850101111561106757600080fd5b9699959850939650602001949392505050565b60008060006060848603121561108f57600080fd5b61109884610f99565b92506110a660208501610f99565b9150604084013590509250925092565b6000602082840312156110c857600080fd5b61092582610f99565b600080604083850312156110e457600080fd5b6110ed83610f99565b91506020830135801515811461110257600080fd5b809150509250929050565b6000806040838503121561112057600080fd5b61112983610f99565b915061113760208401610f99565b90509250929050565b600181811c9082168061115457607f821691505b6020821081141561038657634e487b7160e01b600052602260045260246000fd5b60208082526010908201526f20b2323932b9b99034b73b30b634b21760811b604082015260600190565b6020808252601390820152722737b716b2bc34b9ba32b73a103a37b5b2b71760691b604082015260600190565b634e487b7160e01b600052601160045260246000fd5b6000828210156111f4576111f46111cc565b500390565b6000821982111561120c5761120c6111cc565b500190565b60008351611223818460208801610f11565b835190830190611237818360208801610f11565b01949350505050565b6001600160a01b038581168252841660208201526040810183905260806060820181905260009061127390830184610f41565b9695505050505050565b60006020828403121561128f57600080fd5b815161092581610edb565b60006000198214156112ae576112ae6111cc565b5060010190565b634e487b7160e01b600052601260045260246000fd5b6000826112da576112da6112b5565b500490565b634e487b7160e01b600052604160045260246000fd5b600082611304576113046112b5565b500690565b634e487b7160e01b600052603260045260246000fdfea2646970667358221220a1395a6e31b986ea595c006437118d838b4b24d7879f8e160638a3239d38fa2964736f6c634300080c0033","bytecodeSha1":"21674302143c0e4b0cd3f1db1ae1ca5ace19a622","compiler":{"evm_version":"istanbul","optimizer":{"enabled":true,"runs":200},"version":"0.8.12+commit.f00d7308"},"contractName":"Legio","language":"Solidity","natspec":{"kind":"dev","methods":{"approve(address,uint256)":{"details":"Gives permission to `to` to transfer `tokenId` token to another account. The approval is cleared when the token is transferred. Only a single account can be approved at a time, so approving the zero address clears previous approvals. Requirements: - The caller must own the token or be an approved operator. - `tokenId` must exist. Emits an {Approval} event."},"balanceOf(address)":{"details":"Returns the number of tokens in ``owner``'s account."},"getApproved(uint256)":{"details":"Returns the account approved for `tokenId` token. Requirements: - `tokenId` must exist."},"isApprovedForAll(address,address)":{"details":"Returns if the `operator` is allowed to manage all of the assets of `owner`. See {setApprovalForAll}"},"onERC721Received(address,address,uint256,bytes)":{"details":"Whenever an {IERC721} `tokenId` token is transferred to this contract via {IERC721-safeTransferFrom} by `operator` from `from`, this function is called. It must return its Solidity selector to confirm the token transfer. If any other value is returned or the interface is not implemented by the recipient, the transfer will be reverted. The selector can be obtained in Solidity with `IERC721Receiver.onERC721Received.selector`."},"ownerOf(uint256)":{"details":"Returns the owner of the `tokenId` token. Requirements: - `tokenId` must exist."},"safeTransferFrom(address,address,uint256)":{"details":"Safely transfers `tokenId` token from `from` to `to`, checking first that contract recipients are aware of the ERC721 protocol to prevent tokens from being forever locked. Requirements: - `from` cannot be the zero address. - `to` cannot be the zero address. - `tokenId` token must exist and be owned by `from`. - If the caller is not `from`, it must be have been allowed to move this token by either {approve} or {setApprovalForAll}. - If `to` refers to a smart contract, it must implement {IERC721Receiver-onERC721Received}, which is called upon a safe transfer. Emits a {Transfer} event."},"safeTransferFrom(address,address,uint256,bytes)":{"details":"Safely transfers `tokenId` token from `from` to `to`. Requirements: - `from` cannot be the zero address. - `to` cannot be the zero address. - `tokenId` token must exist and be owned by `from`. - If the caller is not `from`, it must be approved to move this token by either {approve} or {setApprovalForAll}. - If `to` refers to a smart contract, it must implement {IERC721Receiver-onERC721Received}, which is called upon a safe transfer. Emits a {Transfer} event."},"setApprovalForAll(address,bool)":{"details":"Approve or remove `operator` as an operator for the caller. Operators can call {transferFrom} or {safeTransferFrom} for any token owned by the caller. Requirements: - The `operator` cannot be the caller. Emits an {ApprovalForAll} event."},"supportsInterface(bytes4)":{"details":"Returns true if this contract implements the interface defined by `interfaceId`. See the corresponding https://eips.ethereum.org/EIPS/eip-165#how-interfaces-are-identified[EIP section] to learn more about how these ids are created. This function call must use less than 30 000 gas."},"transferFrom(address,address,uint256)":{"details":"Transfers `tokenId` token from `from` to `to`. WARNING: Usage of this method is discouraged, use {safeTransferFrom} whenever possible. Requirements: - `from` cannot be the zero address. - `to` cannot be the zero address. - `tokenId` token must be owned by `from`. - If the caller is not `from`, it must be approved to move this token by either {approve} or {setApprovalForAll}. Emits a {Transfer} event."}},"version":1},"opcodes":"PUSH1 0x80 PUSH1 0x40 MSTORE CALLVALUE DUP1 ISZERO PUSH2 0x10 JUMPI PUSH1 0x0 DUP1 REVERT JUMPDEST POP PUSH1 0x4 CALLDATASIZE LT PUSH2 0x100 JUMPI PUSH1 0x0 CALLDATALOAD PUSH1 0xE0 SHR DUP1 PUSH4 0x6352211E GT PUSH2 0x97 JUMPI DUP1 PUSH4 0xA0712D68 GT PUSH2 0x66 JUMPI DUP1 PUSH4 0xA0712D68 EQ PUSH2 0x23D JUMPI DUP1 PUSH4 0xA22CB465 EQ PUSH2 0x250 JUMPI DUP1 PUSH4 0xB88D4FDE EQ PUSH2 0x263 JUMPI DUP1 PUSH4 0xE985E9C5 EQ PUSH2 0x278 JUMPI PUSH1 0x0 DUP1 REVERT JUMPDEST DUP1 PUSH4 0x6352211E EQ PUSH2 0x1EE JUMPI DUP1 PUSH4 0x70A08231 EQ PUSH2 0x201 JUMPI DUP1 PUSH4 0x85D4755B EQ PUSH2 0x222 JUMPI DUP1 PUSH4 0x95D89B41 EQ PUSH2 0x235 JUMPI PUSH1 0x0 DUP1 REVERT JUMPDEST DUP1 PUSH4 0x150B7A02 GT PUSH2 0xD3 JUMPI DUP1 PUSH4 0x150B7A02 EQ PUSH2 0x183 JUMPI DUP1 PUSH4 0x23B872DD EQ PUSH2 0x1B5 JUMPI DUP1 PUSH4 0x42842E0E EQ PUSH2 0x1C8 JUMPI DUP1 PUSH4 0x42966C68 EQ PUSH2 0x1DB JUMPI PUSH1 0x0 DUP1 REVERT JUMPDEST DUP1 PUSH4 0x1FFC9A7 EQ PUSH2 0x105 JUMPI DUP1 PUSH4 0x6FDDE03 EQ PUSH2 0x12E JUMPI DUP1 PUSH4 0x81812FC EQ PUSH2 0x143 JUMPI DUP1 PUSH4 0x95EA7B3 EQ PUSH2 0x16E JUMPI JUMPDEST PUSH1 0x0 DUP1 REVERT JUMPDEST PUSH2 0x119 PUSH2 0x113 CALLDATASIZE PUSH1 0x4 PUSH2 0xEF4 JUMP JUMPDEST POP PUSH1 0x1 SWAP1 JUMP JUMPDEST PUSH1 0x40 MLOAD SWAP1 ISZERO ISZERO DUP2 MSTORE PUSH1 0x20 ADD JUMPDEST PUSH1 0x40 MLOAD DUP1 SWAP2 SUB SWAP1 RETURN JUMPDEST PUSH2 0x136 PUSH2 0x28B JUMP JUMPDEST PUSH1 0x40 MLOAD PUSH2 0x125 SWAP2 SWAP1 PUSH2 0xF6D JUMP JUMPDEST PUSH2 0x156 PUSH2 0x151 CALLDATASIZE PUSH1 0x4 PUSH2 0xF80 JUMP JUMPDEST PUSH2 0x31D JUMP JUMPDEST PUSH1 0x40 MLOAD PUSH1 0x1 PUSH1 0x1 PUSH1 0xA0 SHL SUB SWAP1 SWAP2 AND DUP2 MSTORE PUSH1 0x20 ADD PUSH2 0x125 JUMP JUMPDEST PUSH2 0x181 PUSH2 0x17C CALLDATASIZE PUSH1 0x4 PUSH2 0xFB5 JUMP JUMPDEST PUSH2 0x38C JUMP JUMPDEST STOP JUMPDEST PUSH2 0x19C PUSH2 0x191 CALLDATASIZE PUSH1 0x4 PUSH2 0xFDF JUMP JUMPDEST PUSH1 0x0 SWAP6 SWAP5 POP POP POP POP POP JUMP JUMPDEST PUSH1 0x40 MLOAD PUSH1 0x1 PUSH1 0x1 PUSH1 0xE0 SHL SUB NOT SWAP1 SWAP2 AND DUP2 MSTORE PUSH1 0x20 ADD PUSH2 0x125 JUMP JUMPDEST PUSH2 0x181 PUSH2 0x1C3 CALLDATASIZE PUSH1 0x4 PUSH2 0x107A JUMP JUMPDEST POP POP POP JUMP JUMPDEST PUSH2 0x181 PUSH2 0x1D6 CALLDATASIZE PUSH1 0x4 PUSH2 0x107A JUMP JUMPDEST PUSH2 0x535 JUMP JUMPDEST PUSH2 0x181 PUSH2 0x1E9 CALLDATASIZE PUSH1 0x4 PUSH2 0xF80 JUMP JUMPDEST PUSH2 0x779 JUMP JUMPDEST PUSH2 0x156 PUSH2 0x1FC CALLDATASIZE PUSH1 0x4 PUSH2 0xF80 JUMP JUMPDEST PUSH2 0x8AA JUMP JUMPDEST PUSH2 0x214 PUSH2 0x20F CALLDATASIZE PUSH1 0x4 PUSH2 0x10B6 JUMP JUMPDEST PUSH2 0x92C JUMP JUMPDEST PUSH1 0x40 MLOAD SWAP1 DUP2 MSTORE PUSH1 0x20 ADD PUSH2 0x125 JUMP JUMPDEST PUSH2 0x136 PUSH2 0x230 CALLDATASIZE PUSH1 0x4 PUSH2 0xF80 JUMP JUMPDEST PUSH2 0x972 JUMP JUMPDEST PUSH2 0x136 PUSH2 0xA01 JUMP JUMPDEST PUSH2 0x181 PUSH2 0x24B CALLDATASIZE PUSH1 0x4 PUSH2 0xF80 JUMP JUMPDEST PUSH2 0xA10 JUMP JUMPDEST PUSH2 0x181 PUSH2 0x25E CALLDATASIZE PUSH1 0x4 PUSH2 0x10D1 JUMP JUMPDEST PUSH2 0xACA JUMP JUMPDEST PUSH2 0x181 PUSH2 0x271 CALLDATASIZE PUSH1 0x4 PUSH2 0xFDF JUMP JUMPDEST POP POP POP POP POP JUMP JUMPDEST PUSH2 0x119 PUSH2 0x286 CALLDATASIZE PUSH1 0x4 PUSH2 0x110D JUMP JUMPDEST PUSH2 0xBD6 JUMP JUMPDEST PUSH1 0x60 PUSH1 0x4 DUP1 SLOAD PUSH2 0x29A SWAP1 PUSH2 0x1140 JUMP JUMPDEST DUP1 PUSH1 0x1F ADD PUSH1 0x20 DUP1 SWAP2 DIV MUL PUSH1 0x20 ADD PUSH1 0x40 MLOAD SWAP1 DUP2 ADD PUSH1 0x40 MSTORE DUP1 SWAP3 SWAP2 SWAP1 DUP2 DUP2 MSTORE PUSH1 0x20 ADD DUP3 DUP1 SLOAD PUSH2 0x2C6 SWAP1 PUSH2 0x1140 JUMP JUMPDEST DUP1 ISZERO PUSH2 0x313 JUMPI DUP1 PUSH1 0x1F LT PUSH2 0x2E8 JUMPI PUSH2 0x100 DUP1 DUP4 SLOAD DIV MUL DUP4 MSTORE SWAP2 PUSH1 0x20 ADD SWAP2 PUSH2 0x313 JUMP JUMPDEST DUP3 ADD SWAP2 SWAP1 PUSH1 0x0 MSTORE PUSH1 0x20 PUSH1 0x0 KECCAK256 SWAP1 JUMPDEST DUP2 SLOAD DUP2 MSTORE SWAP1 PUSH1 0x1 ADD SWAP1 PUSH1 0x20 ADD DUP1 DUP4 GT PUSH2 0x2F6 JUMPI DUP3 SWAP1 SUB PUSH1 0x1F AND DUP3 ADD SWAP2 JUMPDEST POP POP POP POP POP SWAP1 POP SWAP1 JUMP JUMPDEST PUSH1 0x0 CALLER DUP1 PUSH2 0x346 JUMPI PUSH1 0x40 MLOAD PUSH3 0x461BCD PUSH1 0xE5 SHL DUP2 MSTORE PUSH1 0x4 ADD PUSH2 0x33D SWAP1 PUSH2 0x1175 JUMP JUMPDEST PUSH1 0x40 MLOAD DUP1 SWAP2 SUB SWAP1 REVERT JUMPDEST PUSH2 0x34F DUP4 PUSH2 0xC76 JUMP JUMPDEST PUSH2 0x36B JUMPI PUSH1 0x40 MLOAD PUSH3 0x461BCD PUSH1 0xE5 SHL DUP2 MSTORE PUSH1 0x4 ADD PUSH2 0x33D SWAP1 PUSH2 0x119F JUMP JUMPDEST PUSH1 0x0 DUP4 DUP2 MSTORE PUSH1 0x2 PUSH1 0x20 MSTORE PUSH1 0x40 SWAP1 KECCAK256 SLOAD PUSH1 0x1 PUSH1 0x1 PUSH1 0xA0 SHL SUB AND SWAP2 POP JUMPDEST POP SWAP2 SWAP1 POP JUMP JUMPDEST CALLER DUP1 PUSH2 0x3AA JUMPI PUSH1 0x40 MLOAD PUSH3 0x461BCD PUSH1 0xE5 SHL DUP2 MSTORE PUSH1 0x4 ADD PUSH2 0x33D SWAP1 PUSH2 0x1175 JUMP JUMPDEST DUP3 PUSH1 0x1 PUSH1 0x1 PUSH1 0xA0 SHL SUB DUP2 AND PUSH2 0x3D1 JUMPI PUSH1 0x40 MLOAD PUSH3 0x461BCD PUSH1 0xE5 SHL DUP2 MSTORE PUSH1 0x4 ADD PUSH2 0x33D SWAP1 PUSH2 0x1175 JUMP JUMPDEST PUSH2 0x3DA DUP4 PUSH2 0xC76 JUMP JUMPDEST PUSH2 0x3F6 JUMPI PUSH1 0x40 MLOAD PUSH3 0x461BCD PUSH1 0xE5 SHL DUP2 MSTORE PUSH1 0x4 ADD PUSH2 0x33D SWAP1 PUSH2 0x119F JUMP JUMPDEST PUSH1 0x0 DUP4 DUP2 MSTORE PUSH1 0x20 DUP2 SWAP1 MSTORE PUSH1 0x40 SWAP1 KECCAK256 SLOAD PUSH1 0x1 PUSH1 0x1 PUSH1 0xA0 SHL SUB AND CALLER EQ PUSH2 0x45C JUMPI PUSH1 0x40 MLOAD PUSH3 0x461BCD PUSH1 0xE5 SHL DUP2 MSTORE PUSH1 0x20 PUSH1 0x4 DUP3 ADD MSTORE PUSH1 0x1A PUSH1 0x24 DUP3 ADD MSTORE PUSH32 0x596F7520646F206E6F74206F776E207468697320746F6B656E2E000000000000 PUSH1 0x44 DUP3 ADD MSTORE PUSH1 0x64 ADD PUSH2 0x33D JUMP JUMPDEST PUSH1 0x0 DUP4 DUP2 MSTORE PUSH1 0x2 PUSH1 0x20 MSTORE PUSH1 0x40 SWAP1 KECCAK256 SLOAD PUSH1 0x1 PUSH1 0x1 PUSH1 0xA0 SHL SUB AND ISZERO PUSH2 0x4DA JUMPI PUSH1 0x40 MLOAD PUSH3 0x461BCD PUSH1 0xE5 SHL DUP2 MSTORE PUSH1 0x20 PUSH1 0x4 DUP3 ADD MSTORE PUSH1 0x30 PUSH1 0x24 DUP3 ADD MSTORE PUSH32 0x596F7520686176652061737369676E6564207468697320746F6B656E2E204469 PUSH1 0x44 DUP3 ADD MSTORE PUSH16 0x39B83937BB329034BA103334B939BA17 PUSH1 0x81 SHL PUSH1 0x64 DUP3 ADD MSTORE PUSH1 0x84 ADD PUSH2 0x33D JUMP JUMPDEST PUSH1 0x0 DUP4 DUP2 MSTORE PUSH1 0x2 PUSH1 0x20 MSTORE PUSH1 0x40 DUP1 DUP3 KECCAK256 DUP1 SLOAD PUSH1 0x1 PUSH1 0x1 PUSH1 0xA0 SHL SUB NOT AND PUSH1 0x1 PUSH1 0x1 PUSH1 0xA0 SHL SUB DUP9 AND SWAP1 DUP2 OR SWAP1 SWAP2 SSTORE SWAP1 MLOAD DUP6 SWAP3 CALLER SWAP2 PUSH32 0x8C5BE1E5EBEC7D5BD14F71427D1E84F3DD0314C0F7B2291E5B200AC8C7C3B925 SWAP2 SWAP1 LOG4 POP POP POP POP JUMP JUMPDEST CALLER DUP1 PUSH2 0x553 JUMPI PUSH1 0x40 MLOAD PUSH3 0x461BCD PUSH1 0xE5 SHL DUP2 MSTORE PUSH1 0x4 ADD PUSH2 0x33D SWAP1 PUSH2 0x1175 JUMP JUMPDEST DUP4 PUSH1 0x1 PUSH1 0x1 PUSH1 0xA0 SHL SUB DUP2 AND PUSH2 0x57A JUMPI PUSH1 0x40 MLOAD PUSH3 0x461BCD PUSH1 0xE5 SHL DUP2 MSTORE PUSH1 0x4 ADD PUSH2 0x33D SWAP1 PUSH2 0x1175 JUMP JUMPDEST DUP4 PUSH1 0x1 PUSH1 0x1 PUSH1 0xA0 SHL SUB DUP2 AND PUSH2 0x5A1 JUMPI PUSH1 0x40 MLOAD PUSH3 0x461BCD PUSH1 0xE5 SHL DUP2 MSTORE PUSH1 0x4 ADD PUSH2 0x33D SWAP1 PUSH2 0x1175 JUMP JUMPDEST PUSH2 0x5AA DUP5 PUSH2 0xC76 JUMP JUMPDEST PUSH2 0x5C6 JUMPI PUSH1 0x40 MLOAD PUSH3 0x461BCD PUSH1 0xE5 SHL DUP2 MSTORE PUSH1 0x4 ADD PUSH2 0x33D SWAP1 PUSH2 0x119F JUMP JUMPDEST CALLER PUSH1 0x1 PUSH1 0x1 PUSH1 0xA0 SHL SUB DUP8 AND EQ DUP1 PUSH2 0x5F3 JUMPI POP PUSH1 0x0 DUP5 DUP2 MSTORE PUSH1 0x2 PUSH1 0x20 MSTORE PUSH1 0x40 SWAP1 KECCAK256 SLOAD PUSH1 0x1 PUSH1 0x1 PUSH1 0xA0 SHL SUB AND CALLER EQ JUMPDEST DUP1 PUSH2 0x621 JUMPI POP PUSH1 0x1 PUSH1 0x1 PUSH1 0xA0 SHL SUB DUP7 AND PUSH1 0x0 SWAP1 DUP2 MSTORE PUSH1 0x3 PUSH1 0x20 SWAP1 DUP2 MSTORE PUSH1 0x40 DUP1 DUP4 KECCAK256 CALLER DUP5 MSTORE SWAP1 SWAP2 MSTORE SWAP1 KECCAK256 SLOAD PUSH1 0xFF AND JUMPDEST PUSH2 0x66D JUMPI PUSH1 0x40 MLOAD PUSH3 0x461BCD PUSH1 0xE5 SHL DUP2 MSTORE PUSH1 0x20 PUSH1 0x4 DUP3 ADD MSTORE PUSH1 0x1D PUSH1 0x24 DUP3 ADD MSTORE PUSH32 0x596F752063616E6E6F74206D616E616765207468697320746F6B656E2E000000 PUSH1 0x44 DUP3 ADD MSTORE PUSH1 0x64 ADD PUSH2 0x33D JUMP JUMPDEST PUSH1 0x0 DUP5 DUP2 MSTORE PUSH1 0x20 DUP2 DUP2 MSTORE PUSH1 0x40 DUP1 DUP4 KECCAK256 DUP1 SLOAD PUSH1 0x1 PUSH1 0x1 PUSH1 0xA0 SHL SUB NOT AND PUSH1 0x1 PUSH1 0x1 PUSH1 0xA0 SHL SUB DUP11 DUP2 AND SWAP2 SWAP1 SWAP2 OR SWAP1 SWAP2 SSTORE DUP10 AND DUP4 MSTORE PUSH1 0x1 SWAP2 DUP3 SWAP1 MSTORE DUP3 KECCAK256 DUP1 SLOAD SWAP2 SWAP3 SWAP1 SWAP2 PUSH2 0x6B7 SWAP1 DUP5 SWAP1 PUSH2 0x11E2 JUMP JUMPDEST SWAP1 SWAP2 SSTORE POP POP PUSH1 0x1 PUSH1 0x1 PUSH1 0xA0 SHL SUB DUP6 AND PUSH1 0x0 SWAP1 DUP2 MSTORE PUSH1 0x1 PUSH1 0x20 DUP2 SWAP1 MSTORE PUSH1 0x40 DUP3 KECCAK256 DUP1 SLOAD SWAP2 SWAP3 SWAP1 SWAP2 PUSH2 0x6E7 SWAP1 DUP5 SWAP1 PUSH2 0x11F9 JUMP JUMPDEST SWAP1 SWAP2 SSTORE POP POP PUSH1 0x0 DUP5 DUP2 MSTORE PUSH1 0x2 PUSH1 0x20 SWAP1 DUP2 MSTORE PUSH1 0x40 DUP1 DUP4 KECCAK256 DUP1 SLOAD PUSH1 0x1 PUSH1 0x1 PUSH1 0xA0 SHL SUB NOT AND PUSH1 0x1 PUSH1 0x1 PUSH1 0xA0 SHL SUB DUP11 AND OR SWAP1 SSTORE DUP1 MLOAD SWAP2 DUP3 ADD SWAP1 MSTORE SWAP1 DUP2 MSTORE PUSH2 0x72F SWAP1 DUP8 SWAP1 DUP8 SWAP1 DUP8 SWAP1 PUSH2 0xC93 JUMP JUMPDEST POP DUP4 DUP6 PUSH1 0x1 PUSH1 0x1 PUSH1 0xA0 SHL SUB AND DUP8 PUSH1 0x1 PUSH1 0x1 PUSH1 0xA0 SHL SUB AND PUSH32 0xDDF252AD1BE2C89B69C2B068FC378DAA952BA7F163C4A11628F55A4DF523B3EF PUSH1 0x40 MLOAD PUSH1 0x40 MLOAD DUP1 SWAP2 SUB SWAP1 LOG4 POP POP POP POP POP POP JUMP JUMPDEST CALLER DUP1 PUSH2 0x797 JUMPI PUSH1 0x40 MLOAD PUSH3 0x461BCD PUSH1 0xE5 SHL DUP2 MSTORE PUSH1 0x4 ADD PUSH2 0x33D SWAP1 PUSH2 0x1175 JUMP JUMPDEST PUSH2 0x7A0 DUP3 PUSH2 0xC76 JUMP JUMPDEST PUSH2 0x7E0 JUMPI PUSH1 0x40 MLOAD PUSH3 0x461BCD PUSH1 0xE5 SHL DUP2 MSTORE PUSH1 0x20 PUSH1 0x4 DUP3 ADD MSTORE PUSH1 0x11 PUSH1 0x24 DUP3 ADD MSTORE PUSH17 0x2A37B5B2B71034B732BC34B9BA32B73A17 PUSH1 0x79 SHL PUSH1 0x44 DUP3 ADD MSTORE PUSH1 0x64 ADD PUSH2 0x33D JUMP JUMPDEST PUSH1 0x6 SLOAD PUSH1 0x0 DUP4 DUP2 MSTORE PUSH1 0x20 DUP2 SWAP1 MSTORE PUSH1 0x40 SWAP1 KECCAK256 SLOAD PUSH1 0x1 PUSH1 0x1 PUSH1 0xA0 SHL SUB SWAP1 DUP2 AND SWAP2 AND EQ PUSH2 0x84C JUMPI PUSH1 0x40 MLOAD PUSH3 0x461BCD PUSH1 0xE5 SHL DUP2 MSTORE PUSH1 0x20 PUSH1 0x4 DUP3 ADD MSTORE PUSH1 0x17 PUSH1 0x24 DUP3 ADD MSTORE PUSH32 0x546F6B656E206F776E656420627920616E6F746865722E000000000000000000 PUSH1 0x44 DUP3 ADD MSTORE PUSH1 0x64 ADD PUSH2 0x33D JUMP JUMPDEST PUSH1 0x0 DUP3 DUP2 MSTORE PUSH1 0x20 DUP2 DUP2 MSTORE PUSH1 0x40 DUP1 DUP4 KECCAK256 DUP1 SLOAD PUSH1 0x1 PUSH1 0x1 PUSH1 0xA0 SHL SUB NOT SWAP1 DUP2 AND SWAP1 SWAP2 SSTORE PUSH1 0x2 DUP4 MSTORE DUP2 DUP5 KECCAK256 DUP1 SLOAD SWAP1 SWAP2 AND SWAP1 SSTORE PUSH1 0x6 SLOAD PUSH1 0x1 PUSH1 0x1 PUSH1 0xA0 SHL SUB AND DUP4 MSTORE PUSH1 0x1 SWAP2 DUP3 SWAP1 MSTORE DUP3 KECCAK256 DUP1 SLOAD SWAP2 SWAP3 SWAP1 SWAP2 PUSH2 0x8A1 SWAP1 DUP5 SWAP1 PUSH2 0x11E2 JUMP JUMPDEST SWAP1 SWAP2 SSTORE POP POP POP POP JUMP JUMPDEST PUSH1 0x0 CALLER DUP1 PUSH2 0x8CA JUMPI PUSH1 0x40 MLOAD PUSH3 0x461BCD PUSH1 0xE5 SHL DUP2 MSTORE PUSH1 0x4 ADD PUSH2 0x33D SWAP1 PUSH2 0x1175 JUMP JUMPDEST PUSH1 0x0 DUP4 DUP2 MSTORE PUSH1 0x20 DUP2 SWAP1 MSTORE PUSH1 0x40 SWAP1 KECCAK256 SLOAD PUSH1 0x1 PUSH1 0x1 PUSH1 0xA0 SHL SUB AND DUP1 PUSH2 0x925 JUMPI PUSH1 0x40 MLOAD PUSH3 0x461BCD PUSH1 0xE5 SHL DUP2 MSTORE PUSH1 0x20 PUSH1 0x4 DUP3 ADD MSTORE PUSH1 0x13 PUSH1 0x24 DUP3 ADD MSTORE PUSH19 0x2A37B5B2B71034B9903737BA1037BBB732B217 PUSH1 0x69 SHL PUSH1 0x44 DUP3 ADD MSTORE PUSH1 0x64 ADD PUSH2 0x33D JUMP JUMPDEST SWAP4 SWAP3 POP POP POP JUMP JUMPDEST PUSH1 0x0 DUP2 PUSH1 0x1 PUSH1 0x1 PUSH1 0xA0 SHL SUB DUP2 AND PUSH2 0x955 JUMPI PUSH1 0x40 MLOAD PUSH3 0x461BCD PUSH1 0xE5 SHL DUP2 MSTORE PUSH1 0x4 ADD PUSH2 0x33D SWAP1 PUSH2 0x1175 JUMP JUMPDEST POP POP PUSH1 0x1 PUSH1 0x1 PUSH1 0xA0 SHL SUB AND PUSH1 0x0 SWAP1 DUP2 MSTORE PUSH1 0x1 PUSH1 0x20 MSTORE PUSH1 0x40 SWAP1 KECCAK256 SLOAD SWAP1 JUMP JUMPDEST PUSH1 0x60 CALLER DUP1 PUSH2 0x992 JUMPI PUSH1 0x40 MLOAD PUSH3 0x461BCD PUSH1 0xE5 SHL DUP2 MSTORE PUSH1 0x4 ADD PUSH2 0x33D SWAP1 PUSH2 0x1175 JUMP JUMPDEST PUSH2 0x99B DUP4 PUSH2 0xC76 JUMP JUMPDEST PUSH2 0x9B7 JUMPI PUSH1 0x40 MLOAD PUSH3 0x461BCD PUSH1 0xE5 SHL DUP2 MSTORE PUSH1 0x4 ADD PUSH2 0x33D SWAP1 PUSH2 0x119F JUMP JUMPDEST PUSH1 0x40 DUP1 MLOAD PUSH1 0x20 DUP2 ADD SWAP1 SWAP2 MSTORE PUSH1 0x0 DUP1 DUP3 MSTORE PUSH2 0x9D0 DUP6 PUSH2 0xDDD JUMP JUMPDEST SWAP1 POP PUSH1 0x0 DUP3 DUP3 PUSH1 0x40 MLOAD PUSH1 0x20 ADD PUSH2 0x9E7 SWAP3 SWAP2 SWAP1 PUSH2 0x1211 JUMP JUMPDEST PUSH1 0x40 DUP1 MLOAD DUP1 DUP4 SUB PUSH1 0x1F NOT ADD DUP2 MSTORE SWAP2 SWAP1 MSTORE SWAP7 SWAP6 POP POP POP POP POP POP JUMP JUMPDEST PUSH1 0x60 PUSH1 0x5 DUP1 SLOAD PUSH2 0x29A SWAP1 PUSH2 0x1140 JUMP JUMPDEST CALLER DUP1 PUSH2 0xA2E JUMPI PUSH1 0x40 MLOAD PUSH3 0x461BCD PUSH1 0xE5 SHL DUP2 MSTORE PUSH1 0x4 ADD PUSH2 0x33D SWAP1 PUSH2 0x1175 JUMP JUMPDEST PUSH2 0xA37 DUP3 PUSH2 0xC76 JUMP JUMPDEST ISZERO PUSH2 0xA7C JUMPI PUSH1 0x40 MLOAD PUSH3 0x461BCD PUSH1 0xE5 SHL DUP2 MSTORE PUSH1 0x20 PUSH1 0x4 DUP3 ADD MSTORE PUSH1 0x15 PUSH1 0x24 DUP3 ADD MSTORE PUSH21 0x2A37B5B2B71030B63932B0B23C9032BC34B9BA3997 PUSH1 0x59 SHL PUSH1 0x44 DUP3 ADD MSTORE PUSH1 0x64 ADD PUSH2 0x33D JUMP JUMPDEST PUSH1 0x6 DUP1 SLOAD PUSH1 0x0 DUP5 DUP2 MSTORE PUSH1 0x20 DUP2 DUP2 MSTORE PUSH1 0x40 DUP1 DUP4 KECCAK256 DUP1 SLOAD PUSH1 0x1 PUSH1 0x1 PUSH1 0xA0 SHL SUB NOT AND PUSH1 0x1 PUSH1 0x1 PUSH1 0xA0 SHL SUB SWAP6 DUP7 AND OR SWAP1 SSTORE SWAP4 SLOAD SWAP1 SWAP3 AND DUP2 MSTORE PUSH1 0x1 SWAP2 DUP3 SWAP1 MSTORE SWAP2 DUP3 KECCAK256 DUP1 SLOAD SWAP2 SWAP3 SWAP1 SWAP2 PUSH2 0x8A1 SWAP1 DUP5 SWAP1 PUSH2 0x11F9 JUMP JUMPDEST CALLER DUP1 PUSH2 0xAE8 JUMPI PUSH1 0x40 MLOAD PUSH3 0x461BCD PUSH1 0xE5 SHL DUP2 MSTORE PUSH1 0x4 ADD PUSH2 0x33D SWAP1 PUSH2 0x1175 JUMP JUMPDEST DUP3 PUSH1 0x1 PUSH1 0x1 PUSH1 0xA0 SHL SUB DUP2 AND PUSH2 0xB0F JUMPI PUSH1 0x40 MLOAD PUSH3 0x461BCD PUSH1 0xE5 SHL DUP2 MSTORE PUSH1 0x4 ADD PUSH2 0x33D SWAP1 PUSH2 0x1175 JUMP JUMPDEST PUSH1 0x1 PUSH1 0x1 PUSH1 0xA0 SHL SUB DUP5 AND CALLER EQ ISZERO PUSH2 0xB68 JUMPI PUSH1 0x40 MLOAD PUSH3 0x461BCD PUSH1 0xE5 SHL DUP2 MSTORE PUSH1 0x20 PUSH1 0x4 DUP3 ADD MSTORE PUSH1 0x1C PUSH1 0x24 DUP3 ADD MSTORE PUSH32 0x596F752063616E6E6F7420617070726F766520796F757273656C662E00000000 PUSH1 0x44 DUP3 ADD MSTORE PUSH1 0x64 ADD PUSH2 0x33D JUMP JUMPDEST CALLER PUSH1 0x0 DUP2 DUP2 MSTORE PUSH1 0x3 PUSH1 0x20 SWAP1 DUP2 MSTORE PUSH1 0x40 DUP1 DUP4 KECCAK256 PUSH1 0x1 PUSH1 0x1 PUSH1 0xA0 SHL SUB DUP10 AND DUP1 DUP6 MSTORE SWAP1 DUP4 MSTORE SWAP3 DUP2 SWAP1 KECCAK256 DUP1 SLOAD PUSH1 0xFF NOT AND DUP9 ISZERO ISZERO SWAP1 DUP2 OR SWAP1 SWAP2 SSTORE SWAP1 MLOAD SWAP1 DUP2 MSTORE SWAP2 SWAP3 SWAP2 PUSH32 0x17307EAB39AB6107E8899845AD3D59BD9653F200F220920489CA2B5937696C31 SWAP2 ADD PUSH1 0x40 MLOAD DUP1 SWAP2 SUB SWAP1 LOG3 POP POP POP POP JUMP JUMPDEST PUSH1 0x0 CALLER DUP1 PUSH2 0xBF6 JUMPI PUSH1 0x40 MLOAD PUSH3 0x461BCD PUSH1 0xE5 SHL DUP2 MSTORE PUSH1 0x4 ADD PUSH2 0x33D SWAP1 PUSH2 0x1175 JUMP JUMPDEST DUP4 PUSH1 0x1 PUSH1 0x1 PUSH1 0xA0 SHL SUB DUP2 AND PUSH2 0xC1D JUMPI PUSH1 0x40 MLOAD PUSH3 0x461BCD PUSH1 0xE5 SHL DUP2 MSTORE PUSH1 0x4 ADD PUSH2 0x33D SWAP1 PUSH2 0x1175 JUMP JUMPDEST DUP4 PUSH1 0x1 PUSH1 0x1 PUSH1 0xA0 SHL SUB DUP2 AND PUSH2 0xC44 JUMPI PUSH1 0x40 MLOAD PUSH3 0x461BCD PUSH1 0xE5 SHL DUP2 MSTORE PUSH1 0x4 ADD PUSH2 0x33D SWAP1 PUSH2 0x1175 JUMP JUMPDEST POP POP POP POP PUSH1 0x1 PUSH1 0x1 PUSH1 0xA0 SHL SUB SWAP2 DUP3 AND PUSH1 0x0 SWAP1 DUP2 MSTORE PUSH1 0x3 PUSH1 0x20 SWAP1 DUP2 MSTORE PUSH1 0x40 DUP1 DUP4 KECCAK256 SWAP4 SWAP1 SWAP5 AND DUP3 MSTORE SWAP2 SWAP1 SWAP2 MSTORE KECCAK256 SLOAD PUSH1 0xFF AND SWAP1 JUMP JUMPDEST PUSH1 0x0 SWAP1 DUP2 MSTORE PUSH1 0x20 DUP2 SWAP1 MSTORE PUSH1 0x40 SWAP1 KECCAK256 SLOAD PUSH1 0x1 PUSH1 0x1 PUSH1 0xA0 SHL SUB AND ISZERO ISZERO SWAP1 JUMP JUMPDEST PUSH1 0x0 PUSH1 0x1 PUSH1 0x1 PUSH1 0xA0 SHL SUB DUP5 AND EXTCODESIZE ISZERO PUSH2 0xDD1 JUMPI PUSH1 0x40 MLOAD PUSH4 0xA85BD01 PUSH1 0xE1 SHL DUP2 MSTORE PUSH1 0x1 PUSH1 0x1 PUSH1 0xA0 SHL SUB DUP6 AND SWAP1 PUSH4 0x150B7A02 SWAP1 PUSH2 0xCD7 SWAP1 CALLER SWAP1 DUP10 SWAP1 DUP9 SWAP1 DUP9 SWAP1 PUSH1 0x4 ADD PUSH2 0x1240 JUMP JUMPDEST PUSH1 0x20 PUSH1 0x40 MLOAD DUP1 DUP4 SUB DUP2 PUSH1 0x0 DUP8 GAS CALL SWAP3 POP POP POP DUP1 ISZERO PUSH2 0xD12 JUMPI POP PUSH1 0x40 DUP1 MLOAD PUSH1 0x1F RETURNDATASIZE SWAP1 DUP2 ADD PUSH1 0x1F NOT AND DUP3 ADD SWAP1 SWAP3 MSTORE PUSH2 0xD0F SWAP2 DUP2 ADD SWAP1 PUSH2 0x127D JUMP JUMPDEST PUSH1 0x1 JUMPDEST PUSH2 0xDB7 JUMPI RETURNDATASIZE DUP1 DUP1 ISZERO PUSH2 0xD40 JUMPI PUSH1 0x40 MLOAD SWAP2 POP PUSH1 0x1F NOT PUSH1 0x3F RETURNDATASIZE ADD AND DUP3 ADD PUSH1 0x40 MSTORE RETURNDATASIZE DUP3 MSTORE RETURNDATASIZE PUSH1 0x0 PUSH1 0x20 DUP5 ADD RETURNDATACOPY PUSH2 0xD45 JUMP JUMPDEST PUSH1 0x60 SWAP2 POP JUMPDEST POP DUP1 MLOAD PUSH2 0xDAF JUMPI PUSH1 0x40 MLOAD PUSH3 0x461BCD PUSH1 0xE5 SHL DUP2 MSTORE PUSH1 0x20 PUSH1 0x4 DUP3 ADD MSTORE PUSH1 0x32 PUSH1 0x24 DUP3 ADD MSTORE PUSH32 0x4552433732313A207472616E7366657220746F206E6F6E204552433732315265 PUSH1 0x44 DUP3 ADD MSTORE PUSH18 0x31B2B4BB32B91034B6B83632B6B2B73A32B9 PUSH1 0x71 SHL PUSH1 0x64 DUP3 ADD MSTORE PUSH1 0x84 ADD PUSH2 0x33D JUMP JUMPDEST DUP1 MLOAD DUP2 PUSH1 0x20 ADD REVERT JUMPDEST PUSH1 0x1 PUSH1 0x1 PUSH1 0xE0 SHL SUB NOT AND PUSH4 0xA85BD01 PUSH1 0xE1 SHL EQ SWAP1 POP PUSH2 0xDD5 JUMP JUMPDEST POP PUSH1 0x1 JUMPDEST SWAP5 SWAP4 POP POP POP POP JUMP JUMPDEST PUSH1 0x60 DUP2 PUSH2 0xE01 JUMPI POP POP PUSH1 0x40 DUP1 MLOAD DUP1 DUP3 ADD SWAP1 SWAP2 MSTORE PUSH1 0x1 DUP2 MSTORE PUSH1 0x3 PUSH1 0xFC SHL PUSH1 0x20 DUP3 ADD MSTORE SWAP1 JUMP JUMPDEST DUP2 PUSH1 0x0 JUMPDEST DUP2 ISZERO PUSH2 0xE2B JUMPI DUP1 PUSH2 0xE15 DUP2 PUSH2 0x129A JUMP JUMPDEST SWAP2 POP PUSH2 0xE24 SWAP1 POP PUSH1 0xA DUP4 PUSH2 0x12CB JUMP JUMPDEST SWAP2 POP PUSH2 0xE05 JUMP JUMPDEST PUSH1 0x0 DUP2 PUSH8 0xFFFFFFFFFFFFFFFF DUP2 GT ISZERO PUSH2 0xE46 JUMPI PUSH2 0xE46 PUSH2 0x12DF JUMP JUMPDEST PUSH1 0x40 MLOAD SWAP1 DUP1 DUP3 MSTORE DUP1 PUSH1 0x1F ADD PUSH1 0x1F NOT AND PUSH1 0x20 ADD DUP3 ADD PUSH1 0x40 MSTORE DUP1 ISZERO PUSH2 0xE70 JUMPI PUSH1 0x20 DUP3 ADD DUP2 DUP1 CALLDATASIZE DUP4 CALLDATACOPY ADD SWAP1 POP JUMPDEST POP SWAP1 POP JUMPDEST DUP5 ISZERO PUSH2 0xDD5 JUMPI PUSH2 0xE85 PUSH1 0x1 DUP4 PUSH2 0x11E2 JUMP JUMPDEST SWAP2 POP PUSH2 0xE92 PUSH1 0xA DUP7 PUSH2 0x12F5 JUMP JUMPDEST PUSH2 0xE9D SWAP1 PUSH1 0x30 PUSH2 0x11F9 JUMP JUMPDEST PUSH1 0xF8 SHL DUP2 DUP4 DUP2 MLOAD DUP2 LT PUSH2 0xEB2 JUMPI PUSH2 0xEB2 PUSH2 0x1309 JUMP JUMPDEST PUSH1 0x20 ADD ADD SWAP1 PUSH1 0x1 PUSH1 0x1 PUSH1 0xF8 SHL SUB NOT AND SWAP1 DUP2 PUSH1 0x0 BYTE SWAP1 MSTORE8 POP PUSH2 0xED4 PUSH1 0xA DUP7 PUSH2 0x12CB JUMP JUMPDEST SWAP5 POP PUSH2 0xE74 JUMP JUMPDEST PUSH1 0x1 PUSH1 0x1 PUSH1 0xE0 SHL SUB NOT DUP2 AND DUP2 EQ PUSH2 0xEF1 JUMPI PUSH1 0x0 DUP1 REVERT JUMPDEST POP JUMP JUMPDEST PUSH1 0x0 PUSH1 0x20 DUP3 DUP5 SUB SLT ISZERO PUSH2 0xF06 JUMPI PUSH1 0x0 DUP1 REVERT JUMPDEST DUP2 CALLDATALOAD PUSH2 0x925 DUP2 PUSH2 0xEDB JUMP JUMPDEST PUSH1 0x0 JUMPDEST DUP4 DUP2 LT ISZERO PUSH2 0xF2C JUMPI DUP2 DUP2 ADD MLOAD DUP4 DUP3 ADD MSTORE PUSH1 0x20 ADD PUSH2 0xF14 JUMP JUMPDEST DUP4 DUP2 GT ISZERO PUSH2 0xF3B JUMPI PUSH1 0x0 DUP5 DUP5 ADD MSTORE JUMPDEST POP POP POP POP JUMP JUMPDEST PUSH1 0x0 DUP2 MLOAD DUP1 DUP5 MSTORE PUSH2 0xF59 DUP2 PUSH1 0x20 DUP7 ADD PUSH1 0x20 DUP7 ADD PUSH2 0xF11 JUMP JUMPDEST PUSH1 0x1F ADD PUSH1 0x1F NOT AND SWAP3 SWAP1 SWAP3 ADD PUSH1 0x20 ADD SWAP3 SWAP2 POP POP JUMP JUMPDEST PUSH1 0x20 DUP2 MSTORE PUSH1 0x0 PUSH2 0x925 PUSH1 0x20 DUP4 ADD DUP5 PUSH2 0xF41 JUMP JUMPDEST PUSH1 0x0 PUSH1 0x20 DUP3 DUP5 SUB SLT ISZERO PUSH2 0xF92 JUMPI PUSH1 0x0 DUP1 REVERT JUMPDEST POP CALLDATALOAD SWAP2 SWAP1 POP JUMP JUMPDEST DUP1 CALLDATALOAD PUSH1 0x1 PUSH1 0x1 PUSH1 0xA0 SHL SUB DUP2 AND DUP2 EQ PUSH2 0xFB0 JUMPI PUSH1 0x0 DUP1 REVERT JUMPDEST SWAP2 SWAP1 POP JUMP JUMPDEST PUSH1 0x0 DUP1 PUSH1 0x40 DUP4 DUP6 SUB SLT ISZERO PUSH2 0xFC8 JUMPI PUSH1 0x0 DUP1 REVERT JUMPDEST PUSH2 0xFD1 DUP4 PUSH2 0xF99 JUMP JUMPDEST SWAP5 PUSH1 0x20 SWAP4 SWAP1 SWAP4 ADD CALLDATALOAD SWAP4 POP POP POP JUMP JUMPDEST PUSH1 0x0 DUP1 PUSH1 0x0 DUP1 PUSH1 0x0 PUSH1 0x80 DUP7 DUP9 SUB SLT ISZERO PUSH2 0xFF7 JUMPI PUSH1 0x0 DUP1 REVERT JUMPDEST PUSH2 0x1000 DUP7 PUSH2 0xF99 JUMP JUMPDEST SWAP5 POP PUSH2 0x100E PUSH1 0x20 DUP8 ADD PUSH2 0xF99 JUMP JUMPDEST SWAP4 POP PUSH1 0x40 DUP7 ADD CALLDATALOAD SWAP3 POP PUSH1 0x60 DUP7 ADD CALLDATALOAD PUSH8 0xFFFFFFFFFFFFFFFF DUP1 DUP3 GT ISZERO PUSH2 0x1032 JUMPI PUSH1 0x0 DUP1 REVERT JUMPDEST DUP2 DUP9 ADD SWAP2 POP DUP9 PUSH1 0x1F DUP4 ADD SLT PUSH2 0x1046 JUMPI PUSH1 0x0 DUP1 REVERT JUMPDEST DUP2 CALLDATALOAD DUP2 DUP2 GT ISZERO PUSH2 0x1055 JUMPI PUSH1 0x0 DUP1 REVERT JUMPDEST DUP10 PUSH1 0x20 DUP3 DUP6 ADD ADD GT ISZERO PUSH2 0x1067 JUMPI PUSH1 0x0 DUP1 REVERT JUMPDEST SWAP7 SWAP10 SWAP6 SWAP9 POP SWAP4 SWAP7 POP PUSH1 0x20 ADD SWAP5 SWAP4 SWAP3 POP POP POP JUMP JUMPDEST PUSH1 0x0 DUP1 PUSH1 0x0 PUSH1 0x60 DUP5 DUP7 SUB SLT ISZERO PUSH2 0x108F JUMPI PUSH1 0x0 DUP1 REVERT JUMPDEST PUSH2 0x1098 DUP5 PUSH2 0xF99 JUMP JUMPDEST SWAP3 POP PUSH2 0x10A6 PUSH1 0x20 DUP6 ADD PUSH2 0xF99 JUMP JUMPDEST SWAP2 POP PUSH1 0x40 DUP5 ADD CALLDATALOAD SWAP1 POP SWAP3 POP SWAP3 POP SWAP3 JUMP JUMPDEST PUSH1 0x0 PUSH1 0x20 DUP3 DUP5 SUB SLT ISZERO PUSH2 0x10C8 JUMPI PUSH1 0x0 DUP1 REVERT JUMPDEST PUSH2 0x925 DUP3 PUSH2 0xF99 JUMP JUMPDEST PUSH1 0x0 DUP1 PUSH1 0x40 DUP4 DUP6 SUB SLT ISZERO PUSH2 0x10E4 JUMPI PUSH1 0x0 DUP1 REVERT JUMPDEST PUSH2 0x10ED DUP4 PUSH2 0xF99 JUMP JUMPDEST SWAP2 POP PUSH1 0x20 DUP4 ADD CALLDATALOAD DUP1 ISZERO ISZERO DUP2 EQ PUSH2 0x1102 JUMPI PUSH1 0x0 DUP1 REVERT JUMPDEST DUP1 SWAP2 POP POP SWAP3 POP SWAP3 SWAP1 POP JUMP JUMPDEST PUSH1 0x0 DUP1 PUSH1 0x40 DUP4 DUP6 SUB SLT ISZERO PUSH2 0x1120 JUMPI PUSH1 0x0 DUP1 REVERT JUMPDEST PUSH2 0x1129 DUP4 PUSH2 0xF99 JUMP JUMPDEST SWAP2 POP PUSH2 0x1137 PUSH1 0x20 DUP5 ADD PUSH2 0xF99 JUMP JUMPDEST SWAP1 POP SWAP3 POP SWAP3 SWAP1 POP JUMP JUMPDEST PUSH1 0x1 DUP2 DUP2 SHR SWAP1 DUP3 AND DUP1 PUSH2 0x1154 JUMPI PUSH1 0x7F DUP3 AND SWAP2 POP JUMPDEST PUSH1 0x20 DUP3 LT DUP2 EQ ISZERO PUSH2 0x386 JUMPI PUSH4 0x4E487B71 PUSH1 0xE0 SHL PUSH1 0x0 MSTORE PUSH1 0x22 PUSH1 0x4 MSTORE PUSH1 0x24 PUSH1 0x0 REVERT JUMPDEST PUSH1 0x20 DUP1 DUP3 MSTORE PUSH1 0x10 SWAP1 DUP3 ADD MSTORE PUSH16 0x20B2323932B9B99034B73B30B634B217 PUSH1 0x81 SHL PUSH1 0x40 DUP3 ADD MSTORE PUSH1 0x60 ADD SWAP1 JUMP JUMPDEST PUSH1 0x20 DUP1 DUP3 MSTORE PUSH1 0x13 SWAP1 DUP3 ADD MSTORE PUSH19 0x2737B716B2BC34B9BA32B73A103A37B5B2B717 PUSH1 0x69 SHL PUSH1 0x40 DUP3 ADD MSTORE PUSH1 0x60 ADD SWAP1 JUMP JUMPDEST PUSH4 0x4E487B71 PUSH1 0xE0 SHL PUSH1 0x0 MSTORE PUSH1 0x11 PUSH1 0x4 MSTORE PUSH1 0x24 PUSH1 0x0 REVERT JUMPDEST PUSH1 0x0 DUP3 DUP3 LT ISZERO PUSH2 0x11F4 JUMPI PUSH2 0x11F4 PUSH2 0x11CC JUMP JUMPDEST POP SUB SWAP1 JUMP JUMPDEST PUSH1 0x0 DUP3 NOT DUP3 GT ISZERO PUSH2 0x120C JUMPI PUSH2 0x120C PUSH2 0x11CC JUMP JUMPDEST POP ADD SWAP1 JUMP JUMPDEST PUSH1 0x0 DUP4 MLOAD PUSH2 0x1223 DUP2 DUP5 PUSH1 0x20 DUP9 ADD PUSH2 0xF11 JUMP JUMPDEST DUP4 MLOAD SWAP1 DUP4 ADD SWAP1 PUSH2 0x1237 DUP2 DUP4 PUSH1 0x20 DUP9 ADD PUSH2 0xF11 JUMP JUMPDEST ADD SWAP5 SWAP4 POP POP POP POP JUMP JUMPDEST PUSH1 0x1 PUSH1 0x1 PUSH1 0xA0 SHL SUB DUP6 DUP2 AND DUP3 MSTORE DUP5 AND PUSH1 0x20 DUP3 ADD MSTORE PUSH1 0x40 DUP2 ADD DUP4 SWAP1 MSTORE PUSH1 0x80 PUSH1 0x60 DUP3 ADD DUP2 SWAP1 MSTORE PUSH1 0x0 SWAP1 PUSH2 0x1273 SWAP1 DUP4 ADD DUP5 PUSH2 0xF41 JUMP JUMPDEST SWAP7 SWAP6 POP POP POP POP POP POP JUMP JUMPDEST PUSH1 0x0 PUSH1 0x20 DUP3 DUP5 SUB SLT ISZERO PUSH2 0x128F JUMPI PUSH1 0x0 DUP1 REVERT JUMPDEST DUP2 MLOAD PUSH2 0x925 DUP2 PUSH2 0xEDB JUMP JUMPDEST PUSH1 0x0 PUSH1 0x0 NOT DUP3 EQ ISZERO PUSH2 0x12AE JUMPI PUSH2 0x12AE PUSH2 0x11CC JUMP JUMPDEST POP PUSH1 0x1 ADD SWAP1 JUMP JUMPDEST PUSH4 0x4E487B71 PUSH1 0xE0 SHL PUSH1 0x0 MSTORE PUSH1 0x12 PUSH1 0x4 MSTORE PUSH1 0x24 PUSH1 0x0 REVERT JUMPDEST PUSH1 0x0 DUP3 PUSH2 0x12DA JUMPI PUSH2 0x12DA PUSH2 0x12B5 JUMP JUMPDEST POP DIV SWAP1 JUMP JUMPDEST PUSH4 0x4E487B71 PUSH1 0xE0 SHL PUSH1 0x0 MSTORE PUSH1 0x41 PUSH1 0x4 MSTORE PUSH1 0x24 PUSH1 0x0 REVERT JUMPDEST PUSH1 0x0 DUP3 PUSH2 0x1304 JUMPI PUSH2 0x1304 PUSH2 0x12B5 JUMP JUMPDEST POP MOD SWAP1 JUMP JUMPDEST PUSH4 0x4E487B71 PUSH1 0xE0 SHL PUSH1 0x0 MSTORE PUSH1 0x32 PUSH1 0x4 MSTORE PUSH1 0x24 PUSH1 0x0 REVERT INVALID LOG2 PUSH5 0x6970667358 0x22 SLT KECCAK256 LOG1 CODECOPY GAS PUSH15 0x31B986EA595C006437118D838B4B24 0xD7 DUP8 SWAP16 DUP15 AND MOD CODESIZE LOG3 0x23 SWAP14 CODESIZE STATICCALL 0x29 PUSH5 0x736F6C6343 STOP ADDMOD 0xC STOP CALLER ","sha1":"3b4442d7295e51f4efbec1d9d6b555da2d122696","source":"// SPDX-License-Identifier: MIT\n\npragma solidity >0.6.0;\n\nimport \"./interfaces/IERC721.sol\";\nimport \"./interfaces/IERC165.sol\";\nimport \"./interfaces/IERC721Receiver.sol\";\nimport \"./utils/String.sol\";\n\ncontract Legio is IERC165, IERC721, IERC721Receiver\n{\n    using Strings for uint256;\n\n    // Mapping the token ids to their owners.\n\n    mapping(uint256 => address) private _owners;\n\n\n    // Mapping the addresses to the number of tokens they own.\n\n    mapping(address => uint256) private _balances;\n\n    \n    // Token to approved address to manage.\n\n    mapping(uint256 => address) private _token_approvals;\n    \n\n    // Owner => (Operator => Bool).\n\n    mapping(address => mapping(address => bool)) private _operator_approvals;\n\n\n    string private _name;\n    string private _symbol;\n    address private _owner;\n\n\n    constructor()\n    {\n        _name = \"Legio\";\n        _symbol = \"LEGIO\";\n        _owner = 0x5e078E6b545cF88aBD5BB58d27488eF8BE0D2593;\n    }\n\n\n\n\n    // Function for name return.\n\n    function name() public view returns(string memory)\n    {\n        return _name;\n    }\n\n\n\n    // Function for symbol return.\n\n    function symbol() public view returns(string memory)\n    {\n        return _symbol;\n    }\n\n\n\n\n    // Return sender.\n\n    function _msgSender() internal view returns(address)\n    {\n        return msg.sender;\n    }\n\n\n\n\n    // This function checks if a token exists and returns true.\n\n    function token_exists(uint256 __tokenId) internal view returns(bool)\n    {\n        return _owners[__tokenId] != address(0);\n    }\n\n\n\n\n    // Function to check the approval of `msg.sender` over `__tokenId` returns bool.\n    // Function to check if the __operator is generally approved to manage __caller's tokens.\n\n    function is_approved_person(uint256 __tokenId, address __operator) internal view returns(bool)\n    {\n        return (_token_approvals[__tokenId] == __operator);\n    }\n\n    function is_generally_approved(address __caller, address __operator) internal view returns(bool)\n    {\n        return (_operator_approvals[__caller][__operator]);\n    }\n\n\n\n    function supportsInterface(bytes4 interfaceId) public override pure returns (bool)\n    {\n        return true;\n    }\n    /*\n    * @dev:\n    *\n    * {balalnceOf()} returns the number of tokens owned by `address`.\n    *\n    * REQUIREMENTS:\n    * Address `address` is not a 0 address.\n    */\n\n    modifier is_valid_address(address _test)\n    {\n        require(_test != address(0), \"Address invalid.\");\n        _;\n    }\n\n\n\n\n    function balanceOf(address owner) public view override is_valid_address(owner) returns(uint256)\n    {\n        return _balances[owner];\n    }\n\n\n\n\n    /*\n    * @dev:\n    *\n    * {ownerOf()} returns the owner of `tokenId`.\n    *\n    */\n\n    function ownerOf(uint256 tokenId) public view override is_valid_address(msg.sender) returns(address)\n    {\n        address token_owner = _owners[tokenId];\n        require(token_owner != address(0), \"Token is not owned.\");\n        return token_owner;\n    }\n\n\n\n\n    /**\n    * @dev Safely transfers `tokenId` token from `from` to `to`, checking first that contract recipients\n    * are aware of the ERC721 protocol to prevent tokens from being forever locked.\n    *\n    * Requirements:\n    *\n    * - `from` cannot be the zero address.\n    * - `to` cannot be the zero address.\n    * - `tokenId` token must exist and be owned by `from`.\n    * - If the caller is not `from`, it must be have been allowed to move this token by either {approve} or {setApprovalForAll}.\n    * - If `to` refers to a smart contract, it must implement {IERC721Receiver-onERC721Received}, which is called upon a safe transfer.\n    *\n    * Emits a {Transfer} event.\n    */\n\n    function safeTransferFrom(address from, address to, uint256 tokenId) public override is_valid_address(msg.sender) is_valid_address(from) is_valid_address(to)\n    {\n        require(token_exists(tokenId), \"Non-existent token.\");\n        require((_msgSender() == from) || is_approved_person(tokenId, _msgSender()) || is_generally_approved(from, _msgSender()), \"You cannot manage this token.\");\n\n        _owners[tokenId] = to;\n        _balances[from] -= 1;\n        _balances[to] += 1;\n        _token_approvals[tokenId] = to;\n\n        _checkOnERC721Received(from, to, tokenId, \"\");\n\n        emit Transfer(from, to, tokenId);\n    }\n\n\n    function safeTransferFrom(\n        address from,\n        address to,\n        uint256 tokenId,\n        bytes calldata data\n    ) public override {}\n\n    function transferFrom(\n        address from,\n        address to,\n        uint256 tokenId\n    ) public override {}\n\n\n\n    /**\n    * @dev Gives permission to `to` to transfer `tokenId` token to another account.\n    * The approval is cleared when the token is transferred.\n    *\n    * Only a single account can be approved at a time, so approving the zero address clears previous approvals.\n    *\n    * Requirements:\n    *\n    * - The caller must own the token or be an approved operator.\n    * - `tokenId` must exist.\n    *\n    * Emits an {Approval} event.\n    */\n\n    function approve(address to, uint256 tokenId) public override is_valid_address(msg.sender) is_valid_address(to)\n    {\n        require(token_exists(tokenId), \"Non-existent token.\");\n        require(_owners[tokenId] == _msgSender(), \"You do not own this token.\");\n        require(_token_approvals[tokenId] == address(0), \"You have assigned this token. Disprove it first.\");\n\n        _token_approvals[tokenId] = to;\n        emit Approval(_msgSender(), to, tokenId);\n    }\n\n\n\n\n    /**\n     * @dev Approve or remove `operator` as an operator for the caller.\n     * Operators can call {transferFrom} or {safeTransferFrom} for any token owned by the caller.\n     *\n     * Requirements:\n     *\n     * - The `operator` cannot be the caller.\n     *\n     * Emits an {ApprovalForAll} event.\n    */\n\n    function setApprovalForAll(address operator, bool _approved) public override is_valid_address(msg.sender) is_valid_address(operator)\n    {\n        require(operator != _msgSender(), \"You cannot approve yourself.\");\n\n        _operator_approvals[_msgSender()][operator] = _approved;\n\n        emit ApprovalForAll(_msgSender(), operator, _approved);\n    }\n\n\n\n\n    /**\n     * @dev Returns the account approved for `tokenId` token.\n     *\n     * Requirements:\n     *\n     * - `tokenId` must exist.\n    */\n\n    function getApproved(uint256 tokenId) public view override is_valid_address(msg.sender) returns(address)\n    {\n        require(token_exists(tokenId), \"Non-existent token.\");\n        return _token_approvals[tokenId];\n    }\n\n\n\n\n    /**\n    * @dev Returns if the `operator` is allowed to manage all of the assets of `owner`.\n    *\n    * See {setApprovalForAll}\n    */\n\n    function isApprovedForAll(address owner, address operator) public view override is_valid_address(msg.sender) is_valid_address(owner) is_valid_address(operator) returns(bool)\n    {\n        return _operator_approvals[owner][operator];\n    }\n\n\n\n\n    // Extra functions.\n\n    function getURL(uint256 tokenId) public view is_valid_address(msg.sender) returns(string memory)\n    {\n        require(token_exists(tokenId), \"Non-existent token.\");\n        string memory baseURI = \"\";\n        string memory endURI = tokenId.toString();\n\n        string memory fullURL = string(abi.encodePacked(baseURI, endURI));\n\n        return fullURL;\n    }\n\n\n\n\n    function mint(uint256 tokenId) public is_valid_address(msg.sender)\n    {\n        require(!token_exists(tokenId), \"Token already exists.\");\n\n        _owners[tokenId] = _owner;\n        _balances[_owner] += 1;\n    }\n\n\n\n\n    function burn(uint256 tokenId) public is_valid_address(msg.sender)\n    {\n        require(token_exists(tokenId), \"Token inexistent.\");\n        require(_owners[tokenId] == _owner, \"Token owned by another.\");\n\n        delete _owners[tokenId];\n        delete _token_approvals[tokenId];\n        _balances[_owner] -= 1;\n    }\n\n\n\n    function onERC721Received(\n        address operator,\n        address from,\n        uint256 tokenId,\n        bytes calldata data\n    ) public override returns (bytes4){}\n    /**\n     * Copied.\n     *\n     * @dev Internal function to invoke {IERC721Receiver-onERC721Received} on a target address.\n     * The call is not executed if the target address is not a contract.\n     *\n     * @param from address representing the previous owner of the given token ID\n     * @param to target address that will receive the tokens\n     * @param tokenId uint256 ID of the token to be transferred\n     * @param _data bytes optional data to send along with the call\n     * @return bool whether the call correctly returned the expected magic value\n     */\n    function _checkOnERC721Received(address from, address to, uint256 tokenId, bytes memory _data) private returns (bool) \n    {\n        if (isContract(to))\n        {\n            try IERC721Receiver(to).onERC721Received(_msgSender(), from, tokenId, _data) returns (bytes4 retval) \n            {\n                return retval == IERC721Receiver.onERC721Received.selector;\n            } \n            catch (bytes memory reason) \n            {\n                if (reason.length == 0) \n                {\n                    revert(\"ERC721: transfer to non ERC721Receiver implementer\");\n                } \n                else \n                {\n                    assembly \n                    {\n                        revert(add(32, reason), mload(reason))\n                    }\n                }\n            }\n        } \n        else \n        {\n            return true;\n        }\n    }\n\n    function isContract(address account) internal view returns (bool) {\n        // This method relies on extcodesize/address.code.length, which returns 0\n        // for contracts in construction, since the code is only stored at the end\n        // of the constructor execution.\n\n        return account.code.length > 0;\n    }\n}","sourcePath":"contracts/mynft.sol","type":"contract","deployment":{"address":"0xbc71d1049d984f261663c3b46c1F443C622852EF","chainid":"4","blockHeight":10502738}}