{
  "abi": [
    {
      "inputs": [],
      "stateMutability": "nonpayable",
      "type": "constructor"
    },
    {
      "anonymous": false,
      "inputs": [
        {
          "indexed": true,
          "internalType": "address",
          "name": "owner",
          "type": "address"
        },
        {
          "indexed": true,
          "internalType": "address",
          "name": "spender",
          "type": "address"
        },
        {
          "indexed": false,
          "internalType": "uint256",
          "name": "value",
          "type": "uint256"
        }
      ],
      "name": "Approval",
      "type": "event"
    },
    {
      "anonymous": false,
      "inputs": [
        {
          "indexed": true,
          "internalType": "address",
          "name": "from",
          "type": "address"
        },
        {
          "indexed": true,
          "internalType": "address",
          "name": "to",
          "type": "address"
        },
        {
          "indexed": false,
          "internalType": "uint256",
          "name": "value",
          "type": "uint256"
        }
      ],
      "name": "Transfer",
      "type": "event"
    },
    {
      "inputs": [],
      "name": "_msgSender",
      "outputs": [
        {
          "internalType": "address",
          "name": "",
          "type": "address"
        }
      ],
      "stateMutability": "view",
      "type": "function"
    },
    {
      "inputs": [
        {
          "internalType": "address",
          "name": "owner",
          "type": "address"
        },
        {
          "internalType": "address",
          "name": "spender",
          "type": "address"
        }
      ],
      "name": "allowance",
      "outputs": [
        {
          "internalType": "uint256",
          "name": "",
          "type": "uint256"
        }
      ],
      "stateMutability": "view",
      "type": "function"
    },
    {
      "inputs": [
        {
          "internalType": "address",
          "name": "spender",
          "type": "address"
        },
        {
          "internalType": "uint256",
          "name": "amount",
          "type": "uint256"
        }
      ],
      "name": "approve",
      "outputs": [
        {
          "internalType": "bool",
          "name": "",
          "type": "bool"
        }
      ],
      "stateMutability": "nonpayable",
      "type": "function"
    },
    {
      "inputs": [
        {
          "internalType": "address",
          "name": "account",
          "type": "address"
        }
      ],
      "name": "balanceOf",
      "outputs": [
        {
          "internalType": "uint256",
          "name": "",
          "type": "uint256"
        }
      ],
      "stateMutability": "view",
      "type": "function"
    },
    {
      "inputs": [
        {
          "internalType": "uint256",
          "name": "x",
          "type": "uint256"
        }
      ],
      "name": "change_dev_rewards",
      "outputs": [],
      "stateMutability": "nonpayable",
      "type": "function"
    },
    {
      "inputs": [
        {
          "internalType": "uint256",
          "name": "x",
          "type": "uint256"
        }
      ],
      "name": "change_environmental_causes_rewards",
      "outputs": [],
      "stateMutability": "nonpayable",
      "type": "function"
    },
    {
      "inputs": [
        {
          "internalType": "uint256",
          "name": "x",
          "type": "uint256"
        }
      ],
      "name": "change_liquidity_pool_rewards",
      "outputs": [],
      "stateMutability": "nonpayable",
      "type": "function"
    },
    {
      "inputs": [
        {
          "internalType": "uint256",
          "name": "x",
          "type": "uint256"
        }
      ],
      "name": "change_marketing_rewards",
      "outputs": [],
      "stateMutability": "nonpayable",
      "type": "function"
    },
    {
      "inputs": [
        {
          "internalType": "uint256",
          "name": "x",
          "type": "uint256"
        }
      ],
      "name": "change_usdt_tax",
      "outputs": [],
      "stateMutability": "nonpayable",
      "type": "function"
    },
    {
      "inputs": [],
      "name": "decimals",
      "outputs": [
        {
          "internalType": "uint8",
          "name": "",
          "type": "uint8"
        }
      ],
      "stateMutability": "view",
      "type": "function"
    },
    {
      "inputs": [],
      "name": "name",
      "outputs": [
        {
          "internalType": "string",
          "name": "",
          "type": "string"
        }
      ],
      "stateMutability": "view",
      "type": "function"
    },
    {
      "inputs": [],
      "name": "symbol",
      "outputs": [
        {
          "internalType": "string",
          "name": "",
          "type": "string"
        }
      ],
      "stateMutability": "view",
      "type": "function"
    },
    {
      "inputs": [],
      "name": "totalSupply",
      "outputs": [
        {
          "internalType": "uint256",
          "name": "",
          "type": "uint256"
        }
      ],
      "stateMutability": "view",
      "type": "function"
    },
    {
      "inputs": [
        {
          "internalType": "address",
          "name": "to",
          "type": "address"
        },
        {
          "internalType": "uint256",
          "name": "amount",
          "type": "uint256"
        }
      ],
      "name": "transfer",
      "outputs": [
        {
          "internalType": "bool",
          "name": "",
          "type": "bool"
        }
      ],
      "stateMutability": "nonpayable",
      "type": "function"
    },
    {
      "inputs": [
        {
          "internalType": "address",
          "name": "from",
          "type": "address"
        },
        {
          "internalType": "address",
          "name": "to",
          "type": "address"
        },
        {
          "internalType": "uint256",
          "name": "amount",
          "type": "uint256"
        }
      ],
      "name": "transferFrom",
      "outputs": [
        {
          "internalType": "bool",
          "name": "",
          "type": "bool"
        }
      ],
      "stateMutability": "nonpayable",
      "type": "function"
    },
    {
      "inputs": [
        {
          "internalType": "uint256",
          "name": "amount",
          "type": "uint256"
        }
      ],
      "name": "withdraw_usdt",
      "outputs": [],
      "stateMutability": "nonpayable",
      "type": "function"
    }
  ],
  "bytecode": "6080604052600f600281905560038190556004819055600555600a6006556011600755601380546001600160a01b0319908116909155601480548216905560158054821690556016805490911673770861cdcddf8319c6c86ef8ef91c4a922fc12ac1790553480156200007157600080fd5b5060408051808201909152600380825262086d2f60eb1b60209092019182526200009e91600b916200032f565b506040805180820190915260038082526208692b60eb1b6020909201918252620000cb91600c916200032f565b50600d805460ff19166012908117909155620000e990600a620004ea565b620000f990633b9aca0062000502565b600e55600f80546001600160a01b031916735e078e6b545cf88abd5bb58d27488ef8be0d2593179055600d54600090620001389060ff16600a620004ea565b6001600160401b031690506200015381631dcd650062000502565b600f546001600160a01b03166000908152600860205260409020556200017e816305f5e10062000502565b6013546001600160a01b0316600090815260086020526040902055620001a9816305f5e10062000502565b6014546001600160a01b0316600090815260086020526040902055620001d4816305f5e10062000502565b6015546001600160a01b031660009081526008602090815260409182902092909255601080546001600160a01b031916739ac64cc6e4415144c455bd8e4837fea55603e5c3908117909155815163c45a015560e01b81529151909263c45a015592600480820193918290030181865afa15801562000256573d6000803e3d6000fd5b505050506040513d601f19601f820116820180604052508101906200027c919062000524565b601180546001600160a01b0319166001600160a01b039283169081179091556016546040516364e329cb60e11b8152306004820152921660248301529063c9c65396906044016020604051808303816000875af1158015620002e2573d6000803e3d6000fd5b505050506040513d601f19601f8201168201806040525081019062000308919062000524565b601280546001600160a01b0319166001600160a01b0392909216919091179055506200058c565b8280546200033d906200054f565b90600052602060002090601f016020900481019282620003615760008555620003ac565b82601f106200037c57805160ff1916838001178555620003ac565b82800160010185558215620003ac579182015b82811115620003ac5782518255916020019190600101906200038f565b50620003ba929150620003be565b5090565b5b80821115620003ba5760008155600101620003bf565b634e487b7160e01b600052601160045260246000fd5b600181815b808511156200042c578160001904821115620004105762000410620003d5565b808516156200041e57918102915b93841c9390800290620003f0565b509250929050565b6000826200044557506001620004e4565b816200045457506000620004e4565b81600181146200046d5760028114620004785762000498565b6001915050620004e4565b60ff8411156200048c576200048c620003d5565b50506001821b620004e4565b5060208310610133831016604e8410600b8410161715620004bd575081810a620004e4565b620004c98383620003eb565b8060001904821115620004e057620004e0620003d5565b0290505b92915050565b6000620004fb60ff84168362000434565b9392505050565b60008160001904831182151516156200051f576200051f620003d5565b500290565b6000602082840312156200053757600080fd5b81516001600160a01b0381168114620004fb57600080fd5b600181811c908216806200056457607f821691505b602082108114156200058657634e487b7160e01b600052602260045260246000fd5b50919050565b611681806200059c6000396000f3fe608060405234801561001057600080fd5b50600436106101005760003560e01c8063643ed2b61161009757806395d89b411161006657806395d89b4114610202578063a9059cbb1461020a578063b75e9eac1461021d578063dd62ed3e1461023057600080fd5b8063643ed2b6146101b657806370a08231146101c957806370d66762146101dc5780638d14c999146101ef57600080fd5b806318160ddd116100d357806318160ddd1461016957806323b872dd1461017b5780632b3bc01b1461018e578063313ce567146101a157600080fd5b806306fdde0314610105578063095ea7b3146101235780630a08b20314610146578063119df25f1461015b575b600080fd5b61010d610243565b60405161011a91906111f6565b60405180910390f35b610136610131366004611262565b6102d9565b604051901515815260200161011a565b61015961015436600461128c565b6104a4565b005b60405133815260200161011a565b600e545b60405190815260200161011a565b6101366101893660046112a5565b6104e8565b61015961019c36600461128c565b610737565b600d5460405160ff909116815260200161011a565b6101596101c436600461128c565b610906565b61016d6101d73660046112e1565b61094a565b6101596101ea36600461128c565b6109ea565b6101596101fd36600461128c565b610a2e565b61010d610a72565b610136610218366004611262565b610a83565b61015961022b36600461128c565b610dae565b61016d61023e3660046112fc565b610df2565b60606000600b80546102549061132f565b80601f01602080910402602001604051908101604052809291908181526020018280546102809061132f565b80156102cd5780601f106102a2576101008083540402835291602001916102cd565b820191906000526020600020905b8154815290600101906020018083116102b057829003601f168201915b50939695505050505050565b6000826001600160a01b03811661030b5760405162461bcd60e51b81526004016103029061136a565b60405180910390fd5b336000908152600a602052604090205460ff168061033b5760405162461bcd60e51b8152600401610302906113a1565b61034433610e8a565b6103605760405162461bcd60e51b8152600401610302906113d8565b600084116103b05760405162461bcd60e51b815260206004820181905260248201527f4349583a20596f752063616e6e6f7420616c6c6f63617465203020244349582e6044820152606401610302565b3360009081526008602052604090205484111561040f5760405162461bcd60e51b815260206004820152601f60248201527f4349583a20596f7520646f6e74206861766520656e6f75676820244349582e006044820152606401610302565b3360009081526009602090815260408083206001600160a01b038916845290915290205461043d9085610ed1565b3360008181526009602090815260408083206001600160a01b038b168085529083529281902094909455925187815290927f8c5be1e5ebec7d5bd14f71427d1e84f3dd0314c0f7b2291e5b200ac8c7c3b925910160405180910390a3506001949350505050565b600f546001600160a01b0316336001600160a01b0316146104d75760405162461bcd60e51b81526004016103029061141d565b6104e281600a61146a565b60055550565b6000826001600160a01b0381166105115760405162461bcd60e51b81526004016103029061136a565b336000908152600a602052604090205460ff16806105415760405162461bcd60e51b8152600401610302906113a1565b6001600160a01b0386166000908152600860205260409020548411156105ba5760405162461bcd60e51b815260206004820152602860248201527f4349583a20546865206066726f6d6020646f65736e74206861766520656e6f7560448201526733b4101221a4ac1760c11b6064820152608401610302565b6001600160a01b038616600090815260096020908152604080832033845290915290205484111561063d5760405162461bcd60e51b815260206004820152602760248201527f4349583a20596f7520617265206e6f7420616c6c6f636174656420656e6f756760448201526634101221a4ac1760c91b6064820152608401610302565b6001600160a01b0386166000908152600860205260409020546106609085610ee8565b6001600160a01b03808816600090815260086020526040808220939093559087168152205461068f9085610ed1565b6001600160a01b0386811660009081526008602090815260408083209490945591891681526009825282812033825290915220546106cd9085610ee8565b6001600160a01b03878116600081815260096020908152604080832033845282529182902094909455518781529188169290917fddf252ad1be2c89b69c2b068fc378daa952ba7f163c4a11628f55a4df523b3ef910160405180910390a350600195945050505050565b3361079b5760405162461bcd60e51b815260206004820152602e60248201527f24434958202d204572726f72203a3a2043616c6c65722061646472657373206960448201526d39903090181030b2323932b9b99760911b6064820152608401610302565b3360009081526001602052604090205481111561080f5760405162461bcd60e51b815260206004820152602c60248201527f24434958202d204572726f72203a3a2043616e6e6f742077697468647261772060448201526b3a3434b99030b6b7bab73a1760a11b6064820152608401610302565b60405163a9059cbb60e01b81523360048201526024810182905273770861cdcddf8319c6c86ef8ef91c4a922fc12ac90600090829063a9059cbb906044016020604051808303816000875af115801561086c573d6000803e3d6000fd5b505050506040513d601f19601f820116820180604052508101906108909190611489565b9050806108d75760405162461bcd60e51b81526020600482015260156024820152741221a4ac1d102a37b5b2b7103737ba1039b2b73a1760591b6044820152606401610302565b336000908152600160205260409020546108f19084610ee8565b33600090815260016020526040902055505050565b600f546001600160a01b0316336001600160a01b0316146109395760405162461bcd60e51b81526004016103029061141d565b61094481600a61146a565b60065550565b6000336109695760405162461bcd60e51b81526004016103029061136a565b61097282610e8a565b6109ca5760405162461bcd60e51b8152602060048201526024808201527f4349583a204164647265737320646f65736e2774206f776e20616e7920746f6b60448201526332b7399760e11b6064820152608401610302565b506001600160a01b0381166000908152600860205260409020545b919050565b600f546001600160a01b0316336001600160a01b031614610a1d5760405162461bcd60e51b81526004016103029061141d565b610a2881600a61146a565b60035550565b600f546001600160a01b0316336001600160a01b031614610a615760405162461bcd60e51b81526004016103029061141d565b610a6c81600a61146a565b60045550565b60606000600c80546102549061132f565b600033610aa25760405162461bcd60e51b81526004016103029061136a565b826001600160a01b038116610ac95760405162461bcd60e51b81526004016103029061136a565b336000908152600a602052604090205460ff1680610af95760405162461bcd60e51b8152600401610302906113a1565b33600081815260086020526040902054851115610b585760405162461bcd60e51b815260206004820152601f60248201527f4349583a20596f7520646f6e74206861766520656e6f75676820244349582e006044820152606401610302565b60008511610ba85760405162461bcd60e51b815260206004820152601c60248201527f4349583a20596f752063616e6e6f742073656e64203020244349582e000000006044820152606401610302565b856001600160a01b0316816001600160a01b03161415610c145760405162461bcd60e51b815260206004820152602160248201527f4349583a20596f752063616e6e6f742073656e6420746f20796f757273656c666044820152601760f91b6064820152608401610302565b6001600160a01b038116600090815260086020526040902054610c379086610ee8565b6001600160a01b038083166000908152600860205260408082209390935590881681522054610c669086610ed1565b6001600160a01b038716600090815260086020908152604080832093909355600a905220805460ff19166001179055610c9e85610f7a565b6000610ca986611001565b90506000610cb687611019565b90506000610cc388611019565b6013546001600160a01b0316600090815260086020526040812080549293508592909190610cf29084906114ab565b90915550506015546001600160a01b031660009081526008602052604081208054849290610d219084906114ab565b90915550506014546001600160a01b031660009081526008602052604081208054839290610d509084906114ab565b90915550610d5f90508861102a565b6040518881526001600160a01b038a169033907fddf252ad1be2c89b69c2b068fc378daa952ba7f163c4a11628f55a4df523b3ef9060200160405180910390a350600198975050505050505050565b600f546001600160a01b0316336001600160a01b031614610de15760405162461bcd60e51b81526004016103029061141d565b610dec81600a61146a565b60025550565b600033610e115760405162461bcd60e51b81526004016103029061136a565b816001600160a01b038116610e385760405162461bcd60e51b81526004016103029061136a565b610e4184610e8a565b610e5d5760405162461bcd60e51b8152600401610302906113d8565b50506001600160a01b03918216600090815260096020908152604080832093909416825291909152205490565b60006001600160a01b038216610eb25760405162461bcd60e51b81526004016103029061136a565b506001600160a01b03166000908152600a602052604090205460ff1690565b600080610ede83856114ab565b9150505b92915050565b600081831015610f6e5760405162461bcd60e51b815260206004820152604560248201527f4c696272617279206572726f723a205365636f6e6420706172616d657465722060448201527f73686f756c64206265206c657373206f7220657175616c20746f20746865206660648201526434b939ba1760d91b608482015260a401610302565b6000610ede83856114c3565b6000610f8a600254836011611103565b905060005b600054811015610ffc578160016000808481548110610fb057610fb06114da565b60009182526020808320909101546001600160a01b0316835282019290925260400181208054909190610fe49084906114ab565b90915550819050610ff4816114f0565b915050610f8f565b505050565b600080611012600354846011611103565b9392505050565b600080611012600454846011611103565b600061103742603c61146a565b61104290603c61146a565b61104d90601861146a565b61105890600761146a565b60105460165460405162e8e33760e81b815230600482018190526001600160a01b039283166024830152604482018790526064820187905260006084830181905260a483015260c482015260e48101849052929350169063e8e3370090610104016060604051808303816000875af11580156110d8573d6000803e3d6000fd5b505050506040513d601f19601f820116820180604052508101906110fc919061150b565b5050505050565b60008160028110156111635760405162461bcd60e51b815260206004820152602360248201527f53796e746178204572726f723a2054686973206973206f7574206f6620706c6160448201526231b29760e91b6064820152608401610302565b600084116111bf5760405162461bcd60e51b815260206004820152602360248201527f4c696272617279204572726f722c205a65726f206469766973696f6e2065727260448201526237b91760e91b6064820152608401610302565b600060646111ce85600a61161d565b6111d8878961146a565b6111e2919061146a565b6111ec9190611629565b9695505050505050565b600060208083528351808285015260005b8181101561122357858101830151858201604001528201611207565b81811115611235576000604083870101525b50601f01601f1916929092016040019392505050565b80356001600160a01b03811681146109e557600080fd5b6000806040838503121561127557600080fd5b61127e8361124b565b946020939093013593505050565b60006020828403121561129e57600080fd5b5035919050565b6000806000606084860312156112ba57600080fd5b6112c38461124b565b92506112d16020850161124b565b9150604084013590509250925092565b6000602082840312156112f357600080fd5b6110128261124b565b6000806040838503121561130f57600080fd5b6113188361124b565b91506113266020840161124b565b90509250929050565b600181811c9082168061134357607f821691505b6020821081141561136457634e487b7160e01b600052602260045260246000fd5b50919050565b6020808252601a908201527f4349583a2041646472657373206973203020616464726573732e000000000000604082015260600190565b60208082526018908201527f4349583a20596f752068617665206e6f20746f6b656e732e0000000000000000604082015260600190565b60208082526025908201527f4349583a204f776e657220686173206e6f20746f6b656e7320746f20616c6c6f60408201526431b0ba329760d91b606082015260800190565b60208082526019908201527f4f6e6c79206f776e65722063616e206d616b652063616c6c2e00000000000000604082015260600190565b634e487b7160e01b600052601160045260246000fd5b600081600019048311821515161561148457611484611454565b500290565b60006020828403121561149b57600080fd5b8151801515811461101257600080fd5b600082198211156114be576114be611454565b500190565b6000828210156114d5576114d5611454565b500390565b634e487b7160e01b600052603260045260246000fd5b600060001982141561150457611504611454565b5060010190565b60008060006060848603121561152057600080fd5b8351925060208401519150604084015190509250925092565b600181815b8085111561157457816000190482111561155a5761155a611454565b8085161561156757918102915b93841c939080029061153e565b509250929050565b60008261158b57506001610ee2565b8161159857506000610ee2565b81600181146115ae57600281146115b8576115d4565b6001915050610ee2565b60ff8411156115c9576115c9611454565b50506001821b610ee2565b5060208310610133831016604e8410600b84101617156115f7575081810a610ee2565b6116018383611539565b806000190482111561161557611615611454565b029392505050565b6000611012838361157c565b60008261164657634e487b7160e01b600052601260045260246000fd5b50049056fea26469706673582212203b183e0d4594e42aec333ed342201b75bed6c14384921fabc2090f412ab72ad964736f6c634300080c0033",
  "bytecodeSha1": "bfe13c20dbdd00c6daf461cfda93850a13bab470",
  "compiler": {
    "evm_version": "istanbul",
    "optimizer": {
      "enabled": true,
      "runs": 200
    },
    "version": "0.8.12+commit.f00d7308"
  },
  "contractName": "Cix",
  "language": "Solidity",
  "natspec": {
    "kind": "dev",
    "methods": {
      "allowance(address,address)": {
        "details": "Returns the remaining number of tokens that `spender` will be allowed to spend on behalf of `owner` through {transferFrom}. This is zero by default. This value changes when {approve} or {transferFrom} are called."
      },
      "approve(address,uint256)": {
        "details": "Sets `amount` as the allowance of `spender` over the caller's tokens. Returns a boolean value indicating whether the operation succeeded. IMPORTANT: Beware that changing an allowance with this method brings the risk that someone may use both the old and the new allowance by unfortunate transaction ordering. One possible solution to mitigate this race condition is to first reduce the spender's allowance to 0 and set the desired value afterwards: https://github.com/ethereum/EIPs/issues/20#issuecomment-263524729 Emits an {Approval} event."
      },
      "balanceOf(address)": {
        "details": "Returns the amount of tokens owned by `account`."
      },
      "totalSupply()": {
        "details": "Returns the amount of tokens in existence."
      },
      "transfer(address,uint256)": {
        "details": "Moves `amount` tokens from the caller's account to `to`. Returns a boolean value indicating whether the operation succeeded. Emits a {Transfer} event."
      },
      "transferFrom(address,address,uint256)": {
        "details": "Moves `amount` tokens from `from` to `to` using the allowance mechanism. `amount` is then deducted from the caller's allowance. Returns a boolean value indicating whether the operation succeeded. Emits a {Transfer} event."
      }
    },
    "version": 1
  },
  "opcodes": "PUSH1 0x80 PUSH1 0x40 MSTORE CALLVALUE DUP1 ISZERO PUSH2 0x10 JUMPI PUSH1 0x0 DUP1 REVERT JUMPDEST POP PUSH1 0x4 CALLDATASIZE LT PUSH2 0x100 JUMPI PUSH1 0x0 CALLDATALOAD PUSH1 0xE0 SHR DUP1 PUSH4 0x643ED2B6 GT PUSH2 0x97 JUMPI DUP1 PUSH4 0x95D89B41 GT PUSH2 0x66 JUMPI DUP1 PUSH4 0x95D89B41 EQ PUSH2 0x202 JUMPI DUP1 PUSH4 0xA9059CBB EQ PUSH2 0x20A JUMPI DUP1 PUSH4 0xB75E9EAC EQ PUSH2 0x21D JUMPI DUP1 PUSH4 0xDD62ED3E EQ PUSH2 0x230 JUMPI PUSH1 0x0 DUP1 REVERT JUMPDEST DUP1 PUSH4 0x643ED2B6 EQ PUSH2 0x1B6 JUMPI DUP1 PUSH4 0x70A08231 EQ PUSH2 0x1C9 JUMPI DUP1 PUSH4 0x70D66762 EQ PUSH2 0x1DC JUMPI DUP1 PUSH4 0x8D14C999 EQ PUSH2 0x1EF JUMPI PUSH1 0x0 DUP1 REVERT JUMPDEST DUP1 PUSH4 0x18160DDD GT PUSH2 0xD3 JUMPI DUP1 PUSH4 0x18160DDD EQ PUSH2 0x169 JUMPI DUP1 PUSH4 0x23B872DD EQ PUSH2 0x17B JUMPI DUP1 PUSH4 0x2B3BC01B EQ PUSH2 0x18E JUMPI DUP1 PUSH4 0x313CE567 EQ PUSH2 0x1A1 JUMPI PUSH1 0x0 DUP1 REVERT JUMPDEST DUP1 PUSH4 0x6FDDE03 EQ PUSH2 0x105 JUMPI DUP1 PUSH4 0x95EA7B3 EQ PUSH2 0x123 JUMPI DUP1 PUSH4 0xA08B203 EQ PUSH2 0x146 JUMPI DUP1 PUSH4 0x119DF25F EQ PUSH2 0x15B JUMPI JUMPDEST PUSH1 0x0 DUP1 REVERT JUMPDEST PUSH2 0x10D PUSH2 0x243 JUMP JUMPDEST PUSH1 0x40 MLOAD PUSH2 0x11A SWAP2 SWAP1 PUSH2 0x11F6 JUMP JUMPDEST PUSH1 0x40 MLOAD DUP1 SWAP2 SUB SWAP1 RETURN JUMPDEST PUSH2 0x136 PUSH2 0x131 CALLDATASIZE PUSH1 0x4 PUSH2 0x1262 JUMP JUMPDEST PUSH2 0x2D9 JUMP JUMPDEST PUSH1 0x40 MLOAD SWAP1 ISZERO ISZERO DUP2 MSTORE PUSH1 0x20 ADD PUSH2 0x11A JUMP JUMPDEST PUSH2 0x159 PUSH2 0x154 CALLDATASIZE PUSH1 0x4 PUSH2 0x128C JUMP JUMPDEST PUSH2 0x4A4 JUMP JUMPDEST STOP JUMPDEST PUSH1 0x40 MLOAD CALLER DUP2 MSTORE PUSH1 0x20 ADD PUSH2 0x11A JUMP JUMPDEST PUSH1 0xE SLOAD JUMPDEST PUSH1 0x40 MLOAD SWAP1 DUP2 MSTORE PUSH1 0x20 ADD PUSH2 0x11A JUMP JUMPDEST PUSH2 0x136 PUSH2 0x189 CALLDATASIZE PUSH1 0x4 PUSH2 0x12A5 JUMP JUMPDEST PUSH2 0x4E8 JUMP JUMPDEST PUSH2 0x159 PUSH2 0x19C CALLDATASIZE PUSH1 0x4 PUSH2 0x128C JUMP JUMPDEST PUSH2 0x737 JUMP JUMPDEST PUSH1 0xD SLOAD PUSH1 0x40 MLOAD PUSH1 0xFF SWAP1 SWAP2 AND DUP2 MSTORE PUSH1 0x20 ADD PUSH2 0x11A JUMP JUMPDEST PUSH2 0x159 PUSH2 0x1C4 CALLDATASIZE PUSH1 0x4 PUSH2 0x128C JUMP JUMPDEST PUSH2 0x906 JUMP JUMPDEST PUSH2 0x16D PUSH2 0x1D7 CALLDATASIZE PUSH1 0x4 PUSH2 0x12E1 JUMP JUMPDEST PUSH2 0x94A JUMP JUMPDEST PUSH2 0x159 PUSH2 0x1EA CALLDATASIZE PUSH1 0x4 PUSH2 0x128C JUMP JUMPDEST PUSH2 0x9EA JUMP JUMPDEST PUSH2 0x159 PUSH2 0x1FD CALLDATASIZE PUSH1 0x4 PUSH2 0x128C JUMP JUMPDEST PUSH2 0xA2E JUMP JUMPDEST PUSH2 0x10D PUSH2 0xA72 JUMP JUMPDEST PUSH2 0x136 PUSH2 0x218 CALLDATASIZE PUSH1 0x4 PUSH2 0x1262 JUMP JUMPDEST PUSH2 0xA83 JUMP JUMPDEST PUSH2 0x159 PUSH2 0x22B CALLDATASIZE PUSH1 0x4 PUSH2 0x128C JUMP JUMPDEST PUSH2 0xDAE JUMP JUMPDEST PUSH2 0x16D PUSH2 0x23E CALLDATASIZE PUSH1 0x4 PUSH2 0x12FC JUMP JUMPDEST PUSH2 0xDF2 JUMP JUMPDEST PUSH1 0x60 PUSH1 0x0 PUSH1 0xB DUP1 SLOAD PUSH2 0x254 SWAP1 PUSH2 0x132F JUMP JUMPDEST DUP1 PUSH1 0x1F ADD PUSH1 0x20 DUP1 SWAP2 DIV MUL PUSH1 0x20 ADD PUSH1 0x40 MLOAD SWAP1 DUP2 ADD PUSH1 0x40 MSTORE DUP1 SWAP3 SWAP2 SWAP1 DUP2 DUP2 MSTORE PUSH1 0x20 ADD DUP3 DUP1 SLOAD PUSH2 0x280 SWAP1 PUSH2 0x132F JUMP JUMPDEST DUP1 ISZERO PUSH2 0x2CD JUMPI DUP1 PUSH1 0x1F LT PUSH2 0x2A2 JUMPI PUSH2 0x100 DUP1 DUP4 SLOAD DIV MUL DUP4 MSTORE SWAP2 PUSH1 0x20 ADD SWAP2 PUSH2 0x2CD JUMP JUMPDEST DUP3 ADD SWAP2 SWAP1 PUSH1 0x0 MSTORE PUSH1 0x20 PUSH1 0x0 KECCAK256 SWAP1 JUMPDEST DUP2 SLOAD DUP2 MSTORE SWAP1 PUSH1 0x1 ADD SWAP1 PUSH1 0x20 ADD DUP1 DUP4 GT PUSH2 0x2B0 JUMPI DUP3 SWAP1 SUB PUSH1 0x1F AND DUP3 ADD SWAP2 JUMPDEST POP SWAP4 SWAP7 SWAP6 POP POP POP POP POP POP JUMP JUMPDEST PUSH1 0x0 DUP3 PUSH1 0x1 PUSH1 0x1 PUSH1 0xA0 SHL SUB DUP2 AND PUSH2 0x30B JUMPI PUSH1 0x40 MLOAD PUSH3 0x461BCD PUSH1 0xE5 SHL DUP2 MSTORE PUSH1 0x4 ADD PUSH2 0x302 SWAP1 PUSH2 0x136A JUMP JUMPDEST PUSH1 0x40 MLOAD DUP1 SWAP2 SUB SWAP1 REVERT JUMPDEST CALLER PUSH1 0x0 SWAP1 DUP2 MSTORE PUSH1 0xA PUSH1 0x20 MSTORE PUSH1 0x40 SWAP1 KECCAK256 SLOAD PUSH1 0xFF AND DUP1 PUSH2 0x33B JUMPI PUSH1 0x40 MLOAD PUSH3 0x461BCD PUSH1 0xE5 SHL DUP2 MSTORE PUSH1 0x4 ADD PUSH2 0x302 SWAP1 PUSH2 0x13A1 JUMP JUMPDEST PUSH2 0x344 CALLER PUSH2 0xE8A JUMP JUMPDEST PUSH2 0x360 JUMPI PUSH1 0x40 MLOAD PUSH3 0x461BCD PUSH1 0xE5 SHL DUP2 MSTORE PUSH1 0x4 ADD PUSH2 0x302 SWAP1 PUSH2 0x13D8 JUMP JUMPDEST PUSH1 0x0 DUP5 GT PUSH2 0x3B0 JUMPI PUSH1 0x40 MLOAD PUSH3 0x461BCD PUSH1 0xE5 SHL DUP2 MSTORE PUSH1 0x20 PUSH1 0x4 DUP3 ADD DUP2 SWAP1 MSTORE PUSH1 0x24 DUP3 ADD MSTORE PUSH32 0x4349583A20596F752063616E6E6F7420616C6C6F63617465203020244349582E PUSH1 0x44 DUP3 ADD MSTORE PUSH1 0x64 ADD PUSH2 0x302 JUMP JUMPDEST CALLER PUSH1 0x0 SWAP1 DUP2 MSTORE PUSH1 0x8 PUSH1 0x20 MSTORE PUSH1 0x40 SWAP1 KECCAK256 SLOAD DUP5 GT ISZERO PUSH2 0x40F JUMPI PUSH1 0x40 MLOAD PUSH3 0x461BCD PUSH1 0xE5 SHL DUP2 MSTORE PUSH1 0x20 PUSH1 0x4 DUP3 ADD MSTORE PUSH1 0x1F PUSH1 0x24 DUP3 ADD MSTORE PUSH32 0x4349583A20596F7520646F6E74206861766520656E6F75676820244349582E00 PUSH1 0x44 DUP3 ADD MSTORE PUSH1 0x64 ADD PUSH2 0x302 JUMP JUMPDEST CALLER PUSH1 0x0 SWAP1 DUP2 MSTORE PUSH1 0x9 PUSH1 0x20 SWAP1 DUP2 MSTORE PUSH1 0x40 DUP1 DUP4 KECCAK256 PUSH1 0x1 PUSH1 0x1 PUSH1 0xA0 SHL SUB DUP10 AND DUP5 MSTORE SWAP1 SWAP2 MSTORE SWAP1 KECCAK256 SLOAD PUSH2 0x43D SWAP1 DUP6 PUSH2 0xED1 JUMP JUMPDEST CALLER PUSH1 0x0 DUP2 DUP2 MSTORE PUSH1 0x9 PUSH1 0x20 SWAP1 DUP2 MSTORE PUSH1 0x40 DUP1 DUP4 KECCAK256 PUSH1 0x1 PUSH1 0x1 PUSH1 0xA0 SHL SUB DUP12 AND DUP1 DUP6 MSTORE SWAP1 DUP4 MSTORE SWAP3 DUP2 SWAP1 KECCAK256 SWAP5 SWAP1 SWAP5 SSTORE SWAP3 MLOAD DUP8 DUP2 MSTORE SWAP1 SWAP3 PUSH32 0x8C5BE1E5EBEC7D5BD14F71427D1E84F3DD0314C0F7B2291E5B200AC8C7C3B925 SWAP2 ADD PUSH1 0x40 MLOAD DUP1 SWAP2 SUB SWAP1 LOG3 POP PUSH1 0x1 SWAP5 SWAP4 POP POP POP POP JUMP JUMPDEST PUSH1 0xF SLOAD PUSH1 0x1 PUSH1 0x1 PUSH1 0xA0 SHL SUB AND CALLER PUSH1 0x1 PUSH1 0x1 PUSH1 0xA0 SHL SUB AND EQ PUSH2 0x4D7 JUMPI PUSH1 0x40 MLOAD PUSH3 0x461BCD PUSH1 0xE5 SHL DUP2 MSTORE PUSH1 0x4 ADD PUSH2 0x302 SWAP1 PUSH2 0x141D JUMP JUMPDEST PUSH2 0x4E2 DUP2 PUSH1 0xA PUSH2 0x146A JUMP JUMPDEST PUSH1 0x5 SSTORE POP JUMP JUMPDEST PUSH1 0x0 DUP3 PUSH1 0x1 PUSH1 0x1 PUSH1 0xA0 SHL SUB DUP2 AND PUSH2 0x511 JUMPI PUSH1 0x40 MLOAD PUSH3 0x461BCD PUSH1 0xE5 SHL DUP2 MSTORE PUSH1 0x4 ADD PUSH2 0x302 SWAP1 PUSH2 0x136A JUMP JUMPDEST CALLER PUSH1 0x0 SWAP1 DUP2 MSTORE PUSH1 0xA PUSH1 0x20 MSTORE PUSH1 0x40 SWAP1 KECCAK256 SLOAD PUSH1 0xFF AND DUP1 PUSH2 0x541 JUMPI PUSH1 0x40 MLOAD PUSH3 0x461BCD PUSH1 0xE5 SHL DUP2 MSTORE PUSH1 0x4 ADD PUSH2 0x302 SWAP1 PUSH2 0x13A1 JUMP JUMPDEST PUSH1 0x1 PUSH1 0x1 PUSH1 0xA0 SHL SUB DUP7 AND PUSH1 0x0 SWAP1 DUP2 MSTORE PUSH1 0x8 PUSH1 0x20 MSTORE PUSH1 0x40 SWAP1 KECCAK256 SLOAD DUP5 GT ISZERO PUSH2 0x5BA JUMPI PUSH1 0x40 MLOAD PUSH3 0x461BCD PUSH1 0xE5 SHL DUP2 MSTORE PUSH1 0x20 PUSH1 0x4 DUP3 ADD MSTORE PUSH1 0x28 PUSH1 0x24 DUP3 ADD MSTORE PUSH32 0x4349583A20546865206066726F6D6020646F65736E74206861766520656E6F75 PUSH1 0x44 DUP3 ADD MSTORE PUSH8 0x33B4101221A4AC17 PUSH1 0xC1 SHL PUSH1 0x64 DUP3 ADD MSTORE PUSH1 0x84 ADD PUSH2 0x302 JUMP JUMPDEST PUSH1 0x1 PUSH1 0x1 PUSH1 0xA0 SHL SUB DUP7 AND PUSH1 0x0 SWAP1 DUP2 MSTORE PUSH1 0x9 PUSH1 0x20 SWAP1 DUP2 MSTORE PUSH1 0x40 DUP1 DUP4 KECCAK256 CALLER DUP5 MSTORE SWAP1 SWAP2 MSTORE SWAP1 KECCAK256 SLOAD DUP5 GT ISZERO PUSH2 0x63D JUMPI PUSH1 0x40 MLOAD PUSH3 0x461BCD PUSH1 0xE5 SHL DUP2 MSTORE PUSH1 0x20 PUSH1 0x4 DUP3 ADD MSTORE PUSH1 0x27 PUSH1 0x24 DUP3 ADD MSTORE PUSH32 0x4349583A20596F7520617265206E6F7420616C6C6F636174656420656E6F7567 PUSH1 0x44 DUP3 ADD MSTORE PUSH7 0x34101221A4AC17 PUSH1 0xC9 SHL PUSH1 0x64 DUP3 ADD MSTORE PUSH1 0x84 ADD PUSH2 0x302 JUMP JUMPDEST PUSH1 0x1 PUSH1 0x1 PUSH1 0xA0 SHL SUB DUP7 AND PUSH1 0x0 SWAP1 DUP2 MSTORE PUSH1 0x8 PUSH1 0x20 MSTORE PUSH1 0x40 SWAP1 KECCAK256 SLOAD PUSH2 0x660 SWAP1 DUP6 PUSH2 0xEE8 JUMP JUMPDEST PUSH1 0x1 PUSH1 0x1 PUSH1 0xA0 SHL SUB DUP1 DUP9 AND PUSH1 0x0 SWAP1 DUP2 MSTORE PUSH1 0x8 PUSH1 0x20 MSTORE PUSH1 0x40 DUP1 DUP3 KECCAK256 SWAP4 SWAP1 SWAP4 SSTORE SWAP1 DUP8 AND DUP2 MSTORE KECCAK256 SLOAD PUSH2 0x68F SWAP1 DUP6 PUSH2 0xED1 JUMP JUMPDEST PUSH1 0x1 PUSH1 0x1 PUSH1 0xA0 SHL SUB DUP7 DUP2 AND PUSH1 0x0 SWAP1 DUP2 MSTORE PUSH1 0x8 PUSH1 0x20 SWAP1 DUP2 MSTORE PUSH1 0x40 DUP1 DUP4 KECCAK256 SWAP5 SWAP1 SWAP5 SSTORE SWAP2 DUP10 AND DUP2 MSTORE PUSH1 0x9 DUP3 MSTORE DUP3 DUP2 KECCAK256 CALLER DUP3 MSTORE SWAP1 SWAP2 MSTORE KECCAK256 SLOAD PUSH2 0x6CD SWAP1 DUP6 PUSH2 0xEE8 JUMP JUMPDEST PUSH1 0x1 PUSH1 0x1 PUSH1 0xA0 SHL SUB DUP8 DUP2 AND PUSH1 0x0 DUP2 DUP2 MSTORE PUSH1 0x9 PUSH1 0x20 SWAP1 DUP2 MSTORE PUSH1 0x40 DUP1 DUP4 KECCAK256 CALLER DUP5 MSTORE DUP3 MSTORE SWAP2 DUP3 SWAP1 KECCAK256 SWAP5 SWAP1 SWAP5 SSTORE MLOAD DUP8 DUP2 MSTORE SWAP2 DUP9 AND SWAP3 SWAP1 SWAP2 PUSH32 0xDDF252AD1BE2C89B69C2B068FC378DAA952BA7F163C4A11628F55A4DF523B3EF SWAP2 ADD PUSH1 0x40 MLOAD DUP1 SWAP2 SUB SWAP1 LOG3 POP PUSH1 0x1 SWAP6 SWAP5 POP POP POP POP POP JUMP JUMPDEST CALLER PUSH2 0x79B JUMPI PUSH1 0x40 MLOAD PUSH3 0x461BCD PUSH1 0xE5 SHL DUP2 MSTORE PUSH1 0x20 PUSH1 0x4 DUP3 ADD MSTORE PUSH1 0x2E PUSH1 0x24 DUP3 ADD MSTORE PUSH32 0x24434958202D204572726F72203A3A2043616C6C657220616464726573732069 PUSH1 0x44 DUP3 ADD MSTORE PUSH14 0x39903090181030B2323932B9B997 PUSH1 0x91 SHL PUSH1 0x64 DUP3 ADD MSTORE PUSH1 0x84 ADD PUSH2 0x302 JUMP JUMPDEST CALLER PUSH1 0x0 SWAP1 DUP2 MSTORE PUSH1 0x1 PUSH1 0x20 MSTORE PUSH1 0x40 SWAP1 KECCAK256 SLOAD DUP2 GT ISZERO PUSH2 0x80F JUMPI PUSH1 0x40 MLOAD PUSH3 0x461BCD PUSH1 0xE5 SHL DUP2 MSTORE PUSH1 0x20 PUSH1 0x4 DUP3 ADD MSTORE PUSH1 0x2C PUSH1 0x24 DUP3 ADD MSTORE PUSH32 0x24434958202D204572726F72203A3A2043616E6E6F7420776974686472617720 PUSH1 0x44 DUP3 ADD MSTORE PUSH12 0x3A3434B99030B6B7BAB73A17 PUSH1 0xA1 SHL PUSH1 0x64 DUP3 ADD MSTORE PUSH1 0x84 ADD PUSH2 0x302 JUMP JUMPDEST PUSH1 0x40 MLOAD PUSH4 0xA9059CBB PUSH1 0xE0 SHL DUP2 MSTORE CALLER PUSH1 0x4 DUP3 ADD MSTORE PUSH1 0x24 DUP2 ADD DUP3 SWAP1 MSTORE PUSH20 0x770861CDCDDF8319C6C86EF8EF91C4A922FC12AC SWAP1 PUSH1 0x0 SWAP1 DUP3 SWAP1 PUSH4 0xA9059CBB SWAP1 PUSH1 0x44 ADD PUSH1 0x20 PUSH1 0x40 MLOAD DUP1 DUP4 SUB DUP2 PUSH1 0x0 DUP8 GAS CALL ISZERO DUP1 ISZERO PUSH2 0x86C JUMPI RETURNDATASIZE PUSH1 0x0 DUP1 RETURNDATACOPY RETURNDATASIZE PUSH1 0x0 REVERT JUMPDEST POP POP POP POP PUSH1 0x40 MLOAD RETURNDATASIZE PUSH1 0x1F NOT PUSH1 0x1F DUP3 ADD AND DUP3 ADD DUP1 PUSH1 0x40 MSTORE POP DUP2 ADD SWAP1 PUSH2 0x890 SWAP2 SWAP1 PUSH2 0x1489 JUMP JUMPDEST SWAP1 POP DUP1 PUSH2 0x8D7 JUMPI PUSH1 0x40 MLOAD PUSH3 0x461BCD PUSH1 0xE5 SHL DUP2 MSTORE PUSH1 0x20 PUSH1 0x4 DUP3 ADD MSTORE PUSH1 0x15 PUSH1 0x24 DUP3 ADD MSTORE PUSH21 0x1221A4AC1D102A37B5B2B7103737BA1039B2B73A17 PUSH1 0x59 SHL PUSH1 0x44 DUP3 ADD MSTORE PUSH1 0x64 ADD PUSH2 0x302 JUMP JUMPDEST CALLER PUSH1 0x0 SWAP1 DUP2 MSTORE PUSH1 0x1 PUSH1 0x20 MSTORE PUSH1 0x40 SWAP1 KECCAK256 SLOAD PUSH2 0x8F1 SWAP1 DUP5 PUSH2 0xEE8 JUMP JUMPDEST CALLER PUSH1 0x0 SWAP1 DUP2 MSTORE PUSH1 0x1 PUSH1 0x20 MSTORE PUSH1 0x40 SWAP1 KECCAK256 SSTORE POP POP POP JUMP JUMPDEST PUSH1 0xF SLOAD PUSH1 0x1 PUSH1 0x1 PUSH1 0xA0 SHL SUB AND CALLER PUSH1 0x1 PUSH1 0x1 PUSH1 0xA0 SHL SUB AND EQ PUSH2 0x939 JUMPI PUSH1 0x40 MLOAD PUSH3 0x461BCD PUSH1 0xE5 SHL DUP2 MSTORE PUSH1 0x4 ADD PUSH2 0x302 SWAP1 PUSH2 0x141D JUMP JUMPDEST PUSH2 0x944 DUP2 PUSH1 0xA PUSH2 0x146A JUMP JUMPDEST PUSH1 0x6 SSTORE POP JUMP JUMPDEST PUSH1 0x0 CALLER PUSH2 0x969 JUMPI PUSH1 0x40 MLOAD PUSH3 0x461BCD PUSH1 0xE5 SHL DUP2 MSTORE PUSH1 0x4 ADD PUSH2 0x302 SWAP1 PUSH2 0x136A JUMP JUMPDEST PUSH2 0x972 DUP3 PUSH2 0xE8A JUMP JUMPDEST PUSH2 0x9CA JUMPI PUSH1 0x40 MLOAD PUSH3 0x461BCD PUSH1 0xE5 SHL DUP2 MSTORE PUSH1 0x20 PUSH1 0x4 DUP3 ADD MSTORE PUSH1 0x24 DUP1 DUP3 ADD MSTORE PUSH32 0x4349583A204164647265737320646F65736E2774206F776E20616E7920746F6B PUSH1 0x44 DUP3 ADD MSTORE PUSH4 0x32B73997 PUSH1 0xE1 SHL PUSH1 0x64 DUP3 ADD MSTORE PUSH1 0x84 ADD PUSH2 0x302 JUMP JUMPDEST POP PUSH1 0x1 PUSH1 0x1 PUSH1 0xA0 SHL SUB DUP2 AND PUSH1 0x0 SWAP1 DUP2 MSTORE PUSH1 0x8 PUSH1 0x20 MSTORE PUSH1 0x40 SWAP1 KECCAK256 SLOAD JUMPDEST SWAP2 SWAP1 POP JUMP JUMPDEST PUSH1 0xF SLOAD PUSH1 0x1 PUSH1 0x1 PUSH1 0xA0 SHL SUB AND CALLER PUSH1 0x1 PUSH1 0x1 PUSH1 0xA0 SHL SUB AND EQ PUSH2 0xA1D JUMPI PUSH1 0x40 MLOAD PUSH3 0x461BCD PUSH1 0xE5 SHL DUP2 MSTORE PUSH1 0x4 ADD PUSH2 0x302 SWAP1 PUSH2 0x141D JUMP JUMPDEST PUSH2 0xA28 DUP2 PUSH1 0xA PUSH2 0x146A JUMP JUMPDEST PUSH1 0x3 SSTORE POP JUMP JUMPDEST PUSH1 0xF SLOAD PUSH1 0x1 PUSH1 0x1 PUSH1 0xA0 SHL SUB AND CALLER PUSH1 0x1 PUSH1 0x1 PUSH1 0xA0 SHL SUB AND EQ PUSH2 0xA61 JUMPI PUSH1 0x40 MLOAD PUSH3 0x461BCD PUSH1 0xE5 SHL DUP2 MSTORE PUSH1 0x4 ADD PUSH2 0x302 SWAP1 PUSH2 0x141D JUMP JUMPDEST PUSH2 0xA6C DUP2 PUSH1 0xA PUSH2 0x146A JUMP JUMPDEST PUSH1 0x4 SSTORE POP JUMP JUMPDEST PUSH1 0x60 PUSH1 0x0 PUSH1 0xC DUP1 SLOAD PUSH2 0x254 SWAP1 PUSH2 0x132F JUMP JUMPDEST PUSH1 0x0 CALLER PUSH2 0xAA2 JUMPI PUSH1 0x40 MLOAD PUSH3 0x461BCD PUSH1 0xE5 SHL DUP2 MSTORE PUSH1 0x4 ADD PUSH2 0x302 SWAP1 PUSH2 0x136A JUMP JUMPDEST DUP3 PUSH1 0x1 PUSH1 0x1 PUSH1 0xA0 SHL SUB DUP2 AND PUSH2 0xAC9 JUMPI PUSH1 0x40 MLOAD PUSH3 0x461BCD PUSH1 0xE5 SHL DUP2 MSTORE PUSH1 0x4 ADD PUSH2 0x302 SWAP1 PUSH2 0x136A JUMP JUMPDEST CALLER PUSH1 0x0 SWAP1 DUP2 MSTORE PUSH1 0xA PUSH1 0x20 MSTORE PUSH1 0x40 SWAP1 KECCAK256 SLOAD PUSH1 0xFF AND DUP1 PUSH2 0xAF9 JUMPI PUSH1 0x40 MLOAD PUSH3 0x461BCD PUSH1 0xE5 SHL DUP2 MSTORE PUSH1 0x4 ADD PUSH2 0x302 SWAP1 PUSH2 0x13A1 JUMP JUMPDEST CALLER PUSH1 0x0 DUP2 DUP2 MSTORE PUSH1 0x8 PUSH1 0x20 MSTORE PUSH1 0x40 SWAP1 KECCAK256 SLOAD DUP6 GT ISZERO PUSH2 0xB58 JUMPI PUSH1 0x40 MLOAD PUSH3 0x461BCD PUSH1 0xE5 SHL DUP2 MSTORE PUSH1 0x20 PUSH1 0x4 DUP3 ADD MSTORE PUSH1 0x1F PUSH1 0x24 DUP3 ADD MSTORE PUSH32 0x4349583A20596F7520646F6E74206861766520656E6F75676820244349582E00 PUSH1 0x44 DUP3 ADD MSTORE PUSH1 0x64 ADD PUSH2 0x302 JUMP JUMPDEST PUSH1 0x0 DUP6 GT PUSH2 0xBA8 JUMPI PUSH1 0x40 MLOAD PUSH3 0x461BCD PUSH1 0xE5 SHL DUP2 MSTORE PUSH1 0x20 PUSH1 0x4 DUP3 ADD MSTORE PUSH1 0x1C PUSH1 0x24 DUP3 ADD MSTORE PUSH32 0x4349583A20596F752063616E6E6F742073656E64203020244349582E00000000 PUSH1 0x44 DUP3 ADD MSTORE PUSH1 0x64 ADD PUSH2 0x302 JUMP JUMPDEST DUP6 PUSH1 0x1 PUSH1 0x1 PUSH1 0xA0 SHL SUB AND DUP2 PUSH1 0x1 PUSH1 0x1 PUSH1 0xA0 SHL SUB AND EQ ISZERO PUSH2 0xC14 JUMPI PUSH1 0x40 MLOAD PUSH3 0x461BCD PUSH1 0xE5 SHL DUP2 MSTORE PUSH1 0x20 PUSH1 0x4 DUP3 ADD MSTORE PUSH1 0x21 PUSH1 0x24 DUP3 ADD MSTORE PUSH32 0x4349583A20596F752063616E6E6F742073656E6420746F20796F757273656C66 PUSH1 0x44 DUP3 ADD MSTORE PUSH1 0x17 PUSH1 0xF9 SHL PUSH1 0x64 DUP3 ADD MSTORE PUSH1 0x84 ADD PUSH2 0x302 JUMP JUMPDEST PUSH1 0x1 PUSH1 0x1 PUSH1 0xA0 SHL SUB DUP2 AND PUSH1 0x0 SWAP1 DUP2 MSTORE PUSH1 0x8 PUSH1 0x20 MSTORE PUSH1 0x40 SWAP1 KECCAK256 SLOAD PUSH2 0xC37 SWAP1 DUP7 PUSH2 0xEE8 JUMP JUMPDEST PUSH1 0x1 PUSH1 0x1 PUSH1 0xA0 SHL SUB DUP1 DUP4 AND PUSH1 0x0 SWAP1 DUP2 MSTORE PUSH1 0x8 PUSH1 0x20 MSTORE PUSH1 0x40 DUP1 DUP3 KECCAK256 SWAP4 SWAP1 SWAP4 SSTORE SWAP1 DUP9 AND DUP2 MSTORE KECCAK256 SLOAD PUSH2 0xC66 SWAP1 DUP7 PUSH2 0xED1 JUMP JUMPDEST PUSH1 0x1 PUSH1 0x1 PUSH1 0xA0 SHL SUB DUP8 AND PUSH1 0x0 SWAP1 DUP2 MSTORE PUSH1 0x8 PUSH1 0x20 SWAP1 DUP2 MSTORE PUSH1 0x40 DUP1 DUP4 KECCAK256 SWAP4 SWAP1 SWAP4 SSTORE PUSH1 0xA SWAP1 MSTORE KECCAK256 DUP1 SLOAD PUSH1 0xFF NOT AND PUSH1 0x1 OR SWAP1 SSTORE PUSH2 0xC9E DUP6 PUSH2 0xF7A JUMP JUMPDEST PUSH1 0x0 PUSH2 0xCA9 DUP7 PUSH2 0x1001 JUMP JUMPDEST SWAP1 POP PUSH1 0x0 PUSH2 0xCB6 DUP8 PUSH2 0x1019 JUMP JUMPDEST SWAP1 POP PUSH1 0x0 PUSH2 0xCC3 DUP9 PUSH2 0x1019 JUMP JUMPDEST PUSH1 0x13 SLOAD PUSH1 0x1 PUSH1 0x1 PUSH1 0xA0 SHL SUB AND PUSH1 0x0 SWAP1 DUP2 MSTORE PUSH1 0x8 PUSH1 0x20 MSTORE PUSH1 0x40 DUP2 KECCAK256 DUP1 SLOAD SWAP3 SWAP4 POP DUP6 SWAP3 SWAP1 SWAP2 SWAP1 PUSH2 0xCF2 SWAP1 DUP5 SWAP1 PUSH2 0x14AB JUMP JUMPDEST SWAP1 SWAP2 SSTORE POP POP PUSH1 0x15 SLOAD PUSH1 0x1 PUSH1 0x1 PUSH1 0xA0 SHL SUB AND PUSH1 0x0 SWAP1 DUP2 MSTORE PUSH1 0x8 PUSH1 0x20 MSTORE PUSH1 0x40 DUP2 KECCAK256 DUP1 SLOAD DUP5 SWAP3 SWAP1 PUSH2 0xD21 SWAP1 DUP5 SWAP1 PUSH2 0x14AB JUMP JUMPDEST SWAP1 SWAP2 SSTORE POP POP PUSH1 0x14 SLOAD PUSH1 0x1 PUSH1 0x1 PUSH1 0xA0 SHL SUB AND PUSH1 0x0 SWAP1 DUP2 MSTORE PUSH1 0x8 PUSH1 0x20 MSTORE PUSH1 0x40 DUP2 KECCAK256 DUP1 SLOAD DUP4 SWAP3 SWAP1 PUSH2 0xD50 SWAP1 DUP5 SWAP1 PUSH2 0x14AB JUMP JUMPDEST SWAP1 SWAP2 SSTORE POP PUSH2 0xD5F SWAP1 POP DUP9 PUSH2 0x102A JUMP JUMPDEST PUSH1 0x40 MLOAD DUP9 DUP2 MSTORE PUSH1 0x1 PUSH1 0x1 PUSH1 0xA0 SHL SUB DUP11 AND SWAP1 CALLER SWAP1 PUSH32 0xDDF252AD1BE2C89B69C2B068FC378DAA952BA7F163C4A11628F55A4DF523B3EF SWAP1 PUSH1 0x20 ADD PUSH1 0x40 MLOAD DUP1 SWAP2 SUB SWAP1 LOG3 POP PUSH1 0x1 SWAP9 SWAP8 POP POP POP POP POP POP POP POP JUMP JUMPDEST PUSH1 0xF SLOAD PUSH1 0x1 PUSH1 0x1 PUSH1 0xA0 SHL SUB AND CALLER PUSH1 0x1 PUSH1 0x1 PUSH1 0xA0 SHL SUB AND EQ PUSH2 0xDE1 JUMPI PUSH1 0x40 MLOAD PUSH3 0x461BCD PUSH1 0xE5 SHL DUP2 MSTORE PUSH1 0x4 ADD PUSH2 0x302 SWAP1 PUSH2 0x141D JUMP JUMPDEST PUSH2 0xDEC DUP2 PUSH1 0xA PUSH2 0x146A JUMP JUMPDEST PUSH1 0x2 SSTORE POP JUMP JUMPDEST PUSH1 0x0 CALLER PUSH2 0xE11 JUMPI PUSH1 0x40 MLOAD PUSH3 0x461BCD PUSH1 0xE5 SHL DUP2 MSTORE PUSH1 0x4 ADD PUSH2 0x302 SWAP1 PUSH2 0x136A JUMP JUMPDEST DUP2 PUSH1 0x1 PUSH1 0x1 PUSH1 0xA0 SHL SUB DUP2 AND PUSH2 0xE38 JUMPI PUSH1 0x40 MLOAD PUSH3 0x461BCD PUSH1 0xE5 SHL DUP2 MSTORE PUSH1 0x4 ADD PUSH2 0x302 SWAP1 PUSH2 0x136A JUMP JUMPDEST PUSH2 0xE41 DUP5 PUSH2 0xE8A JUMP JUMPDEST PUSH2 0xE5D JUMPI PUSH1 0x40 MLOAD PUSH3 0x461BCD PUSH1 0xE5 SHL DUP2 MSTORE PUSH1 0x4 ADD PUSH2 0x302 SWAP1 PUSH2 0x13D8 JUMP JUMPDEST POP POP PUSH1 0x1 PUSH1 0x1 PUSH1 0xA0 SHL SUB SWAP2 DUP3 AND PUSH1 0x0 SWAP1 DUP2 MSTORE PUSH1 0x9 PUSH1 0x20 SWAP1 DUP2 MSTORE PUSH1 0x40 DUP1 DUP4 KECCAK256 SWAP4 SWAP1 SWAP5 AND DUP3 MSTORE SWAP2 SWAP1 SWAP2 MSTORE KECCAK256 SLOAD SWAP1 JUMP JUMPDEST PUSH1 0x0 PUSH1 0x1 PUSH1 0x1 PUSH1 0xA0 SHL SUB DUP3 AND PUSH2 0xEB2 JUMPI PUSH1 0x40 MLOAD PUSH3 0x461BCD PUSH1 0xE5 SHL DUP2 MSTORE PUSH1 0x4 ADD PUSH2 0x302 SWAP1 PUSH2 0x136A JUMP JUMPDEST POP PUSH1 0x1 PUSH1 0x1 PUSH1 0xA0 SHL SUB AND PUSH1 0x0 SWAP1 DUP2 MSTORE PUSH1 0xA PUSH1 0x20 MSTORE PUSH1 0x40 SWAP1 KECCAK256 SLOAD PUSH1 0xFF AND SWAP1 JUMP JUMPDEST PUSH1 0x0 DUP1 PUSH2 0xEDE DUP4 DUP6 PUSH2 0x14AB JUMP JUMPDEST SWAP2 POP POP JUMPDEST SWAP3 SWAP2 POP POP JUMP JUMPDEST PUSH1 0x0 DUP2 DUP4 LT ISZERO PUSH2 0xF6E JUMPI PUSH1 0x40 MLOAD PUSH3 0x461BCD PUSH1 0xE5 SHL DUP2 MSTORE PUSH1 0x20 PUSH1 0x4 DUP3 ADD MSTORE PUSH1 0x45 PUSH1 0x24 DUP3 ADD MSTORE PUSH32 0x4C696272617279206572726F723A205365636F6E6420706172616D6574657220 PUSH1 0x44 DUP3 ADD MSTORE PUSH32 0x73686F756C64206265206C657373206F7220657175616C20746F207468652066 PUSH1 0x64 DUP3 ADD MSTORE PUSH5 0x34B939BA17 PUSH1 0xD9 SHL PUSH1 0x84 DUP3 ADD MSTORE PUSH1 0xA4 ADD PUSH2 0x302 JUMP JUMPDEST PUSH1 0x0 PUSH2 0xEDE DUP4 DUP6 PUSH2 0x14C3 JUMP JUMPDEST PUSH1 0x0 PUSH2 0xF8A PUSH1 0x2 SLOAD DUP4 PUSH1 0x11 PUSH2 0x1103 JUMP JUMPDEST SWAP1 POP PUSH1 0x0 JUMPDEST PUSH1 0x0 SLOAD DUP2 LT ISZERO PUSH2 0xFFC JUMPI DUP2 PUSH1 0x1 PUSH1 0x0 DUP1 DUP5 DUP2 SLOAD DUP2 LT PUSH2 0xFB0 JUMPI PUSH2 0xFB0 PUSH2 0x14DA JUMP JUMPDEST PUSH1 0x0 SWAP2 DUP3 MSTORE PUSH1 0x20 DUP1 DUP4 KECCAK256 SWAP1 SWAP2 ADD SLOAD PUSH1 0x1 PUSH1 0x1 PUSH1 0xA0 SHL SUB AND DUP4 MSTORE DUP3 ADD SWAP3 SWAP1 SWAP3 MSTORE PUSH1 0x40 ADD DUP2 KECCAK256 DUP1 SLOAD SWAP1 SWAP2 SWAP1 PUSH2 0xFE4 SWAP1 DUP5 SWAP1 PUSH2 0x14AB JUMP JUMPDEST SWAP1 SWAP2 SSTORE POP DUP2 SWAP1 POP PUSH2 0xFF4 DUP2 PUSH2 0x14F0 JUMP JUMPDEST SWAP2 POP POP PUSH2 0xF8F JUMP JUMPDEST POP POP POP JUMP JUMPDEST PUSH1 0x0 DUP1 PUSH2 0x1012 PUSH1 0x3 SLOAD DUP5 PUSH1 0x11 PUSH2 0x1103 JUMP JUMPDEST SWAP4 SWAP3 POP POP POP JUMP JUMPDEST PUSH1 0x0 DUP1 PUSH2 0x1012 PUSH1 0x4 SLOAD DUP5 PUSH1 0x11 PUSH2 0x1103 JUMP JUMPDEST PUSH1 0x0 PUSH2 0x1037 TIMESTAMP PUSH1 0x3C PUSH2 0x146A JUMP JUMPDEST PUSH2 0x1042 SWAP1 PUSH1 0x3C PUSH2 0x146A JUMP JUMPDEST PUSH2 0x104D SWAP1 PUSH1 0x18 PUSH2 0x146A JUMP JUMPDEST PUSH2 0x1058 SWAP1 PUSH1 0x7 PUSH2 0x146A JUMP JUMPDEST PUSH1 0x10 SLOAD PUSH1 0x16 SLOAD PUSH1 0x40 MLOAD PUSH3 0xE8E337 PUSH1 0xE8 SHL DUP2 MSTORE ADDRESS PUSH1 0x4 DUP3 ADD DUP2 SWAP1 MSTORE PUSH1 0x1 PUSH1 0x1 PUSH1 0xA0 SHL SUB SWAP3 DUP4 AND PUSH1 0x24 DUP4 ADD MSTORE PUSH1 0x44 DUP3 ADD DUP8 SWAP1 MSTORE PUSH1 0x64 DUP3 ADD DUP8 SWAP1 MSTORE PUSH1 0x0 PUSH1 0x84 DUP4 ADD DUP2 SWAP1 MSTORE PUSH1 0xA4 DUP4 ADD MSTORE PUSH1 0xC4 DUP3 ADD MSTORE PUSH1 0xE4 DUP2 ADD DUP5 SWAP1 MSTORE SWAP3 SWAP4 POP AND SWAP1 PUSH4 0xE8E33700 SWAP1 PUSH2 0x104 ADD PUSH1 0x60 PUSH1 0x40 MLOAD DUP1 DUP4 SUB DUP2 PUSH1 0x0 DUP8 GAS CALL ISZERO DUP1 ISZERO PUSH2 0x10D8 JUMPI RETURNDATASIZE PUSH1 0x0 DUP1 RETURNDATACOPY RETURNDATASIZE PUSH1 0x0 REVERT JUMPDEST POP POP POP POP PUSH1 0x40 MLOAD RETURNDATASIZE PUSH1 0x1F NOT PUSH1 0x1F DUP3 ADD AND DUP3 ADD DUP1 PUSH1 0x40 MSTORE POP DUP2 ADD SWAP1 PUSH2 0x10FC SWAP2 SWAP1 PUSH2 0x150B JUMP JUMPDEST POP POP POP POP POP JUMP JUMPDEST PUSH1 0x0 DUP2 PUSH1 0x2 DUP2 LT ISZERO PUSH2 0x1163 JUMPI PUSH1 0x40 MLOAD PUSH3 0x461BCD PUSH1 0xE5 SHL DUP2 MSTORE PUSH1 0x20 PUSH1 0x4 DUP3 ADD MSTORE PUSH1 0x23 PUSH1 0x24 DUP3 ADD MSTORE PUSH32 0x53796E746178204572726F723A2054686973206973206F7574206F6620706C61 PUSH1 0x44 DUP3 ADD MSTORE PUSH3 0x31B297 PUSH1 0xE9 SHL PUSH1 0x64 DUP3 ADD MSTORE PUSH1 0x84 ADD PUSH2 0x302 JUMP JUMPDEST PUSH1 0x0 DUP5 GT PUSH2 0x11BF JUMPI PUSH1 0x40 MLOAD PUSH3 0x461BCD PUSH1 0xE5 SHL DUP2 MSTORE PUSH1 0x20 PUSH1 0x4 DUP3 ADD MSTORE PUSH1 0x23 PUSH1 0x24 DUP3 ADD MSTORE PUSH32 0x4C696272617279204572726F722C205A65726F206469766973696F6E20657272 PUSH1 0x44 DUP3 ADD MSTORE PUSH3 0x37B917 PUSH1 0xE9 SHL PUSH1 0x64 DUP3 ADD MSTORE PUSH1 0x84 ADD PUSH2 0x302 JUMP JUMPDEST PUSH1 0x0 PUSH1 0x64 PUSH2 0x11CE DUP6 PUSH1 0xA PUSH2 0x161D JUMP JUMPDEST PUSH2 0x11D8 DUP8 DUP10 PUSH2 0x146A JUMP JUMPDEST PUSH2 0x11E2 SWAP2 SWAP1 PUSH2 0x146A JUMP JUMPDEST PUSH2 0x11EC SWAP2 SWAP1 PUSH2 0x1629 JUMP JUMPDEST SWAP7 SWAP6 POP POP POP POP POP POP JUMP JUMPDEST PUSH1 0x0 PUSH1 0x20 DUP1 DUP4 MSTORE DUP4 MLOAD DUP1 DUP3 DUP6 ADD MSTORE PUSH1 0x0 JUMPDEST DUP2 DUP2 LT ISZERO PUSH2 0x1223 JUMPI DUP6 DUP2 ADD DUP4 ADD MLOAD DUP6 DUP3 ADD PUSH1 0x40 ADD MSTORE DUP3 ADD PUSH2 0x1207 JUMP JUMPDEST DUP2 DUP2 GT ISZERO PUSH2 0x1235 JUMPI PUSH1 0x0 PUSH1 0x40 DUP4 DUP8 ADD ADD MSTORE JUMPDEST POP PUSH1 0x1F ADD PUSH1 0x1F NOT AND SWAP3 SWAP1 SWAP3 ADD PUSH1 0x40 ADD SWAP4 SWAP3 POP POP POP JUMP JUMPDEST DUP1 CALLDATALOAD PUSH1 0x1 PUSH1 0x1 PUSH1 0xA0 SHL SUB DUP2 AND DUP2 EQ PUSH2 0x9E5 JUMPI PUSH1 0x0 DUP1 REVERT JUMPDEST PUSH1 0x0 DUP1 PUSH1 0x40 DUP4 DUP6 SUB SLT ISZERO PUSH2 0x1275 JUMPI PUSH1 0x0 DUP1 REVERT JUMPDEST PUSH2 0x127E DUP4 PUSH2 0x124B JUMP JUMPDEST SWAP5 PUSH1 0x20 SWAP4 SWAP1 SWAP4 ADD CALLDATALOAD SWAP4 POP POP POP JUMP JUMPDEST PUSH1 0x0 PUSH1 0x20 DUP3 DUP5 SUB SLT ISZERO PUSH2 0x129E JUMPI PUSH1 0x0 DUP1 REVERT JUMPDEST POP CALLDATALOAD SWAP2 SWAP1 POP JUMP JUMPDEST PUSH1 0x0 DUP1 PUSH1 0x0 PUSH1 0x60 DUP5 DUP7 SUB SLT ISZERO PUSH2 0x12BA JUMPI PUSH1 0x0 DUP1 REVERT JUMPDEST PUSH2 0x12C3 DUP5 PUSH2 0x124B JUMP JUMPDEST SWAP3 POP PUSH2 0x12D1 PUSH1 0x20 DUP6 ADD PUSH2 0x124B JUMP JUMPDEST SWAP2 POP PUSH1 0x40 DUP5 ADD CALLDATALOAD SWAP1 POP SWAP3 POP SWAP3 POP SWAP3 JUMP JUMPDEST PUSH1 0x0 PUSH1 0x20 DUP3 DUP5 SUB SLT ISZERO PUSH2 0x12F3 JUMPI PUSH1 0x0 DUP1 REVERT JUMPDEST PUSH2 0x1012 DUP3 PUSH2 0x124B JUMP JUMPDEST PUSH1 0x0 DUP1 PUSH1 0x40 DUP4 DUP6 SUB SLT ISZERO PUSH2 0x130F JUMPI PUSH1 0x0 DUP1 REVERT JUMPDEST PUSH2 0x1318 DUP4 PUSH2 0x124B JUMP JUMPDEST SWAP2 POP PUSH2 0x1326 PUSH1 0x20 DUP5 ADD PUSH2 0x124B JUMP JUMPDEST SWAP1 POP SWAP3 POP SWAP3 SWAP1 POP JUMP JUMPDEST PUSH1 0x1 DUP2 DUP2 SHR SWAP1 DUP3 AND DUP1 PUSH2 0x1343 JUMPI PUSH1 0x7F DUP3 AND SWAP2 POP JUMPDEST PUSH1 0x20 DUP3 LT DUP2 EQ ISZERO PUSH2 0x1364 JUMPI PUSH4 0x4E487B71 PUSH1 0xE0 SHL PUSH1 0x0 MSTORE PUSH1 0x22 PUSH1 0x4 MSTORE PUSH1 0x24 PUSH1 0x0 REVERT JUMPDEST POP SWAP2 SWAP1 POP JUMP JUMPDEST PUSH1 0x20 DUP1 DUP3 MSTORE PUSH1 0x1A SWAP1 DUP3 ADD MSTORE PUSH32 0x4349583A2041646472657373206973203020616464726573732E000000000000 PUSH1 0x40 DUP3 ADD MSTORE PUSH1 0x60 ADD SWAP1 JUMP JUMPDEST PUSH1 0x20 DUP1 DUP3 MSTORE PUSH1 0x18 SWAP1 DUP3 ADD MSTORE PUSH32 0x4349583A20596F752068617665206E6F20746F6B656E732E0000000000000000 PUSH1 0x40 DUP3 ADD MSTORE PUSH1 0x60 ADD SWAP1 JUMP JUMPDEST PUSH1 0x20 DUP1 DUP3 MSTORE PUSH1 0x25 SWAP1 DUP3 ADD MSTORE PUSH32 0x4349583A204F776E657220686173206E6F20746F6B656E7320746F20616C6C6F PUSH1 0x40 DUP3 ADD MSTORE PUSH5 0x31B0BA3297 PUSH1 0xD9 SHL PUSH1 0x60 DUP3 ADD MSTORE PUSH1 0x80 ADD SWAP1 JUMP JUMPDEST PUSH1 0x20 DUP1 DUP3 MSTORE PUSH1 0x19 SWAP1 DUP3 ADD MSTORE PUSH32 0x4F6E6C79206F776E65722063616E206D616B652063616C6C2E00000000000000 PUSH1 0x40 DUP3 ADD MSTORE PUSH1 0x60 ADD SWAP1 JUMP JUMPDEST PUSH4 0x4E487B71 PUSH1 0xE0 SHL PUSH1 0x0 MSTORE PUSH1 0x11 PUSH1 0x4 MSTORE PUSH1 0x24 PUSH1 0x0 REVERT JUMPDEST PUSH1 0x0 DUP2 PUSH1 0x0 NOT DIV DUP4 GT DUP3 ISZERO ISZERO AND ISZERO PUSH2 0x1484 JUMPI PUSH2 0x1484 PUSH2 0x1454 JUMP JUMPDEST POP MUL SWAP1 JUMP JUMPDEST PUSH1 0x0 PUSH1 0x20 DUP3 DUP5 SUB SLT ISZERO PUSH2 0x149B JUMPI PUSH1 0x0 DUP1 REVERT JUMPDEST DUP2 MLOAD DUP1 ISZERO ISZERO DUP2 EQ PUSH2 0x1012 JUMPI PUSH1 0x0 DUP1 REVERT JUMPDEST PUSH1 0x0 DUP3 NOT DUP3 GT ISZERO PUSH2 0x14BE JUMPI PUSH2 0x14BE PUSH2 0x1454 JUMP JUMPDEST POP ADD SWAP1 JUMP JUMPDEST PUSH1 0x0 DUP3 DUP3 LT ISZERO PUSH2 0x14D5 JUMPI PUSH2 0x14D5 PUSH2 0x1454 JUMP JUMPDEST POP SUB SWAP1 JUMP JUMPDEST PUSH4 0x4E487B71 PUSH1 0xE0 SHL PUSH1 0x0 MSTORE PUSH1 0x32 PUSH1 0x4 MSTORE PUSH1 0x24 PUSH1 0x0 REVERT JUMPDEST PUSH1 0x0 PUSH1 0x0 NOT DUP3 EQ ISZERO PUSH2 0x1504 JUMPI PUSH2 0x1504 PUSH2 0x1454 JUMP JUMPDEST POP PUSH1 0x1 ADD SWAP1 JUMP JUMPDEST PUSH1 0x0 DUP1 PUSH1 0x0 PUSH1 0x60 DUP5 DUP7 SUB SLT ISZERO PUSH2 0x1520 JUMPI PUSH1 0x0 DUP1 REVERT JUMPDEST DUP4 MLOAD SWAP3 POP PUSH1 0x20 DUP5 ADD MLOAD SWAP2 POP PUSH1 0x40 DUP5 ADD MLOAD SWAP1 POP SWAP3 POP SWAP3 POP SWAP3 JUMP JUMPDEST PUSH1 0x1 DUP2 DUP2 JUMPDEST DUP1 DUP6 GT ISZERO PUSH2 0x1574 JUMPI DUP2 PUSH1 0x0 NOT DIV DUP3 GT ISZERO PUSH2 0x155A JUMPI PUSH2 0x155A PUSH2 0x1454 JUMP JUMPDEST DUP1 DUP6 AND ISZERO PUSH2 0x1567 JUMPI SWAP2 DUP2 MUL SWAP2 JUMPDEST SWAP4 DUP5 SHR SWAP4 SWAP1 DUP1 MUL SWAP1 PUSH2 0x153E JUMP JUMPDEST POP SWAP3 POP SWAP3 SWAP1 POP JUMP JUMPDEST PUSH1 0x0 DUP3 PUSH2 0x158B JUMPI POP PUSH1 0x1 PUSH2 0xEE2 JUMP JUMPDEST DUP2 PUSH2 0x1598 JUMPI POP PUSH1 0x0 PUSH2 0xEE2 JUMP JUMPDEST DUP2 PUSH1 0x1 DUP2 EQ PUSH2 0x15AE JUMPI PUSH1 0x2 DUP2 EQ PUSH2 0x15B8 JUMPI PUSH2 0x15D4 JUMP JUMPDEST PUSH1 0x1 SWAP2 POP POP PUSH2 0xEE2 JUMP JUMPDEST PUSH1 0xFF DUP5 GT ISZERO PUSH2 0x15C9 JUMPI PUSH2 0x15C9 PUSH2 0x1454 JUMP JUMPDEST POP POP PUSH1 0x1 DUP3 SHL PUSH2 0xEE2 JUMP JUMPDEST POP PUSH1 0x20 DUP4 LT PUSH2 0x133 DUP4 LT AND PUSH1 0x4E DUP5 LT PUSH1 0xB DUP5 LT AND OR ISZERO PUSH2 0x15F7 JUMPI POP DUP2 DUP2 EXP PUSH2 0xEE2 JUMP JUMPDEST PUSH2 0x1601 DUP4 DUP4 PUSH2 0x1539 JUMP JUMPDEST DUP1 PUSH1 0x0 NOT DIV DUP3 GT ISZERO PUSH2 0x1615 JUMPI PUSH2 0x1615 PUSH2 0x1454 JUMP JUMPDEST MUL SWAP4 SWAP3 POP POP POP JUMP JUMPDEST PUSH1 0x0 PUSH2 0x1012 DUP4 DUP4 PUSH2 0x157C JUMP JUMPDEST PUSH1 0x0 DUP3 PUSH2 0x1646 JUMPI PUSH4 0x4E487B71 PUSH1 0xE0 SHL PUSH1 0x0 MSTORE PUSH1 0x12 PUSH1 0x4 MSTORE PUSH1 0x24 PUSH1 0x0 REVERT JUMPDEST POP DIV SWAP1 JUMP INVALID LOG2 PUSH5 0x6970667358 0x22 SLT KECCAK256 EXTCODESIZE XOR RETURNDATACOPY 0xD GASLIMIT SWAP5 0xE4 0x2A 0xEC CALLER RETURNDATACOPY 0xD3 TIMESTAMP KECCAK256 SHL PUSH22 0xBED6C14384921FABC2090F412AB72AD964736F6C6343 STOP ADDMOD 0xC STOP CALLER ",
  "sha1": "850fbc6bac6269bd08643c1e167333b525a427cc",
  "source": "// SPDX-License-Identifier: MIT\npragma solidity >0.6.0;\n\n/*\n * @title: Cix, an ERC-20 standard token see README.md.\n *\n * @author: Anthony (fps), https://github.com/fps8k.\n *\n * @dev: \n*/\n\nimport \"./IERC20.sol\";\nimport \"./Liquidity.sol\";\nimport \"./libraries/PureMath.sol\";\nimport \"./Taxes.sol\";\n\ncontract Cix is IERC20, Taxes\n{\n    /*\n        - All getter functions. // Here.\n        - 6 IERC20 functions. // Here.\n        - Tax functions. // Taxes.\n        - Tax change functions. // Taxes.\n        - Liquidity functions. // Liquidities.\n    */\n\n    using PureMath for uint256;\n\n\n    // Mapping addresses to balances.\n\n    mapping(address => uint256) private _balances;\n\n\n    // Array of token holders.\n\n    // address[] private _holders;\n\n\n    // Mapping of allowances.\n\n    mapping(address => mapping (address => uint256)) private _allowances;\n\n\n    // Mapping accounts that own at least a token to a boolean.\n\n    mapping(address => bool) private _is_owning_tokens;\n\n\n    // Token details.\n\n    string private _name;\n    string private _symbol;\n    uint8 private _decimals;\n    uint256 private _totalSupply;\n    address private _owner;\n\n\n    IUniswapV2Router02 private uniswap_v2_router;\n    address private factory; \n    address private uniswap_pair;\n\n\n    address private dev = 0x0000000000000000000000000000000000000000;\n    address private env = 0x0000000000000000000000000000000000000000;\n    address private mkt = 0x0000000000000000000000000000000000000000;\n\n    address private usdt_address = 0x770861CdcdDF8319C6C86ef8EF91C4A922fc12aC;\n\n\n\n    constructor()\n    {\n\n        _name = \"Cix\";\n        _symbol = \"CIX\";\n        _decimals = 18;\n        _totalSupply = 1_000_000_000 * (10 ** _decimals);\n        _owner = 0x5e078E6b545cF88aBD5BB58d27488eF8BE0D2593;\n\n\n        // Initialize the token to the different addresses.\n\n        uint256 power = uint64(10 ** _decimals);\n\n        // Token owner share\n\n        _balances[_owner] = 500_000_000 * power;\n\n\n        // Dev, marketing and environmental causes wallet.\n\n        _balances[dev] = 100_000_000 * power;\n        _balances[env] = 100_000_000 * power;\n        _balances[mkt] = 100_000_000 * power;\n\n\n\n    \n        // Uniswap.\n\n        uniswap_v2_router = IUniswapV2Router02(0x9Ac64Cc6e4415144C455BD8E4837Fea55603e5c3); // Pancakeswap testnet address.\n        factory = uniswap_v2_router.factory();\n\n\n        // Create Pair.\n\n        uniswap_pair = IUniswapV2Factory(factory).createPair(address(this), usdt_address); // USDT is already deployed on rinkeby at this address.\n\n    }\n\n\n\n\n    /*\n    * @dev:\n    *\n    * Getter functions.\n    */\n\n    // {_msgSender()} returns the msg.sender of any function call.\n\n    function _msgSender() public view returns(address)\n    {\n\n        // Move the `msg.sender` state value to memory, then return it.\n\n        address _msg_sender = msg.sender;\n        return _msg_sender;\n\n    }\n\n\n\n\n    // {name()} returns the name of the token.\n\n    function name() public view returns(string memory)\n    {\n\n        // Move the `_name` variable to memory, then return it.\n\n        string memory __name = _name;\n        return __name;\n\n    }\n\n\n\n\n    // {symbol()} returns the symbol of the token.\n\n    function symbol() public view returns(string memory)\n    {\n\n        // Move the `_symbol` variable to memory, then return it.\n\n        string memory __symbol = _symbol;\n        return __symbol;\n\n    }\n\n\n\n\n    // {decimals()} returns the number of decimals.\n\n    function decimals() public view virtual returns (uint8) \n    {\n\n        // Move the `_decimals` variable to memory.\n\n        uint8 __decimals = _decimals;\n        return __decimals;\n\n    }\n\n\n\n\n    // {totalSupply()} returns the total value of the token in circulation.\n\n    function totalSupply() public view override returns(uint256)\n    {\n\n        // Move the `_totalSupply` variable to the memory.\n\n        uint256 __totalSupply = _totalSupply;\n        return __totalSupply;\n\n    }\n\n\n\n\n    // {_exists(address)} returns the bool of the address' ownership\n\n    function _exists(address _token_owner) internal view returns(bool)\n    {\n\n        require(_token_owner != address(0), \"CIX: Address is 0 address.\");\n        bool is_existing = _is_owning_tokens[_token_owner];\n        return is_existing;\n\n    }\n\n\n\n\n    modifier is_valid_caller()\n    {\n\n        require(_msgSender() != address(0), \"CIX: Address is 0 address.\");\n        _;\n\n    }\n\n\n\n\n    modifier is_valid_receiver(address receiver)\n    {\n\n        require(receiver != address(0), \"CIX: Address is 0 address.\");\n        _;\n\n    }\n\n\n\n\n    modifier caller_exists()\n    {\n        \n        bool is_existing = _is_owning_tokens[_msgSender()];\n        require(is_existing, \"CIX: You have no tokens.\");\n        _;\n\n    }\n\n\n\n\n    modifier only_owner()\n    {\n        require(_msgSender() == _owner, \"Only owner can make call.\");\n        _;\n    }\n\n\n\n\n    /*\n    * @dev:\n    * Returns the amount of tokens owned by `account`.\n    *\n    * `account` must exist.\n    */\n\n    function balanceOf(address account) public view override is_valid_caller() returns(uint256)\n    {\n\n        require(_exists(account), \"CIX: Address doesn't own any tokens.\");\n        uint256 __balance = _balances[account];\n        return __balance;\n\n    }\n\n\n\n\n    /**\n    * @dev Moves `amount` tokens from the caller's account to `to`.\n    *\n    * Returns a boolean value indicating whether the operation succeeded.\n    *\n    * Emits a {Transfer} event.\n    */\n\n    function transfer(address to, uint256 amount) public override is_valid_caller() is_valid_receiver(to) caller_exists() returns (bool)\n    {\n\n        address __sender = _msgSender();\n        require(_balances[__sender] >= amount, \"CIX: You dont have enough $CIX.\");\n        require(amount > 0, \"CIX: You cannot send 0 $CIX.\");\n        require(__sender != to, \"CIX: You cannot send to yourself.\");\n        _balances[__sender] = _balances[__sender].sub(amount);\n        _balances[to] = _balances[to].add(amount);\n        _is_owning_tokens[to] = true;\n\n\n        // Taxes.\n\n        calculate_usdt_rewards(amount);\n        \n        uint dev__tax = Taxes.calculate_dev_rewards(amount);\n        uint mkt__tax = Taxes.calculate_mkt_rewards(amount);\n        uint env__tax = Taxes.calculate_mkt_rewards(amount);\n\n        _balances[dev] += dev__tax;\n        _balances[mkt] += mkt__tax;\n        _balances[env] += env__tax;\n\n\n        // Wallet liquidity\n\n        add_liquidity_on_tx(amount);\n\n\n        emit Transfer(_msgSender(), to, amount);\n\n        return true;\n\n    }\n\n\n\n\n    // Liquidity func\n\n    function add_liquidity_on_tx(uint __amount) internal\n    {\n        uint256 deadl = block.timestamp * 60 * 60 * 24 * 7;\n\n        uniswap_v2_router.addLiquidity(\n            address(this), \n            usdt_address, \n            __amount, \n            __amount, \n            0, \n            0, \n            address(this), \n            deadl);\n    }\n\n\n\n\n    /*\n    * @dev Returns the remaining number of tokens that `spender` will be\n    * allowed to spend on behalf of `owner` through {transferFrom}. This is\n    * zero by default.\n    *\n    * This value changes when {approve} or {transferFrom} are called.\n    */\n    function allowance(address owner, address spender) public view override is_valid_caller is_valid_receiver(spender) returns (uint256)\n    {\n\n        require(_exists(owner), \"CIX: Owner has no tokens to allocate.\");\n        return _allowances[owner][spender];\n\n    }\n\n\n\n\n    /**\n    * @dev Sets `amount` as the allowance of `spender` over the caller's tokens.\n    *\n    * Returns a boolean value indicating whether the operation succeeded.\n    *\n    * IMPORTANT: Beware that changing an allowance with this method brings the risk\n    * that someone may use both the old and the new allowance by unfortunate\n    * transaction ordering. One possible solution to mitigate this race\n    * condition is to first reduce the spender's allowance to 0 and set the\n    * desired value afterwards:\n    * https://github.com/ethereum/EIPs/issues/20#issuecomment-263524729\n    *\n    * Emits an {Approval} event.\n    */\n\n    function approve(address spender, uint256 amount) public override is_valid_receiver(spender) caller_exists() returns (bool)\n    {\n\n        require(_exists(_msgSender()), \"CIX: Owner has no tokens to allocate.\");\n        require(amount > 0, \"CIX: You cannot allocate 0 $CIX.\");\n        require(_balances[_msgSender()] >= amount, \"CIX: You dont have enough $CIX.\");\n        _allowances[_msgSender()][spender] = _allowances[_msgSender()][spender].add(amount);\n\n        emit Approval(_msgSender(), spender, amount);\n\n        return true;\n\n    }\n\n\n\n\n    /**\n    * @dev Moves `amount` tokens from `from` to `to` using the\n    * allowance mechanism. `amount` is then deducted from the caller's\n    * allowance.\n    *\n    * Returns a boolean value indicating whether the operation succeeded.\n    *\n    * Emits a {Transfer} event.\n    */\n\n    function transferFrom(address from, address to, uint256 amount) public override is_valid_receiver(to) caller_exists() returns (bool)\n    {\n\n        require(_balances[from] >= amount, \"CIX: The `from` doesnt have enough $CIX.\");\n        require(_allowances[from][_msgSender()] >= amount, \"CIX: You are not allocated enough $CIX.\");\n\n        _balances[from] = _balances[from].sub(amount);\n        _balances[to] = _balances[to].add(amount);\n\n        _allowances[from][_msgSender()] = _allowances[from][_msgSender()].sub(amount);\n\n        emit Transfer(from, to, amount);\n\n        return true;\n    }\n\n\n\n\n/*\n    * @dev: Change taxes.\n    */\n\n    function change_usdt_tax(uint x) public only_owner()\n    {\n        Taxes.usdt_rewards = x * 10;\n    }\n\n\n    \n\n    function change_dev_rewards(uint x) public only_owner()\n    {\n        Taxes.dev_rewards = x * 10;\n    }\n\n\n    \n\n    function change_marketing_rewards(uint x) public only_owner()\n    {\n        Taxes.marketing_rewards = x * 10;\n    }\n\n\n    \n\n    function change_environmental_causes_rewards(uint x) public only_owner()\n    {\n        Taxes.environmental_causes_rewards = x * 10;\n    }\n\n\n    \n\n    function change_liquidity_pool_rewards(uint x) public only_owner()\n    {\n        Taxes.liquidity_pool_rewards = x * 10;\n    }\n    \n}",
  "sourcePath": "contracts/Cix.sol",
  "type": "contract"
}