{
  "abi": [
    {
      "inputs": [
        {
          "internalType": "uint256",
          "name": "amount",
          "type": "uint256"
        }
      ],
      "name": "withdraw_usdt",
      "outputs": [],
      "stateMutability": "nonpayable",
      "type": "function"
    }
  ],
  "bytecode": "6080604052600f600255600f600355600f600455600f600555600a600655601160075534801561002e57600080fd5b506103508061003e6000396000f3fe608060405234801561001057600080fd5b506004361061002b5760003560e01c80632b3bc01b14610030575b600080fd5b61004361003e3660046102b3565b610045565b005b336100ae5760405162461bcd60e51b815260206004820152602e60248201527f24434958202d204572726f72203a3a2043616c6c65722061646472657373206960448201526d39903090181030b2323932b9b99760911b60648201526084015b60405180910390fd5b336000908152600160205260409020548111156101225760405162461bcd60e51b815260206004820152602c60248201527f24434958202d204572726f72203a3a2043616e6e6f742077697468647261772060448201526b3a3434b99030b6b7bab73a1760a11b60648201526084016100a5565b60405163a9059cbb60e01b81523360048201526024810182905273770861cdcddf8319c6c86ef8ef91c4a922fc12ac90600090829063a9059cbb906044016020604051808303816000875af115801561017f573d6000803e3d6000fd5b505050506040513d601f19601f820116820180604052508101906101a391906102cc565b9050806101ea5760405162461bcd60e51b81526020600482015260156024820152741221a4ac1d102a37b5b2b7103737ba1039b2b73a1760591b60448201526064016100a5565b336000908152600160205260409020546102049084610219565b33600090815260016020526040902055505050565b60008183101561029f5760405162461bcd60e51b815260206004820152604560248201527f4c696272617279206572726f723a205365636f6e6420706172616d657465722060448201527f73686f756c64206265206c657373206f7220657175616c20746f20746865206660648201526434b939ba1760d91b608482015260a4016100a5565b60006102ab83856102f5565b949350505050565b6000602082840312156102c557600080fd5b5035919050565b6000602082840312156102de57600080fd5b815180151581146102ee57600080fd5b9392505050565b60008282101561031557634e487b7160e01b600052601160045260246000fd5b50039056fea26469706673582212209daa459f1942b6432f21b1e3829d73cfa3d8796878e52d904b6b7674ea0dafb164736f6c634300080c0033",
  "bytecodeSha1": "886b15e52574c647caf19ac0ffa5ea29a5ac1224",
  "compiler": {
    "evm_version": "istanbul",
    "optimizer": {
      "enabled": true,
      "runs": 200
    },
    "version": "0.8.12+commit.f00d7308"
  },
  "contractName": "Taxes",
  "language": "Solidity",
  "natspec": {
    "kind": "dev",
    "methods": {},
    "version": 1
  },
  "opcodes": "PUSH1 0x80 PUSH1 0x40 MSTORE CALLVALUE DUP1 ISZERO PUSH2 0x10 JUMPI PUSH1 0x0 DUP1 REVERT JUMPDEST POP PUSH1 0x4 CALLDATASIZE LT PUSH2 0x2B JUMPI PUSH1 0x0 CALLDATALOAD PUSH1 0xE0 SHR DUP1 PUSH4 0x2B3BC01B EQ PUSH2 0x30 JUMPI JUMPDEST PUSH1 0x0 DUP1 REVERT JUMPDEST PUSH2 0x43 PUSH2 0x3E CALLDATASIZE PUSH1 0x4 PUSH2 0x2B3 JUMP JUMPDEST PUSH2 0x45 JUMP JUMPDEST STOP JUMPDEST CALLER PUSH2 0xAE JUMPI PUSH1 0x40 MLOAD PUSH3 0x461BCD PUSH1 0xE5 SHL DUP2 MSTORE PUSH1 0x20 PUSH1 0x4 DUP3 ADD MSTORE PUSH1 0x2E PUSH1 0x24 DUP3 ADD MSTORE PUSH32 0x24434958202D204572726F72203A3A2043616C6C657220616464726573732069 PUSH1 0x44 DUP3 ADD MSTORE PUSH14 0x39903090181030B2323932B9B997 PUSH1 0x91 SHL PUSH1 0x64 DUP3 ADD MSTORE PUSH1 0x84 ADD JUMPDEST PUSH1 0x40 MLOAD DUP1 SWAP2 SUB SWAP1 REVERT JUMPDEST CALLER PUSH1 0x0 SWAP1 DUP2 MSTORE PUSH1 0x1 PUSH1 0x20 MSTORE PUSH1 0x40 SWAP1 KECCAK256 SLOAD DUP2 GT ISZERO PUSH2 0x122 JUMPI PUSH1 0x40 MLOAD PUSH3 0x461BCD PUSH1 0xE5 SHL DUP2 MSTORE PUSH1 0x20 PUSH1 0x4 DUP3 ADD MSTORE PUSH1 0x2C PUSH1 0x24 DUP3 ADD MSTORE PUSH32 0x24434958202D204572726F72203A3A2043616E6E6F7420776974686472617720 PUSH1 0x44 DUP3 ADD MSTORE PUSH12 0x3A3434B99030B6B7BAB73A17 PUSH1 0xA1 SHL PUSH1 0x64 DUP3 ADD MSTORE PUSH1 0x84 ADD PUSH2 0xA5 JUMP JUMPDEST PUSH1 0x40 MLOAD PUSH4 0xA9059CBB PUSH1 0xE0 SHL DUP2 MSTORE CALLER PUSH1 0x4 DUP3 ADD MSTORE PUSH1 0x24 DUP2 ADD DUP3 SWAP1 MSTORE PUSH20 0x770861CDCDDF8319C6C86EF8EF91C4A922FC12AC SWAP1 PUSH1 0x0 SWAP1 DUP3 SWAP1 PUSH4 0xA9059CBB SWAP1 PUSH1 0x44 ADD PUSH1 0x20 PUSH1 0x40 MLOAD DUP1 DUP4 SUB DUP2 PUSH1 0x0 DUP8 GAS CALL ISZERO DUP1 ISZERO PUSH2 0x17F JUMPI RETURNDATASIZE PUSH1 0x0 DUP1 RETURNDATACOPY RETURNDATASIZE PUSH1 0x0 REVERT JUMPDEST POP POP POP POP PUSH1 0x40 MLOAD RETURNDATASIZE PUSH1 0x1F NOT PUSH1 0x1F DUP3 ADD AND DUP3 ADD DUP1 PUSH1 0x40 MSTORE POP DUP2 ADD SWAP1 PUSH2 0x1A3 SWAP2 SWAP1 PUSH2 0x2CC JUMP JUMPDEST SWAP1 POP DUP1 PUSH2 0x1EA JUMPI PUSH1 0x40 MLOAD PUSH3 0x461BCD PUSH1 0xE5 SHL DUP2 MSTORE PUSH1 0x20 PUSH1 0x4 DUP3 ADD MSTORE PUSH1 0x15 PUSH1 0x24 DUP3 ADD MSTORE PUSH21 0x1221A4AC1D102A37B5B2B7103737BA1039B2B73A17 PUSH1 0x59 SHL PUSH1 0x44 DUP3 ADD MSTORE PUSH1 0x64 ADD PUSH2 0xA5 JUMP JUMPDEST CALLER PUSH1 0x0 SWAP1 DUP2 MSTORE PUSH1 0x1 PUSH1 0x20 MSTORE PUSH1 0x40 SWAP1 KECCAK256 SLOAD PUSH2 0x204 SWAP1 DUP5 PUSH2 0x219 JUMP JUMPDEST CALLER PUSH1 0x0 SWAP1 DUP2 MSTORE PUSH1 0x1 PUSH1 0x20 MSTORE PUSH1 0x40 SWAP1 KECCAK256 SSTORE POP POP POP JUMP JUMPDEST PUSH1 0x0 DUP2 DUP4 LT ISZERO PUSH2 0x29F JUMPI PUSH1 0x40 MLOAD PUSH3 0x461BCD PUSH1 0xE5 SHL DUP2 MSTORE PUSH1 0x20 PUSH1 0x4 DUP3 ADD MSTORE PUSH1 0x45 PUSH1 0x24 DUP3 ADD MSTORE PUSH32 0x4C696272617279206572726F723A205365636F6E6420706172616D6574657220 PUSH1 0x44 DUP3 ADD MSTORE PUSH32 0x73686F756C64206265206C657373206F7220657175616C20746F207468652066 PUSH1 0x64 DUP3 ADD MSTORE PUSH5 0x34B939BA17 PUSH1 0xD9 SHL PUSH1 0x84 DUP3 ADD MSTORE PUSH1 0xA4 ADD PUSH2 0xA5 JUMP JUMPDEST PUSH1 0x0 PUSH2 0x2AB DUP4 DUP6 PUSH2 0x2F5 JUMP JUMPDEST SWAP5 SWAP4 POP POP POP POP JUMP JUMPDEST PUSH1 0x0 PUSH1 0x20 DUP3 DUP5 SUB SLT ISZERO PUSH2 0x2C5 JUMPI PUSH1 0x0 DUP1 REVERT JUMPDEST POP CALLDATALOAD SWAP2 SWAP1 POP JUMP JUMPDEST PUSH1 0x0 PUSH1 0x20 DUP3 DUP5 SUB SLT ISZERO PUSH2 0x2DE JUMPI PUSH1 0x0 DUP1 REVERT JUMPDEST DUP2 MLOAD DUP1 ISZERO ISZERO DUP2 EQ PUSH2 0x2EE JUMPI PUSH1 0x0 DUP1 REVERT JUMPDEST SWAP4 SWAP3 POP POP POP JUMP JUMPDEST PUSH1 0x0 DUP3 DUP3 LT ISZERO PUSH2 0x315 JUMPI PUSH4 0x4E487B71 PUSH1 0xE0 SHL PUSH1 0x0 MSTORE PUSH1 0x11 PUSH1 0x4 MSTORE PUSH1 0x24 PUSH1 0x0 REVERT JUMPDEST POP SUB SWAP1 JUMP INVALID LOG2 PUSH5 0x6970667358 0x22 SLT KECCAK256 SWAP14 0xAA GASLIMIT SWAP16 NOT TIMESTAMP 0xB6 NUMBER 0x2F 0x21 0xB1 0xE3 DUP3 SWAP14 PUSH20 0xCFA3D8796878E52D904B6B7674EA0DAFB164736F PUSH13 0x634300080C0033000000000000 ",
  "sha1": "cb744355a4c7249d4611601758711731d6443191",
  "source": "// SPDX-License-Identifier: MIT\npragma solidity >0.6.0;\n\n/*\n * @title: $CIX, an ERC-20 standard token see README.md.\n *\n * @author: Anthony (fps), https://github.com/fps8k.\n *\n * @dev: \n * @notice:\n *\n * Liquidity Pool (UniswapV2Router) Address = 0x7a250d5630B4cF539739dF2C5dAcb4c659F2488D.\n *\n * USDT Contract Address Mainnet = 0x55d398326f99059ff775485246999027b3197955.\n *\n * USDT Test Rinkeby = 0xa1Cba00d6e99f52B8cb5f867a6f2db0F3ad62276 ## Should be called with ether.\n *\n * USDT Test Local = 0xd7Ca4e99F7C171B9ea2De80d3363c47009afaC5F ## Free I guess? Yep. On new deploy, get new address.\n*/\n\nimport \"./Liquidity.sol\";\nimport \"./libraries/PureMath.sol\";\nimport \"./libraries/USDT.sol\";\n\ncontract Taxes\n{\n\n    using PureMath for uint256;\n\n\n\n\n    // Struct array of all token holders' rewards.\n\n    address[] internal _holders;\n\n\n\n    // Dividends.\n\n    mapping (address => uint) _dividends;\n\n\n\n\n    // All taxes.\n\n    uint usdt_rewards = 1.5 * 10;\n    \n    uint dev_rewards = 1.5 * 10;\n\n    uint marketing_rewards = 1.5 * 10;\n\n    uint environmental_causes_rewards = 1.5 * 10;\n\n    uint liquidity_pool_rewards = 1 * 10;\n\n    uint __decimals = 17;                     // This is set to 17, reference PureMath.sol set_perc() function.\n\n\n    /*\n    * @dev:\n    *\n    * {calculate_usdt_rewards()} calculates the usdt rewards and allocates it to every person on the `_allholders` array.\n    *\n    */\n\n    function calculate_usdt_rewards(uint amount) internal\n    {\n\n        // Tax\n\n        uint usdt_tax = PureMath.set_perc(usdt_rewards, amount, 17);    // This is set to 17, reference PureMath.sol set_perc() will return 18 dp.\n\n\n        // Loops through the holders and their rewards and stores an additional tax for them.\n\n        for (uint i = 0; i < _holders.length; i ++)\n        {\n            _dividends[_holders[i]] += usdt_tax;\n        }\n    }\n\n\n\n\n    /*\n    * @dev:\n    *\n    * {calculate_dev_rewards()}, {calculate_mkt_rewards()} and {calculate_env_rewards()} calculates the required rewards and returns the value.\n    *\n    */\n\n    function calculate_dev_rewards(uint amount) internal view returns(uint)\n    {\n\n        // Dev rewards.\n\n        uint dev_tax = PureMath.set_perc(dev_rewards, amount, 17);      // This is set to 17, reference PureMath.sol set_perc() will return 18 dp.\n        return dev_tax;\n    }\n\n\n\n\n    function calculate_mkt_rewards(uint amount) internal view returns(uint)\n    {\n\n        // Marketing rewards.\n\n        uint mkt_tax = PureMath.set_perc(marketing_rewards, amount, 17);      // This is set to 17, reference PureMath.sol set_perc() will return 18 dp.\n        return mkt_tax;\n    }\n\n\n\n\n    function calculate_env_rewards(uint amount) internal view returns(uint)\n    {\n        // Environmental causes rewards.\n\n        uint env_tax = PureMath.set_perc(environmental_causes_rewards, amount, 17);      // This is set to 17, reference PureMath.sol set_perc() will return 18 dp.\n        return env_tax;\n    }\n\n\n\n\n    /*\n    * @dev:\n    * Withdrawals. HELP ME.\n    */\n\n    function withdraw_usdt(uint amount) public\n    {\n        require(msg.sender != address(0), \"$CIX - Error :: Caller address is a 0 address.\");\n        \n        require (_dividends[msg.sender] >= amount, \"$CIX - Error :: Cannot withdraw this amount.\");\n\n        USDT usdt = USDT(0x770861CdcdDF8319C6C86ef8EF91C4A922fc12aC);\n        bool sent = usdt.transfer(msg.sender, amount);\n\n        require(sent, \"$CIX: Token not sent.\");\n\n        _dividends[msg.sender] = _dividends[msg.sender].sub(amount);\n    }\n\n}",
  "sourcePath": "contracts/Taxes.sol",
  "type": "contract"
}