{
  "abi": [
    {
      "stateMutability": "payable",
      "type": "fallback"
    },
    {
      "inputs": [
        {
          "internalType": "uint8",
          "name": "index",
          "type": "uint8"
        }
      ],
      "name": "Get_Hash_Receiver",
      "outputs": [
        {
          "internalType": "address",
          "name": "",
          "type": "address"
        }
      ],
      "stateMutability": "view",
      "type": "function"
    },
    {
      "inputs": [
        {
          "internalType": "address",
          "name": "to",
          "type": "address"
        },
        {
          "internalType": "uint256",
          "name": "amount",
          "type": "uint256"
        }
      ],
      "name": "Transact",
      "outputs": [],
      "stateMutability": "nonpayable",
      "type": "function"
    },
    {
      "stateMutability": "payable",
      "type": "receive"
    }
  ],
  "bytecode": "608060405234801561001057600080fd5b506103d9806100206000396000f3fe60806040526004361061002a5760003560e01c806320fa79d6146100335780632cdc54481461005357005b3661003157005b005b34801561003f57600080fd5b5061003161004e3660046102f8565b61008f565b34801561005f57600080fd5b5061007361006e366004610330565b61026a565b6040516001600160a01b03909116815260200160405180910390f35b600a54610100900460ff16156100ec5760405162461bcd60e51b815260206004820152601c60248201527f596f752063616e6e6f74207265646f207468697320616374696f6e2e0000000060448201526064015b60405180910390fd5b600a805461ff0019811661010017825560ff161061014c5760405162461bcd60e51b815260206004820152601d60248201527f5472616e73616374696f6e207265636f726473206172652066756c6c2e00000060448201526064016100e3565b6040516001600160a01b038316908290600081818185875af1925050503d8060008114610195576040519150601f19603f3d011682016040523d82523d6000602084013e61019a565b606091505b50506040516bffffffffffffffffffffffff1933606090811b8216602084015285901b166034820152604881018390526000915060680160408051601f198184030181529190528051602090910120600a8054919250829160009160ff9091169081106102095761020961035a565b0155600a5461021c9060ff166001610370565b600a805460ff191660ff929092169190911781556000918252600b602052604090912080546001600160a01b0319166001600160a01b03949094169390931790925550805461ff0019169055565b600a5460009060ff908116908316106102ba5760405162461bcd60e51b8152602060048201526012602482015271125b99195e081b9bdd081c9958dbdc99195960721b60448201526064016100e3565b6000600b6000808560ff16600a81106102d5576102d561035a565b015481526020810191909152604001600020546001600160a01b03169392505050565b6000806040838503121561030b57600080fd5b82356001600160a01b038116811461032257600080fd5b946020939093013593505050565b60006020828403121561034257600080fd5b813560ff8116811461035357600080fd5b9392505050565b634e487b7160e01b600052603260045260246000fd5b600060ff821660ff84168060ff0382111561039b57634e487b7160e01b600052601160045260246000fd5b01939250505056fea26469706673582212207d72d32e4af388d7d568ee1ebdda7ab44c71ebcf5ec38926bf51521c6dbc995f64736f6c634300080c0033",
  "bytecodeSha1": "3a98e031e4f15c7a460ca8e855291aab847e0268",
  "compiler": {
    "evm_version": "istanbul",
    "optimizer": {
      "enabled": true,
      "runs": 200
    },
    "version": "0.8.12+commit.f00d7308"
  },
  "contractName": "IterableMapping",
  "language": "Solidity",
  "natspec": {
    "kind": "dev",
    "methods": {},
    "version": 1
  },
  "opcodes": "PUSH1 0x80 PUSH1 0x40 MSTORE PUSH1 0x4 CALLDATASIZE LT PUSH2 0x2A JUMPI PUSH1 0x0 CALLDATALOAD PUSH1 0xE0 SHR DUP1 PUSH4 0x20FA79D6 EQ PUSH2 0x33 JUMPI DUP1 PUSH4 0x2CDC5448 EQ PUSH2 0x53 JUMPI STOP JUMPDEST CALLDATASIZE PUSH2 0x31 JUMPI STOP JUMPDEST STOP JUMPDEST CALLVALUE DUP1 ISZERO PUSH2 0x3F JUMPI PUSH1 0x0 DUP1 REVERT JUMPDEST POP PUSH2 0x31 PUSH2 0x4E CALLDATASIZE PUSH1 0x4 PUSH2 0x2F8 JUMP JUMPDEST PUSH2 0x8F JUMP JUMPDEST CALLVALUE DUP1 ISZERO PUSH2 0x5F JUMPI PUSH1 0x0 DUP1 REVERT JUMPDEST POP PUSH2 0x73 PUSH2 0x6E CALLDATASIZE PUSH1 0x4 PUSH2 0x330 JUMP JUMPDEST PUSH2 0x26A JUMP JUMPDEST PUSH1 0x40 MLOAD PUSH1 0x1 PUSH1 0x1 PUSH1 0xA0 SHL SUB SWAP1 SWAP2 AND DUP2 MSTORE PUSH1 0x20 ADD PUSH1 0x40 MLOAD DUP1 SWAP2 SUB SWAP1 RETURN JUMPDEST PUSH1 0xA SLOAD PUSH2 0x100 SWAP1 DIV PUSH1 0xFF AND ISZERO PUSH2 0xEC JUMPI PUSH1 0x40 MLOAD PUSH3 0x461BCD PUSH1 0xE5 SHL DUP2 MSTORE PUSH1 0x20 PUSH1 0x4 DUP3 ADD MSTORE PUSH1 0x1C PUSH1 0x24 DUP3 ADD MSTORE PUSH32 0x596F752063616E6E6F74207265646F207468697320616374696F6E2E00000000 PUSH1 0x44 DUP3 ADD MSTORE PUSH1 0x64 ADD JUMPDEST PUSH1 0x40 MLOAD DUP1 SWAP2 SUB SWAP1 REVERT JUMPDEST PUSH1 0xA DUP1 SLOAD PUSH2 0xFF00 NOT DUP2 AND PUSH2 0x100 OR DUP3 SSTORE PUSH1 0xFF AND LT PUSH2 0x14C JUMPI PUSH1 0x40 MLOAD PUSH3 0x461BCD PUSH1 0xE5 SHL DUP2 MSTORE PUSH1 0x20 PUSH1 0x4 DUP3 ADD MSTORE PUSH1 0x1D PUSH1 0x24 DUP3 ADD MSTORE PUSH32 0x5472616E73616374696F6E207265636F726473206172652066756C6C2E000000 PUSH1 0x44 DUP3 ADD MSTORE PUSH1 0x64 ADD PUSH2 0xE3 JUMP JUMPDEST PUSH1 0x40 MLOAD PUSH1 0x1 PUSH1 0x1 PUSH1 0xA0 SHL SUB DUP4 AND SWAP1 DUP3 SWAP1 PUSH1 0x0 DUP2 DUP2 DUP2 DUP6 DUP8 GAS CALL SWAP3 POP POP POP RETURNDATASIZE DUP1 PUSH1 0x0 DUP2 EQ PUSH2 0x195 JUMPI PUSH1 0x40 MLOAD SWAP2 POP PUSH1 0x1F NOT PUSH1 0x3F RETURNDATASIZE ADD AND DUP3 ADD PUSH1 0x40 MSTORE RETURNDATASIZE DUP3 MSTORE RETURNDATASIZE PUSH1 0x0 PUSH1 0x20 DUP5 ADD RETURNDATACOPY PUSH2 0x19A JUMP JUMPDEST PUSH1 0x60 SWAP2 POP JUMPDEST POP POP PUSH1 0x40 MLOAD PUSH12 0xFFFFFFFFFFFFFFFFFFFFFFFF NOT CALLER PUSH1 0x60 SWAP1 DUP2 SHL DUP3 AND PUSH1 0x20 DUP5 ADD MSTORE DUP6 SWAP1 SHL AND PUSH1 0x34 DUP3 ADD MSTORE PUSH1 0x48 DUP2 ADD DUP4 SWAP1 MSTORE PUSH1 0x0 SWAP2 POP PUSH1 0x68 ADD PUSH1 0x40 DUP1 MLOAD PUSH1 0x1F NOT DUP2 DUP5 SUB ADD DUP2 MSTORE SWAP2 SWAP1 MSTORE DUP1 MLOAD PUSH1 0x20 SWAP1 SWAP2 ADD KECCAK256 PUSH1 0xA DUP1 SLOAD SWAP2 SWAP3 POP DUP3 SWAP2 PUSH1 0x0 SWAP2 PUSH1 0xFF SWAP1 SWAP2 AND SWAP1 DUP2 LT PUSH2 0x209 JUMPI PUSH2 0x209 PUSH2 0x35A JUMP JUMPDEST ADD SSTORE PUSH1 0xA SLOAD PUSH2 0x21C SWAP1 PUSH1 0xFF AND PUSH1 0x1 PUSH2 0x370 JUMP JUMPDEST PUSH1 0xA DUP1 SLOAD PUSH1 0xFF NOT AND PUSH1 0xFF SWAP3 SWAP1 SWAP3 AND SWAP2 SWAP1 SWAP2 OR DUP2 SSTORE PUSH1 0x0 SWAP2 DUP3 MSTORE PUSH1 0xB PUSH1 0x20 MSTORE PUSH1 0x40 SWAP1 SWAP2 KECCAK256 DUP1 SLOAD PUSH1 0x1 PUSH1 0x1 PUSH1 0xA0 SHL SUB NOT AND PUSH1 0x1 PUSH1 0x1 PUSH1 0xA0 SHL SUB SWAP5 SWAP1 SWAP5 AND SWAP4 SWAP1 SWAP4 OR SWAP1 SWAP3 SSTORE POP DUP1 SLOAD PUSH2 0xFF00 NOT AND SWAP1 SSTORE JUMP JUMPDEST PUSH1 0xA SLOAD PUSH1 0x0 SWAP1 PUSH1 0xFF SWAP1 DUP2 AND SWAP1 DUP4 AND LT PUSH2 0x2BA JUMPI PUSH1 0x40 MLOAD PUSH3 0x461BCD PUSH1 0xE5 SHL DUP2 MSTORE PUSH1 0x20 PUSH1 0x4 DUP3 ADD MSTORE PUSH1 0x12 PUSH1 0x24 DUP3 ADD MSTORE PUSH18 0x125B99195E081B9BDD081C9958DBDC991959 PUSH1 0x72 SHL PUSH1 0x44 DUP3 ADD MSTORE PUSH1 0x64 ADD PUSH2 0xE3 JUMP JUMPDEST PUSH1 0x0 PUSH1 0xB PUSH1 0x0 DUP1 DUP6 PUSH1 0xFF AND PUSH1 0xA DUP2 LT PUSH2 0x2D5 JUMPI PUSH2 0x2D5 PUSH2 0x35A JUMP JUMPDEST ADD SLOAD DUP2 MSTORE PUSH1 0x20 DUP2 ADD SWAP2 SWAP1 SWAP2 MSTORE PUSH1 0x40 ADD PUSH1 0x0 KECCAK256 SLOAD PUSH1 0x1 PUSH1 0x1 PUSH1 0xA0 SHL SUB AND SWAP4 SWAP3 POP POP POP JUMP JUMPDEST PUSH1 0x0 DUP1 PUSH1 0x40 DUP4 DUP6 SUB SLT ISZERO PUSH2 0x30B JUMPI PUSH1 0x0 DUP1 REVERT JUMPDEST DUP3 CALLDATALOAD PUSH1 0x1 PUSH1 0x1 PUSH1 0xA0 SHL SUB DUP2 AND DUP2 EQ PUSH2 0x322 JUMPI PUSH1 0x0 DUP1 REVERT JUMPDEST SWAP5 PUSH1 0x20 SWAP4 SWAP1 SWAP4 ADD CALLDATALOAD SWAP4 POP POP POP JUMP JUMPDEST PUSH1 0x0 PUSH1 0x20 DUP3 DUP5 SUB SLT ISZERO PUSH2 0x342 JUMPI PUSH1 0x0 DUP1 REVERT JUMPDEST DUP2 CALLDATALOAD PUSH1 0xFF DUP2 AND DUP2 EQ PUSH2 0x353 JUMPI PUSH1 0x0 DUP1 REVERT JUMPDEST SWAP4 SWAP3 POP POP POP JUMP JUMPDEST PUSH4 0x4E487B71 PUSH1 0xE0 SHL PUSH1 0x0 MSTORE PUSH1 0x32 PUSH1 0x4 MSTORE PUSH1 0x24 PUSH1 0x0 REVERT JUMPDEST PUSH1 0x0 PUSH1 0xFF DUP3 AND PUSH1 0xFF DUP5 AND DUP1 PUSH1 0xFF SUB DUP3 GT ISZERO PUSH2 0x39B JUMPI PUSH4 0x4E487B71 PUSH1 0xE0 SHL PUSH1 0x0 MSTORE PUSH1 0x11 PUSH1 0x4 MSTORE PUSH1 0x24 PUSH1 0x0 REVERT JUMPDEST ADD SWAP4 SWAP3 POP POP POP JUMP INVALID LOG2 PUSH5 0x6970667358 0x22 SLT KECCAK256 PUSH30 0x72D32E4AF388D7D568EE1EBDDA7AB44C71EBCF5EC38926BF51521C6DBC99 0x5F PUSH5 0x736F6C6343 STOP ADDMOD 0xC STOP CALLER ",
  "sha1": "64be5798452fa01265ec033990aaf70e8cdf0422",
  "source": "// SPDX-License-Identifier: MIT\n\npragma solidity >0.6.0;\n\n/**\n    \n*/\n\ncontract IterableMapping\n{\n    // array containing 10 elements\n    bytes32[10] transaction_hashes;\n    uint8 control;\n    bool locked;\n\n    // map the hashes to the receiver\n    mapping(bytes32 => address) map;\n\n    receive() payable external {}\n    fallback() payable external {}\n\n    modifier NoReentrance()\n    {\n        require(!locked, \"You cannot redo this action.\");\n        locked = true;\n        _;\n        locked = false;\n    }\n\n    // write a transaction function\n    function Transact(address to, uint amount) public NoReentrance\n    {\n        require(control < 10, \"Transaction records are full.\");\n        payable(to).call{value: amount}(\"\");\n\n        bytes32 tx_hash = keccak256(abi.encodePacked(msg.sender, to, amount));\n        \n        transaction_hashes[control] = tx_hash;\n        control = control + 1;\n        map[tx_hash] = to;\n    }\n\n    function Get_Hash_Receiver(uint8 index) public view returns(address)\n    {\n        require(index < control, \"Index not recorded\");\n        \n        address receiver = map[transaction_hashes[index]];\n        \n        // return string(abi.encodePacked(\"Address of receceiver with hash \", transaction_hashes[index], \" is \", receiver));\n        return receiver;\n    }\n}",
  "sourcePath": "contracts/IterableMapping.sol",
  "type": "contract"
}