{"abi":[{"anonymous":false,"inputs":[{"indexed":false,"internalType":"string","name":"","type":"string"},{"indexed":false,"internalType":"address","name":"","type":"address"}],"name":"Add","type":"event"},{"anonymous":false,"inputs":[{"indexed":false,"internalType":"string","name":"","type":"string"},{"indexed":false,"internalType":"address","name":"","type":"address"},{"indexed":false,"internalType":"address","name":"","type":"address"}],"name":"ChangeAddress","type":"event"},{"anonymous":false,"inputs":[{"indexed":false,"internalType":"string","name":"","type":"string"},{"indexed":false,"internalType":"string","name":"","type":"string"},{"indexed":false,"internalType":"address","name":"","type":"address"}],"name":"ChangeName","type":"event"},{"anonymous":false,"inputs":[{"indexed":false,"internalType":"string","name":"","type":"string"},{"indexed":false,"internalType":"address","name":"","type":"address"}],"name":"Remove","type":"event"},{"inputs":[{"internalType":"string","name":"_name","type":"string"},{"internalType":"address","name":"_address","type":"address"}],"name":"add","outputs":[],"stateMutability":"nonpayable","type":"function"},{"inputs":[{"internalType":"string","name":"_name","type":"string"}],"name":"getAddress","outputs":[{"internalType":"address","name":"","type":"address"}],"stateMutability":"view","type":"function"},{"inputs":[{"internalType":"string","name":"_name","type":"string"}],"name":"remove","outputs":[],"stateMutability":"nonpayable","type":"function"},{"inputs":[{"internalType":"string","name":"_name","type":"string"},{"internalType":"address","name":"_address","type":"address"}],"name":"updateAddress","outputs":[],"stateMutability":"nonpayable","type":"function"},{"inputs":[{"internalType":"string","name":"_name","type":"string"},{"internalType":"string","name":"new_name","type":"string"}],"name":"updateName","outputs":[],"stateMutability":"nonpayable","type":"function"}],"bytecode":"608060405234801561001057600080fd5b50610a98806100206000396000f3fe608060405234801561001057600080fd5b50600436106100575760003560e01c80632bffc7ed1461005c578063381bbbe3146100715780633e21750a1461008457806380599e4b14610097578063bf40fac1146100aa575b600080fd5b61006f61006a3660046107e9565b6100d9565b005b61006f61007f366004610847565b610216565b61006f6100923660046107e9565b6103fd565b61006f6100a53660046108ab565b61055d565b6100bd6100b83660046108ab565b610662565b6040516001600160a01b03909116815260200160405180910390f35b336100ff5760405162461bcd60e51b81526004016100f6906108e8565b60405180910390fd5b60008251116101205760405162461bcd60e51b81526004016100f69061090a565b6001600160a01b0381166101465760405162461bcd60e51b81526004016100f6906108e8565b61014f82610705565b1561018a5760405162461bcd60e51b815260206004820152600b60248201526a4e616d652045786973747360a81b60448201526064016100f6565b336000908152602081905260409081902090518291906101ab908590610959565b90815260405190819003602001812080546001600160a01b03939093166001600160a01b0319909316929092179091557f9ab228b412b6c50692689d42e8d355b831ae935bf187a582aaf7bc24ca6dc1909061020a90849084906109a1565b60405180910390a15050565b336102335760405162461bcd60e51b81526004016100f6906108e8565b60008251116102545760405162461bcd60e51b81526004016100f69061090a565b60008151116102965760405162461bcd60e51b815260206004820152600e60248201526d4e6577204e616d6520456d70747960901b60448201526064016100f6565b61029f82610705565b6102bb5760405162461bcd60e51b81526004016100f6906109cb565b6102c481610705565b156103035760405162461bcd60e51b815260206004820152600f60248201526e4e6577204e616d652045786973747360881b60448201526064016100f6565b336000908152602081905260408082209051610320908590610959565b90815260408051918290036020908101832054336000908152918290529190206001600160a01b039091169250829161035a908590610959565b908152604080516020928190038301812080546001600160a01b0319166001600160a01b039590951694909417909355336000908152918290529020906103a2908590610959565b90815260405190819003602001812080546001600160a01b03191690557f1590be3f31d4fea1b5347d36dce1d8faeaa04a82f9912b408d2e30dc5857b873906103f0908590859085906109f1565b60405180910390a1505050565b3361041a5760405162461bcd60e51b81526004016100f6906108e8565b600082511161043b5760405162461bcd60e51b81526004016100f69061090a565b6001600160a01b0381166104615760405162461bcd60e51b81526004016100f6906108e8565b61046a82610705565b156104a55760405162461bcd60e51b815260206004820152600b60248201526a4e616d652045786973747360a81b60448201526064016100f6565b3360009081526020819052604080822090516104c2908590610959565b90815260408051918290036020908101832054336000908152918290529190206001600160a01b03909116925083916104fc908690610959565b90815260405190819003602001812080546001600160a01b03939093166001600160a01b0319909316929092179091557f685cb9667751e0a0d68e0ab5e737963ad9d2c743b0191f9aedfe037e723db0ad906103f090859084908690610a2f565b3361057a5760405162461bcd60e51b81526004016100f6906108e8565b600081511161059b5760405162461bcd60e51b81526004016100f69061090a565b6105a481610705565b6105c05760405162461bcd60e51b81526004016100f6906109cb565b3360009081526020819052604080822090516105dd908490610959565b90815260408051918290036020908101832054336000908152918290529190206001600160a01b03909116925090610616908490610959565b90815260405190819003602001812080546001600160a01b03191690557f33f0e5ba8079ed962d5166bdb2180f83068317c73732f76dc437da45bb69ac119061020a90849084906109a1565b6000336106815760405162461bcd60e51b81526004016100f6906108e8565b60008251116106a25760405162461bcd60e51b81526004016100f69061090a565b6106ab82610705565b6106c75760405162461bcd60e51b81526004016100f6906109cb565b336000908152602081905260409081902090516106e5908490610959565b908152604051908190036020019020546001600160a01b03169050919050565b336000908152602081905260408082209051829190610725908590610959565b908152604051908190036020019020546001600160a01b0316141592915050565b634e487b7160e01b600052604160045260246000fd5b600082601f83011261076d57600080fd5b813567ffffffffffffffff8082111561078857610788610746565b604051601f8301601f19908116603f011681019082821181831017156107b0576107b0610746565b816040528381528660208588010111156107c957600080fd5b836020870160208301376000602085830101528094505050505092915050565b600080604083850312156107fc57600080fd5b823567ffffffffffffffff81111561081357600080fd5b61081f8582860161075c565b92505060208301356001600160a01b038116811461083c57600080fd5b809150509250929050565b6000806040838503121561085a57600080fd5b823567ffffffffffffffff8082111561087257600080fd5b61087e8683870161075c565b9350602085013591508082111561089457600080fd5b506108a18582860161075c565b9150509250929050565b6000602082840312156108bd57600080fd5b813567ffffffffffffffff8111156108d457600080fd5b6108e08482850161075c565b949350505050565b602080825260089082015267214164647265737360c01b604082015260600190565b602080825260059082015264456d70747960d81b604082015260600190565b60005b8381101561094457818101518382015260200161092c565b83811115610953576000848401525b50505050565b6000825161096b818460208701610929565b9190910192915050565b6000815180845261098d816020860160208601610929565b601f01601f19169290920160200192915050565b6040815260006109b46040830185610975565b905060018060a01b03831660208301529392505050565b6020808252600c908201526b4e616d65202145786973747360a01b604082015260600190565b606081526000610a046060830186610975565b8281036020840152610a168186610975565b91505060018060a01b0383166040830152949350505050565b606081526000610a426060830186610975565b6001600160a01b039485166020840152929093166040909101529291505056fea2646970667358221220856845416a641010c9e146557a558bd11b62d6ad188e6517c56484221d40085a64736f6c634300080c0033","bytecodeSha1":"66b98dbdea4817ef97be43de9c245427303bead0","compiler":{"evm_version":"istanbul","optimizer":{"enabled":true,"runs":200},"version":"0.8.12+commit.f00d7308"},"contractName":"AddressBook","language":"Solidity","natspec":{"kind":"dev","methods":{},"version":1},"opcodes":"PUSH1 0x80 PUSH1 0x40 MSTORE CALLVALUE DUP1 ISZERO PUSH2 0x10 JUMPI PUSH1 0x0 DUP1 REVERT JUMPDEST POP PUSH1 0x4 CALLDATASIZE LT PUSH2 0x57 JUMPI PUSH1 0x0 CALLDATALOAD PUSH1 0xE0 SHR DUP1 PUSH4 0x2BFFC7ED EQ PUSH2 0x5C JUMPI DUP1 PUSH4 0x381BBBE3 EQ PUSH2 0x71 JUMPI DUP1 PUSH4 0x3E21750A EQ PUSH2 0x84 JUMPI DUP1 PUSH4 0x80599E4B EQ PUSH2 0x97 JUMPI DUP1 PUSH4 0xBF40FAC1 EQ PUSH2 0xAA JUMPI JUMPDEST PUSH1 0x0 DUP1 REVERT JUMPDEST PUSH2 0x6F PUSH2 0x6A CALLDATASIZE PUSH1 0x4 PUSH2 0x7E9 JUMP JUMPDEST PUSH2 0xD9 JUMP JUMPDEST STOP JUMPDEST PUSH2 0x6F PUSH2 0x7F CALLDATASIZE PUSH1 0x4 PUSH2 0x847 JUMP JUMPDEST PUSH2 0x216 JUMP JUMPDEST PUSH2 0x6F PUSH2 0x92 CALLDATASIZE PUSH1 0x4 PUSH2 0x7E9 JUMP JUMPDEST PUSH2 0x3FD JUMP JUMPDEST PUSH2 0x6F PUSH2 0xA5 CALLDATASIZE PUSH1 0x4 PUSH2 0x8AB JUMP JUMPDEST PUSH2 0x55D JUMP JUMPDEST PUSH2 0xBD PUSH2 0xB8 CALLDATASIZE PUSH1 0x4 PUSH2 0x8AB JUMP JUMPDEST PUSH2 0x662 JUMP JUMPDEST PUSH1 0x40 MLOAD PUSH1 0x1 PUSH1 0x1 PUSH1 0xA0 SHL SUB SWAP1 SWAP2 AND DUP2 MSTORE PUSH1 0x20 ADD PUSH1 0x40 MLOAD DUP1 SWAP2 SUB SWAP1 RETURN JUMPDEST CALLER PUSH2 0xFF JUMPI PUSH1 0x40 MLOAD PUSH3 0x461BCD PUSH1 0xE5 SHL DUP2 MSTORE PUSH1 0x4 ADD PUSH2 0xF6 SWAP1 PUSH2 0x8E8 JUMP JUMPDEST PUSH1 0x40 MLOAD DUP1 SWAP2 SUB SWAP1 REVERT JUMPDEST PUSH1 0x0 DUP3 MLOAD GT PUSH2 0x120 JUMPI PUSH1 0x40 MLOAD PUSH3 0x461BCD PUSH1 0xE5 SHL DUP2 MSTORE PUSH1 0x4 ADD PUSH2 0xF6 SWAP1 PUSH2 0x90A JUMP JUMPDEST PUSH1 0x1 PUSH1 0x1 PUSH1 0xA0 SHL SUB DUP2 AND PUSH2 0x146 JUMPI PUSH1 0x40 MLOAD PUSH3 0x461BCD PUSH1 0xE5 SHL DUP2 MSTORE PUSH1 0x4 ADD PUSH2 0xF6 SWAP1 PUSH2 0x8E8 JUMP JUMPDEST PUSH2 0x14F DUP3 PUSH2 0x705 JUMP JUMPDEST ISZERO PUSH2 0x18A JUMPI PUSH1 0x40 MLOAD PUSH3 0x461BCD PUSH1 0xE5 SHL DUP2 MSTORE PUSH1 0x20 PUSH1 0x4 DUP3 ADD MSTORE PUSH1 0xB PUSH1 0x24 DUP3 ADD MSTORE PUSH11 0x4E616D6520457869737473 PUSH1 0xA8 SHL PUSH1 0x44 DUP3 ADD MSTORE PUSH1 0x64 ADD PUSH2 0xF6 JUMP JUMPDEST CALLER PUSH1 0x0 SWAP1 DUP2 MSTORE PUSH1 0x20 DUP2 SWAP1 MSTORE PUSH1 0x40 SWAP1 DUP2 SWAP1 KECCAK256 SWAP1 MLOAD DUP3 SWAP2 SWAP1 PUSH2 0x1AB SWAP1 DUP6 SWAP1 PUSH2 0x959 JUMP JUMPDEST SWAP1 DUP2 MSTORE PUSH1 0x40 MLOAD SWAP1 DUP2 SWAP1 SUB PUSH1 0x20 ADD DUP2 KECCAK256 DUP1 SLOAD PUSH1 0x1 PUSH1 0x1 PUSH1 0xA0 SHL SUB SWAP4 SWAP1 SWAP4 AND PUSH1 0x1 PUSH1 0x1 PUSH1 0xA0 SHL SUB NOT SWAP1 SWAP4 AND SWAP3 SWAP1 SWAP3 OR SWAP1 SWAP2 SSTORE PUSH32 0x9AB228B412B6C50692689D42E8D355B831AE935BF187A582AAF7BC24CA6DC190 SWAP1 PUSH2 0x20A SWAP1 DUP5 SWAP1 DUP5 SWAP1 PUSH2 0x9A1 JUMP JUMPDEST PUSH1 0x40 MLOAD DUP1 SWAP2 SUB SWAP1 LOG1 POP POP JUMP JUMPDEST CALLER PUSH2 0x233 JUMPI PUSH1 0x40 MLOAD PUSH3 0x461BCD PUSH1 0xE5 SHL DUP2 MSTORE PUSH1 0x4 ADD PUSH2 0xF6 SWAP1 PUSH2 0x8E8 JUMP JUMPDEST PUSH1 0x0 DUP3 MLOAD GT PUSH2 0x254 JUMPI PUSH1 0x40 MLOAD PUSH3 0x461BCD PUSH1 0xE5 SHL DUP2 MSTORE PUSH1 0x4 ADD PUSH2 0xF6 SWAP1 PUSH2 0x90A JUMP JUMPDEST PUSH1 0x0 DUP2 MLOAD GT PUSH2 0x296 JUMPI PUSH1 0x40 MLOAD PUSH3 0x461BCD PUSH1 0xE5 SHL DUP2 MSTORE PUSH1 0x20 PUSH1 0x4 DUP3 ADD MSTORE PUSH1 0xE PUSH1 0x24 DUP3 ADD MSTORE PUSH14 0x4E6577204E616D6520456D707479 PUSH1 0x90 SHL PUSH1 0x44 DUP3 ADD MSTORE PUSH1 0x64 ADD PUSH2 0xF6 JUMP JUMPDEST PUSH2 0x29F DUP3 PUSH2 0x705 JUMP JUMPDEST PUSH2 0x2BB JUMPI PUSH1 0x40 MLOAD PUSH3 0x461BCD PUSH1 0xE5 SHL DUP2 MSTORE PUSH1 0x4 ADD PUSH2 0xF6 SWAP1 PUSH2 0x9CB JUMP JUMPDEST PUSH2 0x2C4 DUP2 PUSH2 0x705 JUMP JUMPDEST ISZERO PUSH2 0x303 JUMPI PUSH1 0x40 MLOAD PUSH3 0x461BCD PUSH1 0xE5 SHL DUP2 MSTORE PUSH1 0x20 PUSH1 0x4 DUP3 ADD MSTORE PUSH1 0xF PUSH1 0x24 DUP3 ADD MSTORE PUSH15 0x4E6577204E616D6520457869737473 PUSH1 0x88 SHL PUSH1 0x44 DUP3 ADD MSTORE PUSH1 0x64 ADD PUSH2 0xF6 JUMP JUMPDEST CALLER PUSH1 0x0 SWAP1 DUP2 MSTORE PUSH1 0x20 DUP2 SWAP1 MSTORE PUSH1 0x40 DUP1 DUP3 KECCAK256 SWAP1 MLOAD PUSH2 0x320 SWAP1 DUP6 SWAP1 PUSH2 0x959 JUMP JUMPDEST SWAP1 DUP2 MSTORE PUSH1 0x40 DUP1 MLOAD SWAP2 DUP3 SWAP1 SUB PUSH1 0x20 SWAP1 DUP2 ADD DUP4 KECCAK256 SLOAD CALLER PUSH1 0x0 SWAP1 DUP2 MSTORE SWAP2 DUP3 SWAP1 MSTORE SWAP2 SWAP1 KECCAK256 PUSH1 0x1 PUSH1 0x1 PUSH1 0xA0 SHL SUB SWAP1 SWAP2 AND SWAP3 POP DUP3 SWAP2 PUSH2 0x35A SWAP1 DUP6 SWAP1 PUSH2 0x959 JUMP JUMPDEST SWAP1 DUP2 MSTORE PUSH1 0x40 DUP1 MLOAD PUSH1 0x20 SWAP3 DUP2 SWAP1 SUB DUP4 ADD DUP2 KECCAK256 DUP1 SLOAD PUSH1 0x1 PUSH1 0x1 PUSH1 0xA0 SHL SUB NOT AND PUSH1 0x1 PUSH1 0x1 PUSH1 0xA0 SHL SUB SWAP6 SWAP1 SWAP6 AND SWAP5 SWAP1 SWAP5 OR SWAP1 SWAP4 SSTORE CALLER PUSH1 0x0 SWAP1 DUP2 MSTORE SWAP2 DUP3 SWAP1 MSTORE SWAP1 KECCAK256 SWAP1 PUSH2 0x3A2 SWAP1 DUP6 SWAP1 PUSH2 0x959 JUMP JUMPDEST SWAP1 DUP2 MSTORE PUSH1 0x40 MLOAD SWAP1 DUP2 SWAP1 SUB PUSH1 0x20 ADD DUP2 KECCAK256 DUP1 SLOAD PUSH1 0x1 PUSH1 0x1 PUSH1 0xA0 SHL SUB NOT AND SWAP1 SSTORE PUSH32 0x1590BE3F31D4FEA1B5347D36DCE1D8FAEAA04A82F9912B408D2E30DC5857B873 SWAP1 PUSH2 0x3F0 SWAP1 DUP6 SWAP1 DUP6 SWAP1 DUP6 SWAP1 PUSH2 0x9F1 JUMP JUMPDEST PUSH1 0x40 MLOAD DUP1 SWAP2 SUB SWAP1 LOG1 POP POP POP JUMP JUMPDEST CALLER PUSH2 0x41A JUMPI PUSH1 0x40 MLOAD PUSH3 0x461BCD PUSH1 0xE5 SHL DUP2 MSTORE PUSH1 0x4 ADD PUSH2 0xF6 SWAP1 PUSH2 0x8E8 JUMP JUMPDEST PUSH1 0x0 DUP3 MLOAD GT PUSH2 0x43B JUMPI PUSH1 0x40 MLOAD PUSH3 0x461BCD PUSH1 0xE5 SHL DUP2 MSTORE PUSH1 0x4 ADD PUSH2 0xF6 SWAP1 PUSH2 0x90A JUMP JUMPDEST PUSH1 0x1 PUSH1 0x1 PUSH1 0xA0 SHL SUB DUP2 AND PUSH2 0x461 JUMPI PUSH1 0x40 MLOAD PUSH3 0x461BCD PUSH1 0xE5 SHL DUP2 MSTORE PUSH1 0x4 ADD PUSH2 0xF6 SWAP1 PUSH2 0x8E8 JUMP JUMPDEST PUSH2 0x46A DUP3 PUSH2 0x705 JUMP JUMPDEST ISZERO PUSH2 0x4A5 JUMPI PUSH1 0x40 MLOAD PUSH3 0x461BCD PUSH1 0xE5 SHL DUP2 MSTORE PUSH1 0x20 PUSH1 0x4 DUP3 ADD MSTORE PUSH1 0xB PUSH1 0x24 DUP3 ADD MSTORE PUSH11 0x4E616D6520457869737473 PUSH1 0xA8 SHL PUSH1 0x44 DUP3 ADD MSTORE PUSH1 0x64 ADD PUSH2 0xF6 JUMP JUMPDEST CALLER PUSH1 0x0 SWAP1 DUP2 MSTORE PUSH1 0x20 DUP2 SWAP1 MSTORE PUSH1 0x40 DUP1 DUP3 KECCAK256 SWAP1 MLOAD PUSH2 0x4C2 SWAP1 DUP6 SWAP1 PUSH2 0x959 JUMP JUMPDEST SWAP1 DUP2 MSTORE PUSH1 0x40 DUP1 MLOAD SWAP2 DUP3 SWAP1 SUB PUSH1 0x20 SWAP1 DUP2 ADD DUP4 KECCAK256 SLOAD CALLER PUSH1 0x0 SWAP1 DUP2 MSTORE SWAP2 DUP3 SWAP1 MSTORE SWAP2 SWAP1 KECCAK256 PUSH1 0x1 PUSH1 0x1 PUSH1 0xA0 SHL SUB SWAP1 SWAP2 AND SWAP3 POP DUP4 SWAP2 PUSH2 0x4FC SWAP1 DUP7 SWAP1 PUSH2 0x959 JUMP JUMPDEST SWAP1 DUP2 MSTORE PUSH1 0x40 MLOAD SWAP1 DUP2 SWAP1 SUB PUSH1 0x20 ADD DUP2 KECCAK256 DUP1 SLOAD PUSH1 0x1 PUSH1 0x1 PUSH1 0xA0 SHL SUB SWAP4 SWAP1 SWAP4 AND PUSH1 0x1 PUSH1 0x1 PUSH1 0xA0 SHL SUB NOT SWAP1 SWAP4 AND SWAP3 SWAP1 SWAP3 OR SWAP1 SWAP2 SSTORE PUSH32 0x685CB9667751E0A0D68E0AB5E737963AD9D2C743B0191F9AEDFE037E723DB0AD SWAP1 PUSH2 0x3F0 SWAP1 DUP6 SWAP1 DUP5 SWAP1 DUP7 SWAP1 PUSH2 0xA2F JUMP JUMPDEST CALLER PUSH2 0x57A JUMPI PUSH1 0x40 MLOAD PUSH3 0x461BCD PUSH1 0xE5 SHL DUP2 MSTORE PUSH1 0x4 ADD PUSH2 0xF6 SWAP1 PUSH2 0x8E8 JUMP JUMPDEST PUSH1 0x0 DUP2 MLOAD GT PUSH2 0x59B JUMPI PUSH1 0x40 MLOAD PUSH3 0x461BCD PUSH1 0xE5 SHL DUP2 MSTORE PUSH1 0x4 ADD PUSH2 0xF6 SWAP1 PUSH2 0x90A JUMP JUMPDEST PUSH2 0x5A4 DUP2 PUSH2 0x705 JUMP JUMPDEST PUSH2 0x5C0 JUMPI PUSH1 0x40 MLOAD PUSH3 0x461BCD PUSH1 0xE5 SHL DUP2 MSTORE PUSH1 0x4 ADD PUSH2 0xF6 SWAP1 PUSH2 0x9CB JUMP JUMPDEST CALLER PUSH1 0x0 SWAP1 DUP2 MSTORE PUSH1 0x20 DUP2 SWAP1 MSTORE PUSH1 0x40 DUP1 DUP3 KECCAK256 SWAP1 MLOAD PUSH2 0x5DD SWAP1 DUP5 SWAP1 PUSH2 0x959 JUMP JUMPDEST SWAP1 DUP2 MSTORE PUSH1 0x40 DUP1 MLOAD SWAP2 DUP3 SWAP1 SUB PUSH1 0x20 SWAP1 DUP2 ADD DUP4 KECCAK256 SLOAD CALLER PUSH1 0x0 SWAP1 DUP2 MSTORE SWAP2 DUP3 SWAP1 MSTORE SWAP2 SWAP1 KECCAK256 PUSH1 0x1 PUSH1 0x1 PUSH1 0xA0 SHL SUB SWAP1 SWAP2 AND SWAP3 POP SWAP1 PUSH2 0x616 SWAP1 DUP5 SWAP1 PUSH2 0x959 JUMP JUMPDEST SWAP1 DUP2 MSTORE PUSH1 0x40 MLOAD SWAP1 DUP2 SWAP1 SUB PUSH1 0x20 ADD DUP2 KECCAK256 DUP1 SLOAD PUSH1 0x1 PUSH1 0x1 PUSH1 0xA0 SHL SUB NOT AND SWAP1 SSTORE PUSH32 0x33F0E5BA8079ED962D5166BDB2180F83068317C73732F76DC437DA45BB69AC11 SWAP1 PUSH2 0x20A SWAP1 DUP5 SWAP1 DUP5 SWAP1 PUSH2 0x9A1 JUMP JUMPDEST PUSH1 0x0 CALLER PUSH2 0x681 JUMPI PUSH1 0x40 MLOAD PUSH3 0x461BCD PUSH1 0xE5 SHL DUP2 MSTORE PUSH1 0x4 ADD PUSH2 0xF6 SWAP1 PUSH2 0x8E8 JUMP JUMPDEST PUSH1 0x0 DUP3 MLOAD GT PUSH2 0x6A2 JUMPI PUSH1 0x40 MLOAD PUSH3 0x461BCD PUSH1 0xE5 SHL DUP2 MSTORE PUSH1 0x4 ADD PUSH2 0xF6 SWAP1 PUSH2 0x90A JUMP JUMPDEST PUSH2 0x6AB DUP3 PUSH2 0x705 JUMP JUMPDEST PUSH2 0x6C7 JUMPI PUSH1 0x40 MLOAD PUSH3 0x461BCD PUSH1 0xE5 SHL DUP2 MSTORE PUSH1 0x4 ADD PUSH2 0xF6 SWAP1 PUSH2 0x9CB JUMP JUMPDEST CALLER PUSH1 0x0 SWAP1 DUP2 MSTORE PUSH1 0x20 DUP2 SWAP1 MSTORE PUSH1 0x40 SWAP1 DUP2 SWAP1 KECCAK256 SWAP1 MLOAD PUSH2 0x6E5 SWAP1 DUP5 SWAP1 PUSH2 0x959 JUMP JUMPDEST SWAP1 DUP2 MSTORE PUSH1 0x40 MLOAD SWAP1 DUP2 SWAP1 SUB PUSH1 0x20 ADD SWAP1 KECCAK256 SLOAD PUSH1 0x1 PUSH1 0x1 PUSH1 0xA0 SHL SUB AND SWAP1 POP SWAP2 SWAP1 POP JUMP JUMPDEST CALLER PUSH1 0x0 SWAP1 DUP2 MSTORE PUSH1 0x20 DUP2 SWAP1 MSTORE PUSH1 0x40 DUP1 DUP3 KECCAK256 SWAP1 MLOAD DUP3 SWAP2 SWAP1 PUSH2 0x725 SWAP1 DUP6 SWAP1 PUSH2 0x959 JUMP JUMPDEST SWAP1 DUP2 MSTORE PUSH1 0x40 MLOAD SWAP1 DUP2 SWAP1 SUB PUSH1 0x20 ADD SWAP1 KECCAK256 SLOAD PUSH1 0x1 PUSH1 0x1 PUSH1 0xA0 SHL SUB AND EQ ISZERO SWAP3 SWAP2 POP POP JUMP JUMPDEST PUSH4 0x4E487B71 PUSH1 0xE0 SHL PUSH1 0x0 MSTORE PUSH1 0x41 PUSH1 0x4 MSTORE PUSH1 0x24 PUSH1 0x0 REVERT JUMPDEST PUSH1 0x0 DUP3 PUSH1 0x1F DUP4 ADD SLT PUSH2 0x76D JUMPI PUSH1 0x0 DUP1 REVERT JUMPDEST DUP2 CALLDATALOAD PUSH8 0xFFFFFFFFFFFFFFFF DUP1 DUP3 GT ISZERO PUSH2 0x788 JUMPI PUSH2 0x788 PUSH2 0x746 JUMP JUMPDEST PUSH1 0x40 MLOAD PUSH1 0x1F DUP4 ADD PUSH1 0x1F NOT SWAP1 DUP2 AND PUSH1 0x3F ADD AND DUP2 ADD SWAP1 DUP3 DUP3 GT DUP2 DUP4 LT OR ISZERO PUSH2 0x7B0 JUMPI PUSH2 0x7B0 PUSH2 0x746 JUMP JUMPDEST DUP2 PUSH1 0x40 MSTORE DUP4 DUP2 MSTORE DUP7 PUSH1 0x20 DUP6 DUP9 ADD ADD GT ISZERO PUSH2 0x7C9 JUMPI PUSH1 0x0 DUP1 REVERT JUMPDEST DUP4 PUSH1 0x20 DUP8 ADD PUSH1 0x20 DUP4 ADD CALLDATACOPY PUSH1 0x0 PUSH1 0x20 DUP6 DUP4 ADD ADD MSTORE DUP1 SWAP5 POP POP POP POP POP SWAP3 SWAP2 POP POP JUMP JUMPDEST PUSH1 0x0 DUP1 PUSH1 0x40 DUP4 DUP6 SUB SLT ISZERO PUSH2 0x7FC JUMPI PUSH1 0x0 DUP1 REVERT JUMPDEST DUP3 CALLDATALOAD PUSH8 0xFFFFFFFFFFFFFFFF DUP2 GT ISZERO PUSH2 0x813 JUMPI PUSH1 0x0 DUP1 REVERT JUMPDEST PUSH2 0x81F DUP6 DUP3 DUP7 ADD PUSH2 0x75C JUMP JUMPDEST SWAP3 POP POP PUSH1 0x20 DUP4 ADD CALLDATALOAD PUSH1 0x1 PUSH1 0x1 PUSH1 0xA0 SHL SUB DUP2 AND DUP2 EQ PUSH2 0x83C JUMPI PUSH1 0x0 DUP1 REVERT JUMPDEST DUP1 SWAP2 POP POP SWAP3 POP SWAP3 SWAP1 POP JUMP JUMPDEST PUSH1 0x0 DUP1 PUSH1 0x40 DUP4 DUP6 SUB SLT ISZERO PUSH2 0x85A JUMPI PUSH1 0x0 DUP1 REVERT JUMPDEST DUP3 CALLDATALOAD PUSH8 0xFFFFFFFFFFFFFFFF DUP1 DUP3 GT ISZERO PUSH2 0x872 JUMPI PUSH1 0x0 DUP1 REVERT JUMPDEST PUSH2 0x87E DUP7 DUP4 DUP8 ADD PUSH2 0x75C JUMP JUMPDEST SWAP4 POP PUSH1 0x20 DUP6 ADD CALLDATALOAD SWAP2 POP DUP1 DUP3 GT ISZERO PUSH2 0x894 JUMPI PUSH1 0x0 DUP1 REVERT JUMPDEST POP PUSH2 0x8A1 DUP6 DUP3 DUP7 ADD PUSH2 0x75C JUMP JUMPDEST SWAP2 POP POP SWAP3 POP SWAP3 SWAP1 POP JUMP JUMPDEST PUSH1 0x0 PUSH1 0x20 DUP3 DUP5 SUB SLT ISZERO PUSH2 0x8BD JUMPI PUSH1 0x0 DUP1 REVERT JUMPDEST DUP2 CALLDATALOAD PUSH8 0xFFFFFFFFFFFFFFFF DUP2 GT ISZERO PUSH2 0x8D4 JUMPI PUSH1 0x0 DUP1 REVERT JUMPDEST PUSH2 0x8E0 DUP5 DUP3 DUP6 ADD PUSH2 0x75C JUMP JUMPDEST SWAP5 SWAP4 POP POP POP POP JUMP JUMPDEST PUSH1 0x20 DUP1 DUP3 MSTORE PUSH1 0x8 SWAP1 DUP3 ADD MSTORE PUSH8 0x2141646472657373 PUSH1 0xC0 SHL PUSH1 0x40 DUP3 ADD MSTORE PUSH1 0x60 ADD SWAP1 JUMP JUMPDEST PUSH1 0x20 DUP1 DUP3 MSTORE PUSH1 0x5 SWAP1 DUP3 ADD MSTORE PUSH5 0x456D707479 PUSH1 0xD8 SHL PUSH1 0x40 DUP3 ADD MSTORE PUSH1 0x60 ADD SWAP1 JUMP JUMPDEST PUSH1 0x0 JUMPDEST DUP4 DUP2 LT ISZERO PUSH2 0x944 JUMPI DUP2 DUP2 ADD MLOAD DUP4 DUP3 ADD MSTORE PUSH1 0x20 ADD PUSH2 0x92C JUMP JUMPDEST DUP4 DUP2 GT ISZERO PUSH2 0x953 JUMPI PUSH1 0x0 DUP5 DUP5 ADD MSTORE JUMPDEST POP POP POP POP JUMP JUMPDEST PUSH1 0x0 DUP3 MLOAD PUSH2 0x96B DUP2 DUP5 PUSH1 0x20 DUP8 ADD PUSH2 0x929 JUMP JUMPDEST SWAP2 SWAP1 SWAP2 ADD SWAP3 SWAP2 POP POP JUMP JUMPDEST PUSH1 0x0 DUP2 MLOAD DUP1 DUP5 MSTORE PUSH2 0x98D DUP2 PUSH1 0x20 DUP7 ADD PUSH1 0x20 DUP7 ADD PUSH2 0x929 JUMP JUMPDEST PUSH1 0x1F ADD PUSH1 0x1F NOT AND SWAP3 SWAP1 SWAP3 ADD PUSH1 0x20 ADD SWAP3 SWAP2 POP POP JUMP JUMPDEST PUSH1 0x40 DUP2 MSTORE PUSH1 0x0 PUSH2 0x9B4 PUSH1 0x40 DUP4 ADD DUP6 PUSH2 0x975 JUMP JUMPDEST SWAP1 POP PUSH1 0x1 DUP1 PUSH1 0xA0 SHL SUB DUP4 AND PUSH1 0x20 DUP4 ADD MSTORE SWAP4 SWAP3 POP POP POP JUMP JUMPDEST PUSH1 0x20 DUP1 DUP3 MSTORE PUSH1 0xC SWAP1 DUP3 ADD MSTORE PUSH12 0x4E616D652021457869737473 PUSH1 0xA0 SHL PUSH1 0x40 DUP3 ADD MSTORE PUSH1 0x60 ADD SWAP1 JUMP JUMPDEST PUSH1 0x60 DUP2 MSTORE PUSH1 0x0 PUSH2 0xA04 PUSH1 0x60 DUP4 ADD DUP7 PUSH2 0x975 JUMP JUMPDEST DUP3 DUP2 SUB PUSH1 0x20 DUP5 ADD MSTORE PUSH2 0xA16 DUP2 DUP7 PUSH2 0x975 JUMP JUMPDEST SWAP2 POP POP PUSH1 0x1 DUP1 PUSH1 0xA0 SHL SUB DUP4 AND PUSH1 0x40 DUP4 ADD MSTORE SWAP5 SWAP4 POP POP POP POP JUMP JUMPDEST PUSH1 0x60 DUP2 MSTORE PUSH1 0x0 PUSH2 0xA42 PUSH1 0x60 DUP4 ADD DUP7 PUSH2 0x975 JUMP JUMPDEST PUSH1 0x1 PUSH1 0x1 PUSH1 0xA0 SHL SUB SWAP5 DUP6 AND PUSH1 0x20 DUP5 ADD MSTORE SWAP3 SWAP1 SWAP4 AND PUSH1 0x40 SWAP1 SWAP2 ADD MSTORE SWAP3 SWAP2 POP POP JUMP INVALID LOG2 PUSH5 0x6970667358 0x22 SLT KECCAK256 DUP6 PUSH9 0x45416A641010C9E146 SSTORE PUSH27 0x558BD11B62D6AD188E6517C56484221D40085A64736F6C63430008 0xC STOP CALLER ","sha1":"00ab8f8c526ae8605e08487001466961f63aab35","source":"// SPDX-License-Identifier: MIT\npragma solidity >0.6.0;\n\n/*\n * @title: AddressBook contract.\n * @author: Anthony (fps) https://github.com/fps8k .\n * @dev: \n*/\n\ncontract AddressBook\n{\n\n    // Mapping the name to the addresses.\n\n    mapping(address => mapping(string => address)) private book;\n\n\n    // Events.\n\n    event Add(string, address);                                 // Name, Address.\n    event Remove(string, address);                              // Name, Address.\n    event ChangeName(string, string, address);                  // Old name, New name, Old address, New address.\n    event ChangeAddress(string, address, address);              // Old name, New name, Old address, New address.\n    \n\n\n\n    modifier isValidSender()\n    {\n        require(msg.sender != address(0), \"!Address\");\n        _;\n    }\n\n\n\n\n    function exists(string memory _search) private view returns(bool)\n    {\n        return book[msg.sender][_search] != address(0);\n        // Returns true if the name is saved.\n    }\n\n\n\n    \n    function add(string memory _name, address _address) public isValidSender\n    {\n        require(bytes(_name).length > 0, \"Empty\");\n        require(_address != address(0), \"!Address\");\n        require(!exists(_name), \"Name Exists\");\n\n\n        book[msg.sender][_name] = _address;\n\n        emit Add(_name, _address);\n    }\n\n\n\n\n    function remove(string memory _name) public isValidSender\n    {\n        require(bytes(_name).length > 0, \"Empty\");\n        require(exists(_name), \"Name !Exists\");\n\n        address _address = book[msg.sender][_name];\n        delete book[msg.sender][_name];\n\n        emit Remove(_name, _address);\n    }\n\n\n\n\n    function updateAddress(string memory _name, address _address) public isValidSender\n    {\n        require(bytes(_name).length > 0, \"Empty\");\n        require(_address != address(0), \"!Address\");\n        require(!exists(_name), \"Name Exists\");\n\n        address old_address = book[msg.sender][_name];\n        book[msg.sender][_name] = _address;\n\n        emit ChangeAddress(_name, old_address, _address);\n    }\n\n\n\n\n    function updateName(string memory _name, string memory new_name) public isValidSender\n    {\n        require(bytes(_name).length > 0, \"Empty\");\n        require(bytes(new_name).length > 0, \"New Name Empty\");\n        require(exists(_name), \"Name !Exists\");\n        require(!exists(new_name), \"New Name Exists\");\n        \n        address _address = book[msg.sender][_name];\n\n        book[msg.sender][new_name] = _address;\n        delete book[msg.sender][_name];\n\n        emit ChangeName(_name, new_name, _address);\n    }\n\n\n\n\n    function getAddress(string memory _name) public view isValidSender returns(address)\n    {\n        require(bytes(_name).length > 0, \"Empty\");\n        require(exists(_name), \"Name !Exists\");\n\n        return book[msg.sender][_name];\n    }\n\n}","sourcePath":"contracts/AddressBook.sol","type":"contract","deployment":{"address":"0x93a9b149A40490d03aA37de469105A8049932e30","chainid":"4","blockHeight":10576357}}