{
  "abi": [
    {
      "anonymous": false,
      "inputs": [
        {
          "indexed": true,
          "internalType": "address",
          "name": "__funder",
          "type": "address"
        },
        {
          "indexed": true,
          "internalType": "uint256",
          "name": "__fund",
          "type": "uint256"
        }
      ],
      "name": "Fund",
      "type": "event"
    },
    {
      "anonymous": false,
      "inputs": [
        {
          "indexed": true,
          "internalType": "address",
          "name": "__receiver",
          "type": "address"
        },
        {
          "indexed": true,
          "internalType": "uint256",
          "name": "__fund",
          "type": "uint256"
        }
      ],
      "name": "Pay",
      "type": "event"
    },
    {
      "stateMutability": "payable",
      "type": "fallback"
    },
    {
      "inputs": [
        {
          "internalType": "uint256",
          "name": "",
          "type": "uint256"
        }
      ],
      "name": "donators",
      "outputs": [
        {
          "internalType": "address",
          "name": "",
          "type": "address"
        }
      ],
      "stateMutability": "view",
      "type": "function"
    },
    {
      "inputs": [],
      "name": "fund",
      "outputs": [],
      "stateMutability": "payable",
      "type": "function"
    },
    {
      "inputs": [],
      "name": "request",
      "outputs": [],
      "stateMutability": "payable",
      "type": "function"
    },
    {
      "stateMutability": "payable",
      "type": "receive"
    }
  ],
  "bytecode": "608060405261a8c060055534801561001657600080fd5b5061067f806100266000396000f3fe6080604052600436106100355760003560e01c8063338cdca11461003e578063ac62f56614610046578063b60d42881461008257005b3661003c57005b005b61003c61008a565b34801561005257600080fd5b506100666100613660046105d2565b6102b8565b6040516001600160a01b03909116815260200160405180910390f35b61003c6102e2565b60065460ff16156100d25760405162461bcd60e51b815260206004820152600d60248201526c4e6f205265456e7472616e636560981b60448201526064015b60405180910390fd5b6006805460ff19166001179055336101175760405162461bcd60e51b8152602060048201526008602482015267214164647265737360c01b60448201526064016100c9565b6000600454116101695760405162461bcd60e51b815260206004820152601860248201527f576520686176652072756e206f7574206f66206574686572000000000000000060448201526064016100c9565b336000908152600260205260409020546005546101868242610601565b116101e15760405162461bcd60e51b815260206004820152602560248201527f596f752063616e206f6e6c7920776974686472617720657665727920313220686044820152646f7572732160d81b60648201526084016100c9565b6004546000906101f9906702c68af0bb140000610517565b6004819055336000908152602081905260408120549193509150610225906702c68af0bb140000610517565b33600081815260208181526040808320859055600290915280822042905551929450909250906702c68af0bb1400009082818181858883f19350505050158015610273573d6000803e3d6000fd5b506040516702c68af0bb1400009033907f357b676c439b9e49b4410f8eb8680bee4223724802d8e3fd422e1756f87b475f90600090a350506006805460ff1916905550565b600381815481106102c857600080fd5b6000918252602090912001546001600160a01b0316905081565b60065460ff16156103255760405162461bcd60e51b815260206004820152600d60248201526c4e6f205265456e7472616e636560981b60448201526064016100c9565b6006805460ff191660011790553361036a5760405162461bcd60e51b8152602060048201526008602482015267214164647265737360c01b60448201526064016100c9565b670de0b6b3a76400003410156103bb5760405162461bcd60e51b815260206004820152601660248201527520b6b7bab73a103732b2b232b21d10189032ba3432b960511b60448201526064016100c9565b60006103cf670de0b6b3a764000034610601565b905060006103dd8234610601565b33600090815260016020526040812054919250906103fb908361053d565b336000908152600160205260408120829055600454919350915061041f908461053d565b60048190559150610431905033610564565b61047857600380546001810182556000919091527fc2575a0e9e593c00f959f8c92f12db2869c3395a3b0502d05e2516446f71f85b0180546001600160a01b031916331790555b604051839033907fda8220a878ff7a89474ccffdaa31ea1ed1ffbb0207d5051afccc4fbaf81f9bcd90600090a383156104da57604051339085156108fc029086906000818181858888f193505050501580156104d8573d6000803e3d6000fd5b505b604051849033907f357b676c439b9e49b4410f8eb8680bee4223724802d8e3fd422e1756f87b475f90600090a350506006805460ff191690555050565b6000808383111561052d57506000905080610536565b50600190508183035b9250929050565b60008083830184811015610558576000809250925050610536565b60019590945092505050565b600354600090815b818110156105c857836001600160a01b03166003828154811061059157610591610618565b6000918252602090912001546001600160a01b031614156105b6575060019392505050565b806105c08161062e565b91505061056c565b5060009392505050565b6000602082840312156105e457600080fd5b5035919050565b634e487b7160e01b600052601160045260246000fd5b600082821015610613576106136105eb565b500390565b634e487b7160e01b600052603260045260246000fd5b6000600019821415610642576106426105eb565b506001019056fea26469706673582212204bd62a882f2c2cb28eeae2f26dd6e3660f83339aca8269a5b87280282aaa2f2c64736f6c634300080c0033",
  "bytecodeSha1": "790ef5db9be4c0323ce1f070398cb198430c5077",
  "compiler": {
    "evm_version": "istanbul",
    "optimizer": {
      "enabled": true,
      "runs": 200
    },
    "version": "0.8.12+commit.f00d7308"
  },
  "contractName": "Faucet",
  "language": "Solidity",
  "natspec": {
    "kind": "dev",
    "methods": {},
    "version": 1
  },
  "opcodes": "PUSH1 0x80 PUSH1 0x40 MSTORE PUSH1 0x4 CALLDATASIZE LT PUSH2 0x35 JUMPI PUSH1 0x0 CALLDATALOAD PUSH1 0xE0 SHR DUP1 PUSH4 0x338CDCA1 EQ PUSH2 0x3E JUMPI DUP1 PUSH4 0xAC62F566 EQ PUSH2 0x46 JUMPI DUP1 PUSH4 0xB60D4288 EQ PUSH2 0x82 JUMPI STOP JUMPDEST CALLDATASIZE PUSH2 0x3C JUMPI STOP JUMPDEST STOP JUMPDEST PUSH2 0x3C PUSH2 0x8A JUMP JUMPDEST CALLVALUE DUP1 ISZERO PUSH2 0x52 JUMPI PUSH1 0x0 DUP1 REVERT JUMPDEST POP PUSH2 0x66 PUSH2 0x61 CALLDATASIZE PUSH1 0x4 PUSH2 0x5D2 JUMP JUMPDEST PUSH2 0x2B8 JUMP JUMPDEST PUSH1 0x40 MLOAD PUSH1 0x1 PUSH1 0x1 PUSH1 0xA0 SHL SUB SWAP1 SWAP2 AND DUP2 MSTORE PUSH1 0x20 ADD PUSH1 0x40 MLOAD DUP1 SWAP2 SUB SWAP1 RETURN JUMPDEST PUSH2 0x3C PUSH2 0x2E2 JUMP JUMPDEST PUSH1 0x6 SLOAD PUSH1 0xFF AND ISZERO PUSH2 0xD2 JUMPI PUSH1 0x40 MLOAD PUSH3 0x461BCD PUSH1 0xE5 SHL DUP2 MSTORE PUSH1 0x20 PUSH1 0x4 DUP3 ADD MSTORE PUSH1 0xD PUSH1 0x24 DUP3 ADD MSTORE PUSH13 0x4E6F205265456E7472616E6365 PUSH1 0x98 SHL PUSH1 0x44 DUP3 ADD MSTORE PUSH1 0x64 ADD JUMPDEST PUSH1 0x40 MLOAD DUP1 SWAP2 SUB SWAP1 REVERT JUMPDEST PUSH1 0x6 DUP1 SLOAD PUSH1 0xFF NOT AND PUSH1 0x1 OR SWAP1 SSTORE CALLER PUSH2 0x117 JUMPI PUSH1 0x40 MLOAD PUSH3 0x461BCD PUSH1 0xE5 SHL DUP2 MSTORE PUSH1 0x20 PUSH1 0x4 DUP3 ADD MSTORE PUSH1 0x8 PUSH1 0x24 DUP3 ADD MSTORE PUSH8 0x2141646472657373 PUSH1 0xC0 SHL PUSH1 0x44 DUP3 ADD MSTORE PUSH1 0x64 ADD PUSH2 0xC9 JUMP JUMPDEST PUSH1 0x0 PUSH1 0x4 SLOAD GT PUSH2 0x169 JUMPI PUSH1 0x40 MLOAD PUSH3 0x461BCD PUSH1 0xE5 SHL DUP2 MSTORE PUSH1 0x20 PUSH1 0x4 DUP3 ADD MSTORE PUSH1 0x18 PUSH1 0x24 DUP3 ADD MSTORE PUSH32 0x576520686176652072756E206F7574206F662065746865720000000000000000 PUSH1 0x44 DUP3 ADD MSTORE PUSH1 0x64 ADD PUSH2 0xC9 JUMP JUMPDEST CALLER PUSH1 0x0 SWAP1 DUP2 MSTORE PUSH1 0x2 PUSH1 0x20 MSTORE PUSH1 0x40 SWAP1 KECCAK256 SLOAD PUSH1 0x5 SLOAD PUSH2 0x186 DUP3 TIMESTAMP PUSH2 0x601 JUMP JUMPDEST GT PUSH2 0x1E1 JUMPI PUSH1 0x40 MLOAD PUSH3 0x461BCD PUSH1 0xE5 SHL DUP2 MSTORE PUSH1 0x20 PUSH1 0x4 DUP3 ADD MSTORE PUSH1 0x25 PUSH1 0x24 DUP3 ADD MSTORE PUSH32 0x596F752063616E206F6E6C792077697468647261772065766572792031322068 PUSH1 0x44 DUP3 ADD MSTORE PUSH5 0x6F75727321 PUSH1 0xD8 SHL PUSH1 0x64 DUP3 ADD MSTORE PUSH1 0x84 ADD PUSH2 0xC9 JUMP JUMPDEST PUSH1 0x4 SLOAD PUSH1 0x0 SWAP1 PUSH2 0x1F9 SWAP1 PUSH8 0x2C68AF0BB140000 PUSH2 0x517 JUMP JUMPDEST PUSH1 0x4 DUP2 SWAP1 SSTORE CALLER PUSH1 0x0 SWAP1 DUP2 MSTORE PUSH1 0x20 DUP2 SWAP1 MSTORE PUSH1 0x40 DUP2 KECCAK256 SLOAD SWAP2 SWAP4 POP SWAP2 POP PUSH2 0x225 SWAP1 PUSH8 0x2C68AF0BB140000 PUSH2 0x517 JUMP JUMPDEST CALLER PUSH1 0x0 DUP2 DUP2 MSTORE PUSH1 0x20 DUP2 DUP2 MSTORE PUSH1 0x40 DUP1 DUP4 KECCAK256 DUP6 SWAP1 SSTORE PUSH1 0x2 SWAP1 SWAP2 MSTORE DUP1 DUP3 KECCAK256 TIMESTAMP SWAP1 SSTORE MLOAD SWAP3 SWAP5 POP SWAP1 SWAP3 POP SWAP1 PUSH8 0x2C68AF0BB140000 SWAP1 DUP3 DUP2 DUP2 DUP2 DUP6 DUP9 DUP4 CALL SWAP4 POP POP POP POP ISZERO DUP1 ISZERO PUSH2 0x273 JUMPI RETURNDATASIZE PUSH1 0x0 DUP1 RETURNDATACOPY RETURNDATASIZE PUSH1 0x0 REVERT JUMPDEST POP PUSH1 0x40 MLOAD PUSH8 0x2C68AF0BB140000 SWAP1 CALLER SWAP1 PUSH32 0x357B676C439B9E49B4410F8EB8680BEE4223724802D8E3FD422E1756F87B475F SWAP1 PUSH1 0x0 SWAP1 LOG3 POP POP PUSH1 0x6 DUP1 SLOAD PUSH1 0xFF NOT AND SWAP1 SSTORE POP JUMP JUMPDEST PUSH1 0x3 DUP2 DUP2 SLOAD DUP2 LT PUSH2 0x2C8 JUMPI PUSH1 0x0 DUP1 REVERT JUMPDEST PUSH1 0x0 SWAP2 DUP3 MSTORE PUSH1 0x20 SWAP1 SWAP2 KECCAK256 ADD SLOAD PUSH1 0x1 PUSH1 0x1 PUSH1 0xA0 SHL SUB AND SWAP1 POP DUP2 JUMP JUMPDEST PUSH1 0x6 SLOAD PUSH1 0xFF AND ISZERO PUSH2 0x325 JUMPI PUSH1 0x40 MLOAD PUSH3 0x461BCD PUSH1 0xE5 SHL DUP2 MSTORE PUSH1 0x20 PUSH1 0x4 DUP3 ADD MSTORE PUSH1 0xD PUSH1 0x24 DUP3 ADD MSTORE PUSH13 0x4E6F205265456E7472616E6365 PUSH1 0x98 SHL PUSH1 0x44 DUP3 ADD MSTORE PUSH1 0x64 ADD PUSH2 0xC9 JUMP JUMPDEST PUSH1 0x6 DUP1 SLOAD PUSH1 0xFF NOT AND PUSH1 0x1 OR SWAP1 SSTORE CALLER PUSH2 0x36A JUMPI PUSH1 0x40 MLOAD PUSH3 0x461BCD PUSH1 0xE5 SHL DUP2 MSTORE PUSH1 0x20 PUSH1 0x4 DUP3 ADD MSTORE PUSH1 0x8 PUSH1 0x24 DUP3 ADD MSTORE PUSH8 0x2141646472657373 PUSH1 0xC0 SHL PUSH1 0x44 DUP3 ADD MSTORE PUSH1 0x64 ADD PUSH2 0xC9 JUMP JUMPDEST PUSH8 0xDE0B6B3A7640000 CALLVALUE LT ISZERO PUSH2 0x3BB JUMPI PUSH1 0x40 MLOAD PUSH3 0x461BCD PUSH1 0xE5 SHL DUP2 MSTORE PUSH1 0x20 PUSH1 0x4 DUP3 ADD MSTORE PUSH1 0x16 PUSH1 0x24 DUP3 ADD MSTORE PUSH22 0x20B6B7BAB73A103732B2B232B21D10189032BA3432B9 PUSH1 0x51 SHL PUSH1 0x44 DUP3 ADD MSTORE PUSH1 0x64 ADD PUSH2 0xC9 JUMP JUMPDEST PUSH1 0x0 PUSH2 0x3CF PUSH8 0xDE0B6B3A7640000 CALLVALUE PUSH2 0x601 JUMP JUMPDEST SWAP1 POP PUSH1 0x0 PUSH2 0x3DD DUP3 CALLVALUE PUSH2 0x601 JUMP JUMPDEST CALLER PUSH1 0x0 SWAP1 DUP2 MSTORE PUSH1 0x1 PUSH1 0x20 MSTORE PUSH1 0x40 DUP2 KECCAK256 SLOAD SWAP2 SWAP3 POP SWAP1 PUSH2 0x3FB SWAP1 DUP4 PUSH2 0x53D JUMP JUMPDEST CALLER PUSH1 0x0 SWAP1 DUP2 MSTORE PUSH1 0x1 PUSH1 0x20 MSTORE PUSH1 0x40 DUP2 KECCAK256 DUP3 SWAP1 SSTORE PUSH1 0x4 SLOAD SWAP2 SWAP4 POP SWAP2 POP PUSH2 0x41F SWAP1 DUP5 PUSH2 0x53D JUMP JUMPDEST PUSH1 0x4 DUP2 SWAP1 SSTORE SWAP2 POP PUSH2 0x431 SWAP1 POP CALLER PUSH2 0x564 JUMP JUMPDEST PUSH2 0x478 JUMPI PUSH1 0x3 DUP1 SLOAD PUSH1 0x1 DUP2 ADD DUP3 SSTORE PUSH1 0x0 SWAP2 SWAP1 SWAP2 MSTORE PUSH32 0xC2575A0E9E593C00F959F8C92F12DB2869C3395A3B0502D05E2516446F71F85B ADD DUP1 SLOAD PUSH1 0x1 PUSH1 0x1 PUSH1 0xA0 SHL SUB NOT AND CALLER OR SWAP1 SSTORE JUMPDEST PUSH1 0x40 MLOAD DUP4 SWAP1 CALLER SWAP1 PUSH32 0xDA8220A878FF7A89474CCFFDAA31EA1ED1FFBB0207D5051AFCCC4FBAF81F9BCD SWAP1 PUSH1 0x0 SWAP1 LOG3 DUP4 ISZERO PUSH2 0x4DA JUMPI PUSH1 0x40 MLOAD CALLER SWAP1 DUP6 ISZERO PUSH2 0x8FC MUL SWAP1 DUP7 SWAP1 PUSH1 0x0 DUP2 DUP2 DUP2 DUP6 DUP9 DUP9 CALL SWAP4 POP POP POP POP ISZERO DUP1 ISZERO PUSH2 0x4D8 JUMPI RETURNDATASIZE PUSH1 0x0 DUP1 RETURNDATACOPY RETURNDATASIZE PUSH1 0x0 REVERT JUMPDEST POP JUMPDEST PUSH1 0x40 MLOAD DUP5 SWAP1 CALLER SWAP1 PUSH32 0x357B676C439B9E49B4410F8EB8680BEE4223724802D8E3FD422E1756F87B475F SWAP1 PUSH1 0x0 SWAP1 LOG3 POP POP PUSH1 0x6 DUP1 SLOAD PUSH1 0xFF NOT AND SWAP1 SSTORE POP POP JUMP JUMPDEST PUSH1 0x0 DUP1 DUP4 DUP4 GT ISZERO PUSH2 0x52D JUMPI POP PUSH1 0x0 SWAP1 POP DUP1 PUSH2 0x536 JUMP JUMPDEST POP PUSH1 0x1 SWAP1 POP DUP2 DUP4 SUB JUMPDEST SWAP3 POP SWAP3 SWAP1 POP JUMP JUMPDEST PUSH1 0x0 DUP1 DUP4 DUP4 ADD DUP5 DUP2 LT ISZERO PUSH2 0x558 JUMPI PUSH1 0x0 DUP1 SWAP3 POP SWAP3 POP POP PUSH2 0x536 JUMP JUMPDEST PUSH1 0x1 SWAP6 SWAP1 SWAP5 POP SWAP3 POP POP POP JUMP JUMPDEST PUSH1 0x3 SLOAD PUSH1 0x0 SWAP1 DUP2 JUMPDEST DUP2 DUP2 LT ISZERO PUSH2 0x5C8 JUMPI DUP4 PUSH1 0x1 PUSH1 0x1 PUSH1 0xA0 SHL SUB AND PUSH1 0x3 DUP3 DUP2 SLOAD DUP2 LT PUSH2 0x591 JUMPI PUSH2 0x591 PUSH2 0x618 JUMP JUMPDEST PUSH1 0x0 SWAP2 DUP3 MSTORE PUSH1 0x20 SWAP1 SWAP2 KECCAK256 ADD SLOAD PUSH1 0x1 PUSH1 0x1 PUSH1 0xA0 SHL SUB AND EQ ISZERO PUSH2 0x5B6 JUMPI POP PUSH1 0x1 SWAP4 SWAP3 POP POP POP JUMP JUMPDEST DUP1 PUSH2 0x5C0 DUP2 PUSH2 0x62E JUMP JUMPDEST SWAP2 POP POP PUSH2 0x56C JUMP JUMPDEST POP PUSH1 0x0 SWAP4 SWAP3 POP POP POP JUMP JUMPDEST PUSH1 0x0 PUSH1 0x20 DUP3 DUP5 SUB SLT ISZERO PUSH2 0x5E4 JUMPI PUSH1 0x0 DUP1 REVERT JUMPDEST POP CALLDATALOAD SWAP2 SWAP1 POP JUMP JUMPDEST PUSH4 0x4E487B71 PUSH1 0xE0 SHL PUSH1 0x0 MSTORE PUSH1 0x11 PUSH1 0x4 MSTORE PUSH1 0x24 PUSH1 0x0 REVERT JUMPDEST PUSH1 0x0 DUP3 DUP3 LT ISZERO PUSH2 0x613 JUMPI PUSH2 0x613 PUSH2 0x5EB JUMP JUMPDEST POP SUB SWAP1 JUMP JUMPDEST PUSH4 0x4E487B71 PUSH1 0xE0 SHL PUSH1 0x0 MSTORE PUSH1 0x32 PUSH1 0x4 MSTORE PUSH1 0x24 PUSH1 0x0 REVERT JUMPDEST PUSH1 0x0 PUSH1 0x0 NOT DUP3 EQ ISZERO PUSH2 0x642 JUMPI PUSH2 0x642 PUSH2 0x5EB JUMP JUMPDEST POP PUSH1 0x1 ADD SWAP1 JUMP INVALID LOG2 PUSH5 0x6970667358 0x22 SLT KECCAK256 0x4B 0xD6 0x2A DUP9 0x2F 0x2C 0x2C 0xB2 DUP15 0xEA 0xE2 CALLCODE PUSH14 0xD6E3660F83339ACA8269A5B87280 0x28 0x2A 0xAA 0x2F 0x2C PUSH5 0x736F6C6343 STOP ADDMOD 0xC STOP CALLER ",
  "sha1": "5a44179a3c0f4e9af9a302cb6e13adf97afaf681",
  "source": "// SPDX-License-Identifier: MIT\npragma solidity >0.6.0;\nimport \"./Libraries/SafeMath.sol\";\n\n\n\n/*\n * @title: Rinkeby Test Faucet [Modified].\n * @author: Anthony (fps) https://github.com/fps8k .\n * @dev: \n *\n * I once wrote this contract to deposit any specific amount of ether from the contract.\n * But on this mod [28/05/2022] I am re-writing it to actually dispose some specific ether 0.2 ether.\n * But it shall demand just 1 ether for fundings.\n*/\n\ncontract Faucet\n{\n    // Use SafeMath for all uint.\n    using SafeMath for uint256;\n    // Faucet has no owner.\n    // Collections, that is the total amount that a particular address has collected from the Faucet.\n    mapping (address => uint256) private collections;\n    // Funders, the total amount that a particular address has donated to the Faucet.\n    mapping (address => uint256) private funders;\n    // Time, the last time a particular address withdrew. Addresses can withdraw ether every 12 hours.\n    mapping (address => uint256) private time;\n    // Array of the addresses that have donated to the faucet.\n    address[] public donators;\n    // Balance of the contract.\n    uint256 private balance;\n    // Interval that is 12 hours.\n    uint256 private interval = 12 hours;\n    // uint256 private interval = 1 seconds;\n    // Boolean to check for Re-Entrancy attacks.\n    bool locked;\n\n\n\n    // ============= E V E N T S =================\n\n    // Emitted when someone funds the contract.\n    event Fund(address indexed __funder, uint256 indexed __fund);\n    // Emitted when the contract pays someone.\n    event Pay(address indexed __receiver, uint256 indexed __fund);\n\n    // ============= E V E N T S =================\n\n\n\n    // ================ F A L L B A C K   A N D   R E C E I V E ================\n\n    fallback() external payable{}\n    receive() external payable{}\n\n    // ================ F A L L B A C K   A N D   R E C E I V E ================\n\n\n\n    // ================= M O D I F I E R ==========================\n\n    // Checks for Re-Entrancy attacks.\n    modifier noReEntrance()\n    {\n        // Requires that the locked is set to false.\n        require(!locked, \"No ReEntrance\");\n        // Lock the function.\n        locked = true;\n        // Execute.\n        _;\n        // Re-open the lock.\n        locked = false;\n    }\n\n    // ================= M O D I F I E R ==========================\n\n\n\n    // Checks if the address is in the donators array for a new push.\n    function hasDonated(address _address) private view returns(bool)\n    {\n        // Push the length of the donators array to memory.\n        uint256 l = donators.length;\n        // Loop over the array\n        for (uint256 k = 0; k < l; k++)\n        {\n            // If the donor exists in the array.\n            if (donators[k] == _address)\n                // Return true.\n                return true;\n        }\n\n        // On loop end, that is, the donor is not in the array.\n        return false;\n    }\n\n\n\n    /*\n    * @dev:\n    *\n    * Funds any address on the condition that the time span of the last transaction to that address was 12 hours.\n    */\n    function fund() public payable noReEntrance\n    {\n        // Ensure address donating isn't a 0 address.\n        require(msg.sender != address(0), \"!Address\");\n        // Require that the donation is >= 1 ether.\n        require(msg.value >= 1 ether, \"Amount needed: 1 ether\");\n        // Balance left after donation.\n        uint bal = msg.value - 1 ether;\n        // This should be == 1 ether but for confirmation purposes.\n        uint _fund = msg.value - bal;\n        // Record the funders value;\n        // (, uint256 j) = funders[msg.sender].tryAdd(1 ether);\n        (, uint256 j) = funders[msg.sender].tryAdd(_fund);\n        // Update the funder value.\n        funders[msg.sender] = j;\n        // Increment the balance of the contract.\n        // (, uint256 p) = balance.tryAdd(1 ether);\n        (, uint256 p) = balance.tryAdd(_fund);\n        // Update new balance.\n        balance = p;\n\n        // If the address has not donated before, it should be added to the donators array.\n        if (!hasDonated(msg.sender))\n            // Add the address to the array.\n            donators.push(msg.sender);\n\n        // Emit the fund event.\n        emit Fund(msg.sender, _fund);\n\n        // If the balance is > 0.\n        if (bal > 0)\n            // Refund the balance`.\n            payable(msg.sender).transfer(bal);\n            // Emit the pay event.\n            emit Pay(msg.sender, bal);\n    }\n\n\n\n    /*\n    * @dev:\n    *\n    * This function requests for some ether from the faucet.\n    * The faucet dispenses 0.2 ether for every address every 12 hours.\n    */\n    function request() public payable noReEntrance\n    {\n        // Ensure address donating isn't a 0 address.\n        require(msg.sender != address(0), \"!Address\");\n        // Make sure that the contract still has ether.\n        require(balance > 0, \"We have run out of ether\");\n        // Get the requester's last request time.\n        uint256 last_time = time[msg.sender];\n        // Make sure that the time passed is more than or == 12 hours.\n        require((block.timestamp - last_time) > interval, \"You can only withdraw every 12 hours!\");\n        // Remove 0.2 ether from balance.\n        (, uint256 p) = balance.trySub(0.2 ether);\n        // Reassign new balance.\n        balance = p;\n        // Update the collections of the requester.\n        (, uint j) = collections[msg.sender].trySub(0.2 ether);\n        // Update the requesters collections.\n        collections[msg.sender] = j;\n        // Update the last request time.\n        time[msg.sender] = block.timestamp;\n        // Transfer the funds to the requester.\n        payable(msg.sender).transfer(0.2 ether);\n        // Emit the pay event.\n        emit Pay(msg.sender, 0.2 ether);\n    }\n}",
  "sourcePath": "contracts/Faucet.sol",
  "type": "contract"
}