{
  "abi": [
    {
      "inputs": [],
      "stateMutability": "nonpayable",
      "type": "constructor"
    },
    {
      "stateMutability": "payable",
      "type": "fallback"
    },
    {
      "inputs": [],
      "name": "fund",
      "outputs": [],
      "stateMutability": "payable",
      "type": "function"
    },
    {
      "inputs": [
        {
          "internalType": "address",
          "name": "",
          "type": "address"
        }
      ],
      "name": "funders",
      "outputs": [
        {
          "internalType": "uint256",
          "name": "",
          "type": "uint256"
        }
      ],
      "stateMutability": "view",
      "type": "function"
    },
    {
      "inputs": [
        {
          "internalType": "uint256",
          "name": "_val",
          "type": "uint256"
        }
      ],
      "name": "request",
      "outputs": [],
      "stateMutability": "payable",
      "type": "function"
    },
    {
      "inputs": [],
      "name": "toggle",
      "outputs": [],
      "stateMutability": "nonpayable",
      "type": "function"
    },
    {
      "stateMutability": "payable",
      "type": "receive"
    }
  ],
  "bytecode": "608060405234801561001057600080fd5b50600080546001600160a01b031916735e078e6b545cf88abd5bb58d27488ef8be0d259317905561048d806100466000396000f3fe6080604052600436106100405760003560e01c8063031b36771461004957806340a3d24614610088578063b60d42881461009d578063d845a4b3146100a557005b3661004757005b005b34801561005557600080fd5b506100766100643660046103a7565b60026020526000908152604090205481565b60405190815260200160405180910390f35b34801561009457600080fd5b506100476100b8565b610047610114565b6100476100b33660046103d7565b61024c565b6000546001600160a01b031633146101005760405162461bcd60e51b815260206004820152600660248201526510a7bbb732b960d11b60448201526064015b60405180910390fd5b6003805460ff19811660ff90911615179055565b600354610100900460ff161561015c5760405162461bcd60e51b815260206004820152600d60248201526c4e6f205265456e7472616e636560981b60448201526064016100f7565b6003805461ff001981166101001790915560ff161561018d5760405162461bcd60e51b81526004016100f7906103f0565b67016345785d8a00003410156101d55760405162461bcd60e51b815260206004820152600d60248201526c09ad2dc407a7a40605c628aa89609b1b60448201526064016100f7565b671bc16d674ec8000034111561021b5760405162461bcd60e51b815260206004820152600b60248201526a09ac2f0407a7a40648aa8960ab1b60448201526064016100f7565b336000908152600260205260408120805434929061023a908490610431565b90915550506003805461ff0019169055565b600354610100900460ff16156102945760405162461bcd60e51b815260206004820152600d60248201526c4e6f205265456e7472616e636560981b60448201526064016100f7565b6003805461ff001981166101001790915560ff16156102c55760405162461bcd60e51b81526004016100f7906103f0565b600081116102ff5760405162461bcd60e51b81526020600482015260076024820152660526571203d20360cc1b60448201526064016100f7565b67016345785d8a00008111156103475760405162461bcd60e51b815260206004820152600d60248201526c0a4cae240787a40605c628aa89609b1b60448201526064016100f7565b3360009081526001602052604081208054839290610366908490610431565b9091555050604051339082156108fc029083906000818181858888f19350505050158015610398573d6000803e3d6000fd5b50506003805461ff0019169055565b6000602082840312156103b957600080fd5b81356001600160a01b03811681146103d057600080fd5b9392505050565b6000602082840312156103e957600080fd5b5035919050565b60208082526021908201527f46756e64696e6720636c6f7365642c20436865636b206261636b206c617465726040820152601760f91b606082015260800190565b6000821982111561045257634e487b7160e01b600052601160045260246000fd5b50019056fea264697066735822122027dc74a6896c9e3ef2e0f80699056f189391bc97ea87c40eca1a6f5d584f79ff64736f6c634300080c0033",
  "bytecodeSha1": "4efd55e98bad33629b242383314a383d350ee5cf",
  "compiler": {
    "evm_version": "istanbul",
    "optimizer": {
      "enabled": true,
      "runs": 200
    },
    "version": "0.8.12+commit.f00d7308"
  },
  "contractName": "Faucet",
  "language": "Solidity",
  "natspec": {
    "kind": "dev",
    "methods": {},
    "version": 1
  },
  "opcodes": "PUSH1 0x80 PUSH1 0x40 MSTORE PUSH1 0x4 CALLDATASIZE LT PUSH2 0x40 JUMPI PUSH1 0x0 CALLDATALOAD PUSH1 0xE0 SHR DUP1 PUSH4 0x31B3677 EQ PUSH2 0x49 JUMPI DUP1 PUSH4 0x40A3D246 EQ PUSH2 0x88 JUMPI DUP1 PUSH4 0xB60D4288 EQ PUSH2 0x9D JUMPI DUP1 PUSH4 0xD845A4B3 EQ PUSH2 0xA5 JUMPI STOP JUMPDEST CALLDATASIZE PUSH2 0x47 JUMPI STOP JUMPDEST STOP JUMPDEST CALLVALUE DUP1 ISZERO PUSH2 0x55 JUMPI PUSH1 0x0 DUP1 REVERT JUMPDEST POP PUSH2 0x76 PUSH2 0x64 CALLDATASIZE PUSH1 0x4 PUSH2 0x3A7 JUMP JUMPDEST PUSH1 0x2 PUSH1 0x20 MSTORE PUSH1 0x0 SWAP1 DUP2 MSTORE PUSH1 0x40 SWAP1 KECCAK256 SLOAD DUP2 JUMP JUMPDEST PUSH1 0x40 MLOAD SWAP1 DUP2 MSTORE PUSH1 0x20 ADD PUSH1 0x40 MLOAD DUP1 SWAP2 SUB SWAP1 RETURN JUMPDEST CALLVALUE DUP1 ISZERO PUSH2 0x94 JUMPI PUSH1 0x0 DUP1 REVERT JUMPDEST POP PUSH2 0x47 PUSH2 0xB8 JUMP JUMPDEST PUSH2 0x47 PUSH2 0x114 JUMP JUMPDEST PUSH2 0x47 PUSH2 0xB3 CALLDATASIZE PUSH1 0x4 PUSH2 0x3D7 JUMP JUMPDEST PUSH2 0x24C JUMP JUMPDEST PUSH1 0x0 SLOAD PUSH1 0x1 PUSH1 0x1 PUSH1 0xA0 SHL SUB AND CALLER EQ PUSH2 0x100 JUMPI PUSH1 0x40 MLOAD PUSH3 0x461BCD PUSH1 0xE5 SHL DUP2 MSTORE PUSH1 0x20 PUSH1 0x4 DUP3 ADD MSTORE PUSH1 0x6 PUSH1 0x24 DUP3 ADD MSTORE PUSH6 0x10A7BBB732B9 PUSH1 0xD1 SHL PUSH1 0x44 DUP3 ADD MSTORE PUSH1 0x64 ADD JUMPDEST PUSH1 0x40 MLOAD DUP1 SWAP2 SUB SWAP1 REVERT JUMPDEST PUSH1 0x3 DUP1 SLOAD PUSH1 0xFF NOT DUP2 AND PUSH1 0xFF SWAP1 SWAP2 AND ISZERO OR SWAP1 SSTORE JUMP JUMPDEST PUSH1 0x3 SLOAD PUSH2 0x100 SWAP1 DIV PUSH1 0xFF AND ISZERO PUSH2 0x15C JUMPI PUSH1 0x40 MLOAD PUSH3 0x461BCD PUSH1 0xE5 SHL DUP2 MSTORE PUSH1 0x20 PUSH1 0x4 DUP3 ADD MSTORE PUSH1 0xD PUSH1 0x24 DUP3 ADD MSTORE PUSH13 0x4E6F205265456E7472616E6365 PUSH1 0x98 SHL PUSH1 0x44 DUP3 ADD MSTORE PUSH1 0x64 ADD PUSH2 0xF7 JUMP JUMPDEST PUSH1 0x3 DUP1 SLOAD PUSH2 0xFF00 NOT DUP2 AND PUSH2 0x100 OR SWAP1 SWAP2 SSTORE PUSH1 0xFF AND ISZERO PUSH2 0x18D JUMPI PUSH1 0x40 MLOAD PUSH3 0x461BCD PUSH1 0xE5 SHL DUP2 MSTORE PUSH1 0x4 ADD PUSH2 0xF7 SWAP1 PUSH2 0x3F0 JUMP JUMPDEST PUSH8 0x16345785D8A0000 CALLVALUE LT ISZERO PUSH2 0x1D5 JUMPI PUSH1 0x40 MLOAD PUSH3 0x461BCD PUSH1 0xE5 SHL DUP2 MSTORE PUSH1 0x20 PUSH1 0x4 DUP3 ADD MSTORE PUSH1 0xD PUSH1 0x24 DUP3 ADD MSTORE PUSH13 0x9AD2DC407A7A40605C628AA89 PUSH1 0x9B SHL PUSH1 0x44 DUP3 ADD MSTORE PUSH1 0x64 ADD PUSH2 0xF7 JUMP JUMPDEST PUSH8 0x1BC16D674EC80000 CALLVALUE GT ISZERO PUSH2 0x21B JUMPI PUSH1 0x40 MLOAD PUSH3 0x461BCD PUSH1 0xE5 SHL DUP2 MSTORE PUSH1 0x20 PUSH1 0x4 DUP3 ADD MSTORE PUSH1 0xB PUSH1 0x24 DUP3 ADD MSTORE PUSH11 0x9AC2F0407A7A40648AA89 PUSH1 0xAB SHL PUSH1 0x44 DUP3 ADD MSTORE PUSH1 0x64 ADD PUSH2 0xF7 JUMP JUMPDEST CALLER PUSH1 0x0 SWAP1 DUP2 MSTORE PUSH1 0x2 PUSH1 0x20 MSTORE PUSH1 0x40 DUP2 KECCAK256 DUP1 SLOAD CALLVALUE SWAP3 SWAP1 PUSH2 0x23A SWAP1 DUP5 SWAP1 PUSH2 0x431 JUMP JUMPDEST SWAP1 SWAP2 SSTORE POP POP PUSH1 0x3 DUP1 SLOAD PUSH2 0xFF00 NOT AND SWAP1 SSTORE JUMP JUMPDEST PUSH1 0x3 SLOAD PUSH2 0x100 SWAP1 DIV PUSH1 0xFF AND ISZERO PUSH2 0x294 JUMPI PUSH1 0x40 MLOAD PUSH3 0x461BCD PUSH1 0xE5 SHL DUP2 MSTORE PUSH1 0x20 PUSH1 0x4 DUP3 ADD MSTORE PUSH1 0xD PUSH1 0x24 DUP3 ADD MSTORE PUSH13 0x4E6F205265456E7472616E6365 PUSH1 0x98 SHL PUSH1 0x44 DUP3 ADD MSTORE PUSH1 0x64 ADD PUSH2 0xF7 JUMP JUMPDEST PUSH1 0x3 DUP1 SLOAD PUSH2 0xFF00 NOT DUP2 AND PUSH2 0x100 OR SWAP1 SWAP2 SSTORE PUSH1 0xFF AND ISZERO PUSH2 0x2C5 JUMPI PUSH1 0x40 MLOAD PUSH3 0x461BCD PUSH1 0xE5 SHL DUP2 MSTORE PUSH1 0x4 ADD PUSH2 0xF7 SWAP1 PUSH2 0x3F0 JUMP JUMPDEST PUSH1 0x0 DUP2 GT PUSH2 0x2FF JUMPI PUSH1 0x40 MLOAD PUSH3 0x461BCD PUSH1 0xE5 SHL DUP2 MSTORE PUSH1 0x20 PUSH1 0x4 DUP3 ADD MSTORE PUSH1 0x7 PUSH1 0x24 DUP3 ADD MSTORE PUSH7 0x526571203D203 PUSH1 0xCC SHL PUSH1 0x44 DUP3 ADD MSTORE PUSH1 0x64 ADD PUSH2 0xF7 JUMP JUMPDEST PUSH8 0x16345785D8A0000 DUP2 GT ISZERO PUSH2 0x347 JUMPI PUSH1 0x40 MLOAD PUSH3 0x461BCD PUSH1 0xE5 SHL DUP2 MSTORE PUSH1 0x20 PUSH1 0x4 DUP3 ADD MSTORE PUSH1 0xD PUSH1 0x24 DUP3 ADD MSTORE PUSH13 0xA4CAE240787A40605C628AA89 PUSH1 0x9B SHL PUSH1 0x44 DUP3 ADD MSTORE PUSH1 0x64 ADD PUSH2 0xF7 JUMP JUMPDEST CALLER PUSH1 0x0 SWAP1 DUP2 MSTORE PUSH1 0x1 PUSH1 0x20 MSTORE PUSH1 0x40 DUP2 KECCAK256 DUP1 SLOAD DUP4 SWAP3 SWAP1 PUSH2 0x366 SWAP1 DUP5 SWAP1 PUSH2 0x431 JUMP JUMPDEST SWAP1 SWAP2 SSTORE POP POP PUSH1 0x40 MLOAD CALLER SWAP1 DUP3 ISZERO PUSH2 0x8FC MUL SWAP1 DUP4 SWAP1 PUSH1 0x0 DUP2 DUP2 DUP2 DUP6 DUP9 DUP9 CALL SWAP4 POP POP POP POP ISZERO DUP1 ISZERO PUSH2 0x398 JUMPI RETURNDATASIZE PUSH1 0x0 DUP1 RETURNDATACOPY RETURNDATASIZE PUSH1 0x0 REVERT JUMPDEST POP POP PUSH1 0x3 DUP1 SLOAD PUSH2 0xFF00 NOT AND SWAP1 SSTORE JUMP JUMPDEST PUSH1 0x0 PUSH1 0x20 DUP3 DUP5 SUB SLT ISZERO PUSH2 0x3B9 JUMPI PUSH1 0x0 DUP1 REVERT JUMPDEST DUP2 CALLDATALOAD PUSH1 0x1 PUSH1 0x1 PUSH1 0xA0 SHL SUB DUP2 AND DUP2 EQ PUSH2 0x3D0 JUMPI PUSH1 0x0 DUP1 REVERT JUMPDEST SWAP4 SWAP3 POP POP POP JUMP JUMPDEST PUSH1 0x0 PUSH1 0x20 DUP3 DUP5 SUB SLT ISZERO PUSH2 0x3E9 JUMPI PUSH1 0x0 DUP1 REVERT JUMPDEST POP CALLDATALOAD SWAP2 SWAP1 POP JUMP JUMPDEST PUSH1 0x20 DUP1 DUP3 MSTORE PUSH1 0x21 SWAP1 DUP3 ADD MSTORE PUSH32 0x46756E64696E6720636C6F7365642C20436865636B206261636B206C61746572 PUSH1 0x40 DUP3 ADD MSTORE PUSH1 0x17 PUSH1 0xF9 SHL PUSH1 0x60 DUP3 ADD MSTORE PUSH1 0x80 ADD SWAP1 JUMP JUMPDEST PUSH1 0x0 DUP3 NOT DUP3 GT ISZERO PUSH2 0x452 JUMPI PUSH4 0x4E487B71 PUSH1 0xE0 SHL PUSH1 0x0 MSTORE PUSH1 0x11 PUSH1 0x4 MSTORE PUSH1 0x24 PUSH1 0x0 REVERT JUMPDEST POP ADD SWAP1 JUMP INVALID LOG2 PUSH5 0x6970667358 0x22 SLT KECCAK256 0x27 0xDC PUSH21 0xA6896C9E3EF2E0F80699056F189391BC97EA87C40E 0xCA BYTE PUSH16 0x5D584F79FF64736F6C634300080C0033 ",
  "sha1": "535a348aa03ea632ce8e8229e361d09cd001c596",
  "source": "// SPDX-License-Identifier: MIT\npragma solidity >0.6.0;\n\n/*\n * @title: Rinkeby Test Faucet.\n * @author: Anthony (fps) https://github.com/fps8k .\n * @dev: \n*/\n\ncontract Faucet\n{\n    // Faucet owner, all collectors, closed.\n\n    address private owner;\n\n    mapping (address => uint256) private collections;\n    mapping (address => uint256) public funders;\n\n    bool closed;\n    bool locked;\n\n\n    // Constructor.\n\n    constructor()\n    {\n        owner = 0x5e078E6b545cF88aBD5BB58d27488eF8BE0D2593;\n    }\n\n\n\n\n    fallback() external payable{}\n    receive() external payable{}\n\n    modifier noReEntrance()\n    {\n        require(!locked, \"No ReEntrance\");\n        locked = true;\n        _;\n        locked = false;\n    }\n\n\n\n\n    function fund() public payable noReEntrance\n    {\n        require(!closed, \"Funding closed, Check back later.\");\n        require(msg.value >= 100000000 gwei, \"Min == 0.1ETH\");\n        require(msg.value <= 2 ether, \"Max == 2ETH\");\n\n        funders[msg.sender] += msg.value;\n    }\n\n\n\n\n    function request(uint _val) public payable noReEntrance\n    {\n        require(!closed, \"Funding closed, Check back later.\");\n        require(_val > 0, \"Req = 0\");\n        require(_val <= 100000000 gwei, \"Req <= 0.1ETH\");\n\n        collections[msg.sender] += _val;\n        payable(msg.sender).transfer(_val);\n    }\n\n\n\n\n    function toggle() public\n    {\n        require(msg.sender == owner, \"!Owner\");\n        closed = !closed;\n    }\n}",
  "sourcePath": "contracts/Faucet.sol",
  "type": "contract"
}