{
	"libraries/operators.sol": {
		"operations": {
			"abi": [
				{
					"inputs": [
						{
							"internalType": "uint256",
							"name": "a",
							"type": "uint256"
						},
						{
							"internalType": "uint256",
							"name": "b",
							"type": "uint256"
						}
					],
					"name": "add",
					"outputs": [
						{
							"internalType": "uint256",
							"name": "",
							"type": "uint256"
						}
					],
					"stateMutability": "pure",
					"type": "function"
				},
				{
					"inputs": [
						{
							"internalType": "uint256",
							"name": "a",
							"type": "uint256"
						},
						{
							"internalType": "uint256",
							"name": "b",
							"type": "uint256"
						}
					],
					"name": "sub",
					"outputs": [
						{
							"internalType": "uint256",
							"name": "",
							"type": "uint256"
						}
					],
					"stateMutability": "pure",
					"type": "function"
				}
			],
			"devdoc": {
				"kind": "dev",
				"methods": {},
				"version": 1
			},
			"evm": {
				"assembly": "    /* \"libraries/operators.sol\":76:354  library operations... */\n  dataSize(sub_0)\n  dataOffset(sub_0)\n  0x0b\n  dup3\n  dup3\n  dup3\n  codecopy\n  dup1\n  mload\n  0x00\n  byte\n  0x73\n  eq\n  tag_1\n  jumpi\n  mstore(0x00, 0x4e487b7100000000000000000000000000000000000000000000000000000000)\n  mstore(0x04, 0x00)\n  revert(0x00, 0x24)\ntag_1:\n  mstore(0x00, address)\n  0x73\n  dup2\n  mstore8\n  dup3\n  dup2\n  return\nstop\n\nsub_0: assembly {\n        /* \"libraries/operators.sol\":76:354  library operations... */\n      eq(address, deployTimeAddress())\n      mstore(0x40, 0x80)\n      jumpi(tag_1, lt(calldatasize, 0x04))\n      shr(0xe0, calldataload(0x00))\n      dup1\n      0x771602f7\n      eq\n      tag_2\n      jumpi\n      dup1\n      0xb67d77c5\n      eq\n      tag_3\n      jumpi\n    tag_1:\n      0x00\n      dup1\n      revert\n        /* \"libraries/operators.sol\":103:223  function add(uint a, uint b) public pure returns(uint)... */\n    tag_2:\n      tag_4\n      0x04\n      dup1\n      calldatasize\n      sub\n      dup2\n      add\n      swap1\n      tag_5\n      swap2\n      swap1\n      tag_6\n      jump\t// in\n    tag_5:\n      tag_7\n      jump\t// in\n    tag_4:\n      mload(0x40)\n      tag_8\n      swap2\n      swap1\n      tag_9\n      jump\t// in\n    tag_8:\n      mload(0x40)\n      dup1\n      swap2\n      sub\n      swap1\n      return\n        /* \"libraries/operators.sol\":231:351  function sub(uint a, uint b) public pure returns(uint)... */\n    tag_3:\n      tag_10\n      0x04\n      dup1\n      calldatasize\n      sub\n      dup2\n      add\n      swap1\n      tag_11\n      swap2\n      swap1\n      tag_6\n      jump\t// in\n    tag_11:\n      tag_12\n      jump\t// in\n    tag_10:\n      mload(0x40)\n      tag_13\n      swap2\n      swap1\n      tag_9\n      jump\t// in\n    tag_13:\n      mload(0x40)\n      dup1\n      swap2\n      sub\n      swap1\n      return\n        /* \"libraries/operators.sol\":103:223  function add(uint a, uint b) public pure returns(uint)... */\n    tag_7:\n        /* \"libraries/operators.sol\":152:156  uint */\n      0x00\n        /* \"libraries/operators.sol\":174:184  uint total */\n      dup1\n        /* \"libraries/operators.sol\":191:192  b */\n      dup3\n        /* \"libraries/operators.sol\":187:188  a */\n      dup5\n        /* \"libraries/operators.sol\":187:192  a + b */\n      tag_15\n      swap2\n      swap1\n      tag_16\n      jump\t// in\n    tag_15:\n        /* \"libraries/operators.sol\":174:192  uint total = a + b */\n      swap1\n      pop\n        /* \"libraries/operators.sol\":210:215  total */\n      dup1\n        /* \"libraries/operators.sol\":203:215  return total */\n      swap2\n      pop\n      pop\n        /* \"libraries/operators.sol\":103:223  function add(uint a, uint b) public pure returns(uint)... */\n      swap3\n      swap2\n      pop\n      pop\n      jump\t// out\n        /* \"libraries/operators.sol\":231:351  function sub(uint a, uint b) public pure returns(uint)... */\n    tag_12:\n        /* \"libraries/operators.sol\":280:284  uint */\n      0x00\n        /* \"libraries/operators.sol\":315:316  a */\n      dup3\n        /* \"libraries/operators.sol\":310:311  b */\n      dup3\n        /* \"libraries/operators.sol\":310:316  b >= a */\n      lt\n      iszero\n        /* \"libraries/operators.sol\":302:343  require(b >= a, \"LIbrary error: First v\") */\n      tag_18\n      jumpi\n      mload(0x40)\n      0x08c379a000000000000000000000000000000000000000000000000000000000\n      dup2\n      mstore\n      0x04\n      add\n      tag_19\n      swap1\n      tag_20\n      jump\t// in\n    tag_19:\n      mload(0x40)\n      dup1\n      swap2\n      sub\n      swap1\n      revert\n    tag_18:\n        /* \"libraries/operators.sol\":231:351  function sub(uint a, uint b) public pure returns(uint)... */\n      swap3\n      swap2\n      pop\n      pop\n      jump\t// out\n        /* \"#utility.yul\":88:205   */\n    tag_22:\n        /* \"#utility.yul\":197:198   */\n      0x00\n        /* \"#utility.yul\":194:195   */\n      dup1\n        /* \"#utility.yul\":187:199   */\n      revert\n        /* \"#utility.yul\":334:411   */\n    tag_24:\n        /* \"#utility.yul\":371:378   */\n      0x00\n        /* \"#utility.yul\":400:405   */\n      dup2\n        /* \"#utility.yul\":389:405   */\n      swap1\n      pop\n        /* \"#utility.yul\":334:411   */\n      swap2\n      swap1\n      pop\n      jump\t// out\n        /* \"#utility.yul\":417:539   */\n    tag_25:\n        /* \"#utility.yul\":490:514   */\n      tag_38\n        /* \"#utility.yul\":508:513   */\n      dup2\n        /* \"#utility.yul\":490:514   */\n      tag_24\n      jump\t// in\n    tag_38:\n        /* \"#utility.yul\":483:488   */\n      dup2\n        /* \"#utility.yul\":480:515   */\n      eq\n        /* \"#utility.yul\":470:533   */\n      tag_39\n      jumpi\n        /* \"#utility.yul\":529:530   */\n      0x00\n        /* \"#utility.yul\":526:527   */\n      dup1\n        /* \"#utility.yul\":519:531   */\n      revert\n        /* \"#utility.yul\":470:533   */\n    tag_39:\n        /* \"#utility.yul\":417:539   */\n      pop\n      jump\t// out\n        /* \"#utility.yul\":545:684   */\n    tag_26:\n        /* \"#utility.yul\":591:596   */\n      0x00\n        /* \"#utility.yul\":629:635   */\n      dup2\n        /* \"#utility.yul\":616:636   */\n      calldataload\n        /* \"#utility.yul\":607:636   */\n      swap1\n      pop\n        /* \"#utility.yul\":645:678   */\n      tag_41\n        /* \"#utility.yul\":672:677   */\n      dup2\n        /* \"#utility.yul\":645:678   */\n      tag_25\n      jump\t// in\n    tag_41:\n        /* \"#utility.yul\":545:684   */\n      swap3\n      swap2\n      pop\n      pop\n      jump\t// out\n        /* \"#utility.yul\":690:1164   */\n    tag_6:\n        /* \"#utility.yul\":758:764   */\n      0x00\n        /* \"#utility.yul\":766:772   */\n      dup1\n        /* \"#utility.yul\":815:817   */\n      0x40\n        /* \"#utility.yul\":803:812   */\n      dup4\n        /* \"#utility.yul\":794:801   */\n      dup6\n        /* \"#utility.yul\":790:813   */\n      sub\n        /* \"#utility.yul\":786:818   */\n      slt\n        /* \"#utility.yul\":783:902   */\n      iszero\n      tag_43\n      jumpi\n        /* \"#utility.yul\":821:900   */\n      tag_44\n      tag_22\n      jump\t// in\n    tag_44:\n        /* \"#utility.yul\":783:902   */\n    tag_43:\n        /* \"#utility.yul\":941:942   */\n      0x00\n        /* \"#utility.yul\":966:1019   */\n      tag_45\n        /* \"#utility.yul\":1011:1018   */\n      dup6\n        /* \"#utility.yul\":1002:1008   */\n      dup3\n        /* \"#utility.yul\":991:1000   */\n      dup7\n        /* \"#utility.yul\":987:1009   */\n      add\n        /* \"#utility.yul\":966:1019   */\n      tag_26\n      jump\t// in\n    tag_45:\n        /* \"#utility.yul\":956:1019   */\n      swap3\n      pop\n        /* \"#utility.yul\":912:1029   */\n      pop\n        /* \"#utility.yul\":1068:1070   */\n      0x20\n        /* \"#utility.yul\":1094:1147   */\n      tag_46\n        /* \"#utility.yul\":1139:1146   */\n      dup6\n        /* \"#utility.yul\":1130:1136   */\n      dup3\n        /* \"#utility.yul\":1119:1128   */\n      dup7\n        /* \"#utility.yul\":1115:1137   */\n      add\n        /* \"#utility.yul\":1094:1147   */\n      tag_26\n      jump\t// in\n    tag_46:\n        /* \"#utility.yul\":1084:1147   */\n      swap2\n      pop\n        /* \"#utility.yul\":1039:1157   */\n      pop\n        /* \"#utility.yul\":690:1164   */\n      swap3\n      pop\n      swap3\n      swap1\n      pop\n      jump\t// out\n        /* \"#utility.yul\":1170:1296   */\n    tag_27:\n        /* \"#utility.yul\":1265:1289   */\n      tag_48\n        /* \"#utility.yul\":1283:1288   */\n      dup2\n        /* \"#utility.yul\":1265:1289   */\n      tag_24\n      jump\t// in\n    tag_48:\n        /* \"#utility.yul\":1260:1263   */\n      dup3\n        /* \"#utility.yul\":1253:1290   */\n      mstore\n        /* \"#utility.yul\":1170:1296   */\n      pop\n      pop\n      jump\t// out\n        /* \"#utility.yul\":1302:1540   */\n    tag_9:\n        /* \"#utility.yul\":1403:1407   */\n      0x00\n        /* \"#utility.yul\":1441:1443   */\n      0x20\n        /* \"#utility.yul\":1430:1439   */\n      dup3\n        /* \"#utility.yul\":1426:1444   */\n      add\n        /* \"#utility.yul\":1418:1444   */\n      swap1\n      pop\n        /* \"#utility.yul\":1454:1533   */\n      tag_50\n        /* \"#utility.yul\":1530:1531   */\n      0x00\n        /* \"#utility.yul\":1519:1528   */\n      dup4\n        /* \"#utility.yul\":1515:1532   */\n      add\n        /* \"#utility.yul\":1506:1512   */\n      dup5\n        /* \"#utility.yul\":1454:1533   */\n      tag_27\n      jump\t// in\n    tag_50:\n        /* \"#utility.yul\":1302:1540   */\n      swap3\n      swap2\n      pop\n      pop\n      jump\t// out\n        /* \"#utility.yul\":1546:1726   */\n    tag_28:\n        /* \"#utility.yul\":1594:1671   */\n      0x4e487b7100000000000000000000000000000000000000000000000000000000\n        /* \"#utility.yul\":1591:1592   */\n      0x00\n        /* \"#utility.yul\":1584:1672   */\n      mstore\n        /* \"#utility.yul\":1691:1695   */\n      0x11\n        /* \"#utility.yul\":1688:1689   */\n      0x04\n        /* \"#utility.yul\":1681:1696   */\n      mstore\n        /* \"#utility.yul\":1715:1719   */\n      0x24\n        /* \"#utility.yul\":1712:1713   */\n      0x00\n        /* \"#utility.yul\":1705:1720   */\n      revert\n        /* \"#utility.yul\":1732:2037   */\n    tag_16:\n        /* \"#utility.yul\":1772:1775   */\n      0x00\n        /* \"#utility.yul\":1791:1811   */\n      tag_53\n        /* \"#utility.yul\":1809:1810   */\n      dup3\n        /* \"#utility.yul\":1791:1811   */\n      tag_24\n      jump\t// in\n    tag_53:\n        /* \"#utility.yul\":1786:1811   */\n      swap2\n      pop\n        /* \"#utility.yul\":1825:1845   */\n      tag_54\n        /* \"#utility.yul\":1843:1844   */\n      dup4\n        /* \"#utility.yul\":1825:1845   */\n      tag_24\n      jump\t// in\n    tag_54:\n        /* \"#utility.yul\":1820:1845   */\n      swap3\n      pop\n        /* \"#utility.yul\":1979:1980   */\n      dup3\n        /* \"#utility.yul\":1911:1977   */\n      0xffffffffffffffffffffffffffffffffffffffffffffffffffffffffffffffff\n        /* \"#utility.yul\":1907:1981   */\n      sub\n        /* \"#utility.yul\":1904:1905   */\n      dup3\n        /* \"#utility.yul\":1901:1982   */\n      gt\n        /* \"#utility.yul\":1898:2005   */\n      iszero\n      tag_55\n      jumpi\n        /* \"#utility.yul\":1985:2003   */\n      tag_56\n      tag_28\n      jump\t// in\n    tag_56:\n        /* \"#utility.yul\":1898:2005   */\n    tag_55:\n        /* \"#utility.yul\":2029:2030   */\n      dup3\n        /* \"#utility.yul\":2026:2027   */\n      dup3\n        /* \"#utility.yul\":2022:2031   */\n      add\n        /* \"#utility.yul\":2015:2031   */\n      swap1\n      pop\n        /* \"#utility.yul\":1732:2037   */\n      swap3\n      swap2\n      pop\n      pop\n      jump\t// out\n        /* \"#utility.yul\":2043:2212   */\n    tag_29:\n        /* \"#utility.yul\":2127:2138   */\n      0x00\n        /* \"#utility.yul\":2161:2167   */\n      dup3\n        /* \"#utility.yul\":2156:2159   */\n      dup3\n        /* \"#utility.yul\":2149:2168   */\n      mstore\n        /* \"#utility.yul\":2201:2205   */\n      0x20\n        /* \"#utility.yul\":2196:2199   */\n      dup3\n        /* \"#utility.yul\":2192:2206   */\n      add\n        /* \"#utility.yul\":2177:2206   */\n      swap1\n      pop\n        /* \"#utility.yul\":2043:2212   */\n      swap3\n      swap2\n      pop\n      pop\n      jump\t// out\n        /* \"#utility.yul\":2218:2390   */\n    tag_30:\n        /* \"#utility.yul\":2358:2382   */\n      0x4c496272617279206572726f723a204669727374207600000000000000000000\n        /* \"#utility.yul\":2354:2355   */\n      0x00\n        /* \"#utility.yul\":2346:2352   */\n      dup3\n        /* \"#utility.yul\":2342:2356   */\n      add\n        /* \"#utility.yul\":2335:2383   */\n      mstore\n        /* \"#utility.yul\":2218:2390   */\n      pop\n      jump\t// out\n        /* \"#utility.yul\":2396:2762   */\n    tag_31:\n        /* \"#utility.yul\":2538:2541   */\n      0x00\n        /* \"#utility.yul\":2559:2626   */\n      tag_60\n        /* \"#utility.yul\":2623:2625   */\n      0x16\n        /* \"#utility.yul\":2618:2621   */\n      dup4\n        /* \"#utility.yul\":2559:2626   */\n      tag_29\n      jump\t// in\n    tag_60:\n        /* \"#utility.yul\":2552:2626   */\n      swap2\n      pop\n        /* \"#utility.yul\":2635:2728   */\n      tag_61\n        /* \"#utility.yul\":2724:2727   */\n      dup3\n        /* \"#utility.yul\":2635:2728   */\n      tag_30\n      jump\t// in\n    tag_61:\n        /* \"#utility.yul\":2753:2755   */\n      0x20\n        /* \"#utility.yul\":2748:2751   */\n      dup3\n        /* \"#utility.yul\":2744:2756   */\n      add\n        /* \"#utility.yul\":2737:2756   */\n      swap1\n      pop\n        /* \"#utility.yul\":2396:2762   */\n      swap2\n      swap1\n      pop\n      jump\t// out\n        /* \"#utility.yul\":2768:3187   */\n    tag_20:\n        /* \"#utility.yul\":2934:2938   */\n      0x00\n        /* \"#utility.yul\":2972:2974   */\n      0x20\n        /* \"#utility.yul\":2961:2970   */\n      dup3\n        /* \"#utility.yul\":2957:2975   */\n      add\n        /* \"#utility.yul\":2949:2975   */\n      swap1\n      pop\n        /* \"#utility.yul\":3021:3030   */\n      dup2\n        /* \"#utility.yul\":3015:3019   */\n      dup2\n        /* \"#utility.yul\":3011:3031   */\n      sub\n        /* \"#utility.yul\":3007:3008   */\n      0x00\n        /* \"#utility.yul\":2996:3005   */\n      dup4\n        /* \"#utility.yul\":2992:3009   */\n      add\n        /* \"#utility.yul\":2985:3032   */\n      mstore\n        /* \"#utility.yul\":3049:3180   */\n      tag_63\n        /* \"#utility.yul\":3175:3179   */\n      dup2\n        /* \"#utility.yul\":3049:3180   */\n      tag_31\n      jump\t// in\n    tag_63:\n        /* \"#utility.yul\":3041:3180   */\n      swap1\n      pop\n        /* \"#utility.yul\":2768:3187   */\n      swap2\n      swap1\n      pop\n      jump\t// out\n\n    auxdata: 0xa26469706673582212202b36a1da9f972c2a3a88727ba8f9f4f925d999b9492126036e35e8603f2564ef64736f6c634300080d0033\n}\n",
				"bytecode": {
					"linkReferences": {},
					"object": "6102e8610053600b82828239805160001a607314610046577f4e487b7100000000000000000000000000000000000000000000000000000000600052600060045260246000fd5b30600052607381538281f3fe73000000000000000000000000000000000000000030146080604052600436106100405760003560e01c8063771602f714610045578063b67d77c514610075575b600080fd5b61005f600480360381019061005a9190610146565b6100a5565b60405161006c9190610195565b60405180910390f35b61008f600480360381019061008a9190610146565b6100c0565b60405161009c9190610195565b60405180910390f35b60008082846100b491906101df565b90508091505092915050565b600082821015610105576040517f08c379a00000000000000000000000000000000000000000000000000000000081526004016100fc90610292565b60405180910390fd5b92915050565b600080fd5b6000819050919050565b61012381610110565b811461012e57600080fd5b50565b6000813590506101408161011a565b92915050565b6000806040838503121561015d5761015c61010b565b5b600061016b85828601610131565b925050602061017c85828601610131565b9150509250929050565b61018f81610110565b82525050565b60006020820190506101aa6000830184610186565b92915050565b7f4e487b7100000000000000000000000000000000000000000000000000000000600052601160045260246000fd5b60006101ea82610110565b91506101f583610110565b9250827fffffffffffffffffffffffffffffffffffffffffffffffffffffffffffffffff0382111561022a576102296101b0565b5b828201905092915050565b600082825260208201905092915050565b7f4c496272617279206572726f723a204669727374207600000000000000000000600082015250565b600061027c601683610235565b915061028782610246565b602082019050919050565b600060208201905081810360008301526102ab8161026f565b905091905056fea26469706673582212202b36a1da9f972c2a3a88727ba8f9f4f925d999b9492126036e35e8603f2564ef64736f6c634300080d0033",
					"opcodes": "PUSH2 0x2E8 PUSH2 0x53 PUSH1 0xB DUP3 DUP3 DUP3 CODECOPY DUP1 MLOAD PUSH1 0x0 BYTE PUSH1 0x73 EQ PUSH2 0x46 JUMPI PUSH32 0x4E487B7100000000000000000000000000000000000000000000000000000000 PUSH1 0x0 MSTORE PUSH1 0x0 PUSH1 0x4 MSTORE PUSH1 0x24 PUSH1 0x0 REVERT JUMPDEST ADDRESS PUSH1 0x0 MSTORE PUSH1 0x73 DUP2 MSTORE8 DUP3 DUP2 RETURN INVALID PUSH20 0x0 ADDRESS EQ PUSH1 0x80 PUSH1 0x40 MSTORE PUSH1 0x4 CALLDATASIZE LT PUSH2 0x40 JUMPI PUSH1 0x0 CALLDATALOAD PUSH1 0xE0 SHR DUP1 PUSH4 0x771602F7 EQ PUSH2 0x45 JUMPI DUP1 PUSH4 0xB67D77C5 EQ PUSH2 0x75 JUMPI JUMPDEST PUSH1 0x0 DUP1 REVERT JUMPDEST PUSH2 0x5F PUSH1 0x4 DUP1 CALLDATASIZE SUB DUP2 ADD SWAP1 PUSH2 0x5A SWAP2 SWAP1 PUSH2 0x146 JUMP JUMPDEST PUSH2 0xA5 JUMP JUMPDEST PUSH1 0x40 MLOAD PUSH2 0x6C SWAP2 SWAP1 PUSH2 0x195 JUMP JUMPDEST PUSH1 0x40 MLOAD DUP1 SWAP2 SUB SWAP1 RETURN JUMPDEST PUSH2 0x8F PUSH1 0x4 DUP1 CALLDATASIZE SUB DUP2 ADD SWAP1 PUSH2 0x8A SWAP2 SWAP1 PUSH2 0x146 JUMP JUMPDEST PUSH2 0xC0 JUMP JUMPDEST PUSH1 0x40 MLOAD PUSH2 0x9C SWAP2 SWAP1 PUSH2 0x195 JUMP JUMPDEST PUSH1 0x40 MLOAD DUP1 SWAP2 SUB SWAP1 RETURN JUMPDEST PUSH1 0x0 DUP1 DUP3 DUP5 PUSH2 0xB4 SWAP2 SWAP1 PUSH2 0x1DF JUMP JUMPDEST SWAP1 POP DUP1 SWAP2 POP POP SWAP3 SWAP2 POP POP JUMP JUMPDEST PUSH1 0x0 DUP3 DUP3 LT ISZERO PUSH2 0x105 JUMPI PUSH1 0x40 MLOAD PUSH32 0x8C379A000000000000000000000000000000000000000000000000000000000 DUP2 MSTORE PUSH1 0x4 ADD PUSH2 0xFC SWAP1 PUSH2 0x292 JUMP JUMPDEST PUSH1 0x40 MLOAD DUP1 SWAP2 SUB SWAP1 REVERT JUMPDEST SWAP3 SWAP2 POP POP JUMP JUMPDEST PUSH1 0x0 DUP1 REVERT JUMPDEST PUSH1 0x0 DUP2 SWAP1 POP SWAP2 SWAP1 POP JUMP JUMPDEST PUSH2 0x123 DUP2 PUSH2 0x110 JUMP JUMPDEST DUP2 EQ PUSH2 0x12E JUMPI PUSH1 0x0 DUP1 REVERT JUMPDEST POP JUMP JUMPDEST PUSH1 0x0 DUP2 CALLDATALOAD SWAP1 POP PUSH2 0x140 DUP2 PUSH2 0x11A JUMP JUMPDEST SWAP3 SWAP2 POP POP JUMP JUMPDEST PUSH1 0x0 DUP1 PUSH1 0x40 DUP4 DUP6 SUB SLT ISZERO PUSH2 0x15D JUMPI PUSH2 0x15C PUSH2 0x10B JUMP JUMPDEST JUMPDEST PUSH1 0x0 PUSH2 0x16B DUP6 DUP3 DUP7 ADD PUSH2 0x131 JUMP JUMPDEST SWAP3 POP POP PUSH1 0x20 PUSH2 0x17C DUP6 DUP3 DUP7 ADD PUSH2 0x131 JUMP JUMPDEST SWAP2 POP POP SWAP3 POP SWAP3 SWAP1 POP JUMP JUMPDEST PUSH2 0x18F DUP2 PUSH2 0x110 JUMP JUMPDEST DUP3 MSTORE POP POP JUMP JUMPDEST PUSH1 0x0 PUSH1 0x20 DUP3 ADD SWAP1 POP PUSH2 0x1AA PUSH1 0x0 DUP4 ADD DUP5 PUSH2 0x186 JUMP JUMPDEST SWAP3 SWAP2 POP POP JUMP JUMPDEST PUSH32 0x4E487B7100000000000000000000000000000000000000000000000000000000 PUSH1 0x0 MSTORE PUSH1 0x11 PUSH1 0x4 MSTORE PUSH1 0x24 PUSH1 0x0 REVERT JUMPDEST PUSH1 0x0 PUSH2 0x1EA DUP3 PUSH2 0x110 JUMP JUMPDEST SWAP2 POP PUSH2 0x1F5 DUP4 PUSH2 0x110 JUMP JUMPDEST SWAP3 POP DUP3 PUSH32 0xFFFFFFFFFFFFFFFFFFFFFFFFFFFFFFFFFFFFFFFFFFFFFFFFFFFFFFFFFFFFFFFF SUB DUP3 GT ISZERO PUSH2 0x22A JUMPI PUSH2 0x229 PUSH2 0x1B0 JUMP JUMPDEST JUMPDEST DUP3 DUP3 ADD SWAP1 POP SWAP3 SWAP2 POP POP JUMP JUMPDEST PUSH1 0x0 DUP3 DUP3 MSTORE PUSH1 0x20 DUP3 ADD SWAP1 POP SWAP3 SWAP2 POP POP JUMP JUMPDEST PUSH32 0x4C496272617279206572726F723A204669727374207600000000000000000000 PUSH1 0x0 DUP3 ADD MSTORE POP JUMP JUMPDEST PUSH1 0x0 PUSH2 0x27C PUSH1 0x16 DUP4 PUSH2 0x235 JUMP JUMPDEST SWAP2 POP PUSH2 0x287 DUP3 PUSH2 0x246 JUMP JUMPDEST PUSH1 0x20 DUP3 ADD SWAP1 POP SWAP2 SWAP1 POP JUMP JUMPDEST PUSH1 0x0 PUSH1 0x20 DUP3 ADD SWAP1 POP DUP2 DUP2 SUB PUSH1 0x0 DUP4 ADD MSTORE PUSH2 0x2AB DUP2 PUSH2 0x26F JUMP JUMPDEST SWAP1 POP SWAP2 SWAP1 POP JUMP INVALID LOG2 PUSH5 0x6970667358 0x22 SLT KECCAK256 0x2B CALLDATASIZE LOG1 0xDA SWAP16 SWAP8 0x2C 0x2A GASPRICE DUP9 PUSH19 0x7BA8F9F4F925D999B9492126036E35E8603F25 PUSH5 0xEF64736F6C PUSH4 0x4300080D STOP CALLER "
				},
				"gasEstimates": {
					"creation": {
						"codeDepositCost": "148800",
						"executionCost": "221",
						"totalCost": "149021"
					},
					"external": {
						"add(uint256,uint256)": "infinite",
						"sub(uint256,uint256)": "infinite"
					}
				},
				"methodIdentifiers": {
					"add(uint256,uint256)": "771602f7",
					"sub(uint256,uint256)": "b67d77c5"
				}
			},
			"userdoc": {
				"kind": "user",
				"methods": {},
				"version": 1
			}
		}
	}
}