{
	"libraries/operators.sol": {
		"operations": {
			"abi": [
				{
					"inputs": [
						{
							"internalType": "uint256",
							"name": "a",
							"type": "uint256"
						},
						{
							"internalType": "uint256",
							"name": "b",
							"type": "uint256"
						}
					],
					"name": "add",
					"outputs": [
						{
							"internalType": "uint256",
							"name": "",
							"type": "uint256"
						}
					],
					"stateMutability": "pure",
					"type": "function"
				},
				{
					"inputs": [
						{
							"internalType": "uint256",
							"name": "a",
							"type": "uint256"
						},
						{
							"internalType": "uint256",
							"name": "b",
							"type": "uint256"
						}
					],
					"name": "div",
					"outputs": [
						{
							"internalType": "uint256",
							"name": "",
							"type": "uint256"
						}
					],
					"stateMutability": "pure",
					"type": "function"
				},
				{
					"inputs": [
						{
							"internalType": "uint256",
							"name": "a",
							"type": "uint256"
						},
						{
							"internalType": "uint256",
							"name": "b",
							"type": "uint256"
						}
					],
					"name": "mul",
					"outputs": [
						{
							"internalType": "uint256",
							"name": "",
							"type": "uint256"
						}
					],
					"stateMutability": "pure",
					"type": "function"
				},
				{
					"inputs": [
						{
							"internalType": "uint256",
							"name": "a",
							"type": "uint256"
						},
						{
							"internalType": "uint256",
							"name": "b",
							"type": "uint256"
						}
					],
					"name": "sub",
					"outputs": [
						{
							"internalType": "uint256",
							"name": "",
							"type": "uint256"
						}
					],
					"stateMutability": "pure",
					"type": "function"
				}
			],
			"devdoc": {
				"kind": "dev",
				"methods": {},
				"version": 1
			},
			"evm": {
				"assembly": "    /* \"libraries/operators.sol\":76:826  library operations... */\n  dataSize(sub_0)\n  dataOffset(sub_0)\n  0x0b\n  dup3\n  dup3\n  dup3\n  codecopy\n  dup1\n  mload\n  0x00\n  byte\n  0x73\n  eq\n  tag_1\n  jumpi\n  mstore(0x00, 0x4e487b7100000000000000000000000000000000000000000000000000000000)\n  mstore(0x04, 0x00)\n  revert(0x00, 0x24)\ntag_1:\n  mstore(0x00, address)\n  0x73\n  dup2\n  mstore8\n  dup3\n  dup2\n  return\nstop\n\nsub_0: assembly {\n        /* \"libraries/operators.sol\":76:826  library operations... */\n      eq(address, deployTimeAddress())\n      mstore(0x40, 0x80)\n      jumpi(tag_1, lt(calldatasize, 0x04))\n      shr(0xe0, calldataload(0x00))\n      dup1\n      0x771602f7\n      eq\n      tag_2\n      jumpi\n      dup1\n      0xa391c15b\n      eq\n      tag_3\n      jumpi\n      dup1\n      0xb67d77c5\n      eq\n      tag_4\n      jumpi\n      dup1\n      0xc8a4ac9c\n      eq\n      tag_5\n      jumpi\n    tag_1:\n      0x00\n      dup1\n      revert\n        /* \"libraries/operators.sol\":103:223  function add(uint a, uint b) public pure returns(uint)... */\n    tag_2:\n      tag_6\n      0x04\n      dup1\n      calldatasize\n      sub\n      dup2\n      add\n      swap1\n      tag_7\n      swap2\n      swap1\n      tag_8\n      jump\t// in\n    tag_7:\n      tag_9\n      jump\t// in\n    tag_6:\n      mload(0x40)\n      tag_10\n      swap2\n      swap1\n      tag_11\n      jump\t// in\n    tag_10:\n      mload(0x40)\n      dup1\n      swap2\n      sub\n      swap1\n      return\n        /* \"libraries/operators.sol\":722:823  function div(uint a, uint b) public pure returns(uint)... */\n    tag_3:\n      tag_12\n      0x04\n      dup1\n      calldatasize\n      sub\n      dup2\n      add\n      swap1\n      tag_13\n      swap2\n      swap1\n      tag_8\n      jump\t// in\n    tag_13:\n      tag_14\n      jump\t// in\n    tag_12:\n      mload(0x40)\n      tag_15\n      swap2\n      swap1\n      tag_11\n      jump\t// in\n    tag_15:\n      mload(0x40)\n      dup1\n      swap2\n      sub\n      swap1\n      return\n        /* \"libraries/operators.sol\":231:448  function sub(uint a, uint b) public pure returns(uint)... */\n    tag_4:\n      tag_16\n      0x04\n      dup1\n      calldatasize\n      sub\n      dup2\n      add\n      swap1\n      tag_17\n      swap2\n      swap1\n      tag_8\n      jump\t// in\n    tag_17:\n      tag_18\n      jump\t// in\n    tag_16:\n      mload(0x40)\n      tag_19\n      swap2\n      swap1\n      tag_11\n      jump\t// in\n    tag_19:\n      mload(0x40)\n      dup1\n      swap2\n      sub\n      swap1\n      return\n        /* \"libraries/operators.sol\":456:656  function mul(uint a, uint b) public pure returns(uint)... */\n    tag_5:\n      tag_20\n      0x04\n      dup1\n      calldatasize\n      sub\n      dup2\n      add\n      swap1\n      tag_21\n      swap2\n      swap1\n      tag_8\n      jump\t// in\n    tag_21:\n      tag_22\n      jump\t// in\n    tag_20:\n      mload(0x40)\n      tag_23\n      swap2\n      swap1\n      tag_11\n      jump\t// in\n    tag_23:\n      mload(0x40)\n      dup1\n      swap2\n      sub\n      swap1\n      return\n        /* \"libraries/operators.sol\":103:223  function add(uint a, uint b) public pure returns(uint)... */\n    tag_9:\n        /* \"libraries/operators.sol\":152:156  uint */\n      0x00\n        /* \"libraries/operators.sol\":174:184  uint total */\n      dup1\n        /* \"libraries/operators.sol\":191:192  b */\n      dup3\n        /* \"libraries/operators.sol\":187:188  a */\n      dup5\n        /* \"libraries/operators.sol\":187:192  a + b */\n      tag_25\n      swap2\n      swap1\n      tag_26\n      jump\t// in\n    tag_25:\n        /* \"libraries/operators.sol\":174:192  uint total = a + b */\n      swap1\n      pop\n        /* \"libraries/operators.sol\":210:215  total */\n      dup1\n        /* \"libraries/operators.sol\":203:215  return total */\n      swap2\n      pop\n      pop\n        /* \"libraries/operators.sol\":103:223  function add(uint a, uint b) public pure returns(uint)... */\n      swap3\n      swap2\n      pop\n      pop\n      jump\t// out\n        /* \"libraries/operators.sol\":722:823  function div(uint a, uint b) public pure returns(uint)... */\n    tag_14:\n        /* \"libraries/operators.sol\":771:775  uint */\n      0x00\n        /* \"libraries/operators.sol\":793:801  uint rem */\n      dup1\n        /* \"libraries/operators.sol\":814:815  b */\n      dup3\n        /* \"libraries/operators.sol\":809:812  100 */\n      0x64\n        /* \"libraries/operators.sol\":805:806  a */\n      dup6\n        /* \"libraries/operators.sol\":805:812  a * 100 */\n      tag_28\n      swap2\n      swap1\n      tag_29\n      jump\t// in\n    tag_28:\n        /* \"libraries/operators.sol\":804:815  (a * 100)/b */\n      tag_30\n      swap2\n      swap1\n      tag_31\n      jump\t// in\n    tag_30:\n        /* \"libraries/operators.sol\":793:815  uint rem = (a * 100)/b */\n      swap1\n      pop\n        /* \"libraries/operators.sol\":782:823  {... */\n      pop\n        /* \"libraries/operators.sol\":722:823  function div(uint a, uint b) public pure returns(uint)... */\n      swap3\n      swap2\n      pop\n      pop\n      jump\t// out\n        /* \"libraries/operators.sol\":231:448  function sub(uint a, uint b) public pure returns(uint)... */\n    tag_18:\n        /* \"libraries/operators.sol\":280:284  uint */\n      0x00\n        /* \"libraries/operators.sol\":315:316  b */\n      dup2\n        /* \"libraries/operators.sol\":310:311  a */\n      dup4\n        /* \"libraries/operators.sol\":310:316  a >= b */\n      lt\n      iszero\n        /* \"libraries/operators.sol\":302:390  require(a >= b, \"Library error: Second parameter should be less or equal to the first.\") */\n      tag_33\n      jumpi\n      mload(0x40)\n      0x08c379a000000000000000000000000000000000000000000000000000000000\n      dup2\n      mstore\n      0x04\n      add\n      tag_34\n      swap1\n      tag_35\n      jump\t// in\n    tag_34:\n      mload(0x40)\n      dup1\n      swap2\n      sub\n      swap1\n      revert\n    tag_33:\n        /* \"libraries/operators.sol\":401:410  uint left */\n      0x00\n        /* \"libraries/operators.sol\":417:418  b */\n      dup3\n        /* \"libraries/operators.sol\":413:414  a */\n      dup5\n        /* \"libraries/operators.sol\":413:418  a - b */\n      tag_36\n      swap2\n      swap1\n      tag_37\n      jump\t// in\n    tag_36:\n        /* \"libraries/operators.sol\":401:418  uint left = a - b */\n      swap1\n      pop\n        /* \"libraries/operators.sol\":436:440  left */\n      dup1\n        /* \"libraries/operators.sol\":429:440  return left */\n      swap2\n      pop\n      pop\n        /* \"libraries/operators.sol\":231:448  function sub(uint a, uint b) public pure returns(uint)... */\n      swap3\n      swap2\n      pop\n      pop\n      jump\t// out\n        /* \"libraries/operators.sol\":456:656  function mul(uint a, uint b) public pure returns(uint)... */\n    tag_22:\n        /* \"libraries/operators.sol\":505:509  uint */\n      0x00\n        /* \"libraries/operators.sol\":547:561  (2 ** 256) - 1 */\n      0xffffffffffffffffffffffffffffffffffffffffffffffffffffffffffffffff\n        /* \"libraries/operators.sol\":540:541  b */\n      dup3\n        /* \"libraries/operators.sol\":536:537  a */\n      dup5\n        /* \"libraries/operators.sol\":536:541  a * b */\n      tag_39\n      swap2\n      swap1\n      tag_29\n      jump\t// in\n    tag_39:\n        /* \"libraries/operators.sol\":535:562  (a * b) <= ((2 ** 256) - 1) */\n      gt\n      iszero\n        /* \"libraries/operators.sol\":527:598  require((a * b) <= ((2 ** 256) - 1), \"Library Error, Number overflow.\") */\n      tag_40\n      jumpi\n      mload(0x40)\n      0x08c379a000000000000000000000000000000000000000000000000000000000\n      dup2\n      mstore\n      0x04\n      add\n      tag_41\n      swap1\n      tag_42\n      jump\t// in\n    tag_41:\n      mload(0x40)\n      dup1\n      swap2\n      sub\n      swap1\n      revert\n    tag_40:\n        /* \"libraries/operators.sol\":609:618  uint prod */\n      0x00\n        /* \"libraries/operators.sol\":625:626  b */\n      dup3\n        /* \"libraries/operators.sol\":621:622  a */\n      dup5\n        /* \"libraries/operators.sol\":621:626  a * b */\n      tag_43\n      swap2\n      swap1\n      tag_29\n      jump\t// in\n    tag_43:\n        /* \"libraries/operators.sol\":609:626  uint prod = a * b */\n      swap1\n      pop\n        /* \"libraries/operators.sol\":644:648  prod */\n      dup1\n        /* \"libraries/operators.sol\":637:648  return prod */\n      swap2\n      pop\n      pop\n        /* \"libraries/operators.sol\":456:656  function mul(uint a, uint b) public pure returns(uint)... */\n      swap3\n      swap2\n      pop\n      pop\n      jump\t// out\n        /* \"#utility.yul\":88:205   */\n    tag_45:\n        /* \"#utility.yul\":197:198   */\n      0x00\n        /* \"#utility.yul\":194:195   */\n      dup1\n        /* \"#utility.yul\":187:199   */\n      revert\n        /* \"#utility.yul\":334:411   */\n    tag_47:\n        /* \"#utility.yul\":371:378   */\n      0x00\n        /* \"#utility.yul\":400:405   */\n      dup2\n        /* \"#utility.yul\":389:405   */\n      swap1\n      pop\n        /* \"#utility.yul\":334:411   */\n      swap2\n      swap1\n      pop\n      jump\t// out\n        /* \"#utility.yul\":417:539   */\n    tag_48:\n        /* \"#utility.yul\":490:514   */\n      tag_64\n        /* \"#utility.yul\":508:513   */\n      dup2\n        /* \"#utility.yul\":490:514   */\n      tag_47\n      jump\t// in\n    tag_64:\n        /* \"#utility.yul\":483:488   */\n      dup2\n        /* \"#utility.yul\":480:515   */\n      eq\n        /* \"#utility.yul\":470:533   */\n      tag_65\n      jumpi\n        /* \"#utility.yul\":529:530   */\n      0x00\n        /* \"#utility.yul\":526:527   */\n      dup1\n        /* \"#utility.yul\":519:531   */\n      revert\n        /* \"#utility.yul\":470:533   */\n    tag_65:\n        /* \"#utility.yul\":417:539   */\n      pop\n      jump\t// out\n        /* \"#utility.yul\":545:684   */\n    tag_49:\n        /* \"#utility.yul\":591:596   */\n      0x00\n        /* \"#utility.yul\":629:635   */\n      dup2\n        /* \"#utility.yul\":616:636   */\n      calldataload\n        /* \"#utility.yul\":607:636   */\n      swap1\n      pop\n        /* \"#utility.yul\":645:678   */\n      tag_67\n        /* \"#utility.yul\":672:677   */\n      dup2\n        /* \"#utility.yul\":645:678   */\n      tag_48\n      jump\t// in\n    tag_67:\n        /* \"#utility.yul\":545:684   */\n      swap3\n      swap2\n      pop\n      pop\n      jump\t// out\n        /* \"#utility.yul\":690:1164   */\n    tag_8:\n        /* \"#utility.yul\":758:764   */\n      0x00\n        /* \"#utility.yul\":766:772   */\n      dup1\n        /* \"#utility.yul\":815:817   */\n      0x40\n        /* \"#utility.yul\":803:812   */\n      dup4\n        /* \"#utility.yul\":794:801   */\n      dup6\n        /* \"#utility.yul\":790:813   */\n      sub\n        /* \"#utility.yul\":786:818   */\n      slt\n        /* \"#utility.yul\":783:902   */\n      iszero\n      tag_69\n      jumpi\n        /* \"#utility.yul\":821:900   */\n      tag_70\n      tag_45\n      jump\t// in\n    tag_70:\n        /* \"#utility.yul\":783:902   */\n    tag_69:\n        /* \"#utility.yul\":941:942   */\n      0x00\n        /* \"#utility.yul\":966:1019   */\n      tag_71\n        /* \"#utility.yul\":1011:1018   */\n      dup6\n        /* \"#utility.yul\":1002:1008   */\n      dup3\n        /* \"#utility.yul\":991:1000   */\n      dup7\n        /* \"#utility.yul\":987:1009   */\n      add\n        /* \"#utility.yul\":966:1019   */\n      tag_49\n      jump\t// in\n    tag_71:\n        /* \"#utility.yul\":956:1019   */\n      swap3\n      pop\n        /* \"#utility.yul\":912:1029   */\n      pop\n        /* \"#utility.yul\":1068:1070   */\n      0x20\n        /* \"#utility.yul\":1094:1147   */\n      tag_72\n        /* \"#utility.yul\":1139:1146   */\n      dup6\n        /* \"#utility.yul\":1130:1136   */\n      dup3\n        /* \"#utility.yul\":1119:1128   */\n      dup7\n        /* \"#utility.yul\":1115:1137   */\n      add\n        /* \"#utility.yul\":1094:1147   */\n      tag_49\n      jump\t// in\n    tag_72:\n        /* \"#utility.yul\":1084:1147   */\n      swap2\n      pop\n        /* \"#utility.yul\":1039:1157   */\n      pop\n        /* \"#utility.yul\":690:1164   */\n      swap3\n      pop\n      swap3\n      swap1\n      pop\n      jump\t// out\n        /* \"#utility.yul\":1170:1296   */\n    tag_50:\n        /* \"#utility.yul\":1265:1289   */\n      tag_74\n        /* \"#utility.yul\":1283:1288   */\n      dup2\n        /* \"#utility.yul\":1265:1289   */\n      tag_47\n      jump\t// in\n    tag_74:\n        /* \"#utility.yul\":1260:1263   */\n      dup3\n        /* \"#utility.yul\":1253:1290   */\n      mstore\n        /* \"#utility.yul\":1170:1296   */\n      pop\n      pop\n      jump\t// out\n        /* \"#utility.yul\":1302:1540   */\n    tag_11:\n        /* \"#utility.yul\":1403:1407   */\n      0x00\n        /* \"#utility.yul\":1441:1443   */\n      0x20\n        /* \"#utility.yul\":1430:1439   */\n      dup3\n        /* \"#utility.yul\":1426:1444   */\n      add\n        /* \"#utility.yul\":1418:1444   */\n      swap1\n      pop\n        /* \"#utility.yul\":1454:1533   */\n      tag_76\n        /* \"#utility.yul\":1530:1531   */\n      0x00\n        /* \"#utility.yul\":1519:1528   */\n      dup4\n        /* \"#utility.yul\":1515:1532   */\n      add\n        /* \"#utility.yul\":1506:1512   */\n      dup5\n        /* \"#utility.yul\":1454:1533   */\n      tag_50\n      jump\t// in\n    tag_76:\n        /* \"#utility.yul\":1302:1540   */\n      swap3\n      swap2\n      pop\n      pop\n      jump\t// out\n        /* \"#utility.yul\":1546:1726   */\n    tag_51:\n        /* \"#utility.yul\":1594:1671   */\n      0x4e487b7100000000000000000000000000000000000000000000000000000000\n        /* \"#utility.yul\":1591:1592   */\n      0x00\n        /* \"#utility.yul\":1584:1672   */\n      mstore\n        /* \"#utility.yul\":1691:1695   */\n      0x11\n        /* \"#utility.yul\":1688:1689   */\n      0x04\n        /* \"#utility.yul\":1681:1696   */\n      mstore\n        /* \"#utility.yul\":1715:1719   */\n      0x24\n        /* \"#utility.yul\":1712:1713   */\n      0x00\n        /* \"#utility.yul\":1705:1720   */\n      revert\n        /* \"#utility.yul\":1732:2037   */\n    tag_26:\n        /* \"#utility.yul\":1772:1775   */\n      0x00\n        /* \"#utility.yul\":1791:1811   */\n      tag_79\n        /* \"#utility.yul\":1809:1810   */\n      dup3\n        /* \"#utility.yul\":1791:1811   */\n      tag_47\n      jump\t// in\n    tag_79:\n        /* \"#utility.yul\":1786:1811   */\n      swap2\n      pop\n        /* \"#utility.yul\":1825:1845   */\n      tag_80\n        /* \"#utility.yul\":1843:1844   */\n      dup4\n        /* \"#utility.yul\":1825:1845   */\n      tag_47\n      jump\t// in\n    tag_80:\n        /* \"#utility.yul\":1820:1845   */\n      swap3\n      pop\n        /* \"#utility.yul\":1979:1980   */\n      dup3\n        /* \"#utility.yul\":1911:1977   */\n      0xffffffffffffffffffffffffffffffffffffffffffffffffffffffffffffffff\n        /* \"#utility.yul\":1907:1981   */\n      sub\n        /* \"#utility.yul\":1904:1905   */\n      dup3\n        /* \"#utility.yul\":1901:1982   */\n      gt\n        /* \"#utility.yul\":1898:2005   */\n      iszero\n      tag_81\n      jumpi\n        /* \"#utility.yul\":1985:2003   */\n      tag_82\n      tag_51\n      jump\t// in\n    tag_82:\n        /* \"#utility.yul\":1898:2005   */\n    tag_81:\n        /* \"#utility.yul\":2029:2030   */\n      dup3\n        /* \"#utility.yul\":2026:2027   */\n      dup3\n        /* \"#utility.yul\":2022:2031   */\n      add\n        /* \"#utility.yul\":2015:2031   */\n      swap1\n      pop\n        /* \"#utility.yul\":1732:2037   */\n      swap3\n      swap2\n      pop\n      pop\n      jump\t// out\n        /* \"#utility.yul\":2043:2391   */\n    tag_29:\n        /* \"#utility.yul\":2083:2090   */\n      0x00\n        /* \"#utility.yul\":2106:2126   */\n      tag_84\n        /* \"#utility.yul\":2124:2125   */\n      dup3\n        /* \"#utility.yul\":2106:2126   */\n      tag_47\n      jump\t// in\n    tag_84:\n        /* \"#utility.yul\":2101:2126   */\n      swap2\n      pop\n        /* \"#utility.yul\":2140:2160   */\n      tag_85\n        /* \"#utility.yul\":2158:2159   */\n      dup4\n        /* \"#utility.yul\":2140:2160   */\n      tag_47\n      jump\t// in\n    tag_85:\n        /* \"#utility.yul\":2135:2160   */\n      swap3\n      pop\n        /* \"#utility.yul\":2328:2329   */\n      dup2\n        /* \"#utility.yul\":2260:2326   */\n      0xffffffffffffffffffffffffffffffffffffffffffffffffffffffffffffffff\n        /* \"#utility.yul\":2256:2330   */\n      div\n        /* \"#utility.yul\":2253:2254   */\n      dup4\n        /* \"#utility.yul\":2250:2331   */\n      gt\n        /* \"#utility.yul\":2245:2246   */\n      dup3\n        /* \"#utility.yul\":2238:2247   */\n      iszero\n        /* \"#utility.yul\":2231:2248   */\n      iszero\n        /* \"#utility.yul\":2227:2332   */\n      and\n        /* \"#utility.yul\":2224:2355   */\n      iszero\n      tag_86\n      jumpi\n        /* \"#utility.yul\":2335:2353   */\n      tag_87\n      tag_51\n      jump\t// in\n    tag_87:\n        /* \"#utility.yul\":2224:2355   */\n    tag_86:\n        /* \"#utility.yul\":2383:2384   */\n      dup3\n        /* \"#utility.yul\":2380:2381   */\n      dup3\n        /* \"#utility.yul\":2376:2385   */\n      mul\n        /* \"#utility.yul\":2365:2385   */\n      swap1\n      pop\n        /* \"#utility.yul\":2043:2391   */\n      swap3\n      swap2\n      pop\n      pop\n      jump\t// out\n        /* \"#utility.yul\":2397:2577   */\n    tag_52:\n        /* \"#utility.yul\":2445:2522   */\n      0x4e487b7100000000000000000000000000000000000000000000000000000000\n        /* \"#utility.yul\":2442:2443   */\n      0x00\n        /* \"#utility.yul\":2435:2523   */\n      mstore\n        /* \"#utility.yul\":2542:2546   */\n      0x12\n        /* \"#utility.yul\":2539:2540   */\n      0x04\n        /* \"#utility.yul\":2532:2547   */\n      mstore\n        /* \"#utility.yul\":2566:2570   */\n      0x24\n        /* \"#utility.yul\":2563:2564   */\n      0x00\n        /* \"#utility.yul\":2556:2571   */\n      revert\n        /* \"#utility.yul\":2583:2768   */\n    tag_31:\n        /* \"#utility.yul\":2623:2624   */\n      0x00\n        /* \"#utility.yul\":2640:2660   */\n      tag_90\n        /* \"#utility.yul\":2658:2659   */\n      dup3\n        /* \"#utility.yul\":2640:2660   */\n      tag_47\n      jump\t// in\n    tag_90:\n        /* \"#utility.yul\":2635:2660   */\n      swap2\n      pop\n        /* \"#utility.yul\":2674:2694   */\n      tag_91\n        /* \"#utility.yul\":2692:2693   */\n      dup4\n        /* \"#utility.yul\":2674:2694   */\n      tag_47\n      jump\t// in\n    tag_91:\n        /* \"#utility.yul\":2669:2694   */\n      swap3\n      pop\n        /* \"#utility.yul\":2713:2714   */\n      dup3\n        /* \"#utility.yul\":2703:2738   */\n      tag_92\n      jumpi\n        /* \"#utility.yul\":2718:2736   */\n      tag_93\n      tag_52\n      jump\t// in\n    tag_93:\n        /* \"#utility.yul\":2703:2738   */\n    tag_92:\n        /* \"#utility.yul\":2760:2761   */\n      dup3\n        /* \"#utility.yul\":2757:2758   */\n      dup3\n        /* \"#utility.yul\":2753:2762   */\n      div\n        /* \"#utility.yul\":2748:2762   */\n      swap1\n      pop\n        /* \"#utility.yul\":2583:2768   */\n      swap3\n      swap2\n      pop\n      pop\n      jump\t// out\n        /* \"#utility.yul\":2774:2943   */\n    tag_53:\n        /* \"#utility.yul\":2858:2869   */\n      0x00\n        /* \"#utility.yul\":2892:2898   */\n      dup3\n        /* \"#utility.yul\":2887:2890   */\n      dup3\n        /* \"#utility.yul\":2880:2899   */\n      mstore\n        /* \"#utility.yul\":2932:2936   */\n      0x20\n        /* \"#utility.yul\":2927:2930   */\n      dup3\n        /* \"#utility.yul\":2923:2937   */\n      add\n        /* \"#utility.yul\":2908:2937   */\n      swap1\n      pop\n        /* \"#utility.yul\":2774:2943   */\n      swap3\n      swap2\n      pop\n      pop\n      jump\t// out\n        /* \"#utility.yul\":2949:3242   */\n    tag_54:\n        /* \"#utility.yul\":3089:3123   */\n      0x4c696272617279206572726f723a205365636f6e6420706172616d6574657220\n        /* \"#utility.yul\":3085:3086   */\n      0x00\n        /* \"#utility.yul\":3077:3083   */\n      dup3\n        /* \"#utility.yul\":3073:3087   */\n      add\n        /* \"#utility.yul\":3066:3124   */\n      mstore\n        /* \"#utility.yul\":3158:3192   */\n      0x73686f756c64206265206c657373206f7220657175616c20746f207468652066\n        /* \"#utility.yul\":3153:3155   */\n      0x20\n        /* \"#utility.yul\":3145:3151   */\n      dup3\n        /* \"#utility.yul\":3141:3156   */\n      add\n        /* \"#utility.yul\":3134:3193   */\n      mstore\n        /* \"#utility.yul\":3227:3234   */\n      0x697273742e000000000000000000000000000000000000000000000000000000\n        /* \"#utility.yul\":3222:3224   */\n      0x40\n        /* \"#utility.yul\":3214:3220   */\n      dup3\n        /* \"#utility.yul\":3210:3225   */\n      add\n        /* \"#utility.yul\":3203:3235   */\n      mstore\n        /* \"#utility.yul\":2949:3242   */\n      pop\n      jump\t// out\n        /* \"#utility.yul\":3248:3614   */\n    tag_55:\n        /* \"#utility.yul\":3390:3393   */\n      0x00\n        /* \"#utility.yul\":3411:3478   */\n      tag_97\n        /* \"#utility.yul\":3475:3477   */\n      0x45\n        /* \"#utility.yul\":3470:3473   */\n      dup4\n        /* \"#utility.yul\":3411:3478   */\n      tag_53\n      jump\t// in\n    tag_97:\n        /* \"#utility.yul\":3404:3478   */\n      swap2\n      pop\n        /* \"#utility.yul\":3487:3580   */\n      tag_98\n        /* \"#utility.yul\":3576:3579   */\n      dup3\n        /* \"#utility.yul\":3487:3580   */\n      tag_54\n      jump\t// in\n    tag_98:\n        /* \"#utility.yul\":3605:3607   */\n      0x60\n        /* \"#utility.yul\":3600:3603   */\n      dup3\n        /* \"#utility.yul\":3596:3608   */\n      add\n        /* \"#utility.yul\":3589:3608   */\n      swap1\n      pop\n        /* \"#utility.yul\":3248:3614   */\n      swap2\n      swap1\n      pop\n      jump\t// out\n        /* \"#utility.yul\":3620:4039   */\n    tag_35:\n        /* \"#utility.yul\":3786:3790   */\n      0x00\n        /* \"#utility.yul\":3824:3826   */\n      0x20\n        /* \"#utility.yul\":3813:3822   */\n      dup3\n        /* \"#utility.yul\":3809:3827   */\n      add\n        /* \"#utility.yul\":3801:3827   */\n      swap1\n      pop\n        /* \"#utility.yul\":3873:3882   */\n      dup2\n        /* \"#utility.yul\":3867:3871   */\n      dup2\n        /* \"#utility.yul\":3863:3883   */\n      sub\n        /* \"#utility.yul\":3859:3860   */\n      0x00\n        /* \"#utility.yul\":3848:3857   */\n      dup4\n        /* \"#utility.yul\":3844:3861   */\n      add\n        /* \"#utility.yul\":3837:3884   */\n      mstore\n        /* \"#utility.yul\":3901:4032   */\n      tag_100\n        /* \"#utility.yul\":4027:4031   */\n      dup2\n        /* \"#utility.yul\":3901:4032   */\n      tag_55\n      jump\t// in\n    tag_100:\n        /* \"#utility.yul\":3893:4032   */\n      swap1\n      pop\n        /* \"#utility.yul\":3620:4039   */\n      swap2\n      swap1\n      pop\n      jump\t// out\n        /* \"#utility.yul\":4045:4236   */\n    tag_37:\n        /* \"#utility.yul\":4085:4089   */\n      0x00\n        /* \"#utility.yul\":4105:4125   */\n      tag_102\n        /* \"#utility.yul\":4123:4124   */\n      dup3\n        /* \"#utility.yul\":4105:4125   */\n      tag_47\n      jump\t// in\n    tag_102:\n        /* \"#utility.yul\":4100:4125   */\n      swap2\n      pop\n        /* \"#utility.yul\":4139:4159   */\n      tag_103\n        /* \"#utility.yul\":4157:4158   */\n      dup4\n        /* \"#utility.yul\":4139:4159   */\n      tag_47\n      jump\t// in\n    tag_103:\n        /* \"#utility.yul\":4134:4159   */\n      swap3\n      pop\n        /* \"#utility.yul\":4178:4179   */\n      dup3\n        /* \"#utility.yul\":4175:4176   */\n      dup3\n        /* \"#utility.yul\":4172:4180   */\n      lt\n        /* \"#utility.yul\":4169:4203   */\n      iszero\n      tag_104\n      jumpi\n        /* \"#utility.yul\":4183:4201   */\n      tag_105\n      tag_51\n      jump\t// in\n    tag_105:\n        /* \"#utility.yul\":4169:4203   */\n    tag_104:\n        /* \"#utility.yul\":4228:4229   */\n      dup3\n        /* \"#utility.yul\":4225:4226   */\n      dup3\n        /* \"#utility.yul\":4221:4230   */\n      sub\n        /* \"#utility.yul\":4213:4230   */\n      swap1\n      pop\n        /* \"#utility.yul\":4045:4236   */\n      swap3\n      swap2\n      pop\n      pop\n      jump\t// out\n        /* \"#utility.yul\":4242:4423   */\n    tag_56:\n        /* \"#utility.yul\":4382:4415   */\n      0x4c696272617279204572726f722c204e756d626572206f766572666c6f772e00\n        /* \"#utility.yul\":4378:4379   */\n      0x00\n        /* \"#utility.yul\":4370:4376   */\n      dup3\n        /* \"#utility.yul\":4366:4380   */\n      add\n        /* \"#utility.yul\":4359:4416   */\n      mstore\n        /* \"#utility.yul\":4242:4423   */\n      pop\n      jump\t// out\n        /* \"#utility.yul\":4429:4795   */\n    tag_57:\n        /* \"#utility.yul\":4571:4574   */\n      0x00\n        /* \"#utility.yul\":4592:4659   */\n      tag_108\n        /* \"#utility.yul\":4656:4658   */\n      0x1f\n        /* \"#utility.yul\":4651:4654   */\n      dup4\n        /* \"#utility.yul\":4592:4659   */\n      tag_53\n      jump\t// in\n    tag_108:\n        /* \"#utility.yul\":4585:4659   */\n      swap2\n      pop\n        /* \"#utility.yul\":4668:4761   */\n      tag_109\n        /* \"#utility.yul\":4757:4760   */\n      dup3\n        /* \"#utility.yul\":4668:4761   */\n      tag_56\n      jump\t// in\n    tag_109:\n        /* \"#utility.yul\":4786:4788   */\n      0x20\n        /* \"#utility.yul\":4781:4784   */\n      dup3\n        /* \"#utility.yul\":4777:4789   */\n      add\n        /* \"#utility.yul\":4770:4789   */\n      swap1\n      pop\n        /* \"#utility.yul\":4429:4795   */\n      swap2\n      swap1\n      pop\n      jump\t// out\n        /* \"#utility.yul\":4801:5220   */\n    tag_42:\n        /* \"#utility.yul\":4967:4971   */\n      0x00\n        /* \"#utility.yul\":5005:5007   */\n      0x20\n        /* \"#utility.yul\":4994:5003   */\n      dup3\n        /* \"#utility.yul\":4990:5008   */\n      add\n        /* \"#utility.yul\":4982:5008   */\n      swap1\n      pop\n        /* \"#utility.yul\":5054:5063   */\n      dup2\n        /* \"#utility.yul\":5048:5052   */\n      dup2\n        /* \"#utility.yul\":5044:5064   */\n      sub\n        /* \"#utility.yul\":5040:5041   */\n      0x00\n        /* \"#utility.yul\":5029:5038   */\n      dup4\n        /* \"#utility.yul\":5025:5042   */\n      add\n        /* \"#utility.yul\":5018:5065   */\n      mstore\n        /* \"#utility.yul\":5082:5213   */\n      tag_111\n        /* \"#utility.yul\":5208:5212   */\n      dup2\n        /* \"#utility.yul\":5082:5213   */\n      tag_57\n      jump\t// in\n    tag_111:\n        /* \"#utility.yul\":5074:5213   */\n      swap1\n      pop\n        /* \"#utility.yul\":4801:5220   */\n      swap2\n      swap1\n      pop\n      jump\t// out\n\n    auxdata: 0xa26469706673582212200d4a8fc3130867cc800ee379c486dc1360a961c093eb7966eeb3570797483e2b64736f6c634300080d0033\n}\n",
				"bytecode": {
					"linkReferences": {},
					"object": "6105c6610053600b82828239805160001a607314610046577f4e487b7100000000000000000000000000000000000000000000000000000000600052600060045260246000fd5b30600052607381538281f3fe73000000000000000000000000000000000000000030146080604052600436106100565760003560e01c8063771602f71461005b578063a391c15b1461008b578063b67d77c5146100bb578063c8a4ac9c146100eb575b600080fd5b6100756004803603810190610070919061027e565b61011b565b60405161008291906102cd565b60405180910390f35b6100a560048036038101906100a0919061027e565b610136565b6040516100b291906102cd565b60405180910390f35b6100d560048036038101906100d0919061027e565b61015a565b6040516100e291906102cd565b60405180910390f35b6101056004803603810190610100919061027e565b6101b9565b60405161011291906102cd565b60405180910390f35b600080828461012a9190610317565b90508091505092915050565b60008082606485610147919061036d565b61015191906103f6565b90505092915050565b60008183101561019f576040517f08c379a0000000000000000000000000000000000000000000000000000000008152600401610196906104d0565b60405180910390fd5b600082846101ad91906104f0565b90508091505092915050565b60007fffffffffffffffffffffffffffffffffffffffffffffffffffffffffffffffff82846101e8919061036d565b1115610229576040517f08c379a000000000000000000000000000000000000000000000000000000000815260040161022090610570565b60405180910390fd5b60008284610237919061036d565b90508091505092915050565b600080fd5b6000819050919050565b61025b81610248565b811461026657600080fd5b50565b60008135905061027881610252565b92915050565b6000806040838503121561029557610294610243565b5b60006102a385828601610269565b92505060206102b485828601610269565b9150509250929050565b6102c781610248565b82525050565b60006020820190506102e260008301846102be565b92915050565b7f4e487b7100000000000000000000000000000000000000000000000000000000600052601160045260246000fd5b600061032282610248565b915061032d83610248565b9250827fffffffffffffffffffffffffffffffffffffffffffffffffffffffffffffffff03821115610362576103616102e8565b5b828201905092915050565b600061037882610248565b915061038383610248565b9250817fffffffffffffffffffffffffffffffffffffffffffffffffffffffffffffffff04831182151516156103bc576103bb6102e8565b5b828202905092915050565b7f4e487b7100000000000000000000000000000000000000000000000000000000600052601260045260246000fd5b600061040182610248565b915061040c83610248565b92508261041c5761041b6103c7565b5b828204905092915050565b600082825260208201905092915050565b7f4c696272617279206572726f723a205365636f6e6420706172616d657465722060008201527f73686f756c64206265206c657373206f7220657175616c20746f20746865206660208201527f697273742e000000000000000000000000000000000000000000000000000000604082015250565b60006104ba604583610427565b91506104c582610438565b606082019050919050565b600060208201905081810360008301526104e9816104ad565b9050919050565b60006104fb82610248565b915061050683610248565b925082821015610519576105186102e8565b5b828203905092915050565b7f4c696272617279204572726f722c204e756d626572206f766572666c6f772e00600082015250565b600061055a601f83610427565b915061056582610524565b602082019050919050565b600060208201905081810360008301526105898161054d565b905091905056fea26469706673582212200d4a8fc3130867cc800ee379c486dc1360a961c093eb7966eeb3570797483e2b64736f6c634300080d0033",
					"opcodes": "PUSH2 0x5C6 PUSH2 0x53 PUSH1 0xB DUP3 DUP3 DUP3 CODECOPY DUP1 MLOAD PUSH1 0x0 BYTE PUSH1 0x73 EQ PUSH2 0x46 JUMPI PUSH32 0x4E487B7100000000000000000000000000000000000000000000000000000000 PUSH1 0x0 MSTORE PUSH1 0x0 PUSH1 0x4 MSTORE PUSH1 0x24 PUSH1 0x0 REVERT JUMPDEST ADDRESS PUSH1 0x0 MSTORE PUSH1 0x73 DUP2 MSTORE8 DUP3 DUP2 RETURN INVALID PUSH20 0x0 ADDRESS EQ PUSH1 0x80 PUSH1 0x40 MSTORE PUSH1 0x4 CALLDATASIZE LT PUSH2 0x56 JUMPI PUSH1 0x0 CALLDATALOAD PUSH1 0xE0 SHR DUP1 PUSH4 0x771602F7 EQ PUSH2 0x5B JUMPI DUP1 PUSH4 0xA391C15B EQ PUSH2 0x8B JUMPI DUP1 PUSH4 0xB67D77C5 EQ PUSH2 0xBB JUMPI DUP1 PUSH4 0xC8A4AC9C EQ PUSH2 0xEB JUMPI JUMPDEST PUSH1 0x0 DUP1 REVERT JUMPDEST PUSH2 0x75 PUSH1 0x4 DUP1 CALLDATASIZE SUB DUP2 ADD SWAP1 PUSH2 0x70 SWAP2 SWAP1 PUSH2 0x27E JUMP JUMPDEST PUSH2 0x11B JUMP JUMPDEST PUSH1 0x40 MLOAD PUSH2 0x82 SWAP2 SWAP1 PUSH2 0x2CD JUMP JUMPDEST PUSH1 0x40 MLOAD DUP1 SWAP2 SUB SWAP1 RETURN JUMPDEST PUSH2 0xA5 PUSH1 0x4 DUP1 CALLDATASIZE SUB DUP2 ADD SWAP1 PUSH2 0xA0 SWAP2 SWAP1 PUSH2 0x27E JUMP JUMPDEST PUSH2 0x136 JUMP JUMPDEST PUSH1 0x40 MLOAD PUSH2 0xB2 SWAP2 SWAP1 PUSH2 0x2CD JUMP JUMPDEST PUSH1 0x40 MLOAD DUP1 SWAP2 SUB SWAP1 RETURN JUMPDEST PUSH2 0xD5 PUSH1 0x4 DUP1 CALLDATASIZE SUB DUP2 ADD SWAP1 PUSH2 0xD0 SWAP2 SWAP1 PUSH2 0x27E JUMP JUMPDEST PUSH2 0x15A JUMP JUMPDEST PUSH1 0x40 MLOAD PUSH2 0xE2 SWAP2 SWAP1 PUSH2 0x2CD JUMP JUMPDEST PUSH1 0x40 MLOAD DUP1 SWAP2 SUB SWAP1 RETURN JUMPDEST PUSH2 0x105 PUSH1 0x4 DUP1 CALLDATASIZE SUB DUP2 ADD SWAP1 PUSH2 0x100 SWAP2 SWAP1 PUSH2 0x27E JUMP JUMPDEST PUSH2 0x1B9 JUMP JUMPDEST PUSH1 0x40 MLOAD PUSH2 0x112 SWAP2 SWAP1 PUSH2 0x2CD JUMP JUMPDEST PUSH1 0x40 MLOAD DUP1 SWAP2 SUB SWAP1 RETURN JUMPDEST PUSH1 0x0 DUP1 DUP3 DUP5 PUSH2 0x12A SWAP2 SWAP1 PUSH2 0x317 JUMP JUMPDEST SWAP1 POP DUP1 SWAP2 POP POP SWAP3 SWAP2 POP POP JUMP JUMPDEST PUSH1 0x0 DUP1 DUP3 PUSH1 0x64 DUP6 PUSH2 0x147 SWAP2 SWAP1 PUSH2 0x36D JUMP JUMPDEST PUSH2 0x151 SWAP2 SWAP1 PUSH2 0x3F6 JUMP JUMPDEST SWAP1 POP POP SWAP3 SWAP2 POP POP JUMP JUMPDEST PUSH1 0x0 DUP2 DUP4 LT ISZERO PUSH2 0x19F JUMPI PUSH1 0x40 MLOAD PUSH32 0x8C379A000000000000000000000000000000000000000000000000000000000 DUP2 MSTORE PUSH1 0x4 ADD PUSH2 0x196 SWAP1 PUSH2 0x4D0 JUMP JUMPDEST PUSH1 0x40 MLOAD DUP1 SWAP2 SUB SWAP1 REVERT JUMPDEST PUSH1 0x0 DUP3 DUP5 PUSH2 0x1AD SWAP2 SWAP1 PUSH2 0x4F0 JUMP JUMPDEST SWAP1 POP DUP1 SWAP2 POP POP SWAP3 SWAP2 POP POP JUMP JUMPDEST PUSH1 0x0 PUSH32 0xFFFFFFFFFFFFFFFFFFFFFFFFFFFFFFFFFFFFFFFFFFFFFFFFFFFFFFFFFFFFFFFF DUP3 DUP5 PUSH2 0x1E8 SWAP2 SWAP1 PUSH2 0x36D JUMP JUMPDEST GT ISZERO PUSH2 0x229 JUMPI PUSH1 0x40 MLOAD PUSH32 0x8C379A000000000000000000000000000000000000000000000000000000000 DUP2 MSTORE PUSH1 0x4 ADD PUSH2 0x220 SWAP1 PUSH2 0x570 JUMP JUMPDEST PUSH1 0x40 MLOAD DUP1 SWAP2 SUB SWAP1 REVERT JUMPDEST PUSH1 0x0 DUP3 DUP5 PUSH2 0x237 SWAP2 SWAP1 PUSH2 0x36D JUMP JUMPDEST SWAP1 POP DUP1 SWAP2 POP POP SWAP3 SWAP2 POP POP JUMP JUMPDEST PUSH1 0x0 DUP1 REVERT JUMPDEST PUSH1 0x0 DUP2 SWAP1 POP SWAP2 SWAP1 POP JUMP JUMPDEST PUSH2 0x25B DUP2 PUSH2 0x248 JUMP JUMPDEST DUP2 EQ PUSH2 0x266 JUMPI PUSH1 0x0 DUP1 REVERT JUMPDEST POP JUMP JUMPDEST PUSH1 0x0 DUP2 CALLDATALOAD SWAP1 POP PUSH2 0x278 DUP2 PUSH2 0x252 JUMP JUMPDEST SWAP3 SWAP2 POP POP JUMP JUMPDEST PUSH1 0x0 DUP1 PUSH1 0x40 DUP4 DUP6 SUB SLT ISZERO PUSH2 0x295 JUMPI PUSH2 0x294 PUSH2 0x243 JUMP JUMPDEST JUMPDEST PUSH1 0x0 PUSH2 0x2A3 DUP6 DUP3 DUP7 ADD PUSH2 0x269 JUMP JUMPDEST SWAP3 POP POP PUSH1 0x20 PUSH2 0x2B4 DUP6 DUP3 DUP7 ADD PUSH2 0x269 JUMP JUMPDEST SWAP2 POP POP SWAP3 POP SWAP3 SWAP1 POP JUMP JUMPDEST PUSH2 0x2C7 DUP2 PUSH2 0x248 JUMP JUMPDEST DUP3 MSTORE POP POP JUMP JUMPDEST PUSH1 0x0 PUSH1 0x20 DUP3 ADD SWAP1 POP PUSH2 0x2E2 PUSH1 0x0 DUP4 ADD DUP5 PUSH2 0x2BE JUMP JUMPDEST SWAP3 SWAP2 POP POP JUMP JUMPDEST PUSH32 0x4E487B7100000000000000000000000000000000000000000000000000000000 PUSH1 0x0 MSTORE PUSH1 0x11 PUSH1 0x4 MSTORE PUSH1 0x24 PUSH1 0x0 REVERT JUMPDEST PUSH1 0x0 PUSH2 0x322 DUP3 PUSH2 0x248 JUMP JUMPDEST SWAP2 POP PUSH2 0x32D DUP4 PUSH2 0x248 JUMP JUMPDEST SWAP3 POP DUP3 PUSH32 0xFFFFFFFFFFFFFFFFFFFFFFFFFFFFFFFFFFFFFFFFFFFFFFFFFFFFFFFFFFFFFFFF SUB DUP3 GT ISZERO PUSH2 0x362 JUMPI PUSH2 0x361 PUSH2 0x2E8 JUMP JUMPDEST JUMPDEST DUP3 DUP3 ADD SWAP1 POP SWAP3 SWAP2 POP POP JUMP JUMPDEST PUSH1 0x0 PUSH2 0x378 DUP3 PUSH2 0x248 JUMP JUMPDEST SWAP2 POP PUSH2 0x383 DUP4 PUSH2 0x248 JUMP JUMPDEST SWAP3 POP DUP2 PUSH32 0xFFFFFFFFFFFFFFFFFFFFFFFFFFFFFFFFFFFFFFFFFFFFFFFFFFFFFFFFFFFFFFFF DIV DUP4 GT DUP3 ISZERO ISZERO AND ISZERO PUSH2 0x3BC JUMPI PUSH2 0x3BB PUSH2 0x2E8 JUMP JUMPDEST JUMPDEST DUP3 DUP3 MUL SWAP1 POP SWAP3 SWAP2 POP POP JUMP JUMPDEST PUSH32 0x4E487B7100000000000000000000000000000000000000000000000000000000 PUSH1 0x0 MSTORE PUSH1 0x12 PUSH1 0x4 MSTORE PUSH1 0x24 PUSH1 0x0 REVERT JUMPDEST PUSH1 0x0 PUSH2 0x401 DUP3 PUSH2 0x248 JUMP JUMPDEST SWAP2 POP PUSH2 0x40C DUP4 PUSH2 0x248 JUMP JUMPDEST SWAP3 POP DUP3 PUSH2 0x41C JUMPI PUSH2 0x41B PUSH2 0x3C7 JUMP JUMPDEST JUMPDEST DUP3 DUP3 DIV SWAP1 POP SWAP3 SWAP2 POP POP JUMP JUMPDEST PUSH1 0x0 DUP3 DUP3 MSTORE PUSH1 0x20 DUP3 ADD SWAP1 POP SWAP3 SWAP2 POP POP JUMP JUMPDEST PUSH32 0x4C696272617279206572726F723A205365636F6E6420706172616D6574657220 PUSH1 0x0 DUP3 ADD MSTORE PUSH32 0x73686F756C64206265206C657373206F7220657175616C20746F207468652066 PUSH1 0x20 DUP3 ADD MSTORE PUSH32 0x697273742E000000000000000000000000000000000000000000000000000000 PUSH1 0x40 DUP3 ADD MSTORE POP JUMP JUMPDEST PUSH1 0x0 PUSH2 0x4BA PUSH1 0x45 DUP4 PUSH2 0x427 JUMP JUMPDEST SWAP2 POP PUSH2 0x4C5 DUP3 PUSH2 0x438 JUMP JUMPDEST PUSH1 0x60 DUP3 ADD SWAP1 POP SWAP2 SWAP1 POP JUMP JUMPDEST PUSH1 0x0 PUSH1 0x20 DUP3 ADD SWAP1 POP DUP2 DUP2 SUB PUSH1 0x0 DUP4 ADD MSTORE PUSH2 0x4E9 DUP2 PUSH2 0x4AD JUMP JUMPDEST SWAP1 POP SWAP2 SWAP1 POP JUMP JUMPDEST PUSH1 0x0 PUSH2 0x4FB DUP3 PUSH2 0x248 JUMP JUMPDEST SWAP2 POP PUSH2 0x506 DUP4 PUSH2 0x248 JUMP JUMPDEST SWAP3 POP DUP3 DUP3 LT ISZERO PUSH2 0x519 JUMPI PUSH2 0x518 PUSH2 0x2E8 JUMP JUMPDEST JUMPDEST DUP3 DUP3 SUB SWAP1 POP SWAP3 SWAP2 POP POP JUMP JUMPDEST PUSH32 0x4C696272617279204572726F722C204E756D626572206F766572666C6F772E00 PUSH1 0x0 DUP3 ADD MSTORE POP JUMP JUMPDEST PUSH1 0x0 PUSH2 0x55A PUSH1 0x1F DUP4 PUSH2 0x427 JUMP JUMPDEST SWAP2 POP PUSH2 0x565 DUP3 PUSH2 0x524 JUMP JUMPDEST PUSH1 0x20 DUP3 ADD SWAP1 POP SWAP2 SWAP1 POP JUMP JUMPDEST PUSH1 0x0 PUSH1 0x20 DUP3 ADD SWAP1 POP DUP2 DUP2 SUB PUSH1 0x0 DUP4 ADD MSTORE PUSH2 0x589 DUP2 PUSH2 0x54D JUMP JUMPDEST SWAP1 POP SWAP2 SWAP1 POP JUMP INVALID LOG2 PUSH5 0x6970667358 0x22 SLT KECCAK256 0xD 0x4A DUP16 0xC3 SGT ADDMOD PUSH8 0xCC800EE379C486DC SGT PUSH1 0xA9 PUSH2 0xC093 0xEB PUSH26 0x66EEB3570797483E2B64736F6C634300080D0033000000000000 "
				},
				"gasEstimates": {
					"creation": {
						"codeDepositCost": "295600",
						"executionCost": "362",
						"totalCost": "295962"
					},
					"external": {
						"add(uint256,uint256)": "infinite",
						"div(uint256,uint256)": "infinite",
						"mul(uint256,uint256)": "infinite",
						"sub(uint256,uint256)": "infinite"
					}
				},
				"methodIdentifiers": {
					"add(uint256,uint256)": "771602f7",
					"div(uint256,uint256)": "a391c15b",
					"mul(uint256,uint256)": "c8a4ac9c",
					"sub(uint256,uint256)": "b67d77c5"
				}
			},
			"userdoc": {
				"kind": "user",
				"methods": {},
				"version": 1
			}
		}
	}
}