{
	"libraries/operators.sol": {
		"operations": {
			"abi": [
				{
					"inputs": [
						{
							"internalType": "uint256",
							"name": "a",
							"type": "uint256"
						},
						{
							"internalType": "uint256",
							"name": "b",
							"type": "uint256"
						}
					],
					"name": "add",
					"outputs": [
						{
							"internalType": "uint256",
							"name": "",
							"type": "uint256"
						}
					],
					"stateMutability": "pure",
					"type": "function"
				},
				{
					"inputs": [
						{
							"internalType": "uint256",
							"name": "a",
							"type": "uint256"
						},
						{
							"internalType": "uint256",
							"name": "b",
							"type": "uint256"
						}
					],
					"name": "mul",
					"outputs": [
						{
							"internalType": "uint256",
							"name": "",
							"type": "uint256"
						}
					],
					"stateMutability": "pure",
					"type": "function"
				},
				{
					"inputs": [
						{
							"internalType": "uint256",
							"name": "a",
							"type": "uint256"
						},
						{
							"internalType": "uint256",
							"name": "b",
							"type": "uint256"
						}
					],
					"name": "sub",
					"outputs": [
						{
							"internalType": "uint256",
							"name": "",
							"type": "uint256"
						}
					],
					"stateMutability": "pure",
					"type": "function"
				}
			],
			"devdoc": {
				"kind": "dev",
				"methods": {},
				"version": 1
			},
			"evm": {
				"assembly": "    /* \"libraries/operators.sol\":76:658  library operations... */\n  dataSize(sub_0)\n  dataOffset(sub_0)\n  0x0b\n  dup3\n  dup3\n  dup3\n  codecopy\n  dup1\n  mload\n  0x00\n  byte\n  0x73\n  eq\n  tag_1\n  jumpi\n  mstore(0x00, 0x4e487b7100000000000000000000000000000000000000000000000000000000)\n  mstore(0x04, 0x00)\n  revert(0x00, 0x24)\ntag_1:\n  mstore(0x00, address)\n  0x73\n  dup2\n  mstore8\n  dup3\n  dup2\n  return\nstop\n\nsub_0: assembly {\n        /* \"libraries/operators.sol\":76:658  library operations... */\n      eq(address, deployTimeAddress())\n      mstore(0x40, 0x80)\n      jumpi(tag_1, lt(calldatasize, 0x04))\n      shr(0xe0, calldataload(0x00))\n      dup1\n      0x771602f7\n      eq\n      tag_2\n      jumpi\n      dup1\n      0xb67d77c5\n      eq\n      tag_3\n      jumpi\n      dup1\n      0xc8a4ac9c\n      eq\n      tag_4\n      jumpi\n    tag_1:\n      0x00\n      dup1\n      revert\n        /* \"libraries/operators.sol\":103:223  function add(uint a, uint b) public pure returns(uint)... */\n    tag_2:\n      tag_5\n      0x04\n      dup1\n      calldatasize\n      sub\n      dup2\n      add\n      swap1\n      tag_6\n      swap2\n      swap1\n      tag_7\n      jump\t// in\n    tag_6:\n      tag_8\n      jump\t// in\n    tag_5:\n      mload(0x40)\n      tag_9\n      swap2\n      swap1\n      tag_10\n      jump\t// in\n    tag_9:\n      mload(0x40)\n      dup1\n      swap2\n      sub\n      swap1\n      return\n        /* \"libraries/operators.sol\":231:448  function sub(uint a, uint b) public pure returns(uint)... */\n    tag_3:\n      tag_11\n      0x04\n      dup1\n      calldatasize\n      sub\n      dup2\n      add\n      swap1\n      tag_12\n      swap2\n      swap1\n      tag_7\n      jump\t// in\n    tag_12:\n      tag_13\n      jump\t// in\n    tag_11:\n      mload(0x40)\n      tag_14\n      swap2\n      swap1\n      tag_10\n      jump\t// in\n    tag_14:\n      mload(0x40)\n      dup1\n      swap2\n      sub\n      swap1\n      return\n        /* \"libraries/operators.sol\":456:655  function mul(uint a, uint b) public pure returns(uint)... */\n    tag_4:\n      tag_15\n      0x04\n      dup1\n      calldatasize\n      sub\n      dup2\n      add\n      swap1\n      tag_16\n      swap2\n      swap1\n      tag_7\n      jump\t// in\n    tag_16:\n      tag_17\n      jump\t// in\n    tag_15:\n      mload(0x40)\n      tag_18\n      swap2\n      swap1\n      tag_10\n      jump\t// in\n    tag_18:\n      mload(0x40)\n      dup1\n      swap2\n      sub\n      swap1\n      return\n        /* \"libraries/operators.sol\":103:223  function add(uint a, uint b) public pure returns(uint)... */\n    tag_8:\n        /* \"libraries/operators.sol\":152:156  uint */\n      0x00\n        /* \"libraries/operators.sol\":174:184  uint total */\n      dup1\n        /* \"libraries/operators.sol\":191:192  b */\n      dup3\n        /* \"libraries/operators.sol\":187:188  a */\n      dup5\n        /* \"libraries/operators.sol\":187:192  a + b */\n      tag_20\n      swap2\n      swap1\n      tag_21\n      jump\t// in\n    tag_20:\n        /* \"libraries/operators.sol\":174:192  uint total = a + b */\n      swap1\n      pop\n        /* \"libraries/operators.sol\":210:215  total */\n      dup1\n        /* \"libraries/operators.sol\":203:215  return total */\n      swap2\n      pop\n      pop\n        /* \"libraries/operators.sol\":103:223  function add(uint a, uint b) public pure returns(uint)... */\n      swap3\n      swap2\n      pop\n      pop\n      jump\t// out\n        /* \"libraries/operators.sol\":231:448  function sub(uint a, uint b) public pure returns(uint)... */\n    tag_13:\n        /* \"libraries/operators.sol\":280:284  uint */\n      0x00\n        /* \"libraries/operators.sol\":315:316  a */\n      dup3\n        /* \"libraries/operators.sol\":310:311  b */\n      dup3\n        /* \"libraries/operators.sol\":310:316  b >= a */\n      lt\n      iszero\n        /* \"libraries/operators.sol\":302:390  require(b >= a, \"Library error: First parameter should be less or equal to the second.\") */\n      tag_23\n      jumpi\n      mload(0x40)\n      0x08c379a000000000000000000000000000000000000000000000000000000000\n      dup2\n      mstore\n      0x04\n      add\n      tag_24\n      swap1\n      tag_25\n      jump\t// in\n    tag_24:\n      mload(0x40)\n      dup1\n      swap2\n      sub\n      swap1\n      revert\n    tag_23:\n        /* \"libraries/operators.sol\":401:410  uint left */\n      0x00\n        /* \"libraries/operators.sol\":417:418  a */\n      dup4\n        /* \"libraries/operators.sol\":413:414  b */\n      dup4\n        /* \"libraries/operators.sol\":413:418  b - a */\n      tag_26\n      swap2\n      swap1\n      tag_27\n      jump\t// in\n    tag_26:\n        /* \"libraries/operators.sol\":401:418  uint left = b - a */\n      swap1\n      pop\n        /* \"libraries/operators.sol\":436:440  left */\n      dup1\n        /* \"libraries/operators.sol\":429:440  return left */\n      swap2\n      pop\n      pop\n        /* \"libraries/operators.sol\":231:448  function sub(uint a, uint b) public pure returns(uint)... */\n      swap3\n      swap2\n      pop\n      pop\n      jump\t// out\n        /* \"libraries/operators.sol\":456:655  function mul(uint a, uint b) public pure returns(uint)... */\n    tag_17:\n        /* \"libraries/operators.sol\":505:509  uint */\n      0x00\n        /* \"libraries/operators.sol\":547:561  (2 ** 256) - 1 */\n      0xffffffffffffffffffffffffffffffffffffffffffffffffffffffffffffffff\n        /* \"libraries/operators.sol\":540:541  b */\n      dup3\n        /* \"libraries/operators.sol\":536:537  a */\n      dup5\n        /* \"libraries/operators.sol\":536:541  a * b */\n      tag_29\n      swap2\n      swap1\n      tag_30\n      jump\t// in\n    tag_29:\n        /* \"libraries/operators.sol\":535:562  (a * b) <= ((2 ** 256) - 1) */\n      gt\n      iszero\n        /* \"libraries/operators.sol\":527:597  require((a * b) <= ((2 ** 256) - 1), \"Library Error, Number overflow\") */\n      tag_31\n      jumpi\n      mload(0x40)\n      0x08c379a000000000000000000000000000000000000000000000000000000000\n      dup2\n      mstore\n      0x04\n      add\n      tag_32\n      swap1\n      tag_33\n      jump\t// in\n    tag_32:\n      mload(0x40)\n      dup1\n      swap2\n      sub\n      swap1\n      revert\n    tag_31:\n        /* \"libraries/operators.sol\":608:617  uint prod */\n      0x00\n        /* \"libraries/operators.sol\":624:625  b */\n      dup3\n        /* \"libraries/operators.sol\":620:621  a */\n      dup5\n        /* \"libraries/operators.sol\":620:625  a * b */\n      tag_34\n      swap2\n      swap1\n      tag_30\n      jump\t// in\n    tag_34:\n        /* \"libraries/operators.sol\":608:625  uint prod = a * b */\n      swap1\n      pop\n        /* \"libraries/operators.sol\":643:647  prod */\n      dup1\n        /* \"libraries/operators.sol\":636:647  return prod */\n      swap2\n      pop\n      pop\n        /* \"libraries/operators.sol\":456:655  function mul(uint a, uint b) public pure returns(uint)... */\n      swap3\n      swap2\n      pop\n      pop\n      jump\t// out\n        /* \"#utility.yul\":88:205   */\n    tag_36:\n        /* \"#utility.yul\":197:198   */\n      0x00\n        /* \"#utility.yul\":194:195   */\n      dup1\n        /* \"#utility.yul\":187:199   */\n      revert\n        /* \"#utility.yul\":334:411   */\n    tag_38:\n        /* \"#utility.yul\":371:378   */\n      0x00\n        /* \"#utility.yul\":400:405   */\n      dup2\n        /* \"#utility.yul\":389:405   */\n      swap1\n      pop\n        /* \"#utility.yul\":334:411   */\n      swap2\n      swap1\n      pop\n      jump\t// out\n        /* \"#utility.yul\":417:539   */\n    tag_39:\n        /* \"#utility.yul\":490:514   */\n      tag_54\n        /* \"#utility.yul\":508:513   */\n      dup2\n        /* \"#utility.yul\":490:514   */\n      tag_38\n      jump\t// in\n    tag_54:\n        /* \"#utility.yul\":483:488   */\n      dup2\n        /* \"#utility.yul\":480:515   */\n      eq\n        /* \"#utility.yul\":470:533   */\n      tag_55\n      jumpi\n        /* \"#utility.yul\":529:530   */\n      0x00\n        /* \"#utility.yul\":526:527   */\n      dup1\n        /* \"#utility.yul\":519:531   */\n      revert\n        /* \"#utility.yul\":470:533   */\n    tag_55:\n        /* \"#utility.yul\":417:539   */\n      pop\n      jump\t// out\n        /* \"#utility.yul\":545:684   */\n    tag_40:\n        /* \"#utility.yul\":591:596   */\n      0x00\n        /* \"#utility.yul\":629:635   */\n      dup2\n        /* \"#utility.yul\":616:636   */\n      calldataload\n        /* \"#utility.yul\":607:636   */\n      swap1\n      pop\n        /* \"#utility.yul\":645:678   */\n      tag_57\n        /* \"#utility.yul\":672:677   */\n      dup2\n        /* \"#utility.yul\":645:678   */\n      tag_39\n      jump\t// in\n    tag_57:\n        /* \"#utility.yul\":545:684   */\n      swap3\n      swap2\n      pop\n      pop\n      jump\t// out\n        /* \"#utility.yul\":690:1164   */\n    tag_7:\n        /* \"#utility.yul\":758:764   */\n      0x00\n        /* \"#utility.yul\":766:772   */\n      dup1\n        /* \"#utility.yul\":815:817   */\n      0x40\n        /* \"#utility.yul\":803:812   */\n      dup4\n        /* \"#utility.yul\":794:801   */\n      dup6\n        /* \"#utility.yul\":790:813   */\n      sub\n        /* \"#utility.yul\":786:818   */\n      slt\n        /* \"#utility.yul\":783:902   */\n      iszero\n      tag_59\n      jumpi\n        /* \"#utility.yul\":821:900   */\n      tag_60\n      tag_36\n      jump\t// in\n    tag_60:\n        /* \"#utility.yul\":783:902   */\n    tag_59:\n        /* \"#utility.yul\":941:942   */\n      0x00\n        /* \"#utility.yul\":966:1019   */\n      tag_61\n        /* \"#utility.yul\":1011:1018   */\n      dup6\n        /* \"#utility.yul\":1002:1008   */\n      dup3\n        /* \"#utility.yul\":991:1000   */\n      dup7\n        /* \"#utility.yul\":987:1009   */\n      add\n        /* \"#utility.yul\":966:1019   */\n      tag_40\n      jump\t// in\n    tag_61:\n        /* \"#utility.yul\":956:1019   */\n      swap3\n      pop\n        /* \"#utility.yul\":912:1029   */\n      pop\n        /* \"#utility.yul\":1068:1070   */\n      0x20\n        /* \"#utility.yul\":1094:1147   */\n      tag_62\n        /* \"#utility.yul\":1139:1146   */\n      dup6\n        /* \"#utility.yul\":1130:1136   */\n      dup3\n        /* \"#utility.yul\":1119:1128   */\n      dup7\n        /* \"#utility.yul\":1115:1137   */\n      add\n        /* \"#utility.yul\":1094:1147   */\n      tag_40\n      jump\t// in\n    tag_62:\n        /* \"#utility.yul\":1084:1147   */\n      swap2\n      pop\n        /* \"#utility.yul\":1039:1157   */\n      pop\n        /* \"#utility.yul\":690:1164   */\n      swap3\n      pop\n      swap3\n      swap1\n      pop\n      jump\t// out\n        /* \"#utility.yul\":1170:1296   */\n    tag_41:\n        /* \"#utility.yul\":1265:1289   */\n      tag_64\n        /* \"#utility.yul\":1283:1288   */\n      dup2\n        /* \"#utility.yul\":1265:1289   */\n      tag_38\n      jump\t// in\n    tag_64:\n        /* \"#utility.yul\":1260:1263   */\n      dup3\n        /* \"#utility.yul\":1253:1290   */\n      mstore\n        /* \"#utility.yul\":1170:1296   */\n      pop\n      pop\n      jump\t// out\n        /* \"#utility.yul\":1302:1540   */\n    tag_10:\n        /* \"#utility.yul\":1403:1407   */\n      0x00\n        /* \"#utility.yul\":1441:1443   */\n      0x20\n        /* \"#utility.yul\":1430:1439   */\n      dup3\n        /* \"#utility.yul\":1426:1444   */\n      add\n        /* \"#utility.yul\":1418:1444   */\n      swap1\n      pop\n        /* \"#utility.yul\":1454:1533   */\n      tag_66\n        /* \"#utility.yul\":1530:1531   */\n      0x00\n        /* \"#utility.yul\":1519:1528   */\n      dup4\n        /* \"#utility.yul\":1515:1532   */\n      add\n        /* \"#utility.yul\":1506:1512   */\n      dup5\n        /* \"#utility.yul\":1454:1533   */\n      tag_41\n      jump\t// in\n    tag_66:\n        /* \"#utility.yul\":1302:1540   */\n      swap3\n      swap2\n      pop\n      pop\n      jump\t// out\n        /* \"#utility.yul\":1546:1726   */\n    tag_42:\n        /* \"#utility.yul\":1594:1671   */\n      0x4e487b7100000000000000000000000000000000000000000000000000000000\n        /* \"#utility.yul\":1591:1592   */\n      0x00\n        /* \"#utility.yul\":1584:1672   */\n      mstore\n        /* \"#utility.yul\":1691:1695   */\n      0x11\n        /* \"#utility.yul\":1688:1689   */\n      0x04\n        /* \"#utility.yul\":1681:1696   */\n      mstore\n        /* \"#utility.yul\":1715:1719   */\n      0x24\n        /* \"#utility.yul\":1712:1713   */\n      0x00\n        /* \"#utility.yul\":1705:1720   */\n      revert\n        /* \"#utility.yul\":1732:2037   */\n    tag_21:\n        /* \"#utility.yul\":1772:1775   */\n      0x00\n        /* \"#utility.yul\":1791:1811   */\n      tag_69\n        /* \"#utility.yul\":1809:1810   */\n      dup3\n        /* \"#utility.yul\":1791:1811   */\n      tag_38\n      jump\t// in\n    tag_69:\n        /* \"#utility.yul\":1786:1811   */\n      swap2\n      pop\n        /* \"#utility.yul\":1825:1845   */\n      tag_70\n        /* \"#utility.yul\":1843:1844   */\n      dup4\n        /* \"#utility.yul\":1825:1845   */\n      tag_38\n      jump\t// in\n    tag_70:\n        /* \"#utility.yul\":1820:1845   */\n      swap3\n      pop\n        /* \"#utility.yul\":1979:1980   */\n      dup3\n        /* \"#utility.yul\":1911:1977   */\n      0xffffffffffffffffffffffffffffffffffffffffffffffffffffffffffffffff\n        /* \"#utility.yul\":1907:1981   */\n      sub\n        /* \"#utility.yul\":1904:1905   */\n      dup3\n        /* \"#utility.yul\":1901:1982   */\n      gt\n        /* \"#utility.yul\":1898:2005   */\n      iszero\n      tag_71\n      jumpi\n        /* \"#utility.yul\":1985:2003   */\n      tag_72\n      tag_42\n      jump\t// in\n    tag_72:\n        /* \"#utility.yul\":1898:2005   */\n    tag_71:\n        /* \"#utility.yul\":2029:2030   */\n      dup3\n        /* \"#utility.yul\":2026:2027   */\n      dup3\n        /* \"#utility.yul\":2022:2031   */\n      add\n        /* \"#utility.yul\":2015:2031   */\n      swap1\n      pop\n        /* \"#utility.yul\":1732:2037   */\n      swap3\n      swap2\n      pop\n      pop\n      jump\t// out\n        /* \"#utility.yul\":2043:2212   */\n    tag_43:\n        /* \"#utility.yul\":2127:2138   */\n      0x00\n        /* \"#utility.yul\":2161:2167   */\n      dup3\n        /* \"#utility.yul\":2156:2159   */\n      dup3\n        /* \"#utility.yul\":2149:2168   */\n      mstore\n        /* \"#utility.yul\":2201:2205   */\n      0x20\n        /* \"#utility.yul\":2196:2199   */\n      dup3\n        /* \"#utility.yul\":2192:2206   */\n      add\n        /* \"#utility.yul\":2177:2206   */\n      swap1\n      pop\n        /* \"#utility.yul\":2043:2212   */\n      swap3\n      swap2\n      pop\n      pop\n      jump\t// out\n        /* \"#utility.yul\":2218:2511   */\n    tag_44:\n        /* \"#utility.yul\":2358:2392   */\n      0x4c696272617279206572726f723a20466972737420706172616d657465722073\n        /* \"#utility.yul\":2354:2355   */\n      0x00\n        /* \"#utility.yul\":2346:2352   */\n      dup3\n        /* \"#utility.yul\":2342:2356   */\n      add\n        /* \"#utility.yul\":2335:2393   */\n      mstore\n        /* \"#utility.yul\":2427:2461   */\n      0x686f756c64206265206c657373206f7220657175616c20746f20746865207365\n        /* \"#utility.yul\":2422:2424   */\n      0x20\n        /* \"#utility.yul\":2414:2420   */\n      dup3\n        /* \"#utility.yul\":2410:2425   */\n      add\n        /* \"#utility.yul\":2403:2462   */\n      mstore\n        /* \"#utility.yul\":2496:2503   */\n      0x636f6e642e000000000000000000000000000000000000000000000000000000\n        /* \"#utility.yul\":2491:2493   */\n      0x40\n        /* \"#utility.yul\":2483:2489   */\n      dup3\n        /* \"#utility.yul\":2479:2494   */\n      add\n        /* \"#utility.yul\":2472:2504   */\n      mstore\n        /* \"#utility.yul\":2218:2511   */\n      pop\n      jump\t// out\n        /* \"#utility.yul\":2517:2883   */\n    tag_45:\n        /* \"#utility.yul\":2659:2662   */\n      0x00\n        /* \"#utility.yul\":2680:2747   */\n      tag_76\n        /* \"#utility.yul\":2744:2746   */\n      0x45\n        /* \"#utility.yul\":2739:2742   */\n      dup4\n        /* \"#utility.yul\":2680:2747   */\n      tag_43\n      jump\t// in\n    tag_76:\n        /* \"#utility.yul\":2673:2747   */\n      swap2\n      pop\n        /* \"#utility.yul\":2756:2849   */\n      tag_77\n        /* \"#utility.yul\":2845:2848   */\n      dup3\n        /* \"#utility.yul\":2756:2849   */\n      tag_44\n      jump\t// in\n    tag_77:\n        /* \"#utility.yul\":2874:2876   */\n      0x60\n        /* \"#utility.yul\":2869:2872   */\n      dup3\n        /* \"#utility.yul\":2865:2877   */\n      add\n        /* \"#utility.yul\":2858:2877   */\n      swap1\n      pop\n        /* \"#utility.yul\":2517:2883   */\n      swap2\n      swap1\n      pop\n      jump\t// out\n        /* \"#utility.yul\":2889:3308   */\n    tag_25:\n        /* \"#utility.yul\":3055:3059   */\n      0x00\n        /* \"#utility.yul\":3093:3095   */\n      0x20\n        /* \"#utility.yul\":3082:3091   */\n      dup3\n        /* \"#utility.yul\":3078:3096   */\n      add\n        /* \"#utility.yul\":3070:3096   */\n      swap1\n      pop\n        /* \"#utility.yul\":3142:3151   */\n      dup2\n        /* \"#utility.yul\":3136:3140   */\n      dup2\n        /* \"#utility.yul\":3132:3152   */\n      sub\n        /* \"#utility.yul\":3128:3129   */\n      0x00\n        /* \"#utility.yul\":3117:3126   */\n      dup4\n        /* \"#utility.yul\":3113:3130   */\n      add\n        /* \"#utility.yul\":3106:3153   */\n      mstore\n        /* \"#utility.yul\":3170:3301   */\n      tag_79\n        /* \"#utility.yul\":3296:3300   */\n      dup2\n        /* \"#utility.yul\":3170:3301   */\n      tag_45\n      jump\t// in\n    tag_79:\n        /* \"#utility.yul\":3162:3301   */\n      swap1\n      pop\n        /* \"#utility.yul\":2889:3308   */\n      swap2\n      swap1\n      pop\n      jump\t// out\n        /* \"#utility.yul\":3314:3505   */\n    tag_27:\n        /* \"#utility.yul\":3354:3358   */\n      0x00\n        /* \"#utility.yul\":3374:3394   */\n      tag_81\n        /* \"#utility.yul\":3392:3393   */\n      dup3\n        /* \"#utility.yul\":3374:3394   */\n      tag_38\n      jump\t// in\n    tag_81:\n        /* \"#utility.yul\":3369:3394   */\n      swap2\n      pop\n        /* \"#utility.yul\":3408:3428   */\n      tag_82\n        /* \"#utility.yul\":3426:3427   */\n      dup4\n        /* \"#utility.yul\":3408:3428   */\n      tag_38\n      jump\t// in\n    tag_82:\n        /* \"#utility.yul\":3403:3428   */\n      swap3\n      pop\n        /* \"#utility.yul\":3447:3448   */\n      dup3\n        /* \"#utility.yul\":3444:3445   */\n      dup3\n        /* \"#utility.yul\":3441:3449   */\n      lt\n        /* \"#utility.yul\":3438:3472   */\n      iszero\n      tag_83\n      jumpi\n        /* \"#utility.yul\":3452:3470   */\n      tag_84\n      tag_42\n      jump\t// in\n    tag_84:\n        /* \"#utility.yul\":3438:3472   */\n    tag_83:\n        /* \"#utility.yul\":3497:3498   */\n      dup3\n        /* \"#utility.yul\":3494:3495   */\n      dup3\n        /* \"#utility.yul\":3490:3499   */\n      sub\n        /* \"#utility.yul\":3482:3499   */\n      swap1\n      pop\n        /* \"#utility.yul\":3314:3505   */\n      swap3\n      swap2\n      pop\n      pop\n      jump\t// out\n        /* \"#utility.yul\":3511:3859   */\n    tag_30:\n        /* \"#utility.yul\":3551:3558   */\n      0x00\n        /* \"#utility.yul\":3574:3594   */\n      tag_86\n        /* \"#utility.yul\":3592:3593   */\n      dup3\n        /* \"#utility.yul\":3574:3594   */\n      tag_38\n      jump\t// in\n    tag_86:\n        /* \"#utility.yul\":3569:3594   */\n      swap2\n      pop\n        /* \"#utility.yul\":3608:3628   */\n      tag_87\n        /* \"#utility.yul\":3626:3627   */\n      dup4\n        /* \"#utility.yul\":3608:3628   */\n      tag_38\n      jump\t// in\n    tag_87:\n        /* \"#utility.yul\":3603:3628   */\n      swap3\n      pop\n        /* \"#utility.yul\":3796:3797   */\n      dup2\n        /* \"#utility.yul\":3728:3794   */\n      0xffffffffffffffffffffffffffffffffffffffffffffffffffffffffffffffff\n        /* \"#utility.yul\":3724:3798   */\n      div\n        /* \"#utility.yul\":3721:3722   */\n      dup4\n        /* \"#utility.yul\":3718:3799   */\n      gt\n        /* \"#utility.yul\":3713:3714   */\n      dup3\n        /* \"#utility.yul\":3706:3715   */\n      iszero\n        /* \"#utility.yul\":3699:3716   */\n      iszero\n        /* \"#utility.yul\":3695:3800   */\n      and\n        /* \"#utility.yul\":3692:3823   */\n      iszero\n      tag_88\n      jumpi\n        /* \"#utility.yul\":3803:3821   */\n      tag_89\n      tag_42\n      jump\t// in\n    tag_89:\n        /* \"#utility.yul\":3692:3823   */\n    tag_88:\n        /* \"#utility.yul\":3851:3852   */\n      dup3\n        /* \"#utility.yul\":3848:3849   */\n      dup3\n        /* \"#utility.yul\":3844:3853   */\n      mul\n        /* \"#utility.yul\":3833:3853   */\n      swap1\n      pop\n        /* \"#utility.yul\":3511:3859   */\n      swap3\n      swap2\n      pop\n      pop\n      jump\t// out\n        /* \"#utility.yul\":3865:4045   */\n    tag_46:\n        /* \"#utility.yul\":4005:4037   */\n      0x4c696272617279204572726f722c204e756d626572206f766572666c6f770000\n        /* \"#utility.yul\":4001:4002   */\n      0x00\n        /* \"#utility.yul\":3993:3999   */\n      dup3\n        /* \"#utility.yul\":3989:4003   */\n      add\n        /* \"#utility.yul\":3982:4038   */\n      mstore\n        /* \"#utility.yul\":3865:4045   */\n      pop\n      jump\t// out\n        /* \"#utility.yul\":4051:4417   */\n    tag_47:\n        /* \"#utility.yul\":4193:4196   */\n      0x00\n        /* \"#utility.yul\":4214:4281   */\n      tag_92\n        /* \"#utility.yul\":4278:4280   */\n      0x1e\n        /* \"#utility.yul\":4273:4276   */\n      dup4\n        /* \"#utility.yul\":4214:4281   */\n      tag_43\n      jump\t// in\n    tag_92:\n        /* \"#utility.yul\":4207:4281   */\n      swap2\n      pop\n        /* \"#utility.yul\":4290:4383   */\n      tag_93\n        /* \"#utility.yul\":4379:4382   */\n      dup3\n        /* \"#utility.yul\":4290:4383   */\n      tag_46\n      jump\t// in\n    tag_93:\n        /* \"#utility.yul\":4408:4410   */\n      0x20\n        /* \"#utility.yul\":4403:4406   */\n      dup3\n        /* \"#utility.yul\":4399:4411   */\n      add\n        /* \"#utility.yul\":4392:4411   */\n      swap1\n      pop\n        /* \"#utility.yul\":4051:4417   */\n      swap2\n      swap1\n      pop\n      jump\t// out\n        /* \"#utility.yul\":4423:4842   */\n    tag_33:\n        /* \"#utility.yul\":4589:4593   */\n      0x00\n        /* \"#utility.yul\":4627:4629   */\n      0x20\n        /* \"#utility.yul\":4616:4625   */\n      dup3\n        /* \"#utility.yul\":4612:4630   */\n      add\n        /* \"#utility.yul\":4604:4630   */\n      swap1\n      pop\n        /* \"#utility.yul\":4676:4685   */\n      dup2\n        /* \"#utility.yul\":4670:4674   */\n      dup2\n        /* \"#utility.yul\":4666:4686   */\n      sub\n        /* \"#utility.yul\":4662:4663   */\n      0x00\n        /* \"#utility.yul\":4651:4660   */\n      dup4\n        /* \"#utility.yul\":4647:4664   */\n      add\n        /* \"#utility.yul\":4640:4687   */\n      mstore\n        /* \"#utility.yul\":4704:4835   */\n      tag_95\n        /* \"#utility.yul\":4830:4834   */\n      dup2\n        /* \"#utility.yul\":4704:4835   */\n      tag_47\n      jump\t// in\n    tag_95:\n        /* \"#utility.yul\":4696:4835   */\n      swap1\n      pop\n        /* \"#utility.yul\":4423:4842   */\n      swap2\n      swap1\n      pop\n      jump\t// out\n\n    auxdata: 0xa2646970667358221220b8fab21f2fe926bb0525c981f17ae4a362befd11d2df5514bc714b5fdcd66d0264736f6c634300080d0033\n}\n",
				"bytecode": {
					"linkReferences": {},
					"object": "610507610053600b82828239805160001a607314610046577f4e487b7100000000000000000000000000000000000000000000000000000000600052600060045260246000fd5b30600052607381538281f3fe730000000000000000000000000000000000000000301460806040526004361061004b5760003560e01c8063771602f714610050578063b67d77c514610080578063c8a4ac9c146100b0575b600080fd5b61006a6004803603810190610065919061021f565b6100e0565b604051610077919061026e565b60405180910390f35b61009a6004803603810190610095919061021f565b6100fb565b6040516100a7919061026e565b60405180910390f35b6100ca60048036038101906100c5919061021f565b61015a565b6040516100d7919061026e565b60405180910390f35b60008082846100ef91906102b8565b90508091505092915050565b600082821015610140576040517f08c379a0000000000000000000000000000000000000000000000000000000008152600401610137906103b7565b60405180910390fd5b6000838361014e91906103d7565b90508091505092915050565b60007fffffffffffffffffffffffffffffffffffffffffffffffffffffffffffffffff8284610189919061040b565b11156101ca576040517f08c379a00000000000000000000000000000000000000000000000000000000081526004016101c1906104b1565b60405180910390fd5b600082846101d8919061040b565b90508091505092915050565b600080fd5b6000819050919050565b6101fc816101e9565b811461020757600080fd5b50565b600081359050610219816101f3565b92915050565b60008060408385031215610236576102356101e4565b5b60006102448582860161020a565b92505060206102558582860161020a565b9150509250929050565b610268816101e9565b82525050565b6000602082019050610283600083018461025f565b92915050565b7f4e487b7100000000000000000000000000000000000000000000000000000000600052601160045260246000fd5b60006102c3826101e9565b91506102ce836101e9565b9250827fffffffffffffffffffffffffffffffffffffffffffffffffffffffffffffffff0382111561030357610302610289565b5b828201905092915050565b600082825260208201905092915050565b7f4c696272617279206572726f723a20466972737420706172616d65746572207360008201527f686f756c64206265206c657373206f7220657175616c20746f2074686520736560208201527f636f6e642e000000000000000000000000000000000000000000000000000000604082015250565b60006103a160458361030e565b91506103ac8261031f565b606082019050919050565b600060208201905081810360008301526103d081610394565b9050919050565b60006103e2826101e9565b91506103ed836101e9565b925082821015610400576103ff610289565b5b828203905092915050565b6000610416826101e9565b9150610421836101e9565b9250817fffffffffffffffffffffffffffffffffffffffffffffffffffffffffffffffff048311821515161561045a57610459610289565b5b828202905092915050565b7f4c696272617279204572726f722c204e756d626572206f766572666c6f770000600082015250565b600061049b601e8361030e565b91506104a682610465565b602082019050919050565b600060208201905081810360008301526104ca8161048e565b905091905056fea2646970667358221220b8fab21f2fe926bb0525c981f17ae4a362befd11d2df5514bc714b5fdcd66d0264736f6c634300080d0033",
					"opcodes": "PUSH2 0x507 PUSH2 0x53 PUSH1 0xB DUP3 DUP3 DUP3 CODECOPY DUP1 MLOAD PUSH1 0x0 BYTE PUSH1 0x73 EQ PUSH2 0x46 JUMPI PUSH32 0x4E487B7100000000000000000000000000000000000000000000000000000000 PUSH1 0x0 MSTORE PUSH1 0x0 PUSH1 0x4 MSTORE PUSH1 0x24 PUSH1 0x0 REVERT JUMPDEST ADDRESS PUSH1 0x0 MSTORE PUSH1 0x73 DUP2 MSTORE8 DUP3 DUP2 RETURN INVALID PUSH20 0x0 ADDRESS EQ PUSH1 0x80 PUSH1 0x40 MSTORE PUSH1 0x4 CALLDATASIZE LT PUSH2 0x4B JUMPI PUSH1 0x0 CALLDATALOAD PUSH1 0xE0 SHR DUP1 PUSH4 0x771602F7 EQ PUSH2 0x50 JUMPI DUP1 PUSH4 0xB67D77C5 EQ PUSH2 0x80 JUMPI DUP1 PUSH4 0xC8A4AC9C EQ PUSH2 0xB0 JUMPI JUMPDEST PUSH1 0x0 DUP1 REVERT JUMPDEST PUSH2 0x6A PUSH1 0x4 DUP1 CALLDATASIZE SUB DUP2 ADD SWAP1 PUSH2 0x65 SWAP2 SWAP1 PUSH2 0x21F JUMP JUMPDEST PUSH2 0xE0 JUMP JUMPDEST PUSH1 0x40 MLOAD PUSH2 0x77 SWAP2 SWAP1 PUSH2 0x26E JUMP JUMPDEST PUSH1 0x40 MLOAD DUP1 SWAP2 SUB SWAP1 RETURN JUMPDEST PUSH2 0x9A PUSH1 0x4 DUP1 CALLDATASIZE SUB DUP2 ADD SWAP1 PUSH2 0x95 SWAP2 SWAP1 PUSH2 0x21F JUMP JUMPDEST PUSH2 0xFB JUMP JUMPDEST PUSH1 0x40 MLOAD PUSH2 0xA7 SWAP2 SWAP1 PUSH2 0x26E JUMP JUMPDEST PUSH1 0x40 MLOAD DUP1 SWAP2 SUB SWAP1 RETURN JUMPDEST PUSH2 0xCA PUSH1 0x4 DUP1 CALLDATASIZE SUB DUP2 ADD SWAP1 PUSH2 0xC5 SWAP2 SWAP1 PUSH2 0x21F JUMP JUMPDEST PUSH2 0x15A JUMP JUMPDEST PUSH1 0x40 MLOAD PUSH2 0xD7 SWAP2 SWAP1 PUSH2 0x26E JUMP JUMPDEST PUSH1 0x40 MLOAD DUP1 SWAP2 SUB SWAP1 RETURN JUMPDEST PUSH1 0x0 DUP1 DUP3 DUP5 PUSH2 0xEF SWAP2 SWAP1 PUSH2 0x2B8 JUMP JUMPDEST SWAP1 POP DUP1 SWAP2 POP POP SWAP3 SWAP2 POP POP JUMP JUMPDEST PUSH1 0x0 DUP3 DUP3 LT ISZERO PUSH2 0x140 JUMPI PUSH1 0x40 MLOAD PUSH32 0x8C379A000000000000000000000000000000000000000000000000000000000 DUP2 MSTORE PUSH1 0x4 ADD PUSH2 0x137 SWAP1 PUSH2 0x3B7 JUMP JUMPDEST PUSH1 0x40 MLOAD DUP1 SWAP2 SUB SWAP1 REVERT JUMPDEST PUSH1 0x0 DUP4 DUP4 PUSH2 0x14E SWAP2 SWAP1 PUSH2 0x3D7 JUMP JUMPDEST SWAP1 POP DUP1 SWAP2 POP POP SWAP3 SWAP2 POP POP JUMP JUMPDEST PUSH1 0x0 PUSH32 0xFFFFFFFFFFFFFFFFFFFFFFFFFFFFFFFFFFFFFFFFFFFFFFFFFFFFFFFFFFFFFFFF DUP3 DUP5 PUSH2 0x189 SWAP2 SWAP1 PUSH2 0x40B JUMP JUMPDEST GT ISZERO PUSH2 0x1CA JUMPI PUSH1 0x40 MLOAD PUSH32 0x8C379A000000000000000000000000000000000000000000000000000000000 DUP2 MSTORE PUSH1 0x4 ADD PUSH2 0x1C1 SWAP1 PUSH2 0x4B1 JUMP JUMPDEST PUSH1 0x40 MLOAD DUP1 SWAP2 SUB SWAP1 REVERT JUMPDEST PUSH1 0x0 DUP3 DUP5 PUSH2 0x1D8 SWAP2 SWAP1 PUSH2 0x40B JUMP JUMPDEST SWAP1 POP DUP1 SWAP2 POP POP SWAP3 SWAP2 POP POP JUMP JUMPDEST PUSH1 0x0 DUP1 REVERT JUMPDEST PUSH1 0x0 DUP2 SWAP1 POP SWAP2 SWAP1 POP JUMP JUMPDEST PUSH2 0x1FC DUP2 PUSH2 0x1E9 JUMP JUMPDEST DUP2 EQ PUSH2 0x207 JUMPI PUSH1 0x0 DUP1 REVERT JUMPDEST POP JUMP JUMPDEST PUSH1 0x0 DUP2 CALLDATALOAD SWAP1 POP PUSH2 0x219 DUP2 PUSH2 0x1F3 JUMP JUMPDEST SWAP3 SWAP2 POP POP JUMP JUMPDEST PUSH1 0x0 DUP1 PUSH1 0x40 DUP4 DUP6 SUB SLT ISZERO PUSH2 0x236 JUMPI PUSH2 0x235 PUSH2 0x1E4 JUMP JUMPDEST JUMPDEST PUSH1 0x0 PUSH2 0x244 DUP6 DUP3 DUP7 ADD PUSH2 0x20A JUMP JUMPDEST SWAP3 POP POP PUSH1 0x20 PUSH2 0x255 DUP6 DUP3 DUP7 ADD PUSH2 0x20A JUMP JUMPDEST SWAP2 POP POP SWAP3 POP SWAP3 SWAP1 POP JUMP JUMPDEST PUSH2 0x268 DUP2 PUSH2 0x1E9 JUMP JUMPDEST DUP3 MSTORE POP POP JUMP JUMPDEST PUSH1 0x0 PUSH1 0x20 DUP3 ADD SWAP1 POP PUSH2 0x283 PUSH1 0x0 DUP4 ADD DUP5 PUSH2 0x25F JUMP JUMPDEST SWAP3 SWAP2 POP POP JUMP JUMPDEST PUSH32 0x4E487B7100000000000000000000000000000000000000000000000000000000 PUSH1 0x0 MSTORE PUSH1 0x11 PUSH1 0x4 MSTORE PUSH1 0x24 PUSH1 0x0 REVERT JUMPDEST PUSH1 0x0 PUSH2 0x2C3 DUP3 PUSH2 0x1E9 JUMP JUMPDEST SWAP2 POP PUSH2 0x2CE DUP4 PUSH2 0x1E9 JUMP JUMPDEST SWAP3 POP DUP3 PUSH32 0xFFFFFFFFFFFFFFFFFFFFFFFFFFFFFFFFFFFFFFFFFFFFFFFFFFFFFFFFFFFFFFFF SUB DUP3 GT ISZERO PUSH2 0x303 JUMPI PUSH2 0x302 PUSH2 0x289 JUMP JUMPDEST JUMPDEST DUP3 DUP3 ADD SWAP1 POP SWAP3 SWAP2 POP POP JUMP JUMPDEST PUSH1 0x0 DUP3 DUP3 MSTORE PUSH1 0x20 DUP3 ADD SWAP1 POP SWAP3 SWAP2 POP POP JUMP JUMPDEST PUSH32 0x4C696272617279206572726F723A20466972737420706172616D657465722073 PUSH1 0x0 DUP3 ADD MSTORE PUSH32 0x686F756C64206265206C657373206F7220657175616C20746F20746865207365 PUSH1 0x20 DUP3 ADD MSTORE PUSH32 0x636F6E642E000000000000000000000000000000000000000000000000000000 PUSH1 0x40 DUP3 ADD MSTORE POP JUMP JUMPDEST PUSH1 0x0 PUSH2 0x3A1 PUSH1 0x45 DUP4 PUSH2 0x30E JUMP JUMPDEST SWAP2 POP PUSH2 0x3AC DUP3 PUSH2 0x31F JUMP JUMPDEST PUSH1 0x60 DUP3 ADD SWAP1 POP SWAP2 SWAP1 POP JUMP JUMPDEST PUSH1 0x0 PUSH1 0x20 DUP3 ADD SWAP1 POP DUP2 DUP2 SUB PUSH1 0x0 DUP4 ADD MSTORE PUSH2 0x3D0 DUP2 PUSH2 0x394 JUMP JUMPDEST SWAP1 POP SWAP2 SWAP1 POP JUMP JUMPDEST PUSH1 0x0 PUSH2 0x3E2 DUP3 PUSH2 0x1E9 JUMP JUMPDEST SWAP2 POP PUSH2 0x3ED DUP4 PUSH2 0x1E9 JUMP JUMPDEST SWAP3 POP DUP3 DUP3 LT ISZERO PUSH2 0x400 JUMPI PUSH2 0x3FF PUSH2 0x289 JUMP JUMPDEST JUMPDEST DUP3 DUP3 SUB SWAP1 POP SWAP3 SWAP2 POP POP JUMP JUMPDEST PUSH1 0x0 PUSH2 0x416 DUP3 PUSH2 0x1E9 JUMP JUMPDEST SWAP2 POP PUSH2 0x421 DUP4 PUSH2 0x1E9 JUMP JUMPDEST SWAP3 POP DUP2 PUSH32 0xFFFFFFFFFFFFFFFFFFFFFFFFFFFFFFFFFFFFFFFFFFFFFFFFFFFFFFFFFFFFFFFF DIV DUP4 GT DUP3 ISZERO ISZERO AND ISZERO PUSH2 0x45A JUMPI PUSH2 0x459 PUSH2 0x289 JUMP JUMPDEST JUMPDEST DUP3 DUP3 MUL SWAP1 POP SWAP3 SWAP2 POP POP JUMP JUMPDEST PUSH32 0x4C696272617279204572726F722C204E756D626572206F766572666C6F770000 PUSH1 0x0 DUP3 ADD MSTORE POP JUMP JUMPDEST PUSH1 0x0 PUSH2 0x49B PUSH1 0x1E DUP4 PUSH2 0x30E JUMP JUMPDEST SWAP2 POP PUSH2 0x4A6 DUP3 PUSH2 0x465 JUMP JUMPDEST PUSH1 0x20 DUP3 ADD SWAP1 POP SWAP2 SWAP1 POP JUMP JUMPDEST PUSH1 0x0 PUSH1 0x20 DUP3 ADD SWAP1 POP DUP2 DUP2 SUB PUSH1 0x0 DUP4 ADD MSTORE PUSH2 0x4CA DUP2 PUSH2 0x48E JUMP JUMPDEST SWAP1 POP SWAP2 SWAP1 POP JUMP INVALID LOG2 PUSH5 0x6970667358 0x22 SLT KECCAK256 0xB8 STATICCALL 0xB2 0x1F 0x2F 0xE9 0x26 0xBB SDIV 0x25 0xC9 DUP2 CALL PUSH27 0xE4A362BEFD11D2DF5514BC714B5FDCD66D0264736F6C634300080D STOP CALLER "
				},
				"gasEstimates": {
					"creation": {
						"codeDepositCost": "257400",
						"executionCost": "325",
						"totalCost": "257725"
					},
					"external": {
						"add(uint256,uint256)": "infinite",
						"mul(uint256,uint256)": "infinite",
						"sub(uint256,uint256)": "infinite"
					}
				},
				"methodIdentifiers": {
					"add(uint256,uint256)": "771602f7",
					"mul(uint256,uint256)": "c8a4ac9c",
					"sub(uint256,uint256)": "b67d77c5"
				}
			},
			"userdoc": {
				"kind": "user",
				"methods": {},
				"version": 1
			}
		}
	}
}