{
	"libraries/operators.sol": {
		"operations": {
			"abi": [
				{
					"inputs": [
						{
							"internalType": "uint256",
							"name": "a",
							"type": "uint256"
						},
						{
							"internalType": "uint256",
							"name": "b",
							"type": "uint256"
						}
					],
					"name": "add",
					"outputs": [
						{
							"internalType": "uint256",
							"name": "",
							"type": "uint256"
						}
					],
					"stateMutability": "pure",
					"type": "function"
				},
				{
					"inputs": [
						{
							"internalType": "uint256",
							"name": "a",
							"type": "uint256"
						},
						{
							"internalType": "uint256",
							"name": "b",
							"type": "uint256"
						}
					],
					"name": "div",
					"outputs": [
						{
							"internalType": "uint256",
							"name": "",
							"type": "uint256"
						}
					],
					"stateMutability": "pure",
					"type": "function"
				},
				{
					"inputs": [
						{
							"internalType": "uint256",
							"name": "a",
							"type": "uint256"
						},
						{
							"internalType": "uint256",
							"name": "b",
							"type": "uint256"
						}
					],
					"name": "mul",
					"outputs": [
						{
							"internalType": "uint256",
							"name": "",
							"type": "uint256"
						}
					],
					"stateMutability": "pure",
					"type": "function"
				},
				{
					"inputs": [
						{
							"internalType": "uint256",
							"name": "a",
							"type": "uint256"
						},
						{
							"internalType": "uint256",
							"name": "b",
							"type": "uint256"
						}
					],
					"name": "sub",
					"outputs": [
						{
							"internalType": "uint256",
							"name": "",
							"type": "uint256"
						}
					],
					"stateMutability": "pure",
					"type": "function"
				}
			],
			"devdoc": {
				"kind": "dev",
				"methods": {},
				"version": 1
			},
			"evm": {
				"assembly": "    /* \"libraries/operators.sol\":76:765  library operations... */\n  dataSize(sub_0)\n  dataOffset(sub_0)\n  0x0b\n  dup3\n  dup3\n  dup3\n  codecopy\n  dup1\n  mload\n  0x00\n  byte\n  0x73\n  eq\n  tag_1\n  jumpi\n  mstore(0x00, 0x4e487b7100000000000000000000000000000000000000000000000000000000)\n  mstore(0x04, 0x00)\n  revert(0x00, 0x24)\ntag_1:\n  mstore(0x00, address)\n  0x73\n  dup2\n  mstore8\n  dup3\n  dup2\n  return\nstop\n\nsub_0: assembly {\n        /* \"libraries/operators.sol\":76:765  library operations... */\n      eq(address, deployTimeAddress())\n      mstore(0x40, 0x80)\n      jumpi(tag_1, lt(calldatasize, 0x04))\n      shr(0xe0, calldataload(0x00))\n      dup1\n      0x771602f7\n      eq\n      tag_2\n      jumpi\n      dup1\n      0xa391c15b\n      eq\n      tag_3\n      jumpi\n      dup1\n      0xb67d77c5\n      eq\n      tag_4\n      jumpi\n      dup1\n      0xc8a4ac9c\n      eq\n      tag_5\n      jumpi\n    tag_1:\n      0x00\n      dup1\n      revert\n        /* \"libraries/operators.sol\":103:223  function add(uint a, uint b) public pure returns(uint)... */\n    tag_2:\n      tag_6\n      0x04\n      dup1\n      calldatasize\n      sub\n      dup2\n      add\n      swap1\n      tag_7\n      swap2\n      swap1\n      tag_8\n      jump\t// in\n    tag_7:\n      tag_9\n      jump\t// in\n    tag_6:\n      mload(0x40)\n      tag_10\n      swap2\n      swap1\n      tag_11\n      jump\t// in\n    tag_10:\n      mload(0x40)\n      dup1\n      swap2\n      sub\n      swap1\n      return\n        /* \"libraries/operators.sol\":664:762  function div(uint a, uint b) public pure returns(uint)... */\n    tag_3:\n      tag_12\n      0x04\n      dup1\n      calldatasize\n      sub\n      dup2\n      add\n      swap1\n      tag_13\n      swap2\n      swap1\n      tag_8\n      jump\t// in\n    tag_13:\n      tag_14\n      jump\t// in\n    tag_12:\n      mload(0x40)\n      tag_15\n      swap2\n      swap1\n      tag_11\n      jump\t// in\n    tag_15:\n      mload(0x40)\n      dup1\n      swap2\n      sub\n      swap1\n      return\n        /* \"libraries/operators.sol\":231:448  function sub(uint a, uint b) public pure returns(uint)... */\n    tag_4:\n      tag_16\n      0x04\n      dup1\n      calldatasize\n      sub\n      dup2\n      add\n      swap1\n      tag_17\n      swap2\n      swap1\n      tag_8\n      jump\t// in\n    tag_17:\n      tag_18\n      jump\t// in\n    tag_16:\n      mload(0x40)\n      tag_19\n      swap2\n      swap1\n      tag_11\n      jump\t// in\n    tag_19:\n      mload(0x40)\n      dup1\n      swap2\n      sub\n      swap1\n      return\n        /* \"libraries/operators.sol\":456:656  function mul(uint a, uint b) public pure returns(uint)... */\n    tag_5:\n      tag_20\n      0x04\n      dup1\n      calldatasize\n      sub\n      dup2\n      add\n      swap1\n      tag_21\n      swap2\n      swap1\n      tag_8\n      jump\t// in\n    tag_21:\n      tag_22\n      jump\t// in\n    tag_20:\n      mload(0x40)\n      tag_23\n      swap2\n      swap1\n      tag_11\n      jump\t// in\n    tag_23:\n      mload(0x40)\n      dup1\n      swap2\n      sub\n      swap1\n      return\n        /* \"libraries/operators.sol\":103:223  function add(uint a, uint b) public pure returns(uint)... */\n    tag_9:\n        /* \"libraries/operators.sol\":152:156  uint */\n      0x00\n        /* \"libraries/operators.sol\":174:184  uint total */\n      dup1\n        /* \"libraries/operators.sol\":191:192  b */\n      dup3\n        /* \"libraries/operators.sol\":187:188  a */\n      dup5\n        /* \"libraries/operators.sol\":187:192  a + b */\n      tag_25\n      swap2\n      swap1\n      tag_26\n      jump\t// in\n    tag_25:\n        /* \"libraries/operators.sol\":174:192  uint total = a + b */\n      swap1\n      pop\n        /* \"libraries/operators.sol\":210:215  total */\n      dup1\n        /* \"libraries/operators.sol\":203:215  return total */\n      swap2\n      pop\n      pop\n        /* \"libraries/operators.sol\":103:223  function add(uint a, uint b) public pure returns(uint)... */\n      swap3\n      swap2\n      pop\n      pop\n      jump\t// out\n        /* \"libraries/operators.sol\":664:762  function div(uint a, uint b) public pure returns(uint)... */\n    tag_14:\n        /* \"libraries/operators.sol\":713:717  uint */\n      0x00\n        /* \"libraries/operators.sol\":748:749  b */\n      dup2\n        /* \"libraries/operators.sol\":743:744  a */\n      dup4\n        /* \"libraries/operators.sol\":743:749  a >= b */\n      lt\n      iszero\n        /* \"libraries/operators.sol\":735:754  require(a >= b, \"\") */\n      tag_28\n      jumpi\n      mload(0x40)\n      0x08c379a000000000000000000000000000000000000000000000000000000000\n      dup2\n      mstore\n      0x04\n      add\n      tag_29\n      swap1\n      tag_30\n      jump\t// in\n    tag_29:\n      mload(0x40)\n      dup1\n      swap2\n      sub\n      swap1\n      revert\n    tag_28:\n        /* \"libraries/operators.sol\":664:762  function div(uint a, uint b) public pure returns(uint)... */\n      swap3\n      swap2\n      pop\n      pop\n      jump\t// out\n        /* \"libraries/operators.sol\":231:448  function sub(uint a, uint b) public pure returns(uint)... */\n    tag_18:\n        /* \"libraries/operators.sol\":280:284  uint */\n      0x00\n        /* \"libraries/operators.sol\":315:316  b */\n      dup2\n        /* \"libraries/operators.sol\":310:311  a */\n      dup4\n        /* \"libraries/operators.sol\":310:316  a >= b */\n      lt\n      iszero\n        /* \"libraries/operators.sol\":302:390  require(a >= b, \"Library error: Second parameter should be less or equal to the first.\") */\n      tag_32\n      jumpi\n      mload(0x40)\n      0x08c379a000000000000000000000000000000000000000000000000000000000\n      dup2\n      mstore\n      0x04\n      add\n      tag_33\n      swap1\n      tag_34\n      jump\t// in\n    tag_33:\n      mload(0x40)\n      dup1\n      swap2\n      sub\n      swap1\n      revert\n    tag_32:\n        /* \"libraries/operators.sol\":401:410  uint left */\n      0x00\n        /* \"libraries/operators.sol\":417:418  b */\n      dup3\n        /* \"libraries/operators.sol\":413:414  a */\n      dup5\n        /* \"libraries/operators.sol\":413:418  a - b */\n      tag_35\n      swap2\n      swap1\n      tag_36\n      jump\t// in\n    tag_35:\n        /* \"libraries/operators.sol\":401:418  uint left = a - b */\n      swap1\n      pop\n        /* \"libraries/operators.sol\":436:440  left */\n      dup1\n        /* \"libraries/operators.sol\":429:440  return left */\n      swap2\n      pop\n      pop\n        /* \"libraries/operators.sol\":231:448  function sub(uint a, uint b) public pure returns(uint)... */\n      swap3\n      swap2\n      pop\n      pop\n      jump\t// out\n        /* \"libraries/operators.sol\":456:656  function mul(uint a, uint b) public pure returns(uint)... */\n    tag_22:\n        /* \"libraries/operators.sol\":505:509  uint */\n      0x00\n        /* \"libraries/operators.sol\":547:561  (2 ** 256) - 1 */\n      0xffffffffffffffffffffffffffffffffffffffffffffffffffffffffffffffff\n        /* \"libraries/operators.sol\":540:541  b */\n      dup3\n        /* \"libraries/operators.sol\":536:537  a */\n      dup5\n        /* \"libraries/operators.sol\":536:541  a * b */\n      tag_38\n      swap2\n      swap1\n      tag_39\n      jump\t// in\n    tag_38:\n        /* \"libraries/operators.sol\":535:562  (a * b) <= ((2 ** 256) - 1) */\n      gt\n      iszero\n        /* \"libraries/operators.sol\":527:598  require((a * b) <= ((2 ** 256) - 1), \"Library Error, Number overflow.\") */\n      tag_40\n      jumpi\n      mload(0x40)\n      0x08c379a000000000000000000000000000000000000000000000000000000000\n      dup2\n      mstore\n      0x04\n      add\n      tag_41\n      swap1\n      tag_42\n      jump\t// in\n    tag_41:\n      mload(0x40)\n      dup1\n      swap2\n      sub\n      swap1\n      revert\n    tag_40:\n        /* \"libraries/operators.sol\":609:618  uint prod */\n      0x00\n        /* \"libraries/operators.sol\":625:626  b */\n      dup3\n        /* \"libraries/operators.sol\":621:622  a */\n      dup5\n        /* \"libraries/operators.sol\":621:626  a * b */\n      tag_43\n      swap2\n      swap1\n      tag_39\n      jump\t// in\n    tag_43:\n        /* \"libraries/operators.sol\":609:626  uint prod = a * b */\n      swap1\n      pop\n        /* \"libraries/operators.sol\":644:648  prod */\n      dup1\n        /* \"libraries/operators.sol\":637:648  return prod */\n      swap2\n      pop\n      pop\n        /* \"libraries/operators.sol\":456:656  function mul(uint a, uint b) public pure returns(uint)... */\n      swap3\n      swap2\n      pop\n      pop\n      jump\t// out\n        /* \"#utility.yul\":88:205   */\n    tag_45:\n        /* \"#utility.yul\":197:198   */\n      0x00\n        /* \"#utility.yul\":194:195   */\n      dup1\n        /* \"#utility.yul\":187:199   */\n      revert\n        /* \"#utility.yul\":334:411   */\n    tag_47:\n        /* \"#utility.yul\":371:378   */\n      0x00\n        /* \"#utility.yul\":400:405   */\n      dup2\n        /* \"#utility.yul\":389:405   */\n      swap1\n      pop\n        /* \"#utility.yul\":334:411   */\n      swap2\n      swap1\n      pop\n      jump\t// out\n        /* \"#utility.yul\":417:539   */\n    tag_48:\n        /* \"#utility.yul\":490:514   */\n      tag_65\n        /* \"#utility.yul\":508:513   */\n      dup2\n        /* \"#utility.yul\":490:514   */\n      tag_47\n      jump\t// in\n    tag_65:\n        /* \"#utility.yul\":483:488   */\n      dup2\n        /* \"#utility.yul\":480:515   */\n      eq\n        /* \"#utility.yul\":470:533   */\n      tag_66\n      jumpi\n        /* \"#utility.yul\":529:530   */\n      0x00\n        /* \"#utility.yul\":526:527   */\n      dup1\n        /* \"#utility.yul\":519:531   */\n      revert\n        /* \"#utility.yul\":470:533   */\n    tag_66:\n        /* \"#utility.yul\":417:539   */\n      pop\n      jump\t// out\n        /* \"#utility.yul\":545:684   */\n    tag_49:\n        /* \"#utility.yul\":591:596   */\n      0x00\n        /* \"#utility.yul\":629:635   */\n      dup2\n        /* \"#utility.yul\":616:636   */\n      calldataload\n        /* \"#utility.yul\":607:636   */\n      swap1\n      pop\n        /* \"#utility.yul\":645:678   */\n      tag_68\n        /* \"#utility.yul\":672:677   */\n      dup2\n        /* \"#utility.yul\":645:678   */\n      tag_48\n      jump\t// in\n    tag_68:\n        /* \"#utility.yul\":545:684   */\n      swap3\n      swap2\n      pop\n      pop\n      jump\t// out\n        /* \"#utility.yul\":690:1164   */\n    tag_8:\n        /* \"#utility.yul\":758:764   */\n      0x00\n        /* \"#utility.yul\":766:772   */\n      dup1\n        /* \"#utility.yul\":815:817   */\n      0x40\n        /* \"#utility.yul\":803:812   */\n      dup4\n        /* \"#utility.yul\":794:801   */\n      dup6\n        /* \"#utility.yul\":790:813   */\n      sub\n        /* \"#utility.yul\":786:818   */\n      slt\n        /* \"#utility.yul\":783:902   */\n      iszero\n      tag_70\n      jumpi\n        /* \"#utility.yul\":821:900   */\n      tag_71\n      tag_45\n      jump\t// in\n    tag_71:\n        /* \"#utility.yul\":783:902   */\n    tag_70:\n        /* \"#utility.yul\":941:942   */\n      0x00\n        /* \"#utility.yul\":966:1019   */\n      tag_72\n        /* \"#utility.yul\":1011:1018   */\n      dup6\n        /* \"#utility.yul\":1002:1008   */\n      dup3\n        /* \"#utility.yul\":991:1000   */\n      dup7\n        /* \"#utility.yul\":987:1009   */\n      add\n        /* \"#utility.yul\":966:1019   */\n      tag_49\n      jump\t// in\n    tag_72:\n        /* \"#utility.yul\":956:1019   */\n      swap3\n      pop\n        /* \"#utility.yul\":912:1029   */\n      pop\n        /* \"#utility.yul\":1068:1070   */\n      0x20\n        /* \"#utility.yul\":1094:1147   */\n      tag_73\n        /* \"#utility.yul\":1139:1146   */\n      dup6\n        /* \"#utility.yul\":1130:1136   */\n      dup3\n        /* \"#utility.yul\":1119:1128   */\n      dup7\n        /* \"#utility.yul\":1115:1137   */\n      add\n        /* \"#utility.yul\":1094:1147   */\n      tag_49\n      jump\t// in\n    tag_73:\n        /* \"#utility.yul\":1084:1147   */\n      swap2\n      pop\n        /* \"#utility.yul\":1039:1157   */\n      pop\n        /* \"#utility.yul\":690:1164   */\n      swap3\n      pop\n      swap3\n      swap1\n      pop\n      jump\t// out\n        /* \"#utility.yul\":1170:1296   */\n    tag_50:\n        /* \"#utility.yul\":1265:1289   */\n      tag_75\n        /* \"#utility.yul\":1283:1288   */\n      dup2\n        /* \"#utility.yul\":1265:1289   */\n      tag_47\n      jump\t// in\n    tag_75:\n        /* \"#utility.yul\":1260:1263   */\n      dup3\n        /* \"#utility.yul\":1253:1290   */\n      mstore\n        /* \"#utility.yul\":1170:1296   */\n      pop\n      pop\n      jump\t// out\n        /* \"#utility.yul\":1302:1540   */\n    tag_11:\n        /* \"#utility.yul\":1403:1407   */\n      0x00\n        /* \"#utility.yul\":1441:1443   */\n      0x20\n        /* \"#utility.yul\":1430:1439   */\n      dup3\n        /* \"#utility.yul\":1426:1444   */\n      add\n        /* \"#utility.yul\":1418:1444   */\n      swap1\n      pop\n        /* \"#utility.yul\":1454:1533   */\n      tag_77\n        /* \"#utility.yul\":1530:1531   */\n      0x00\n        /* \"#utility.yul\":1519:1528   */\n      dup4\n        /* \"#utility.yul\":1515:1532   */\n      add\n        /* \"#utility.yul\":1506:1512   */\n      dup5\n        /* \"#utility.yul\":1454:1533   */\n      tag_50\n      jump\t// in\n    tag_77:\n        /* \"#utility.yul\":1302:1540   */\n      swap3\n      swap2\n      pop\n      pop\n      jump\t// out\n        /* \"#utility.yul\":1546:1726   */\n    tag_51:\n        /* \"#utility.yul\":1594:1671   */\n      0x4e487b7100000000000000000000000000000000000000000000000000000000\n        /* \"#utility.yul\":1591:1592   */\n      0x00\n        /* \"#utility.yul\":1584:1672   */\n      mstore\n        /* \"#utility.yul\":1691:1695   */\n      0x11\n        /* \"#utility.yul\":1688:1689   */\n      0x04\n        /* \"#utility.yul\":1681:1696   */\n      mstore\n        /* \"#utility.yul\":1715:1719   */\n      0x24\n        /* \"#utility.yul\":1712:1713   */\n      0x00\n        /* \"#utility.yul\":1705:1720   */\n      revert\n        /* \"#utility.yul\":1732:2037   */\n    tag_26:\n        /* \"#utility.yul\":1772:1775   */\n      0x00\n        /* \"#utility.yul\":1791:1811   */\n      tag_80\n        /* \"#utility.yul\":1809:1810   */\n      dup3\n        /* \"#utility.yul\":1791:1811   */\n      tag_47\n      jump\t// in\n    tag_80:\n        /* \"#utility.yul\":1786:1811   */\n      swap2\n      pop\n        /* \"#utility.yul\":1825:1845   */\n      tag_81\n        /* \"#utility.yul\":1843:1844   */\n      dup4\n        /* \"#utility.yul\":1825:1845   */\n      tag_47\n      jump\t// in\n    tag_81:\n        /* \"#utility.yul\":1820:1845   */\n      swap3\n      pop\n        /* \"#utility.yul\":1979:1980   */\n      dup3\n        /* \"#utility.yul\":1911:1977   */\n      0xffffffffffffffffffffffffffffffffffffffffffffffffffffffffffffffff\n        /* \"#utility.yul\":1907:1981   */\n      sub\n        /* \"#utility.yul\":1904:1905   */\n      dup3\n        /* \"#utility.yul\":1901:1982   */\n      gt\n        /* \"#utility.yul\":1898:2005   */\n      iszero\n      tag_82\n      jumpi\n        /* \"#utility.yul\":1985:2003   */\n      tag_83\n      tag_51\n      jump\t// in\n    tag_83:\n        /* \"#utility.yul\":1898:2005   */\n    tag_82:\n        /* \"#utility.yul\":2029:2030   */\n      dup3\n        /* \"#utility.yul\":2026:2027   */\n      dup3\n        /* \"#utility.yul\":2022:2031   */\n      add\n        /* \"#utility.yul\":2015:2031   */\n      swap1\n      pop\n        /* \"#utility.yul\":1732:2037   */\n      swap3\n      swap2\n      pop\n      pop\n      jump\t// out\n        /* \"#utility.yul\":2043:2212   */\n    tag_52:\n        /* \"#utility.yul\":2127:2138   */\n      0x00\n        /* \"#utility.yul\":2161:2167   */\n      dup3\n        /* \"#utility.yul\":2156:2159   */\n      dup3\n        /* \"#utility.yul\":2149:2168   */\n      mstore\n        /* \"#utility.yul\":2201:2205   */\n      0x20\n        /* \"#utility.yul\":2196:2199   */\n      dup3\n        /* \"#utility.yul\":2192:2206   */\n      add\n        /* \"#utility.yul\":2177:2206   */\n      swap1\n      pop\n        /* \"#utility.yul\":2043:2212   */\n      swap3\n      swap2\n      pop\n      pop\n      jump\t// out\n        /* \"#utility.yul\":2218:2332   */\n    tag_53:\n      pop\n      jump\t// out\n        /* \"#utility.yul\":2338:2702   */\n    tag_54:\n        /* \"#utility.yul\":2480:2483   */\n      0x00\n        /* \"#utility.yul\":2501:2567   */\n      tag_87\n        /* \"#utility.yul\":2565:2566   */\n      0x00\n        /* \"#utility.yul\":2560:2563   */\n      dup4\n        /* \"#utility.yul\":2501:2567   */\n      tag_52\n      jump\t// in\n    tag_87:\n        /* \"#utility.yul\":2494:2567   */\n      swap2\n      pop\n        /* \"#utility.yul\":2576:2669   */\n      tag_88\n        /* \"#utility.yul\":2665:2668   */\n      dup3\n        /* \"#utility.yul\":2576:2669   */\n      tag_53\n      jump\t// in\n    tag_88:\n        /* \"#utility.yul\":2694:2695   */\n      0x00\n        /* \"#utility.yul\":2689:2692   */\n      dup3\n        /* \"#utility.yul\":2685:2696   */\n      add\n        /* \"#utility.yul\":2678:2696   */\n      swap1\n      pop\n        /* \"#utility.yul\":2338:2702   */\n      swap2\n      swap1\n      pop\n      jump\t// out\n        /* \"#utility.yul\":2708:3127   */\n    tag_30:\n        /* \"#utility.yul\":2874:2878   */\n      0x00\n        /* \"#utility.yul\":2912:2914   */\n      0x20\n        /* \"#utility.yul\":2901:2910   */\n      dup3\n        /* \"#utility.yul\":2897:2915   */\n      add\n        /* \"#utility.yul\":2889:2915   */\n      swap1\n      pop\n        /* \"#utility.yul\":2961:2970   */\n      dup2\n        /* \"#utility.yul\":2955:2959   */\n      dup2\n        /* \"#utility.yul\":2951:2971   */\n      sub\n        /* \"#utility.yul\":2947:2948   */\n      0x00\n        /* \"#utility.yul\":2936:2945   */\n      dup4\n        /* \"#utility.yul\":2932:2949   */\n      add\n        /* \"#utility.yul\":2925:2972   */\n      mstore\n        /* \"#utility.yul\":2989:3120   */\n      tag_90\n        /* \"#utility.yul\":3115:3119   */\n      dup2\n        /* \"#utility.yul\":2989:3120   */\n      tag_54\n      jump\t// in\n    tag_90:\n        /* \"#utility.yul\":2981:3120   */\n      swap1\n      pop\n        /* \"#utility.yul\":2708:3127   */\n      swap2\n      swap1\n      pop\n      jump\t// out\n        /* \"#utility.yul\":3133:3426   */\n    tag_55:\n        /* \"#utility.yul\":3273:3307   */\n      0x4c696272617279206572726f723a205365636f6e6420706172616d6574657220\n        /* \"#utility.yul\":3269:3270   */\n      0x00\n        /* \"#utility.yul\":3261:3267   */\n      dup3\n        /* \"#utility.yul\":3257:3271   */\n      add\n        /* \"#utility.yul\":3250:3308   */\n      mstore\n        /* \"#utility.yul\":3342:3376   */\n      0x73686f756c64206265206c657373206f7220657175616c20746f207468652066\n        /* \"#utility.yul\":3337:3339   */\n      0x20\n        /* \"#utility.yul\":3329:3335   */\n      dup3\n        /* \"#utility.yul\":3325:3340   */\n      add\n        /* \"#utility.yul\":3318:3377   */\n      mstore\n        /* \"#utility.yul\":3411:3418   */\n      0x697273742e000000000000000000000000000000000000000000000000000000\n        /* \"#utility.yul\":3406:3408   */\n      0x40\n        /* \"#utility.yul\":3398:3404   */\n      dup3\n        /* \"#utility.yul\":3394:3409   */\n      add\n        /* \"#utility.yul\":3387:3419   */\n      mstore\n        /* \"#utility.yul\":3133:3426   */\n      pop\n      jump\t// out\n        /* \"#utility.yul\":3432:3798   */\n    tag_56:\n        /* \"#utility.yul\":3574:3577   */\n      0x00\n        /* \"#utility.yul\":3595:3662   */\n      tag_93\n        /* \"#utility.yul\":3659:3661   */\n      0x45\n        /* \"#utility.yul\":3654:3657   */\n      dup4\n        /* \"#utility.yul\":3595:3662   */\n      tag_52\n      jump\t// in\n    tag_93:\n        /* \"#utility.yul\":3588:3662   */\n      swap2\n      pop\n        /* \"#utility.yul\":3671:3764   */\n      tag_94\n        /* \"#utility.yul\":3760:3763   */\n      dup3\n        /* \"#utility.yul\":3671:3764   */\n      tag_55\n      jump\t// in\n    tag_94:\n        /* \"#utility.yul\":3789:3791   */\n      0x60\n        /* \"#utility.yul\":3784:3787   */\n      dup3\n        /* \"#utility.yul\":3780:3792   */\n      add\n        /* \"#utility.yul\":3773:3792   */\n      swap1\n      pop\n        /* \"#utility.yul\":3432:3798   */\n      swap2\n      swap1\n      pop\n      jump\t// out\n        /* \"#utility.yul\":3804:4223   */\n    tag_34:\n        /* \"#utility.yul\":3970:3974   */\n      0x00\n        /* \"#utility.yul\":4008:4010   */\n      0x20\n        /* \"#utility.yul\":3997:4006   */\n      dup3\n        /* \"#utility.yul\":3993:4011   */\n      add\n        /* \"#utility.yul\":3985:4011   */\n      swap1\n      pop\n        /* \"#utility.yul\":4057:4066   */\n      dup2\n        /* \"#utility.yul\":4051:4055   */\n      dup2\n        /* \"#utility.yul\":4047:4067   */\n      sub\n        /* \"#utility.yul\":4043:4044   */\n      0x00\n        /* \"#utility.yul\":4032:4041   */\n      dup4\n        /* \"#utility.yul\":4028:4045   */\n      add\n        /* \"#utility.yul\":4021:4068   */\n      mstore\n        /* \"#utility.yul\":4085:4216   */\n      tag_96\n        /* \"#utility.yul\":4211:4215   */\n      dup2\n        /* \"#utility.yul\":4085:4216   */\n      tag_56\n      jump\t// in\n    tag_96:\n        /* \"#utility.yul\":4077:4216   */\n      swap1\n      pop\n        /* \"#utility.yul\":3804:4223   */\n      swap2\n      swap1\n      pop\n      jump\t// out\n        /* \"#utility.yul\":4229:4420   */\n    tag_36:\n        /* \"#utility.yul\":4269:4273   */\n      0x00\n        /* \"#utility.yul\":4289:4309   */\n      tag_98\n        /* \"#utility.yul\":4307:4308   */\n      dup3\n        /* \"#utility.yul\":4289:4309   */\n      tag_47\n      jump\t// in\n    tag_98:\n        /* \"#utility.yul\":4284:4309   */\n      swap2\n      pop\n        /* \"#utility.yul\":4323:4343   */\n      tag_99\n        /* \"#utility.yul\":4341:4342   */\n      dup4\n        /* \"#utility.yul\":4323:4343   */\n      tag_47\n      jump\t// in\n    tag_99:\n        /* \"#utility.yul\":4318:4343   */\n      swap3\n      pop\n        /* \"#utility.yul\":4362:4363   */\n      dup3\n        /* \"#utility.yul\":4359:4360   */\n      dup3\n        /* \"#utility.yul\":4356:4364   */\n      lt\n        /* \"#utility.yul\":4353:4387   */\n      iszero\n      tag_100\n      jumpi\n        /* \"#utility.yul\":4367:4385   */\n      tag_101\n      tag_51\n      jump\t// in\n    tag_101:\n        /* \"#utility.yul\":4353:4387   */\n    tag_100:\n        /* \"#utility.yul\":4412:4413   */\n      dup3\n        /* \"#utility.yul\":4409:4410   */\n      dup3\n        /* \"#utility.yul\":4405:4414   */\n      sub\n        /* \"#utility.yul\":4397:4414   */\n      swap1\n      pop\n        /* \"#utility.yul\":4229:4420   */\n      swap3\n      swap2\n      pop\n      pop\n      jump\t// out\n        /* \"#utility.yul\":4426:4774   */\n    tag_39:\n        /* \"#utility.yul\":4466:4473   */\n      0x00\n        /* \"#utility.yul\":4489:4509   */\n      tag_103\n        /* \"#utility.yul\":4507:4508   */\n      dup3\n        /* \"#utility.yul\":4489:4509   */\n      tag_47\n      jump\t// in\n    tag_103:\n        /* \"#utility.yul\":4484:4509   */\n      swap2\n      pop\n        /* \"#utility.yul\":4523:4543   */\n      tag_104\n        /* \"#utility.yul\":4541:4542   */\n      dup4\n        /* \"#utility.yul\":4523:4543   */\n      tag_47\n      jump\t// in\n    tag_104:\n        /* \"#utility.yul\":4518:4543   */\n      swap3\n      pop\n        /* \"#utility.yul\":4711:4712   */\n      dup2\n        /* \"#utility.yul\":4643:4709   */\n      0xffffffffffffffffffffffffffffffffffffffffffffffffffffffffffffffff\n        /* \"#utility.yul\":4639:4713   */\n      div\n        /* \"#utility.yul\":4636:4637   */\n      dup4\n        /* \"#utility.yul\":4633:4714   */\n      gt\n        /* \"#utility.yul\":4628:4629   */\n      dup3\n        /* \"#utility.yul\":4621:4630   */\n      iszero\n        /* \"#utility.yul\":4614:4631   */\n      iszero\n        /* \"#utility.yul\":4610:4715   */\n      and\n        /* \"#utility.yul\":4607:4738   */\n      iszero\n      tag_105\n      jumpi\n        /* \"#utility.yul\":4718:4736   */\n      tag_106\n      tag_51\n      jump\t// in\n    tag_106:\n        /* \"#utility.yul\":4607:4738   */\n    tag_105:\n        /* \"#utility.yul\":4766:4767   */\n      dup3\n        /* \"#utility.yul\":4763:4764   */\n      dup3\n        /* \"#utility.yul\":4759:4768   */\n      mul\n        /* \"#utility.yul\":4748:4768   */\n      swap1\n      pop\n        /* \"#utility.yul\":4426:4774   */\n      swap3\n      swap2\n      pop\n      pop\n      jump\t// out\n        /* \"#utility.yul\":4780:4961   */\n    tag_57:\n        /* \"#utility.yul\":4920:4953   */\n      0x4c696272617279204572726f722c204e756d626572206f766572666c6f772e00\n        /* \"#utility.yul\":4916:4917   */\n      0x00\n        /* \"#utility.yul\":4908:4914   */\n      dup3\n        /* \"#utility.yul\":4904:4918   */\n      add\n        /* \"#utility.yul\":4897:4954   */\n      mstore\n        /* \"#utility.yul\":4780:4961   */\n      pop\n      jump\t// out\n        /* \"#utility.yul\":4967:5333   */\n    tag_58:\n        /* \"#utility.yul\":5109:5112   */\n      0x00\n        /* \"#utility.yul\":5130:5197   */\n      tag_109\n        /* \"#utility.yul\":5194:5196   */\n      0x1f\n        /* \"#utility.yul\":5189:5192   */\n      dup4\n        /* \"#utility.yul\":5130:5197   */\n      tag_52\n      jump\t// in\n    tag_109:\n        /* \"#utility.yul\":5123:5197   */\n      swap2\n      pop\n        /* \"#utility.yul\":5206:5299   */\n      tag_110\n        /* \"#utility.yul\":5295:5298   */\n      dup3\n        /* \"#utility.yul\":5206:5299   */\n      tag_57\n      jump\t// in\n    tag_110:\n        /* \"#utility.yul\":5324:5326   */\n      0x20\n        /* \"#utility.yul\":5319:5322   */\n      dup3\n        /* \"#utility.yul\":5315:5327   */\n      add\n        /* \"#utility.yul\":5308:5327   */\n      swap1\n      pop\n        /* \"#utility.yul\":4967:5333   */\n      swap2\n      swap1\n      pop\n      jump\t// out\n        /* \"#utility.yul\":5339:5758   */\n    tag_42:\n        /* \"#utility.yul\":5505:5509   */\n      0x00\n        /* \"#utility.yul\":5543:5545   */\n      0x20\n        /* \"#utility.yul\":5532:5541   */\n      dup3\n        /* \"#utility.yul\":5528:5546   */\n      add\n        /* \"#utility.yul\":5520:5546   */\n      swap1\n      pop\n        /* \"#utility.yul\":5592:5601   */\n      dup2\n        /* \"#utility.yul\":5586:5590   */\n      dup2\n        /* \"#utility.yul\":5582:5602   */\n      sub\n        /* \"#utility.yul\":5578:5579   */\n      0x00\n        /* \"#utility.yul\":5567:5576   */\n      dup4\n        /* \"#utility.yul\":5563:5580   */\n      add\n        /* \"#utility.yul\":5556:5603   */\n      mstore\n        /* \"#utility.yul\":5620:5751   */\n      tag_112\n        /* \"#utility.yul\":5746:5750   */\n      dup2\n        /* \"#utility.yul\":5620:5751   */\n      tag_58\n      jump\t// in\n    tag_112:\n        /* \"#utility.yul\":5612:5751   */\n      swap1\n      pop\n        /* \"#utility.yul\":5339:5758   */\n      swap2\n      swap1\n      pop\n      jump\t// out\n\n    auxdata: 0xa26469706673582212205c7b5b6c0636a9cff8703ea9cd2c8c6d2554c068372dc9e8658842eb3b703dc564736f6c634300080d0033\n}\n",
				"bytecode": {
					"linkReferences": {},
					"object": "6105d3610053600b82828239805160001a607314610046577f4e487b7100000000000000000000000000000000000000000000000000000000600052600060045260246000fd5b30600052607381538281f3fe73000000000000000000000000000000000000000030146080604052600436106100565760003560e01c8063771602f71461005b578063a391c15b1461008b578063b67d77c5146100bb578063c8a4ac9c146100eb575b600080fd5b610075600480360381019061007091906102a5565b61011b565b60405161008291906102f4565b60405180910390f35b6100a560048036038101906100a091906102a5565b610136565b6040516100b291906102f4565b60405180910390f35b6100d560048036038101906100d091906102a5565b610181565b6040516100e291906102f4565b60405180910390f35b610105600480360381019061010091906102a5565b6101e0565b60405161011291906102f4565b60405180910390f35b600080828461012a919061033e565b90508091505092915050565b60008183101561017b576040517f08c379a0000000000000000000000000000000000000000000000000000000008152600401610172906103cb565b60405180910390fd5b92915050565b6000818310156101c6576040517f08c379a00000000000000000000000000000000000000000000000000000000081526004016101bd90610483565b60405180910390fd5b600082846101d491906104a3565b90508091505092915050565b60007fffffffffffffffffffffffffffffffffffffffffffffffffffffffffffffffff828461020f91906104d7565b1115610250576040517f08c379a00000000000000000000000000000000000000000000000000000000081526004016102479061057d565b60405180910390fd5b6000828461025e91906104d7565b90508091505092915050565b600080fd5b6000819050919050565b6102828161026f565b811461028d57600080fd5b50565b60008135905061029f81610279565b92915050565b600080604083850312156102bc576102bb61026a565b5b60006102ca85828601610290565b92505060206102db85828601610290565b9150509250929050565b6102ee8161026f565b82525050565b600060208201905061030960008301846102e5565b92915050565b7f4e487b7100000000000000000000000000000000000000000000000000000000600052601160045260246000fd5b60006103498261026f565b91506103548361026f565b9250827fffffffffffffffffffffffffffffffffffffffffffffffffffffffffffffffff038211156103895761038861030f565b5b828201905092915050565b600082825260208201905092915050565b50565b60006103b5600083610394565b91506103c0826103a5565b600082019050919050565b600060208201905081810360008301526103e4816103a8565b9050919050565b7f4c696272617279206572726f723a205365636f6e6420706172616d657465722060008201527f73686f756c64206265206c657373206f7220657175616c20746f20746865206660208201527f697273742e000000000000000000000000000000000000000000000000000000604082015250565b600061046d604583610394565b9150610478826103eb565b606082019050919050565b6000602082019050818103600083015261049c81610460565b9050919050565b60006104ae8261026f565b91506104b98361026f565b9250828210156104cc576104cb61030f565b5b828203905092915050565b60006104e28261026f565b91506104ed8361026f565b9250817fffffffffffffffffffffffffffffffffffffffffffffffffffffffffffffffff04831182151516156105265761052561030f565b5b828202905092915050565b7f4c696272617279204572726f722c204e756d626572206f766572666c6f772e00600082015250565b6000610567601f83610394565b915061057282610531565b602082019050919050565b600060208201905081810360008301526105968161055a565b905091905056fea26469706673582212205c7b5b6c0636a9cff8703ea9cd2c8c6d2554c068372dc9e8658842eb3b703dc564736f6c634300080d0033",
					"opcodes": "PUSH2 0x5D3 PUSH2 0x53 PUSH1 0xB DUP3 DUP3 DUP3 CODECOPY DUP1 MLOAD PUSH1 0x0 BYTE PUSH1 0x73 EQ PUSH2 0x46 JUMPI PUSH32 0x4E487B7100000000000000000000000000000000000000000000000000000000 PUSH1 0x0 MSTORE PUSH1 0x0 PUSH1 0x4 MSTORE PUSH1 0x24 PUSH1 0x0 REVERT JUMPDEST ADDRESS PUSH1 0x0 MSTORE PUSH1 0x73 DUP2 MSTORE8 DUP3 DUP2 RETURN INVALID PUSH20 0x0 ADDRESS EQ PUSH1 0x80 PUSH1 0x40 MSTORE PUSH1 0x4 CALLDATASIZE LT PUSH2 0x56 JUMPI PUSH1 0x0 CALLDATALOAD PUSH1 0xE0 SHR DUP1 PUSH4 0x771602F7 EQ PUSH2 0x5B JUMPI DUP1 PUSH4 0xA391C15B EQ PUSH2 0x8B JUMPI DUP1 PUSH4 0xB67D77C5 EQ PUSH2 0xBB JUMPI DUP1 PUSH4 0xC8A4AC9C EQ PUSH2 0xEB JUMPI JUMPDEST PUSH1 0x0 DUP1 REVERT JUMPDEST PUSH2 0x75 PUSH1 0x4 DUP1 CALLDATASIZE SUB DUP2 ADD SWAP1 PUSH2 0x70 SWAP2 SWAP1 PUSH2 0x2A5 JUMP JUMPDEST PUSH2 0x11B JUMP JUMPDEST PUSH1 0x40 MLOAD PUSH2 0x82 SWAP2 SWAP1 PUSH2 0x2F4 JUMP JUMPDEST PUSH1 0x40 MLOAD DUP1 SWAP2 SUB SWAP1 RETURN JUMPDEST PUSH2 0xA5 PUSH1 0x4 DUP1 CALLDATASIZE SUB DUP2 ADD SWAP1 PUSH2 0xA0 SWAP2 SWAP1 PUSH2 0x2A5 JUMP JUMPDEST PUSH2 0x136 JUMP JUMPDEST PUSH1 0x40 MLOAD PUSH2 0xB2 SWAP2 SWAP1 PUSH2 0x2F4 JUMP JUMPDEST PUSH1 0x40 MLOAD DUP1 SWAP2 SUB SWAP1 RETURN JUMPDEST PUSH2 0xD5 PUSH1 0x4 DUP1 CALLDATASIZE SUB DUP2 ADD SWAP1 PUSH2 0xD0 SWAP2 SWAP1 PUSH2 0x2A5 JUMP JUMPDEST PUSH2 0x181 JUMP JUMPDEST PUSH1 0x40 MLOAD PUSH2 0xE2 SWAP2 SWAP1 PUSH2 0x2F4 JUMP JUMPDEST PUSH1 0x40 MLOAD DUP1 SWAP2 SUB SWAP1 RETURN JUMPDEST PUSH2 0x105 PUSH1 0x4 DUP1 CALLDATASIZE SUB DUP2 ADD SWAP1 PUSH2 0x100 SWAP2 SWAP1 PUSH2 0x2A5 JUMP JUMPDEST PUSH2 0x1E0 JUMP JUMPDEST PUSH1 0x40 MLOAD PUSH2 0x112 SWAP2 SWAP1 PUSH2 0x2F4 JUMP JUMPDEST PUSH1 0x40 MLOAD DUP1 SWAP2 SUB SWAP1 RETURN JUMPDEST PUSH1 0x0 DUP1 DUP3 DUP5 PUSH2 0x12A SWAP2 SWAP1 PUSH2 0x33E JUMP JUMPDEST SWAP1 POP DUP1 SWAP2 POP POP SWAP3 SWAP2 POP POP JUMP JUMPDEST PUSH1 0x0 DUP2 DUP4 LT ISZERO PUSH2 0x17B JUMPI PUSH1 0x40 MLOAD PUSH32 0x8C379A000000000000000000000000000000000000000000000000000000000 DUP2 MSTORE PUSH1 0x4 ADD PUSH2 0x172 SWAP1 PUSH2 0x3CB JUMP JUMPDEST PUSH1 0x40 MLOAD DUP1 SWAP2 SUB SWAP1 REVERT JUMPDEST SWAP3 SWAP2 POP POP JUMP JUMPDEST PUSH1 0x0 DUP2 DUP4 LT ISZERO PUSH2 0x1C6 JUMPI PUSH1 0x40 MLOAD PUSH32 0x8C379A000000000000000000000000000000000000000000000000000000000 DUP2 MSTORE PUSH1 0x4 ADD PUSH2 0x1BD SWAP1 PUSH2 0x483 JUMP JUMPDEST PUSH1 0x40 MLOAD DUP1 SWAP2 SUB SWAP1 REVERT JUMPDEST PUSH1 0x0 DUP3 DUP5 PUSH2 0x1D4 SWAP2 SWAP1 PUSH2 0x4A3 JUMP JUMPDEST SWAP1 POP DUP1 SWAP2 POP POP SWAP3 SWAP2 POP POP JUMP JUMPDEST PUSH1 0x0 PUSH32 0xFFFFFFFFFFFFFFFFFFFFFFFFFFFFFFFFFFFFFFFFFFFFFFFFFFFFFFFFFFFFFFFF DUP3 DUP5 PUSH2 0x20F SWAP2 SWAP1 PUSH2 0x4D7 JUMP JUMPDEST GT ISZERO PUSH2 0x250 JUMPI PUSH1 0x40 MLOAD PUSH32 0x8C379A000000000000000000000000000000000000000000000000000000000 DUP2 MSTORE PUSH1 0x4 ADD PUSH2 0x247 SWAP1 PUSH2 0x57D JUMP JUMPDEST PUSH1 0x40 MLOAD DUP1 SWAP2 SUB SWAP1 REVERT JUMPDEST PUSH1 0x0 DUP3 DUP5 PUSH2 0x25E SWAP2 SWAP1 PUSH2 0x4D7 JUMP JUMPDEST SWAP1 POP DUP1 SWAP2 POP POP SWAP3 SWAP2 POP POP JUMP JUMPDEST PUSH1 0x0 DUP1 REVERT JUMPDEST PUSH1 0x0 DUP2 SWAP1 POP SWAP2 SWAP1 POP JUMP JUMPDEST PUSH2 0x282 DUP2 PUSH2 0x26F JUMP JUMPDEST DUP2 EQ PUSH2 0x28D JUMPI PUSH1 0x0 DUP1 REVERT JUMPDEST POP JUMP JUMPDEST PUSH1 0x0 DUP2 CALLDATALOAD SWAP1 POP PUSH2 0x29F DUP2 PUSH2 0x279 JUMP JUMPDEST SWAP3 SWAP2 POP POP JUMP JUMPDEST PUSH1 0x0 DUP1 PUSH1 0x40 DUP4 DUP6 SUB SLT ISZERO PUSH2 0x2BC JUMPI PUSH2 0x2BB PUSH2 0x26A JUMP JUMPDEST JUMPDEST PUSH1 0x0 PUSH2 0x2CA DUP6 DUP3 DUP7 ADD PUSH2 0x290 JUMP JUMPDEST SWAP3 POP POP PUSH1 0x20 PUSH2 0x2DB DUP6 DUP3 DUP7 ADD PUSH2 0x290 JUMP JUMPDEST SWAP2 POP POP SWAP3 POP SWAP3 SWAP1 POP JUMP JUMPDEST PUSH2 0x2EE DUP2 PUSH2 0x26F JUMP JUMPDEST DUP3 MSTORE POP POP JUMP JUMPDEST PUSH1 0x0 PUSH1 0x20 DUP3 ADD SWAP1 POP PUSH2 0x309 PUSH1 0x0 DUP4 ADD DUP5 PUSH2 0x2E5 JUMP JUMPDEST SWAP3 SWAP2 POP POP JUMP JUMPDEST PUSH32 0x4E487B7100000000000000000000000000000000000000000000000000000000 PUSH1 0x0 MSTORE PUSH1 0x11 PUSH1 0x4 MSTORE PUSH1 0x24 PUSH1 0x0 REVERT JUMPDEST PUSH1 0x0 PUSH2 0x349 DUP3 PUSH2 0x26F JUMP JUMPDEST SWAP2 POP PUSH2 0x354 DUP4 PUSH2 0x26F JUMP JUMPDEST SWAP3 POP DUP3 PUSH32 0xFFFFFFFFFFFFFFFFFFFFFFFFFFFFFFFFFFFFFFFFFFFFFFFFFFFFFFFFFFFFFFFF SUB DUP3 GT ISZERO PUSH2 0x389 JUMPI PUSH2 0x388 PUSH2 0x30F JUMP JUMPDEST JUMPDEST DUP3 DUP3 ADD SWAP1 POP SWAP3 SWAP2 POP POP JUMP JUMPDEST PUSH1 0x0 DUP3 DUP3 MSTORE PUSH1 0x20 DUP3 ADD SWAP1 POP SWAP3 SWAP2 POP POP JUMP JUMPDEST POP JUMP JUMPDEST PUSH1 0x0 PUSH2 0x3B5 PUSH1 0x0 DUP4 PUSH2 0x394 JUMP JUMPDEST SWAP2 POP PUSH2 0x3C0 DUP3 PUSH2 0x3A5 JUMP JUMPDEST PUSH1 0x0 DUP3 ADD SWAP1 POP SWAP2 SWAP1 POP JUMP JUMPDEST PUSH1 0x0 PUSH1 0x20 DUP3 ADD SWAP1 POP DUP2 DUP2 SUB PUSH1 0x0 DUP4 ADD MSTORE PUSH2 0x3E4 DUP2 PUSH2 0x3A8 JUMP JUMPDEST SWAP1 POP SWAP2 SWAP1 POP JUMP JUMPDEST PUSH32 0x4C696272617279206572726F723A205365636F6E6420706172616D6574657220 PUSH1 0x0 DUP3 ADD MSTORE PUSH32 0x73686F756C64206265206C657373206F7220657175616C20746F207468652066 PUSH1 0x20 DUP3 ADD MSTORE PUSH32 0x697273742E000000000000000000000000000000000000000000000000000000 PUSH1 0x40 DUP3 ADD MSTORE POP JUMP JUMPDEST PUSH1 0x0 PUSH2 0x46D PUSH1 0x45 DUP4 PUSH2 0x394 JUMP JUMPDEST SWAP2 POP PUSH2 0x478 DUP3 PUSH2 0x3EB JUMP JUMPDEST PUSH1 0x60 DUP3 ADD SWAP1 POP SWAP2 SWAP1 POP JUMP JUMPDEST PUSH1 0x0 PUSH1 0x20 DUP3 ADD SWAP1 POP DUP2 DUP2 SUB PUSH1 0x0 DUP4 ADD MSTORE PUSH2 0x49C DUP2 PUSH2 0x460 JUMP JUMPDEST SWAP1 POP SWAP2 SWAP1 POP JUMP JUMPDEST PUSH1 0x0 PUSH2 0x4AE DUP3 PUSH2 0x26F JUMP JUMPDEST SWAP2 POP PUSH2 0x4B9 DUP4 PUSH2 0x26F JUMP JUMPDEST SWAP3 POP DUP3 DUP3 LT ISZERO PUSH2 0x4CC JUMPI PUSH2 0x4CB PUSH2 0x30F JUMP JUMPDEST JUMPDEST DUP3 DUP3 SUB SWAP1 POP SWAP3 SWAP2 POP POP JUMP JUMPDEST PUSH1 0x0 PUSH2 0x4E2 DUP3 PUSH2 0x26F JUMP JUMPDEST SWAP2 POP PUSH2 0x4ED DUP4 PUSH2 0x26F JUMP JUMPDEST SWAP3 POP DUP2 PUSH32 0xFFFFFFFFFFFFFFFFFFFFFFFFFFFFFFFFFFFFFFFFFFFFFFFFFFFFFFFFFFFFFFFF DIV DUP4 GT DUP3 ISZERO ISZERO AND ISZERO PUSH2 0x526 JUMPI PUSH2 0x525 PUSH2 0x30F JUMP JUMPDEST JUMPDEST DUP3 DUP3 MUL SWAP1 POP SWAP3 SWAP2 POP POP JUMP JUMPDEST PUSH32 0x4C696272617279204572726F722C204E756D626572206F766572666C6F772E00 PUSH1 0x0 DUP3 ADD MSTORE POP JUMP JUMPDEST PUSH1 0x0 PUSH2 0x567 PUSH1 0x1F DUP4 PUSH2 0x394 JUMP JUMPDEST SWAP2 POP PUSH2 0x572 DUP3 PUSH2 0x531 JUMP JUMPDEST PUSH1 0x20 DUP3 ADD SWAP1 POP SWAP2 SWAP1 POP JUMP JUMPDEST PUSH1 0x0 PUSH1 0x20 DUP3 ADD SWAP1 POP DUP2 DUP2 SUB PUSH1 0x0 DUP4 ADD MSTORE PUSH2 0x596 DUP2 PUSH2 0x55A JUMP JUMPDEST SWAP1 POP SWAP2 SWAP1 POP JUMP INVALID LOG2 PUSH5 0x6970667358 0x22 SLT KECCAK256 0x5C PUSH28 0x5B6C0636A9CFF8703EA9CD2C8C6D2554C068372DC9E8658842EB3B70 RETURNDATASIZE 0xC5 PUSH5 0x736F6C6343 STOP ADDMOD 0xD STOP CALLER "
				},
				"gasEstimates": {
					"creation": {
						"codeDepositCost": "298200",
						"executionCost": "362",
						"totalCost": "298562"
					},
					"external": {
						"add(uint256,uint256)": "infinite",
						"div(uint256,uint256)": "infinite",
						"mul(uint256,uint256)": "infinite",
						"sub(uint256,uint256)": "infinite"
					}
				},
				"methodIdentifiers": {
					"add(uint256,uint256)": "771602f7",
					"div(uint256,uint256)": "a391c15b",
					"mul(uint256,uint256)": "c8a4ac9c",
					"sub(uint256,uint256)": "b67d77c5"
				}
			},
			"userdoc": {
				"kind": "user",
				"methods": {},
				"version": 1
			}
		}
	}
}