{
	"libraries/operators.sol": {
		"operations": {
			"abi": [
				{
					"inputs": [
						{
							"internalType": "uint256",
							"name": "a",
							"type": "uint256"
						},
						{
							"internalType": "uint256",
							"name": "b",
							"type": "uint256"
						}
					],
					"name": "add",
					"outputs": [
						{
							"internalType": "uint256",
							"name": "",
							"type": "uint256"
						}
					],
					"stateMutability": "pure",
					"type": "function"
				},
				{
					"inputs": [
						{
							"internalType": "uint256[]",
							"name": "arr",
							"type": "uint256[]"
						}
					],
					"name": "add_arr",
					"outputs": [
						{
							"internalType": "uint256",
							"name": "",
							"type": "uint256"
						}
					],
					"stateMutability": "pure",
					"type": "function"
				},
				{
					"inputs": [
						{
							"internalType": "uint256",
							"name": "a",
							"type": "uint256"
						},
						{
							"internalType": "uint256",
							"name": "b",
							"type": "uint256"
						}
					],
					"name": "div",
					"outputs": [
						{
							"internalType": "uint256",
							"name": "",
							"type": "uint256"
						}
					],
					"stateMutability": "pure",
					"type": "function"
				},
				{
					"inputs": [
						{
							"internalType": "uint256",
							"name": "a",
							"type": "uint256"
						},
						{
							"internalType": "uint256",
							"name": "b",
							"type": "uint256"
						}
					],
					"name": "mul",
					"outputs": [
						{
							"internalType": "uint256",
							"name": "",
							"type": "uint256"
						}
					],
					"stateMutability": "pure",
					"type": "function"
				},
				{
					"inputs": [
						{
							"internalType": "uint256",
							"name": "a",
							"type": "uint256"
						},
						{
							"internalType": "uint256",
							"name": "b",
							"type": "uint256"
						}
					],
					"name": "sub",
					"outputs": [
						{
							"internalType": "uint256",
							"name": "",
							"type": "uint256"
						}
					],
					"stateMutability": "pure",
					"type": "function"
				}
			],
			"devdoc": {
				"kind": "dev",
				"methods": {},
				"version": 1
			},
			"evm": {
				"assembly": "    /* \"libraries/operators.sol\":76:1021  library operations... */\n  dataSize(sub_0)\n  dataOffset(sub_0)\n  0x0b\n  dup3\n  dup3\n  dup3\n  codecopy\n  dup1\n  mload\n  0x00\n  byte\n  0x73\n  eq\n  tag_1\n  jumpi\n  mstore(0x00, 0x4e487b7100000000000000000000000000000000000000000000000000000000)\n  mstore(0x04, 0x00)\n  revert(0x00, 0x24)\ntag_1:\n  mstore(0x00, address)\n  0x73\n  dup2\n  mstore8\n  dup3\n  dup2\n  return\nstop\n\nsub_0: assembly {\n        /* \"libraries/operators.sol\":76:1021  library operations... */\n      eq(address, deployTimeAddress())\n      mstore(0x40, 0x80)\n      jumpi(tag_1, lt(calldatasize, 0x04))\n      shr(0xe0, calldataload(0x00))\n      dup1\n      0x771602f7\n      eq\n      tag_2\n      jumpi\n      dup1\n      0xa391c15b\n      eq\n      tag_3\n      jumpi\n      dup1\n      0xb67d77c5\n      eq\n      tag_4\n      jumpi\n      dup1\n      0xc8a4ac9c\n      eq\n      tag_5\n      jumpi\n      dup1\n      0xcea07138\n      eq\n      tag_6\n      jumpi\n    tag_1:\n      0x00\n      dup1\n      revert\n        /* \"libraries/operators.sol\":103:223  function add(uint a, uint b) public pure returns(uint)... */\n    tag_2:\n      tag_7\n      0x04\n      dup1\n      calldatasize\n      sub\n      dup2\n      add\n      swap1\n      tag_8\n      swap2\n      swap1\n      tag_9\n      jump\t// in\n    tag_8:\n      tag_10\n      jump\t// in\n    tag_7:\n      mload(0x40)\n      tag_11\n      swap2\n      swap1\n      tag_12\n      jump\t// in\n    tag_11:\n      mload(0x40)\n      dup1\n      swap2\n      sub\n      swap1\n      return\n        /* \"libraries/operators.sol\":722:846  function div(uint a, uint b) public pure returns(uint)... */\n    tag_3:\n      tag_13\n      0x04\n      dup1\n      calldatasize\n      sub\n      dup2\n      add\n      swap1\n      tag_14\n      swap2\n      swap1\n      tag_9\n      jump\t// in\n    tag_14:\n      tag_15\n      jump\t// in\n    tag_13:\n      mload(0x40)\n      tag_16\n      swap2\n      swap1\n      tag_12\n      jump\t// in\n    tag_16:\n      mload(0x40)\n      dup1\n      swap2\n      sub\n      swap1\n      return\n        /* \"libraries/operators.sol\":231:448  function sub(uint a, uint b) public pure returns(uint)... */\n    tag_4:\n      tag_17\n      0x04\n      dup1\n      calldatasize\n      sub\n      dup2\n      add\n      swap1\n      tag_18\n      swap2\n      swap1\n      tag_9\n      jump\t// in\n    tag_18:\n      tag_19\n      jump\t// in\n    tag_17:\n      mload(0x40)\n      tag_20\n      swap2\n      swap1\n      tag_12\n      jump\t// in\n    tag_20:\n      mload(0x40)\n      dup1\n      swap2\n      sub\n      swap1\n      return\n        /* \"libraries/operators.sol\":456:656  function mul(uint a, uint b) public pure returns(uint)... */\n    tag_5:\n      tag_21\n      0x04\n      dup1\n      calldatasize\n      sub\n      dup2\n      add\n      swap1\n      tag_22\n      swap2\n      swap1\n      tag_9\n      jump\t// in\n    tag_22:\n      tag_23\n      jump\t// in\n    tag_21:\n      mload(0x40)\n      tag_24\n      swap2\n      swap1\n      tag_12\n      jump\t// in\n    tag_24:\n      mload(0x40)\n      dup1\n      swap2\n      sub\n      swap1\n      return\n        /* \"libraries/operators.sol\":860:1018  function add_arr(uint[] memory arr) public pure returns(uint)... */\n    tag_6:\n      tag_25\n      0x04\n      dup1\n      calldatasize\n      sub\n      dup2\n      add\n      swap1\n      tag_26\n      swap2\n      swap1\n      tag_27\n      jump\t// in\n    tag_26:\n      tag_28\n      jump\t// in\n    tag_25:\n      mload(0x40)\n      tag_29\n      swap2\n      swap1\n      tag_12\n      jump\t// in\n    tag_29:\n      mload(0x40)\n      dup1\n      swap2\n      sub\n      swap1\n      return\n        /* \"libraries/operators.sol\":103:223  function add(uint a, uint b) public pure returns(uint)... */\n    tag_10:\n        /* \"libraries/operators.sol\":152:156  uint */\n      0x00\n        /* \"libraries/operators.sol\":174:184  uint total */\n      dup1\n        /* \"libraries/operators.sol\":191:192  b */\n      dup3\n        /* \"libraries/operators.sol\":187:188  a */\n      dup5\n        /* \"libraries/operators.sol\":187:192  a + b */\n      tag_31\n      swap2\n      swap1\n      tag_32\n      jump\t// in\n    tag_31:\n        /* \"libraries/operators.sol\":174:192  uint total = a + b */\n      swap1\n      pop\n        /* \"libraries/operators.sol\":210:215  total */\n      dup1\n        /* \"libraries/operators.sol\":203:215  return total */\n      swap2\n      pop\n      pop\n        /* \"libraries/operators.sol\":103:223  function add(uint a, uint b) public pure returns(uint)... */\n      swap3\n      swap2\n      pop\n      pop\n      jump\t// out\n        /* \"libraries/operators.sol\":722:846  function div(uint a, uint b) public pure returns(uint)... */\n    tag_15:\n        /* \"libraries/operators.sol\":771:775  uint */\n      0x00\n        /* \"libraries/operators.sol\":793:801  uint rem */\n      dup1\n        /* \"libraries/operators.sol\":816:817  b */\n      dup3\n        /* \"libraries/operators.sol\":809:812  100 */\n      0x64\n        /* \"libraries/operators.sol\":805:806  a */\n      dup6\n        /* \"libraries/operators.sol\":805:812  a * 100 */\n      tag_34\n      swap2\n      swap1\n      tag_35\n      jump\t// in\n    tag_34:\n        /* \"libraries/operators.sol\":804:817  (a * 100) / b */\n      tag_36\n      swap2\n      swap1\n      tag_37\n      jump\t// in\n    tag_36:\n        /* \"libraries/operators.sol\":793:817  uint rem = (a * 100) / b */\n      swap1\n      pop\n        /* \"libraries/operators.sol\":835:838  rem */\n      dup1\n        /* \"libraries/operators.sol\":828:838  return rem */\n      swap2\n      pop\n      pop\n        /* \"libraries/operators.sol\":722:846  function div(uint a, uint b) public pure returns(uint)... */\n      swap3\n      swap2\n      pop\n      pop\n      jump\t// out\n        /* \"libraries/operators.sol\":231:448  function sub(uint a, uint b) public pure returns(uint)... */\n    tag_19:\n        /* \"libraries/operators.sol\":280:284  uint */\n      0x00\n        /* \"libraries/operators.sol\":315:316  b */\n      dup2\n        /* \"libraries/operators.sol\":310:311  a */\n      dup4\n        /* \"libraries/operators.sol\":310:316  a >= b */\n      lt\n      iszero\n        /* \"libraries/operators.sol\":302:390  require(a >= b, \"Library error: Second parameter should be less or equal to the first.\") */\n      tag_39\n      jumpi\n      mload(0x40)\n      0x08c379a000000000000000000000000000000000000000000000000000000000\n      dup2\n      mstore\n      0x04\n      add\n      tag_40\n      swap1\n      tag_41\n      jump\t// in\n    tag_40:\n      mload(0x40)\n      dup1\n      swap2\n      sub\n      swap1\n      revert\n    tag_39:\n        /* \"libraries/operators.sol\":401:410  uint left */\n      0x00\n        /* \"libraries/operators.sol\":417:418  b */\n      dup3\n        /* \"libraries/operators.sol\":413:414  a */\n      dup5\n        /* \"libraries/operators.sol\":413:418  a - b */\n      tag_42\n      swap2\n      swap1\n      tag_43\n      jump\t// in\n    tag_42:\n        /* \"libraries/operators.sol\":401:418  uint left = a - b */\n      swap1\n      pop\n        /* \"libraries/operators.sol\":436:440  left */\n      dup1\n        /* \"libraries/operators.sol\":429:440  return left */\n      swap2\n      pop\n      pop\n        /* \"libraries/operators.sol\":231:448  function sub(uint a, uint b) public pure returns(uint)... */\n      swap3\n      swap2\n      pop\n      pop\n      jump\t// out\n        /* \"libraries/operators.sol\":456:656  function mul(uint a, uint b) public pure returns(uint)... */\n    tag_23:\n        /* \"libraries/operators.sol\":505:509  uint */\n      0x00\n        /* \"libraries/operators.sol\":547:561  (2 ** 256) - 1 */\n      0xffffffffffffffffffffffffffffffffffffffffffffffffffffffffffffffff\n        /* \"libraries/operators.sol\":540:541  b */\n      dup3\n        /* \"libraries/operators.sol\":536:537  a */\n      dup5\n        /* \"libraries/operators.sol\":536:541  a * b */\n      tag_45\n      swap2\n      swap1\n      tag_35\n      jump\t// in\n    tag_45:\n        /* \"libraries/operators.sol\":535:562  (a * b) <= ((2 ** 256) - 1) */\n      gt\n      iszero\n        /* \"libraries/operators.sol\":527:598  require((a * b) <= ((2 ** 256) - 1), \"Library Error, Number overflow.\") */\n      tag_46\n      jumpi\n      mload(0x40)\n      0x08c379a000000000000000000000000000000000000000000000000000000000\n      dup2\n      mstore\n      0x04\n      add\n      tag_47\n      swap1\n      tag_48\n      jump\t// in\n    tag_47:\n      mload(0x40)\n      dup1\n      swap2\n      sub\n      swap1\n      revert\n    tag_46:\n        /* \"libraries/operators.sol\":609:618  uint prod */\n      0x00\n        /* \"libraries/operators.sol\":625:626  b */\n      dup3\n        /* \"libraries/operators.sol\":621:622  a */\n      dup5\n        /* \"libraries/operators.sol\":621:626  a * b */\n      tag_49\n      swap2\n      swap1\n      tag_35\n      jump\t// in\n    tag_49:\n        /* \"libraries/operators.sol\":609:626  uint prod = a * b */\n      swap1\n      pop\n        /* \"libraries/operators.sol\":644:648  prod */\n      dup1\n        /* \"libraries/operators.sol\":637:648  return prod */\n      swap2\n      pop\n      pop\n        /* \"libraries/operators.sol\":456:656  function mul(uint a, uint b) public pure returns(uint)... */\n      swap3\n      swap2\n      pop\n      pop\n      jump\t// out\n        /* \"libraries/operators.sol\":860:1018  function add_arr(uint[] memory arr) public pure returns(uint)... */\n    tag_28:\n        /* \"libraries/operators.sol\":916:920  uint */\n      0x00\n        /* \"libraries/operators.sol\":943:949  uint i */\n      dup1\n        /* \"libraries/operators.sol\":952:953  0 */\n      0x00\n        /* \"libraries/operators.sol\":943:953  uint i = 0 */\n      swap1\n      pop\n        /* \"libraries/operators.sol\":938:1011  for (uint i = 0; i < arr.length; i++)... */\n    tag_51:\n        /* \"libraries/operators.sol\":959:962  arr */\n      dup3\n        /* \"libraries/operators.sol\":959:969  arr.length */\n      mload\n        /* \"libraries/operators.sol\":955:956  i */\n      dup2\n        /* \"libraries/operators.sol\":955:969  i < arr.length */\n      lt\n        /* \"libraries/operators.sol\":938:1011  for (uint i = 0; i < arr.length; i++)... */\n      iszero\n      tag_52\n      jumpi\n        /* \"libraries/operators.sol\":971:974  i++ */\n      dup1\n      dup1\n      tag_54\n      swap1\n      tag_55\n      jump\t// in\n    tag_54:\n      swap2\n      pop\n      pop\n        /* \"libraries/operators.sol\":938:1011  for (uint i = 0; i < arr.length; i++)... */\n      jump(tag_51)\n    tag_52:\n      pop\n        /* \"libraries/operators.sol\":860:1018  function add_arr(uint[] memory arr) public pure returns(uint)... */\n      swap2\n      swap1\n      pop\n      jump\t// out\n        /* \"#utility.yul\":7:82   */\n    tag_56:\n        /* \"#utility.yul\":40:46   */\n      0x00\n        /* \"#utility.yul\":73:75   */\n      0x40\n        /* \"#utility.yul\":67:76   */\n      mload\n        /* \"#utility.yul\":57:76   */\n      swap1\n      pop\n        /* \"#utility.yul\":7:82   */\n      swap1\n      jump\t// out\n        /* \"#utility.yul\":88:205   */\n    tag_57:\n        /* \"#utility.yul\":197:198   */\n      0x00\n        /* \"#utility.yul\":194:195   */\n      dup1\n        /* \"#utility.yul\":187:199   */\n      revert\n        /* \"#utility.yul\":211:328   */\n    tag_58:\n        /* \"#utility.yul\":320:321   */\n      0x00\n        /* \"#utility.yul\":317:318   */\n      dup1\n        /* \"#utility.yul\":310:322   */\n      revert\n        /* \"#utility.yul\":334:411   */\n    tag_59:\n        /* \"#utility.yul\":371:378   */\n      0x00\n        /* \"#utility.yul\":400:405   */\n      dup2\n        /* \"#utility.yul\":389:405   */\n      swap1\n      pop\n        /* \"#utility.yul\":334:411   */\n      swap2\n      swap1\n      pop\n      jump\t// out\n        /* \"#utility.yul\":417:539   */\n    tag_60:\n        /* \"#utility.yul\":490:514   */\n      tag_85\n        /* \"#utility.yul\":508:513   */\n      dup2\n        /* \"#utility.yul\":490:514   */\n      tag_59\n      jump\t// in\n    tag_85:\n        /* \"#utility.yul\":483:488   */\n      dup2\n        /* \"#utility.yul\":480:515   */\n      eq\n        /* \"#utility.yul\":470:533   */\n      tag_86\n      jumpi\n        /* \"#utility.yul\":529:530   */\n      0x00\n        /* \"#utility.yul\":526:527   */\n      dup1\n        /* \"#utility.yul\":519:531   */\n      revert\n        /* \"#utility.yul\":470:533   */\n    tag_86:\n        /* \"#utility.yul\":417:539   */\n      pop\n      jump\t// out\n        /* \"#utility.yul\":545:684   */\n    tag_61:\n        /* \"#utility.yul\":591:596   */\n      0x00\n        /* \"#utility.yul\":629:635   */\n      dup2\n        /* \"#utility.yul\":616:636   */\n      calldataload\n        /* \"#utility.yul\":607:636   */\n      swap1\n      pop\n        /* \"#utility.yul\":645:678   */\n      tag_88\n        /* \"#utility.yul\":672:677   */\n      dup2\n        /* \"#utility.yul\":645:678   */\n      tag_60\n      jump\t// in\n    tag_88:\n        /* \"#utility.yul\":545:684   */\n      swap3\n      swap2\n      pop\n      pop\n      jump\t// out\n        /* \"#utility.yul\":690:1164   */\n    tag_9:\n        /* \"#utility.yul\":758:764   */\n      0x00\n        /* \"#utility.yul\":766:772   */\n      dup1\n        /* \"#utility.yul\":815:817   */\n      0x40\n        /* \"#utility.yul\":803:812   */\n      dup4\n        /* \"#utility.yul\":794:801   */\n      dup6\n        /* \"#utility.yul\":790:813   */\n      sub\n        /* \"#utility.yul\":786:818   */\n      slt\n        /* \"#utility.yul\":783:902   */\n      iszero\n      tag_90\n      jumpi\n        /* \"#utility.yul\":821:900   */\n      tag_91\n      tag_57\n      jump\t// in\n    tag_91:\n        /* \"#utility.yul\":783:902   */\n    tag_90:\n        /* \"#utility.yul\":941:942   */\n      0x00\n        /* \"#utility.yul\":966:1019   */\n      tag_92\n        /* \"#utility.yul\":1011:1018   */\n      dup6\n        /* \"#utility.yul\":1002:1008   */\n      dup3\n        /* \"#utility.yul\":991:1000   */\n      dup7\n        /* \"#utility.yul\":987:1009   */\n      add\n        /* \"#utility.yul\":966:1019   */\n      tag_61\n      jump\t// in\n    tag_92:\n        /* \"#utility.yul\":956:1019   */\n      swap3\n      pop\n        /* \"#utility.yul\":912:1029   */\n      pop\n        /* \"#utility.yul\":1068:1070   */\n      0x20\n        /* \"#utility.yul\":1094:1147   */\n      tag_93\n        /* \"#utility.yul\":1139:1146   */\n      dup6\n        /* \"#utility.yul\":1130:1136   */\n      dup3\n        /* \"#utility.yul\":1119:1128   */\n      dup7\n        /* \"#utility.yul\":1115:1137   */\n      add\n        /* \"#utility.yul\":1094:1147   */\n      tag_61\n      jump\t// in\n    tag_93:\n        /* \"#utility.yul\":1084:1147   */\n      swap2\n      pop\n        /* \"#utility.yul\":1039:1157   */\n      pop\n        /* \"#utility.yul\":690:1164   */\n      swap3\n      pop\n      swap3\n      swap1\n      pop\n      jump\t// out\n        /* \"#utility.yul\":1170:1296   */\n    tag_62:\n        /* \"#utility.yul\":1265:1289   */\n      tag_95\n        /* \"#utility.yul\":1283:1288   */\n      dup2\n        /* \"#utility.yul\":1265:1289   */\n      tag_59\n      jump\t// in\n    tag_95:\n        /* \"#utility.yul\":1260:1263   */\n      dup3\n        /* \"#utility.yul\":1253:1290   */\n      mstore\n        /* \"#utility.yul\":1170:1296   */\n      pop\n      pop\n      jump\t// out\n        /* \"#utility.yul\":1302:1540   */\n    tag_12:\n        /* \"#utility.yul\":1403:1407   */\n      0x00\n        /* \"#utility.yul\":1441:1443   */\n      0x20\n        /* \"#utility.yul\":1430:1439   */\n      dup3\n        /* \"#utility.yul\":1426:1444   */\n      add\n        /* \"#utility.yul\":1418:1444   */\n      swap1\n      pop\n        /* \"#utility.yul\":1454:1533   */\n      tag_97\n        /* \"#utility.yul\":1530:1531   */\n      0x00\n        /* \"#utility.yul\":1519:1528   */\n      dup4\n        /* \"#utility.yul\":1515:1532   */\n      add\n        /* \"#utility.yul\":1506:1512   */\n      dup5\n        /* \"#utility.yul\":1454:1533   */\n      tag_62\n      jump\t// in\n    tag_97:\n        /* \"#utility.yul\":1302:1540   */\n      swap3\n      swap2\n      pop\n      pop\n      jump\t// out\n        /* \"#utility.yul\":1546:1663   */\n    tag_63:\n        /* \"#utility.yul\":1655:1656   */\n      0x00\n        /* \"#utility.yul\":1652:1653   */\n      dup1\n        /* \"#utility.yul\":1645:1657   */\n      revert\n        /* \"#utility.yul\":1669:1771   */\n    tag_64:\n        /* \"#utility.yul\":1710:1716   */\n      0x00\n        /* \"#utility.yul\":1761:1763   */\n      0x1f\n        /* \"#utility.yul\":1757:1764   */\n      not\n        /* \"#utility.yul\":1752:1754   */\n      0x1f\n        /* \"#utility.yul\":1745:1750   */\n      dup4\n        /* \"#utility.yul\":1741:1755   */\n      add\n        /* \"#utility.yul\":1737:1765   */\n      and\n        /* \"#utility.yul\":1727:1765   */\n      swap1\n      pop\n        /* \"#utility.yul\":1669:1771   */\n      swap2\n      swap1\n      pop\n      jump\t// out\n        /* \"#utility.yul\":1777:1957   */\n    tag_65:\n        /* \"#utility.yul\":1825:1902   */\n      0x4e487b7100000000000000000000000000000000000000000000000000000000\n        /* \"#utility.yul\":1822:1823   */\n      0x00\n        /* \"#utility.yul\":1815:1903   */\n      mstore\n        /* \"#utility.yul\":1922:1926   */\n      0x41\n        /* \"#utility.yul\":1919:1920   */\n      0x04\n        /* \"#utility.yul\":1912:1927   */\n      mstore\n        /* \"#utility.yul\":1946:1950   */\n      0x24\n        /* \"#utility.yul\":1943:1944   */\n      0x00\n        /* \"#utility.yul\":1936:1951   */\n      revert\n        /* \"#utility.yul\":1963:2244   */\n    tag_66:\n        /* \"#utility.yul\":2046:2073   */\n      tag_102\n        /* \"#utility.yul\":2068:2072   */\n      dup3\n        /* \"#utility.yul\":2046:2073   */\n      tag_64\n      jump\t// in\n    tag_102:\n        /* \"#utility.yul\":2038:2044   */\n      dup2\n        /* \"#utility.yul\":2034:2074   */\n      add\n        /* \"#utility.yul\":2176:2182   */\n      dup2\n        /* \"#utility.yul\":2164:2174   */\n      dup2\n        /* \"#utility.yul\":2161:2183   */\n      lt\n        /* \"#utility.yul\":2140:2158   */\n      0xffffffffffffffff\n        /* \"#utility.yul\":2128:2138   */\n      dup3\n        /* \"#utility.yul\":2125:2159   */\n      gt\n        /* \"#utility.yul\":2122:2184   */\n      or\n        /* \"#utility.yul\":2119:2207   */\n      iszero\n      tag_103\n      jumpi\n        /* \"#utility.yul\":2187:2205   */\n      tag_104\n      tag_65\n      jump\t// in\n    tag_104:\n        /* \"#utility.yul\":2119:2207   */\n    tag_103:\n        /* \"#utility.yul\":2227:2237   */\n      dup1\n        /* \"#utility.yul\":2223:2225   */\n      0x40\n        /* \"#utility.yul\":2216:2238   */\n      mstore\n        /* \"#utility.yul\":2006:2244   */\n      pop\n        /* \"#utility.yul\":1963:2244   */\n      pop\n      pop\n      jump\t// out\n        /* \"#utility.yul\":2250:2379   */\n    tag_67:\n        /* \"#utility.yul\":2284:2290   */\n      0x00\n        /* \"#utility.yul\":2311:2331   */\n      tag_106\n      tag_56\n      jump\t// in\n    tag_106:\n        /* \"#utility.yul\":2301:2331   */\n      swap1\n      pop\n        /* \"#utility.yul\":2340:2373   */\n      tag_107\n        /* \"#utility.yul\":2368:2372   */\n      dup3\n        /* \"#utility.yul\":2360:2366   */\n      dup3\n        /* \"#utility.yul\":2340:2373   */\n      tag_66\n      jump\t// in\n    tag_107:\n        /* \"#utility.yul\":2250:2379   */\n      swap2\n      swap1\n      pop\n      jump\t// out\n        /* \"#utility.yul\":2385:2696   */\n    tag_68:\n        /* \"#utility.yul\":2462:2466   */\n      0x00\n        /* \"#utility.yul\":2552:2570   */\n      0xffffffffffffffff\n        /* \"#utility.yul\":2544:2550   */\n      dup3\n        /* \"#utility.yul\":2541:2571   */\n      gt\n        /* \"#utility.yul\":2538:2594   */\n      iszero\n      tag_109\n      jumpi\n        /* \"#utility.yul\":2574:2592   */\n      tag_110\n      tag_65\n      jump\t// in\n    tag_110:\n        /* \"#utility.yul\":2538:2594   */\n    tag_109:\n        /* \"#utility.yul\":2624:2628   */\n      0x20\n        /* \"#utility.yul\":2616:2622   */\n      dup3\n        /* \"#utility.yul\":2612:2629   */\n      mul\n        /* \"#utility.yul\":2604:2629   */\n      swap1\n      pop\n        /* \"#utility.yul\":2684:2688   */\n      0x20\n        /* \"#utility.yul\":2678:2682   */\n      dup2\n        /* \"#utility.yul\":2674:2689   */\n      add\n        /* \"#utility.yul\":2666:2689   */\n      swap1\n      pop\n        /* \"#utility.yul\":2385:2696   */\n      swap2\n      swap1\n      pop\n      jump\t// out\n        /* \"#utility.yul\":2702:2819   */\n    tag_69:\n        /* \"#utility.yul\":2811:2812   */\n      0x00\n        /* \"#utility.yul\":2808:2809   */\n      dup1\n        /* \"#utility.yul\":2801:2813   */\n      revert\n        /* \"#utility.yul\":2842:3552   */\n    tag_70:\n        /* \"#utility.yul\":2938:2943   */\n      0x00\n        /* \"#utility.yul\":2963:3044   */\n      tag_113\n        /* \"#utility.yul\":2979:3043   */\n      tag_114\n        /* \"#utility.yul\":3036:3042   */\n      dup5\n        /* \"#utility.yul\":2979:3043   */\n      tag_68\n      jump\t// in\n    tag_114:\n        /* \"#utility.yul\":2963:3044   */\n      tag_67\n      jump\t// in\n    tag_113:\n        /* \"#utility.yul\":2954:3044   */\n      swap1\n      pop\n        /* \"#utility.yul\":3064:3069   */\n      dup1\n        /* \"#utility.yul\":3093:3099   */\n      dup4\n        /* \"#utility.yul\":3086:3091   */\n      dup3\n        /* \"#utility.yul\":3079:3100   */\n      mstore\n        /* \"#utility.yul\":3127:3131   */\n      0x20\n        /* \"#utility.yul\":3120:3125   */\n      dup3\n        /* \"#utility.yul\":3116:3132   */\n      add\n        /* \"#utility.yul\":3109:3132   */\n      swap1\n      pop\n        /* \"#utility.yul\":3180:3184   */\n      0x20\n        /* \"#utility.yul\":3172:3178   */\n      dup5\n        /* \"#utility.yul\":3168:3185   */\n      mul\n        /* \"#utility.yul\":3160:3166   */\n      dup4\n        /* \"#utility.yul\":3156:3186   */\n      add\n        /* \"#utility.yul\":3209:3212   */\n      dup6\n        /* \"#utility.yul\":3201:3207   */\n      dup2\n        /* \"#utility.yul\":3198:3213   */\n      gt\n        /* \"#utility.yul\":3195:3317   */\n      iszero\n      tag_115\n      jumpi\n        /* \"#utility.yul\":3228:3307   */\n      tag_116\n      tag_69\n      jump\t// in\n    tag_116:\n        /* \"#utility.yul\":3195:3317   */\n    tag_115:\n        /* \"#utility.yul\":3343:3349   */\n      dup4\n        /* \"#utility.yul\":3326:3546   */\n    tag_117:\n        /* \"#utility.yul\":3360:3366   */\n      dup2\n        /* \"#utility.yul\":3355:3358   */\n      dup2\n        /* \"#utility.yul\":3352:3367   */\n      lt\n        /* \"#utility.yul\":3326:3546   */\n      iszero\n      tag_119\n      jumpi\n        /* \"#utility.yul\":3435:3438   */\n      dup1\n        /* \"#utility.yul\":3464:3501   */\n      tag_120\n        /* \"#utility.yul\":3497:3500   */\n      dup9\n        /* \"#utility.yul\":3485:3495   */\n      dup3\n        /* \"#utility.yul\":3464:3501   */\n      tag_61\n      jump\t// in\n    tag_120:\n        /* \"#utility.yul\":3459:3462   */\n      dup5\n        /* \"#utility.yul\":3452:3502   */\n      mstore\n        /* \"#utility.yul\":3531:3535   */\n      0x20\n        /* \"#utility.yul\":3526:3529   */\n      dup5\n        /* \"#utility.yul\":3522:3536   */\n      add\n        /* \"#utility.yul\":3515:3536   */\n      swap4\n      pop\n        /* \"#utility.yul\":3402:3546   */\n      pop\n        /* \"#utility.yul\":3386:3390   */\n      0x20\n        /* \"#utility.yul\":3381:3384   */\n      dup2\n        /* \"#utility.yul\":3377:3391   */\n      add\n        /* \"#utility.yul\":3370:3391   */\n      swap1\n      pop\n        /* \"#utility.yul\":3326:3546   */\n      jump(tag_117)\n    tag_119:\n        /* \"#utility.yul\":3330:3351   */\n      pop\n        /* \"#utility.yul\":2944:3552   */\n      pop\n      pop\n        /* \"#utility.yul\":2842:3552   */\n      swap4\n      swap3\n      pop\n      pop\n      pop\n      jump\t// out\n        /* \"#utility.yul\":3575:3945   */\n    tag_71:\n        /* \"#utility.yul\":3646:3651   */\n      0x00\n        /* \"#utility.yul\":3695:3698   */\n      dup3\n        /* \"#utility.yul\":3688:3692   */\n      0x1f\n        /* \"#utility.yul\":3680:3686   */\n      dup4\n        /* \"#utility.yul\":3676:3693   */\n      add\n        /* \"#utility.yul\":3672:3699   */\n      slt\n        /* \"#utility.yul\":3662:3784   */\n      tag_122\n      jumpi\n        /* \"#utility.yul\":3703:3782   */\n      tag_123\n      tag_63\n      jump\t// in\n    tag_123:\n        /* \"#utility.yul\":3662:3784   */\n    tag_122:\n        /* \"#utility.yul\":3820:3826   */\n      dup2\n        /* \"#utility.yul\":3807:3827   */\n      calldataload\n        /* \"#utility.yul\":3845:3939   */\n      tag_124\n        /* \"#utility.yul\":3935:3938   */\n      dup5\n        /* \"#utility.yul\":3927:3933   */\n      dup3\n        /* \"#utility.yul\":3920:3924   */\n      0x20\n        /* \"#utility.yul\":3912:3918   */\n      dup7\n        /* \"#utility.yul\":3908:3925   */\n      add\n        /* \"#utility.yul\":3845:3939   */\n      tag_70\n      jump\t// in\n    tag_124:\n        /* \"#utility.yul\":3836:3939   */\n      swap2\n      pop\n        /* \"#utility.yul\":3652:3945   */\n      pop\n        /* \"#utility.yul\":3575:3945   */\n      swap3\n      swap2\n      pop\n      pop\n      jump\t// out\n        /* \"#utility.yul\":3951:4490   */\n    tag_27:\n        /* \"#utility.yul\":4035:4041   */\n      0x00\n        /* \"#utility.yul\":4084:4086   */\n      0x20\n        /* \"#utility.yul\":4072:4081   */\n      dup3\n        /* \"#utility.yul\":4063:4070   */\n      dup5\n        /* \"#utility.yul\":4059:4082   */\n      sub\n        /* \"#utility.yul\":4055:4087   */\n      slt\n        /* \"#utility.yul\":4052:4171   */\n      iszero\n      tag_126\n      jumpi\n        /* \"#utility.yul\":4090:4169   */\n      tag_127\n      tag_57\n      jump\t// in\n    tag_127:\n        /* \"#utility.yul\":4052:4171   */\n    tag_126:\n        /* \"#utility.yul\":4238:4239   */\n      0x00\n        /* \"#utility.yul\":4227:4236   */\n      dup3\n        /* \"#utility.yul\":4223:4240   */\n      add\n        /* \"#utility.yul\":4210:4241   */\n      calldataload\n        /* \"#utility.yul\":4268:4286   */\n      0xffffffffffffffff\n        /* \"#utility.yul\":4260:4266   */\n      dup2\n        /* \"#utility.yul\":4257:4287   */\n      gt\n        /* \"#utility.yul\":4254:4371   */\n      iszero\n      tag_128\n      jumpi\n        /* \"#utility.yul\":4290:4369   */\n      tag_129\n      tag_58\n      jump\t// in\n    tag_129:\n        /* \"#utility.yul\":4254:4371   */\n    tag_128:\n        /* \"#utility.yul\":4395:4473   */\n      tag_130\n        /* \"#utility.yul\":4465:4472   */\n      dup5\n        /* \"#utility.yul\":4456:4462   */\n      dup3\n        /* \"#utility.yul\":4445:4454   */\n      dup6\n        /* \"#utility.yul\":4441:4463   */\n      add\n        /* \"#utility.yul\":4395:4473   */\n      tag_71\n      jump\t// in\n    tag_130:\n        /* \"#utility.yul\":4385:4473   */\n      swap2\n      pop\n        /* \"#utility.yul\":4181:4483   */\n      pop\n        /* \"#utility.yul\":3951:4490   */\n      swap3\n      swap2\n      pop\n      pop\n      jump\t// out\n        /* \"#utility.yul\":4496:4676   */\n    tag_72:\n        /* \"#utility.yul\":4544:4621   */\n      0x4e487b7100000000000000000000000000000000000000000000000000000000\n        /* \"#utility.yul\":4541:4542   */\n      0x00\n        /* \"#utility.yul\":4534:4622   */\n      mstore\n        /* \"#utility.yul\":4641:4645   */\n      0x11\n        /* \"#utility.yul\":4638:4639   */\n      0x04\n        /* \"#utility.yul\":4631:4646   */\n      mstore\n        /* \"#utility.yul\":4665:4669   */\n      0x24\n        /* \"#utility.yul\":4662:4663   */\n      0x00\n        /* \"#utility.yul\":4655:4670   */\n      revert\n        /* \"#utility.yul\":4682:4987   */\n    tag_32:\n        /* \"#utility.yul\":4722:4725   */\n      0x00\n        /* \"#utility.yul\":4741:4761   */\n      tag_133\n        /* \"#utility.yul\":4759:4760   */\n      dup3\n        /* \"#utility.yul\":4741:4761   */\n      tag_59\n      jump\t// in\n    tag_133:\n        /* \"#utility.yul\":4736:4761   */\n      swap2\n      pop\n        /* \"#utility.yul\":4775:4795   */\n      tag_134\n        /* \"#utility.yul\":4793:4794   */\n      dup4\n        /* \"#utility.yul\":4775:4795   */\n      tag_59\n      jump\t// in\n    tag_134:\n        /* \"#utility.yul\":4770:4795   */\n      swap3\n      pop\n        /* \"#utility.yul\":4929:4930   */\n      dup3\n        /* \"#utility.yul\":4861:4927   */\n      0xffffffffffffffffffffffffffffffffffffffffffffffffffffffffffffffff\n        /* \"#utility.yul\":4857:4931   */\n      sub\n        /* \"#utility.yul\":4854:4855   */\n      dup3\n        /* \"#utility.yul\":4851:4932   */\n      gt\n        /* \"#utility.yul\":4848:4955   */\n      iszero\n      tag_135\n      jumpi\n        /* \"#utility.yul\":4935:4953   */\n      tag_136\n      tag_72\n      jump\t// in\n    tag_136:\n        /* \"#utility.yul\":4848:4955   */\n    tag_135:\n        /* \"#utility.yul\":4979:4980   */\n      dup3\n        /* \"#utility.yul\":4976:4977   */\n      dup3\n        /* \"#utility.yul\":4972:4981   */\n      add\n        /* \"#utility.yul\":4965:4981   */\n      swap1\n      pop\n        /* \"#utility.yul\":4682:4987   */\n      swap3\n      swap2\n      pop\n      pop\n      jump\t// out\n        /* \"#utility.yul\":4993:5341   */\n    tag_35:\n        /* \"#utility.yul\":5033:5040   */\n      0x00\n        /* \"#utility.yul\":5056:5076   */\n      tag_138\n        /* \"#utility.yul\":5074:5075   */\n      dup3\n        /* \"#utility.yul\":5056:5076   */\n      tag_59\n      jump\t// in\n    tag_138:\n        /* \"#utility.yul\":5051:5076   */\n      swap2\n      pop\n        /* \"#utility.yul\":5090:5110   */\n      tag_139\n        /* \"#utility.yul\":5108:5109   */\n      dup4\n        /* \"#utility.yul\":5090:5110   */\n      tag_59\n      jump\t// in\n    tag_139:\n        /* \"#utility.yul\":5085:5110   */\n      swap3\n      pop\n        /* \"#utility.yul\":5278:5279   */\n      dup2\n        /* \"#utility.yul\":5210:5276   */\n      0xffffffffffffffffffffffffffffffffffffffffffffffffffffffffffffffff\n        /* \"#utility.yul\":5206:5280   */\n      div\n        /* \"#utility.yul\":5203:5204   */\n      dup4\n        /* \"#utility.yul\":5200:5281   */\n      gt\n        /* \"#utility.yul\":5195:5196   */\n      dup3\n        /* \"#utility.yul\":5188:5197   */\n      iszero\n        /* \"#utility.yul\":5181:5198   */\n      iszero\n        /* \"#utility.yul\":5177:5282   */\n      and\n        /* \"#utility.yul\":5174:5305   */\n      iszero\n      tag_140\n      jumpi\n        /* \"#utility.yul\":5285:5303   */\n      tag_141\n      tag_72\n      jump\t// in\n    tag_141:\n        /* \"#utility.yul\":5174:5305   */\n    tag_140:\n        /* \"#utility.yul\":5333:5334   */\n      dup3\n        /* \"#utility.yul\":5330:5331   */\n      dup3\n        /* \"#utility.yul\":5326:5335   */\n      mul\n        /* \"#utility.yul\":5315:5335   */\n      swap1\n      pop\n        /* \"#utility.yul\":4993:5341   */\n      swap3\n      swap2\n      pop\n      pop\n      jump\t// out\n        /* \"#utility.yul\":5347:5527   */\n    tag_73:\n        /* \"#utility.yul\":5395:5472   */\n      0x4e487b7100000000000000000000000000000000000000000000000000000000\n        /* \"#utility.yul\":5392:5393   */\n      0x00\n        /* \"#utility.yul\":5385:5473   */\n      mstore\n        /* \"#utility.yul\":5492:5496   */\n      0x12\n        /* \"#utility.yul\":5489:5490   */\n      0x04\n        /* \"#utility.yul\":5482:5497   */\n      mstore\n        /* \"#utility.yul\":5516:5520   */\n      0x24\n        /* \"#utility.yul\":5513:5514   */\n      0x00\n        /* \"#utility.yul\":5506:5521   */\n      revert\n        /* \"#utility.yul\":5533:5718   */\n    tag_37:\n        /* \"#utility.yul\":5573:5574   */\n      0x00\n        /* \"#utility.yul\":5590:5610   */\n      tag_144\n        /* \"#utility.yul\":5608:5609   */\n      dup3\n        /* \"#utility.yul\":5590:5610   */\n      tag_59\n      jump\t// in\n    tag_144:\n        /* \"#utility.yul\":5585:5610   */\n      swap2\n      pop\n        /* \"#utility.yul\":5624:5644   */\n      tag_145\n        /* \"#utility.yul\":5642:5643   */\n      dup4\n        /* \"#utility.yul\":5624:5644   */\n      tag_59\n      jump\t// in\n    tag_145:\n        /* \"#utility.yul\":5619:5644   */\n      swap3\n      pop\n        /* \"#utility.yul\":5663:5664   */\n      dup3\n        /* \"#utility.yul\":5653:5688   */\n      tag_146\n      jumpi\n        /* \"#utility.yul\":5668:5686   */\n      tag_147\n      tag_73\n      jump\t// in\n    tag_147:\n        /* \"#utility.yul\":5653:5688   */\n    tag_146:\n        /* \"#utility.yul\":5710:5711   */\n      dup3\n        /* \"#utility.yul\":5707:5708   */\n      dup3\n        /* \"#utility.yul\":5703:5712   */\n      div\n        /* \"#utility.yul\":5698:5712   */\n      swap1\n      pop\n        /* \"#utility.yul\":5533:5718   */\n      swap3\n      swap2\n      pop\n      pop\n      jump\t// out\n        /* \"#utility.yul\":5724:5893   */\n    tag_74:\n        /* \"#utility.yul\":5808:5819   */\n      0x00\n        /* \"#utility.yul\":5842:5848   */\n      dup3\n        /* \"#utility.yul\":5837:5840   */\n      dup3\n        /* \"#utility.yul\":5830:5849   */\n      mstore\n        /* \"#utility.yul\":5882:5886   */\n      0x20\n        /* \"#utility.yul\":5877:5880   */\n      dup3\n        /* \"#utility.yul\":5873:5887   */\n      add\n        /* \"#utility.yul\":5858:5887   */\n      swap1\n      pop\n        /* \"#utility.yul\":5724:5893   */\n      swap3\n      swap2\n      pop\n      pop\n      jump\t// out\n        /* \"#utility.yul\":5899:6192   */\n    tag_75:\n        /* \"#utility.yul\":6039:6073   */\n      0x4c696272617279206572726f723a205365636f6e6420706172616d6574657220\n        /* \"#utility.yul\":6035:6036   */\n      0x00\n        /* \"#utility.yul\":6027:6033   */\n      dup3\n        /* \"#utility.yul\":6023:6037   */\n      add\n        /* \"#utility.yul\":6016:6074   */\n      mstore\n        /* \"#utility.yul\":6108:6142   */\n      0x73686f756c64206265206c657373206f7220657175616c20746f207468652066\n        /* \"#utility.yul\":6103:6105   */\n      0x20\n        /* \"#utility.yul\":6095:6101   */\n      dup3\n        /* \"#utility.yul\":6091:6106   */\n      add\n        /* \"#utility.yul\":6084:6143   */\n      mstore\n        /* \"#utility.yul\":6177:6184   */\n      0x697273742e000000000000000000000000000000000000000000000000000000\n        /* \"#utility.yul\":6172:6174   */\n      0x40\n        /* \"#utility.yul\":6164:6170   */\n      dup3\n        /* \"#utility.yul\":6160:6175   */\n      add\n        /* \"#utility.yul\":6153:6185   */\n      mstore\n        /* \"#utility.yul\":5899:6192   */\n      pop\n      jump\t// out\n        /* \"#utility.yul\":6198:6564   */\n    tag_76:\n        /* \"#utility.yul\":6340:6343   */\n      0x00\n        /* \"#utility.yul\":6361:6428   */\n      tag_151\n        /* \"#utility.yul\":6425:6427   */\n      0x45\n        /* \"#utility.yul\":6420:6423   */\n      dup4\n        /* \"#utility.yul\":6361:6428   */\n      tag_74\n      jump\t// in\n    tag_151:\n        /* \"#utility.yul\":6354:6428   */\n      swap2\n      pop\n        /* \"#utility.yul\":6437:6530   */\n      tag_152\n        /* \"#utility.yul\":6526:6529   */\n      dup3\n        /* \"#utility.yul\":6437:6530   */\n      tag_75\n      jump\t// in\n    tag_152:\n        /* \"#utility.yul\":6555:6557   */\n      0x60\n        /* \"#utility.yul\":6550:6553   */\n      dup3\n        /* \"#utility.yul\":6546:6558   */\n      add\n        /* \"#utility.yul\":6539:6558   */\n      swap1\n      pop\n        /* \"#utility.yul\":6198:6564   */\n      swap2\n      swap1\n      pop\n      jump\t// out\n        /* \"#utility.yul\":6570:6989   */\n    tag_41:\n        /* \"#utility.yul\":6736:6740   */\n      0x00\n        /* \"#utility.yul\":6774:6776   */\n      0x20\n        /* \"#utility.yul\":6763:6772   */\n      dup3\n        /* \"#utility.yul\":6759:6777   */\n      add\n        /* \"#utility.yul\":6751:6777   */\n      swap1\n      pop\n        /* \"#utility.yul\":6823:6832   */\n      dup2\n        /* \"#utility.yul\":6817:6821   */\n      dup2\n        /* \"#utility.yul\":6813:6833   */\n      sub\n        /* \"#utility.yul\":6809:6810   */\n      0x00\n        /* \"#utility.yul\":6798:6807   */\n      dup4\n        /* \"#utility.yul\":6794:6811   */\n      add\n        /* \"#utility.yul\":6787:6834   */\n      mstore\n        /* \"#utility.yul\":6851:6982   */\n      tag_154\n        /* \"#utility.yul\":6977:6981   */\n      dup2\n        /* \"#utility.yul\":6851:6982   */\n      tag_76\n      jump\t// in\n    tag_154:\n        /* \"#utility.yul\":6843:6982   */\n      swap1\n      pop\n        /* \"#utility.yul\":6570:6989   */\n      swap2\n      swap1\n      pop\n      jump\t// out\n        /* \"#utility.yul\":6995:7186   */\n    tag_43:\n        /* \"#utility.yul\":7035:7039   */\n      0x00\n        /* \"#utility.yul\":7055:7075   */\n      tag_156\n        /* \"#utility.yul\":7073:7074   */\n      dup3\n        /* \"#utility.yul\":7055:7075   */\n      tag_59\n      jump\t// in\n    tag_156:\n        /* \"#utility.yul\":7050:7075   */\n      swap2\n      pop\n        /* \"#utility.yul\":7089:7109   */\n      tag_157\n        /* \"#utility.yul\":7107:7108   */\n      dup4\n        /* \"#utility.yul\":7089:7109   */\n      tag_59\n      jump\t// in\n    tag_157:\n        /* \"#utility.yul\":7084:7109   */\n      swap3\n      pop\n        /* \"#utility.yul\":7128:7129   */\n      dup3\n        /* \"#utility.yul\":7125:7126   */\n      dup3\n        /* \"#utility.yul\":7122:7130   */\n      lt\n        /* \"#utility.yul\":7119:7153   */\n      iszero\n      tag_158\n      jumpi\n        /* \"#utility.yul\":7133:7151   */\n      tag_159\n      tag_72\n      jump\t// in\n    tag_159:\n        /* \"#utility.yul\":7119:7153   */\n    tag_158:\n        /* \"#utility.yul\":7178:7179   */\n      dup3\n        /* \"#utility.yul\":7175:7176   */\n      dup3\n        /* \"#utility.yul\":7171:7180   */\n      sub\n        /* \"#utility.yul\":7163:7180   */\n      swap1\n      pop\n        /* \"#utility.yul\":6995:7186   */\n      swap3\n      swap2\n      pop\n      pop\n      jump\t// out\n        /* \"#utility.yul\":7192:7373   */\n    tag_77:\n        /* \"#utility.yul\":7332:7365   */\n      0x4c696272617279204572726f722c204e756d626572206f766572666c6f772e00\n        /* \"#utility.yul\":7328:7329   */\n      0x00\n        /* \"#utility.yul\":7320:7326   */\n      dup3\n        /* \"#utility.yul\":7316:7330   */\n      add\n        /* \"#utility.yul\":7309:7366   */\n      mstore\n        /* \"#utility.yul\":7192:7373   */\n      pop\n      jump\t// out\n        /* \"#utility.yul\":7379:7745   */\n    tag_78:\n        /* \"#utility.yul\":7521:7524   */\n      0x00\n        /* \"#utility.yul\":7542:7609   */\n      tag_162\n        /* \"#utility.yul\":7606:7608   */\n      0x1f\n        /* \"#utility.yul\":7601:7604   */\n      dup4\n        /* \"#utility.yul\":7542:7609   */\n      tag_74\n      jump\t// in\n    tag_162:\n        /* \"#utility.yul\":7535:7609   */\n      swap2\n      pop\n        /* \"#utility.yul\":7618:7711   */\n      tag_163\n        /* \"#utility.yul\":7707:7710   */\n      dup3\n        /* \"#utility.yul\":7618:7711   */\n      tag_77\n      jump\t// in\n    tag_163:\n        /* \"#utility.yul\":7736:7738   */\n      0x20\n        /* \"#utility.yul\":7731:7734   */\n      dup3\n        /* \"#utility.yul\":7727:7739   */\n      add\n        /* \"#utility.yul\":7720:7739   */\n      swap1\n      pop\n        /* \"#utility.yul\":7379:7745   */\n      swap2\n      swap1\n      pop\n      jump\t// out\n        /* \"#utility.yul\":7751:8170   */\n    tag_48:\n        /* \"#utility.yul\":7917:7921   */\n      0x00\n        /* \"#utility.yul\":7955:7957   */\n      0x20\n        /* \"#utility.yul\":7944:7953   */\n      dup3\n        /* \"#utility.yul\":7940:7958   */\n      add\n        /* \"#utility.yul\":7932:7958   */\n      swap1\n      pop\n        /* \"#utility.yul\":8004:8013   */\n      dup2\n        /* \"#utility.yul\":7998:8002   */\n      dup2\n        /* \"#utility.yul\":7994:8014   */\n      sub\n        /* \"#utility.yul\":7990:7991   */\n      0x00\n        /* \"#utility.yul\":7979:7988   */\n      dup4\n        /* \"#utility.yul\":7975:7992   */\n      add\n        /* \"#utility.yul\":7968:8015   */\n      mstore\n        /* \"#utility.yul\":8032:8163   */\n      tag_165\n        /* \"#utility.yul\":8158:8162   */\n      dup2\n        /* \"#utility.yul\":8032:8163   */\n      tag_78\n      jump\t// in\n    tag_165:\n        /* \"#utility.yul\":8024:8163   */\n      swap1\n      pop\n        /* \"#utility.yul\":7751:8170   */\n      swap2\n      swap1\n      pop\n      jump\t// out\n        /* \"#utility.yul\":8176:8409   */\n    tag_55:\n        /* \"#utility.yul\":8215:8218   */\n      0x00\n        /* \"#utility.yul\":8238:8262   */\n      tag_167\n        /* \"#utility.yul\":8256:8261   */\n      dup3\n        /* \"#utility.yul\":8238:8262   */\n      tag_59\n      jump\t// in\n    tag_167:\n        /* \"#utility.yul\":8229:8262   */\n      swap2\n      pop\n        /* \"#utility.yul\":8284:8350   */\n      0xffffffffffffffffffffffffffffffffffffffffffffffffffffffffffffffff\n        /* \"#utility.yul\":8277:8282   */\n      dup3\n        /* \"#utility.yul\":8274:8351   */\n      sub\n        /* \"#utility.yul\":8271:8374   */\n      tag_168\n      jumpi\n        /* \"#utility.yul\":8354:8372   */\n      tag_169\n      tag_72\n      jump\t// in\n    tag_169:\n        /* \"#utility.yul\":8271:8374   */\n    tag_168:\n        /* \"#utility.yul\":8401:8402   */\n      0x01\n        /* \"#utility.yul\":8394:8399   */\n      dup3\n        /* \"#utility.yul\":8390:8403   */\n      add\n        /* \"#utility.yul\":8383:8403   */\n      swap1\n      pop\n        /* \"#utility.yul\":8176:8409   */\n      swap2\n      swap1\n      pop\n      jump\t// out\n\n    auxdata: 0xa26469706673582212207204a2d2621ded836b1eecbb48d6451174e4631e3cd09fb7be69c9bef58a727964736f6c634300080d0033\n}\n",
				"bytecode": {
					"linkReferences": {},
					"object": "610827610053600b82828239805160001a607314610046577f4e487b7100000000000000000000000000000000000000000000000000000000600052600060045260246000fd5b30600052607381538281f3fe73000000000000000000000000000000000000000030146080604052600436106100615760003560e01c8063771602f714610066578063a391c15b14610096578063b67d77c5146100c6578063c8a4ac9c146100f6578063cea0713814610126575b600080fd5b610080600480360381019061007b91906102f5565b610156565b60405161008d9190610344565b60405180910390f35b6100b060048036038101906100ab91906102f5565b610171565b6040516100bd9190610344565b60405180910390f35b6100e060048036038101906100db91906102f5565b610198565b6040516100ed9190610344565b60405180910390f35b610110600480360381019061010b91906102f5565b6101f7565b60405161011d9190610344565b60405180910390f35b610140600480360381019061013b91906104b8565b610281565b60405161014d9190610344565b60405180910390f35b60008082846101659190610530565b90508091505092915050565b600080826064856101829190610586565b61018c919061060f565b90508091505092915050565b6000818310156101dd576040517f08c379a00000000000000000000000000000000000000000000000000000000081526004016101d4906106e9565b60405180910390fd5b600082846101eb9190610709565b90508091505092915050565b60007fffffffffffffffffffffffffffffffffffffffffffffffffffffffffffffffff82846102269190610586565b1115610267576040517f08c379a000000000000000000000000000000000000000000000000000000000815260040161025e90610789565b60405180910390fd5b600082846102759190610586565b90508091505092915050565b600080600090505b82518110156102a557808061029d906107a9565b915050610289565b50919050565b6000604051905090565b600080fd5b600080fd5b6000819050919050565b6102d2816102bf565b81146102dd57600080fd5b50565b6000813590506102ef816102c9565b92915050565b6000806040838503121561030c5761030b6102b5565b5b600061031a858286016102e0565b925050602061032b858286016102e0565b9150509250929050565b61033e816102bf565b82525050565b60006020820190506103596000830184610335565b92915050565b600080fd5b6000601f19601f8301169050919050565b7f4e487b7100000000000000000000000000000000000000000000000000000000600052604160045260246000fd5b6103ad82610364565b810181811067ffffffffffffffff821117156103cc576103cb610375565b5b80604052505050565b60006103df6102ab565b90506103eb82826103a4565b919050565b600067ffffffffffffffff82111561040b5761040a610375565b5b602082029050602081019050919050565b600080fd5b600061043461042f846103f0565b6103d5565b905080838252602082019050602084028301858111156104575761045661041c565b5b835b81811015610480578061046c88826102e0565b845260208401935050602081019050610459565b5050509392505050565b600082601f83011261049f5761049e61035f565b5b81356104af848260208601610421565b91505092915050565b6000602082840312156104ce576104cd6102b5565b5b600082013567ffffffffffffffff8111156104ec576104eb6102ba565b5b6104f88482850161048a565b91505092915050565b7f4e487b7100000000000000000000000000000000000000000000000000000000600052601160045260246000fd5b600061053b826102bf565b9150610546836102bf565b9250827fffffffffffffffffffffffffffffffffffffffffffffffffffffffffffffffff0382111561057b5761057a610501565b5b828201905092915050565b6000610591826102bf565b915061059c836102bf565b9250817fffffffffffffffffffffffffffffffffffffffffffffffffffffffffffffffff04831182151516156105d5576105d4610501565b5b828202905092915050565b7f4e487b7100000000000000000000000000000000000000000000000000000000600052601260045260246000fd5b600061061a826102bf565b9150610625836102bf565b925082610635576106346105e0565b5b828204905092915050565b600082825260208201905092915050565b7f4c696272617279206572726f723a205365636f6e6420706172616d657465722060008201527f73686f756c64206265206c657373206f7220657175616c20746f20746865206660208201527f697273742e000000000000000000000000000000000000000000000000000000604082015250565b60006106d3604583610640565b91506106de82610651565b606082019050919050565b60006020820190508181036000830152610702816106c6565b9050919050565b6000610714826102bf565b915061071f836102bf565b92508282101561073257610731610501565b5b828203905092915050565b7f4c696272617279204572726f722c204e756d626572206f766572666c6f772e00600082015250565b6000610773601f83610640565b915061077e8261073d565b602082019050919050565b600060208201905081810360008301526107a281610766565b9050919050565b60006107b4826102bf565b91507fffffffffffffffffffffffffffffffffffffffffffffffffffffffffffffffff82036107e6576107e5610501565b5b60018201905091905056fea26469706673582212207204a2d2621ded836b1eecbb48d6451174e4631e3cd09fb7be69c9bef58a727964736f6c634300080d0033",
					"opcodes": "PUSH2 0x827 PUSH2 0x53 PUSH1 0xB DUP3 DUP3 DUP3 CODECOPY DUP1 MLOAD PUSH1 0x0 BYTE PUSH1 0x73 EQ PUSH2 0x46 JUMPI PUSH32 0x4E487B7100000000000000000000000000000000000000000000000000000000 PUSH1 0x0 MSTORE PUSH1 0x0 PUSH1 0x4 MSTORE PUSH1 0x24 PUSH1 0x0 REVERT JUMPDEST ADDRESS PUSH1 0x0 MSTORE PUSH1 0x73 DUP2 MSTORE8 DUP3 DUP2 RETURN INVALID PUSH20 0x0 ADDRESS EQ PUSH1 0x80 PUSH1 0x40 MSTORE PUSH1 0x4 CALLDATASIZE LT PUSH2 0x61 JUMPI PUSH1 0x0 CALLDATALOAD PUSH1 0xE0 SHR DUP1 PUSH4 0x771602F7 EQ PUSH2 0x66 JUMPI DUP1 PUSH4 0xA391C15B EQ PUSH2 0x96 JUMPI DUP1 PUSH4 0xB67D77C5 EQ PUSH2 0xC6 JUMPI DUP1 PUSH4 0xC8A4AC9C EQ PUSH2 0xF6 JUMPI DUP1 PUSH4 0xCEA07138 EQ PUSH2 0x126 JUMPI JUMPDEST PUSH1 0x0 DUP1 REVERT JUMPDEST PUSH2 0x80 PUSH1 0x4 DUP1 CALLDATASIZE SUB DUP2 ADD SWAP1 PUSH2 0x7B SWAP2 SWAP1 PUSH2 0x2F5 JUMP JUMPDEST PUSH2 0x156 JUMP JUMPDEST PUSH1 0x40 MLOAD PUSH2 0x8D SWAP2 SWAP1 PUSH2 0x344 JUMP JUMPDEST PUSH1 0x40 MLOAD DUP1 SWAP2 SUB SWAP1 RETURN JUMPDEST PUSH2 0xB0 PUSH1 0x4 DUP1 CALLDATASIZE SUB DUP2 ADD SWAP1 PUSH2 0xAB SWAP2 SWAP1 PUSH2 0x2F5 JUMP JUMPDEST PUSH2 0x171 JUMP JUMPDEST PUSH1 0x40 MLOAD PUSH2 0xBD SWAP2 SWAP1 PUSH2 0x344 JUMP JUMPDEST PUSH1 0x40 MLOAD DUP1 SWAP2 SUB SWAP1 RETURN JUMPDEST PUSH2 0xE0 PUSH1 0x4 DUP1 CALLDATASIZE SUB DUP2 ADD SWAP1 PUSH2 0xDB SWAP2 SWAP1 PUSH2 0x2F5 JUMP JUMPDEST PUSH2 0x198 JUMP JUMPDEST PUSH1 0x40 MLOAD PUSH2 0xED SWAP2 SWAP1 PUSH2 0x344 JUMP JUMPDEST PUSH1 0x40 MLOAD DUP1 SWAP2 SUB SWAP1 RETURN JUMPDEST PUSH2 0x110 PUSH1 0x4 DUP1 CALLDATASIZE SUB DUP2 ADD SWAP1 PUSH2 0x10B SWAP2 SWAP1 PUSH2 0x2F5 JUMP JUMPDEST PUSH2 0x1F7 JUMP JUMPDEST PUSH1 0x40 MLOAD PUSH2 0x11D SWAP2 SWAP1 PUSH2 0x344 JUMP JUMPDEST PUSH1 0x40 MLOAD DUP1 SWAP2 SUB SWAP1 RETURN JUMPDEST PUSH2 0x140 PUSH1 0x4 DUP1 CALLDATASIZE SUB DUP2 ADD SWAP1 PUSH2 0x13B SWAP2 SWAP1 PUSH2 0x4B8 JUMP JUMPDEST PUSH2 0x281 JUMP JUMPDEST PUSH1 0x40 MLOAD PUSH2 0x14D SWAP2 SWAP1 PUSH2 0x344 JUMP JUMPDEST PUSH1 0x40 MLOAD DUP1 SWAP2 SUB SWAP1 RETURN JUMPDEST PUSH1 0x0 DUP1 DUP3 DUP5 PUSH2 0x165 SWAP2 SWAP1 PUSH2 0x530 JUMP JUMPDEST SWAP1 POP DUP1 SWAP2 POP POP SWAP3 SWAP2 POP POP JUMP JUMPDEST PUSH1 0x0 DUP1 DUP3 PUSH1 0x64 DUP6 PUSH2 0x182 SWAP2 SWAP1 PUSH2 0x586 JUMP JUMPDEST PUSH2 0x18C SWAP2 SWAP1 PUSH2 0x60F JUMP JUMPDEST SWAP1 POP DUP1 SWAP2 POP POP SWAP3 SWAP2 POP POP JUMP JUMPDEST PUSH1 0x0 DUP2 DUP4 LT ISZERO PUSH2 0x1DD JUMPI PUSH1 0x40 MLOAD PUSH32 0x8C379A000000000000000000000000000000000000000000000000000000000 DUP2 MSTORE PUSH1 0x4 ADD PUSH2 0x1D4 SWAP1 PUSH2 0x6E9 JUMP JUMPDEST PUSH1 0x40 MLOAD DUP1 SWAP2 SUB SWAP1 REVERT JUMPDEST PUSH1 0x0 DUP3 DUP5 PUSH2 0x1EB SWAP2 SWAP1 PUSH2 0x709 JUMP JUMPDEST SWAP1 POP DUP1 SWAP2 POP POP SWAP3 SWAP2 POP POP JUMP JUMPDEST PUSH1 0x0 PUSH32 0xFFFFFFFFFFFFFFFFFFFFFFFFFFFFFFFFFFFFFFFFFFFFFFFFFFFFFFFFFFFFFFFF DUP3 DUP5 PUSH2 0x226 SWAP2 SWAP1 PUSH2 0x586 JUMP JUMPDEST GT ISZERO PUSH2 0x267 JUMPI PUSH1 0x40 MLOAD PUSH32 0x8C379A000000000000000000000000000000000000000000000000000000000 DUP2 MSTORE PUSH1 0x4 ADD PUSH2 0x25E SWAP1 PUSH2 0x789 JUMP JUMPDEST PUSH1 0x40 MLOAD DUP1 SWAP2 SUB SWAP1 REVERT JUMPDEST PUSH1 0x0 DUP3 DUP5 PUSH2 0x275 SWAP2 SWAP1 PUSH2 0x586 JUMP JUMPDEST SWAP1 POP DUP1 SWAP2 POP POP SWAP3 SWAP2 POP POP JUMP JUMPDEST PUSH1 0x0 DUP1 PUSH1 0x0 SWAP1 POP JUMPDEST DUP3 MLOAD DUP2 LT ISZERO PUSH2 0x2A5 JUMPI DUP1 DUP1 PUSH2 0x29D SWAP1 PUSH2 0x7A9 JUMP JUMPDEST SWAP2 POP POP PUSH2 0x289 JUMP JUMPDEST POP SWAP2 SWAP1 POP JUMP JUMPDEST PUSH1 0x0 PUSH1 0x40 MLOAD SWAP1 POP SWAP1 JUMP JUMPDEST PUSH1 0x0 DUP1 REVERT JUMPDEST PUSH1 0x0 DUP1 REVERT JUMPDEST PUSH1 0x0 DUP2 SWAP1 POP SWAP2 SWAP1 POP JUMP JUMPDEST PUSH2 0x2D2 DUP2 PUSH2 0x2BF JUMP JUMPDEST DUP2 EQ PUSH2 0x2DD JUMPI PUSH1 0x0 DUP1 REVERT JUMPDEST POP JUMP JUMPDEST PUSH1 0x0 DUP2 CALLDATALOAD SWAP1 POP PUSH2 0x2EF DUP2 PUSH2 0x2C9 JUMP JUMPDEST SWAP3 SWAP2 POP POP JUMP JUMPDEST PUSH1 0x0 DUP1 PUSH1 0x40 DUP4 DUP6 SUB SLT ISZERO PUSH2 0x30C JUMPI PUSH2 0x30B PUSH2 0x2B5 JUMP JUMPDEST JUMPDEST PUSH1 0x0 PUSH2 0x31A DUP6 DUP3 DUP7 ADD PUSH2 0x2E0 JUMP JUMPDEST SWAP3 POP POP PUSH1 0x20 PUSH2 0x32B DUP6 DUP3 DUP7 ADD PUSH2 0x2E0 JUMP JUMPDEST SWAP2 POP POP SWAP3 POP SWAP3 SWAP1 POP JUMP JUMPDEST PUSH2 0x33E DUP2 PUSH2 0x2BF JUMP JUMPDEST DUP3 MSTORE POP POP JUMP JUMPDEST PUSH1 0x0 PUSH1 0x20 DUP3 ADD SWAP1 POP PUSH2 0x359 PUSH1 0x0 DUP4 ADD DUP5 PUSH2 0x335 JUMP JUMPDEST SWAP3 SWAP2 POP POP JUMP JUMPDEST PUSH1 0x0 DUP1 REVERT JUMPDEST PUSH1 0x0 PUSH1 0x1F NOT PUSH1 0x1F DUP4 ADD AND SWAP1 POP SWAP2 SWAP1 POP JUMP JUMPDEST PUSH32 0x4E487B7100000000000000000000000000000000000000000000000000000000 PUSH1 0x0 MSTORE PUSH1 0x41 PUSH1 0x4 MSTORE PUSH1 0x24 PUSH1 0x0 REVERT JUMPDEST PUSH2 0x3AD DUP3 PUSH2 0x364 JUMP JUMPDEST DUP2 ADD DUP2 DUP2 LT PUSH8 0xFFFFFFFFFFFFFFFF DUP3 GT OR ISZERO PUSH2 0x3CC JUMPI PUSH2 0x3CB PUSH2 0x375 JUMP JUMPDEST JUMPDEST DUP1 PUSH1 0x40 MSTORE POP POP POP JUMP JUMPDEST PUSH1 0x0 PUSH2 0x3DF PUSH2 0x2AB JUMP JUMPDEST SWAP1 POP PUSH2 0x3EB DUP3 DUP3 PUSH2 0x3A4 JUMP JUMPDEST SWAP2 SWAP1 POP JUMP JUMPDEST PUSH1 0x0 PUSH8 0xFFFFFFFFFFFFFFFF DUP3 GT ISZERO PUSH2 0x40B JUMPI PUSH2 0x40A PUSH2 0x375 JUMP JUMPDEST JUMPDEST PUSH1 0x20 DUP3 MUL SWAP1 POP PUSH1 0x20 DUP2 ADD SWAP1 POP SWAP2 SWAP1 POP JUMP JUMPDEST PUSH1 0x0 DUP1 REVERT JUMPDEST PUSH1 0x0 PUSH2 0x434 PUSH2 0x42F DUP5 PUSH2 0x3F0 JUMP JUMPDEST PUSH2 0x3D5 JUMP JUMPDEST SWAP1 POP DUP1 DUP4 DUP3 MSTORE PUSH1 0x20 DUP3 ADD SWAP1 POP PUSH1 0x20 DUP5 MUL DUP4 ADD DUP6 DUP2 GT ISZERO PUSH2 0x457 JUMPI PUSH2 0x456 PUSH2 0x41C JUMP JUMPDEST JUMPDEST DUP4 JUMPDEST DUP2 DUP2 LT ISZERO PUSH2 0x480 JUMPI DUP1 PUSH2 0x46C DUP9 DUP3 PUSH2 0x2E0 JUMP JUMPDEST DUP5 MSTORE PUSH1 0x20 DUP5 ADD SWAP4 POP POP PUSH1 0x20 DUP2 ADD SWAP1 POP PUSH2 0x459 JUMP JUMPDEST POP POP POP SWAP4 SWAP3 POP POP POP JUMP JUMPDEST PUSH1 0x0 DUP3 PUSH1 0x1F DUP4 ADD SLT PUSH2 0x49F JUMPI PUSH2 0x49E PUSH2 0x35F JUMP JUMPDEST JUMPDEST DUP2 CALLDATALOAD PUSH2 0x4AF DUP5 DUP3 PUSH1 0x20 DUP7 ADD PUSH2 0x421 JUMP JUMPDEST SWAP2 POP POP SWAP3 SWAP2 POP POP JUMP JUMPDEST PUSH1 0x0 PUSH1 0x20 DUP3 DUP5 SUB SLT ISZERO PUSH2 0x4CE JUMPI PUSH2 0x4CD PUSH2 0x2B5 JUMP JUMPDEST JUMPDEST PUSH1 0x0 DUP3 ADD CALLDATALOAD PUSH8 0xFFFFFFFFFFFFFFFF DUP2 GT ISZERO PUSH2 0x4EC JUMPI PUSH2 0x4EB PUSH2 0x2BA JUMP JUMPDEST JUMPDEST PUSH2 0x4F8 DUP5 DUP3 DUP6 ADD PUSH2 0x48A JUMP JUMPDEST SWAP2 POP POP SWAP3 SWAP2 POP POP JUMP JUMPDEST PUSH32 0x4E487B7100000000000000000000000000000000000000000000000000000000 PUSH1 0x0 MSTORE PUSH1 0x11 PUSH1 0x4 MSTORE PUSH1 0x24 PUSH1 0x0 REVERT JUMPDEST PUSH1 0x0 PUSH2 0x53B DUP3 PUSH2 0x2BF JUMP JUMPDEST SWAP2 POP PUSH2 0x546 DUP4 PUSH2 0x2BF JUMP JUMPDEST SWAP3 POP DUP3 PUSH32 0xFFFFFFFFFFFFFFFFFFFFFFFFFFFFFFFFFFFFFFFFFFFFFFFFFFFFFFFFFFFFFFFF SUB DUP3 GT ISZERO PUSH2 0x57B JUMPI PUSH2 0x57A PUSH2 0x501 JUMP JUMPDEST JUMPDEST DUP3 DUP3 ADD SWAP1 POP SWAP3 SWAP2 POP POP JUMP JUMPDEST PUSH1 0x0 PUSH2 0x591 DUP3 PUSH2 0x2BF JUMP JUMPDEST SWAP2 POP PUSH2 0x59C DUP4 PUSH2 0x2BF JUMP JUMPDEST SWAP3 POP DUP2 PUSH32 0xFFFFFFFFFFFFFFFFFFFFFFFFFFFFFFFFFFFFFFFFFFFFFFFFFFFFFFFFFFFFFFFF DIV DUP4 GT DUP3 ISZERO ISZERO AND ISZERO PUSH2 0x5D5 JUMPI PUSH2 0x5D4 PUSH2 0x501 JUMP JUMPDEST JUMPDEST DUP3 DUP3 MUL SWAP1 POP SWAP3 SWAP2 POP POP JUMP JUMPDEST PUSH32 0x4E487B7100000000000000000000000000000000000000000000000000000000 PUSH1 0x0 MSTORE PUSH1 0x12 PUSH1 0x4 MSTORE PUSH1 0x24 PUSH1 0x0 REVERT JUMPDEST PUSH1 0x0 PUSH2 0x61A DUP3 PUSH2 0x2BF JUMP JUMPDEST SWAP2 POP PUSH2 0x625 DUP4 PUSH2 0x2BF JUMP JUMPDEST SWAP3 POP DUP3 PUSH2 0x635 JUMPI PUSH2 0x634 PUSH2 0x5E0 JUMP JUMPDEST JUMPDEST DUP3 DUP3 DIV SWAP1 POP SWAP3 SWAP2 POP POP JUMP JUMPDEST PUSH1 0x0 DUP3 DUP3 MSTORE PUSH1 0x20 DUP3 ADD SWAP1 POP SWAP3 SWAP2 POP POP JUMP JUMPDEST PUSH32 0x4C696272617279206572726F723A205365636F6E6420706172616D6574657220 PUSH1 0x0 DUP3 ADD MSTORE PUSH32 0x73686F756C64206265206C657373206F7220657175616C20746F207468652066 PUSH1 0x20 DUP3 ADD MSTORE PUSH32 0x697273742E000000000000000000000000000000000000000000000000000000 PUSH1 0x40 DUP3 ADD MSTORE POP JUMP JUMPDEST PUSH1 0x0 PUSH2 0x6D3 PUSH1 0x45 DUP4 PUSH2 0x640 JUMP JUMPDEST SWAP2 POP PUSH2 0x6DE DUP3 PUSH2 0x651 JUMP JUMPDEST PUSH1 0x60 DUP3 ADD SWAP1 POP SWAP2 SWAP1 POP JUMP JUMPDEST PUSH1 0x0 PUSH1 0x20 DUP3 ADD SWAP1 POP DUP2 DUP2 SUB PUSH1 0x0 DUP4 ADD MSTORE PUSH2 0x702 DUP2 PUSH2 0x6C6 JUMP JUMPDEST SWAP1 POP SWAP2 SWAP1 POP JUMP JUMPDEST PUSH1 0x0 PUSH2 0x714 DUP3 PUSH2 0x2BF JUMP JUMPDEST SWAP2 POP PUSH2 0x71F DUP4 PUSH2 0x2BF JUMP JUMPDEST SWAP3 POP DUP3 DUP3 LT ISZERO PUSH2 0x732 JUMPI PUSH2 0x731 PUSH2 0x501 JUMP JUMPDEST JUMPDEST DUP3 DUP3 SUB SWAP1 POP SWAP3 SWAP2 POP POP JUMP JUMPDEST PUSH32 0x4C696272617279204572726F722C204E756D626572206F766572666C6F772E00 PUSH1 0x0 DUP3 ADD MSTORE POP JUMP JUMPDEST PUSH1 0x0 PUSH2 0x773 PUSH1 0x1F DUP4 PUSH2 0x640 JUMP JUMPDEST SWAP2 POP PUSH2 0x77E DUP3 PUSH2 0x73D JUMP JUMPDEST PUSH1 0x20 DUP3 ADD SWAP1 POP SWAP2 SWAP1 POP JUMP JUMPDEST PUSH1 0x0 PUSH1 0x20 DUP3 ADD SWAP1 POP DUP2 DUP2 SUB PUSH1 0x0 DUP4 ADD MSTORE PUSH2 0x7A2 DUP2 PUSH2 0x766 JUMP JUMPDEST SWAP1 POP SWAP2 SWAP1 POP JUMP JUMPDEST PUSH1 0x0 PUSH2 0x7B4 DUP3 PUSH2 0x2BF JUMP JUMPDEST SWAP2 POP PUSH32 0xFFFFFFFFFFFFFFFFFFFFFFFFFFFFFFFFFFFFFFFFFFFFFFFFFFFFFFFFFFFFFFFF DUP3 SUB PUSH2 0x7E6 JUMPI PUSH2 0x7E5 PUSH2 0x501 JUMP JUMPDEST JUMPDEST PUSH1 0x1 DUP3 ADD SWAP1 POP SWAP2 SWAP1 POP JUMP INVALID LOG2 PUSH5 0x6970667358 0x22 SLT KECCAK256 PUSH19 0x4A2D2621DED836B1EECBB48D6451174E4631E EXTCODECOPY 0xD0 SWAP16 0xB7 0xBE PUSH10 0xC9BEF58A727964736F6C PUSH4 0x4300080D STOP CALLER "
				},
				"gasEstimates": {
					"creation": {
						"codeDepositCost": "417400",
						"executionCost": "480",
						"totalCost": "417880"
					},
					"external": {
						"add(uint256,uint256)": "infinite",
						"add_arr(uint256[])": "infinite",
						"div(uint256,uint256)": "infinite",
						"mul(uint256,uint256)": "infinite",
						"sub(uint256,uint256)": "infinite"
					}
				},
				"methodIdentifiers": {
					"add(uint256,uint256)": "771602f7",
					"add_arr(uint256[])": "cea07138",
					"div(uint256,uint256)": "a391c15b",
					"mul(uint256,uint256)": "c8a4ac9c",
					"sub(uint256,uint256)": "b67d77c5"
				}
			},
			"userdoc": {
				"kind": "user",
				"methods": {},
				"version": 1
			}
		}
	}
}