{
  "abi": [
    {
      "inputs": [
        {
          "internalType": "uint256",
          "name": "_a",
          "type": "uint256"
        },
        {
          "internalType": "uint256",
          "name": "_b",
          "type": "uint256"
        }
      ],
      "name": "add",
      "outputs": [],
      "stateMutability": "nonpayable",
      "type": "function"
    },
    {
      "inputs": [],
      "name": "total",
      "outputs": [
        {
          "internalType": "uint256",
          "name": "",
          "type": "uint256"
        }
      ],
      "stateMutability": "view",
      "type": "function"
    }
  ],
  "bytecode": "608060405234801561001057600080fd5b5060ed8061001f6000396000f3fe6080604052348015600f57600080fd5b506004361060325760003560e01c80632ddbd13a146037578063771602f7146051575b600080fd5b603f60005481565b60405190815260200160405180910390f35b6060605c3660046071565b6062565b005b606a81836092565b6000555050565b60008060408385031215608357600080fd5b50508035926020909101359150565b6000821982111560b257634e487b7160e01b600052601160045260246000fd5b50019056fea26469706673582212202827b0d3e18bec7911a36d1279c0c32f7909ab25c042bd33e9dfbafb16a2c4fb64736f6c634300080c0033",
  "bytecodeSha1": "edcaf43453c369aa6daa99f80e95c65e6e668f2b",
  "compiler": {
    "evm_version": "istanbul",
    "optimizer": {
      "enabled": true,
      "runs": 200
    },
    "version": "0.8.12+commit.f00d7308"
  },
  "contractName": "Main",
  "language": "Solidity",
  "natspec": {
    "kind": "dev",
    "methods": {},
    "version": 1
  },
  "opcodes": "PUSH1 0x80 PUSH1 0x40 MSTORE CALLVALUE DUP1 ISZERO PUSH1 0xF JUMPI PUSH1 0x0 DUP1 REVERT JUMPDEST POP PUSH1 0x4 CALLDATASIZE LT PUSH1 0x32 JUMPI PUSH1 0x0 CALLDATALOAD PUSH1 0xE0 SHR DUP1 PUSH4 0x2DDBD13A EQ PUSH1 0x37 JUMPI DUP1 PUSH4 0x771602F7 EQ PUSH1 0x51 JUMPI JUMPDEST PUSH1 0x0 DUP1 REVERT JUMPDEST PUSH1 0x3F PUSH1 0x0 SLOAD DUP2 JUMP JUMPDEST PUSH1 0x40 MLOAD SWAP1 DUP2 MSTORE PUSH1 0x20 ADD PUSH1 0x40 MLOAD DUP1 SWAP2 SUB SWAP1 RETURN JUMPDEST PUSH1 0x60 PUSH1 0x5C CALLDATASIZE PUSH1 0x4 PUSH1 0x71 JUMP JUMPDEST PUSH1 0x62 JUMP JUMPDEST STOP JUMPDEST PUSH1 0x6A DUP2 DUP4 PUSH1 0x92 JUMP JUMPDEST PUSH1 0x0 SSTORE POP POP JUMP JUMPDEST PUSH1 0x0 DUP1 PUSH1 0x40 DUP4 DUP6 SUB SLT ISZERO PUSH1 0x83 JUMPI PUSH1 0x0 DUP1 REVERT JUMPDEST POP POP DUP1 CALLDATALOAD SWAP3 PUSH1 0x20 SWAP1 SWAP2 ADD CALLDATALOAD SWAP2 POP JUMP JUMPDEST PUSH1 0x0 DUP3 NOT DUP3 GT ISZERO PUSH1 0xB2 JUMPI PUSH4 0x4E487B71 PUSH1 0xE0 SHL PUSH1 0x0 MSTORE PUSH1 0x11 PUSH1 0x4 MSTORE PUSH1 0x24 PUSH1 0x0 REVERT JUMPDEST POP ADD SWAP1 JUMP INVALID LOG2 PUSH5 0x6970667358 0x22 SLT KECCAK256 0x28 0x27 0xB0 0xD3 0xE1 DUP12 0xEC PUSH26 0x11A36D1279C0C32F7909AB25C042BD33E9DFBAFB16A2C4FB6473 PUSH16 0x6C634300080C00330000000000000000 ",
  "sha1": "65abb8fbf8f562ebea83921adf2e1dad8e642ce0",
  "source": "// SPDX-License-Identifier: MIT\npragma solidity >0.6.0;\nimport \"./Store.sol\";\n\n/*\n * @title: \n * @author: Anthony (fps) https://github.com/fps8k .\n * @dev: \n*/\n\ncontract Main is Store\n{\n    function add(uint _a, uint _b) public\n    {\n        total = _a + _b;\n    }\n}",
  "sourcePath": "contracts/Utils/Main.sol",
  "type": "contract"
}