{
  "abi": [
    {
      "inputs": [],
      "name": "total",
      "outputs": [
        {
          "internalType": "uint256",
          "name": "",
          "type": "uint256"
        }
      ],
      "stateMutability": "view",
      "type": "function"
    }
  ],
  "bytecode": "6080604052348015600f57600080fd5b50607d8061001e6000396000f3fe6080604052348015600f57600080fd5b506004361060285760003560e01c80632ddbd13a14602d575b600080fd5b603560005481565b60405190815260200160405180910390f3fea2646970667358221220792021a61071c067a0ac563df0692a7ef7632d5facebd1b2362e4ac1641390ae64736f6c634300080c0033",
  "bytecodeSha1": "2374bd275109a1fc761f596b2325be1a19bd2ebe",
  "compiler": {
    "evm_version": "istanbul",
    "optimizer": {
      "enabled": true,
      "runs": 200
    },
    "version": "0.8.12+commit.f00d7308"
  },
  "contractName": "Store",
  "language": "Solidity",
  "natspec": {
    "kind": "dev",
    "methods": {},
    "version": 1
  },
  "opcodes": "PUSH1 0x80 PUSH1 0x40 MSTORE CALLVALUE DUP1 ISZERO PUSH1 0xF JUMPI PUSH1 0x0 DUP1 REVERT JUMPDEST POP PUSH1 0x4 CALLDATASIZE LT PUSH1 0x28 JUMPI PUSH1 0x0 CALLDATALOAD PUSH1 0xE0 SHR DUP1 PUSH4 0x2DDBD13A EQ PUSH1 0x2D JUMPI JUMPDEST PUSH1 0x0 DUP1 REVERT JUMPDEST PUSH1 0x35 PUSH1 0x0 SLOAD DUP2 JUMP JUMPDEST PUSH1 0x40 MLOAD SWAP1 DUP2 MSTORE PUSH1 0x20 ADD PUSH1 0x40 MLOAD DUP1 SWAP2 SUB SWAP1 RETURN INVALID LOG2 PUSH5 0x6970667358 0x22 SLT KECCAK256 PUSH26 0x2021A61071C067A0AC563DF0692A7EF7632D5FACEBD1B2362E4A 0xC1 PUSH5 0x1390AE6473 PUSH16 0x6C634300080C00330000000000000000 ",
  "sha1": "0698969e6a8147a6c9548b0500d4bcff54d4f176",
  "source": "// SPDX-License-Identifier: MIT\npragma solidity >0.6.0;\n\n/*\n * @title: \n * @author: Anthony (fps) https://github.com/fps8k .\n * @dev: \n*/\n\ncontract Store\n{\n    uint public total;\n}",
  "sourcePath": "contracts/Utils/Store.sol",
  "type": "contract"
}