{
  "abi": [
    {
      "anonymous": false,
      "inputs": [
        {
          "indexed": false,
          "internalType": "address",
          "name": "",
          "type": "address"
        },
        {
          "indexed": false,
          "internalType": "address",
          "name": "",
          "type": "address"
        },
        {
          "indexed": false,
          "internalType": "uint256",
          "name": "",
          "type": "uint256"
        },
        {
          "indexed": false,
          "internalType": "uint256",
          "name": "",
          "type": "uint256"
        }
      ],
      "name": "Claim",
      "type": "event"
    },
    {
      "anonymous": false,
      "inputs": [
        {
          "indexed": false,
          "internalType": "address",
          "name": "",
          "type": "address"
        },
        {
          "indexed": false,
          "internalType": "string",
          "name": "",
          "type": "string"
        },
        {
          "indexed": false,
          "internalType": "uint256",
          "name": "",
          "type": "uint256"
        }
      ],
      "name": "End",
      "type": "event"
    },
    {
      "anonymous": false,
      "inputs": [
        {
          "indexed": false,
          "internalType": "address",
          "name": "",
          "type": "address"
        },
        {
          "indexed": false,
          "internalType": "string",
          "name": "",
          "type": "string"
        },
        {
          "indexed": false,
          "internalType": "uint256",
          "name": "",
          "type": "uint256"
        }
      ],
      "name": "Launch",
      "type": "event"
    },
    {
      "anonymous": false,
      "inputs": [
        {
          "indexed": false,
          "internalType": "address",
          "name": "",
          "type": "address"
        },
        {
          "indexed": false,
          "internalType": "uint256",
          "name": "",
          "type": "uint256"
        },
        {
          "indexed": false,
          "internalType": "uint256",
          "name": "",
          "type": "uint256"
        }
      ],
      "name": "Pledge",
      "type": "event"
    },
    {
      "anonymous": false,
      "inputs": [
        {
          "indexed": false,
          "internalType": "address",
          "name": "",
          "type": "address"
        },
        {
          "indexed": false,
          "internalType": "uint256",
          "name": "",
          "type": "uint256"
        },
        {
          "indexed": false,
          "internalType": "uint256",
          "name": "",
          "type": "uint256"
        }
      ],
      "name": "Withdraw",
      "type": "event"
    },
    {
      "inputs": [
        {
          "internalType": "uint256",
          "name": "_campaign_number",
          "type": "uint256"
        }
      ],
      "name": "claim",
      "outputs": [],
      "stateMutability": "nonpayable",
      "type": "function"
    },
    {
      "inputs": [
        {
          "internalType": "uint256",
          "name": "_campaign_number",
          "type": "uint256"
        }
      ],
      "name": "end",
      "outputs": [],
      "stateMutability": "nonpayable",
      "type": "function"
    },
    {
      "inputs": [
        {
          "internalType": "address",
          "name": "_token",
          "type": "address"
        },
        {
          "internalType": "uint256",
          "name": "_target",
          "type": "uint256"
        }
      ],
      "name": "launch",
      "outputs": [],
      "stateMutability": "nonpayable",
      "type": "function"
    },
    {
      "inputs": [
        {
          "internalType": "uint256",
          "name": "_campaign_number",
          "type": "uint256"
        },
        {
          "internalType": "uint256",
          "name": "_amount",
          "type": "uint256"
        }
      ],
      "name": "pledge",
      "outputs": [],
      "stateMutability": "nonpayable",
      "type": "function"
    },
    {
      "inputs": [
        {
          "internalType": "uint256",
          "name": "_campaign_number",
          "type": "uint256"
        }
      ],
      "name": "withdraw",
      "outputs": [],
      "stateMutability": "nonpayable",
      "type": "function"
    }
  ],
  "bytecode": "608060405234801561001057600080fd5b50610b29806100206000396000f3fe608060405234801561001057600080fd5b50600436106100575760003560e01c80630ad245281461005c5780632e1a7d4d14610071578063379607f514610084578063edfb651614610097578063fde327be146100aa575b600080fd5b61006f61006a3660046109ed565b6100bd565b005b61006f61007f3660046109ed565b610214565b61006f6100923660046109ed565b6103f3565b61006f6100a5366004610a06565b610635565b61006f6100b8366004610a3e565b6107fe565b336100e35760405162461bcd60e51b81526004016100da90610a60565b60405180910390fd5b60008181526001602052604090206005015460ff166101325760405162461bcd60e51b815260206004820152600b60248201526a139bdd081cdd185c9d195960aa1b60448201526064016100da565b6000818152600160205260409020546001600160a01b031633146101865760405162461bcd60e51b815260206004820152600b60248201526a2737ba1021b932b0ba37b960a91b60448201526064016100da565b60008181526001602052604090819020600501805461ff001916610100179055517f413b98b2099810f1b68fbf51bf5a7003c82de74fbda2936d7afa48362fe7a26b9061020990339084906001600160a01b039290921682526060602083018190526007908301526601032b73232b2160cd1b6080830152604082015260a00190565b60405180910390a150565b60008181526001602052604090203361023f5760405162461bcd60e51b81526004016100da90610a60565b6005810154610100900460ff16156102815760405162461bcd60e51b8152602060048201526005602482015264115b99195960da1b60448201526064016100da565b60008281526002602090815260408083203384529091529020546102d95760405162461bcd60e51b815260206004820152600f60248201526e2234b2103737ba10383632b233b29760891b60448201526064016100da565b600082815260026020908152604080832033845282528083205485845260019092528220600401805491928392610311908490610a9b565b909155505060008381526002602081815260408084203380865292528084209390935590840154915163a9059cbb60e01b81526004810191909152602481018390526001600160a01b039091169063a9059cbb906044016020604051808303816000875af1158015610387573d6000803e3d6000fd5b505050506040513d601f19601f820116820180604052508101906103ab9190610ab2565b5060408051338152602081018590529081018290527ff279e6a1f5e320cca91135676d9cb6e44ca8a08c0b88342bcdb1144f6511b568906060015b60405180910390a1505050565b3361042e5760405162461bcd60e51b815260206004820152600b60248201526a4e6f74206164647265737360a81b60448201526064016100da565b6000818152600160205260409020546001600160a01b031633146104825760405162461bcd60e51b815260206004820152600b60248201526a2737ba1031b932b0ba37b960a91b60448201526064016100da565b60008181526001602052604090206005015462010000900460ff16156104d45760405162461bcd60e51b815260206004820152600760248201526610db185a5b595960ca1b60448201526064016100da565b600081815260016020526040902060050154610100900460ff166105275760405162461bcd60e51b815260206004820152600a6024820152692737ba1032b73232b21760b11b60448201526064016100da565b600081815260016020526040908190206002810154600491820154925163a9059cbb60e01b8152339281019290925260248201929092526001600160a01b039091169063a9059cbb906044016020604051808303816000875af1158015610592573d6000803e3d6000fd5b505050506040513d601f19601f820116820180604052508101906105b69190610ab2565b5060008181526001602081815260409283902060058101805462ff00001916620100001790559182015460049092015483513381526001600160a01b039093169183019190915291810183905260608101919091527f865ca08d59f5cb456e85cd2f7ef63664ea4f73327414e9d8152c4158b0e9464590608001610209565b336106525760405162461bcd60e51b81526004016100da90610a60565b6000811161068f5760405162461bcd60e51b815260206004820152600a6024820152690546172676574203c20360b41b60448201526064016100da565b600082905060016000808282546106a69190610adb565b9091555050604080516101008082018352338083526001600160a01b038781166020808601918252878316868801908152606087018a8152600060808901818152600160a08b0181815260c08c0184815260e08d0185815285548652978390528d85209c518d54908b166001600160a01b0319918216178e559851928d018054938b16938a1693909317909255945160028c0180549190991697169690961790965590516003890155935160048801555160059096018054925191511515620100000262ff00001992151590960261ff00199715159790971661ffff19909316929092179590951794909416929092179092555491517f3f4ae8191a4a284e3c7294bff071396dfb2691082b2012f8faadba30772b52d5926103e692916001600160a01b03929092168252606060208301819052600a90830152690103630bab731b432b2160b51b6080830152604082015260a00190565b6000828152600160205260409020336108295760405162461bcd60e51b81526004016100da90610a60565b600581015460ff1661086b5760405162461bcd60e51b815260206004820152600b60248201526a139bdd0814dd185c9d195960aa1b60448201526064016100da565b6005810154610100900460ff16156108ad5760405162461bcd60e51b8152602060048201526005602482015264115b99195960da1b60448201526064016100da565b600082116108ea5760405162461bcd60e51b815260206004820152600a6024820152690416d6f756e74203c20360b41b60448201526064016100da565b60028101546040516323b872dd60e01b8152336004820152306024820152604481018490526001600160a01b03909116906323b872dd906064016020604051808303816000875af1158015610943573d6000803e3d6000fd5b505050506040513d601f19601f820116820180604052508101906109679190610ab2565b508181600401600082825461097c9190610adb565b90915550506000838152600260209081526040808320338452909152812080548492906109aa908490610adb565b909155505060408051338152602081018590529081018390527faba4f973c8f45a52365c8348704e79653e4b58ebd452f2d2115423a62ef7a3e1906060016103e6565b6000602082840312156109ff57600080fd5b5035919050565b60008060408385031215610a1957600080fd5b82356001600160a01b0381168114610a3057600080fd5b946020939093013593505050565b60008060408385031215610a5157600080fd5b50508035926020909101359150565b6020808252600b908201526a4e6f74204164647265737360a81b604082015260600190565b634e487b7160e01b600052601160045260246000fd5b600082821015610aad57610aad610a85565b500390565b600060208284031215610ac457600080fd5b81518015158114610ad457600080fd5b9392505050565b60008219821115610aee57610aee610a85565b50019056fea264697066735822122067cc27e654f419f938f3e7728e938d31f3b101ec54a4dbb7548de1f04af20e4364736f6c634300080c0033",
  "bytecodeSha1": "d8d40b80a8ef3e95941712ef77ad5b424848809e",
  "compiler": {
    "evm_version": "istanbul",
    "optimizer": {
      "enabled": true,
      "runs": 200
    },
    "version": "0.8.12+commit.f00d7308"
  },
  "contractName": "CrowdFund",
  "language": "Solidity",
  "natspec": {
    "kind": "dev",
    "methods": {},
    "version": 1
  },
  "opcodes": "PUSH1 0x80 PUSH1 0x40 MSTORE CALLVALUE DUP1 ISZERO PUSH2 0x10 JUMPI PUSH1 0x0 DUP1 REVERT JUMPDEST POP PUSH1 0x4 CALLDATASIZE LT PUSH2 0x57 JUMPI PUSH1 0x0 CALLDATALOAD PUSH1 0xE0 SHR DUP1 PUSH4 0xAD24528 EQ PUSH2 0x5C JUMPI DUP1 PUSH4 0x2E1A7D4D EQ PUSH2 0x71 JUMPI DUP1 PUSH4 0x379607F5 EQ PUSH2 0x84 JUMPI DUP1 PUSH4 0xEDFB6516 EQ PUSH2 0x97 JUMPI DUP1 PUSH4 0xFDE327BE EQ PUSH2 0xAA JUMPI JUMPDEST PUSH1 0x0 DUP1 REVERT JUMPDEST PUSH2 0x6F PUSH2 0x6A CALLDATASIZE PUSH1 0x4 PUSH2 0x9ED JUMP JUMPDEST PUSH2 0xBD JUMP JUMPDEST STOP JUMPDEST PUSH2 0x6F PUSH2 0x7F CALLDATASIZE PUSH1 0x4 PUSH2 0x9ED JUMP JUMPDEST PUSH2 0x214 JUMP JUMPDEST PUSH2 0x6F PUSH2 0x92 CALLDATASIZE PUSH1 0x4 PUSH2 0x9ED JUMP JUMPDEST PUSH2 0x3F3 JUMP JUMPDEST PUSH2 0x6F PUSH2 0xA5 CALLDATASIZE PUSH1 0x4 PUSH2 0xA06 JUMP JUMPDEST PUSH2 0x635 JUMP JUMPDEST PUSH2 0x6F PUSH2 0xB8 CALLDATASIZE PUSH1 0x4 PUSH2 0xA3E JUMP JUMPDEST PUSH2 0x7FE JUMP JUMPDEST CALLER PUSH2 0xE3 JUMPI PUSH1 0x40 MLOAD PUSH3 0x461BCD PUSH1 0xE5 SHL DUP2 MSTORE PUSH1 0x4 ADD PUSH2 0xDA SWAP1 PUSH2 0xA60 JUMP JUMPDEST PUSH1 0x40 MLOAD DUP1 SWAP2 SUB SWAP1 REVERT JUMPDEST PUSH1 0x0 DUP2 DUP2 MSTORE PUSH1 0x1 PUSH1 0x20 MSTORE PUSH1 0x40 SWAP1 KECCAK256 PUSH1 0x5 ADD SLOAD PUSH1 0xFF AND PUSH2 0x132 JUMPI PUSH1 0x40 MLOAD PUSH3 0x461BCD PUSH1 0xE5 SHL DUP2 MSTORE PUSH1 0x20 PUSH1 0x4 DUP3 ADD MSTORE PUSH1 0xB PUSH1 0x24 DUP3 ADD MSTORE PUSH11 0x139BDD081CDD185C9D1959 PUSH1 0xAA SHL PUSH1 0x44 DUP3 ADD MSTORE PUSH1 0x64 ADD PUSH2 0xDA JUMP JUMPDEST PUSH1 0x0 DUP2 DUP2 MSTORE PUSH1 0x1 PUSH1 0x20 MSTORE PUSH1 0x40 SWAP1 KECCAK256 SLOAD PUSH1 0x1 PUSH1 0x1 PUSH1 0xA0 SHL SUB AND CALLER EQ PUSH2 0x186 JUMPI PUSH1 0x40 MLOAD PUSH3 0x461BCD PUSH1 0xE5 SHL DUP2 MSTORE PUSH1 0x20 PUSH1 0x4 DUP3 ADD MSTORE PUSH1 0xB PUSH1 0x24 DUP3 ADD MSTORE PUSH11 0x2737BA1021B932B0BA37B9 PUSH1 0xA9 SHL PUSH1 0x44 DUP3 ADD MSTORE PUSH1 0x64 ADD PUSH2 0xDA JUMP JUMPDEST PUSH1 0x0 DUP2 DUP2 MSTORE PUSH1 0x1 PUSH1 0x20 MSTORE PUSH1 0x40 SWAP1 DUP2 SWAP1 KECCAK256 PUSH1 0x5 ADD DUP1 SLOAD PUSH2 0xFF00 NOT AND PUSH2 0x100 OR SWAP1 SSTORE MLOAD PUSH32 0x413B98B2099810F1B68FBF51BF5A7003C82DE74FBDA2936D7AFA48362FE7A26B SWAP1 PUSH2 0x209 SWAP1 CALLER SWAP1 DUP5 SWAP1 PUSH1 0x1 PUSH1 0x1 PUSH1 0xA0 SHL SUB SWAP3 SWAP1 SWAP3 AND DUP3 MSTORE PUSH1 0x60 PUSH1 0x20 DUP4 ADD DUP2 SWAP1 MSTORE PUSH1 0x7 SWAP1 DUP4 ADD MSTORE PUSH7 0x1032B73232B21 PUSH1 0xCD SHL PUSH1 0x80 DUP4 ADD MSTORE PUSH1 0x40 DUP3 ADD MSTORE PUSH1 0xA0 ADD SWAP1 JUMP JUMPDEST PUSH1 0x40 MLOAD DUP1 SWAP2 SUB SWAP1 LOG1 POP JUMP JUMPDEST PUSH1 0x0 DUP2 DUP2 MSTORE PUSH1 0x1 PUSH1 0x20 MSTORE PUSH1 0x40 SWAP1 KECCAK256 CALLER PUSH2 0x23F JUMPI PUSH1 0x40 MLOAD PUSH3 0x461BCD PUSH1 0xE5 SHL DUP2 MSTORE PUSH1 0x4 ADD PUSH2 0xDA SWAP1 PUSH2 0xA60 JUMP JUMPDEST PUSH1 0x5 DUP2 ADD SLOAD PUSH2 0x100 SWAP1 DIV PUSH1 0xFF AND ISZERO PUSH2 0x281 JUMPI PUSH1 0x40 MLOAD PUSH3 0x461BCD PUSH1 0xE5 SHL DUP2 MSTORE PUSH1 0x20 PUSH1 0x4 DUP3 ADD MSTORE PUSH1 0x5 PUSH1 0x24 DUP3 ADD MSTORE PUSH5 0x115B991959 PUSH1 0xDA SHL PUSH1 0x44 DUP3 ADD MSTORE PUSH1 0x64 ADD PUSH2 0xDA JUMP JUMPDEST PUSH1 0x0 DUP3 DUP2 MSTORE PUSH1 0x2 PUSH1 0x20 SWAP1 DUP2 MSTORE PUSH1 0x40 DUP1 DUP4 KECCAK256 CALLER DUP5 MSTORE SWAP1 SWAP2 MSTORE SWAP1 KECCAK256 SLOAD PUSH2 0x2D9 JUMPI PUSH1 0x40 MLOAD PUSH3 0x461BCD PUSH1 0xE5 SHL DUP2 MSTORE PUSH1 0x20 PUSH1 0x4 DUP3 ADD MSTORE PUSH1 0xF PUSH1 0x24 DUP3 ADD MSTORE PUSH15 0x2234B2103737BA10383632B233B297 PUSH1 0x89 SHL PUSH1 0x44 DUP3 ADD MSTORE PUSH1 0x64 ADD PUSH2 0xDA JUMP JUMPDEST PUSH1 0x0 DUP3 DUP2 MSTORE PUSH1 0x2 PUSH1 0x20 SWAP1 DUP2 MSTORE PUSH1 0x40 DUP1 DUP4 KECCAK256 CALLER DUP5 MSTORE DUP3 MSTORE DUP1 DUP4 KECCAK256 SLOAD DUP6 DUP5 MSTORE PUSH1 0x1 SWAP1 SWAP3 MSTORE DUP3 KECCAK256 PUSH1 0x4 ADD DUP1 SLOAD SWAP2 SWAP3 DUP4 SWAP3 PUSH2 0x311 SWAP1 DUP5 SWAP1 PUSH2 0xA9B JUMP JUMPDEST SWAP1 SWAP2 SSTORE POP POP PUSH1 0x0 DUP4 DUP2 MSTORE PUSH1 0x2 PUSH1 0x20 DUP2 DUP2 MSTORE PUSH1 0x40 DUP1 DUP5 KECCAK256 CALLER DUP1 DUP7 MSTORE SWAP3 MSTORE DUP1 DUP5 KECCAK256 SWAP4 SWAP1 SWAP4 SSTORE SWAP1 DUP5 ADD SLOAD SWAP2 MLOAD PUSH4 0xA9059CBB PUSH1 0xE0 SHL DUP2 MSTORE PUSH1 0x4 DUP2 ADD SWAP2 SWAP1 SWAP2 MSTORE PUSH1 0x24 DUP2 ADD DUP4 SWAP1 MSTORE PUSH1 0x1 PUSH1 0x1 PUSH1 0xA0 SHL SUB SWAP1 SWAP2 AND SWAP1 PUSH4 0xA9059CBB SWAP1 PUSH1 0x44 ADD PUSH1 0x20 PUSH1 0x40 MLOAD DUP1 DUP4 SUB DUP2 PUSH1 0x0 DUP8 GAS CALL ISZERO DUP1 ISZERO PUSH2 0x387 JUMPI RETURNDATASIZE PUSH1 0x0 DUP1 RETURNDATACOPY RETURNDATASIZE PUSH1 0x0 REVERT JUMPDEST POP POP POP POP PUSH1 0x40 MLOAD RETURNDATASIZE PUSH1 0x1F NOT PUSH1 0x1F DUP3 ADD AND DUP3 ADD DUP1 PUSH1 0x40 MSTORE POP DUP2 ADD SWAP1 PUSH2 0x3AB SWAP2 SWAP1 PUSH2 0xAB2 JUMP JUMPDEST POP PUSH1 0x40 DUP1 MLOAD CALLER DUP2 MSTORE PUSH1 0x20 DUP2 ADD DUP6 SWAP1 MSTORE SWAP1 DUP2 ADD DUP3 SWAP1 MSTORE PUSH32 0xF279E6A1F5E320CCA91135676D9CB6E44CA8A08C0B88342BCDB1144F6511B568 SWAP1 PUSH1 0x60 ADD JUMPDEST PUSH1 0x40 MLOAD DUP1 SWAP2 SUB SWAP1 LOG1 POP POP POP JUMP JUMPDEST CALLER PUSH2 0x42E JUMPI PUSH1 0x40 MLOAD PUSH3 0x461BCD PUSH1 0xE5 SHL DUP2 MSTORE PUSH1 0x20 PUSH1 0x4 DUP3 ADD MSTORE PUSH1 0xB PUSH1 0x24 DUP3 ADD MSTORE PUSH11 0x4E6F742061646472657373 PUSH1 0xA8 SHL PUSH1 0x44 DUP3 ADD MSTORE PUSH1 0x64 ADD PUSH2 0xDA JUMP JUMPDEST PUSH1 0x0 DUP2 DUP2 MSTORE PUSH1 0x1 PUSH1 0x20 MSTORE PUSH1 0x40 SWAP1 KECCAK256 SLOAD PUSH1 0x1 PUSH1 0x1 PUSH1 0xA0 SHL SUB AND CALLER EQ PUSH2 0x482 JUMPI PUSH1 0x40 MLOAD PUSH3 0x461BCD PUSH1 0xE5 SHL DUP2 MSTORE PUSH1 0x20 PUSH1 0x4 DUP3 ADD MSTORE PUSH1 0xB PUSH1 0x24 DUP3 ADD MSTORE PUSH11 0x2737BA1031B932B0BA37B9 PUSH1 0xA9 SHL PUSH1 0x44 DUP3 ADD MSTORE PUSH1 0x64 ADD PUSH2 0xDA JUMP JUMPDEST PUSH1 0x0 DUP2 DUP2 MSTORE PUSH1 0x1 PUSH1 0x20 MSTORE PUSH1 0x40 SWAP1 KECCAK256 PUSH1 0x5 ADD SLOAD PUSH3 0x10000 SWAP1 DIV PUSH1 0xFF AND ISZERO PUSH2 0x4D4 JUMPI PUSH1 0x40 MLOAD PUSH3 0x461BCD PUSH1 0xE5 SHL DUP2 MSTORE PUSH1 0x20 PUSH1 0x4 DUP3 ADD MSTORE PUSH1 0x7 PUSH1 0x24 DUP3 ADD MSTORE PUSH7 0x10DB185A5B5959 PUSH1 0xCA SHL PUSH1 0x44 DUP3 ADD MSTORE PUSH1 0x64 ADD PUSH2 0xDA JUMP JUMPDEST PUSH1 0x0 DUP2 DUP2 MSTORE PUSH1 0x1 PUSH1 0x20 MSTORE PUSH1 0x40 SWAP1 KECCAK256 PUSH1 0x5 ADD SLOAD PUSH2 0x100 SWAP1 DIV PUSH1 0xFF AND PUSH2 0x527 JUMPI PUSH1 0x40 MLOAD PUSH3 0x461BCD PUSH1 0xE5 SHL DUP2 MSTORE PUSH1 0x20 PUSH1 0x4 DUP3 ADD MSTORE PUSH1 0xA PUSH1 0x24 DUP3 ADD MSTORE PUSH10 0x2737BA1032B73232B217 PUSH1 0xB1 SHL PUSH1 0x44 DUP3 ADD MSTORE PUSH1 0x64 ADD PUSH2 0xDA JUMP JUMPDEST PUSH1 0x0 DUP2 DUP2 MSTORE PUSH1 0x1 PUSH1 0x20 MSTORE PUSH1 0x40 SWAP1 DUP2 SWAP1 KECCAK256 PUSH1 0x2 DUP2 ADD SLOAD PUSH1 0x4 SWAP2 DUP3 ADD SLOAD SWAP3 MLOAD PUSH4 0xA9059CBB PUSH1 0xE0 SHL DUP2 MSTORE CALLER SWAP3 DUP2 ADD SWAP3 SWAP1 SWAP3 MSTORE PUSH1 0x24 DUP3 ADD SWAP3 SWAP1 SWAP3 MSTORE PUSH1 0x1 PUSH1 0x1 PUSH1 0xA0 SHL SUB SWAP1 SWAP2 AND SWAP1 PUSH4 0xA9059CBB SWAP1 PUSH1 0x44 ADD PUSH1 0x20 PUSH1 0x40 MLOAD DUP1 DUP4 SUB DUP2 PUSH1 0x0 DUP8 GAS CALL ISZERO DUP1 ISZERO PUSH2 0x592 JUMPI RETURNDATASIZE PUSH1 0x0 DUP1 RETURNDATACOPY RETURNDATASIZE PUSH1 0x0 REVERT JUMPDEST POP POP POP POP PUSH1 0x40 MLOAD RETURNDATASIZE PUSH1 0x1F NOT PUSH1 0x1F DUP3 ADD AND DUP3 ADD DUP1 PUSH1 0x40 MSTORE POP DUP2 ADD SWAP1 PUSH2 0x5B6 SWAP2 SWAP1 PUSH2 0xAB2 JUMP JUMPDEST POP PUSH1 0x0 DUP2 DUP2 MSTORE PUSH1 0x1 PUSH1 0x20 DUP2 DUP2 MSTORE PUSH1 0x40 SWAP3 DUP4 SWAP1 KECCAK256 PUSH1 0x5 DUP2 ADD DUP1 SLOAD PUSH3 0xFF0000 NOT AND PUSH3 0x10000 OR SWAP1 SSTORE SWAP2 DUP3 ADD SLOAD PUSH1 0x4 SWAP1 SWAP3 ADD SLOAD DUP4 MLOAD CALLER DUP2 MSTORE PUSH1 0x1 PUSH1 0x1 PUSH1 0xA0 SHL SUB SWAP1 SWAP4 AND SWAP2 DUP4 ADD SWAP2 SWAP1 SWAP2 MSTORE SWAP2 DUP2 ADD DUP4 SWAP1 MSTORE PUSH1 0x60 DUP2 ADD SWAP2 SWAP1 SWAP2 MSTORE PUSH32 0x865CA08D59F5CB456E85CD2F7EF63664EA4F73327414E9D8152C4158B0E94645 SWAP1 PUSH1 0x80 ADD PUSH2 0x209 JUMP JUMPDEST CALLER PUSH2 0x652 JUMPI PUSH1 0x40 MLOAD PUSH3 0x461BCD PUSH1 0xE5 SHL DUP2 MSTORE PUSH1 0x4 ADD PUSH2 0xDA SWAP1 PUSH2 0xA60 JUMP JUMPDEST PUSH1 0x0 DUP2 GT PUSH2 0x68F JUMPI PUSH1 0x40 MLOAD PUSH3 0x461BCD PUSH1 0xE5 SHL DUP2 MSTORE PUSH1 0x20 PUSH1 0x4 DUP3 ADD MSTORE PUSH1 0xA PUSH1 0x24 DUP3 ADD MSTORE PUSH10 0x546172676574203C203 PUSH1 0xB4 SHL PUSH1 0x44 DUP3 ADD MSTORE PUSH1 0x64 ADD PUSH2 0xDA JUMP JUMPDEST PUSH1 0x0 DUP3 SWAP1 POP PUSH1 0x1 PUSH1 0x0 DUP1 DUP3 DUP3 SLOAD PUSH2 0x6A6 SWAP2 SWAP1 PUSH2 0xADB JUMP JUMPDEST SWAP1 SWAP2 SSTORE POP POP PUSH1 0x40 DUP1 MLOAD PUSH2 0x100 DUP1 DUP3 ADD DUP4 MSTORE CALLER DUP1 DUP4 MSTORE PUSH1 0x1 PUSH1 0x1 PUSH1 0xA0 SHL SUB DUP8 DUP2 AND PUSH1 0x20 DUP1 DUP7 ADD SWAP2 DUP3 MSTORE DUP8 DUP4 AND DUP7 DUP9 ADD SWAP1 DUP2 MSTORE PUSH1 0x60 DUP8 ADD DUP11 DUP2 MSTORE PUSH1 0x0 PUSH1 0x80 DUP10 ADD DUP2 DUP2 MSTORE PUSH1 0x1 PUSH1 0xA0 DUP12 ADD DUP2 DUP2 MSTORE PUSH1 0xC0 DUP13 ADD DUP5 DUP2 MSTORE PUSH1 0xE0 DUP14 ADD DUP6 DUP2 MSTORE DUP6 SLOAD DUP7 MSTORE SWAP8 DUP4 SWAP1 MSTORE DUP14 DUP6 KECCAK256 SWAP13 MLOAD DUP14 SLOAD SWAP1 DUP12 AND PUSH1 0x1 PUSH1 0x1 PUSH1 0xA0 SHL SUB NOT SWAP2 DUP3 AND OR DUP15 SSTORE SWAP9 MLOAD SWAP3 DUP14 ADD DUP1 SLOAD SWAP4 DUP12 AND SWAP4 DUP11 AND SWAP4 SWAP1 SWAP4 OR SWAP1 SWAP3 SSTORE SWAP5 MLOAD PUSH1 0x2 DUP13 ADD DUP1 SLOAD SWAP2 SWAP1 SWAP10 AND SWAP8 AND SWAP7 SWAP1 SWAP7 OR SWAP1 SWAP7 SSTORE SWAP1 MLOAD PUSH1 0x3 DUP10 ADD SSTORE SWAP4 MLOAD PUSH1 0x4 DUP9 ADD SSTORE MLOAD PUSH1 0x5 SWAP1 SWAP7 ADD DUP1 SLOAD SWAP3 MLOAD SWAP2 MLOAD ISZERO ISZERO PUSH3 0x10000 MUL PUSH3 0xFF0000 NOT SWAP3 ISZERO ISZERO SWAP1 SWAP7 MUL PUSH2 0xFF00 NOT SWAP8 ISZERO ISZERO SWAP8 SWAP1 SWAP8 AND PUSH2 0xFFFF NOT SWAP1 SWAP4 AND SWAP3 SWAP1 SWAP3 OR SWAP6 SWAP1 SWAP6 OR SWAP5 SWAP1 SWAP5 AND SWAP3 SWAP1 SWAP3 OR SWAP1 SWAP3 SSTORE SLOAD SWAP2 MLOAD PUSH32 0x3F4AE8191A4A284E3C7294BFF071396DFB2691082B2012F8FAADBA30772B52D5 SWAP3 PUSH2 0x3E6 SWAP3 SWAP2 PUSH1 0x1 PUSH1 0x1 PUSH1 0xA0 SHL SUB SWAP3 SWAP1 SWAP3 AND DUP3 MSTORE PUSH1 0x60 PUSH1 0x20 DUP4 ADD DUP2 SWAP1 MSTORE PUSH1 0xA SWAP1 DUP4 ADD MSTORE PUSH10 0x103630BAB731B432B21 PUSH1 0xB5 SHL PUSH1 0x80 DUP4 ADD MSTORE PUSH1 0x40 DUP3 ADD MSTORE PUSH1 0xA0 ADD SWAP1 JUMP JUMPDEST PUSH1 0x0 DUP3 DUP2 MSTORE PUSH1 0x1 PUSH1 0x20 MSTORE PUSH1 0x40 SWAP1 KECCAK256 CALLER PUSH2 0x829 JUMPI PUSH1 0x40 MLOAD PUSH3 0x461BCD PUSH1 0xE5 SHL DUP2 MSTORE PUSH1 0x4 ADD PUSH2 0xDA SWAP1 PUSH2 0xA60 JUMP JUMPDEST PUSH1 0x5 DUP2 ADD SLOAD PUSH1 0xFF AND PUSH2 0x86B JUMPI PUSH1 0x40 MLOAD PUSH3 0x461BCD PUSH1 0xE5 SHL DUP2 MSTORE PUSH1 0x20 PUSH1 0x4 DUP3 ADD MSTORE PUSH1 0xB PUSH1 0x24 DUP3 ADD MSTORE PUSH11 0x139BDD0814DD185C9D1959 PUSH1 0xAA SHL PUSH1 0x44 DUP3 ADD MSTORE PUSH1 0x64 ADD PUSH2 0xDA JUMP JUMPDEST PUSH1 0x5 DUP2 ADD SLOAD PUSH2 0x100 SWAP1 DIV PUSH1 0xFF AND ISZERO PUSH2 0x8AD JUMPI PUSH1 0x40 MLOAD PUSH3 0x461BCD PUSH1 0xE5 SHL DUP2 MSTORE PUSH1 0x20 PUSH1 0x4 DUP3 ADD MSTORE PUSH1 0x5 PUSH1 0x24 DUP3 ADD MSTORE PUSH5 0x115B991959 PUSH1 0xDA SHL PUSH1 0x44 DUP3 ADD MSTORE PUSH1 0x64 ADD PUSH2 0xDA JUMP JUMPDEST PUSH1 0x0 DUP3 GT PUSH2 0x8EA JUMPI PUSH1 0x40 MLOAD PUSH3 0x461BCD PUSH1 0xE5 SHL DUP2 MSTORE PUSH1 0x20 PUSH1 0x4 DUP3 ADD MSTORE PUSH1 0xA PUSH1 0x24 DUP3 ADD MSTORE PUSH10 0x416D6F756E74203C203 PUSH1 0xB4 SHL PUSH1 0x44 DUP3 ADD MSTORE PUSH1 0x64 ADD PUSH2 0xDA JUMP JUMPDEST PUSH1 0x2 DUP2 ADD SLOAD PUSH1 0x40 MLOAD PUSH4 0x23B872DD PUSH1 0xE0 SHL DUP2 MSTORE CALLER PUSH1 0x4 DUP3 ADD MSTORE ADDRESS PUSH1 0x24 DUP3 ADD MSTORE PUSH1 0x44 DUP2 ADD DUP5 SWAP1 MSTORE PUSH1 0x1 PUSH1 0x1 PUSH1 0xA0 SHL SUB SWAP1 SWAP2 AND SWAP1 PUSH4 0x23B872DD SWAP1 PUSH1 0x64 ADD PUSH1 0x20 PUSH1 0x40 MLOAD DUP1 DUP4 SUB DUP2 PUSH1 0x0 DUP8 GAS CALL ISZERO DUP1 ISZERO PUSH2 0x943 JUMPI RETURNDATASIZE PUSH1 0x0 DUP1 RETURNDATACOPY RETURNDATASIZE PUSH1 0x0 REVERT JUMPDEST POP POP POP POP PUSH1 0x40 MLOAD RETURNDATASIZE PUSH1 0x1F NOT PUSH1 0x1F DUP3 ADD AND DUP3 ADD DUP1 PUSH1 0x40 MSTORE POP DUP2 ADD SWAP1 PUSH2 0x967 SWAP2 SWAP1 PUSH2 0xAB2 JUMP JUMPDEST POP DUP2 DUP2 PUSH1 0x4 ADD PUSH1 0x0 DUP3 DUP3 SLOAD PUSH2 0x97C SWAP2 SWAP1 PUSH2 0xADB JUMP JUMPDEST SWAP1 SWAP2 SSTORE POP POP PUSH1 0x0 DUP4 DUP2 MSTORE PUSH1 0x2 PUSH1 0x20 SWAP1 DUP2 MSTORE PUSH1 0x40 DUP1 DUP4 KECCAK256 CALLER DUP5 MSTORE SWAP1 SWAP2 MSTORE DUP2 KECCAK256 DUP1 SLOAD DUP5 SWAP3 SWAP1 PUSH2 0x9AA SWAP1 DUP5 SWAP1 PUSH2 0xADB JUMP JUMPDEST SWAP1 SWAP2 SSTORE POP POP PUSH1 0x40 DUP1 MLOAD CALLER DUP2 MSTORE PUSH1 0x20 DUP2 ADD DUP6 SWAP1 MSTORE SWAP1 DUP2 ADD DUP4 SWAP1 MSTORE PUSH32 0xABA4F973C8F45A52365C8348704E79653E4B58EBD452F2D2115423A62EF7A3E1 SWAP1 PUSH1 0x60 ADD PUSH2 0x3E6 JUMP JUMPDEST PUSH1 0x0 PUSH1 0x20 DUP3 DUP5 SUB SLT ISZERO PUSH2 0x9FF JUMPI PUSH1 0x0 DUP1 REVERT JUMPDEST POP CALLDATALOAD SWAP2 SWAP1 POP JUMP JUMPDEST PUSH1 0x0 DUP1 PUSH1 0x40 DUP4 DUP6 SUB SLT ISZERO PUSH2 0xA19 JUMPI PUSH1 0x0 DUP1 REVERT JUMPDEST DUP3 CALLDATALOAD PUSH1 0x1 PUSH1 0x1 PUSH1 0xA0 SHL SUB DUP2 AND DUP2 EQ PUSH2 0xA30 JUMPI PUSH1 0x0 DUP1 REVERT JUMPDEST SWAP5 PUSH1 0x20 SWAP4 SWAP1 SWAP4 ADD CALLDATALOAD SWAP4 POP POP POP JUMP JUMPDEST PUSH1 0x0 DUP1 PUSH1 0x40 DUP4 DUP6 SUB SLT ISZERO PUSH2 0xA51 JUMPI PUSH1 0x0 DUP1 REVERT JUMPDEST POP POP DUP1 CALLDATALOAD SWAP3 PUSH1 0x20 SWAP1 SWAP2 ADD CALLDATALOAD SWAP2 POP JUMP JUMPDEST PUSH1 0x20 DUP1 DUP3 MSTORE PUSH1 0xB SWAP1 DUP3 ADD MSTORE PUSH11 0x4E6F742041646472657373 PUSH1 0xA8 SHL PUSH1 0x40 DUP3 ADD MSTORE PUSH1 0x60 ADD SWAP1 JUMP JUMPDEST PUSH4 0x4E487B71 PUSH1 0xE0 SHL PUSH1 0x0 MSTORE PUSH1 0x11 PUSH1 0x4 MSTORE PUSH1 0x24 PUSH1 0x0 REVERT JUMPDEST PUSH1 0x0 DUP3 DUP3 LT ISZERO PUSH2 0xAAD JUMPI PUSH2 0xAAD PUSH2 0xA85 JUMP JUMPDEST POP SUB SWAP1 JUMP JUMPDEST PUSH1 0x0 PUSH1 0x20 DUP3 DUP5 SUB SLT ISZERO PUSH2 0xAC4 JUMPI PUSH1 0x0 DUP1 REVERT JUMPDEST DUP2 MLOAD DUP1 ISZERO ISZERO DUP2 EQ PUSH2 0xAD4 JUMPI PUSH1 0x0 DUP1 REVERT JUMPDEST SWAP4 SWAP3 POP POP POP JUMP JUMPDEST PUSH1 0x0 DUP3 NOT DUP3 GT ISZERO PUSH2 0xAEE JUMPI PUSH2 0xAEE PUSH2 0xA85 JUMP JUMPDEST POP ADD SWAP1 JUMP INVALID LOG2 PUSH5 0x6970667358 0x22 SLT KECCAK256 PUSH8 0xCC27E654F419F938 RETURN 0xE7 PUSH19 0x8E938D31F3B101EC54A4DBB7548DE1F04AF20E NUMBER PUSH5 0x736F6C6343 STOP ADDMOD 0xC STOP CALLER ",
  "sha1": "ae1e2daa7af801f1918b5b94db0208963039885d",
  "source": "// SPDX-License-Identifier: MIT\npragma solidity >0.6.0;\n\nimport \"./Interfaces/IERC20.sol\";\nimport \"./Interfaces/PureMath.sol\";\n\n/*\n * @title: Crown Fund Smart Contract [Pledge code].\n * @author: Anthony (fps) https://github.com/fps8k .\n * @dev: reference [README.md]\n*/\n\ncontract CrowdFund\n{\n    \n    // Number of campaigns total;\n    \n    uint256 campaign_count;\n\n\n    // Campaing struct with data.\n\n    struct Campaign\n    {\n        address creator;\n        address campaign_token;\n        IERC20 token;\n        uint256 target_amount;\n        uint256 total_amount;\n\n        bool started;\n        bool ended;\n        bool claimed;\n    }\n\n    \n    // Mapping id to campaign and id to address that donated what amount to the campaign id.\n\n    mapping(uint256 => Campaign) private campaign;\n    mapping(uint256 => mapping(address => uint256)) private donors;\n\n\n\n    // Events.\n\n    event Launch(address, string, uint256);             // Address, launched, campaign_number.\n    event Pledge(address, uint256, uint256);            // Address, campaign_number, amount.\n    event Withdraw(address, uint256, uint256);          // Address, campaign_number, amount.\n    event End(address, string, uint256);                // Address, ended, campaign_number.\n    event Claim(address, address, uint256, uint256);    // Address, campaign_token, campaign_number, amount.\n\n\n\n\n    // Starts a new campaign for that token.\n    // 0x1aE0EA34a72D944a8C7603FfB3eC30a6669E454C, 1000\n\n    function launch(address _token, uint _target) public\n    {\n        require(msg.sender != address(0), \"Not Address\");\n        require(_target > 0, \"Target < 0\");\n\n        IERC20 new_campaign_token = IERC20(_token);\n\n        campaign_count += 1;\n\n        campaign[campaign_count] = Campaign(\n            msg.sender, \n            _token, \n            new_campaign_token, \n            _target, \n            0,\n            true,\n            false, \n            false\n        );\n\n        emit Launch(msg.sender, \" launched \", campaign_count);\n    }\n\n\n\n\n    // Pledge\n\n    function pledge(uint _campaign_number, uint256 _amount) public\n    {\n        Campaign storage this_campaign = campaign[_campaign_number];\n\n        require(msg.sender != address(0), \"Not Address\");                         // Not zero address.\n        require(this_campaign.started, \"Not Started\");                                           // The campaign has started.\n        require(!this_campaign.ended, \"Ended\");                                 // The campaign has not ended.\n        require(_amount > 0, \"Amount < 0\");                                     // Amount is > 0.\n\n        \n        this_campaign.token.transferFrom(msg.sender, address(this), _amount);\n        this_campaign.total_amount += _amount;\n\n        donors[_campaign_number][msg.sender] += _amount;\n\n        emit Pledge(msg.sender, _campaign_number, _amount);\n    }\n\n\n\n\n    // Withdraw\n    \n    function withdraw(uint _campaign_number) public\n    {\n        Campaign storage this_campaign = campaign[_campaign_number];\n        \n        // Check:\n        require(msg.sender != address(0), \"Not Address\");\n        require(!this_campaign.ended, \"Ended\");\n        require(donors[_campaign_number][msg.sender] > 0, \"Did not pledge.\");\n\n        uint256 _pledge = donors[_campaign_number][msg.sender];\n\n        campaign[_campaign_number].total_amount -= _pledge;\n        donors[_campaign_number][msg.sender] = 0;\n\n        this_campaign.token.transfer(msg.sender, _pledge);\n\n        emit Withdraw(msg.sender, _campaign_number, _pledge);\n    }\n\n\n\n\n    // End a campaign.\n    \n    function end(uint _campaign_number) public\n    {\n        require(msg.sender != address(0), \"Not Address\");\n        require(campaign[_campaign_number].started, \"Not started\");\n        require(msg.sender == campaign[_campaign_number].creator, \"Not Creator\");\n\n        campaign[_campaign_number].ended = true;\n\n        emit End(msg.sender, \" ended \", _campaign_number);\n    }\n\n\n\n\n    // Claim\n\n    function claim(uint256 _campaign_number) public\n    {\n        require(msg.sender != address(0), \"Not address\");\n        require(msg.sender == campaign[_campaign_number].creator, \"Not creator\");\n        require(!campaign[_campaign_number].claimed, \"Claimed\");\n        require(campaign[_campaign_number].ended, \"Not ended.\");\n        // require(campaign[_campaign_number].total_amount >= campaign[_campaign_number].target_amount, \"Not up to target, refund the funders.\");\n\n        campaign[_campaign_number].token.transfer(msg.sender, campaign[_campaign_number].total_amount);\n\n        campaign[_campaign_number].claimed = true;\n\n        emit Claim(msg.sender, campaign[_campaign_number].campaign_token, _campaign_number, campaign[_campaign_number].total_amount);\n    }\n}",
  "sourcePath": "contracts/CrowdFund.sol",
  "type": "contract"
}