{"abi":[{"inputs":[],"stateMutability":"nonpayable","type":"constructor","name":"constructor"},{"stateMutability":"payable","type":"fallback"},{"inputs":[{"internalType":"uint256","name":"index","type":"uint256"}],"name":"Approve_Transaction","outputs":[],"stateMutability":"payable","type":"function"},{"inputs":[],"name":"Create_Wallet","outputs":[],"stateMutability":"nonpayable","type":"function"},{"inputs":[{"internalType":"address","name":"receiver","type":"address"},{"internalType":"uint256","name":"val","type":"uint256"}],"name":"Make_Transaction","outputs":[],"stateMutability":"nonpayable","type":"function"},{"inputs":[{"internalType":"uint256","name":"index","type":"uint256"}],"name":"Revoke_Transaction","outputs":[{"internalType":"string","name":"","type":"string"}],"stateMutability":"nonpayable","type":"function"},{"inputs":[{"internalType":"uint256","name":"","type":"uint256"}],"name":"all","outputs":[{"internalType":"address payable","name":"user","type":"address"},{"internalType":"uint256","name":"cash","type":"uint256"}],"stateMutability":"view","type":"function"},{"inputs":[],"name":"getwallets","outputs":[{"internalType":"uint256","name":"","type":"uint256"}],"stateMutability":"view","type":"function"},{"inputs":[{"internalType":"uint256","name":"","type":"uint256"}],"name":"transactions","outputs":[{"internalType":"bytes32","name":"t_hash","type":"bytes32"},{"internalType":"address","name":"from","type":"address"},{"internalType":"address","name":"to","type":"address"},{"internalType":"uint256","name":"amount","type":"uint256"},{"internalType":"bool","name":"approved","type":"bool"},{"internalType":"uint256","name":"number_of_appprovals","type":"uint256"}],"stateMutability":"view","type":"function"},{"inputs":[{"internalType":"uint256","name":"","type":"uint256"}],"name":"wallets","outputs":[{"internalType":"address","name":"","type":"address"}],"stateMutability":"view","type":"function"},{"stateMutability":"payable","type":"receive"}],"bytecode":"608060405234801561001057600080fd5b50600380546001600160a01b03191633179055610d6c806100326000396000f3fe6080604052600436106100795760003560e01c80639fb3dca81161004b5780639fb3dca81461016e578063aba106911461018c578063cab09765146101ac578063e5c5e64c146101bf57005b80636114730c146100825780637ad71f72146100c65780639ace38c2146100fe5780639f70bbbe1461015957005b3661008057005b005b34801561008e57600080fd5b506100a261009d366004610bf8565b6101ec565b604080516001600160a01b0390931683526020830191909152015b60405180910390f35b3480156100d257600080fd5b506100e66100e1366004610bf8565b610224565b6040516001600160a01b0390911681526020016100bd565b34801561010a57600080fd5b5061011e610119366004610bf8565b61024e565b604080519687526001600160a01b039586166020880152939094169285019290925260608401521515608083015260a082015260c0016100bd565b34801561016557600080fd5b506100806102a7565b34801561017a57600080fd5b506002546040519081526020016100bd565b34801561019857600080fd5b506100806101a7366004610c11565b61045e565b6100806101ba366004610bf8565b610721565b3480156101cb57600080fd5b506101df6101da366004610bf8565b610a78565b6040516100bd9190610c49565b600681815481106101fc57600080fd5b6000918252602090912060029091020180546001909101546001600160a01b03909116915082565b6002818154811061023457600080fd5b6000918252602090912001546001600160a01b0316905081565b6007818154811061025e57600080fd5b60009182526020909120600690910201805460018201546002830154600384015460048501546005909501549395506001600160a01b0392831694919092169260ff9091169086565b60005b60025481101561034b57336001600160a01b0316600282815481106102d1576102d1610c9e565b6000918252602090912001546001600160a01b031614156103395760405162461bcd60e51b815260206004820152601f60248201527f596f752068617665206372656174656420612077616c6c657420686572652e0060448201526064015b60405180910390fd5b8061034381610cca565b9150506102aa565b503360009081526020819052604081208054829061036a908290610ce5565b9091555050600280546001818101835560009283527f405787fa12a823e0f2b7631cc41b3ba8828b3321ca811111fa75cd3aa3bb5ace90910180546001600160a01b0319163317905560048054919290916103c6908490610ce5565b90915550506040805180820190915233815260006020820181815260068054600181018255925291517ff652222313e28459528d920b65115c16c04f3efc82aaedc97be59f3f377c0d3f600290920291820180546001600160a01b0319166001600160a01b0390921691909117905590517ff652222313e28459528d920b65115c16c04f3efc82aaedc97be59f3f377c0d4090910155565b61046733610b8e565b6104b35760405162461bcd60e51b815260206004820152601860248201527f596f752068617665206e6f2077616c6c657420686572652e00000000000000006044820152606401610330565b81816000811161051a5760405162461bcd60e51b815260206004820152602c60248201527f596f752063616e74207375626d69742061207472616e73616374696f6e20746860448201526b30ba1034b99032b6b83a3c9760a11b6064820152608401610330565b61052382610b8e565b61056f5760405162461bcd60e51b815260206004820181905260248201527f54686520726563656976657220686173206e6f2077616c6c657420686572652e6044820152606401610330565b6040516bffffffffffffffffffffffff1933606090811b8216602084015286901b1660348201526048810184905260009060680160408051601f19818403018152828252805160209182012060c0840183528352339083019081526001600160a01b039788169183019182526060830196875260006080840181815260a08501828152600780546001810182559352945160069092027fa66cc928b5edb82af9bd49922954155ab7b0942694bea4ce44661d9a8736c68881019290925591517fa66cc928b5edb82af9bd49922954155ab7b0942694bea4ce44661d9a8736c68982018054918b166001600160a01b031992831617905592517fa66cc928b5edb82af9bd49922954155ab7b0942694bea4ce44661d9a8736c68a8201805491909a1693169290921790975594517fa66cc928b5edb82af9bd49922954155ab7b0942694bea4ce44661d9a8736c68b86015594517fa66cc928b5edb82af9bd49922954155ab7b0942694bea4ce44661d9a8736c68c8501805491151560ff19909216919091179055505091517fa66cc928b5edb82af9bd49922954155ab7b0942694bea4ce44661d9a8736c68d9091015550565b60055460ff16156107745760405162461bcd60e51b815260206004820152601c60248201527f596f752063616e6e6f74207265646f207468697320616374696f6e2e000000006044820152606401610330565b6005805460ff1916600117905580600754829081106107c85760405162461bcd60e51b815260206004820152601060248201526f125b99195e081b9bdd081b1a5cdd195960821b6044820152606401610330565b6001600784815481106107dd576107dd610c9e565b906000526020600020906006020160040160006101000a81548160ff02191690831515021790555060016007848154811061081a5761081a610c9e565b9060005260206000209060060201600501600082825461083a9190610ce5565b909155505060045461084e90600290610cfd565b6007848154811061086157610861610c9e565b9060005260206000209060060201600501541115610a69576007838154811061088c5761088c610c9e565b6000918252602090912060026006909202010154600780546001600160a01b0390921691859081106108c0576108c0610c9e565b90600052602060002090600602016003015460405160006040518083038185875af1925050503d8060008114610912576040519150601f19603f3d011682016040523d82523d6000602084013e610917565b606091505b50505060005b600654811015610a0b576007848154811061093a5761093a610c9e565b906000526020600020906006020160020160009054906101000a90046001600160a01b03166001600160a01b03166006828154811061097b5761097b610c9e565b60009182526020909120600290910201546001600160a01b031614156109f957600784815481106109ae576109ae610c9e565b906000526020600020906006020160030154600682815481106109d3576109d3610c9e565b906000526020600020906002020160010160008282546109f39190610ce5565b90915550505b80610a0381610cca565b91505061091d565b5060078381548110610a1f57610a1f610c9e565b6000918252602082206006909102018181556001810180546001600160a01b031990811690915560028201805490911690556003810182905560048101805460ff19169055600501555b50506005805460ff1916905550565b60055460609060ff1615610ace5760405162461bcd60e51b815260206004820152601c60248201527f596f752063616e6e6f74207265646f207468697320616374696f6e2e000000006044820152606401610330565b6005805460ff1916600117905581600160078481548110610af157610af1610c9e565b906000526020600020906006020160040160006101000a81548160ff021916908315150217905550600160078481548110610b2e57610b2e610c9e565b90600052602060002090600602016005016000828254610b4e9190610d1f565b9091555050604080518082019091526013815272151c985b9cd858dd1a5bdb881c995d9bdad959606a1b60208201526005805460ff191690559392505050565b6000805b600254811015610bef57826001600160a01b031660028281548110610bb957610bb9610c9e565b6000918252602090912001546001600160a01b03161415610bdd5750600192915050565b80610be781610cca565b915050610b92565b50600092915050565b600060208284031215610c0a57600080fd5b5035919050565b60008060408385031215610c2457600080fd5b82356001600160a01b0381168114610c3b57600080fd5b946020939093013593505050565b600060208083528351808285015260005b81811015610c7657858101830151858201604001528201610c5a565b81811115610c88576000604083870101525b50601f01601f1916929092016040019392505050565b634e487b7160e01b600052603260045260246000fd5b634e487b7160e01b600052601160045260246000fd5b6000600019821415610cde57610cde610cb4565b5060010190565b60008219821115610cf857610cf8610cb4565b500190565b600082610d1a57634e487b7160e01b600052601260045260246000fd5b500490565b600082821015610d3157610d31610cb4565b50039056fea2646970667358221220f1c0bbcd233e32140fd569d7ff9dcbd9af6b2ba1c577c311d950e5717f9ff41f64736f6c634300080c0033","bytecodeSha1":"8438b017ad7d0222c5da2aa408674fa2c517903e","compiler":{"evm_version":"istanbul","optimizer":{"enabled":true,"runs":200},"version":"0.8.12+commit.f00d7308"},"contractName":"MultiSigWallet","language":"Solidity","natspec":{"kind":"dev","methods":{},"notice":"D E S C R I P T I O N A basic solidity program that allows the creation of a wallet in the contract. Wallet owners can: 1. Submit a transaction. 2. Approve and revoke a pending transaction. 3. Anyone can execute a transaction after enough owners has approved it.","version":1},"opcodes":"PUSH1 0x80 PUSH1 0x40 MSTORE PUSH1 0x4 CALLDATASIZE LT PUSH2 0x79 JUMPI PUSH1 0x0 CALLDATALOAD PUSH1 0xE0 SHR DUP1 PUSH4 0x9FB3DCA8 GT PUSH2 0x4B JUMPI DUP1 PUSH4 0x9FB3DCA8 EQ PUSH2 0x16E JUMPI DUP1 PUSH4 0xABA10691 EQ PUSH2 0x18C JUMPI DUP1 PUSH4 0xCAB09765 EQ PUSH2 0x1AC JUMPI DUP1 PUSH4 0xE5C5E64C EQ PUSH2 0x1BF JUMPI STOP JUMPDEST DUP1 PUSH4 0x6114730C EQ PUSH2 0x82 JUMPI DUP1 PUSH4 0x7AD71F72 EQ PUSH2 0xC6 JUMPI DUP1 PUSH4 0x9ACE38C2 EQ PUSH2 0xFE JUMPI DUP1 PUSH4 0x9F70BBBE EQ PUSH2 0x159 JUMPI STOP JUMPDEST CALLDATASIZE PUSH2 0x80 JUMPI STOP JUMPDEST STOP JUMPDEST CALLVALUE DUP1 ISZERO PUSH2 0x8E JUMPI PUSH1 0x0 DUP1 REVERT JUMPDEST POP PUSH2 0xA2 PUSH2 0x9D CALLDATASIZE PUSH1 0x4 PUSH2 0xBF8 JUMP JUMPDEST PUSH2 0x1EC JUMP JUMPDEST PUSH1 0x40 DUP1 MLOAD PUSH1 0x1 PUSH1 0x1 PUSH1 0xA0 SHL SUB SWAP1 SWAP4 AND DUP4 MSTORE PUSH1 0x20 DUP4 ADD SWAP2 SWAP1 SWAP2 MSTORE ADD JUMPDEST PUSH1 0x40 MLOAD DUP1 SWAP2 SUB SWAP1 RETURN JUMPDEST CALLVALUE DUP1 ISZERO PUSH2 0xD2 JUMPI PUSH1 0x0 DUP1 REVERT JUMPDEST POP PUSH2 0xE6 PUSH2 0xE1 CALLDATASIZE PUSH1 0x4 PUSH2 0xBF8 JUMP JUMPDEST PUSH2 0x224 JUMP JUMPDEST PUSH1 0x40 MLOAD PUSH1 0x1 PUSH1 0x1 PUSH1 0xA0 SHL SUB SWAP1 SWAP2 AND DUP2 MSTORE PUSH1 0x20 ADD PUSH2 0xBD JUMP JUMPDEST CALLVALUE DUP1 ISZERO PUSH2 0x10A JUMPI PUSH1 0x0 DUP1 REVERT JUMPDEST POP PUSH2 0x11E PUSH2 0x119 CALLDATASIZE PUSH1 0x4 PUSH2 0xBF8 JUMP JUMPDEST PUSH2 0x24E JUMP JUMPDEST PUSH1 0x40 DUP1 MLOAD SWAP7 DUP8 MSTORE PUSH1 0x1 PUSH1 0x1 PUSH1 0xA0 SHL SUB SWAP6 DUP7 AND PUSH1 0x20 DUP9 ADD MSTORE SWAP4 SWAP1 SWAP5 AND SWAP3 DUP6 ADD SWAP3 SWAP1 SWAP3 MSTORE PUSH1 0x60 DUP5 ADD MSTORE ISZERO ISZERO PUSH1 0x80 DUP4 ADD MSTORE PUSH1 0xA0 DUP3 ADD MSTORE PUSH1 0xC0 ADD PUSH2 0xBD JUMP JUMPDEST CALLVALUE DUP1 ISZERO PUSH2 0x165 JUMPI PUSH1 0x0 DUP1 REVERT JUMPDEST POP PUSH2 0x80 PUSH2 0x2A7 JUMP JUMPDEST CALLVALUE DUP1 ISZERO PUSH2 0x17A JUMPI PUSH1 0x0 DUP1 REVERT JUMPDEST POP PUSH1 0x2 SLOAD PUSH1 0x40 MLOAD SWAP1 DUP2 MSTORE PUSH1 0x20 ADD PUSH2 0xBD JUMP JUMPDEST CALLVALUE DUP1 ISZERO PUSH2 0x198 JUMPI PUSH1 0x0 DUP1 REVERT JUMPDEST POP PUSH2 0x80 PUSH2 0x1A7 CALLDATASIZE PUSH1 0x4 PUSH2 0xC11 JUMP JUMPDEST PUSH2 0x45E JUMP JUMPDEST PUSH2 0x80 PUSH2 0x1BA CALLDATASIZE PUSH1 0x4 PUSH2 0xBF8 JUMP JUMPDEST PUSH2 0x721 JUMP JUMPDEST CALLVALUE DUP1 ISZERO PUSH2 0x1CB JUMPI PUSH1 0x0 DUP1 REVERT JUMPDEST POP PUSH2 0x1DF PUSH2 0x1DA CALLDATASIZE PUSH1 0x4 PUSH2 0xBF8 JUMP JUMPDEST PUSH2 0xA78 JUMP JUMPDEST PUSH1 0x40 MLOAD PUSH2 0xBD SWAP2 SWAP1 PUSH2 0xC49 JUMP JUMPDEST PUSH1 0x6 DUP2 DUP2 SLOAD DUP2 LT PUSH2 0x1FC JUMPI PUSH1 0x0 DUP1 REVERT JUMPDEST PUSH1 0x0 SWAP2 DUP3 MSTORE PUSH1 0x20 SWAP1 SWAP2 KECCAK256 PUSH1 0x2 SWAP1 SWAP2 MUL ADD DUP1 SLOAD PUSH1 0x1 SWAP1 SWAP2 ADD SLOAD PUSH1 0x1 PUSH1 0x1 PUSH1 0xA0 SHL SUB SWAP1 SWAP2 AND SWAP2 POP DUP3 JUMP JUMPDEST PUSH1 0x2 DUP2 DUP2 SLOAD DUP2 LT PUSH2 0x234 JUMPI PUSH1 0x0 DUP1 REVERT JUMPDEST PUSH1 0x0 SWAP2 DUP3 MSTORE PUSH1 0x20 SWAP1 SWAP2 KECCAK256 ADD SLOAD PUSH1 0x1 PUSH1 0x1 PUSH1 0xA0 SHL SUB AND SWAP1 POP DUP2 JUMP JUMPDEST PUSH1 0x7 DUP2 DUP2 SLOAD DUP2 LT PUSH2 0x25E JUMPI PUSH1 0x0 DUP1 REVERT JUMPDEST PUSH1 0x0 SWAP2 DUP3 MSTORE PUSH1 0x20 SWAP1 SWAP2 KECCAK256 PUSH1 0x6 SWAP1 SWAP2 MUL ADD DUP1 SLOAD PUSH1 0x1 DUP3 ADD SLOAD PUSH1 0x2 DUP4 ADD SLOAD PUSH1 0x3 DUP5 ADD SLOAD PUSH1 0x4 DUP6 ADD SLOAD PUSH1 0x5 SWAP1 SWAP6 ADD SLOAD SWAP4 SWAP6 POP PUSH1 0x1 PUSH1 0x1 PUSH1 0xA0 SHL SUB SWAP3 DUP4 AND SWAP5 SWAP2 SWAP1 SWAP3 AND SWAP3 PUSH1 0xFF SWAP1 SWAP2 AND SWAP1 DUP7 JUMP JUMPDEST PUSH1 0x0 JUMPDEST PUSH1 0x2 SLOAD DUP2 LT ISZERO PUSH2 0x34B JUMPI CALLER PUSH1 0x1 PUSH1 0x1 PUSH1 0xA0 SHL SUB AND PUSH1 0x2 DUP3 DUP2 SLOAD DUP2 LT PUSH2 0x2D1 JUMPI PUSH2 0x2D1 PUSH2 0xC9E JUMP JUMPDEST PUSH1 0x0 SWAP2 DUP3 MSTORE PUSH1 0x20 SWAP1 SWAP2 KECCAK256 ADD SLOAD PUSH1 0x1 PUSH1 0x1 PUSH1 0xA0 SHL SUB AND EQ ISZERO PUSH2 0x339 JUMPI PUSH1 0x40 MLOAD PUSH3 0x461BCD PUSH1 0xE5 SHL DUP2 MSTORE PUSH1 0x20 PUSH1 0x4 DUP3 ADD MSTORE PUSH1 0x1F PUSH1 0x24 DUP3 ADD MSTORE PUSH32 0x596F752068617665206372656174656420612077616C6C657420686572652E00 PUSH1 0x44 DUP3 ADD MSTORE PUSH1 0x64 ADD JUMPDEST PUSH1 0x40 MLOAD DUP1 SWAP2 SUB SWAP1 REVERT JUMPDEST DUP1 PUSH2 0x343 DUP2 PUSH2 0xCCA JUMP JUMPDEST SWAP2 POP POP PUSH2 0x2AA JUMP JUMPDEST POP CALLER PUSH1 0x0 SWAP1 DUP2 MSTORE PUSH1 0x20 DUP2 SWAP1 MSTORE PUSH1 0x40 DUP2 KECCAK256 DUP1 SLOAD DUP3 SWAP1 PUSH2 0x36A SWAP1 DUP3 SWAP1 PUSH2 0xCE5 JUMP JUMPDEST SWAP1 SWAP2 SSTORE POP POP PUSH1 0x2 DUP1 SLOAD PUSH1 0x1 DUP2 DUP2 ADD DUP4 SSTORE PUSH1 0x0 SWAP3 DUP4 MSTORE PUSH32 0x405787FA12A823E0F2B7631CC41B3BA8828B3321CA811111FA75CD3AA3BB5ACE SWAP1 SWAP2 ADD DUP1 SLOAD PUSH1 0x1 PUSH1 0x1 PUSH1 0xA0 SHL SUB NOT AND CALLER OR SWAP1 SSTORE PUSH1 0x4 DUP1 SLOAD SWAP2 SWAP3 SWAP1 SWAP2 PUSH2 0x3C6 SWAP1 DUP5 SWAP1 PUSH2 0xCE5 JUMP JUMPDEST SWAP1 SWAP2 SSTORE POP POP PUSH1 0x40 DUP1 MLOAD DUP1 DUP3 ADD SWAP1 SWAP2 MSTORE CALLER DUP2 MSTORE PUSH1 0x0 PUSH1 0x20 DUP3 ADD DUP2 DUP2 MSTORE PUSH1 0x6 DUP1 SLOAD PUSH1 0x1 DUP2 ADD DUP3 SSTORE SWAP3 MSTORE SWAP2 MLOAD PUSH32 0xF652222313E28459528D920B65115C16C04F3EFC82AAEDC97BE59F3F377C0D3F PUSH1 0x2 SWAP1 SWAP3 MUL SWAP2 DUP3 ADD DUP1 SLOAD PUSH1 0x1 PUSH1 0x1 PUSH1 0xA0 SHL SUB NOT AND PUSH1 0x1 PUSH1 0x1 PUSH1 0xA0 SHL SUB SWAP1 SWAP3 AND SWAP2 SWAP1 SWAP2 OR SWAP1 SSTORE SWAP1 MLOAD PUSH32 0xF652222313E28459528D920B65115C16C04F3EFC82AAEDC97BE59F3F377C0D40 SWAP1 SWAP2 ADD SSTORE JUMP JUMPDEST PUSH2 0x467 CALLER PUSH2 0xB8E JUMP JUMPDEST PUSH2 0x4B3 JUMPI PUSH1 0x40 MLOAD PUSH3 0x461BCD PUSH1 0xE5 SHL DUP2 MSTORE PUSH1 0x20 PUSH1 0x4 DUP3 ADD MSTORE PUSH1 0x18 PUSH1 0x24 DUP3 ADD MSTORE PUSH32 0x596F752068617665206E6F2077616C6C657420686572652E0000000000000000 PUSH1 0x44 DUP3 ADD MSTORE PUSH1 0x64 ADD PUSH2 0x330 JUMP JUMPDEST DUP2 DUP2 PUSH1 0x0 DUP2 GT PUSH2 0x51A JUMPI PUSH1 0x40 MLOAD PUSH3 0x461BCD PUSH1 0xE5 SHL DUP2 MSTORE PUSH1 0x20 PUSH1 0x4 DUP3 ADD MSTORE PUSH1 0x2C PUSH1 0x24 DUP3 ADD MSTORE PUSH32 0x596F752063616E74207375626D69742061207472616E73616374696F6E207468 PUSH1 0x44 DUP3 ADD MSTORE PUSH12 0x30BA1034B99032B6B83A3C97 PUSH1 0xA1 SHL PUSH1 0x64 DUP3 ADD MSTORE PUSH1 0x84 ADD PUSH2 0x330 JUMP JUMPDEST PUSH2 0x523 DUP3 PUSH2 0xB8E JUMP JUMPDEST PUSH2 0x56F JUMPI PUSH1 0x40 MLOAD PUSH3 0x461BCD PUSH1 0xE5 SHL DUP2 MSTORE PUSH1 0x20 PUSH1 0x4 DUP3 ADD DUP2 SWAP1 MSTORE PUSH1 0x24 DUP3 ADD MSTORE PUSH32 0x54686520726563656976657220686173206E6F2077616C6C657420686572652E PUSH1 0x44 DUP3 ADD MSTORE PUSH1 0x64 ADD PUSH2 0x330 JUMP JUMPDEST PUSH1 0x40 MLOAD PUSH12 0xFFFFFFFFFFFFFFFFFFFFFFFF NOT CALLER PUSH1 0x60 SWAP1 DUP2 SHL DUP3 AND PUSH1 0x20 DUP5 ADD MSTORE DUP7 SWAP1 SHL AND PUSH1 0x34 DUP3 ADD MSTORE PUSH1 0x48 DUP2 ADD DUP5 SWAP1 MSTORE PUSH1 0x0 SWAP1 PUSH1 0x68 ADD PUSH1 0x40 DUP1 MLOAD PUSH1 0x1F NOT DUP2 DUP5 SUB ADD DUP2 MSTORE DUP3 DUP3 MSTORE DUP1 MLOAD PUSH1 0x20 SWAP2 DUP3 ADD KECCAK256 PUSH1 0xC0 DUP5 ADD DUP4 MSTORE DUP4 MSTORE CALLER SWAP1 DUP4 ADD SWAP1 DUP2 MSTORE PUSH1 0x1 PUSH1 0x1 PUSH1 0xA0 SHL SUB SWAP8 DUP9 AND SWAP2 DUP4 ADD SWAP2 DUP3 MSTORE PUSH1 0x60 DUP4 ADD SWAP7 DUP8 MSTORE PUSH1 0x0 PUSH1 0x80 DUP5 ADD DUP2 DUP2 MSTORE PUSH1 0xA0 DUP6 ADD DUP3 DUP2 MSTORE PUSH1 0x7 DUP1 SLOAD PUSH1 0x1 DUP2 ADD DUP3 SSTORE SWAP4 MSTORE SWAP5 MLOAD PUSH1 0x6 SWAP1 SWAP3 MUL PUSH32 0xA66CC928B5EDB82AF9BD49922954155AB7B0942694BEA4CE44661D9A8736C688 DUP2 ADD SWAP3 SWAP1 SWAP3 SSTORE SWAP2 MLOAD PUSH32 0xA66CC928B5EDB82AF9BD49922954155AB7B0942694BEA4CE44661D9A8736C689 DUP3 ADD DUP1 SLOAD SWAP2 DUP12 AND PUSH1 0x1 PUSH1 0x1 PUSH1 0xA0 SHL SUB NOT SWAP3 DUP4 AND OR SWAP1 SSTORE SWAP3 MLOAD PUSH32 0xA66CC928B5EDB82AF9BD49922954155AB7B0942694BEA4CE44661D9A8736C68A DUP3 ADD DUP1 SLOAD SWAP2 SWAP1 SWAP11 AND SWAP4 AND SWAP3 SWAP1 SWAP3 OR SWAP1 SWAP8 SSTORE SWAP5 MLOAD PUSH32 0xA66CC928B5EDB82AF9BD49922954155AB7B0942694BEA4CE44661D9A8736C68B DUP7 ADD SSTORE SWAP5 MLOAD PUSH32 0xA66CC928B5EDB82AF9BD49922954155AB7B0942694BEA4CE44661D9A8736C68C DUP6 ADD DUP1 SLOAD SWAP2 ISZERO ISZERO PUSH1 0xFF NOT SWAP1 SWAP3 AND SWAP2 SWAP1 SWAP2 OR SWAP1 SSTORE POP POP SWAP2 MLOAD PUSH32 0xA66CC928B5EDB82AF9BD49922954155AB7B0942694BEA4CE44661D9A8736C68D SWAP1 SWAP2 ADD SSTORE POP JUMP JUMPDEST PUSH1 0x5 SLOAD PUSH1 0xFF AND ISZERO PUSH2 0x774 JUMPI PUSH1 0x40 MLOAD PUSH3 0x461BCD PUSH1 0xE5 SHL DUP2 MSTORE PUSH1 0x20 PUSH1 0x4 DUP3 ADD MSTORE PUSH1 0x1C PUSH1 0x24 DUP3 ADD MSTORE PUSH32 0x596F752063616E6E6F74207265646F207468697320616374696F6E2E00000000 PUSH1 0x44 DUP3 ADD MSTORE PUSH1 0x64 ADD PUSH2 0x330 JUMP JUMPDEST PUSH1 0x5 DUP1 SLOAD PUSH1 0xFF NOT AND PUSH1 0x1 OR SWAP1 SSTORE DUP1 PUSH1 0x7 SLOAD DUP3 SWAP1 DUP2 LT PUSH2 0x7C8 JUMPI PUSH1 0x40 MLOAD PUSH3 0x461BCD PUSH1 0xE5 SHL DUP2 MSTORE PUSH1 0x20 PUSH1 0x4 DUP3 ADD MSTORE PUSH1 0x10 PUSH1 0x24 DUP3 ADD MSTORE PUSH16 0x125B99195E081B9BDD081B1A5CDD1959 PUSH1 0x82 SHL PUSH1 0x44 DUP3 ADD MSTORE PUSH1 0x64 ADD PUSH2 0x330 JUMP JUMPDEST PUSH1 0x1 PUSH1 0x7 DUP5 DUP2 SLOAD DUP2 LT PUSH2 0x7DD JUMPI PUSH2 0x7DD PUSH2 0xC9E JUMP JUMPDEST SWAP1 PUSH1 0x0 MSTORE PUSH1 0x20 PUSH1 0x0 KECCAK256 SWAP1 PUSH1 0x6 MUL ADD PUSH1 0x4 ADD PUSH1 0x0 PUSH2 0x100 EXP DUP2 SLOAD DUP2 PUSH1 0xFF MUL NOT AND SWAP1 DUP4 ISZERO ISZERO MUL OR SWAP1 SSTORE POP PUSH1 0x1 PUSH1 0x7 DUP5 DUP2 SLOAD DUP2 LT PUSH2 0x81A JUMPI PUSH2 0x81A PUSH2 0xC9E JUMP JUMPDEST SWAP1 PUSH1 0x0 MSTORE PUSH1 0x20 PUSH1 0x0 KECCAK256 SWAP1 PUSH1 0x6 MUL ADD PUSH1 0x5 ADD PUSH1 0x0 DUP3 DUP3 SLOAD PUSH2 0x83A SWAP2 SWAP1 PUSH2 0xCE5 JUMP JUMPDEST SWAP1 SWAP2 SSTORE POP POP PUSH1 0x4 SLOAD PUSH2 0x84E SWAP1 PUSH1 0x2 SWAP1 PUSH2 0xCFD JUMP JUMPDEST PUSH1 0x7 DUP5 DUP2 SLOAD DUP2 LT PUSH2 0x861 JUMPI PUSH2 0x861 PUSH2 0xC9E JUMP JUMPDEST SWAP1 PUSH1 0x0 MSTORE PUSH1 0x20 PUSH1 0x0 KECCAK256 SWAP1 PUSH1 0x6 MUL ADD PUSH1 0x5 ADD SLOAD GT ISZERO PUSH2 0xA69 JUMPI PUSH1 0x7 DUP4 DUP2 SLOAD DUP2 LT PUSH2 0x88C JUMPI PUSH2 0x88C PUSH2 0xC9E JUMP JUMPDEST PUSH1 0x0 SWAP2 DUP3 MSTORE PUSH1 0x20 SWAP1 SWAP2 KECCAK256 PUSH1 0x2 PUSH1 0x6 SWAP1 SWAP3 MUL ADD ADD SLOAD PUSH1 0x7 DUP1 SLOAD PUSH1 0x1 PUSH1 0x1 PUSH1 0xA0 SHL SUB SWAP1 SWAP3 AND SWAP2 DUP6 SWAP1 DUP2 LT PUSH2 0x8C0 JUMPI PUSH2 0x8C0 PUSH2 0xC9E JUMP JUMPDEST SWAP1 PUSH1 0x0 MSTORE PUSH1 0x20 PUSH1 0x0 KECCAK256 SWAP1 PUSH1 0x6 MUL ADD PUSH1 0x3 ADD SLOAD PUSH1 0x40 MLOAD PUSH1 0x0 PUSH1 0x40 MLOAD DUP1 DUP4 SUB DUP2 DUP6 DUP8 GAS CALL SWAP3 POP POP POP RETURNDATASIZE DUP1 PUSH1 0x0 DUP2 EQ PUSH2 0x912 JUMPI PUSH1 0x40 MLOAD SWAP2 POP PUSH1 0x1F NOT PUSH1 0x3F RETURNDATASIZE ADD AND DUP3 ADD PUSH1 0x40 MSTORE RETURNDATASIZE DUP3 MSTORE RETURNDATASIZE PUSH1 0x0 PUSH1 0x20 DUP5 ADD RETURNDATACOPY PUSH2 0x917 JUMP JUMPDEST PUSH1 0x60 SWAP2 POP JUMPDEST POP POP POP PUSH1 0x0 JUMPDEST PUSH1 0x6 SLOAD DUP2 LT ISZERO PUSH2 0xA0B JUMPI PUSH1 0x7 DUP5 DUP2 SLOAD DUP2 LT PUSH2 0x93A JUMPI PUSH2 0x93A PUSH2 0xC9E JUMP JUMPDEST SWAP1 PUSH1 0x0 MSTORE PUSH1 0x20 PUSH1 0x0 KECCAK256 SWAP1 PUSH1 0x6 MUL ADD PUSH1 0x2 ADD PUSH1 0x0 SWAP1 SLOAD SWAP1 PUSH2 0x100 EXP SWAP1 DIV PUSH1 0x1 PUSH1 0x1 PUSH1 0xA0 SHL SUB AND PUSH1 0x1 PUSH1 0x1 PUSH1 0xA0 SHL SUB AND PUSH1 0x6 DUP3 DUP2 SLOAD DUP2 LT PUSH2 0x97B JUMPI PUSH2 0x97B PUSH2 0xC9E JUMP JUMPDEST PUSH1 0x0 SWAP2 DUP3 MSTORE PUSH1 0x20 SWAP1 SWAP2 KECCAK256 PUSH1 0x2 SWAP1 SWAP2 MUL ADD SLOAD PUSH1 0x1 PUSH1 0x1 PUSH1 0xA0 SHL SUB AND EQ ISZERO PUSH2 0x9F9 JUMPI PUSH1 0x7 DUP5 DUP2 SLOAD DUP2 LT PUSH2 0x9AE JUMPI PUSH2 0x9AE PUSH2 0xC9E JUMP JUMPDEST SWAP1 PUSH1 0x0 MSTORE PUSH1 0x20 PUSH1 0x0 KECCAK256 SWAP1 PUSH1 0x6 MUL ADD PUSH1 0x3 ADD SLOAD PUSH1 0x6 DUP3 DUP2 SLOAD DUP2 LT PUSH2 0x9D3 JUMPI PUSH2 0x9D3 PUSH2 0xC9E JUMP JUMPDEST SWAP1 PUSH1 0x0 MSTORE PUSH1 0x20 PUSH1 0x0 KECCAK256 SWAP1 PUSH1 0x2 MUL ADD PUSH1 0x1 ADD PUSH1 0x0 DUP3 DUP3 SLOAD PUSH2 0x9F3 SWAP2 SWAP1 PUSH2 0xCE5 JUMP JUMPDEST SWAP1 SWAP2 SSTORE POP POP JUMPDEST DUP1 PUSH2 0xA03 DUP2 PUSH2 0xCCA JUMP JUMPDEST SWAP2 POP POP PUSH2 0x91D JUMP JUMPDEST POP PUSH1 0x7 DUP4 DUP2 SLOAD DUP2 LT PUSH2 0xA1F JUMPI PUSH2 0xA1F PUSH2 0xC9E JUMP JUMPDEST PUSH1 0x0 SWAP2 DUP3 MSTORE PUSH1 0x20 DUP3 KECCAK256 PUSH1 0x6 SWAP1 SWAP2 MUL ADD DUP2 DUP2 SSTORE PUSH1 0x1 DUP2 ADD DUP1 SLOAD PUSH1 0x1 PUSH1 0x1 PUSH1 0xA0 SHL SUB NOT SWAP1 DUP2 AND SWAP1 SWAP2 SSTORE PUSH1 0x2 DUP3 ADD DUP1 SLOAD SWAP1 SWAP2 AND SWAP1 SSTORE PUSH1 0x3 DUP2 ADD DUP3 SWAP1 SSTORE PUSH1 0x4 DUP2 ADD DUP1 SLOAD PUSH1 0xFF NOT AND SWAP1 SSTORE PUSH1 0x5 ADD SSTORE JUMPDEST POP POP PUSH1 0x5 DUP1 SLOAD PUSH1 0xFF NOT AND SWAP1 SSTORE POP JUMP JUMPDEST PUSH1 0x5 SLOAD PUSH1 0x60 SWAP1 PUSH1 0xFF AND ISZERO PUSH2 0xACE JUMPI PUSH1 0x40 MLOAD PUSH3 0x461BCD PUSH1 0xE5 SHL DUP2 MSTORE PUSH1 0x20 PUSH1 0x4 DUP3 ADD MSTORE PUSH1 0x1C PUSH1 0x24 DUP3 ADD MSTORE PUSH32 0x596F752063616E6E6F74207265646F207468697320616374696F6E2E00000000 PUSH1 0x44 DUP3 ADD MSTORE PUSH1 0x64 ADD PUSH2 0x330 JUMP JUMPDEST PUSH1 0x5 DUP1 SLOAD PUSH1 0xFF NOT AND PUSH1 0x1 OR SWAP1 SSTORE DUP2 PUSH1 0x1 PUSH1 0x7 DUP5 DUP2 SLOAD DUP2 LT PUSH2 0xAF1 JUMPI PUSH2 0xAF1 PUSH2 0xC9E JUMP JUMPDEST SWAP1 PUSH1 0x0 MSTORE PUSH1 0x20 PUSH1 0x0 KECCAK256 SWAP1 PUSH1 0x6 MUL ADD PUSH1 0x4 ADD PUSH1 0x0 PUSH2 0x100 EXP DUP2 SLOAD DUP2 PUSH1 0xFF MUL NOT AND SWAP1 DUP4 ISZERO ISZERO MUL OR SWAP1 SSTORE POP PUSH1 0x1 PUSH1 0x7 DUP5 DUP2 SLOAD DUP2 LT PUSH2 0xB2E JUMPI PUSH2 0xB2E PUSH2 0xC9E JUMP JUMPDEST SWAP1 PUSH1 0x0 MSTORE PUSH1 0x20 PUSH1 0x0 KECCAK256 SWAP1 PUSH1 0x6 MUL ADD PUSH1 0x5 ADD PUSH1 0x0 DUP3 DUP3 SLOAD PUSH2 0xB4E SWAP2 SWAP1 PUSH2 0xD1F JUMP JUMPDEST SWAP1 SWAP2 SSTORE POP POP PUSH1 0x40 DUP1 MLOAD DUP1 DUP3 ADD SWAP1 SWAP2 MSTORE PUSH1 0x13 DUP2 MSTORE PUSH19 0x151C985B9CD858DD1A5BDB881C995D9BDAD959 PUSH1 0x6A SHL PUSH1 0x20 DUP3 ADD MSTORE PUSH1 0x5 DUP1 SLOAD PUSH1 0xFF NOT AND SWAP1 SSTORE SWAP4 SWAP3 POP POP POP JUMP JUMPDEST PUSH1 0x0 DUP1 JUMPDEST PUSH1 0x2 SLOAD DUP2 LT ISZERO PUSH2 0xBEF JUMPI DUP3 PUSH1 0x1 PUSH1 0x1 PUSH1 0xA0 SHL SUB AND PUSH1 0x2 DUP3 DUP2 SLOAD DUP2 LT PUSH2 0xBB9 JUMPI PUSH2 0xBB9 PUSH2 0xC9E JUMP JUMPDEST PUSH1 0x0 SWAP2 DUP3 MSTORE PUSH1 0x20 SWAP1 SWAP2 KECCAK256 ADD SLOAD PUSH1 0x1 PUSH1 0x1 PUSH1 0xA0 SHL SUB AND EQ ISZERO PUSH2 0xBDD JUMPI POP PUSH1 0x1 SWAP3 SWAP2 POP POP JUMP JUMPDEST DUP1 PUSH2 0xBE7 DUP2 PUSH2 0xCCA JUMP JUMPDEST SWAP2 POP POP PUSH2 0xB92 JUMP JUMPDEST POP PUSH1 0x0 SWAP3 SWAP2 POP POP JUMP JUMPDEST PUSH1 0x0 PUSH1 0x20 DUP3 DUP5 SUB SLT ISZERO PUSH2 0xC0A JUMPI PUSH1 0x0 DUP1 REVERT JUMPDEST POP CALLDATALOAD SWAP2 SWAP1 POP JUMP JUMPDEST PUSH1 0x0 DUP1 PUSH1 0x40 DUP4 DUP6 SUB SLT ISZERO PUSH2 0xC24 JUMPI PUSH1 0x0 DUP1 REVERT JUMPDEST DUP3 CALLDATALOAD PUSH1 0x1 PUSH1 0x1 PUSH1 0xA0 SHL SUB DUP2 AND DUP2 EQ PUSH2 0xC3B JUMPI PUSH1 0x0 DUP1 REVERT JUMPDEST SWAP5 PUSH1 0x20 SWAP4 SWAP1 SWAP4 ADD CALLDATALOAD SWAP4 POP POP POP JUMP JUMPDEST PUSH1 0x0 PUSH1 0x20 DUP1 DUP4 MSTORE DUP4 MLOAD DUP1 DUP3 DUP6 ADD MSTORE PUSH1 0x0 JUMPDEST DUP2 DUP2 LT ISZERO PUSH2 0xC76 JUMPI DUP6 DUP2 ADD DUP4 ADD MLOAD DUP6 DUP3 ADD PUSH1 0x40 ADD MSTORE DUP3 ADD PUSH2 0xC5A JUMP JUMPDEST DUP2 DUP2 GT ISZERO PUSH2 0xC88 JUMPI PUSH1 0x0 PUSH1 0x40 DUP4 DUP8 ADD ADD MSTORE JUMPDEST POP PUSH1 0x1F ADD PUSH1 0x1F NOT AND SWAP3 SWAP1 SWAP3 ADD PUSH1 0x40 ADD SWAP4 SWAP3 POP POP POP JUMP JUMPDEST PUSH4 0x4E487B71 PUSH1 0xE0 SHL PUSH1 0x0 MSTORE PUSH1 0x32 PUSH1 0x4 MSTORE PUSH1 0x24 PUSH1 0x0 REVERT JUMPDEST PUSH4 0x4E487B71 PUSH1 0xE0 SHL PUSH1 0x0 MSTORE PUSH1 0x11 PUSH1 0x4 MSTORE PUSH1 0x24 PUSH1 0x0 REVERT JUMPDEST PUSH1 0x0 PUSH1 0x0 NOT DUP3 EQ ISZERO PUSH2 0xCDE JUMPI PUSH2 0xCDE PUSH2 0xCB4 JUMP JUMPDEST POP PUSH1 0x1 ADD SWAP1 JUMP JUMPDEST PUSH1 0x0 DUP3 NOT DUP3 GT ISZERO PUSH2 0xCF8 JUMPI PUSH2 0xCF8 PUSH2 0xCB4 JUMP JUMPDEST POP ADD SWAP1 JUMP JUMPDEST PUSH1 0x0 DUP3 PUSH2 0xD1A JUMPI PUSH4 0x4E487B71 PUSH1 0xE0 SHL PUSH1 0x0 MSTORE PUSH1 0x12 PUSH1 0x4 MSTORE PUSH1 0x24 PUSH1 0x0 REVERT JUMPDEST POP DIV SWAP1 JUMP JUMPDEST PUSH1 0x0 DUP3 DUP3 LT ISZERO PUSH2 0xD31 JUMPI PUSH2 0xD31 PUSH2 0xCB4 JUMP JUMPDEST POP SUB SWAP1 JUMP INVALID LOG2 PUSH5 0x6970667358 0x22 SLT KECCAK256 CALL 0xC0 0xBB 0xCD 0x23 RETURNDATACOPY ORIGIN EQ 0xF 0xD5 PUSH10 0xD7FF9DCBD9AF6B2BA1C5 PUSH24 0xC311D950E5717F9FF41F64736F6C634300080C0033000000 ","sha1":"e655c7fef63f0a8fc12abc29195bed20544c2498","source":"// SPDX-License-Identifier: MIT\n\npragma solidity >0.6.0;\n\n/**\n    D E S C R I P T I O N\n\n    A basic solidity program that allows the creation of a wallet in the contract.\n\n    Wallet owners can:\n    \n    1. Submit a transaction.\n    2. Approve and revoke a pending transaction.\n    3. Anyone can execute a transaction after enough owners has approved it.\n\n*/\n\ncontract MultiSigWallet\n{\n    // initialize a map of acount to fund,\n    mapping(address => uint) address_to_fund;\n    uint wallet_amount;\n    address[] public wallets;\n    address payable owner;\n    uint total_wallets;\n    bool locked;\n\n    constructor()\n    {\n        owner = payable(msg.sender);\n    }\n\n    struct All_Wallets\n    {\n        address payable user;\n        uint cash;\n    }\n\n    All_Wallets[] public all;\n\n\n    // a struct of all transactions\n    // struct contains a hash, a from address, a to address, and the value being sent ovet through the blockchain\n\n    struct Transaction\n    {\n        bytes32 t_hash;\n        address from;\n        address to;\n        uint amount;\n        bool approved;\n        uint number_of_appprovals;\n    }\n\n    // a list that will hold all pending transactions\n    Transaction[] public transactions;\n\n    fallback() external payable {}\n    receive()  external payable {}\n\n    // control modifier\n    // this modifier makes sure that the user has not created a recorded wallet before\n\n    function isvalidperson(address r) internal returns(bool)\n    {\n        \n        for(uint i = 0; i < wallets.length; i++)\n        {\n            if(wallets[i] == r)\n            {\n                return true;\n            }\n        }\n        \n        return false;\n    }\n\n    modifier Valid_Transaction(address receiver, uint val)\n    {\n        require(val > 0, \"You cant submit a transaction that is empty.\");\n        require(isvalidperson(receiver), \"The receiver has no wallet here.\");\n        _;\n    }\n\n    modifier Valid_Sender\n    {\n        require(isvalidperson(msg.sender), \"You have no wallet here.\");\n        _;\n    }\n\n    modifier Is_Listed(uint index)\n    {\n        require(index >= 0, \"Index not listed\");\n        _;\n    }\n\n    modifier Is_Valid(uint index)\n    {\n        require(index < transactions.length, \"Index not listed\");\n        _;\n    }\n\n    modifier NoReentrance()\n    {\n        require(!locked, \"You cannot redo this action.\");\n        locked = true;\n        _;\n        locked = false;\n    }\n\n    // this function creates a new 'wallet' and checks if the user has an already existing wallet.\n    function Create_Wallet() public\n    {\n        for(uint i = 0; i < wallets.length; i++)\n        {\n            if(wallets[i] == msg.sender)\n            {\n                revert(\"You have created a wallet here.\");\n            }\n        }\n\n        // address_to_fund[msg.sender] += wallet_amount;\n        address_to_fund[msg.sender] += 0;\n        wallets.push(msg.sender);\n        total_wallets += 1;\n        all.push(All_Wallets(payable(msg.sender), 0));\n    }\n\n\n    function Make_Transaction(address receiver, uint val) public Valid_Sender Valid_Transaction(receiver, val)\n    {\n        bytes32 txn_hash = keccak256(abi.encodePacked(msg.sender, receiver, val));\n        transactions.push(Transaction(txn_hash, msg.sender, receiver, val, false, 0));\n        // return(\"This transaction has been listed\");\n    }\n\n    // approval function\n    function Approve_Transaction(uint index) public NoReentrance Is_Listed(index) Is_Valid(index) payable\n    {\n        transactions[index].approved = true;\n        transactions[index].number_of_appprovals += 1;\n\n        if(transactions[index].number_of_appprovals  > (total_wallets / 2))\n        {\n            payable(transactions[index].to).call{value: transactions[index].amount}(\"\");\n            // payable(transactions[index].to).transfer(transactions[index].amount);\n\n            for(uint j = 0; j < all.length; j++)\n            {\n                if(all[j].user == transactions[index].to)\n                {\n                    all[j].cash += transactions[index].amount;\n                }\n            }\n\n            delete transactions[index];\n        }\n    }\n\n\n    function Revoke_Transaction(uint index) NoReentrance Is_Listed(index) public returns(string memory)\n    {\n        transactions[index].approved = true;\n        transactions[index].number_of_appprovals -= 1;\n\n        return(\"Transaction revoked\");\n    }\n\n\n    function getwallets() public view returns(uint256)\n    {\n        return wallets.length;\n    }\n}","sourcePath":"contracts/MultiSigWallet.sol","type":"contract","deployment":{"address":"0x126065c1DF6bb579E7D9590bf07C28D1db519286","chainid":"4","blockHeight":10321684}}